{
  "contracts/lib/Cloak.sol": {
    "Cloak": {
      "abi": [
        {
          "inputs": [
            {
              "internalType": "uint16",
              "name": "minDethscales",
              "type": "uint16"
            },
            {
              "internalType": "uint16",
              "name": "maxDethscales",
              "type": "uint16"
            },
            {
              "internalType": "uint16",
              "name": "seed",
              "type": "uint16"
            },
            {
              "internalType": "uint16",
              "name": "salt",
              "type": "uint16"
            }
          ],
          "name": "getDethscales",
          "outputs": [
            {
              "internalType": "uint16",
              "name": "",
              "type": "uint16"
            }
          ],
          "stateMutability": "pure",
          "type": "function"
        },
        {
          "inputs": [
            {
              "internalType": "uint16",
              "name": "minNoiseBits",
              "type": "uint16"
            },
            {
              "internalType": "uint16",
              "name": "maxNoiseBits",
              "type": "uint16"
            },
            {
              "internalType": "uint16",
              "name": "_dethscales",
              "type": "uint16"
            }
          ],
          "name": "getFullCloak",
          "outputs": [
            {
              "internalType": "uint32[32]",
              "name": "",
              "type": "uint32[32]"
            }
          ],
          "stateMutability": "pure",
          "type": "function"
        }
      ],
      "evm": {
        "bytecode": {
          "linkReferences": {},
          "object": "61090261003a600b82828239805160001a60731461002d57634e487b7160e01b600052600060045260246000fd5b30600052607381538281f3fe73000000000000000000000000000000000000000030146080604052600436106100405760003560e01c806331f7bb74146100455780633966f4001461006e575b600080fd5b610058610053366004610504565b610094565b6040516100659190610547565b60405180910390f35b61008161007c366004610583565b610396565b60405161ffff9091168152602001610065565b61009c6104b0565b6100a46104b0565b61ffff83166100b16104cf565b601082901b65fffff000000016600c83811b650fffff00000016600885811b64fffff0000016600487811b640fffff00001663fffff00089169189901c630fffff00169589901c620fffff169389901c62fffff0169390931794909417939093171791909117171781600063ffffffff9290921660209092020152601482901b63f000000016601083901b630f00000016600c84901b62f0000016600885811b620f000016600487811b61f00016610f0089169389901c600f169189901c60f0169190911792909217919091171717171781600163ffffffff9290921660209092020152601882901b63f000000016601483901b630f00000016601084901b62f0000016600c85901b620f000016600886901b61f00016600487811b610f00169088901c600f1660f089161717171717171781600263ffffffff909216602092909202015260f0600483901b16600f831617610f00600884901b161761f000600c84901b1617620f0000601084901b161762f00000601484901b1617630f000000601884901b161763f0000000601c84901b161781600363ffffffff909216602092909202015260005b60208161ffff1610156102c557816102746004836105ed565b61ffff1660048110610288576102886105d7565b6020020151848261ffff16602081106102a3576102a36105d7565b63ffffffff9092166020929092020152806102bd81610632565b91505061025b565b506000876102e86102d6828a610654565b6102e1906001610677565b888a61043f565b6102f29190610677565b905060005b8161ffff168161ffff1610156103895760006103156020898461043f565b905060006103256020838561043f565b9050868161ffff166020811061033d5761033d6105d7565b602002015161034d836002610894565b18878261ffff1660208110610364576103646105d7565b63ffffffff90921660209290920201525081905061038181610632565b9150506102f7565b5092979650505050505050565b60008080806103a58888610654565b6103b0906001610677565b9050600061ffff8716156103c2575060015b6000816103cf57866103d1565b875b905060008a6103e1858a8561043f565b6103eb9190610677565b905060005b8161ffff168161ffff16101561042f5761040c6010828561043f565b95508661041a8760026108b1565b1796508061042781610632565b9150506103f0565b50949a9950505050505050505050565b6040517fffff00000000000000000000000000000000000000000000000000000000000060f084811b8216602084015283901b16602282015260009081906024016040516020818303038152906040528051906020012060f01c905084816104a791906105ed565b95945050505050565b6040518061040001604052806020906020820280368337509192915050565b60405180608001604052806004906020820280368337509192915050565b803561ffff811681146104ff57600080fd5b919050565b60008060006060848603121561051957600080fd5b610522846104ed565b9250610530602085016104ed565b915061053e604085016104ed565b90509250925092565b6104008101818360005b6020808210610560575061057a565b825163ffffffff1684529283019290910190600101610551565b50505092915050565b6000806000806080858703121561059957600080fd5b6105a2856104ed565b93506105b0602086016104ed565b92506105be604086016104ed565b91506105cc606086016104ed565b905092959194509250565b634e487b7160e01b600052603260045260246000fd5b600061ffff8084168061061057634e487b7160e01b600052601260045260246000fd5b92169190910692915050565b634e487b7160e01b600052601160045260246000fd5b600061ffff8083168181141561064a5761064a61061c565b6001019392505050565b600061ffff8381169083168181101561066f5761066f61061c565b039392505050565b600061ffff8083168185168083038211156106945761069461061c565b01949350505050565b600181815b808511156106da578163ffffffff048211156106c0576106c061061c565b808516156106cd57918102915b93841c93908002906106a2565b509250929050565b600181815b808511156106da578161ffff048211156107035761070361061c565b8085161561071057918102915b93841c93908002906106e7565b60008261072c575060016107e5565b81610739575060006107e5565b816001811461074f57600281146107595761078a565b60019150506107e5565b60ff84111561076a5761076a61061c565b6001841b915063ffffffff8211156107845761078461061c565b506107e5565b5060208310610133831016604e8410600b84101617156107c1575081810a63ffffffff8111156107bc576107bc61061c565b6107e5565b6107cb838361069d565b8063ffffffff048211156107e1576107e161061c565b0290505b92915050565b6000826107fa575060016107e5565b81610807575060006107e5565b816001811461074f576002811461081d57610846565b60ff84111561082e5761082e61061c565b6001841b915061ffff8211156107845761078461061c565b5060208310610133831016604e8410600b8410161715610876575081810a61ffff8111156107bc576107bc61061c565b61088083836106e2565b8061ffff048211156107e1576107e161061c565b60006108aa61ffff841663ffffffff841661071d565b9392505050565b600061ffff6108c48185168285166107eb565b94935050505056fea2646970667358221220a1c19d58cab540070f9aead3f2d98a302d8114abc3c2da02ea7765f5e647cd2f64736f6c634300080a0033",
          "opcodes": "PUSH2 0x902 PUSH2 0x3A PUSH1 0xB DUP3 DUP3 DUP3 CODECOPY DUP1 MLOAD PUSH1 0x0 BYTE PUSH1 0x73 EQ PUSH2 0x2D JUMPI PUSH4 0x4E487B71 PUSH1 0xE0 SHL PUSH1 0x0 MSTORE PUSH1 0x0 PUSH1 0x4 MSTORE PUSH1 0x24 PUSH1 0x0 REVERT JUMPDEST ADDRESS PUSH1 0x0 MSTORE PUSH1 0x73 DUP2 MSTORE8 DUP3 DUP2 RETURN INVALID PUSH20 0x0 ADDRESS EQ PUSH1 0x80 PUSH1 0x40 MSTORE PUSH1 0x4 CALLDATASIZE LT PUSH2 0x40 JUMPI PUSH1 0x0 CALLDATALOAD PUSH1 0xE0 SHR DUP1 PUSH4 0x31F7BB74 EQ PUSH2 0x45 JUMPI DUP1 PUSH4 0x3966F400 EQ PUSH2 0x6E JUMPI JUMPDEST PUSH1 0x0 DUP1 REVERT JUMPDEST PUSH2 0x58 PUSH2 0x53 CALLDATASIZE PUSH1 0x4 PUSH2 0x504 JUMP JUMPDEST PUSH2 0x94 JUMP JUMPDEST PUSH1 0x40 MLOAD PUSH2 0x65 SWAP2 SWAP1 PUSH2 0x547 JUMP JUMPDEST PUSH1 0x40 MLOAD DUP1 SWAP2 SUB SWAP1 RETURN JUMPDEST PUSH2 0x81 PUSH2 0x7C CALLDATASIZE PUSH1 0x4 PUSH2 0x583 JUMP JUMPDEST PUSH2 0x396 JUMP JUMPDEST PUSH1 0x40 MLOAD PUSH2 0xFFFF SWAP1 SWAP2 AND DUP2 MSTORE PUSH1 0x20 ADD PUSH2 0x65 JUMP JUMPDEST PUSH2 0x9C PUSH2 0x4B0 JUMP JUMPDEST PUSH2 0xA4 PUSH2 0x4B0 JUMP JUMPDEST PUSH2 0xFFFF DUP4 AND PUSH2 0xB1 PUSH2 0x4CF JUMP JUMPDEST PUSH1 0x10 DUP3 SWAP1 SHL PUSH6 0xFFFFF0000000 AND PUSH1 0xC DUP4 DUP2 SHL PUSH6 0xFFFFF000000 AND PUSH1 0x8 DUP6 DUP2 SHL PUSH5 0xFFFFF00000 AND PUSH1 0x4 DUP8 DUP2 SHL PUSH5 0xFFFFF0000 AND PUSH4 0xFFFFF000 DUP10 AND SWAP2 DUP10 SWAP1 SHR PUSH4 0xFFFFF00 AND SWAP6 DUP10 SWAP1 SHR PUSH3 0xFFFFF AND SWAP4 DUP10 SWAP1 SHR PUSH3 0xFFFFF0 AND SWAP4 SWAP1 SWAP4 OR SWAP5 SWAP1 SWAP5 OR SWAP4 SWAP1 SWAP4 OR OR SWAP2 SWAP1 SWAP2 OR OR OR DUP2 PUSH1 0x0 PUSH4 0xFFFFFFFF SWAP3 SWAP1 SWAP3 AND PUSH1 0x20 SWAP1 SWAP3 MUL ADD MSTORE PUSH1 0x14 DUP3 SWAP1 SHL PUSH4 0xF0000000 AND PUSH1 0x10 DUP4 SWAP1 SHL PUSH4 0xF000000 AND PUSH1 0xC DUP5 SWAP1 SHL PUSH3 0xF00000 AND PUSH1 0x8 DUP6 DUP2 SHL PUSH3 0xF0000 AND PUSH1 0x4 DUP8 DUP2 SHL PUSH2 0xF000 AND PUSH2 0xF00 DUP10 AND SWAP4 DUP10 SWAP1 SHR PUSH1 0xF AND SWAP2 DUP10 SWAP1 SHR PUSH1 0xF0 AND SWAP2 SWAP1 SWAP2 OR SWAP3 SWAP1 SWAP3 OR SWAP2 SWAP1 SWAP2 OR OR OR OR OR DUP2 PUSH1 0x1 PUSH4 0xFFFFFFFF SWAP3 SWAP1 SWAP3 AND PUSH1 0x20 SWAP1 SWAP3 MUL ADD MSTORE PUSH1 0x18 DUP3 SWAP1 SHL PUSH4 0xF0000000 AND PUSH1 0x14 DUP4 SWAP1 SHL PUSH4 0xF000000 AND PUSH1 0x10 DUP5 SWAP1 SHL PUSH3 0xF00000 AND PUSH1 0xC DUP6 SWAP1 SHL PUSH3 0xF0000 AND PUSH1 0x8 DUP7 SWAP1 SHL PUSH2 0xF000 AND PUSH1 0x4 DUP8 DUP2 SHL PUSH2 0xF00 AND SWAP1 DUP9 SWAP1 SHR PUSH1 0xF AND PUSH1 0xF0 DUP10 AND OR OR OR OR OR OR OR DUP2 PUSH1 0x2 PUSH4 0xFFFFFFFF SWAP1 SWAP3 AND PUSH1 0x20 SWAP3 SWAP1 SWAP3 MUL ADD MSTORE PUSH1 0xF0 PUSH1 0x4 DUP4 SWAP1 SHL AND PUSH1 0xF DUP4 AND OR PUSH2 0xF00 PUSH1 0x8 DUP5 SWAP1 SHL AND OR PUSH2 0xF000 PUSH1 0xC DUP5 SWAP1 SHL AND OR PUSH3 0xF0000 PUSH1 0x10 DUP5 SWAP1 SHL AND OR PUSH3 0xF00000 PUSH1 0x14 DUP5 SWAP1 SHL AND OR PUSH4 0xF000000 PUSH1 0x18 DUP5 SWAP1 SHL AND OR PUSH4 0xF0000000 PUSH1 0x1C DUP5 SWAP1 SHL AND OR DUP2 PUSH1 0x3 PUSH4 0xFFFFFFFF SWAP1 SWAP3 AND PUSH1 0x20 SWAP3 SWAP1 SWAP3 MUL ADD MSTORE PUSH1 0x0 JUMPDEST PUSH1 0x20 DUP2 PUSH2 0xFFFF AND LT ISZERO PUSH2 0x2C5 JUMPI DUP2 PUSH2 0x274 PUSH1 0x4 DUP4 PUSH2 0x5ED JUMP JUMPDEST PUSH2 0xFFFF AND PUSH1 0x4 DUP2 LT PUSH2 0x288 JUMPI PUSH2 0x288 PUSH2 0x5D7 JUMP JUMPDEST PUSH1 0x20 MUL ADD MLOAD DUP5 DUP3 PUSH2 0xFFFF AND PUSH1 0x20 DUP2 LT PUSH2 0x2A3 JUMPI PUSH2 0x2A3 PUSH2 0x5D7 JUMP JUMPDEST PUSH4 0xFFFFFFFF SWAP1 SWAP3 AND PUSH1 0x20 SWAP3 SWAP1 SWAP3 MUL ADD MSTORE DUP1 PUSH2 0x2BD DUP2 PUSH2 0x632 JUMP JUMPDEST SWAP2 POP POP PUSH2 0x25B JUMP JUMPDEST POP PUSH1 0x0 DUP8 PUSH2 0x2E8 PUSH2 0x2D6 DUP3 DUP11 PUSH2 0x654 JUMP JUMPDEST PUSH2 0x2E1 SWAP1 PUSH1 0x1 PUSH2 0x677 JUMP JUMPDEST DUP9 DUP11 PUSH2 0x43F JUMP JUMPDEST PUSH2 0x2F2 SWAP2 SWAP1 PUSH2 0x677 JUMP JUMPDEST SWAP1 POP PUSH1 0x0 JUMPDEST DUP2 PUSH2 0xFFFF AND DUP2 PUSH2 0xFFFF AND LT ISZERO PUSH2 0x389 JUMPI PUSH1 0x0 PUSH2 0x315 PUSH1 0x20 DUP10 DUP5 PUSH2 0x43F JUMP JUMPDEST SWAP1 POP PUSH1 0x0 PUSH2 0x325 PUSH1 0x20 DUP4 DUP6 PUSH2 0x43F JUMP JUMPDEST SWAP1 POP DUP7 DUP2 PUSH2 0xFFFF AND PUSH1 0x20 DUP2 LT PUSH2 0x33D JUMPI PUSH2 0x33D PUSH2 0x5D7 JUMP JUMPDEST PUSH1 0x20 MUL ADD MLOAD PUSH2 0x34D DUP4 PUSH1 0x2 PUSH2 0x894 JUMP JUMPDEST XOR DUP8 DUP3 PUSH2 0xFFFF AND PUSH1 0x20 DUP2 LT PUSH2 0x364 JUMPI PUSH2 0x364 PUSH2 0x5D7 JUMP JUMPDEST PUSH4 0xFFFFFFFF SWAP1 SWAP3 AND PUSH1 0x20 SWAP3 SWAP1 SWAP3 MUL ADD MSTORE POP DUP2 SWAP1 POP PUSH2 0x381 DUP2 PUSH2 0x632 JUMP JUMPDEST SWAP2 POP POP PUSH2 0x2F7 JUMP JUMPDEST POP SWAP3 SWAP8 SWAP7 POP POP POP POP POP POP POP JUMP JUMPDEST PUSH1 0x0 DUP1 DUP1 DUP1 PUSH2 0x3A5 DUP9 DUP9 PUSH2 0x654 JUMP JUMPDEST PUSH2 0x3B0 SWAP1 PUSH1 0x1 PUSH2 0x677 JUMP JUMPDEST SWAP1 POP PUSH1 0x0 PUSH2 0xFFFF DUP8 AND ISZERO PUSH2 0x3C2 JUMPI POP PUSH1 0x1 JUMPDEST PUSH1 0x0 DUP2 PUSH2 0x3CF JUMPI DUP7 PUSH2 0x3D1 JUMP JUMPDEST DUP8 JUMPDEST SWAP1 POP PUSH1 0x0 DUP11 PUSH2 0x3E1 DUP6 DUP11 DUP6 PUSH2 0x43F JUMP JUMPDEST PUSH2 0x3EB SWAP2 SWAP1 PUSH2 0x677 JUMP JUMPDEST SWAP1 POP PUSH1 0x0 JUMPDEST DUP2 PUSH2 0xFFFF AND DUP2 PUSH2 0xFFFF AND LT ISZERO PUSH2 0x42F JUMPI PUSH2 0x40C PUSH1 0x10 DUP3 DUP6 PUSH2 0x43F JUMP JUMPDEST SWAP6 POP DUP7 PUSH2 0x41A DUP8 PUSH1 0x2 PUSH2 0x8B1 JUMP JUMPDEST OR SWAP7 POP DUP1 PUSH2 0x427 DUP2 PUSH2 0x632 JUMP JUMPDEST SWAP2 POP POP PUSH2 0x3F0 JUMP JUMPDEST POP SWAP5 SWAP11 SWAP10 POP POP POP POP POP POP POP POP POP POP JUMP JUMPDEST PUSH1 0x40 MLOAD PUSH32 0xFFFF000000000000000000000000000000000000000000000000000000000000 PUSH1 0xF0 DUP5 DUP2 SHL DUP3 AND PUSH1 0x20 DUP5 ADD MSTORE DUP4 SWAP1 SHL AND PUSH1 0x22 DUP3 ADD MSTORE PUSH1 0x0 SWAP1 DUP2 SWAP1 PUSH1 0x24 ADD PUSH1 0x40 MLOAD PUSH1 0x20 DUP2 DUP4 SUB SUB DUP2 MSTORE SWAP1 PUSH1 0x40 MSTORE DUP1 MLOAD SWAP1 PUSH1 0x20 ADD KECCAK256 PUSH1 0xF0 SHR SWAP1 POP DUP5 DUP2 PUSH2 0x4A7 SWAP2 SWAP1 PUSH2 0x5ED JUMP JUMPDEST SWAP6 SWAP5 POP POP POP POP POP JUMP JUMPDEST PUSH1 0x40 MLOAD DUP1 PUSH2 0x400 ADD PUSH1 0x40 MSTORE DUP1 PUSH1 0x20 SWAP1 PUSH1 0x20 DUP3 MUL DUP1 CALLDATASIZE DUP4 CALLDATACOPY POP SWAP2 SWAP3 SWAP2 POP POP JUMP JUMPDEST PUSH1 0x40 MLOAD DUP1 PUSH1 0x80 ADD PUSH1 0x40 MSTORE DUP1 PUSH1 0x4 SWAP1 PUSH1 0x20 DUP3 MUL DUP1 CALLDATASIZE DUP4 CALLDATACOPY POP SWAP2 SWAP3 SWAP2 POP POP JUMP JUMPDEST DUP1 CALLDATALOAD PUSH2 0xFFFF DUP2 AND DUP2 EQ PUSH2 0x4FF JUMPI PUSH1 0x0 DUP1 REVERT JUMPDEST SWAP2 SWAP1 POP JUMP JUMPDEST PUSH1 0x0 DUP1 PUSH1 0x0 PUSH1 0x60 DUP5 DUP7 SUB SLT ISZERO PUSH2 0x519 JUMPI PUSH1 0x0 DUP1 REVERT JUMPDEST PUSH2 0x522 DUP5 PUSH2 0x4ED JUMP JUMPDEST SWAP3 POP PUSH2 0x530 PUSH1 0x20 DUP6 ADD PUSH2 0x4ED JUMP JUMPDEST SWAP2 POP PUSH2 0x53E PUSH1 0x40 DUP6 ADD PUSH2 0x4ED JUMP JUMPDEST SWAP1 POP SWAP3 POP SWAP3 POP SWAP3 JUMP JUMPDEST PUSH2 0x400 DUP2 ADD DUP2 DUP4 PUSH1 0x0 JUMPDEST PUSH1 0x20 DUP1 DUP3 LT PUSH2 0x560 JUMPI POP PUSH2 0x57A JUMP JUMPDEST DUP3 MLOAD PUSH4 0xFFFFFFFF AND DUP5 MSTORE SWAP3 DUP4 ADD SWAP3 SWAP1 SWAP2 ADD SWAP1 PUSH1 0x1 ADD PUSH2 0x551 JUMP JUMPDEST POP POP POP SWAP3 SWAP2 POP POP JUMP JUMPDEST PUSH1 0x0 DUP1 PUSH1 0x0 DUP1 PUSH1 0x80 DUP6 DUP8 SUB SLT ISZERO PUSH2 0x599 JUMPI PUSH1 0x0 DUP1 REVERT JUMPDEST PUSH2 0x5A2 DUP6 PUSH2 0x4ED JUMP JUMPDEST SWAP4 POP PUSH2 0x5B0 PUSH1 0x20 DUP7 ADD PUSH2 0x4ED JUMP JUMPDEST SWAP3 POP PUSH2 0x5BE PUSH1 0x40 DUP7 ADD PUSH2 0x4ED JUMP JUMPDEST SWAP2 POP PUSH2 0x5CC PUSH1 0x60 DUP7 ADD PUSH2 0x4ED JUMP JUMPDEST SWAP1 POP SWAP3 SWAP6 SWAP2 SWAP5 POP SWAP3 POP JUMP JUMPDEST PUSH4 0x4E487B71 PUSH1 0xE0 SHL PUSH1 0x0 MSTORE PUSH1 0x32 PUSH1 0x4 MSTORE PUSH1 0x24 PUSH1 0x0 REVERT JUMPDEST PUSH1 0x0 PUSH2 0xFFFF DUP1 DUP5 AND DUP1 PUSH2 0x610 JUMPI PUSH4 0x4E487B71 PUSH1 0xE0 SHL PUSH1 0x0 MSTORE PUSH1 0x12 PUSH1 0x4 MSTORE PUSH1 0x24 PUSH1 0x0 REVERT JUMPDEST SWAP3 AND SWAP2 SWAP1 SWAP2 MOD SWAP3 SWAP2 POP POP JUMP JUMPDEST PUSH4 0x4E487B71 PUSH1 0xE0 SHL PUSH1 0x0 MSTORE PUSH1 0x11 PUSH1 0x4 MSTORE PUSH1 0x24 PUSH1 0x0 REVERT JUMPDEST PUSH1 0x0 PUSH2 0xFFFF DUP1 DUP4 AND DUP2 DUP2 EQ ISZERO PUSH2 0x64A JUMPI PUSH2 0x64A PUSH2 0x61C JUMP JUMPDEST PUSH1 0x1 ADD SWAP4 SWAP3 POP POP POP JUMP JUMPDEST PUSH1 0x0 PUSH2 0xFFFF DUP4 DUP2 AND SWAP1 DUP4 AND DUP2 DUP2 LT ISZERO PUSH2 0x66F JUMPI PUSH2 0x66F PUSH2 0x61C JUMP JUMPDEST SUB SWAP4 SWAP3 POP POP POP JUMP JUMPDEST PUSH1 0x0 PUSH2 0xFFFF DUP1 DUP4 AND DUP2 DUP6 AND DUP1 DUP4 SUB DUP3 GT ISZERO PUSH2 0x694 JUMPI PUSH2 0x694 PUSH2 0x61C JUMP JUMPDEST ADD SWAP5 SWAP4 POP POP POP POP JUMP JUMPDEST PUSH1 0x1 DUP2 DUP2 JUMPDEST DUP1 DUP6 GT ISZERO PUSH2 0x6DA JUMPI DUP2 PUSH4 0xFFFFFFFF DIV DUP3 GT ISZERO PUSH2 0x6C0 JUMPI PUSH2 0x6C0 PUSH2 0x61C JUMP JUMPDEST DUP1 DUP6 AND ISZERO PUSH2 0x6CD JUMPI SWAP2 DUP2 MUL SWAP2 JUMPDEST SWAP4 DUP5 SHR SWAP4 SWAP1 DUP1 MUL SWAP1 PUSH2 0x6A2 JUMP JUMPDEST POP SWAP3 POP SWAP3 SWAP1 POP JUMP JUMPDEST PUSH1 0x1 DUP2 DUP2 JUMPDEST DUP1 DUP6 GT ISZERO PUSH2 0x6DA JUMPI DUP2 PUSH2 0xFFFF DIV DUP3 GT ISZERO PUSH2 0x703 JUMPI PUSH2 0x703 PUSH2 0x61C JUMP JUMPDEST DUP1 DUP6 AND ISZERO PUSH2 0x710 JUMPI SWAP2 DUP2 MUL SWAP2 JUMPDEST SWAP4 DUP5 SHR SWAP4 SWAP1 DUP1 MUL SWAP1 PUSH2 0x6E7 JUMP JUMPDEST PUSH1 0x0 DUP3 PUSH2 0x72C JUMPI POP PUSH1 0x1 PUSH2 0x7E5 JUMP JUMPDEST DUP2 PUSH2 0x739 JUMPI POP PUSH1 0x0 PUSH2 0x7E5 JUMP JUMPDEST DUP2 PUSH1 0x1 DUP2 EQ PUSH2 0x74F JUMPI PUSH1 0x2 DUP2 EQ PUSH2 0x759 JUMPI PUSH2 0x78A JUMP JUMPDEST PUSH1 0x1 SWAP2 POP POP PUSH2 0x7E5 JUMP JUMPDEST PUSH1 0xFF DUP5 GT ISZERO PUSH2 0x76A JUMPI PUSH2 0x76A PUSH2 0x61C JUMP JUMPDEST PUSH1 0x1 DUP5 SHL SWAP2 POP PUSH4 0xFFFFFFFF DUP3 GT ISZERO PUSH2 0x784 JUMPI PUSH2 0x784 PUSH2 0x61C JUMP JUMPDEST POP PUSH2 0x7E5 JUMP JUMPDEST POP PUSH1 0x20 DUP4 LT PUSH2 0x133 DUP4 LT AND PUSH1 0x4E DUP5 LT PUSH1 0xB DUP5 LT AND OR ISZERO PUSH2 0x7C1 JUMPI POP DUP2 DUP2 EXP PUSH4 0xFFFFFFFF DUP2 GT ISZERO PUSH2 0x7BC JUMPI PUSH2 0x7BC PUSH2 0x61C JUMP JUMPDEST PUSH2 0x7E5 JUMP JUMPDEST PUSH2 0x7CB DUP4 DUP4 PUSH2 0x69D JUMP JUMPDEST DUP1 PUSH4 0xFFFFFFFF DIV DUP3 GT ISZERO PUSH2 0x7E1 JUMPI PUSH2 0x7E1 PUSH2 0x61C JUMP JUMPDEST MUL SWAP1 POP JUMPDEST SWAP3 SWAP2 POP POP JUMP JUMPDEST PUSH1 0x0 DUP3 PUSH2 0x7FA JUMPI POP PUSH1 0x1 PUSH2 0x7E5 JUMP JUMPDEST DUP2 PUSH2 0x807 JUMPI POP PUSH1 0x0 PUSH2 0x7E5 JUMP JUMPDEST DUP2 PUSH1 0x1 DUP2 EQ PUSH2 0x74F JUMPI PUSH1 0x2 DUP2 EQ PUSH2 0x81D JUMPI PUSH2 0x846 JUMP JUMPDEST PUSH1 0xFF DUP5 GT ISZERO PUSH2 0x82E JUMPI PUSH2 0x82E PUSH2 0x61C JUMP JUMPDEST PUSH1 0x1 DUP5 SHL SWAP2 POP PUSH2 0xFFFF DUP3 GT ISZERO PUSH2 0x784 JUMPI PUSH2 0x784 PUSH2 0x61C JUMP JUMPDEST POP PUSH1 0x20 DUP4 LT PUSH2 0x133 DUP4 LT AND PUSH1 0x4E DUP5 LT PUSH1 0xB DUP5 LT AND OR ISZERO PUSH2 0x876 JUMPI POP DUP2 DUP2 EXP PUSH2 0xFFFF DUP2 GT ISZERO PUSH2 0x7BC JUMPI PUSH2 0x7BC PUSH2 0x61C JUMP JUMPDEST PUSH2 0x880 DUP4 DUP4 PUSH2 0x6E2 JUMP JUMPDEST DUP1 PUSH2 0xFFFF DIV DUP3 GT ISZERO PUSH2 0x7E1 JUMPI PUSH2 0x7E1 PUSH2 0x61C JUMP JUMPDEST PUSH1 0x0 PUSH2 0x8AA PUSH2 0xFFFF DUP5 AND PUSH4 0xFFFFFFFF DUP5 AND PUSH2 0x71D JUMP JUMPDEST SWAP4 SWAP3 POP POP POP JUMP JUMPDEST PUSH1 0x0 PUSH2 0xFFFF PUSH2 0x8C4 DUP2 DUP6 AND DUP3 DUP6 AND PUSH2 0x7EB JUMP JUMPDEST SWAP5 SWAP4 POP POP POP POP JUMP INVALID LOG2 PUSH5 0x6970667358 0x22 SLT KECCAK256 LOG1 0xC1 SWAP14 PC 0xCA 0xB5 BLOCKHASH SMOD 0xF SWAP11 0xEA 0xD3 CALLCODE 0xD9 DUP11 ADDRESS 0x2D DUP2 EQ 0xAB 0xC3 0xC2 0xDA MUL 0xEA PUSH24 0x65F5E647CD2F64736F6C634300080A003300000000000000 "
        },
        "methodIdentifiers": {
          "getDethscales(uint16,uint16,uint16,uint16)": "3966f400",
          "getFullCloak(uint16,uint16,uint16)": "31f7bb74"
        }
      }
    }
  }
}