{
  "contracts/CheckRand.sol": {
    "CheckRand": {
      "abi": [
        {
          "inputs": [],
          "stateMutability": "nonpayable",
          "type": "constructor"
        },
        {
          "inputs": [
            {
              "internalType": "uint256",
              "name": "mod",
              "type": "uint256"
            },
            {
              "internalType": "uint256",
              "name": "r",
              "type": "uint256"
            }
          ],
          "name": "_getRandomNumber",
          "outputs": [
            {
              "internalType": "uint256",
              "name": "",
              "type": "uint256"
            }
          ],
          "stateMutability": "view",
          "type": "function"
        },
        {
          "inputs": [],
          "name": "_returnTime",
          "outputs": [
            {
              "internalType": "uint32",
              "name": "",
              "type": "uint32"
            }
          ],
          "stateMutability": "view",
          "type": "function"
        },
        {
          "inputs": [
            {
              "internalType": "uint256",
              "name": "n",
              "type": "uint256"
            }
          ],
          "name": "changeState",
          "outputs": [],
          "stateMutability": "nonpayable",
          "type": "function"
        }
      ],
      "evm": {
        "bytecode": {
          "linkReferences": {},
          "object": "608060405234801561001057600080fd5b506101ca806100206000396000f3fe608060405234801561001057600080fd5b50600436106100415760003560e01c80637396a7d014610046578063b00741cb1461005f578063b8ef04e714610074575b600080fd5b60405163ffffffff421681526020015b60405180910390f35b61007261006d366004610112565b600055565b005b61008761008236600461012b565b610095565b604051908152602001610056565b6000806100a360014361014d565b405a6040805160208101939093528201524260608083019190915233901b6bffffffffffffffffffffffff191660808201526094810185905260b4810184905260d40160408051601f198184030181529190528051602090910120905061010a8482610172565b949350505050565b60006020828403121561012457600080fd5b5035919050565b6000806040838503121561013e57600080fd5b50508035926020909101359150565b60008282101561016d57634e487b7160e01b600052601160045260246000fd5b500390565b60008261018f57634e487b7160e01b600052601260045260246000fd5b50069056fea26469706673582212206214b69a8f1e7c1d7c846192453a7197093b2db382e5406a3244908c2b862af664736f6c634300080a0033",
          "opcodes": "PUSH1 0x80 PUSH1 0x40 MSTORE CALLVALUE DUP1 ISZERO PUSH2 0x10 JUMPI PUSH1 0x0 DUP1 REVERT JUMPDEST POP PUSH2 0x1CA DUP1 PUSH2 0x20 PUSH1 0x0 CODECOPY PUSH1 0x0 RETURN INVALID PUSH1 0x80 PUSH1 0x40 MSTORE CALLVALUE DUP1 ISZERO PUSH2 0x10 JUMPI PUSH1 0x0 DUP1 REVERT JUMPDEST POP PUSH1 0x4 CALLDATASIZE LT PUSH2 0x41 JUMPI PUSH1 0x0 CALLDATALOAD PUSH1 0xE0 SHR DUP1 PUSH4 0x7396A7D0 EQ PUSH2 0x46 JUMPI DUP1 PUSH4 0xB00741CB EQ PUSH2 0x5F JUMPI DUP1 PUSH4 0xB8EF04E7 EQ PUSH2 0x74 JUMPI JUMPDEST PUSH1 0x0 DUP1 REVERT JUMPDEST PUSH1 0x40 MLOAD PUSH4 0xFFFFFFFF TIMESTAMP AND DUP2 MSTORE PUSH1 0x20 ADD JUMPDEST PUSH1 0x40 MLOAD DUP1 SWAP2 SUB SWAP1 RETURN JUMPDEST PUSH2 0x72 PUSH2 0x6D CALLDATASIZE PUSH1 0x4 PUSH2 0x112 JUMP JUMPDEST PUSH1 0x0 SSTORE JUMP JUMPDEST STOP JUMPDEST PUSH2 0x87 PUSH2 0x82 CALLDATASIZE PUSH1 0x4 PUSH2 0x12B JUMP JUMPDEST PUSH2 0x95 JUMP JUMPDEST PUSH1 0x40 MLOAD SWAP1 DUP2 MSTORE PUSH1 0x20 ADD PUSH2 0x56 JUMP JUMPDEST PUSH1 0x0 DUP1 PUSH2 0xA3 PUSH1 0x1 NUMBER PUSH2 0x14D JUMP JUMPDEST BLOCKHASH GAS PUSH1 0x40 DUP1 MLOAD PUSH1 0x20 DUP2 ADD SWAP4 SWAP1 SWAP4 MSTORE DUP3 ADD MSTORE TIMESTAMP PUSH1 0x60 DUP1 DUP4 ADD SWAP2 SWAP1 SWAP2 MSTORE CALLER SWAP1 SHL PUSH12 0xFFFFFFFFFFFFFFFFFFFFFFFF NOT AND PUSH1 0x80 DUP3 ADD MSTORE PUSH1 0x94 DUP2 ADD DUP6 SWAP1 MSTORE PUSH1 0xB4 DUP2 ADD DUP5 SWAP1 MSTORE PUSH1 0xD4 ADD PUSH1 0x40 DUP1 MLOAD PUSH1 0x1F NOT DUP2 DUP5 SUB ADD DUP2 MSTORE SWAP2 SWAP1 MSTORE DUP1 MLOAD PUSH1 0x20 SWAP1 SWAP2 ADD KECCAK256 SWAP1 POP PUSH2 0x10A DUP5 DUP3 PUSH2 0x172 JUMP JUMPDEST SWAP5 SWAP4 POP POP POP POP JUMP JUMPDEST PUSH1 0x0 PUSH1 0x20 DUP3 DUP5 SUB SLT ISZERO PUSH2 0x124 JUMPI PUSH1 0x0 DUP1 REVERT JUMPDEST POP CALLDATALOAD SWAP2 SWAP1 POP JUMP JUMPDEST PUSH1 0x0 DUP1 PUSH1 0x40 DUP4 DUP6 SUB SLT ISZERO PUSH2 0x13E JUMPI PUSH1 0x0 DUP1 REVERT JUMPDEST POP POP DUP1 CALLDATALOAD SWAP3 PUSH1 0x20 SWAP1 SWAP2 ADD CALLDATALOAD SWAP2 POP JUMP JUMPDEST PUSH1 0x0 DUP3 DUP3 LT ISZERO PUSH2 0x16D JUMPI PUSH4 0x4E487B71 PUSH1 0xE0 SHL PUSH1 0x0 MSTORE PUSH1 0x11 PUSH1 0x4 MSTORE PUSH1 0x24 PUSH1 0x0 REVERT JUMPDEST POP SUB SWAP1 JUMP JUMPDEST PUSH1 0x0 DUP3 PUSH2 0x18F JUMPI PUSH4 0x4E487B71 PUSH1 0xE0 SHL PUSH1 0x0 MSTORE PUSH1 0x12 PUSH1 0x4 MSTORE PUSH1 0x24 PUSH1 0x0 REVERT JUMPDEST POP MOD SWAP1 JUMP INVALID LOG2 PUSH5 0x6970667358 0x22 SLT KECCAK256 PUSH3 0x14B69A DUP16 0x1E PUSH29 0x1D7C846192453A7197093B2DB382E5406A3244908C2B862AF664736F6C PUSH4 0x4300080A STOP CALLER "
        },
        "methodIdentifiers": {
          "_getRandomNumber(uint256,uint256)": "b8ef04e7",
          "_returnTime()": "7396a7d0",
          "changeState(uint256)": "b00741cb"
        }
      }
    }
  }
}