{
  "_format": "hh-sol-artifact-1",
  "contractName": "Citizens",
  "sourceName": "contracts/Formers.sol",
  "abi": [
    {
      "inputs": [
        {
          "internalType": "address",
          "name": "CloakLibAddr",
          "type": "address"
        }
      ],
      "stateMutability": "nonpayable",
      "type": "constructor"
    },
    {
      "anonymous": false,
      "inputs": [],
      "name": "AdminChange",
      "type": "event"
    },
    {
      "anonymous": false,
      "inputs": [
        {
          "indexed": true,
          "internalType": "address",
          "name": "owner",
          "type": "address"
        },
        {
          "indexed": true,
          "internalType": "address",
          "name": "approved",
          "type": "address"
        },
        {
          "indexed": true,
          "internalType": "uint256",
          "name": "tokenId",
          "type": "uint256"
        }
      ],
      "name": "Approval",
      "type": "event"
    },
    {
      "anonymous": false,
      "inputs": [
        {
          "indexed": true,
          "internalType": "address",
          "name": "owner",
          "type": "address"
        },
        {
          "indexed": true,
          "internalType": "address",
          "name": "operator",
          "type": "address"
        },
        {
          "indexed": false,
          "internalType": "bool",
          "name": "approved",
          "type": "bool"
        }
      ],
      "name": "ApprovalForAll",
      "type": "event"
    },
    {
      "anonymous": false,
      "inputs": [
        {
          "indexed": false,
          "internalType": "uint256",
          "name": "id",
          "type": "uint256"
        },
        {
          "indexed": false,
          "internalType": "address",
          "name": "clanAddr",
          "type": "address"
        }
      ],
      "name": "CitizenDeclaredToClan",
      "type": "event"
    },
    {
      "anonymous": false,
      "inputs": [
        {
          "indexed": true,
          "internalType": "address",
          "name": "previousOwner",
          "type": "address"
        },
        {
          "indexed": true,
          "internalType": "address",
          "name": "newOwner",
          "type": "address"
        }
      ],
      "name": "OwnershipTransferred",
      "type": "event"
    },
    {
      "anonymous": false,
      "inputs": [
        {
          "indexed": false,
          "internalType": "uint256",
          "name": "id",
          "type": "uint256"
        },
        {
          "indexed": false,
          "internalType": "bytes32",
          "name": "provenance",
          "type": "bytes32"
        }
      ],
      "name": "ProvenanceSet",
      "type": "event"
    },
    {
      "anonymous": false,
      "inputs": [
        {
          "indexed": true,
          "internalType": "address",
          "name": "from",
          "type": "address"
        },
        {
          "indexed": true,
          "internalType": "address",
          "name": "to",
          "type": "address"
        },
        {
          "indexed": true,
          "internalType": "uint256",
          "name": "tokenId",
          "type": "uint256"
        }
      ],
      "name": "Transfer",
      "type": "event"
    },
    {
      "inputs": [],
      "name": "WLMerkleRoot",
      "outputs": [
        {
          "internalType": "bytes32",
          "name": "",
          "type": "bytes32"
        }
      ],
      "stateMutability": "view",
      "type": "function"
    },
    {
      "inputs": [
        {
          "internalType": "address",
          "name": "to",
          "type": "address"
        },
        {
          "internalType": "uint256",
          "name": "tokenId",
          "type": "uint256"
        }
      ],
      "name": "approve",
      "outputs": [],
      "stateMutability": "nonpayable",
      "type": "function"
    },
    {
      "inputs": [
        {
          "internalType": "address",
          "name": "owner",
          "type": "address"
        }
      ],
      "name": "balanceOf",
      "outputs": [
        {
          "internalType": "uint256",
          "name": "",
          "type": "uint256"
        }
      ],
      "stateMutability": "view",
      "type": "function"
    },
    {
      "inputs": [],
      "name": "contractURI",
      "outputs": [
        {
          "internalType": "string",
          "name": "",
          "type": "string"
        }
      ],
      "stateMutability": "view",
      "type": "function"
    },
    {
      "inputs": [
        {
          "internalType": "uint256",
          "name": "id",
          "type": "uint256"
        },
        {
          "internalType": "address",
          "name": "clanAddress",
          "type": "address"
        }
      ],
      "name": "declareForClan",
      "outputs": [],
      "stateMutability": "nonpayable",
      "type": "function"
    },
    {
      "inputs": [
        {
          "internalType": "uint256",
          "name": "id",
          "type": "uint256"
        }
      ],
      "name": "getAlignmentById",
      "outputs": [
        {
          "internalType": "string",
          "name": "",
          "type": "string"
        }
      ],
      "stateMutability": "view",
      "type": "function"
    },
    {
      "inputs": [
        {
          "internalType": "uint256",
          "name": "id",
          "type": "uint256"
        }
      ],
      "name": "getApById",
      "outputs": [
        {
          "internalType": "uint8[4]",
          "name": "",
          "type": "uint8[4]"
        }
      ],
      "stateMutability": "view",
      "type": "function"
    },
    {
      "inputs": [
        {
          "internalType": "uint256",
          "name": "tokenId",
          "type": "uint256"
        }
      ],
      "name": "getApproved",
      "outputs": [
        {
          "internalType": "address",
          "name": "",
          "type": "address"
        }
      ],
      "stateMutability": "view",
      "type": "function"
    },
    {
      "inputs": [
        {
          "internalType": "uint256",
          "name": "id",
          "type": "uint256"
        }
      ],
      "name": "getClanById",
      "outputs": [
        {
          "internalType": "address",
          "name": "",
          "type": "address"
        }
      ],
      "stateMutability": "view",
      "type": "function"
    },
    {
      "inputs": [
        {
          "internalType": "uint256",
          "name": "id",
          "type": "uint256"
        }
      ],
      "name": "getFullBytes",
      "outputs": [
        {
          "internalType": "uint32[32]",
          "name": "",
          "type": "uint32[32]"
        }
      ],
      "stateMutability": "view",
      "type": "function"
    },
    {
      "inputs": [
        {
          "internalType": "uint256",
          "name": "id",
          "type": "uint256"
        }
      ],
      "name": "getProvenanceById",
      "outputs": [
        {
          "internalType": "bytes32",
          "name": "",
          "type": "bytes32"
        }
      ],
      "stateMutability": "view",
      "type": "function"
    },
    {
      "inputs": [
        {
          "internalType": "uint256",
          "name": "id",
          "type": "uint256"
        }
      ],
      "name": "getSeedById",
      "outputs": [
        {
          "internalType": "uint16",
          "name": "",
          "type": "uint16"
        }
      ],
      "stateMutability": "view",
      "type": "function"
    },
    {
      "inputs": [
        {
          "internalType": "address",
          "name": "owner",
          "type": "address"
        },
        {
          "internalType": "address",
          "name": "operator",
          "type": "address"
        }
      ],
      "name": "isApprovedForAll",
      "outputs": [
        {
          "internalType": "bool",
          "name": "",
          "type": "bool"
        }
      ],
      "stateMutability": "view",
      "type": "function"
    },
    {
      "inputs": [],
      "name": "isCommunityClaimActive",
      "outputs": [
        {
          "internalType": "bool",
          "name": "",
          "type": "bool"
        }
      ],
      "stateMutability": "view",
      "type": "function"
    },
    {
      "inputs": [],
      "name": "isProvenanceSetActive",
      "outputs": [
        {
          "internalType": "bool",
          "name": "",
          "type": "bool"
        }
      ],
      "stateMutability": "view",
      "type": "function"
    },
    {
      "inputs": [],
      "name": "isPublicClaimActive",
      "outputs": [
        {
          "internalType": "bool",
          "name": "",
          "type": "bool"
        }
      ],
      "stateMutability": "view",
      "type": "function"
    },
    {
      "inputs": [],
      "name": "name",
      "outputs": [
        {
          "internalType": "string",
          "name": "",
          "type": "string"
        }
      ],
      "stateMutability": "view",
      "type": "function"
    },
    {
      "inputs": [],
      "name": "owner",
      "outputs": [
        {
          "internalType": "address",
          "name": "",
          "type": "address"
        }
      ],
      "stateMutability": "view",
      "type": "function"
    },
    {
      "inputs": [
        {
          "internalType": "uint256",
          "name": "tokenId",
          "type": "uint256"
        }
      ],
      "name": "ownerOf",
      "outputs": [
        {
          "internalType": "address",
          "name": "",
          "type": "address"
        }
      ],
      "stateMutability": "view",
      "type": "function"
    },
    {
      "inputs": [],
      "name": "ownerWithdraw",
      "outputs": [],
      "stateMutability": "payable",
      "type": "function"
    },
    {
      "inputs": [],
      "name": "publicClaim",
      "outputs": [],
      "stateMutability": "nonpayable",
      "type": "function"
    },
    {
      "inputs": [],
      "name": "renounceOwnership",
      "outputs": [],
      "stateMutability": "nonpayable",
      "type": "function"
    },
    {
      "inputs": [
        {
          "internalType": "address",
          "name": "from",
          "type": "address"
        },
        {
          "internalType": "address",
          "name": "to",
          "type": "address"
        },
        {
          "internalType": "uint256",
          "name": "tokenId",
          "type": "uint256"
        }
      ],
      "name": "safeTransferFrom",
      "outputs": [],
      "stateMutability": "nonpayable",
      "type": "function"
    },
    {
      "inputs": [
        {
          "internalType": "address",
          "name": "from",
          "type": "address"
        },
        {
          "internalType": "address",
          "name": "to",
          "type": "address"
        },
        {
          "internalType": "uint256",
          "name": "tokenId",
          "type": "uint256"
        },
        {
          "internalType": "bytes",
          "name": "_data",
          "type": "bytes"
        }
      ],
      "name": "safeTransferFrom",
      "outputs": [],
      "stateMutability": "nonpayable",
      "type": "function"
    },
    {
      "inputs": [
        {
          "internalType": "address",
          "name": "operator",
          "type": "address"
        },
        {
          "internalType": "bool",
          "name": "approved",
          "type": "bool"
        }
      ],
      "name": "setApprovalForAll",
      "outputs": [],
      "stateMutability": "nonpayable",
      "type": "function"
    },
    {
      "inputs": [
        {
          "internalType": "string",
          "name": "baseTokenURI",
          "type": "string"
        }
      ],
      "name": "setBaseURI",
      "outputs": [],
      "stateMutability": "nonpayable",
      "type": "function"
    },
    {
      "inputs": [
        {
          "internalType": "string",
          "name": "newContractURI",
          "type": "string"
        }
      ],
      "name": "setContractURI",
      "outputs": [],
      "stateMutability": "nonpayable",
      "type": "function"
    },
    {
      "inputs": [
        {
          "internalType": "bool",
          "name": "_isCommunityClaimActive",
          "type": "bool"
        }
      ],
      "name": "setIsCommunityClaimActive",
      "outputs": [],
      "stateMutability": "nonpayable",
      "type": "function"
    },
    {
      "inputs": [
        {
          "internalType": "bool",
          "name": "_isPublicClaimActive",
          "type": "bool"
        }
      ],
      "name": "setIsPublicClaimActive",
      "outputs": [],
      "stateMutability": "nonpayable",
      "type": "function"
    },
    {
      "inputs": [
        {
          "internalType": "bytes32",
          "name": "merkleRoot",
          "type": "bytes32"
        }
      ],
      "name": "setListMerkleRoot",
      "outputs": [],
      "stateMutability": "nonpayable",
      "type": "function"
    },
    {
      "inputs": [
        {
          "internalType": "uint256",
          "name": "id",
          "type": "uint256"
        },
        {
          "internalType": "bytes32",
          "name": "_provenance",
          "type": "bytes32"
        }
      ],
      "name": "setProvenance",
      "outputs": [],
      "stateMutability": "nonpayable",
      "type": "function"
    },
    {
      "inputs": [
        {
          "internalType": "bool",
          "name": "_isProvenanceSetActive",
          "type": "bool"
        }
      ],
      "name": "setProvenanceActive",
      "outputs": [],
      "stateMutability": "nonpayable",
      "type": "function"
    },
    {
      "inputs": [
        {
          "internalType": "bytes4",
          "name": "interfaceId",
          "type": "bytes4"
        }
      ],
      "name": "supportsInterface",
      "outputs": [
        {
          "internalType": "bool",
          "name": "",
          "type": "bool"
        }
      ],
      "stateMutability": "view",
      "type": "function"
    },
    {
      "inputs": [],
      "name": "symbol",
      "outputs": [
        {
          "internalType": "string",
          "name": "",
          "type": "string"
        }
      ],
      "stateMutability": "view",
      "type": "function"
    },
    {
      "inputs": [
        {
          "internalType": "uint256",
          "name": "index",
          "type": "uint256"
        }
      ],
      "name": "tokenByIndex",
      "outputs": [
        {
          "internalType": "uint256",
          "name": "",
          "type": "uint256"
        }
      ],
      "stateMutability": "view",
      "type": "function"
    },
    {
      "inputs": [
        {
          "internalType": "address",
          "name": "owner",
          "type": "address"
        },
        {
          "internalType": "uint256",
          "name": "index",
          "type": "uint256"
        }
      ],
      "name": "tokenOfOwnerByIndex",
      "outputs": [
        {
          "internalType": "uint256",
          "name": "",
          "type": "uint256"
        }
      ],
      "stateMutability": "view",
      "type": "function"
    },
    {
      "inputs": [
        {
          "internalType": "uint256",
          "name": "tokenId",
          "type": "uint256"
        }
      ],
      "name": "tokenURI",
      "outputs": [
        {
          "internalType": "string",
          "name": "",
          "type": "string"
        }
      ],
      "stateMutability": "view",
      "type": "function"
    },
    {
      "inputs": [],
      "name": "totalSupply",
      "outputs": [
        {
          "internalType": "uint256",
          "name": "",
          "type": "uint256"
        }
      ],
      "stateMutability": "view",
      "type": "function"
    },
    {
      "inputs": [
        {
          "internalType": "address",
          "name": "from",
          "type": "address"
        },
        {
          "internalType": "address",
          "name": "to",
          "type": "address"
        },
        {
          "internalType": "uint256",
          "name": "tokenId",
          "type": "uint256"
        }
      ],
      "name": "transferFrom",
      "outputs": [],
      "stateMutability": "nonpayable",
      "type": "function"
    },
    {
      "inputs": [
        {
          "internalType": "address",
          "name": "newOwner",
          "type": "address"
        }
      ],
      "name": "transferOwnership",
      "outputs": [],
      "stateMutability": "nonpayable",
      "type": "function"
    },
    {
      "inputs": [
        {
          "internalType": "bytes32[]",
          "name": "merkleProof",
          "type": "bytes32[]"
        }
      ],
      "name": "wlClaim",
      "outputs": [],
      "stateMutability": "nonpayable",
      "type": "function"
    }
  ],
  "bytecode": "0x6011805462ff000019166201000017905560e060405260286080818152906200400460a03980516200003a916012916020909101906200031d565b506040518060600160405280602981526020016200402c6029913980516200006b916013916020909101906200031d565b506040805161016081018252600b61012082018181526a13185dd99d5b0811dbdbd960aa1b610140840152825282518084018452600c8082526b13995d5d1c985b0811dbdbd960a21b60208381019190915280850192909252845180860186528181526b10da185bdd1a58c811dbdbd960a21b818401528486015284518086018652600e81526d13185dd99d5b0813995d5d1c985b60921b818401526060850152845180860186528181526b151c9d594813995d5d1c985b60a21b81840152608085015284518086018652600f81526e10da185bdd1a58c813995d5d1c985b608a1b8184015260a0850152845180860186529283526a13185dd99d5b08115d9a5b60aa1b8383015260c0840192909252835180850185528281526b13995d5d1c985b08115d9a5b60a21b8183015260e084015283518085019094529083526b10da185bdd1a58c8115d9a5b60a21b90830152610100810191909152620001d6906014906009620003ac565b50348015620001e457600080fd5b506040516200405538038062004055833981016040819052620002079162000486565b604080518082018252601481527f436f696e6c616e6465723a20436974697a656e7300000000000000000000000060208083019182528351808501909452600584526421aa2d22a760d91b90840152815191929162000269916000916200031d565b5080516200027f9060019060208401906200031d565b5050506200029c62000296620002c760201b60201c565b620002cb565b6001600b55600c80546001600160a01b0319166001600160a01b0392909216919091179055620004f5565b3390565b600a80546001600160a01b038381166001600160a01b0319831681179093556040519116919082907f8be0079c531659141344cd1fd0a4f28419497f9722a3daafe3b4186f6b6457e090600090a35050565b8280546200032b90620004b8565b90600052602060002090601f0160209004810192826200034f57600085556200039a565b82601f106200036a57805160ff19168380011785556200039a565b828001600101855582156200039a579182015b828111156200039a5782518255916020019190600101906200037d565b50620003a89291506200040c565b5090565b828054828255906000526020600020908101928215620003fe579160200282015b82811115620003fe5782518051620003ed9184916020909101906200031d565b5091602001919060010190620003cd565b50620003a892915062000423565b5b80821115620003a857600081556001016200040d565b80821115620003a85760006200043a828262000444565b5060010162000423565b5080546200045290620004b8565b6000825580601f1062000463575050565b601f0160209004906000526020600020908101906200048391906200040c565b50565b6000602082840312156200049957600080fd5b81516001600160a01b0381168114620004b157600080fd5b9392505050565b600181811c90821680620004cd57607f821691505b60208210811415620004ef57634e487b7160e01b600052602260045260246000fd5b50919050565b613aff80620005056000396000f3fe6080604052600436106102c65760003560e01c80636722865911610179578063a22cb465116100d6578063d80a88ba1161008a578063e8a3d48511610064578063e8a3d485146107eb578063e985e9c514610800578063f2fde38b1461084957600080fd5b8063d80a88ba14610768578063dae11de414610788578063e84f5798146107a857600080fd5b8063b88d4fde116100bb578063b88d4fde146106fb578063c5f5e3d11461071b578063c87b56dd1461074857600080fd5b8063a22cb465146106c5578063aea48328146106e557600080fd5b80638da5cb5b1161012d57806395d89b411161011257806395d89b41146106605780639cae7c98146106755780639de9256e146106a557600080fd5b80638da5cb5b14610622578063938e3d7b1461064057600080fd5b8063715018a61161015e578063715018a6146105d357806379ff96ec146105e85780637b8d981f1461060257600080fd5b8063672286591461056457806370a08231146105b357600080fd5b806323b872dd116102275780634311de8f116101db57806355f804b3116101c057806355f804b3146104f75780635d805e70146105175780636352211e1461054457600080fd5b80634311de8f146104cf5780634f6ccce7146104d757600080fd5b80632f745c591161020c5780632f745c591461046f57806336842eae1461048f57806342842e0e146104af57600080fd5b806323b872dd1461042f578063290b4e171461044f57600080fd5b80630b446c421161027e57806318160ddd1161026357806318160ddd146103db5780631b415239146103fa5780631e444b8f1461040f57600080fd5b80630b446c421461039c57806311b92445146103bc57600080fd5b806306fdde03116102af57806306fdde031461032d578063081812fc14610342578063095ea7b31461037a57600080fd5b806301ffc9a7146102cb5780630278c1ba14610300575b600080fd5b3480156102d757600080fd5b506102eb6102e63660046133f8565b610869565b60405190151581526020015b60405180910390f35b34801561030c57600080fd5b5061032061031b366004613415565b6108ad565b6040516102f79190613486565b34801561033957600080fd5b50610320610951565b34801561034e57600080fd5b5061036261035d366004613415565b6109e3565b6040516001600160a01b0390911681526020016102f7565b34801561038657600080fd5b5061039a6103953660046134b5565b610a7d565b005b3480156103a857600080fd5b5061039a6103b7366004613415565b610baf565b3480156103c857600080fd5b506011546102eb90610100900460ff1681565b3480156103e757600080fd5b506008545b6040519081526020016102f7565b34801561040657600080fd5b5061039a610c3a565b34801561041b57600080fd5b5061039a61042a3660046134ef565b610de1565b34801561043b57600080fd5b5061039a61044a36600461350a565b610e75565b34801561045b57600080fd5b506011546102eb9062010000900460ff1681565b34801561047b57600080fd5b506103ec61048a3660046134b5565b610efc565b34801561049b57600080fd5b5061039a6104aa366004613546565b610fa4565b3480156104bb57600080fd5b5061039a6104ca36600461350a565b611089565b61039a6110a4565b3480156104e357600080fd5b506103ec6104f2366004613415565b611131565b34801561050357600080fd5b5061039a6105123660046135fe565b6111d5565b34801561052357600080fd5b50610537610532366004613415565b61126f565b6040516102f79190613647565b34801561055057600080fd5b5061036261055f366004613415565b611377565b34801561057057600080fd5b506105a061057f366004613415565b6000908152600e6020526040902060010154640100000000900461ffff1690565b60405161ffff90911681526020016102f7565b3480156105bf57600080fd5b506103ec6105ce366004613683565b611402565b3480156105df57600080fd5b5061039a61149c565b3480156105f457600080fd5b506011546102eb9060ff1681565b34801561060e57600080fd5b5061039a61061d3660046134ef565b611502565b34801561062e57600080fd5b50600a546001600160a01b0316610362565b34801561064c57600080fd5b5061039a61065b36600461369e565b61159b565b34801561066c57600080fd5b5061032061162f565b34801561068157600080fd5b506103ec610690366004613415565b6000908152600e602052604090206002015490565b3480156106b157600080fd5b5061039a6106c0366004613710565b61163e565b3480156106d157600080fd5b5061039a6106e0366004613732565b611796565b3480156106f157600080fd5b506103ec60105481565b34801561070757600080fd5b5061039a61071636600461375c565b61185b565b34801561072757600080fd5b5061073b610736366004613415565b6118e9565b6040516102f791906137d8565b34801561075457600080fd5b50610320610763366004613415565b611947565b34801561077457600080fd5b5061039a610783366004613803565b611a30565b34801561079457600080fd5b5061039a6107a33660046134ef565b611c9f565b3480156107b457600080fd5b506103626107c3366004613415565b6000908152600e6020526040902060010154660100000000000090046001600160a01b031690565b3480156107f757600080fd5b50610320611d3a565b34801561080c57600080fd5b506102eb61081b366004613866565b6001600160a01b03918216600090815260056020908152604080832093909416825291909152205460ff1690565b34801561085557600080fd5b5061039a610864366004613683565b611d49565b60006001600160e01b031982167f780e9d630000000000000000000000000000000000000000000000000000000014806108a757506108a782611e2b565b92915050565b6000818152600e60205260408120805460609291906108cb90613890565b80601f01602080910402602001604051908101604052809291908181526020018280546108f790613890565b80156109445780601f1061091957610100808354040283529160200191610944565b820191906000526020600020905b81548152906001019060200180831161092757829003601f168201915b5093979650505050505050565b60606000805461096090613890565b80601f016020809104026020016040519081016040528092919081815260200182805461098c90613890565b80156109d95780601f106109ae576101008083540402835291602001916109d9565b820191906000526020600020905b8154815290600101906020018083116109bc57829003601f168201915b5050505050905090565b6000818152600260205260408120546001600160a01b0316610a615760405162461bcd60e51b815260206004820152602c60248201527f4552433732313a20617070726f76656420717565727920666f72206e6f6e657860448201526b34b9ba32b73a103a37b5b2b760a11b60648201526084015b60405180910390fd5b506000908152600460205260409020546001600160a01b031690565b6000610a8882611377565b9050806001600160a01b0316836001600160a01b03161415610b125760405162461bcd60e51b815260206004820152602160248201527f4552433732313a20617070726f76616c20746f2063757272656e74206f776e6560448201527f72000000000000000000000000000000000000000000000000000000000000006064820152608401610a58565b336001600160a01b0382161480610b2e5750610b2e813361081b565b610ba05760405162461bcd60e51b815260206004820152603860248201527f4552433732313a20617070726f76652063616c6c6572206973206e6f74206f7760448201527f6e6572206e6f7220617070726f76656420666f7220616c6c00000000000000006064820152608401610a58565b610baa8383611ec6565b505050565b600a546001600160a01b03163314610c095760405162461bcd60e51b815260206004820181905260248201527f4f776e61626c653a2063616c6c6572206973206e6f7420746865206f776e65726044820152606401610a58565b60108190556040517f205ec875ffa49c7f4a26b272121dfa57f14eac759d93dbe2596d62270621136590600090a150565b6002600b541415610c8d5760405162461bcd60e51b815260206004820152601f60248201527f5265656e7472616e637947756172643a207265656e7472616e742063616c6c006044820152606401610a58565b6002600b55323314610ccd5760405162461bcd60e51b815260206004820152600960248201526822969818199698181b60b91b6044820152606401610a58565b60115460ff16610d1f5760405162461bcd60e51b815260206004820152600960248201527f452d3030332d30303200000000000000000000000000000000000000000000006044820152606401610a58565b336000908152600f602052604090205460ff1615610d6b5760405162461bcd60e51b8152602060048201526009602482015268452d3030332d30303560b81b6044820152606401610a58565b612710610d77600d5490565b10610db05760405162461bcd60e51b815260206004820152600960248201526808a5a6060665a6060760bb1b6044820152606401610a58565b336000908152600f60205260409020805460ff19166001179055610dda610dd5611f41565b611f58565b6001600b55565b600a546001600160a01b03163314610e3b5760405162461bcd60e51b815260206004820181905260248201527f4f776e61626c653a2063616c6c6572206973206e6f7420746865206f776e65726044820152606401610a58565b6011805460ff19168215151790556040517f205ec875ffa49c7f4a26b272121dfa57f14eac759d93dbe2596d62270621136590600090a150565b610e7f3382611f6b565b610ef15760405162461bcd60e51b815260206004820152603160248201527f4552433732313a207472616e736665722063616c6c6572206973206e6f74206f60448201527f776e6572206e6f7220617070726f7665640000000000000000000000000000006064820152608401610a58565b610baa838383612062565b6000610f0783611402565b8210610f7b5760405162461bcd60e51b815260206004820152602b60248201527f455243373231456e756d657261626c653a206f776e657220696e646578206f7560448201527f74206f6620626f756e64730000000000000000000000000000000000000000006064820152608401610a58565b506001600160a01b03919091166000908152600660209081526040808320938352929052205490565b81610fae81611377565b6001600160a01b0316336001600160a01b031614610ffa5760405162461bcd60e51b8152602060048201526009602482015268452d3030332d30303760b81b6044820152606401610a58565b6000838152600e602090815260409182902060010180547fffffffffffff0000000000000000000000000000000000000000ffffffffffff1666010000000000006001600160a01b038716908102919091179091558251868152918201527f0940219710936351cab75abf7eb604594af8db91fe6fd098885248ceb33cd0da91015b60405180910390a1505050565b610baa8383836040518060200160405280600081525061185b565b600a546001600160a01b031633146110fe5760405162461bcd60e51b815260206004820181905260248201527f4f776e61626c653a2063616c6c6572206973206e6f7420746865206f776e65726044820152606401610a58565b6040514790339082156108fc029083906000818181858888f1935050505015801561112d573d6000803e3d6000fd5b5050565b600061113c60085490565b82106111b05760405162461bcd60e51b815260206004820152602c60248201527f455243373231456e756d657261626c653a20676c6f62616c20696e646578206f60448201527f7574206f6620626f756e647300000000000000000000000000000000000000006064820152608401610a58565b600882815481106111c3576111c36138cb565b90600052602060002001549050919050565b600a546001600160a01b0316331461122f5760405162461bcd60e51b815260206004820181905260248201527f4f776e61626c653a2063616c6c6572206973206e6f7420746865206f776e65726044820152606401610a58565b8051611242906013906020840190613298565b506040517f205ec875ffa49c7f4a26b272121dfa57f14eac759d93dbe2596d62270621136590600090a150565b61127761331c565b6000828152600e6020526040812060010154640100000000900461ffff169061129f84612247565b91505060008082600014156112b657506000905060105b82600114156112cb57506010905060206112d3565b506020905060605b600c546040517f31f7bb7400000000000000000000000000000000000000000000000000000000815261ffff80851660048301528084166024830152861660448201526001600160a01b03909116906331f7bb749060640161040060405180830381865afa158015611349573d6000803e3d6000fd5b505050506040513d601f19601f8201168201806040525081019061136d91906138e1565b9695505050505050565b6000818152600260205260408120546001600160a01b0316806108a75760405162461bcd60e51b815260206004820152602960248201527f4552433732313a206f776e657220717565727920666f72206e6f6e657869737460448201527f656e7420746f6b656e00000000000000000000000000000000000000000000006064820152608401610a58565b60006001600160a01b0382166114805760405162461bcd60e51b815260206004820152602a60248201527f4552433732313a2062616c616e636520717565727920666f7220746865207a6560448201527f726f2061646472657373000000000000000000000000000000000000000000006064820152608401610a58565b506001600160a01b031660009081526003602052604090205490565b600a546001600160a01b031633146114f65760405162461bcd60e51b815260206004820181905260248201527f4f776e61626c653a2063616c6c6572206973206e6f7420746865206f776e65726044820152606401610a58565b61150060006123f3565b565b600a546001600160a01b0316331461155c5760405162461bcd60e51b815260206004820181905260248201527f4f776e61626c653a2063616c6c6572206973206e6f7420746865206f776e65726044820152606401610a58565b6011805461ff001916610100831515021790556040517f205ec875ffa49c7f4a26b272121dfa57f14eac759d93dbe2596d62270621136590600090a150565b600a546001600160a01b031633146115f55760405162461bcd60e51b815260206004820181905260248201527f4f776e61626c653a2063616c6c6572206973206e6f7420746865206f776e65726044820152606401610a58565b6116016012838361333b565b506040517f205ec875ffa49c7f4a26b272121dfa57f14eac759d93dbe2596d62270621136590600090a15050565b60606001805461096090613890565b8161164881611377565b6001600160a01b0316336001600160a01b0316146116945760405162461bcd60e51b8152602060048201526009602482015268452d3030332d30303760b81b6044820152606401610a58565b60115462010000900460ff166116ec5760405162461bcd60e51b815260206004820152600960248201527f452d3030332d30303400000000000000000000000000000000000000000000006044820152606401610a58565b6000838152600e60205260409020600201541561174b5760405162461bcd60e51b815260206004820152600960248201527f452d3030332d30303900000000000000000000000000000000000000000000006044820152606401610a58565b6000838152600e602090815260409182902060020184905581518581529081018490527fd484266d435d86094bf4bacae677192a10a8a7df8ce1d15ba15520b83c73c745910161107c565b6001600160a01b0382163314156117ef5760405162461bcd60e51b815260206004820152601960248201527f4552433732313a20617070726f766520746f2063616c6c6572000000000000006044820152606401610a58565b3360008181526005602090815260408083206001600160a01b03871680855290835292819020805460ff191686151590811790915590519081529192917f17307eab39ab6107e8899845ad3d59bd9653f200f220920489ca2b5937696c31910160405180910390a35050565b6118653383611f6b565b6118d75760405162461bcd60e51b815260206004820152603160248201527f4552433732313a207472616e736665722063616c6c6572206973206e6f74206f60448201527f776e6572206e6f7220617070726f7665640000000000000000000000000000006064820152608401610a58565b6118e384848484612452565b50505050565b6118f16133af565b50604080516080810182526000838152600e60208181528483206001015460ff80821686526101008204811683870152630100000082048116968601969096529590925290526201000090920416606082015290565b6000818152600260205260409020546060906001600160a01b03166119d45760405162461bcd60e51b815260206004820152602f60248201527f4552433732314d657461646174613a2055524920717565727920666f72206e6f60448201527f6e6578697374656e7420746f6b656e00000000000000000000000000000000006064820152608401610a58565b60006119de6124d0565b905060008151116119fe5760405180602001604052806000815250611a29565b80611a08846124df565b604051602001611a19929190613973565b6040516020818303038152906040525b9392505050565b6002600b541415611a835760405162461bcd60e51b815260206004820152601f60248201527f5265656e7472616e637947756172643a207265656e7472616e742063616c6c006044820152606401610a58565b6002600b55323314611ac35760405162461bcd60e51b815260206004820152600960248201526822969818199698181b60b91b6044820152606401610a58565b601154610100900460ff16611b1a5760405162461bcd60e51b815260206004820152600960248201527f452d3030332d30303300000000000000000000000000000000000000000000006044820152606401610a58565b336000908152600f602052604090205460ff1615611b665760405162461bcd60e51b8152602060048201526009602482015268452d3030332d30303560b81b6044820152606401610a58565b8181601054611bdd838380806020026020016040519081016040528093929190818152602001838360200280828437600092019190915250506040516bffffffffffffffffffffffff193360601b166020820152859250603401905060405160208183030381529060405280519060200120612611565b611c295760405162461bcd60e51b815260206004820152600960248201527f452d3030332d30303100000000000000000000000000000000000000000000006044820152606401610a58565b612710611c35600d5490565b10611c6e5760405162461bcd60e51b815260206004820152600960248201526808a5a6060665a6060760bb1b6044820152606401610a58565b336000908152600f60205260409020805460ff19166001179055611c93610dd5611f41565b50506001600b55505050565b600a546001600160a01b03163314611cf95760405162461bcd60e51b815260206004820181905260248201527f4f776e61626c653a2063616c6c6572206973206e6f7420746865206f776e65726044820152606401610a58565b6011805462ff0000191662010000831515021790556040517f205ec875ffa49c7f4a26b272121dfa57f14eac759d93dbe2596d62270621136590600090a150565b60606012805461096090613890565b600a546001600160a01b03163314611da35760405162461bcd60e51b815260206004820181905260248201527f4f776e61626c653a2063616c6c6572206973206e6f7420746865206f776e65726044820152606401610a58565b6001600160a01b038116611e1f5760405162461bcd60e51b815260206004820152602660248201527f4f776e61626c653a206e6577206f776e657220697320746865207a65726f206160448201527f64647265737300000000000000000000000000000000000000000000000000006064820152608401610a58565b611e28816123f3565b50565b60006001600160e01b031982167f80ac58cd000000000000000000000000000000000000000000000000000000001480611e8e57506001600160e01b031982167f5b5e139f00000000000000000000000000000000000000000000000000000000145b806108a757507f01ffc9a7000000000000000000000000000000000000000000000000000000006001600160e01b03198316146108a7565b6000818152600460205260409020805473ffffffffffffffffffffffffffffffffffffffff19166001600160a01b0384169081179091558190611f0882611377565b6001600160a01b03167f8c5be1e5ebec7d5bd14f71427d1e84f3dd0314c0f7b2291e5b200ac8c7c3b92560405160405180910390a45050565b6000611f51600d80546001019055565b50600d5490565b611f6233826126c0565b611e28816126da565b6000818152600260205260408120546001600160a01b0316611fe45760405162461bcd60e51b815260206004820152602c60248201527f4552433732313a206f70657261746f7220717565727920666f72206e6f6e657860448201526b34b9ba32b73a103a37b5b2b760a11b6064820152608401610a58565b6000611fef83611377565b9050806001600160a01b0316846001600160a01b0316148061202a5750836001600160a01b031661201f846109e3565b6001600160a01b0316145b8061205a57506001600160a01b0380821660009081526005602090815260408083209388168352929052205460ff165b949350505050565b826001600160a01b031661207582611377565b6001600160a01b0316146120f15760405162461bcd60e51b815260206004820152602960248201527f4552433732313a207472616e73666572206f6620746f6b656e2074686174206960448201527f73206e6f74206f776e00000000000000000000000000000000000000000000006064820152608401610a58565b6001600160a01b03821661216c5760405162461bcd60e51b8152602060048201526024808201527f4552433732313a207472616e7366657220746f20746865207a65726f2061646460448201527f72657373000000000000000000000000000000000000000000000000000000006064820152608401610a58565b6121778383836129c2565b612182600082611ec6565b6001600160a01b03831660009081526003602052604081208054600192906121ab9084906139b8565b90915550506001600160a01b03821660009081526003602052604081208054600192906121d99084906139cf565b9091555050600081815260026020526040808220805473ffffffffffffffffffffffffffffffffffffffff19166001600160a01b0386811691821790925591518493918716917fddf252ad1be2c89b69c2b068fc378daa952ba7f163c4a11628f55a4df523b3ef91a4505050565b6000818152600e6020526040812080548291829161226490613890565b80601f016020809104026020016040519081016040528092919081815260200182805461229090613890565b80156122dd5780601f106122b2576101008083540402835291602001916122dd565b820191906000526020600020905b8154815290600101906020018083116122c057829003601f168201915b50505050509050606060005b6014548110156123e55760148181548110612306576123066138cb565b90600052602060002001805461231b90613890565b80601f016020809104026020016040519081016040528092919081815260200182805461234790613890565b80156123945780601f1061236957610100808354040283529160200191612394565b820191906000526020600020905b81548152906001019060200180831161237757829003601f168201915b505050505091508180519060200120838051906020012014156123d3576123bc6003826139fd565b6123c7600383613a11565b94509450505050915091565b806123dd81613a25565b9150506122e9565b506000958695509350505050565b600a80546001600160a01b0383811673ffffffffffffffffffffffffffffffffffffffff19831681179093556040519116919082907f8be0079c531659141344cd1fd0a4f28419497f9722a3daafe3b4186f6b6457e090600090a35050565b61245d848484612062565b61246984848484612a7a565b6118e35760405162461bcd60e51b815260206004820152603260248201527f4552433732313a207472616e7366657220746f206e6f6e20455243373231526560448201527131b2b4bb32b91034b6b83632b6b2b73a32b960711b6064820152608401610a58565b60606013805461096090613890565b60608161251f57505060408051808201909152600181527f3000000000000000000000000000000000000000000000000000000000000000602082015290565b8160005b8115612549578061253381613a25565b91506125429050600a836139fd565b9150612523565b60008167ffffffffffffffff81111561256457612564613572565b6040519080825280601f01601f19166020018201604052801561258e576020820181803683370190505b5090505b841561205a576125a36001836139b8565b91506125b0600a86613a11565b6125bb9060306139cf565b60f81b8183815181106125d0576125d06138cb565b60200101907effffffffffffffffffffffffffffffffffffffffffffffffffffffffffffff1916908160001a90535061260a600a866139fd565b9450612592565b600081815b85518110156126b5576000868281518110612633576126336138cb565b602002602001015190508083116126755760408051602081018590529081018290526060016040516020818303038152906040528051906020012092506126a2565b60408051602081018390529081018490526060016040516020818303038152906040528051906020012092505b50806126ad81613a25565b915050612616565b509092149392505050565b61112d828260405180602001604052806000815250612bc3565b60148054604080516020808402820181019092528281526000936127b593928390869084015b828210156127ac57838290600052602060002001805461271f90613890565b80601f016020809104026020016040519081016040528092919081815260200182805461274b90613890565b80156127985780601f1061276d57610100808354040283529160200191612798565b820191906000526020600020905b81548152906001019060200180831161277b57829003601f168201915b505050505081526020019060010190612700565b50505050612c41565b905060006127c283612c87565b90506000604051806101000160405280848152602001836000600481106127eb576127eb6138cb565b602002015160ff1681526020018360016004811061280b5761280b6138cb565b602002015160ff1681526020018360026004811061282b5761282b6138cb565b602002015160ff1681526020018360036004811061284b5761284b6138cb565b6020908102919091015160ff168252600082820181905260408084018290526060909301819052878152600e825291909120825180519394508493919261289792849290910190613298565b50602082015160018201805460408501516060860151608087015160a088015160c08901516001600160a01b03166601000000000000027fffffffffffff0000000000000000000000000000000000000000ffffffffffff61ffff90921664010000000002919091167fffffffffffff00000000000000000000000000000000000000000000ffffffff60ff93841663010000000263ff0000001995851662010000029590951663ffff0000199685166101000261ffff19909816949099169390931795909517939093169590951717939093161791909117905560e090910151600290910155600061298985612e38565b6000958652600e6020526040909520600101805461ffff9096166401000000000265ffff00000000199096169590951790945550505050565b6001600160a01b038316612a1d57612a1881600880546000838152600960205260408120829055600182018355919091527ff3f7a9fe364faab93b216da50a3214154f22a0a2b415b23a84c8169e8b636ee30155565b612a40565b816001600160a01b0316836001600160a01b031614612a4057612a408382612f41565b6001600160a01b038216612a5757610baa81612fde565b826001600160a01b0316826001600160a01b031614610baa57610baa828261308d565b60006001600160a01b0384163b15612bb857604051630a85bd0160e11b81526001600160a01b0385169063150b7a0290612abe903390899088908890600401613a40565b6020604051808303816000875af1925050508015612af9575060408051601f3d908101601f19168201909252612af691810190613a72565b60015b612b9e573d808015612b27576040519150601f19603f3d011682016040523d82523d6000602084013e612b2c565b606091505b508051612b965760405162461bcd60e51b815260206004820152603260248201527f4552433732313a207472616e7366657220746f206e6f6e20455243373231526560448201527131b2b4bb32b91034b6b83632b6b2b73a32b960711b6064820152608401610a58565b805181602001fd5b6001600160e01b031916630a85bd0160e11b14905061205a565b506001949350505050565b612bcd83836130d1565b612bda6000848484612a7a565b610baa5760405162461bcd60e51b815260206004820152603260248201527f4552433732313a207472616e7366657220746f206e6f6e20455243373231526560448201527131b2b4bb32b91034b6b83632b6b2b73a32b960711b6064820152608401610a58565b60606000612c5084600061322c565b9050600083845183612c629190613a11565b81518110612c7257612c726138cb565b60200260200101519050809250505092915050565b612c8f6133af565b6005600c6000612c9f83836139b8565b612caa9060016139cf565b90506000612cc282612cbd8860016139cf565b61322c565b612ccc90856139cf565b90506000612cdf83612cbd8960026139cf565b612ce990866139cf565b90506000612cfc84612cbd8a60036139cf565b612d0690876139cf565b90506000612d1985612cbd8b60046139cf565b612d2390886139cf565b6040805160808101825260ff8088168252868116602083015285811692820192909252908216606082015290915060005b6004811015612e2a576000612d6a8260046139b8565b60408051426020820152016040516020818303038152906040528051906020012060001c612d989190613a11565b612da290836139cf565b90506000838260048110612db857612db86138cb565b60200201519050838360048110612dd157612dd16138cb565b6020020151848360048110612de857612de86138cb565b60ff909216602092909202015280848460048110612e0857612e086138cb565b60ff909216602092909202015250819050612e2281613a25565b915050612d54565b509998505050505050505050565b600080612e4483612247565b5090506000808260011415612e5f575060079050600c612e67565b506004905060085b6000612e76620100008761322c565b600c546000888152600e60205260408082206001015490517f3966f40000000000000000000000000000000000000000000000000000000000815261ffff80891660048301528088166024830152640100000000909204821660448201529084166064820152929350916001600160a01b0390911690633966f40090608401602060405180830381865afa158015612f12573d6000803e3d6000fd5b505050506040513d601f19601f82011682018060405250810190612f369190613a8f565b979650505050505050565b60006001612f4e84611402565b612f5891906139b8565b600083815260076020526040902054909150808214612fab576001600160a01b03841660009081526006602090815260408083208584528252808320548484528184208190558352600790915290208190555b5060009182526007602090815260408084208490556001600160a01b039094168352600681528383209183525290812055565b600854600090612ff0906001906139b8565b60008381526009602052604081205460088054939450909284908110613018576130186138cb565b906000526020600020015490508060088381548110613039576130396138cb565b600091825260208083209091019290925582815260099091526040808220849055858252812055600880548061307157613071613ab3565b6001900381819060005260206000200160009055905550505050565b600061309883611402565b6001600160a01b039093166000908152600660209081526040808320868452825280832085905593825260079052919091209190915550565b6001600160a01b0382166131275760405162461bcd60e51b815260206004820181905260248201527f4552433732313a206d696e7420746f20746865207a65726f20616464726573736044820152606401610a58565b6000818152600260205260409020546001600160a01b03161561318c5760405162461bcd60e51b815260206004820152601c60248201527f4552433732313a20746f6b656e20616c7265616479206d696e746564000000006044820152606401610a58565b613198600083836129c2565b6001600160a01b03821660009081526003602052604081208054600192906131c19084906139cf565b9091555050600081815260026020526040808220805473ffffffffffffffffffffffffffffffffffffffff19166001600160a01b03861690811790915590518392907fddf252ad1be2c89b69c2b068fc378daa952ba7f163c4a11628f55a4df523b3ef908290a45050565b60008061323a6001436139b8565b6040805191406020830152429082015233606090811b6bffffffffffffffffffffffff191690820152607481018590526094810184905260b40160408051601f198184030181529190528051602090910120905061205a8482613a11565b8280546132a490613890565b90600052602060002090601f0160209004810192826132c6576000855561330c565b82601f106132df57805160ff191683800117855561330c565b8280016001018555821561330c579182015b8281111561330c5782518255916020019190600101906132f1565b506133189291506133cd565b5090565b6040518061040001604052806020906020820280368337509192915050565b82805461334790613890565b90600052602060002090601f016020900481019282613369576000855561330c565b82601f106133825782800160ff1982351617855561330c565b8280016001018555821561330c579182015b8281111561330c578235825591602001919060010190613394565b60405180608001604052806004906020820280368337509192915050565b5b8082111561331857600081556001016133ce565b6001600160e01b031981168114611e2857600080fd5b60006020828403121561340a57600080fd5b8135611a29816133e2565b60006020828403121561342757600080fd5b5035919050565b60005b83811015613449578181015183820152602001613431565b838111156118e35750506000910152565b6000815180845261347281602086016020860161342e565b601f01601f19169290920160200192915050565b602081526000611a29602083018461345a565b80356001600160a01b03811681146134b057600080fd5b919050565b600080604083850312156134c857600080fd5b6134d183613499565b946020939093013593505050565b803580151581146134b057600080fd5b60006020828403121561350157600080fd5b611a29826134df565b60008060006060848603121561351f57600080fd5b61352884613499565b925061353660208501613499565b9150604084013590509250925092565b6000806040838503121561355957600080fd5b8235915061356960208401613499565b90509250929050565b634e487b7160e01b600052604160045260246000fd5b600067ffffffffffffffff808411156135a3576135a3613572565b604051601f8501601f19908116603f011681019082821181831017156135cb576135cb613572565b816040528093508581528686860111156135e457600080fd5b858560208301376000602087830101525050509392505050565b60006020828403121561361057600080fd5b813567ffffffffffffffff81111561362757600080fd5b8201601f8101841361363857600080fd5b61205a84823560208401613588565b6104008101818360005b6020808210613660575061367a565b825163ffffffff1684529283019290910190600101613651565b50505092915050565b60006020828403121561369557600080fd5b611a2982613499565b600080602083850312156136b157600080fd5b823567ffffffffffffffff808211156136c957600080fd5b818501915085601f8301126136dd57600080fd5b8135818111156136ec57600080fd5b8660208285010111156136fe57600080fd5b60209290920196919550909350505050565b6000806040838503121561372357600080fd5b50508035926020909101359150565b6000806040838503121561374557600080fd5b61374e83613499565b9150613569602084016134df565b6000806000806080858703121561377257600080fd5b61377b85613499565b935061378960208601613499565b925060408501359150606085013567ffffffffffffffff8111156137ac57600080fd5b8501601f810187136137bd57600080fd5b6137cc87823560208401613588565b91505092959194509250565b60808101818360005b600481101561367a57815160ff168352602092830192909101906001016137e1565b6000806020838503121561381657600080fd5b823567ffffffffffffffff8082111561382e57600080fd5b818501915085601f83011261384257600080fd5b81358181111561385157600080fd5b8660208260051b85010111156136fe57600080fd5b6000806040838503121561387957600080fd5b61388283613499565b915061356960208401613499565b600181811c908216806138a457607f821691505b602082108114156138c557634e487b7160e01b600052602260045260246000fd5b50919050565b634e487b7160e01b600052603260045260246000fd5b60006104008083850312156138f557600080fd5b83601f84011261390457600080fd5b60405181810181811067ffffffffffffffff8211171561392657613926613572565b60405290830190808583111561393b57600080fd5b845b8381101561396857805163ffffffff8116811461395a5760008081fd5b82526020918201910161393d565b509095945050505050565b6000835161398581846020880161342e565b83519083019061399981836020880161342e565b01949350505050565b634e487b7160e01b600052601160045260246000fd5b6000828210156139ca576139ca6139a2565b500390565b600082198211156139e2576139e26139a2565b500190565b634e487b7160e01b600052601260045260246000fd5b600082613a0c57613a0c6139e7565b500490565b600082613a2057613a206139e7565b500690565b6000600019821415613a3957613a396139a2565b5060010190565b60006001600160a01b0380871683528086166020840152508360408301526080606083015261136d608083018461345a565b600060208284031215613a8457600080fd5b8151611a29816133e2565b600060208284031215613aa157600080fd5b815161ffff81168114611a2957600080fd5b634e487b7160e01b600052603160045260246000fdfea264697066735822122026ed6d0c02945c7f75bb1cada144252292268660d308fa8a6e6ed5b46309390b64736f6c634300080a003368747470733a2f2f6170692e636f696e6c616e6465722e6f6e652f6d6574612f636974697a656e7368747470733a2f2f6170692e636f696e6c616e6465722e6f6e652f6d6574612f636974697a656e732f",
  "linkReferences": {},
  "deployedLinkReferences": {}
}