{
  "_format": "hh-sol-artifact-1",
  "contractName": "Seekers",
  "sourceName": "contracts/Seekers.sol",
  "abi": [
    {
      "inputs": [
        {
          "internalType": "address",
          "name": "CloakLibAddr",
          "type": "address"
        }
      ],
      "stateMutability": "nonpayable",
      "type": "constructor"
    },
    {
      "anonymous": false,
      "inputs": [
        {
          "indexed": true,
          "internalType": "address",
          "name": "owner",
          "type": "address"
        },
        {
          "indexed": true,
          "internalType": "address",
          "name": "approved",
          "type": "address"
        },
        {
          "indexed": true,
          "internalType": "uint256",
          "name": "tokenId",
          "type": "uint256"
        }
      ],
      "name": "Approval",
      "type": "event"
    },
    {
      "anonymous": false,
      "inputs": [
        {
          "indexed": true,
          "internalType": "address",
          "name": "owner",
          "type": "address"
        },
        {
          "indexed": true,
          "internalType": "address",
          "name": "operator",
          "type": "address"
        },
        {
          "indexed": false,
          "internalType": "bool",
          "name": "approved",
          "type": "bool"
        }
      ],
      "name": "ApprovalForAll",
      "type": "event"
    },
    {
      "anonymous": false,
      "inputs": [],
      "name": "CloakingAvailable",
      "type": "event"
    },
    {
      "anonymous": false,
      "inputs": [
        {
          "indexed": false,
          "internalType": "uint256",
          "name": "id",
          "type": "uint256"
        }
      ],
      "name": "DethscalesRerolled",
      "type": "event"
    },
    {
      "anonymous": false,
      "inputs": [],
      "name": "FirstMintActivated",
      "type": "event"
    },
    {
      "anonymous": false,
      "inputs": [
        {
          "indexed": true,
          "internalType": "uint256",
          "name": "seekerId",
          "type": "uint256"
        },
        {
          "indexed": false,
          "internalType": "uint256",
          "name": "powerAdded",
          "type": "uint256"
        },
        {
          "indexed": false,
          "internalType": "uint256",
          "name": "newPower",
          "type": "uint256"
        }
      ],
      "name": "PowerAdded",
      "type": "event"
    },
    {
      "anonymous": false,
      "inputs": [
        {
          "indexed": true,
          "internalType": "uint256",
          "name": "seekerId",
          "type": "uint256"
        },
        {
          "indexed": false,
          "internalType": "uint256",
          "name": "powerBurned",
          "type": "uint256"
        },
        {
          "indexed": false,
          "internalType": "uint256",
          "name": "newPower",
          "type": "uint256"
        }
      ],
      "name": "PowerBurned",
      "type": "event"
    },
    {
      "anonymous": false,
      "inputs": [
        {
          "indexed": true,
          "internalType": "bytes32",
          "name": "role",
          "type": "bytes32"
        },
        {
          "indexed": true,
          "internalType": "bytes32",
          "name": "previousAdminRole",
          "type": "bytes32"
        },
        {
          "indexed": true,
          "internalType": "bytes32",
          "name": "newAdminRole",
          "type": "bytes32"
        }
      ],
      "name": "RoleAdminChanged",
      "type": "event"
    },
    {
      "anonymous": false,
      "inputs": [
        {
          "indexed": true,
          "internalType": "bytes32",
          "name": "role",
          "type": "bytes32"
        },
        {
          "indexed": true,
          "internalType": "address",
          "name": "account",
          "type": "address"
        },
        {
          "indexed": true,
          "internalType": "address",
          "name": "sender",
          "type": "address"
        }
      ],
      "name": "RoleGranted",
      "type": "event"
    },
    {
      "anonymous": false,
      "inputs": [
        {
          "indexed": true,
          "internalType": "bytes32",
          "name": "role",
          "type": "bytes32"
        },
        {
          "indexed": true,
          "internalType": "address",
          "name": "account",
          "type": "address"
        },
        {
          "indexed": true,
          "internalType": "address",
          "name": "sender",
          "type": "address"
        }
      ],
      "name": "RoleRevoked",
      "type": "event"
    },
    {
      "anonymous": false,
      "inputs": [],
      "name": "SecondMintActivated",
      "type": "event"
    },
    {
      "anonymous": false,
      "inputs": [
        {
          "indexed": true,
          "internalType": "uint256",
          "name": "seekerId",
          "type": "uint256"
        }
      ],
      "name": "SeekerCloaked",
      "type": "event"
    },
    {
      "anonymous": false,
      "inputs": [
        {
          "indexed": true,
          "internalType": "uint256",
          "name": "seekerId",
          "type": "uint256"
        },
        {
          "indexed": true,
          "internalType": "address",
          "name": "clan",
          "type": "address"
        }
      ],
      "name": "SeekerDeclaredToClan",
      "type": "event"
    },
    {
      "anonymous": false,
      "inputs": [],
      "name": "ThirdMintActivated",
      "type": "event"
    },
    {
      "anonymous": false,
      "inputs": [
        {
          "indexed": true,
          "internalType": "address",
          "name": "from",
          "type": "address"
        },
        {
          "indexed": true,
          "internalType": "address",
          "name": "to",
          "type": "address"
        },
        {
          "indexed": true,
          "internalType": "uint256",
          "name": "tokenId",
          "type": "uint256"
        }
      ],
      "name": "Transfer",
      "type": "event"
    },
    {
      "inputs": [],
      "name": "BIRTHSEEKERPOWERSTART",
      "outputs": [
        {
          "internalType": "uint16",
          "name": "",
          "type": "uint16"
        }
      ],
      "stateMutability": "view",
      "type": "function"
    },
    {
      "inputs": [],
      "name": "DEFAULT_ADMIN_ROLE",
      "outputs": [
        {
          "internalType": "bytes32",
          "name": "",
          "type": "bytes32"
        }
      ],
      "stateMutability": "view",
      "type": "function"
    },
    {
      "inputs": [],
      "name": "DETHSCALEREROLLCOST",
      "outputs": [
        {
          "internalType": "uint16",
          "name": "",
          "type": "uint16"
        }
      ],
      "stateMutability": "view",
      "type": "function"
    },
    {
      "inputs": [],
      "name": "FIRSTMINTPRICE",
      "outputs": [
        {
          "internalType": "uint256",
          "name": "",
          "type": "uint256"
        }
      ],
      "stateMutability": "view",
      "type": "function"
    },
    {
      "inputs": [],
      "name": "MAXPOWER",
      "outputs": [
        {
          "internalType": "uint16",
          "name": "",
          "type": "uint16"
        }
      ],
      "stateMutability": "view",
      "type": "function"
    },
    {
      "inputs": [],
      "name": "MAXSEEKERS",
      "outputs": [
        {
          "internalType": "uint256",
          "name": "",
          "type": "uint256"
        }
      ],
      "stateMutability": "view",
      "type": "function"
    },
    {
      "inputs": [],
      "name": "POWERPERHOUR",
      "outputs": [
        {
          "internalType": "uint16",
          "name": "",
          "type": "uint16"
        }
      ],
      "stateMutability": "view",
      "type": "function"
    },
    {
      "inputs": [],
      "name": "SECONDMINT",
      "outputs": [
        {
          "internalType": "uint256",
          "name": "",
          "type": "uint256"
        }
      ],
      "stateMutability": "view",
      "type": "function"
    },
    {
      "inputs": [],
      "name": "SECONDMINTPRICE",
      "outputs": [
        {
          "internalType": "uint256",
          "name": "",
          "type": "uint256"
        }
      ],
      "stateMutability": "view",
      "type": "function"
    },
    {
      "inputs": [],
      "name": "SUMMONSEEKERPOWERSTART",
      "outputs": [
        {
          "internalType": "uint16",
          "name": "",
          "type": "uint16"
        }
      ],
      "stateMutability": "view",
      "type": "function"
    },
    {
      "inputs": [],
      "name": "THIRDMINTPRICE",
      "outputs": [
        {
          "internalType": "uint256",
          "name": "",
          "type": "uint256"
        }
      ],
      "stateMutability": "view",
      "type": "function"
    },
    {
      "inputs": [],
      "name": "activateFirstMint",
      "outputs": [],
      "stateMutability": "nonpayable",
      "type": "function"
    },
    {
      "inputs": [],
      "name": "activateSecondMint",
      "outputs": [],
      "stateMutability": "nonpayable",
      "type": "function"
    },
    {
      "inputs": [],
      "name": "activateThirdMint",
      "outputs": [],
      "stateMutability": "nonpayable",
      "type": "function"
    },
    {
      "inputs": [
        {
          "internalType": "address",
          "name": "gameContract",
          "type": "address"
        }
      ],
      "name": "addGameContract",
      "outputs": [],
      "stateMutability": "nonpayable",
      "type": "function"
    },
    {
      "inputs": [
        {
          "internalType": "address",
          "name": "newKeeper",
          "type": "address"
        }
      ],
      "name": "addKeeper",
      "outputs": [],
      "stateMutability": "nonpayable",
      "type": "function"
    },
    {
      "inputs": [
        {
          "internalType": "uint256",
          "name": "id",
          "type": "uint256"
        },
        {
          "internalType": "uint256",
          "name": "powerToAdd",
          "type": "uint256"
        }
      ],
      "name": "addPower",
      "outputs": [],
      "stateMutability": "nonpayable",
      "type": "function"
    },
    {
      "inputs": [
        {
          "internalType": "address",
          "name": "to",
          "type": "address"
        },
        {
          "internalType": "uint256",
          "name": "tokenId",
          "type": "uint256"
        }
      ],
      "name": "approve",
      "outputs": [],
      "stateMutability": "nonpayable",
      "type": "function"
    },
    {
      "inputs": [
        {
          "internalType": "address",
          "name": "owner",
          "type": "address"
        }
      ],
      "name": "balanceOf",
      "outputs": [
        {
          "internalType": "uint256",
          "name": "",
          "type": "uint256"
        }
      ],
      "stateMutability": "view",
      "type": "function"
    },
    {
      "inputs": [
        {
          "internalType": "address",
          "name": "to",
          "type": "address"
        },
        {
          "internalType": "uint32",
          "name": "holdTime",
          "type": "uint32"
        }
      ],
      "name": "birthSeeker",
      "outputs": [
        {
          "internalType": "uint256",
          "name": "",
          "type": "uint256"
        }
      ],
      "stateMutability": "nonpayable",
      "type": "function"
    },
    {
      "inputs": [
        {
          "internalType": "uint256",
          "name": "id",
          "type": "uint256"
        },
        {
          "internalType": "uint16",
          "name": "powerToBurn",
          "type": "uint16"
        }
      ],
      "name": "burnPower",
      "outputs": [],
      "stateMutability": "nonpayable",
      "type": "function"
    },
    {
      "inputs": [
        {
          "internalType": "uint256",
          "name": "id",
          "type": "uint256"
        }
      ],
      "name": "cloakSeeker",
      "outputs": [],
      "stateMutability": "nonpayable",
      "type": "function"
    },
    {
      "inputs": [],
      "name": "cloakingAvailable",
      "outputs": [
        {
          "internalType": "bool",
          "name": "",
          "type": "bool"
        }
      ],
      "stateMutability": "view",
      "type": "function"
    },
    {
      "inputs": [],
      "name": "contractURI",
      "outputs": [
        {
          "internalType": "string",
          "name": "",
          "type": "string"
        }
      ],
      "stateMutability": "view",
      "type": "function"
    },
    {
      "inputs": [],
      "name": "currentBuyableSeekers",
      "outputs": [
        {
          "internalType": "uint256",
          "name": "",
          "type": "uint256"
        }
      ],
      "stateMutability": "view",
      "type": "function"
    },
    {
      "inputs": [],
      "name": "currentPrice",
      "outputs": [
        {
          "internalType": "uint256",
          "name": "",
          "type": "uint256"
        }
      ],
      "stateMutability": "view",
      "type": "function"
    },
    {
      "inputs": [
        {
          "internalType": "uint256",
          "name": "id",
          "type": "uint256"
        },
        {
          "internalType": "address",
          "name": "clanAddress",
          "type": "address"
        }
      ],
      "name": "declareForClan",
      "outputs": [],
      "stateMutability": "nonpayable",
      "type": "function"
    },
    {
      "inputs": [],
      "name": "endGoodsOnly",
      "outputs": [],
      "stateMutability": "nonpayable",
      "type": "function"
    },
    {
      "inputs": [],
      "name": "evilsOnly",
      "outputs": [
        {
          "internalType": "bool",
          "name": "",
          "type": "bool"
        }
      ],
      "stateMutability": "view",
      "type": "function"
    },
    {
      "inputs": [],
      "name": "firstMintActive",
      "outputs": [
        {
          "internalType": "bool",
          "name": "",
          "type": "bool"
        }
      ],
      "stateMutability": "view",
      "type": "function"
    },
    {
      "inputs": [
        {
          "internalType": "uint256",
          "name": "id",
          "type": "uint256"
        }
      ],
      "name": "getAlignmentById",
      "outputs": [
        {
          "internalType": "string",
          "name": "",
          "type": "string"
        }
      ],
      "stateMutability": "view",
      "type": "function"
    },
    {
      "inputs": [
        {
          "internalType": "uint256",
          "name": "id",
          "type": "uint256"
        }
      ],
      "name": "getApById",
      "outputs": [
        {
          "internalType": "uint8[4]",
          "name": "",
          "type": "uint8[4]"
        }
      ],
      "stateMutability": "view",
      "type": "function"
    },
    {
      "inputs": [
        {
          "internalType": "uint256",
          "name": "tokenId",
          "type": "uint256"
        }
      ],
      "name": "getApproved",
      "outputs": [
        {
          "internalType": "address",
          "name": "",
          "type": "address"
        }
      ],
      "stateMutability": "view",
      "type": "function"
    },
    {
      "inputs": [
        {
          "internalType": "uint256",
          "name": "id",
          "type": "uint256"
        }
      ],
      "name": "getClanById",
      "outputs": [
        {
          "internalType": "address",
          "name": "",
          "type": "address"
        }
      ],
      "stateMutability": "view",
      "type": "function"
    },
    {
      "inputs": [
        {
          "internalType": "uint256",
          "name": "id",
          "type": "uint256"
        }
      ],
      "name": "getCloakStatusById",
      "outputs": [
        {
          "internalType": "bool",
          "name": "",
          "type": "bool"
        }
      ],
      "stateMutability": "view",
      "type": "function"
    },
    {
      "inputs": [
        {
          "internalType": "uint256",
          "name": "id",
          "type": "uint256"
        }
      ],
      "name": "getDethscalesById",
      "outputs": [
        {
          "internalType": "uint16",
          "name": "",
          "type": "uint16"
        }
      ],
      "stateMutability": "view",
      "type": "function"
    },
    {
      "inputs": [
        {
          "internalType": "uint256",
          "name": "id",
          "type": "uint256"
        }
      ],
      "name": "getFullCloak",
      "outputs": [
        {
          "internalType": "uint32[32]",
          "name": "",
          "type": "uint32[32]"
        }
      ],
      "stateMutability": "view",
      "type": "function"
    },
    {
      "inputs": [
        {
          "internalType": "uint256",
          "name": "id",
          "type": "uint256"
        }
      ],
      "name": "getOriginById",
      "outputs": [
        {
          "internalType": "bool",
          "name": "",
          "type": "bool"
        }
      ],
      "stateMutability": "view",
      "type": "function"
    },
    {
      "inputs": [
        {
          "internalType": "uint256",
          "name": "id",
          "type": "uint256"
        }
      ],
      "name": "getPowerById",
      "outputs": [
        {
          "internalType": "uint16",
          "name": "",
          "type": "uint16"
        }
      ],
      "stateMutability": "view",
      "type": "function"
    },
    {
      "inputs": [
        {
          "internalType": "bytes32",
          "name": "role",
          "type": "bytes32"
        }
      ],
      "name": "getRoleAdmin",
      "outputs": [
        {
          "internalType": "bytes32",
          "name": "",
          "type": "bytes32"
        }
      ],
      "stateMutability": "view",
      "type": "function"
    },
    {
      "inputs": [],
      "name": "goodsOnly",
      "outputs": [
        {
          "internalType": "bool",
          "name": "",
          "type": "bool"
        }
      ],
      "stateMutability": "view",
      "type": "function"
    },
    {
      "inputs": [
        {
          "internalType": "bytes32",
          "name": "role",
          "type": "bytes32"
        },
        {
          "internalType": "address",
          "name": "account",
          "type": "address"
        }
      ],
      "name": "grantRole",
      "outputs": [],
      "stateMutability": "nonpayable",
      "type": "function"
    },
    {
      "inputs": [
        {
          "internalType": "bytes32",
          "name": "role",
          "type": "bytes32"
        },
        {
          "internalType": "address",
          "name": "account",
          "type": "address"
        }
      ],
      "name": "hasRole",
      "outputs": [
        {
          "internalType": "bool",
          "name": "",
          "type": "bool"
        }
      ],
      "stateMutability": "view",
      "type": "function"
    },
    {
      "inputs": [
        {
          "internalType": "address",
          "name": "owner",
          "type": "address"
        },
        {
          "internalType": "address",
          "name": "operator",
          "type": "address"
        }
      ],
      "name": "isApprovedForAll",
      "outputs": [
        {
          "internalType": "bool",
          "name": "",
          "type": "bool"
        }
      ],
      "stateMutability": "view",
      "type": "function"
    },
    {
      "inputs": [
        {
          "internalType": "uint256",
          "name": "summonCount",
          "type": "uint256"
        }
      ],
      "name": "keepersSummonSeeker",
      "outputs": [],
      "stateMutability": "nonpayable",
      "type": "function"
    },
    {
      "inputs": [],
      "name": "name",
      "outputs": [
        {
          "internalType": "string",
          "name": "",
          "type": "string"
        }
      ],
      "stateMutability": "view",
      "type": "function"
    },
    {
      "inputs": [
        {
          "internalType": "uint256",
          "name": "tokenId",
          "type": "uint256"
        }
      ],
      "name": "ownerOf",
      "outputs": [
        {
          "internalType": "address",
          "name": "",
          "type": "address"
        }
      ],
      "stateMutability": "view",
      "type": "function"
    },
    {
      "inputs": [],
      "name": "ownerWithdraw",
      "outputs": [],
      "stateMutability": "payable",
      "type": "function"
    },
    {
      "inputs": [],
      "name": "performCloakingCeremony",
      "outputs": [],
      "stateMutability": "nonpayable",
      "type": "function"
    },
    {
      "inputs": [],
      "name": "released",
      "outputs": [
        {
          "internalType": "bool",
          "name": "",
          "type": "bool"
        }
      ],
      "stateMutability": "view",
      "type": "function"
    },
    {
      "inputs": [
        {
          "internalType": "bytes32",
          "name": "role",
          "type": "bytes32"
        },
        {
          "internalType": "address",
          "name": "account",
          "type": "address"
        }
      ],
      "name": "renounceRole",
      "outputs": [],
      "stateMutability": "nonpayable",
      "type": "function"
    },
    {
      "inputs": [
        {
          "internalType": "uint256",
          "name": "id",
          "type": "uint256"
        }
      ],
      "name": "rerollDethscales",
      "outputs": [],
      "stateMutability": "nonpayable",
      "type": "function"
    },
    {
      "inputs": [
        {
          "internalType": "bytes32",
          "name": "role",
          "type": "bytes32"
        },
        {
          "internalType": "address",
          "name": "account",
          "type": "address"
        }
      ],
      "name": "revokeRole",
      "outputs": [],
      "stateMutability": "nonpayable",
      "type": "function"
    },
    {
      "inputs": [
        {
          "internalType": "address",
          "name": "from",
          "type": "address"
        },
        {
          "internalType": "address",
          "name": "to",
          "type": "address"
        },
        {
          "internalType": "uint256",
          "name": "tokenId",
          "type": "uint256"
        }
      ],
      "name": "safeTransferFrom",
      "outputs": [],
      "stateMutability": "nonpayable",
      "type": "function"
    },
    {
      "inputs": [
        {
          "internalType": "address",
          "name": "from",
          "type": "address"
        },
        {
          "internalType": "address",
          "name": "to",
          "type": "address"
        },
        {
          "internalType": "uint256",
          "name": "tokenId",
          "type": "uint256"
        },
        {
          "internalType": "bytes",
          "name": "_data",
          "type": "bytes"
        }
      ],
      "name": "safeTransferFrom",
      "outputs": [],
      "stateMutability": "nonpayable",
      "type": "function"
    },
    {
      "inputs": [],
      "name": "secondMintActive",
      "outputs": [
        {
          "internalType": "bool",
          "name": "",
          "type": "bool"
        }
      ],
      "stateMutability": "view",
      "type": "function"
    },
    {
      "inputs": [],
      "name": "seizureMintIncrement",
      "outputs": [],
      "stateMutability": "nonpayable",
      "type": "function"
    },
    {
      "inputs": [
        {
          "internalType": "address",
          "name": "winner",
          "type": "address"
        }
      ],
      "name": "sendWinnerSeeker",
      "outputs": [],
      "stateMutability": "nonpayable",
      "type": "function"
    },
    {
      "inputs": [
        {
          "internalType": "address",
          "name": "operator",
          "type": "address"
        },
        {
          "internalType": "bool",
          "name": "approved",
          "type": "bool"
        }
      ],
      "name": "setApprovalForAll",
      "outputs": [],
      "stateMutability": "nonpayable",
      "type": "function"
    },
    {
      "inputs": [
        {
          "internalType": "string",
          "name": "baseTokenURI",
          "type": "string"
        }
      ],
      "name": "setBaseURI",
      "outputs": [],
      "stateMutability": "nonpayable",
      "type": "function"
    },
    {
      "inputs": [
        {
          "internalType": "string",
          "name": "newContractURI",
          "type": "string"
        }
      ],
      "name": "setContractURI",
      "outputs": [],
      "stateMutability": "nonpayable",
      "type": "function"
    },
    {
      "inputs": [
        {
          "internalType": "uint256",
          "name": "summonCount",
          "type": "uint256"
        }
      ],
      "name": "summonSeeker",
      "outputs": [],
      "stateMutability": "payable",
      "type": "function"
    },
    {
      "inputs": [
        {
          "internalType": "bytes4",
          "name": "interfaceId",
          "type": "bytes4"
        }
      ],
      "name": "supportsInterface",
      "outputs": [
        {
          "internalType": "bool",
          "name": "",
          "type": "bool"
        }
      ],
      "stateMutability": "view",
      "type": "function"
    },
    {
      "inputs": [],
      "name": "symbol",
      "outputs": [
        {
          "internalType": "string",
          "name": "",
          "type": "string"
        }
      ],
      "stateMutability": "view",
      "type": "function"
    },
    {
      "inputs": [],
      "name": "thirdMintActive",
      "outputs": [
        {
          "internalType": "bool",
          "name": "",
          "type": "bool"
        }
      ],
      "stateMutability": "view",
      "type": "function"
    },
    {
      "inputs": [
        {
          "internalType": "uint256",
          "name": "index",
          "type": "uint256"
        }
      ],
      "name": "tokenByIndex",
      "outputs": [
        {
          "internalType": "uint256",
          "name": "",
          "type": "uint256"
        }
      ],
      "stateMutability": "view",
      "type": "function"
    },
    {
      "inputs": [
        {
          "internalType": "address",
          "name": "owner",
          "type": "address"
        },
        {
          "internalType": "uint256",
          "name": "index",
          "type": "uint256"
        }
      ],
      "name": "tokenOfOwnerByIndex",
      "outputs": [
        {
          "internalType": "uint256",
          "name": "",
          "type": "uint256"
        }
      ],
      "stateMutability": "view",
      "type": "function"
    },
    {
      "inputs": [
        {
          "internalType": "uint256",
          "name": "tokenId",
          "type": "uint256"
        }
      ],
      "name": "tokenURI",
      "outputs": [
        {
          "internalType": "string",
          "name": "",
          "type": "string"
        }
      ],
      "stateMutability": "view",
      "type": "function"
    },
    {
      "inputs": [],
      "name": "totalSupply",
      "outputs": [
        {
          "internalType": "uint256",
          "name": "",
          "type": "uint256"
        }
      ],
      "stateMutability": "view",
      "type": "function"
    },
    {
      "inputs": [
        {
          "internalType": "address",
          "name": "from",
          "type": "address"
        },
        {
          "internalType": "address",
          "name": "to",
          "type": "address"
        },
        {
          "internalType": "uint256",
          "name": "tokenId",
          "type": "uint256"
        }
      ],
      "name": "transferFrom",
      "outputs": [],
      "stateMutability": "nonpayable",
      "type": "function"
    },
    {
      "stateMutability": "payable",
      "type": "receive"
    }
  ],
  "bytecode": "0x6000600c819055600d819055600e819055600f8190556010556011805466ffffffffffffff1916905560e060405260276080818152906200670360a0398051620000529160159160209091019062000b18565b506040518060600160405280602881526020016200674a602891398051620000839160169160209091019062000b18565b506040805161016081018252600b61012082018181526a13185dd99d5b0811dbdbd960aa1b610140840152825282518084018452600c8082526b13995d5d1c985b0811dbdbd960a21b60208381019190915280850192909252845180860186528181526b10da185bdd1a58c811dbdbd960a21b818401528486015284518086018652600e81526d13185dd99d5b0813995d5d1c985b60921b818401526060850152845180860186528181526b151c9d594813995d5d1c985b60a21b81840152608085015284518086018652600f81526e10da185bdd1a58c813995d5d1c985b608a1b8184015260a0850152845180860186529283526a13185dd99d5b08115d9a5b60aa1b8383015260c0840192909252835180850185528281526b13995d5d1c985b08115d9a5b60a21b8183015260e084015283518085019094529083526b10da185bdd1a58c8115d9a5b60a21b90830152610100810191909152620001ee90601790600962000ba7565b50348015620001fc57600080fd5b5060405162006772380380620067728339810160408190526200021f9162000c81565b604080518082018252601381527f436f696e6c616e6465723a205365656b657273000000000000000000000000006020808301918252835180850190945260078452665345454b45525360c81b908401528151919291620002839160009162000b18565b5080516200029990600190602084019062000b18565b50506001600b5550620002ae600033620003a9565b620002c96000805160206200672a83398151915233620003a9565b620002e56000805160206200672a8339815191526000620003b9565b601480546001600160a01b0319166001600160a01b038316179055600c8054600191906000906200031890849062000cc9565b9091555050600c546200032d90339062000404565b6001600081905260136020527f4155c2f711f2cdd34f8262ab8fb9b7020a700fe7b6948222152f7670d1fdf34e805460ff19169091179055606f6106436200037a610d0561138862000cc9565b62000386919062000cc9565b62000392919062000cc9565b6200039f90600162000cc9565b600d555062000e0e565b620003b5828262000426565b5050565b6000828152600a6020526040808220600101805490849055905190918391839186917fbd79b86ffe0ab8e8776151514217cd7cacd52c909f66475c3af44e129f0b00ff9190a4505050565b620003b5828260405180602001604052806000815250620004ca60201b60201c565b6000828152600a602090815260408083206001600160a01b038516845290915290205460ff16620003b5576000828152600a602090815260408083206001600160a01b03851684529091529020805460ff19166001179055620004863390565b6001600160a01b0316816001600160a01b0316837f2f8788117e7eff1d82e926ec794901d17c78024a50270940304540a733656f0d60405160405180910390a45050565b620004d6838362000546565b620004e560008484846200069c565b620005415760405162461bcd60e51b81526020600482015260326024820152600080516020620066e383398151915260448201527131b2b4bb32b91034b6b83632b6b2b73a32b960711b60648201526084015b60405180910390fd5b505050565b6001600160a01b0382166200059e5760405162461bcd60e51b815260206004820181905260248201527f4552433732313a206d696e7420746f20746865207a65726f2061646472657373604482015260640162000538565b6000818152600260205260409020546001600160a01b031615620006055760405162461bcd60e51b815260206004820152601c60248201527f4552433732313a20746f6b656e20616c7265616479206d696e74656400000000604482015260640162000538565b6200061360008383620007f5565b6001600160a01b03821660009081526003602052604081208054600192906200063e90849062000cc9565b909155505060008181526002602052604080822080546001600160a01b0319166001600160a01b03861690811790915590518392907fddf252ad1be2c89b69c2b068fc378daa952ba7f163c4a11628f55a4df523b3ef908290a45050565b6000620006bd846001600160a01b0316620008d160201b62002ebf1760201c565b15620007e957604051630a85bd0160e11b81526001600160a01b0385169063150b7a0290620006f790339089908890889060040162000ce4565b6020604051808303816000875af192505050801562000735575060408051601f3d908101601f19168201909252620007329181019062000d5f565b60015b620007ce573d80801562000766576040519150601f19603f3d011682016040523d82523d6000602084013e6200076b565b606091505b508051620007c65760405162461bcd60e51b81526020600482015260326024820152600080516020620066e383398151915260448201527131b2b4bb32b91034b6b83632b6b2b73a32b960711b606482015260840162000538565b805181602001fd5b6001600160e01b031916630a85bd0160e11b149050620007ed565b5060015b949350505050565b6200080d8383836200054160201b620013791760201c565b6001600160a01b0383166200086b576200086581600880546000838152600960205260408120829055600182018355919091527ff3f7a9fe364faab93b216da50a3214154f22a0a2b415b23a84c8169e8b636ee30155565b62000891565b816001600160a01b0316836001600160a01b0316146200089157620008918382620008d7565b6001600160a01b038216620008ab57620005418162000984565b826001600160a01b0316826001600160a01b031614620005415762000541828262000a3e565b3b151590565b60006001620008f18462000a8f60201b62001cde1760201c565b620008fd919062000d8b565b60008381526007602052604090205490915080821462000951576001600160a01b03841660009081526006602090815260408083208584528252808320548484528184208190558352600790915290208190555b5060009182526007602090815260408084208490556001600160a01b039094168352600681528383209183525290812055565b600854600090620009989060019062000d8b565b60008381526009602052604081205460088054939450909284908110620009c357620009c362000da5565b906000526020600020015490508060088381548110620009e757620009e762000da5565b600091825260208083209091019290925582815260099091526040808220849055858252812055600880548062000a225762000a2262000dbb565b6001900381819060005260206000200160009055905550505050565b600062000a568362000a8f60201b62001cde1760201c565b6001600160a01b039093166000908152600660209081526040808320868452825280832085905593825260079052919091209190915550565b60006001600160a01b03821662000afc5760405162461bcd60e51b815260206004820152602a60248201527f4552433732313a2062616c616e636520717565727920666f7220746865207a65604482015269726f206164647265737360b01b606482015260840162000538565b506001600160a01b031660009081526003602052604090205490565b82805462000b269062000dd1565b90600052602060002090601f01602090048101928262000b4a576000855562000b95565b82601f1062000b6557805160ff191683800117855562000b95565b8280016001018555821562000b95579182015b8281111562000b9557825182559160200191906001019062000b78565b5062000ba392915062000c07565b5090565b82805482825590600052602060002090810192821562000bf9579160200282015b8281111562000bf9578251805162000be891849160209091019062000b18565b509160200191906001019062000bc8565b5062000ba392915062000c1e565b5b8082111562000ba3576000815560010162000c08565b8082111562000ba357600062000c35828262000c3f565b5060010162000c1e565b50805462000c4d9062000dd1565b6000825580601f1062000c5e575050565b601f01602090049060005260206000209081019062000c7e919062000c07565b50565b60006020828403121562000c9457600080fd5b81516001600160a01b038116811462000cac57600080fd5b9392505050565b634e487b7160e01b600052601160045260246000fd5b6000821982111562000cdf5762000cdf62000cb3565b500190565b600060018060a01b038087168352602081871681850152856040850152608060608501528451915081608085015260005b8281101562000d335785810182015185820160a00152810162000d15565b8281111562000d4657600060a084870101525b5050601f01601f19169190910160a00195945050505050565b60006020828403121562000d7257600080fd5b81516001600160e01b03198116811462000cac57600080fd5b60008282101562000da05762000da062000cb3565b500390565b634e487b7160e01b600052603260045260246000fd5b634e487b7160e01b600052603160045260246000fd5b600181811c9082168062000de657607f821691505b6020821081141562000e0857634e487b7160e01b600052602260045260246000fd5b50919050565b6158c58062000e1e6000396000f3fe6080604052600436106104695760003560e01c806381cd08ee11610243578063b88d4fde11610143578063dec8a315116100bb578063e985e9c51161008a578063eeb3f66d1161006f578063eeb3f66d14610d56578063fe01946214610d78578063ff25b2b214610d8d57600080fd5b8063e985e9c514610cf3578063eb8fafd014610d3c57600080fd5b8063dec8a31514610c58578063e25a8b6114610c6e578063e84f579814610c9e578063e8a3d48514610cde57600080fd5b8063ca21ec1b11610112578063dce62c79116100f7578063dce62c7914610c09578063dd38007514610c23578063dec3a74c14610c4357600080fd5b8063ca21ec1b14610bb6578063d547741f14610be957600080fd5b8063b88d4fde14610b2a578063c5ce83f914610b4a578063c5f5e3d114610b69578063c87b56dd14610b9657600080fd5b80639c6bf854116101d6578063a1a6125f116101a5578063a22cb4651161018a578063a22cb46514610ad5578063a28d746814610af5578063b085a3f714610b1557600080fd5b8063a1a6125f14610aaa578063a217fddf14610ac057600080fd5b80639c6bf85414610a175780639d1b464a14610a2c5780639dc4263f14610a425780639e94505814610a7d57600080fd5b8063938e3d7b11610212578063938e3d7b1461099f57806395d89b41146109bf57806396132521146109d45780639767d423146109f757600080fd5b806381cd08ee14610903578063825b0da7146109235780638ae626a21461094357806391d148541461095957600080fd5b80634032b72b116103695780636352211e116102e157806373afc257116102b05780637aaf13a0116102955780637aaf13a0146108b35780637c6aa02a146108d3578063807d88fa146108e957600080fd5b806373afc2571461088b5780637a9597a61461089e57600080fd5b80636352211e14610836578063682341fa146107835780636e39a3451461085657806370a082311461086b57600080fd5b80634f6ccce71161033857806351e224ca1161031d57806351e224ca146107d257806355f804b3146107f257806361cf05ce1461081257600080fd5b80634f6ccce7146107985780635123b39a146107b857600080fd5b80634032b72b1461073b57806342842e0e1461075b5780634311de8f1461077b5780634483a5811461078357600080fd5b806310b12709116103fc5780632f2ff15d116103cb5780632fc2add1116103b05780632fc2add1146106ab57806336568abe146106fb57806336842eae1461071b57600080fd5b80632f2ff15d1461066b5780632f745c591461068b57600080fd5b806310b12709146105e757806318160ddd146105fc57806323b872dd1461061b578063248a9ca31461063b57600080fd5b806303989c711161043857806303989c711461055957806306fdde031461057a578063081812fc1461058f578063095ea7b3146105c757600080fd5b806301ffc9a7146104c057806302368a2c146104f55780630278c1ba1461051757806302a1b9e91461054457600080fd5b366104bb5760405162461bcd60e51b815260206004820152600960248201527f452d3030312d303230000000000000000000000000000000000000000000000060448201526064015b60405180910390fd5b600080fd5b3480156104cc57600080fd5b506104e06104db36600461502a565b610dad565b60405190151581526020015b60405180910390f35b34801561050157600080fd5b50610515610510366004615047565b610dbe565b005b34801561052357600080fd5b50610537610532366004615069565b610fd3565b6040516104ec91906150da565b34801561055057600080fd5b50610515611077565b34801561056557600080fd5b506011546104e0906301000000900460ff1681565b34801561058657600080fd5b50610537611125565b34801561059b57600080fd5b506105af6105aa366004615069565b6111b7565b6040516001600160a01b0390911681526020016104ec565b3480156105d357600080fd5b506105156105e2366004615109565b61124c565b3480156105f357600080fd5b5061051561137e565b34801561060857600080fd5b506008545b6040519081526020016104ec565b34801561062757600080fd5b50610515610636366004615133565b6114a0565b34801561064757600080fd5b5061060d610656366004615069565b6000908152600a602052604090206001015490565b34801561067757600080fd5b5061051561068636600461516f565b611527565b34801561069757600080fd5b5061060d6106a6366004615109565b61154d565b3480156106b757600080fd5b506106e86106c6366004615069565b60009081526013602052604090206001015465010000000000900461ffff1690565b60405161ffff90911681526020016104ec565b34801561070757600080fd5b5061051561071636600461516f565b6115f5565b34801561072757600080fd5b5061051561073636600461516f565b611681565b34801561074757600080fd5b5061051561075636600461519b565b611753565b34801561076757600080fd5b50610515610776366004615133565b6117ea565b610515611805565b34801561078f57600080fd5b506106e8600181565b3480156107a457600080fd5b5061060d6107b3366004615069565b61189e565b3480156107c457600080fd5b5061060d6512309ce5400081565b3480156107de57600080fd5b506105156107ed366004615069565b611942565b3480156107fe57600080fd5b5061051561080d366004615242565b611ab1565b34801561081e57600080fd5b506011546104e0906601000000000000900460ff1681565b34801561084257600080fd5b506105af610851366004615069565b611b2e565b34801561086257600080fd5b50610515611bb9565b34801561087757600080fd5b5061060d61088636600461519b565b611cde565b610515610899366004615069565b611d78565b3480156108aa57600080fd5b506106e8600581565b3480156108bf57600080fd5b506105156108ce366004615069565b611f24565b3480156108df57600080fd5b5061060d600e5481565b3480156108f557600080fd5b5061060d655af3107a400081565b34801561090f57600080fd5b5061051561091e36600461519b565b6120a3565b34801561092f57600080fd5b5061060d61093e36600461529d565b612137565b34801561094f57600080fd5b5061060d612b6781565b34801561096557600080fd5b506104e061097436600461516f565b6000918252600a602090815260408084206001600160a01b0393909316845291905290205460ff1690565b3480156109ab57600080fd5b506105156109ba3660046152d4565b612248565b3480156109cb57600080fd5b506105376122be565b3480156109e057600080fd5b506011546104e09065010000000000900460ff1681565b348015610a0357600080fd5b506011546104e09062010000900460ff1681565b348015610a2357600080fd5b506106e8600381565b348015610a3857600080fd5b5061060d600f5481565b348015610a4e57600080fd5b506106e8610a5d366004615069565b600090815260136020526040902060010154600160381b900461ffff1690565b348015610a8957600080fd5b50610a9d610a98366004615069565b6122cd565b6040516104ec9190615346565b348015610ab657600080fd5b506106e861040081565b348015610acc57600080fd5b5061060d600081565b348015610ae157600080fd5b50610515610af0366004615382565b61241e565b348015610b0157600080fd5b50610515610b10366004615069565b6124e3565b348015610b2157600080fd5b50610515612899565b348015610b3657600080fd5b50610515610b453660046153b3565b61291d565b348015610b5657600080fd5b506011546104e090610100900460ff1681565b348015610b7557600080fd5b50610b89610b84366004615069565b6129ab565b6040516104ec919061542f565b348015610ba257600080fd5b50610537610bb1366004615069565b612a10565b348015610bc257600080fd5b506104e0610bd1366004615069565b60009081526013602052604090206001015460ff1690565b348015610bf557600080fd5b50610515610c0436600461516f565b612af9565b348015610c1557600080fd5b506011546104e09060ff1681565b348015610c2f57600080fd5b50610515610c3e36600461546a565b612b1f565b348015610c4f57600080fd5b50610515612be1565b348015610c6457600080fd5b5061060d610d0581565b348015610c7a57600080fd5b506104e0610c89366004615069565b60009081526012602052604090205460ff1690565b348015610caa57600080fd5b506105af610cb9366004615069565b600090815260136020526040902060010154600160481b90046001600160a01b031690565b348015610cea57600080fd5b50610537612d04565b348015610cff57600080fd5b506104e0610d0e36600461548f565b6001600160a01b03918216600090815260056020908152604080832093909416825291909152205460ff1690565b348015610d4857600080fd5b5061060d652d79883d200081565b348015610d6257600080fd5b506011546104e090640100000000900460ff1681565b348015610d8457600080fd5b50610515612d13565b348015610d9957600080fd5b50610515610da836600461519b565b612d8d565b6000610db882612ec5565b92915050565b3360009081527f61452436a62565ab2cbed6a23d441329fc7a4b9f7fa5613961bdfeb3b7247f6d602052604090205460ff16610e285760405162461bcd60e51b8152602060048201526009602482015268452d3030312d30313760b81b60448201526064016104b2565b6000610e3383611b2e565b6001600160a01b03161415610e765760405162461bcd60e51b8152602060048201526009602482015268114b4c0c0c4b4c0c4d60ba1b60448201526064016104b2565b60008111610ec65760405162461bcd60e51b815260206004820152600960248201527f452d3030312d303135000000000000000000000000000000000000000000000060448201526064016104b2565b60008281526013602052604090206001015465010000000000900461ffff16610400610ef283836154cf565b1115610f25576000838152601360205260409020600101805466ffff000000000019166604000000000000179055610f71565b60008381526013602052604090206001018054839190600590610f5690849065010000000000900461ffff166154e7565b92506101000a81548161ffff021916908361ffff1602179055505b6000838152601360209081526040918290206001015482518581526501000000000090910461ffff169181019190915284917f2d06a0b6d9e448255510db8be5700d234d963e07554aa376f2a103125f19ae62910160405180910390a2505050565b600081815260136020526040812080546060929190610ff19061550d565b80601f016020809104026020016040519081016040528092919081815260200182805461101d9061550d565b801561106a5780601f1061103f5761010080835404028352916020019161106a565b820191906000526020600020905b81548152906001019060200180831161104d57829003601f168201915b5093979650505050505050565b3360009081527f61452436a62565ab2cbed6a23d441329fc7a4b9f7fa5613961bdfeb3b7247f6d602052604090205460ff166110e15760405162461bcd60e51b8152602060048201526009602482015268452d3030312d30313760b81b60448201526064016104b2565b6011805466ff000000000000191666010000000000001790556040517f384cd6e879e19b3a7feb9103a0279a87ba150b6ca87991db6cb08ca2981224ee90600090a1565b6060600080546111349061550d565b80601f01602080910402602001604051908101604052809291908181526020018280546111609061550d565b80156111ad5780601f10611182576101008083540402835291602001916111ad565b820191906000526020600020905b81548152906001019060200180831161119057829003601f168201915b5050505050905090565b6000818152600260205260408120546001600160a01b03166112305760405162461bcd60e51b815260206004820152602c60248201527f4552433732313a20617070726f76656420717565727920666f72206e6f6e657860448201526b34b9ba32b73a103a37b5b2b760a11b60648201526084016104b2565b506000908152600460205260409020546001600160a01b031690565b600061125782611b2e565b9050806001600160a01b0316836001600160a01b031614156112e15760405162461bcd60e51b815260206004820152602160248201527f4552433732313a20617070726f76616c20746f2063757272656e74206f776e6560448201527f720000000000000000000000000000000000000000000000000000000000000060648201526084016104b2565b336001600160a01b03821614806112fd57506112fd8133610d0e565b61136f5760405162461bcd60e51b815260206004820152603860248201527f4552433732313a20617070726f76652063616c6c6572206973206e6f74206f7760448201527f6e6572206e6f7220617070726f76656420666f7220616c6c000000000000000060648201526084016104b2565b6113798383612f03565b505050565b3360009081527f61452436a62565ab2cbed6a23d441329fc7a4b9f7fa5613961bdfeb3b7247f6d602052604090205460ff166113e85760405162461bcd60e51b8152602060048201526009602482015268452d3030312d30313760b81b60448201526064016104b2565b60115460ff161561143b5760405162461bcd60e51b815260206004820152600960248201527f452d3030312d303035000000000000000000000000000000000000000000000060448201526064016104b2565b6011805460ff191660011790556040517f0d3dae01e1b4644a9619797b649d24e856e8d3dd662f97e01427e70bf2ae91a690600090a161147e606f6113886154cf565b600e600082825461148f91906154cf565b90915550506512309ce54000600f55565b6114aa3382612f7e565b61151c5760405162461bcd60e51b815260206004820152603160248201527f4552433732313a207472616e736665722063616c6c6572206973206e6f74206f60448201527f776e6572206e6f7220617070726f76656400000000000000000000000000000060648201526084016104b2565b611379838383613075565b6000828152600a6020526040902060010154611543813361325a565b61137983836132da565b600061155883611cde565b82106115cc5760405162461bcd60e51b815260206004820152602b60248201527f455243373231456e756d657261626c653a206f776e657220696e646578206f7560448201527f74206f6620626f756e647300000000000000000000000000000000000000000060648201526084016104b2565b506001600160a01b03919091166000908152600660209081526040808320938352929052205490565b6001600160a01b03811633146116735760405162461bcd60e51b815260206004820152602f60248201527f416363657373436f6e74726f6c3a2063616e206f6e6c792072656e6f756e636560448201527f20726f6c657320666f722073656c66000000000000000000000000000000000060648201526084016104b2565b61167d828261337c565b5050565b61168a82611b2e565b6001600160a01b0316336001600160a01b0316146116d65760405162461bcd60e51b81526020600482015260096024820152680452d3030312d3031360bc1b60448201526064016104b2565b60008281526013602052604080822060010180547fffffff0000000000000000000000000000000000000000ffffffffffffffffff16600160481b6001600160a01b038616908102919091179091559051909184917fafa5959eb8823d589ec08c28f3effdde6546d1102288f3ba855119af25e3bbba9190a35050565b3360009081527fd097c2ba9c9f8e2dcc0db7b99113293b0940e94d6b5c6f2698d589381e9782e7602052604090205460ff166117bd5760405162461bcd60e51b815260206004820152600960248201526808a5a6060625a6062760bb1b60448201526064016104b2565b6117e77f2fa3586e1228a6d020f44df84a4695dcd1cfcb55a51cd832563c729d866522ff82611527565b50565b6113798383836040518060200160405280600081525061291d565b3360009081527fd097c2ba9c9f8e2dcc0db7b99113293b0940e94d6b5c6f2698d589381e9782e7602052604090205460ff1661186f5760405162461bcd60e51b815260206004820152600960248201526808a5a6060625a6062760bb1b60448201526064016104b2565b6040514790339082156108fc029083906000818181858888f1935050505015801561167d573d6000803e3d6000fd5b60006118a960085490565b821061191d5760405162461bcd60e51b815260206004820152602c60248201527f455243373231456e756d657261626c653a20676c6f62616c20696e646578206f60448201527f7574206f6620626f756e6473000000000000000000000000000000000000000060648201526084016104b2565b6008828154811061193057611930615548565b90600052602060002001549050919050565b6011546601000000000000900460ff1661198a5760405162461bcd60e51b8152602060048201526009602482015268452d3030312d30303960b81b60448201526064016104b2565b61199381611b2e565b6001600160a01b0316336001600160a01b0316146119df5760405162461bcd60e51b81526020600482015260096024820152680452d3030312d3031360bc1b60448201526064016104b2565b60008181526012602052604090205460ff16611a295760405162461bcd60e51b815260206004820152600960248201526822969818189698189960b91b60448201526064016104b2565b611a348160016133ff565b611a3f81600161351d565b60008281526013602052604090819020600101805461ffff93909316600160381b0268ffff000000000000001990931692909217909155517fdcc2145292317879f6319461deaed4ada2422f436a0b0e15f2af0e60c637d12190611aa69083815260200190565b60405180910390a150565b3360009081527fd097c2ba9c9f8e2dcc0db7b99113293b0940e94d6b5c6f2698d589381e9782e7602052604090205460ff16611b1b5760405162461bcd60e51b815260206004820152600960248201526808a5a6060625a6062760bb1b60448201526064016104b2565b805161167d906016906020840190614eca565b6000818152600260205260408120546001600160a01b031680610db85760405162461bcd60e51b815260206004820152602960248201527f4552433732313a206f776e657220717565727920666f72206e6f6e657869737460448201527f656e7420746f6b656e000000000000000000000000000000000000000000000060648201526084016104b2565b3360009081527f61452436a62565ab2cbed6a23d441329fc7a4b9f7fa5613961bdfeb3b7247f6d602052604090205460ff16611c235760405162461bcd60e51b8152602060048201526009602482015268452d3030312d30313760b81b60448201526064016104b2565b60115462010000900460ff1615611c7c5760405162461bcd60e51b815260206004820152600960248201527f452d3030312d303037000000000000000000000000000000000000000000000060448201526064016104b2565b6011805464ffffff000019166401000100001790556040517f1bbe80213228404e276963f9e286d445ba1e5609daacc5098b97ad3783da4d9790600090a160dc600e6000828254611ccd91906154cf565b9091555050655af3107a4000600f55565b60006001600160a01b038216611d5c5760405162461bcd60e51b815260206004820152602a60248201527f4552433732313a2062616c616e636520717565727920666f7220746865207a6560448201527f726f20616464726573730000000000000000000000000000000000000000000060648201526084016104b2565b506001600160a01b031660009081526003602052604090205490565b6002600b541415611dcb5760405162461bcd60e51b815260206004820152601f60248201527f5265656e7472616e637947756172643a207265656e7472616e742063616c6c0060448201526064016104b2565b6002600b558015801590611de05750600a8111155b611e2c5760405162461bcd60e51b815260206004820152600960248201527f452d3030312d303031000000000000000000000000000000000000000000000060448201526064016104b2565b80600f54611e3a919061555e565b341015611e895760405162461bcd60e51b815260206004820152600960248201527f452d3030312d303032000000000000000000000000000000000000000000000060448201526064016104b2565b600e5481600c54611e9a91906154cf565b1115611ed45760405162461bcd60e51b8152602060048201526009602482015268452d3030312d30303360b81b60448201526064016104b2565b60005b81811015611f1b576001600c6000828254611ef291906154cf565b92505081905550611f0933600c54600060036136a1565b80611f138161557d565b915050611ed7565b50506001600b55565b6002600b541415611f775760405162461bcd60e51b815260206004820152601f60248201527f5265656e7472616e637947756172643a207265656e7472616e742063616c6c0060448201526064016104b2565b6002600b553360009081527fd097c2ba9c9f8e2dcc0db7b99113293b0940e94d6b5c6f2698d589381e9782e7602052604090205460ff16611fe65760405162461bcd60e51b815260206004820152600960248201526808a5a6060625a6062760bb1b60448201526064016104b2565b606f81601054611ff691906154cf565b11156120445760405162461bcd60e51b815260206004820152600960248201527f452d3030312d303034000000000000000000000000000000000000000000000060448201526064016104b2565b806010600082825461205691906154cf565b90915550600090505b81811015611f1b576001600c600082825461207a91906154cf565b9250508190555061209133600c54600060036136a1565b8061209b8161557d565b91505061205f565b3360009081527fd097c2ba9c9f8e2dcc0db7b99113293b0940e94d6b5c6f2698d589381e9782e7602052604090205460ff1661210d5760405162461bcd60e51b815260206004820152600960248201526808a5a6060625a6062760bb1b60448201526064016104b2565b6117e77f6a64baf327d646d1bca72653e2a075d15fd6ac6d8cbd7f6ee03fc55875e0fa8882611527565b3360009081527f61452436a62565ab2cbed6a23d441329fc7a4b9f7fa5613961bdfeb3b7247f6d602052604081205460ff166121a15760405162461bcd60e51b8152602060048201526009602482015268452d3030312d30313760b81b60448201526064016104b2565b612b67600d54106121e05760405162461bcd60e51b8152602060048201526009602482015268452d3030312d30303360b81b60448201526064016104b2565b6001600d60008282546121f391906154cf565b909155506000905060056122068461385b565b61221091906154e7565b9050600061040061ffff831611612227578161222b565b6104005b905061223c85600d546001846136a1565b5050600d549392505050565b3360009081527fd097c2ba9c9f8e2dcc0db7b99113293b0940e94d6b5c6f2698d589381e9782e7602052604090205460ff166122b25760405162461bcd60e51b815260206004820152600960248201526808a5a6060625a6062760bb1b60448201526064016104b2565b61137960158383614f4e565b6060600180546111349061550d565b6122d5614fc2565b60008281526012602052604090205460ff1661231f5760405162461bcd60e51b815260206004820152600960248201526822969818189698189960b91b60448201526064016104b2565b600082815260136020526040812060010154600160381b900461ffff169061234684613877565b915050600080826000141561235d57506000905060105b8260011415612372575060109050602061237a565b506020905060605b6014546040517f31f7bb7400000000000000000000000000000000000000000000000000000000815261ffff80851660048301528084166024830152861660448201526001600160a01b03909116906331f7bb749060640161040060405180830381865afa1580156123f0573d6000803e3d6000fd5b505050506040513d601f19601f820116820180604052508101906124149190615598565b9695505050505050565b6001600160a01b0382163314156124775760405162461bcd60e51b815260206004820152601960248201527f4552433732313a20617070726f766520746f2063616c6c65720000000000000060448201526064016104b2565b3360008181526005602090815260408083206001600160a01b03871680855290835292819020805460ff191686151590811790915590519081529192917f17307eab39ab6107e8899845ad3d59bd9653f200f220920489ca2b5937696c31910160405180910390a35050565b6011546601000000000000900460ff1661252b5760405162461bcd60e51b8152602060048201526009602482015268452d3030312d30303960b81b60448201526064016104b2565b61253481611b2e565b6001600160a01b0316336001600160a01b0316146125805760405162461bcd60e51b81526020600482015260096024820152680452d3030312d3031360bc1b60448201526064016104b2565b60008181526012602052604090205460ff16156125df5760405162461bcd60e51b815260206004820152600960248201527f452d3030312d303131000000000000000000000000000000000000000000000060448201526064016104b2565b60006125e9613a23565b905060006125f683613f86565b6000848152601260209081526040808320805460ff19166001908117909155815161012081018352878152888552601384528285209091015460ff16151592810192909252929350909181018383602002015160ff1681526020018360016004811061266457612664615548565b602002015160ff1681526020018360026004811061268457612684615548565b602002015160ff168152602001836003600481106126a4576126a4615548565b6020908102919091015160ff168252600087815260138083526040808320600181015465010000000000810461ffff1687870152918601849052600160481b9091046001600160a01b03166060909501949094529088905281528251805193945084936127149284920190614eca565b5060208201516001909101805460408401516060850151608086015160a087015160c088015160e0890151610100998a01516001600160a01b0316600160481b027fffffff0000000000000000000000000000000000000000ffffffffffffffffff61ffff928316600160381b02167fffffff00000000000000000000000000000000000000000000ffffffffffffff92909316650100000000000266ffff00000000001960ff958616640100000000021666ffffff000000001996861663010000000263ff0000001998871662010000029890981663ffff00001999909616909c0261ff00199b15159b909b1661ffff1990991698909817999099179590951691909117929092171695909517919091171692909217179055600061283a858261351d565b600086815260136020526040808220600101805468ffff000000000000001916600160381b61ffff8616021790555191925086917f41bbd0e6e72fe1635257a4b4e357fc8af4fd144c837dc8d0a82cdf8d1c8cb6f09190a25050505050565b3360009081527f61452436a62565ab2cbed6a23d441329fc7a4b9f7fa5613961bdfeb3b7247f6d602052604090205460ff166129035760405162461bcd60e51b8152602060048201526009602482015268452d3030312d30313760b81b60448201526064016104b2565b6004600e600082825461291691906154cf565b9091555050565b6129273383612f7e565b6129995760405162461bcd60e51b815260206004820152603160248201527f4552433732313a207472616e736665722063616c6c6572206973206e6f74206f60448201527f776e6572206e6f7220617070726f76656400000000000000000000000000000060648201526084016104b2565b6129a5848484846141dc565b50505050565b6129b3614fe1565b50604080516080810182526000838152601360208181528483206001015460ff6101008204811686526201000082048116838701526401000000008204811696860196909652959092529052630100000090920416606082015290565b6000818152600260205260409020546060906001600160a01b0316612a9d5760405162461bcd60e51b815260206004820152602f60248201527f4552433732314d657461646174613a2055524920717565727920666f72206e6f60448201527f6e6578697374656e7420746f6b656e000000000000000000000000000000000060648201526084016104b2565b6000612aa761425a565b90506000815111612ac75760405180602001604052806000815250612af2565b80612ad184614269565b604051602001612ae2929190615620565b6040516020818303038152906040525b9392505050565b6000828152600a6020526040902060010154612b15813361325a565b611379838361337c565b3360009081527f61452436a62565ab2cbed6a23d441329fc7a4b9f7fa5613961bdfeb3b7247f6d602052604090205460ff16612b895760405162461bcd60e51b8152602060048201526009602482015268452d3030312d30313760b81b60448201526064016104b2565b6000612b9483611b2e565b6001600160a01b03161415612bd75760405162461bcd60e51b8152602060048201526009602482015268114b4c0c0c4b4c0c4d60ba1b60448201526064016104b2565b61167d82826133ff565b3360009081527f61452436a62565ab2cbed6a23d441329fc7a4b9f7fa5613961bdfeb3b7247f6d602052604090205460ff16612c4b5760405162461bcd60e51b8152602060048201526009602482015268452d3030312d30313760b81b60448201526064016104b2565b601154610100900460ff1615612ca35760405162461bcd60e51b815260206004820152600960248201527f452d3030312d303036000000000000000000000000000000000000000000000060448201526064016104b2565b6011805463ff00ff00191663010001001790556040517fce28fb74a9fed93421bef1c67a577ec8bdd8f93d99962f27a4b52207e9e80dd390600090a1610d05600e6000828254612cf391906154cf565b9091555050652d79883d2000600f55565b6060601580546111349061550d565b3360009081527f61452436a62565ab2cbed6a23d441329fc7a4b9f7fa5613961bdfeb3b7247f6d602052604090205460ff16612d7d5760405162461bcd60e51b8152602060048201526009602482015268452d3030312d30313760b81b60448201526064016104b2565b6011805464ff0000000019169055565b3360009081527f61452436a62565ab2cbed6a23d441329fc7a4b9f7fa5613961bdfeb3b7247f6d602052604090205460ff16612df75760405162461bcd60e51b8152602060048201526009602482015268452d3030312d30313760b81b60448201526064016104b2565b60115465010000000000900460ff1615612e535760405162461bcd60e51b815260206004820152600960248201527f452d3030312d303038000000000000000000000000000000000000000000000060448201526064016104b2565b6011805465ff0000000000191665010000000000179055612e746001614367565b6117e7612e816001611b2e565b8260016040518060400160405280600381526020017f30783000000000000000000000000000000000000000000000000000000000008152506141dc565b3b151590565b60006001600160e01b031982167f7965db0b000000000000000000000000000000000000000000000000000000001480610db85750610db88261457e565b6000818152600460205260409020805473ffffffffffffffffffffffffffffffffffffffff19166001600160a01b0384169081179091558190612f4582611b2e565b6001600160a01b03167f8c5be1e5ebec7d5bd14f71427d1e84f3dd0314c0f7b2291e5b200ac8c7c3b92560405160405180910390a45050565b6000818152600260205260408120546001600160a01b0316612ff75760405162461bcd60e51b815260206004820152602c60248201527f4552433732313a206f70657261746f7220717565727920666f72206e6f6e657860448201526b34b9ba32b73a103a37b5b2b760a11b60648201526084016104b2565b600061300283611b2e565b9050806001600160a01b0316846001600160a01b0316148061303d5750836001600160a01b0316613032846111b7565b6001600160a01b0316145b8061306d57506001600160a01b0380821660009081526005602090815260408083209388168352929052205460ff165b949350505050565b826001600160a01b031661308882611b2e565b6001600160a01b0316146131045760405162461bcd60e51b815260206004820152602960248201527f4552433732313a207472616e73666572206f6620746f6b656e2074686174206960448201527f73206e6f74206f776e000000000000000000000000000000000000000000000060648201526084016104b2565b6001600160a01b03821661317f5760405162461bcd60e51b8152602060048201526024808201527f4552433732313a207472616e7366657220746f20746865207a65726f2061646460448201527f726573730000000000000000000000000000000000000000000000000000000060648201526084016104b2565b61318a8383836145bc565b613195600082612f03565b6001600160a01b03831660009081526003602052604081208054600192906131be908490615646565b90915550506001600160a01b03821660009081526003602052604081208054600192906131ec9084906154cf565b9091555050600081815260026020526040808220805473ffffffffffffffffffffffffffffffffffffffff19166001600160a01b0386811691821790925591518493918716917fddf252ad1be2c89b69c2b068fc378daa952ba7f163c4a11628f55a4df523b3ef91a4505050565b6000828152600a602090815260408083206001600160a01b038516845290915290205460ff1661167d57613298816001600160a01b03166014614674565b6132a3836020614674565b6040516020016132b492919061565d565b60408051601f198184030181529082905262461bcd60e51b82526104b2916004016150da565b6000828152600a602090815260408083206001600160a01b038516845290915290205460ff1661167d576000828152600a602090815260408083206001600160a01b03851684529091529020805460ff191660011790556133383390565b6001600160a01b0316816001600160a01b0316837f2f8788117e7eff1d82e926ec794901d17c78024a50270940304540a733656f0d60405160405180910390a45050565b6000828152600a602090815260408083206001600160a01b038516845290915290205460ff161561167d576000828152600a602090815260408083206001600160a01b0385168085529252808320805460ff1916905551339285917ff6391f5c32d9c69d2a47ea670b442974b53935d1edc7fd64eb21e047a839171b9190a45050565b60008281526013602052604090206001015461ffff65010000000000909104811690821611156134715760405162461bcd60e51b815260206004820152600960248201527f452d3030312d303231000000000000000000000000000000000000000000000060448201526064016104b2565b600082815260136020526040902060010180548291906005906134a290849065010000000000900461ffff166156de565b82546101009290920a61ffff818102199093169183160217909155600084815260136020908152604091829020600101548251868516815265010000000000909104909316908301528492507fa7ed3965d6fe6e37914f97b6e0e30e56ea184d78907b49c112c18867c8f31757910160405180910390a25050565b60008061352984613877565b5090506000808260011415613544575060079050600c61354c565b506004905060085b600061355b6201000088614839565b6014546000898152601360205260408082206001015490517f3966f40000000000000000000000000000000000000000000000000000000000815261ffff80891660048301528088166024830152600160381b909204821660448201529084166064820152929350916001600160a01b0390911690633966f40090608401602060405180830381865afa1580156135f6573d6000803e3d6000fd5b505050506040513d601f19601f8201168201806040525081019061361a9190615701565b9050600061362d60648461ffff16614839565b9050856002141561366a5760058161ffff1610801561364a575087155b1561365d5750199450610db89350505050565b509450610db89350505050565b8561365d5760058161ffff16108015613681575087155b1561369357509450610db89350505050565b50199450610db89350505050565b6040805161014081018252600061012082018181528252841515602080840191909152828401829052606083018290526080830182905260a0830182905261ffff851660c084015260e0830182905261010083018290528682526013815292902081518051929384936137179284920190614eca565b5060208281015160019290920180546040808601516060870151608088015160a089015160c08a015160e08b01516101009b8c015161ffff199098169a151561ff0019169a909a1760ff958616909b029a909a1763ffff00001916620100009385169390930263ff0000001916929092176301000000918416919091021766ffffff000000001916640100000000929091169190910266ffff00000000001916176501000000000061ffff97881602177fffffff00000000000000000000000000000000000000000000ffffffffffffff16600160381b96909516959095027fffffff0000000000000000000000000000000000000000ffffffffffffffffff1693909317600160481b6001600160a01b0390941693909302929092179091556000868152601290915220805460ff1916905561385485856148ae565b5050505050565b60008061386a610e1084615734565b9050612af2816001615757565b60008181526013602052604081208054829182916138949061550d565b80601f01602080910402602001604051908101604052809291908181526020018280546138c09061550d565b801561390d5780601f106138e25761010080835404028352916020019161390d565b820191906000526020600020905b8154815290600101906020018083116138f057829003601f168201915b50505050509050606060005b601754811015613a15576017818154811061393657613936615548565b90600052602060002001805461394b9061550d565b80601f01602080910402602001604051908101604052809291908181526020018280546139779061550d565b80156139c45780601f10613999576101008083540402835291602001916139c4565b820191906000526020600020905b8154815290600101906020018083116139a757829003601f168201915b50505050509150818051906020012083805190602001201415613a03576139ec600382615783565b6139f7600383615797565b94509450505050915091565b80613a0d8161557d565b915050613919565b506000958695509350505050565b601154606090640100000000900460ff1615613cc85760408051600380825260808201909252600091816020015b6060815260200190600190039081613a515790505090506017600081548110613a7c57613a7c615548565b906000526020600020018054613a919061550d565b80601f0160208091040260200160405190810160405280929190818152602001828054613abd9061550d565b8015613b0a5780601f10613adf57610100808354040283529160200191613b0a565b820191906000526020600020905b815481529060010190602001808311613aed57829003601f168201915b505050505081600081518110613b2257613b22615548565b60200260200101819052506017600181548110613b4157613b41615548565b906000526020600020018054613b569061550d565b80601f0160208091040260200160405190810160405280929190818152602001828054613b829061550d565b8015613bcf5780601f10613ba457610100808354040283529160200191613bcf565b820191906000526020600020905b815481529060010190602001808311613bb257829003601f168201915b505050505081600181518110613be757613be7615548565b60200260200101819052506017600281548110613c0657613c06615548565b906000526020600020018054613c1b9061550d565b80601f0160208091040260200160405190810160405280929190818152602001828054613c479061550d565b8015613c945780601f10613c6957610100808354040283529160200191613c94565b820191906000526020600020905b815481529060010190602001808311613c7757829003601f168201915b505050505081600281518110613cac57613cac615548565b6020026020010181905250613cc26003826148c8565b91505090565b6011546301000000900460ff1615613ea75760408051600380825260808201909252600091816020015b6060815260200190600190039081613cf25790505090506017600681548110613d1d57613d1d615548565b906000526020600020018054613d329061550d565b80601f0160208091040260200160405190810160405280929190818152602001828054613d5e9061550d565b8015613dab5780601f10613d8057610100808354040283529160200191613dab565b820191906000526020600020905b815481529060010190602001808311613d8e57829003601f168201915b505050505081600081518110613dc357613dc3615548565b60200260200101819052506017600781548110613de257613de2615548565b906000526020600020018054613df79061550d565b80601f0160208091040260200160405190810160405280929190818152602001828054613e239061550d565b8015613e705780601f10613e4557610100808354040283529160200191613e70565b820191906000526020600020905b815481529060010190602001808311613e5357829003601f168201915b505050505081600181518110613e8857613e88615548565b60200260200101819052506017600881548110613c0657613c06615548565b6017805460408051602080840282018101909252828152613f81939091839060009084015b82821015613f78578382906000526020600020018054613eeb9061550d565b80601f0160208091040260200160405190810160405280929190818152602001828054613f179061550d565b8015613f645780601f10613f3957610100808354040283529160200191613f64565b820191906000526020600020905b815481529060010190602001808311613f4757829003601f168201915b505050505081526020019060010190613ecc565b505050506148c8565b905090565b613f8e614fe1565b600082815260136020526040902060010154600a9060179060329060ff1615613fba57600f9250601991505b6000613fc68484615646565b613fd19060016154cf565b90506000613fe982613fe48960016154cf565b614839565b613ff390866154cf565b9050600061400683613fe48a60026154cf565b61401090876154cf565b9050600061402384613fe48b60036154cf565b61402d90886154cf565b9050600061404085613fe48c60046154cf565b61404a90896154cf565b90506000818361405a86886157ab565b61406491906157ab565b61406e91906157ab565b6040805160808101825260ff8089168252878116602083015286811692820192909252848216606082015291925088811690831610156140f35760006140b4838a6157d0565b905060006140c18361490e565b905081838260ff16600481106140d9576140d9615548565b602002018181516140ea91906157ab565b60ff1690525050505b60005b60048110156141cc57600061410c826004615646565b60408051426020820152016040516020818303038152906040528051906020012060001c61413a9190615797565b61414490836154cf565b9050600083826004811061415a5761415a615548565b6020020151905083836004811061417357614173615548565b602002015184836004811061418a5761418a615548565b60ff9092166020929092020152808484600481106141aa576141aa615548565b60ff9092166020929092020152508190506141c48161557d565b9150506140f6565b509b9a5050505050505050505050565b6141e7848484613075565b6141f38484848461497d565b6129a55760405162461bcd60e51b815260206004820152603260248201527f4552433732313a207472616e7366657220746f206e6f6e20455243373231526560448201527131b2b4bb32b91034b6b83632b6b2b73a32b960711b60648201526084016104b2565b6060601680546111349061550d565b60608161428d5750506040805180820190915260018152600360fc1b602082015290565b8160005b81156142b757806142a18161557d565b91506142b09050600a83615783565b9150614291565b60008167ffffffffffffffff8111156142d2576142d26151b6565b6040519080825280601f01601f1916602001820160405280156142fc576020820181803683370190505b5090505b841561306d57614311600183615646565b915061431e600a86615797565b6143299060306154cf565b60f81b81838151811061433e5761433e615548565b60200101906001600160f81b031916908160001a905350614360600a86615783565b9450614300565b6000818152601260209081526040808320805460ff19166001908117909155815161016081018352600c61012082019081527f54727565204e65757472616c000000000000000000000000000000000000000061014083015281528084018290526019818401819052606082018190526080820181905260a082015261040060c082015260e081018590528585526013808552928520918201546001600160a01b03600160481b9091041661010082015293859052908252825180518493614433928492910190614eca565b50602082015160019190910180546040808501516060860151608087015160a088015160c089015160e08a01516101009a8b015161ffff1990981699151561ff0019169990991760ff958616909a029990991763ffff00001916620100009385169390930263ff0000001916929092176301000000918416919091021766ffffff000000001916640100000000929091169190910266ffff00000000001916176501000000000061ffff96871602177fffffff00000000000000000000000000000000000000000000ffffffffffffff16600160381b95909416949094027fffffff0000000000000000000000000000000000000000ffffffffffffffffff1692909217600160481b6001600160a01b03909316929092029190911790555182907f41bbd0e6e72fe1635257a4b4e357fc8af4fd144c837dc8d0a82cdf8d1c8cb6f090600090a25050565b60006001600160e01b031982167f780e9d63000000000000000000000000000000000000000000000000000000001480610db85750610db882614ac6565b6001600160a01b0383166146175761461281600880546000838152600960205260408120829055600182018355919091527ff3f7a9fe364faab93b216da50a3214154f22a0a2b415b23a84c8169e8b636ee30155565b61463a565b816001600160a01b0316836001600160a01b03161461463a5761463a8382614b61565b6001600160a01b0382166146515761137981614bfe565b826001600160a01b0316826001600160a01b031614611379576113798282614cad565b6060600061468383600261555e565b61468e9060026154cf565b67ffffffffffffffff8111156146a6576146a66151b6565b6040519080825280601f01601f1916602001820160405280156146d0576020820181803683370190505b509050600360fc1b816000815181106146eb576146eb615548565b60200101906001600160f81b031916908160001a9053507f78000000000000000000000000000000000000000000000000000000000000008160018151811061473657614736615548565b60200101906001600160f81b031916908160001a905350600061475a84600261555e565b6147659060016154cf565b90505b60018111156147ea577f303132333435363738396162636465660000000000000000000000000000000085600f16601081106147a6576147a6615548565b1a60f81b8282815181106147bc576147bc615548565b60200101906001600160f81b031916908160001a90535060049490941c936147e3816157f3565b9050614768565b508315612af25760405162461bcd60e51b815260206004820181905260248201527f537472696e67733a20686578206c656e67746820696e73756666696369656e7460448201526064016104b2565b600080614847600143615646565b405a6040805160208101939093528201524260608083019190915233901b6bffffffffffffffffffffffff191660808201526094810185905260b4810184905260d40160408051601f198184030181529190528051602090910120905061306d8482615797565b61167d828260405180602001604052806000815250614cf1565b606060006148d7846000614839565b90506000838451836148e99190615797565b815181106148f9576148f9615548565b60200260200101519050809250505092915050565b60008060005b60048160ff16101561497657838260ff166004811061493557614935615548565b602002015160ff16848260ff166004811061495257614952615548565b602002015160ff161015614964578091505b8061496e8161580a565b915050614914565b5092915050565b60006001600160a01b0384163b15614abb57604051630a85bd0160e11b81526001600160a01b0385169063150b7a02906149c190339089908890889060040161582a565b6020604051808303816000875af19250505080156149fc575060408051601f3d908101601f191682019092526149f99181019061585c565b60015b614aa1573d808015614a2a576040519150601f19603f3d011682016040523d82523d6000602084013e614a2f565b606091505b508051614a995760405162461bcd60e51b815260206004820152603260248201527f4552433732313a207472616e7366657220746f206e6f6e20455243373231526560448201527131b2b4bb32b91034b6b83632b6b2b73a32b960711b60648201526084016104b2565b805181602001fd5b6001600160e01b031916630a85bd0160e11b14905061306d565b506001949350505050565b60006001600160e01b031982167f80ac58cd000000000000000000000000000000000000000000000000000000001480614b2957506001600160e01b031982167f5b5e139f00000000000000000000000000000000000000000000000000000000145b80610db857507f01ffc9a7000000000000000000000000000000000000000000000000000000006001600160e01b0319831614610db8565b60006001614b6e84611cde565b614b789190615646565b600083815260076020526040902054909150808214614bcb576001600160a01b03841660009081526006602090815260408083208584528252808320548484528184208190558352600790915290208190555b5060009182526007602090815260408084208490556001600160a01b039094168352600681528383209183525290812055565b600854600090614c1090600190615646565b60008381526009602052604081205460088054939450909284908110614c3857614c38615548565b906000526020600020015490508060088381548110614c5957614c59615548565b6000918252602080832090910192909255828152600990915260408082208490558582528120556008805480614c9157614c91615879565b6001900381819060005260206000200160009055905550505050565b6000614cb883611cde565b6001600160a01b039093166000908152600660209081526040808320868452825280832085905593825260079052919091209190915550565b614cfb8383614d6f565b614d08600084848461497d565b6113795760405162461bcd60e51b815260206004820152603260248201527f4552433732313a207472616e7366657220746f206e6f6e20455243373231526560448201527131b2b4bb32b91034b6b83632b6b2b73a32b960711b60648201526084016104b2565b6001600160a01b038216614dc55760405162461bcd60e51b815260206004820181905260248201527f4552433732313a206d696e7420746f20746865207a65726f206164647265737360448201526064016104b2565b6000818152600260205260409020546001600160a01b031615614e2a5760405162461bcd60e51b815260206004820152601c60248201527f4552433732313a20746f6b656e20616c7265616479206d696e7465640000000060448201526064016104b2565b614e36600083836145bc565b6001600160a01b0382166000908152600360205260408120805460019290614e5f9084906154cf565b9091555050600081815260026020526040808220805473ffffffffffffffffffffffffffffffffffffffff19166001600160a01b03861690811790915590518392907fddf252ad1be2c89b69c2b068fc378daa952ba7f163c4a11628f55a4df523b3ef908290a45050565b828054614ed69061550d565b90600052602060002090601f016020900481019282614ef85760008555614f3e565b82601f10614f1157805160ff1916838001178555614f3e565b82800160010185558215614f3e579182015b82811115614f3e578251825591602001919060010190614f23565b50614f4a929150614fff565b5090565b828054614f5a9061550d565b90600052602060002090601f016020900481019282614f7c5760008555614f3e565b82601f10614f955782800160ff19823516178555614f3e565b82800160010185558215614f3e579182015b82811115614f3e578235825591602001919060010190614fa7565b6040518061040001604052806020906020820280368337509192915050565b60405180608001604052806004906020820280368337509192915050565b5b80821115614f4a5760008155600101615000565b6001600160e01b0319811681146117e757600080fd5b60006020828403121561503c57600080fd5b8135612af281615014565b6000806040838503121561505a57600080fd5b50508035926020909101359150565b60006020828403121561507b57600080fd5b5035919050565b60005b8381101561509d578181015183820152602001615085565b838111156129a55750506000910152565b600081518084526150c6816020860160208601615082565b601f01601f19169290920160200192915050565b602081526000612af260208301846150ae565b80356001600160a01b038116811461510457600080fd5b919050565b6000806040838503121561511c57600080fd5b615125836150ed565b946020939093013593505050565b60008060006060848603121561514857600080fd5b615151846150ed565b925061515f602085016150ed565b9150604084013590509250925092565b6000806040838503121561518257600080fd5b82359150615192602084016150ed565b90509250929050565b6000602082840312156151ad57600080fd5b612af2826150ed565b634e487b7160e01b600052604160045260246000fd5b600067ffffffffffffffff808411156151e7576151e76151b6565b604051601f8501601f19908116603f0116810190828211818310171561520f5761520f6151b6565b8160405280935085815286868601111561522857600080fd5b858560208301376000602087830101525050509392505050565b60006020828403121561525457600080fd5b813567ffffffffffffffff81111561526b57600080fd5b8201601f8101841361527c57600080fd5b61306d848235602084016151cc565b63ffffffff811681146117e757600080fd5b600080604083850312156152b057600080fd5b6152b9836150ed565b915060208301356152c98161528b565b809150509250929050565b600080602083850312156152e757600080fd5b823567ffffffffffffffff808211156152ff57600080fd5b818501915085601f83011261531357600080fd5b81358181111561532257600080fd5b86602082850101111561533457600080fd5b60209290920196919550909350505050565b6104008101818360005b602080821061535f5750615379565b825163ffffffff1684529283019290910190600101615350565b50505092915050565b6000806040838503121561539557600080fd5b61539e836150ed565b9150602083013580151581146152c957600080fd5b600080600080608085870312156153c957600080fd5b6153d2856150ed565b93506153e0602086016150ed565b925060408501359150606085013567ffffffffffffffff81111561540357600080fd5b8501601f8101871361541457600080fd5b615423878235602084016151cc565b91505092959194509250565b60808101818360005b600481101561537957815160ff16835260209283019290910190600101615438565b61ffff811681146117e757600080fd5b6000806040838503121561547d57600080fd5b8235915060208301356152c98161545a565b600080604083850312156154a257600080fd5b6154ab836150ed565b9150615192602084016150ed565b634e487b7160e01b600052601160045260246000fd5b600082198211156154e2576154e26154b9565b500190565b600061ffff808316818516808303821115615504576155046154b9565b01949350505050565b600181811c9082168061552157607f821691505b6020821081141561554257634e487b7160e01b600052602260045260246000fd5b50919050565b634e487b7160e01b600052603260045260246000fd5b6000816000190483118215151615615578576155786154b9565b500290565b6000600019821415615591576155916154b9565b5060010190565b60006104008083850312156155ac57600080fd5b83601f8401126155bb57600080fd5b60405181810181811067ffffffffffffffff821117156155dd576155dd6151b6565b6040529083019080858311156155f257600080fd5b845b838110156156155780516156078161528b565b8252602091820191016155f4565b509095945050505050565b60008351615632818460208801615082565b835190830190615504818360208801615082565b600082821015615658576156586154b9565b500390565b7f416363657373436f6e74726f6c3a206163636f756e7420000000000000000000815260008351615695816017850160208801615082565b7f206973206d697373696e6720726f6c652000000000000000000000000000000060179184019182015283516156d2816028840160208801615082565b01602801949350505050565b600061ffff838116908316818110156156f9576156f96154b9565b039392505050565b60006020828403121561571357600080fd5b8151612af28161545a565b634e487b7160e01b600052601260045260246000fd5b600063ffffffff8084168061574b5761574b61571e565b92169190910492915050565b600063ffffffff8083168185168183048111821515161561577a5761577a6154b9565b02949350505050565b6000826157925761579261571e565b500490565b6000826157a6576157a661571e565b500690565b600060ff821660ff84168060ff038211156157c8576157c86154b9565b019392505050565b600060ff821660ff8416808210156157ea576157ea6154b9565b90039392505050565b600081615802576158026154b9565b506000190190565b600060ff821660ff811415615821576158216154b9565b60010192915050565b60006001600160a01b0380871683528086166020840152508360408301526080606083015261241460808301846150ae565b60006020828403121561586e57600080fd5b8151612af281615014565b634e487b7160e01b600052603160045260246000fdfea2646970667358221220d54cd14f81a81c467a2364dcbde6de940ad71ef572e5827fed10cd6f24ebc3c364736f6c634300080a00334552433732313a207472616e7366657220746f206e6f6e20455243373231526568747470733a2f2f6170692e636f696e6c616e6465722e6465762f6d6574612f7365656b6572732fa3586e1228a6d020f44df84a4695dcd1cfcb55a51cd832563c729d866522ff68747470733a2f2f6170692e636f696e6c616e6465722e6465762f6d6574612f7365656b6572732f",
  "linkReferences": {},
  "deployedLinkReferences": {}
}