{
  "_format": "hh-sol-artifact-1",
  "contractName": "Seekers",
  "sourceName": "contracts/Seekers.sol",
  "abi": [
    {
      "inputs": [],
      "stateMutability": "nonpayable",
      "type": "constructor"
    },
    {
      "anonymous": false,
      "inputs": [
        {
          "indexed": true,
          "internalType": "address",
          "name": "owner",
          "type": "address"
        },
        {
          "indexed": true,
          "internalType": "address",
          "name": "approved",
          "type": "address"
        },
        {
          "indexed": true,
          "internalType": "uint256",
          "name": "tokenId",
          "type": "uint256"
        }
      ],
      "name": "Approval",
      "type": "event"
    },
    {
      "anonymous": false,
      "inputs": [
        {
          "indexed": true,
          "internalType": "address",
          "name": "owner",
          "type": "address"
        },
        {
          "indexed": true,
          "internalType": "address",
          "name": "operator",
          "type": "address"
        },
        {
          "indexed": false,
          "internalType": "bool",
          "name": "approved",
          "type": "bool"
        }
      ],
      "name": "ApprovalForAll",
      "type": "event"
    },
    {
      "anonymous": false,
      "inputs": [
        {
          "indexed": false,
          "internalType": "uint256",
          "name": "id",
          "type": "uint256"
        }
      ],
      "name": "DethscalesRerolled",
      "type": "event"
    },
    {
      "anonymous": false,
      "inputs": [],
      "name": "FirstMintActivated",
      "type": "event"
    },
    {
      "anonymous": false,
      "inputs": [
        {
          "indexed": true,
          "internalType": "uint256",
          "name": "seekerId",
          "type": "uint256"
        },
        {
          "indexed": false,
          "internalType": "uint256",
          "name": "powerAdded",
          "type": "uint256"
        },
        {
          "indexed": false,
          "internalType": "uint256",
          "name": "newPower",
          "type": "uint256"
        }
      ],
      "name": "PowerAdded",
      "type": "event"
    },
    {
      "anonymous": false,
      "inputs": [
        {
          "indexed": true,
          "internalType": "bytes32",
          "name": "role",
          "type": "bytes32"
        },
        {
          "indexed": true,
          "internalType": "bytes32",
          "name": "previousAdminRole",
          "type": "bytes32"
        },
        {
          "indexed": true,
          "internalType": "bytes32",
          "name": "newAdminRole",
          "type": "bytes32"
        }
      ],
      "name": "RoleAdminChanged",
      "type": "event"
    },
    {
      "anonymous": false,
      "inputs": [
        {
          "indexed": true,
          "internalType": "bytes32",
          "name": "role",
          "type": "bytes32"
        },
        {
          "indexed": true,
          "internalType": "address",
          "name": "account",
          "type": "address"
        },
        {
          "indexed": true,
          "internalType": "address",
          "name": "sender",
          "type": "address"
        }
      ],
      "name": "RoleGranted",
      "type": "event"
    },
    {
      "anonymous": false,
      "inputs": [
        {
          "indexed": true,
          "internalType": "bytes32",
          "name": "role",
          "type": "bytes32"
        },
        {
          "indexed": true,
          "internalType": "address",
          "name": "account",
          "type": "address"
        },
        {
          "indexed": true,
          "internalType": "address",
          "name": "sender",
          "type": "address"
        }
      ],
      "name": "RoleRevoked",
      "type": "event"
    },
    {
      "anonymous": false,
      "inputs": [],
      "name": "SecondMintActivated",
      "type": "event"
    },
    {
      "anonymous": false,
      "inputs": [
        {
          "indexed": true,
          "internalType": "uint256",
          "name": "seekerId",
          "type": "uint256"
        },
        {
          "indexed": true,
          "internalType": "address",
          "name": "clan",
          "type": "address"
        }
      ],
      "name": "SeekerDeclaredToClan",
      "type": "event"
    },
    {
      "anonymous": false,
      "inputs": [
        {
          "indexed": true,
          "internalType": "uint256",
          "name": "seekerId",
          "type": "uint256"
        }
      ],
      "name": "SeekerUncloaked",
      "type": "event"
    },
    {
      "anonymous": false,
      "inputs": [],
      "name": "ThirdMintActivated",
      "type": "event"
    },
    {
      "anonymous": false,
      "inputs": [
        {
          "indexed": true,
          "internalType": "address",
          "name": "from",
          "type": "address"
        },
        {
          "indexed": true,
          "internalType": "address",
          "name": "to",
          "type": "address"
        },
        {
          "indexed": true,
          "internalType": "uint256",
          "name": "tokenId",
          "type": "uint256"
        }
      ],
      "name": "Transfer",
      "type": "event"
    },
    {
      "anonymous": false,
      "inputs": [],
      "name": "UncloakingAvailable",
      "type": "event"
    },
    {
      "inputs": [],
      "name": "BIRTHSEEKERPOWERSTART",
      "outputs": [
        {
          "internalType": "uint8",
          "name": "",
          "type": "uint8"
        }
      ],
      "stateMutability": "view",
      "type": "function"
    },
    {
      "inputs": [],
      "name": "DEFAULT_ADMIN_ROLE",
      "outputs": [
        {
          "internalType": "bytes32",
          "name": "",
          "type": "bytes32"
        }
      ],
      "stateMutability": "view",
      "type": "function"
    },
    {
      "inputs": [],
      "name": "DETHSCALEREROLLCOST",
      "outputs": [
        {
          "internalType": "uint8",
          "name": "",
          "type": "uint8"
        }
      ],
      "stateMutability": "view",
      "type": "function"
    },
    {
      "inputs": [],
      "name": "FIRSTMINT",
      "outputs": [
        {
          "internalType": "uint256",
          "name": "",
          "type": "uint256"
        }
      ],
      "stateMutability": "view",
      "type": "function"
    },
    {
      "inputs": [],
      "name": "FIRSTMINTPRICE",
      "outputs": [
        {
          "internalType": "uint256",
          "name": "",
          "type": "uint256"
        }
      ],
      "stateMutability": "view",
      "type": "function"
    },
    {
      "inputs": [],
      "name": "GAME_ROLE",
      "outputs": [
        {
          "internalType": "bytes32",
          "name": "",
          "type": "bytes32"
        }
      ],
      "stateMutability": "view",
      "type": "function"
    },
    {
      "inputs": [],
      "name": "KEEPERS_ROLE",
      "outputs": [
        {
          "internalType": "bytes32",
          "name": "",
          "type": "bytes32"
        }
      ],
      "stateMutability": "view",
      "type": "function"
    },
    {
      "inputs": [],
      "name": "MAXMINTABLE",
      "outputs": [
        {
          "internalType": "uint256",
          "name": "",
          "type": "uint256"
        }
      ],
      "stateMutability": "view",
      "type": "function"
    },
    {
      "inputs": [],
      "name": "MAXPOWER",
      "outputs": [
        {
          "internalType": "uint16",
          "name": "",
          "type": "uint16"
        }
      ],
      "stateMutability": "view",
      "type": "function"
    },
    {
      "inputs": [],
      "name": "MAXSEEKERS",
      "outputs": [
        {
          "internalType": "uint256",
          "name": "",
          "type": "uint256"
        }
      ],
      "stateMutability": "view",
      "type": "function"
    },
    {
      "inputs": [],
      "name": "SECONDMINT",
      "outputs": [
        {
          "internalType": "uint256",
          "name": "",
          "type": "uint256"
        }
      ],
      "stateMutability": "view",
      "type": "function"
    },
    {
      "inputs": [],
      "name": "SECONDMINTPRICE",
      "outputs": [
        {
          "internalType": "uint256",
          "name": "",
          "type": "uint256"
        }
      ],
      "stateMutability": "view",
      "type": "function"
    },
    {
      "inputs": [],
      "name": "SUMMONSEEKERPOWERSTART",
      "outputs": [
        {
          "internalType": "uint8",
          "name": "",
          "type": "uint8"
        }
      ],
      "stateMutability": "view",
      "type": "function"
    },
    {
      "inputs": [],
      "name": "THIRDMINT",
      "outputs": [
        {
          "internalType": "uint256",
          "name": "",
          "type": "uint256"
        }
      ],
      "stateMutability": "view",
      "type": "function"
    },
    {
      "inputs": [],
      "name": "THIRDMINTPRICE",
      "outputs": [
        {
          "internalType": "uint256",
          "name": "",
          "type": "uint256"
        }
      ],
      "stateMutability": "view",
      "type": "function"
    },
    {
      "inputs": [],
      "name": "THIRDMINT_INCR",
      "outputs": [
        {
          "internalType": "uint256",
          "name": "",
          "type": "uint256"
        }
      ],
      "stateMutability": "view",
      "type": "function"
    },
    {
      "inputs": [],
      "name": "THIRDMINT_TOTAL",
      "outputs": [
        {
          "internalType": "uint256",
          "name": "",
          "type": "uint256"
        }
      ],
      "stateMutability": "view",
      "type": "function"
    },
    {
      "inputs": [
        {
          "internalType": "uint16",
          "name": "mod",
          "type": "uint16"
        },
        {
          "internalType": "uint16",
          "name": "r1",
          "type": "uint16"
        },
        {
          "internalType": "uint16",
          "name": "r2",
          "type": "uint16"
        }
      ],
      "name": "_getRandomNumber16",
      "outputs": [
        {
          "internalType": "uint16",
          "name": "",
          "type": "uint16"
        }
      ],
      "stateMutability": "pure",
      "type": "function"
    },
    {
      "inputs": [],
      "name": "activateFirstMint",
      "outputs": [],
      "stateMutability": "nonpayable",
      "type": "function"
    },
    {
      "inputs": [],
      "name": "activateSecondMint",
      "outputs": [],
      "stateMutability": "nonpayable",
      "type": "function"
    },
    {
      "inputs": [],
      "name": "activateThirdMint",
      "outputs": [],
      "stateMutability": "nonpayable",
      "type": "function"
    },
    {
      "inputs": [
        {
          "internalType": "address",
          "name": "gameContract",
          "type": "address"
        }
      ],
      "name": "addGameContract",
      "outputs": [],
      "stateMutability": "nonpayable",
      "type": "function"
    },
    {
      "inputs": [
        {
          "internalType": "address",
          "name": "newKeeper",
          "type": "address"
        }
      ],
      "name": "addKeeper",
      "outputs": [],
      "stateMutability": "nonpayable",
      "type": "function"
    },
    {
      "inputs": [
        {
          "internalType": "uint256",
          "name": "id",
          "type": "uint256"
        },
        {
          "internalType": "uint256",
          "name": "power",
          "type": "uint256"
        }
      ],
      "name": "addPower",
      "outputs": [],
      "stateMutability": "nonpayable",
      "type": "function"
    },
    {
      "inputs": [
        {
          "internalType": "address",
          "name": "to",
          "type": "address"
        },
        {
          "internalType": "uint256",
          "name": "tokenId",
          "type": "uint256"
        }
      ],
      "name": "approve",
      "outputs": [],
      "stateMutability": "nonpayable",
      "type": "function"
    },
    {
      "inputs": [
        {
          "internalType": "address",
          "name": "owner",
          "type": "address"
        }
      ],
      "name": "balanceOf",
      "outputs": [
        {
          "internalType": "uint256",
          "name": "",
          "type": "uint256"
        }
      ],
      "stateMutability": "view",
      "type": "function"
    },
    {
      "inputs": [
        {
          "internalType": "address",
          "name": "to",
          "type": "address"
        }
      ],
      "name": "birthSeeker",
      "outputs": [
        {
          "internalType": "uint256",
          "name": "",
          "type": "uint256"
        }
      ],
      "stateMutability": "nonpayable",
      "type": "function"
    },
    {
      "inputs": [],
      "name": "currentBuyableSeekers",
      "outputs": [
        {
          "internalType": "uint256",
          "name": "",
          "type": "uint256"
        }
      ],
      "stateMutability": "view",
      "type": "function"
    },
    {
      "inputs": [],
      "name": "currentPrice",
      "outputs": [
        {
          "internalType": "uint256",
          "name": "",
          "type": "uint256"
        }
      ],
      "stateMutability": "view",
      "type": "function"
    },
    {
      "inputs": [
        {
          "internalType": "uint256",
          "name": "id",
          "type": "uint256"
        },
        {
          "internalType": "address",
          "name": "clanAddress",
          "type": "address"
        }
      ],
      "name": "declareForClan",
      "outputs": [],
      "stateMutability": "nonpayable",
      "type": "function"
    },
    {
      "inputs": [],
      "name": "endGoodsOnly",
      "outputs": [],
      "stateMutability": "nonpayable",
      "type": "function"
    },
    {
      "inputs": [],
      "name": "evilsOnly",
      "outputs": [
        {
          "internalType": "bool",
          "name": "",
          "type": "bool"
        }
      ],
      "stateMutability": "view",
      "type": "function"
    },
    {
      "inputs": [],
      "name": "firstMintActive",
      "outputs": [
        {
          "internalType": "bool",
          "name": "",
          "type": "bool"
        }
      ],
      "stateMutability": "view",
      "type": "function"
    },
    {
      "inputs": [
        {
          "internalType": "uint256",
          "name": "id",
          "type": "uint256"
        }
      ],
      "name": "getAlignmentById",
      "outputs": [
        {
          "internalType": "string",
          "name": "",
          "type": "string"
        }
      ],
      "stateMutability": "view",
      "type": "function"
    },
    {
      "inputs": [
        {
          "internalType": "uint256",
          "name": "id",
          "type": "uint256"
        }
      ],
      "name": "getApById",
      "outputs": [
        {
          "internalType": "uint8[4]",
          "name": "",
          "type": "uint8[4]"
        }
      ],
      "stateMutability": "view",
      "type": "function"
    },
    {
      "inputs": [
        {
          "internalType": "uint256",
          "name": "tokenId",
          "type": "uint256"
        }
      ],
      "name": "getApproved",
      "outputs": [
        {
          "internalType": "address",
          "name": "",
          "type": "address"
        }
      ],
      "stateMutability": "view",
      "type": "function"
    },
    {
      "inputs": [
        {
          "internalType": "uint256",
          "name": "id",
          "type": "uint256"
        }
      ],
      "name": "getBirthStatusById",
      "outputs": [
        {
          "internalType": "bool",
          "name": "",
          "type": "bool"
        }
      ],
      "stateMutability": "view",
      "type": "function"
    },
    {
      "inputs": [
        {
          "internalType": "uint256",
          "name": "id",
          "type": "uint256"
        }
      ],
      "name": "getClanById",
      "outputs": [
        {
          "internalType": "address",
          "name": "",
          "type": "address"
        }
      ],
      "stateMutability": "view",
      "type": "function"
    },
    {
      "inputs": [
        {
          "internalType": "uint256",
          "name": "id",
          "type": "uint256"
        }
      ],
      "name": "getCloakStatusById",
      "outputs": [
        {
          "internalType": "bool",
          "name": "",
          "type": "bool"
        }
      ],
      "stateMutability": "view",
      "type": "function"
    },
    {
      "inputs": [
        {
          "internalType": "uint256",
          "name": "id",
          "type": "uint256"
        }
      ],
      "name": "getDethscalesById",
      "outputs": [
        {
          "internalType": "uint16",
          "name": "",
          "type": "uint16"
        }
      ],
      "stateMutability": "view",
      "type": "function"
    },
    {
      "inputs": [
        {
          "internalType": "uint256",
          "name": "id",
          "type": "uint256"
        }
      ],
      "name": "getFullCloak",
      "outputs": [
        {
          "internalType": "uint32[32]",
          "name": "",
          "type": "uint32[32]"
        }
      ],
      "stateMutability": "view",
      "type": "function"
    },
    {
      "inputs": [
        {
          "internalType": "uint256",
          "name": "id",
          "type": "uint256"
        }
      ],
      "name": "getPowerById",
      "outputs": [
        {
          "internalType": "uint16",
          "name": "",
          "type": "uint16"
        }
      ],
      "stateMutability": "view",
      "type": "function"
    },
    {
      "inputs": [
        {
          "internalType": "bytes32",
          "name": "role",
          "type": "bytes32"
        }
      ],
      "name": "getRoleAdmin",
      "outputs": [
        {
          "internalType": "bytes32",
          "name": "",
          "type": "bytes32"
        }
      ],
      "stateMutability": "view",
      "type": "function"
    },
    {
      "inputs": [],
      "name": "goodsOnly",
      "outputs": [
        {
          "internalType": "bool",
          "name": "",
          "type": "bool"
        }
      ],
      "stateMutability": "view",
      "type": "function"
    },
    {
      "inputs": [
        {
          "internalType": "bytes32",
          "name": "role",
          "type": "bytes32"
        },
        {
          "internalType": "address",
          "name": "account",
          "type": "address"
        }
      ],
      "name": "grantRole",
      "outputs": [],
      "stateMutability": "nonpayable",
      "type": "function"
    },
    {
      "inputs": [
        {
          "internalType": "bytes32",
          "name": "role",
          "type": "bytes32"
        },
        {
          "internalType": "address",
          "name": "account",
          "type": "address"
        }
      ],
      "name": "hasRole",
      "outputs": [
        {
          "internalType": "bool",
          "name": "",
          "type": "bool"
        }
      ],
      "stateMutability": "view",
      "type": "function"
    },
    {
      "inputs": [
        {
          "internalType": "address",
          "name": "owner",
          "type": "address"
        },
        {
          "internalType": "address",
          "name": "operator",
          "type": "address"
        }
      ],
      "name": "isApprovedForAll",
      "outputs": [
        {
          "internalType": "bool",
          "name": "",
          "type": "bool"
        }
      ],
      "stateMutability": "view",
      "type": "function"
    },
    {
      "inputs": [
        {
          "internalType": "uint256",
          "name": "summonCount",
          "type": "uint256"
        }
      ],
      "name": "keepersSummonSeeker",
      "outputs": [],
      "stateMutability": "nonpayable",
      "type": "function"
    },
    {
      "inputs": [],
      "name": "name",
      "outputs": [
        {
          "internalType": "string",
          "name": "",
          "type": "string"
        }
      ],
      "stateMutability": "view",
      "type": "function"
    },
    {
      "inputs": [
        {
          "internalType": "uint256",
          "name": "tokenId",
          "type": "uint256"
        }
      ],
      "name": "ownerOf",
      "outputs": [
        {
          "internalType": "address",
          "name": "",
          "type": "address"
        }
      ],
      "stateMutability": "view",
      "type": "function"
    },
    {
      "inputs": [],
      "name": "ownerWithdraw",
      "outputs": [],
      "stateMutability": "payable",
      "type": "function"
    },
    {
      "inputs": [],
      "name": "performUncloaking",
      "outputs": [],
      "stateMutability": "nonpayable",
      "type": "function"
    },
    {
      "inputs": [],
      "name": "released",
      "outputs": [
        {
          "internalType": "bool",
          "name": "",
          "type": "bool"
        }
      ],
      "stateMutability": "view",
      "type": "function"
    },
    {
      "inputs": [
        {
          "internalType": "bytes32",
          "name": "role",
          "type": "bytes32"
        },
        {
          "internalType": "address",
          "name": "account",
          "type": "address"
        }
      ],
      "name": "renounceRole",
      "outputs": [],
      "stateMutability": "nonpayable",
      "type": "function"
    },
    {
      "inputs": [
        {
          "internalType": "uint256",
          "name": "id",
          "type": "uint256"
        }
      ],
      "name": "rerollDethscales",
      "outputs": [],
      "stateMutability": "nonpayable",
      "type": "function"
    },
    {
      "inputs": [
        {
          "internalType": "bytes32",
          "name": "role",
          "type": "bytes32"
        },
        {
          "internalType": "address",
          "name": "account",
          "type": "address"
        }
      ],
      "name": "revokeRole",
      "outputs": [],
      "stateMutability": "nonpayable",
      "type": "function"
    },
    {
      "inputs": [
        {
          "internalType": "address",
          "name": "from",
          "type": "address"
        },
        {
          "internalType": "address",
          "name": "to",
          "type": "address"
        },
        {
          "internalType": "uint256",
          "name": "tokenId",
          "type": "uint256"
        }
      ],
      "name": "safeTransferFrom",
      "outputs": [],
      "stateMutability": "nonpayable",
      "type": "function"
    },
    {
      "inputs": [
        {
          "internalType": "address",
          "name": "from",
          "type": "address"
        },
        {
          "internalType": "address",
          "name": "to",
          "type": "address"
        },
        {
          "internalType": "uint256",
          "name": "tokenId",
          "type": "uint256"
        },
        {
          "internalType": "bytes",
          "name": "_data",
          "type": "bytes"
        }
      ],
      "name": "safeTransferFrom",
      "outputs": [],
      "stateMutability": "nonpayable",
      "type": "function"
    },
    {
      "inputs": [],
      "name": "secondMintActive",
      "outputs": [
        {
          "internalType": "bool",
          "name": "",
          "type": "bool"
        }
      ],
      "stateMutability": "view",
      "type": "function"
    },
    {
      "inputs": [],
      "name": "seizureMintIncrement",
      "outputs": [],
      "stateMutability": "nonpayable",
      "type": "function"
    },
    {
      "inputs": [
        {
          "internalType": "address",
          "name": "winner",
          "type": "address"
        }
      ],
      "name": "sendWinnerSeeker",
      "outputs": [],
      "stateMutability": "nonpayable",
      "type": "function"
    },
    {
      "inputs": [
        {
          "internalType": "address",
          "name": "operator",
          "type": "address"
        },
        {
          "internalType": "bool",
          "name": "approved",
          "type": "bool"
        }
      ],
      "name": "setApprovalForAll",
      "outputs": [],
      "stateMutability": "nonpayable",
      "type": "function"
    },
    {
      "inputs": [
        {
          "internalType": "string",
          "name": "baseTokenURI",
          "type": "string"
        }
      ],
      "name": "setBaseURI",
      "outputs": [],
      "stateMutability": "nonpayable",
      "type": "function"
    },
    {
      "inputs": [
        {
          "internalType": "uint256",
          "name": "summonCount",
          "type": "uint256"
        }
      ],
      "name": "summonSeeker",
      "outputs": [],
      "stateMutability": "payable",
      "type": "function"
    },
    {
      "inputs": [
        {
          "internalType": "bytes4",
          "name": "interfaceId",
          "type": "bytes4"
        }
      ],
      "name": "supportsInterface",
      "outputs": [
        {
          "internalType": "bool",
          "name": "",
          "type": "bool"
        }
      ],
      "stateMutability": "view",
      "type": "function"
    },
    {
      "inputs": [],
      "name": "symbol",
      "outputs": [
        {
          "internalType": "string",
          "name": "",
          "type": "string"
        }
      ],
      "stateMutability": "view",
      "type": "function"
    },
    {
      "inputs": [],
      "name": "thirdMintActive",
      "outputs": [
        {
          "internalType": "bool",
          "name": "",
          "type": "bool"
        }
      ],
      "stateMutability": "view",
      "type": "function"
    },
    {
      "inputs": [
        {
          "internalType": "uint256",
          "name": "index",
          "type": "uint256"
        }
      ],
      "name": "tokenByIndex",
      "outputs": [
        {
          "internalType": "uint256",
          "name": "",
          "type": "uint256"
        }
      ],
      "stateMutability": "view",
      "type": "function"
    },
    {
      "inputs": [
        {
          "internalType": "address",
          "name": "owner",
          "type": "address"
        },
        {
          "internalType": "uint256",
          "name": "index",
          "type": "uint256"
        }
      ],
      "name": "tokenOfOwnerByIndex",
      "outputs": [
        {
          "internalType": "uint256",
          "name": "",
          "type": "uint256"
        }
      ],
      "stateMutability": "view",
      "type": "function"
    },
    {
      "inputs": [
        {
          "internalType": "uint256",
          "name": "tokenId",
          "type": "uint256"
        }
      ],
      "name": "tokenURI",
      "outputs": [
        {
          "internalType": "string",
          "name": "",
          "type": "string"
        }
      ],
      "stateMutability": "view",
      "type": "function"
    },
    {
      "inputs": [],
      "name": "totalSupply",
      "outputs": [
        {
          "internalType": "uint256",
          "name": "",
          "type": "uint256"
        }
      ],
      "stateMutability": "view",
      "type": "function"
    },
    {
      "inputs": [
        {
          "internalType": "address",
          "name": "from",
          "type": "address"
        },
        {
          "internalType": "address",
          "name": "to",
          "type": "address"
        },
        {
          "internalType": "uint256",
          "name": "tokenId",
          "type": "uint256"
        }
      ],
      "name": "transferFrom",
      "outputs": [],
      "stateMutability": "nonpayable",
      "type": "function"
    },
    {
      "inputs": [
        {
          "internalType": "uint256",
          "name": "id",
          "type": "uint256"
        }
      ],
      "name": "uncloakSeeker",
      "outputs": [],
      "stateMutability": "nonpayable",
      "type": "function"
    },
    {
      "inputs": [],
      "name": "uncloaking",
      "outputs": [
        {
          "internalType": "bool",
          "name": "",
          "type": "bool"
        }
      ],
      "stateMutability": "view",
      "type": "function"
    },
    {
      "stateMutability": "payable",
      "type": "receive"
    }
  ],
  "bytecode": "0x6000600c819055600d819055600e819055600f81905560108190556011556012805466ffffffffffffff1916905560e060405260246080818152906200683960a0398051620000579160159160209091019062000a5a565b506040805161016081018252600b61012082018181526a13185dd99d5b0811dbdbd960aa1b610140840152825282518084018452600c8082526b13995d5d1c985b0811dbdbd960a21b60208381019190915280850192909252845180860186528181526b10da185bdd1a58c811dbdbd960a21b818401528486015284518086018652600e81526d13185dd99d5b0813995d5d1c985b60921b818401526060850152845180860186528181526b151c9d594813995d5d1c985b60a21b81840152608085015284518086018652600f81526e10da185bdd1a58c813995d5d1c985b608a1b8184015260a0850152845180860186529283526a13185dd99d5b08115d9a5b60aa1b8383015260c0840192909252835180850185528281526b13995d5d1c985b08115d9a5b60a21b8183015260e084015283518085019094529083526b10da185bdd1a58c8115d9a5b60a21b90830152610100810191909152620001c290601690600962000ae9565b50348015620001d057600080fd5b5060408051808201825260078152665365656b65727360c81b6020808301918252835180850190945260048452635345454b60e01b9084015281519192916200021c9160009162000a5a565b5080516200023290600190602084019062000a5a565b50506001600b555062000247600033620002eb565b620002626000805160206200681983398151915233620002eb565b6200027e600080516020620068198339815191526000620002fb565b6001600c600082825462000293919062000bd9565b9091555050600c54620002a890339062000346565b6040610643620002bd610d0561138862000bd9565b620002c9919062000bd9565b620002d5919062000bd9565b620002e290600262000bd9565b600d5562000d25565b620002f7828262000368565b5050565b6000828152600a6020526040808220600101805490849055905190918391839186917fbd79b86ffe0ab8e8776151514217cd7cacd52c909f66475c3af44e129f0b00ff9190a4505050565b620002f78282604051806020016040528060008152506200040c60201b60201c565b6000828152600a602090815260408083206001600160a01b038516845290915290205460ff16620002f7576000828152600a602090815260408083206001600160a01b03851684529091529020805460ff19166001179055620003c83390565b6001600160a01b0316816001600160a01b0316837f2f8788117e7eff1d82e926ec794901d17c78024a50270940304540a733656f0d60405160405180910390a45050565b62000418838362000488565b620004276000848484620005de565b620004835760405162461bcd60e51b81526020600482015260326024820152600080516020620067f983398151915260448201527131b2b4bb32b91034b6b83632b6b2b73a32b960711b60648201526084015b60405180910390fd5b505050565b6001600160a01b038216620004e05760405162461bcd60e51b815260206004820181905260248201527f4552433732313a206d696e7420746f20746865207a65726f206164647265737360448201526064016200047a565b6000818152600260205260409020546001600160a01b031615620005475760405162461bcd60e51b815260206004820152601c60248201527f4552433732313a20746f6b656e20616c7265616479206d696e7465640000000060448201526064016200047a565b620005556000838362000737565b6001600160a01b03821660009081526003602052604081208054600192906200058090849062000bd9565b909155505060008181526002602052604080822080546001600160a01b0319166001600160a01b03861690811790915590518392907fddf252ad1be2c89b69c2b068fc378daa952ba7f163c4a11628f55a4df523b3ef908290a45050565b6000620005ff846001600160a01b03166200081360201b620032611760201c565b156200072b57604051630a85bd0160e11b81526001600160a01b0385169063150b7a02906200063990339089908890889060040162000bf4565b6020604051808303816000875af192505050801562000677575060408051601f3d908101601f19168201909252620006749181019062000c6f565b60015b62000710573d808015620006a8576040519150601f19603f3d011682016040523d82523d6000602084013e620006ad565b606091505b508051620007085760405162461bcd60e51b81526020600482015260326024820152600080516020620067f983398151915260448201527131b2b4bb32b91034b6b83632b6b2b73a32b960711b60648201526084016200047a565b805181602001fd5b6001600160e01b031916630a85bd0160e11b1490506200072f565b5060015b949350505050565b6200074f8383836200048360201b620013ea1760201c565b6001600160a01b038316620007ad57620007a781600880546000838152600960205260408120829055600182018355919091527ff3f7a9fe364faab93b216da50a3214154f22a0a2b415b23a84c8169e8b636ee30155565b620007d3565b816001600160a01b0316836001600160a01b031614620007d357620007d3838262000819565b6001600160a01b038216620007ed576200048381620008c6565b826001600160a01b0316826001600160a01b031614620004835762000483828262000980565b3b151590565b600060016200083384620009d160201b620022fa1760201c565b6200083f919062000ca2565b60008381526007602052604090205490915080821462000893576001600160a01b03841660009081526006602090815260408083208584528252808320548484528184208190558352600790915290208190555b5060009182526007602090815260408084208490556001600160a01b039094168352600681528383209183525290812055565b600854600090620008da9060019062000ca2565b6000838152600960205260408120546008805493945090928490811062000905576200090562000cbc565b90600052602060002001549050806008838154811062000929576200092962000cbc565b600091825260208083209091019290925582815260099091526040808220849055858252812055600880548062000964576200096462000cd2565b6001900381819060005260206000200160009055905550505050565b60006200099883620009d160201b620022fa1760201c565b6001600160a01b039093166000908152600660209081526040808320868452825280832085905593825260079052919091209190915550565b60006001600160a01b03821662000a3e5760405162461bcd60e51b815260206004820152602a60248201527f4552433732313a2062616c616e636520717565727920666f7220746865207a65604482015269726f206164647265737360b01b60648201526084016200047a565b506001600160a01b031660009081526003602052604090205490565b82805462000a689062000ce8565b90600052602060002090601f01602090048101928262000a8c576000855562000ad7565b82601f1062000aa757805160ff191683800117855562000ad7565b8280016001018555821562000ad7579182015b8281111562000ad757825182559160200191906001019062000aba565b5062000ae592915062000b49565b5090565b82805482825590600052602060002090810192821562000b3b579160200282015b8281111562000b3b578251805162000b2a91849160209091019062000a5a565b509160200191906001019062000b0a565b5062000ae592915062000b60565b5b8082111562000ae5576000815560010162000b4a565b8082111562000ae557600062000b77828262000b81565b5060010162000b60565b50805462000b8f9062000ce8565b6000825580601f1062000ba0575050565b601f01602090049060005260206000209081019062000bc0919062000b49565b50565b634e487b7160e01b600052601160045260246000fd5b6000821982111562000bef5762000bef62000bc3565b500190565b600060018060a01b038087168352602081871681850152856040850152608060608501528451915081608085015260005b8281101562000c435785810182015185820160a00152810162000c25565b8281111562000c5657600060a084870101525b5050601f01601f19169190910160a00195945050505050565b60006020828403121562000c8257600080fd5b81516001600160e01b03198116811462000c9b57600080fd5b9392505050565b60008282101562000cb75762000cb762000bc3565b500390565b634e487b7160e01b600052603260045260246000fd5b634e487b7160e01b600052603160045260246000fd5b600181811c9082168062000cfd57607f821691505b6020821081141562000d1f57634e487b7160e01b600052602260045260246000fd5b50919050565b615ac48062000d356000396000f3fe6080604052600436106104d55760003560e01c806381cd08ee11610279578063b88d4fde1161015e578063dec3a74c116100d6578063e985e9c51161008a578063eeb3f66d1161006f578063eeb3f66d14610e60578063fe01946214610e82578063ff25b2b214610e9757600080fd5b8063e985e9c514610dfd578063eb8fafd014610e4657600080fd5b8063e25a8b61116100bb578063e25a8b6114610d77578063e493c00c14610da7578063e84f579814610dbd57600080fd5b8063dec3a74c14610d4c578063dec8a31514610d6157600080fd5b8063c5f5e3d11161012d578063d547741f11610112578063d547741f14610cfc578063d6763bcf14610d1c578063dce62c7914610d3257600080fd5b8063c5f5e3d114610caf578063c87b56dd14610cdc57600080fd5b8063b88d4fde14610c1c578063c2b2787914610c3c578063c2d9382014610c5c578063c5ce83f914610c9057600080fd5b80639dc4263f116101f1578063a217fddf116101c0578063ab400706116101a5578063ab40070614610bbe578063b085a3f714610bf2578063b473e21614610c0757600080fd5b8063a217fddf14610b89578063a22cb46514610b9e57600080fd5b80639dc4263f14610af55780639e94505814610b30578063a1073deb14610b5d578063a1a6125f14610b7357600080fd5b806395d89b41116102485780639767d4231161022d5780639767d42314610aaa5780639c6bf85414610aca5780639d1b464a14610adf57600080fd5b806395d89b4114610a725780639613252114610a8757600080fd5b806381cd08ee146109d65780638ae626a2146109f657806391d1485414610a0c57806394a3b4d914610a5257600080fd5b806336842eae116103ba5780636352211e1161033257806373afc257116102e65780637aaf13a0116102cb5780637aaf13a0146109865780637c6aa02a146109a6578063807d88fa146109bc57600080fd5b806373afc2571461095e5780637a9597a61461097157600080fd5b80636c97c46f116103175780636c97c46f146109095780636e39a3451461092957806370a082311461093e57600080fd5b80636352211e146108c2578063682341fa146108e257600080fd5b80634f483b8e116103895780635123b39a1161036e5780635123b39a1461086857806351e224ca1461088257806355f804b3146108a257600080fd5b80634f483b8e146108335780634f6ccce71461084857600080fd5b806336842eae146107cb5780634032b72b146107eb57806342842e0e1461080b5780634311de8f1461082b57600080fd5b806318160ddd1161044d578063248a9ca31161041c5780632f745c59116104015780632f745c591461073b5780632fc2add11461075b57806336568abe146107ab57600080fd5b8063248a9ca3146106eb5780632f2ff15d1461071b57600080fd5b806318160ddd146106645780631ca8ca5f1461068357806322e36c861461069857806323b872dd146106cb57600080fd5b806306fdde03116104a457806308c3ad351161048957806308c3ad351461060b578063095ea7b31461062f57806310b127091461064f57600080fd5b806306fdde03146105be578063081812fc146105d357600080fd5b806301ffc9a71461051957806302368a2c1461054e5780630278c1ba1461057057806303989c711461059d57600080fd5b366105145760405162461bcd60e51b815260040161050b906020808252600490820152630453032360e41b604082015260600190565b60405180910390fd5b600080fd5b34801561052557600080fd5b506105396105343660046151af565b610eb7565b60405190151581526020015b60405180910390f35b34801561055a57600080fd5b5061056e6105693660046151cc565b610ec8565b005b34801561057c57600080fd5b5061059061058b3660046151ee565b6110f2565b604051610545919061525f565b3480156105a957600080fd5b50601254610539906301000000900460ff1681565b3480156105ca57600080fd5b50610590611196565b3480156105df57600080fd5b506105f36105ee3660046151ee565b611228565b6040516001600160a01b039091168152602001610545565b34801561061757600080fd5b50601254610539906601000000000000900460ff1681565b34801561063b57600080fd5b5061056e61064a366004615289565b6112bd565b34801561065b57600080fd5b5061056e6113ef565b34801561067057600080fd5b506008545b604051908152602001610545565b34801561068f57600080fd5b50610675600a81565b3480156106a457600080fd5b506105396106b33660046151ee565b60009081526014602052604090206001015460ff1690565b3480156106d757600080fd5b5061056e6106e63660046152b3565b611510565b3480156106f757600080fd5b506106756107063660046151ee565b6000908152600a602052604090206001015490565b34801561072757600080fd5b5061056e6107363660046152ef565b611597565b34801561074757600080fd5b50610675610756366004615289565b6115bd565b34801561076757600080fd5b506107986107763660046151ee565b60009081526014602052604090206001015465010000000000900461ffff1690565b60405161ffff9091168152602001610545565b3480156107b757600080fd5b5061056e6107c63660046152ef565b611665565b3480156107d757600080fd5b5061056e6107e63660046152ef565b6116f1565b3480156107f757600080fd5b5061056e61080636600461531b565b6117c0565b34801561081757600080fd5b5061056e6108263660046152b3565b611854565b61056e61186f565b34801561083f57600080fd5b5061056e6119b5565b34801561085457600080fd5b506106756108633660046151ee565b611a60565b34801561087457600080fd5b506106756512309ce5400081565b34801561088e57600080fd5b5061056e61089d3660046151ee565b611b04565b3480156108ae57600080fd5b5061056e6108bd3660046153c2565b611d1b565b3480156108ce57600080fd5b506105f36108dd3660046151ee565b611d95565b3480156108ee57600080fd5b506108f7600181565b60405160ff9091168152602001610545565b34801561091557600080fd5b5061056e6109243660046151ee565b611e20565b34801561093557600080fd5b5061056e6121cb565b34801561094a57600080fd5b5061067561095936600461531b565b6122fa565b61056e61096c3660046151ee565b612394565b34801561097d57600080fd5b506108f7600581565b34801561099257600080fd5b5061056e6109a13660046151ee565b61253f565b3480156109b257600080fd5b50610675600e5481565b3480156109c857600080fd5b50610675655af3107a400081565b3480156109e257600080fd5b5061056e6109f136600461531b565b612703565b348015610a0257600080fd5b50610675612b6781565b348015610a1857600080fd5b50610539610a273660046152ef565b6000918252600a602090815260408084206001600160a01b0393909316845291905290205460ff1690565b348015610a5e57600080fd5b50610675610a6d36600461531b565b612794565b348015610a7e57600080fd5b50610590612869565b348015610a9357600080fd5b506012546105399065010000000000900460ff1681565b348015610ab657600080fd5b506012546105399062010000900460ff1681565b348015610ad657600080fd5b506108f7600381565b348015610aeb57600080fd5b50610675600f5481565b348015610b0157600080fd5b50610798610b103660046151ee565b600090815260146020526040902060010154600160381b900461ffff1690565b348015610b3c57600080fd5b50610b50610b4b3660046151ee565b612878565b604051610545919061540b565b348015610b6957600080fd5b5061067561010b81565b348015610b7f57600080fd5b5061079861040081565b348015610b9557600080fd5b50610675600081565b348015610baa57600080fd5b5061056e610bb9366004615447565b612c14565b348015610bca57600080fd5b506106757f6a64baf327d646d1bca72653e2a075d15fd6ac6d8cbd7f6ee03fc55875e0fa8881565b348015610bfe57600080fd5b5061056e612cd9565b348015610c1357600080fd5b50610675600481565b348015610c2857600080fd5b5061056e610c37366004615483565b612d5a565b348015610c4857600080fd5b50610798610c57366004615511565b612de8565b348015610c6857600080fd5b506106757f2fa3586e1228a6d020f44df84a4695dcd1cfcb55a51cd832563c729d866522ff81565b348015610c9c57600080fd5b5060125461053990610100900460ff1681565b348015610cbb57600080fd5b50610ccf610cca3660046151ee565b612e59565b6040516105459190615554565b348015610ce857600080fd5b50610590610cf73660046151ee565b612ebe565b348015610d0857600080fd5b5061056e610d173660046152ef565b612fa7565b348015610d2857600080fd5b5061067561138881565b348015610d3e57600080fd5b506012546105399060ff1681565b348015610d5857600080fd5b5061056e612fcd565b348015610d6d57600080fd5b50610675610d0581565b348015610d8357600080fd5b50610539610d923660046151ee565b60009081526013602052604090205460ff1690565b348015610db357600080fd5b5061067561064381565b348015610dc957600080fd5b506105f3610dd83660046151ee565b600090815260146020526040902060010154600160481b90046001600160a01b031690565b348015610e0957600080fd5b50610539610e1836600461557f565b6001600160a01b03918216600090815260056020908152604080832093909416825291909152205460ff1690565b348015610e5257600080fd5b50610675652d79883d200081565b348015610e6c57600080fd5b5060125461053990640100000000900460ff1681565b348015610e8e57600080fd5b5061056e6130ef565b348015610ea357600080fd5b5061056e610eb236600461531b565b613166565b6000610ec282613267565b92915050565b3360009081527f61452436a62565ab2cbed6a23d441329fc7a4b9f7fa5613961bdfeb3b7247f6d602052604090205460ff16610f2f5760405162461bcd60e51b815260040161050b906020808252600490820152634530313760e01b604082015260600190565b6000610f3a83611d95565b6001600160a01b03161415610f935760405162461bcd60e51b815260040161050b9060208082526004908201527f4530313400000000000000000000000000000000000000000000000000000000604082015260600190565b60008111610fe55760405162461bcd60e51b815260040161050b9060208082526004908201527f4530313500000000000000000000000000000000000000000000000000000000604082015260600190565b60008281526014602052604090206001015465010000000000900461ffff1661040061101183836155bf565b1115611044576000838152601460205260409020600101805466ffff000000000019166604000000000000179055611090565b6000838152601460205260409020600101805483919060059061107590849065010000000000900461ffff166155d7565b92506101000a81548161ffff021916908361ffff1602179055505b6000838152601460209081526040918290206001015482518581526501000000000090910461ffff169181019190915284917f2d06a0b6d9e448255510db8be5700d234d963e07554aa376f2a103125f19ae62910160405180910390a2505050565b600081815260146020526040812080546060929190611110906155fd565b80601f016020809104026020016040519081016040528092919081815260200182805461113c906155fd565b80156111895780601f1061115e57610100808354040283529160200191611189565b820191906000526020600020905b81548152906001019060200180831161116c57829003601f168201915b5093979650505050505050565b6060600080546111a5906155fd565b80601f01602080910402602001604051908101604052809291908181526020018280546111d1906155fd565b801561121e5780601f106111f35761010080835404028352916020019161121e565b820191906000526020600020905b81548152906001019060200180831161120157829003601f168201915b5050505050905090565b6000818152600260205260408120546001600160a01b03166112a15760405162461bcd60e51b815260206004820152602c60248201527f4552433732313a20617070726f76656420717565727920666f72206e6f6e657860448201526b34b9ba32b73a103a37b5b2b760a11b606482015260840161050b565b506000908152600460205260409020546001600160a01b031690565b60006112c882611d95565b9050806001600160a01b0316836001600160a01b031614156113525760405162461bcd60e51b815260206004820152602160248201527f4552433732313a20617070726f76616c20746f2063757272656e74206f776e6560448201527f7200000000000000000000000000000000000000000000000000000000000000606482015260840161050b565b336001600160a01b038216148061136e575061136e8133610e18565b6113e05760405162461bcd60e51b815260206004820152603860248201527f4552433732313a20617070726f76652063616c6c6572206973206e6f74206f7760448201527f6e6572206e6f7220617070726f76656420666f7220616c6c0000000000000000606482015260840161050b565b6113ea83836132a5565b505050565b3360009081527f61452436a62565ab2cbed6a23d441329fc7a4b9f7fa5613961bdfeb3b7247f6d602052604090205460ff166114565760405162461bcd60e51b815260040161050b906020808252600490820152634530313760e01b604082015260600190565b60125460ff16156114ab5760405162461bcd60e51b815260040161050b9060208082526004908201527f4530303500000000000000000000000000000000000000000000000000000000604082015260600190565b6012805460ff191660011790556040517f0d3dae01e1b4644a9619797b649d24e856e8d3dd662f97e01427e70bf2ae91a690600090a16114ee60406113886155bf565b600e60008282546114ff91906155bf565b90915550506512309ce54000600f55565b61151a3382613320565b61158c5760405162461bcd60e51b815260206004820152603160248201527f4552433732313a207472616e736665722063616c6c6572206973206e6f74206f60448201527f776e6572206e6f7220617070726f766564000000000000000000000000000000606482015260840161050b565b6113ea838383613417565b6000828152600a60205260409020600101546115b381336135fc565b6113ea838361367c565b60006115c8836122fa565b821061163c5760405162461bcd60e51b815260206004820152602b60248201527f455243373231456e756d657261626c653a206f776e657220696e646578206f7560448201527f74206f6620626f756e6473000000000000000000000000000000000000000000606482015260840161050b565b506001600160a01b03919091166000908152600660209081526040808320938352929052205490565b6001600160a01b03811633146116e35760405162461bcd60e51b815260206004820152602f60248201527f416363657373436f6e74726f6c3a2063616e206f6e6c792072656e6f756e636560448201527f20726f6c657320666f722073656c660000000000000000000000000000000000606482015260840161050b565b6116ed828261371e565b5050565b6116fa82611d95565b6001600160a01b0316336001600160a01b0316146117435760405162461bcd60e51b815260040161050b906020808252600490820152630453031360e41b604082015260600190565b60008281526014602052604080822060010180547fffffff0000000000000000000000000000000000000000ffffffffffffffffff16600160481b6001600160a01b038616908102919091179091559051909184917fafa5959eb8823d589ec08c28f3effdde6546d1102288f3ba855119af25e3bbba9190a35050565b3360009081527fd097c2ba9c9f8e2dcc0db7b99113293b0940e94d6b5c6f2698d589381e9782e7602052604090205460ff166118275760405162461bcd60e51b815260040161050b9060208082526004908201526308a6062760e31b604082015260600190565b6118517f2fa3586e1228a6d020f44df84a4695dcd1cfcb55a51cd832563c729d866522ff82611597565b50565b6113ea83838360405180602001604052806000815250612d5a565b3360009081527fd097c2ba9c9f8e2dcc0db7b99113293b0940e94d6b5c6f2698d589381e9782e7602052604090205460ff166118d65760405162461bcd60e51b815260040161050b9060208082526004908201526308a6062760e31b604082015260600190565b60006010541161192a5760405162461bcd60e51b815260040161050b9060208082526004908201527f4530313900000000000000000000000000000000000000000000000000000000604082015260600190565b60108054600091829055604051909190339083908381818185875af1925050503d8060008114611976576040519150601f19603f3d011682016040523d82523d6000602084013e61197b565b606091505b50509050806116ed5760405162461bcd60e51b815260040161050b906020808252600490820152630453032360e41b604082015260600190565b3360009081527f61452436a62565ab2cbed6a23d441329fc7a4b9f7fa5613961bdfeb3b7247f6d602052604090205460ff16611a1c5760405162461bcd60e51b815260040161050b906020808252600490820152634530313760e01b604082015260600190565b6012805466ff000000000000191666010000000000001790556040517f5482c0653ae6084c9c4091da0728c40dc90c385f432b3cf5f6a5a5df5a22919690600090a1565b6000611a6b60085490565b8210611adf5760405162461bcd60e51b815260206004820152602c60248201527f455243373231456e756d657261626c653a20676c6f62616c20696e646578206f60448201527f7574206f6620626f756e64730000000000000000000000000000000000000000606482015260840161050b565b60088281548110611af257611af2615638565b90600052602060002001549050919050565b6012546601000000000000900460ff16611b495760405162461bcd60e51b815260040161050b906020808252600490820152634530303960e01b604082015260600190565b611b5281611d95565b6001600160a01b0316336001600160a01b031614611b9b5760405162461bcd60e51b815260040161050b906020808252600490820152630453031360e41b604082015260600190565b60008181526013602052604090205460ff1615611be35760405162461bcd60e51b815260040161050b906020808252600490820152632298189960e11b604082015260600190565b600081815260146020526040902060019081015465010000000000900461ffff161015611c545760405162461bcd60e51b815260040161050b9060208082526004908201527f4530313300000000000000000000000000000000000000000000000000000000604082015260600190565b600081815260146020526040902060019081018054600590611c8490849065010000000000900461ffff1661564e565b92506101000a81548161ffff021916908361ffff160217905550611ca98160016137a1565b60008281526014602052604090819020600101805461ffff93909316600160381b0268ffff000000000000001990931692909217909155517fdcc2145292317879f6319461deaed4ada2422f436a0b0e15f2af0e60c637d12190611d109083815260200190565b60405180910390a150565b3360009081527fd097c2ba9c9f8e2dcc0db7b99113293b0940e94d6b5c6f2698d589381e9782e7602052604090205460ff16611d825760405162461bcd60e51b815260040161050b9060208082526004908201526308a6062760e31b604082015260600190565b80516116ed9060159060208401906150c3565b6000818152600260205260408120546001600160a01b031680610ec25760405162461bcd60e51b815260206004820152602960248201527f4552433732313a206f776e657220717565727920666f72206e6f6e657869737460448201527f656e7420746f6b656e0000000000000000000000000000000000000000000000606482015260840161050b565b6012546601000000000000900460ff16611e655760405162461bcd60e51b815260040161050b906020808252600490820152634530303960e01b604082015260600190565b611e6e81611d95565b6001600160a01b0316336001600160a01b031614611eb75760405162461bcd60e51b815260040161050b906020808252600490820152630453031360e41b604082015260600190565b60008181526013602052604090205460ff16611f175760405162461bcd60e51b815260040161050b9060208082526004908201527f4530313100000000000000000000000000000000000000000000000000000000604082015260600190565b6000611f2161390d565b90506000611f2e83613e70565b6000848152601360209081526040808320805460ff19169055805161012081018252868152878452601483528184206001015460ff16151592810192909252929350909181018383602002015160ff16815260200183600160048110611f9657611f96615638565b602002015160ff16815260200183600260048110611fb657611fb6615638565b602002015160ff16815260200183600360048110611fd657611fd6615638565b6020908102919091015160ff168252600087815260148083526040808320600181015465010000000000810461ffff1687870152918601849052600160481b9091046001600160a01b031660609095019490945290889052815282518051939450849361204692849201906150c3565b5060208201516001909101805460408401516060850151608086015160a087015160c088015160e0890151610100998a01516001600160a01b0316600160481b027fffffff0000000000000000000000000000000000000000ffffffffffffffffff61ffff928316600160381b02167fffffff00000000000000000000000000000000000000000000ffffffffffffff92909316650100000000000266ffff00000000001960ff958616640100000000021666ffffff000000001996861663010000000263ff0000001998871662010000029890981663ffff00001999909616909c0261ff00199b15159b909b1661ffff1990991698909817999099179590951691909117929092171695909517919091171692909217179055600061216c85826137a1565b600086815260146020526040808220600101805468ffff000000000000001916600160381b61ffff8616021790555191925086917fb91faaa78142ff7cf17e2901f700062d893e98dae6eb9d835fd56f012c0696069190a25050505050565b3360009081527f61452436a62565ab2cbed6a23d441329fc7a4b9f7fa5613961bdfeb3b7247f6d602052604090205460ff166122325760405162461bcd60e51b815260040161050b906020808252600490820152634530313760e01b604082015260600190565b60125462010000900460ff161561228d5760405162461bcd60e51b815260040161050b9060208082526004908201527f4530303700000000000000000000000000000000000000000000000000000000604082015260600190565b6012805464ffffff000019166401000100001790556040517f1bbe80213228404e276963f9e286d445ba1e5609daacc5098b97ad3783da4d9790600090a16122d861010b60046155bf565b600e60008282546122e991906155bf565b9091555050655af3107a4000600f55565b60006001600160a01b0382166123785760405162461bcd60e51b815260206004820152602a60248201527f4552433732313a2062616c616e636520717565727920666f7220746865207a6560448201527f726f206164647265737300000000000000000000000000000000000000000000606482015260840161050b565b506001600160a01b031660009081526003602052604090205490565b6002600b5414156123e75760405162461bcd60e51b815260206004820152601f60248201527f5265656e7472616e637947756172643a207265656e7472616e742063616c6c00604482015260640161050b565b6002600b5580158015906123fc5750600a8111155b61244a5760405162461bcd60e51b815260040161050b9060208082526004908201527f4530303100000000000000000000000000000000000000000000000000000000604082015260600190565b80600f546124589190615671565b3410156124a95760405162461bcd60e51b815260040161050b9060208082526004908201527f4530303200000000000000000000000000000000000000000000000000000000604082015260600190565b600e5481600c546124ba91906155bf565b11156124f15760405162461bcd60e51b815260040161050b906020808252600490820152634530303360e01b604082015260600190565b60005b81811015612536576001600c600082825461250f91906155bf565b9250508190555061252433600c546000614064565b8061252e81615690565b9150506124f4565b50506001600b55565b6002600b5414156125925760405162461bcd60e51b815260206004820152601f60248201527f5265656e7472616e637947756172643a207265656e7472616e742063616c6c00604482015260640161050b565b6002600b553360009081527fd097c2ba9c9f8e2dcc0db7b99113293b0940e94d6b5c6f2698d589381e9782e7602052604090205460ff166125fe5760405162461bcd60e51b815260040161050b9060208082526004908201526308a6062760e31b604082015260600190565b60408160115461260e91906155bf565b111561265e5760405162461bcd60e51b815260040161050b9060208082526004908201527f4530303400000000000000000000000000000000000000000000000000000000604082015260600190565b600e5481600c5461266f91906155bf565b11156126a65760405162461bcd60e51b815260040161050b906020808252600490820152634530303360e01b604082015260600190565b80601160008282546126b891906155bf565b90915550600090505b81811015612536576001600c60008282546126dc91906155bf565b925050819055506126f133600c546000614064565b806126fb81615690565b9150506126c1565b3360009081527fd097c2ba9c9f8e2dcc0db7b99113293b0940e94d6b5c6f2698d589381e9782e7602052604090205460ff1661276a5760405162461bcd60e51b815260040161050b9060208082526004908201526308a6062760e31b604082015260600190565b6118517f6a64baf327d646d1bca72653e2a075d15fd6ac6d8cbd7f6ee03fc55875e0fa8882611597565b3360009081527f61452436a62565ab2cbed6a23d441329fc7a4b9f7fa5613961bdfeb3b7247f6d602052604081205460ff166127fb5760405162461bcd60e51b815260040161050b906020808252600490820152634530313760e01b604082015260600190565b612b67600d54106128375760405162461bcd60e51b815260040161050b906020808252600490820152634530303360e01b604082015260600190565b6001600d600082825461284a91906155bf565b9250508190555061285f82600d546001614064565b50600d545b919050565b6060600180546111a5906155fd565b612880615147565b60008281526013602052604090205460ff16156128c85760405162461bcd60e51b815260040161050b906020808252600490820152632298189960e11b604082015260600190565b600082815260146020526040812060010154600160381b900461ffff16906128ef8461422d565b915050600080826000141561290657506000905060105b826001141561291b5750601090506020612923565b506020905060405b61292b615147565b61ffff8516612938615166565b601082901b65fffff000000016600c83811b650fffff00000016600885811b64fffff0000016600487811b640fffff00001663fffff00089169189901c630fffff00169589901c620fffff169389901c62fffff0169390931794909417939093171791909117171781600063ffffffff9290921660209092020152601482901b63f000000016601083901b630f00000016600c84901b62f0000016600885811b620f000016600487811b61f00016610f0089169389901c600f169189901c60f0169190911792909217919091171717171781600163ffffffff9290921660209092020152601882901b63f000000016601483901b630f00000016601084901b62f0000016600c85901b620f000016600886901b61f00016600487811b610f00169088901c600f1660f089161717171717171781600263ffffffff909216602092909202015260f0600483901b16600f831617610f00600884901b161761f000600c84901b1617620f0000601084901b161762f00000601484901b1617630f000000601884901b161763f0000000601c84901b161781600363ffffffff909216602092909202015260005b60208161ffff161015612b4c5781612afb6004836156c1565b61ffff1660048110612b0f57612b0f615638565b6020020151848261ffff1660208110612b2a57612b2a615638565b63ffffffff909216602092909202015280612b44816156e2565b915050612ae2565b50600085612b64612b5d828861564e565b8a88612de8565b612b6e91906155d7565b905060005b8161ffff168161ffff161015612c05576000612b9160208b84612de8565b90506000612ba160208385612de8565b9050868161ffff1660208110612bb957612bb9615638565b6020020151612bc98360026158f9565b18878261ffff1660208110612be057612be0615638565b63ffffffff909216602092909202015250819050612bfd816156e2565b915050612b73565b50929998505050505050505050565b6001600160a01b038216331415612c6d5760405162461bcd60e51b815260206004820152601960248201527f4552433732313a20617070726f766520746f2063616c6c657200000000000000604482015260640161050b565b3360008181526005602090815260408083206001600160a01b03871680855290835292819020805460ff191686151590811790915590519081529192917f17307eab39ab6107e8899845ad3d59bd9653f200f220920489ca2b5937696c31910160405180910390a35050565b3360009081527f61452436a62565ab2cbed6a23d441329fc7a4b9f7fa5613961bdfeb3b7247f6d602052604090205460ff16612d405760405162461bcd60e51b815260040161050b906020808252600490820152634530313760e01b604082015260600190565b6004600e6000828254612d5391906155bf565b9091555050565b612d643383613320565b612dd65760405162461bcd60e51b815260206004820152603160248201527f4552433732313a207472616e736665722063616c6c6572206973206e6f74206f60448201527f776e6572206e6f7220617070726f766564000000000000000000000000000000606482015260840161050b565b612de2848484846143d9565b50505050565b6040517fffff00000000000000000000000000000000000000000000000000000000000060f084811b8216602084015283901b16602282015260009081906024016040516020818303038152906040528051906020012060f01c90508481612e5091906156c1565b95945050505050565b612e61615166565b50604080516080810182526000838152601460208181528483206001015460ff6101008204811686526201000082048116838701526401000000008204811696860196909652959092529052630100000090920416606082015290565b6000818152600260205260409020546060906001600160a01b0316612f4b5760405162461bcd60e51b815260206004820152602f60248201527f4552433732314d657461646174613a2055524920717565727920666f72206e6f60448201527f6e6578697374656e7420746f6b656e0000000000000000000000000000000000606482015260840161050b565b6000612f55614457565b90506000815111612f755760405180602001604052806000815250612fa0565b80612f7f84614466565b604051602001612f9092919061590f565b6040516020818303038152906040525b9392505050565b6000828152600a6020526040902060010154612fc381336135fc565b6113ea838361371e565b3360009081527f61452436a62565ab2cbed6a23d441329fc7a4b9f7fa5613961bdfeb3b7247f6d602052604090205460ff166130345760405162461bcd60e51b815260040161050b906020808252600490820152634530313760e01b604082015260600190565b601254610100900460ff161561308e5760405162461bcd60e51b815260040161050b9060208082526004908201527f4530303600000000000000000000000000000000000000000000000000000000604082015260600190565b6012805463ff00ff00191663010001001790556040517fce28fb74a9fed93421bef1c67a577ec8bdd8f93d99962f27a4b52207e9e80dd390600090a1610d05600e60008282546130de91906155bf565b9091555050652d79883d2000600f55565b3360009081527f61452436a62565ab2cbed6a23d441329fc7a4b9f7fa5613961bdfeb3b7247f6d602052604090205460ff166131565760405162461bcd60e51b815260040161050b906020808252600490820152634530313760e01b604082015260600190565b6012805464ff0000000019169055565b3360009081527f61452436a62565ab2cbed6a23d441329fc7a4b9f7fa5613961bdfeb3b7247f6d602052604090205460ff166131cd5760405162461bcd60e51b815260040161050b906020808252600490820152634530313760e01b604082015260600190565b60125465010000000000900460ff161561322b5760405162461bcd60e51b815260040161050b9060208082526004908201527f4530303800000000000000000000000000000000000000000000000000000000604082015260600190565b6012805465ff000000000019166501000000000017905561324c6001614564565b6118516132596001611d95565b826001613417565b3b151590565b60006001600160e01b031982167f7965db0b000000000000000000000000000000000000000000000000000000001480610ec25750610ec28261474c565b6000818152600460205260409020805473ffffffffffffffffffffffffffffffffffffffff19166001600160a01b03841690811790915581906132e782611d95565b6001600160a01b03167f8c5be1e5ebec7d5bd14f71427d1e84f3dd0314c0f7b2291e5b200ac8c7c3b92560405160405180910390a45050565b6000818152600260205260408120546001600160a01b03166133995760405162461bcd60e51b815260206004820152602c60248201527f4552433732313a206f70657261746f7220717565727920666f72206e6f6e657860448201526b34b9ba32b73a103a37b5b2b760a11b606482015260840161050b565b60006133a483611d95565b9050806001600160a01b0316846001600160a01b031614806133df5750836001600160a01b03166133d484611228565b6001600160a01b0316145b8061340f57506001600160a01b0380821660009081526005602090815260408083209388168352929052205460ff165b949350505050565b826001600160a01b031661342a82611d95565b6001600160a01b0316146134a65760405162461bcd60e51b815260206004820152602960248201527f4552433732313a207472616e73666572206f6620746f6b656e2074686174206960448201527f73206e6f74206f776e0000000000000000000000000000000000000000000000606482015260840161050b565b6001600160a01b0382166135215760405162461bcd60e51b8152602060048201526024808201527f4552433732313a207472616e7366657220746f20746865207a65726f2061646460448201527f7265737300000000000000000000000000000000000000000000000000000000606482015260840161050b565b61352c83838361478a565b6135376000826132a5565b6001600160a01b0383166000908152600360205260408120805460019290613560908490615935565b90915550506001600160a01b038216600090815260036020526040812080546001929061358e9084906155bf565b9091555050600081815260026020526040808220805473ffffffffffffffffffffffffffffffffffffffff19166001600160a01b0386811691821790925591518493918716917fddf252ad1be2c89b69c2b068fc378daa952ba7f163c4a11628f55a4df523b3ef91a4505050565b6000828152600a602090815260408083206001600160a01b038516845290915290205460ff166116ed5761363a816001600160a01b03166014614842565b613645836020614842565b60405160200161365692919061594c565b60408051601f198184030181529082905262461bcd60e51b825261050b9160040161525f565b6000828152600a602090815260408083206001600160a01b038516845290915290205460ff166116ed576000828152600a602090815260408083206001600160a01b03851684529091529020805460ff191660011790556136da3390565b6001600160a01b0316816001600160a01b0316837f2f8788117e7eff1d82e926ec794901d17c78024a50270940304540a733656f0d60405160405180910390a45050565b6000828152600a602090815260408083206001600160a01b038516845290915290205460ff16156116ed576000828152600a602090815260408083206001600160a01b0385168085529252808320805460ff1916905551339285917ff6391f5c32d9c69d2a47ea670b442974b53935d1edc7fd64eb21e047a839171b9190a45050565b6000806137ad8461422d565b50905060008082600114156137c8575060079050600c6137d0565b506004905060085b600080806137de858561564e565b90506000886137f9576137f4620100008b614a07565b613817565b60008a815260146020526040902060010154600160381b900461ffff165b9050600086613827848d85612de8565b61383191906155d7565b905060005b8161ffff168161ffff1610156138755761385260108285612de8565b9450856138608660026159cd565b1795508061386d816156e2565b915050613836565b50600061388760648461ffff16614a07565b905088600214156138cd5760058161ffff16111580156138a557508a155b156138bb57859950505050505050505050610ec2565b85199950505050505050505050610ec2565b886138fc5760058161ffff16111580156138e557508a155b156138fc5785199950505050505050505050610ec2565b859950505050505050505050610ec2565b601254606090640100000000900460ff1615613bb25760408051600380825260808201909252600091816020015b606081526020019060019003908161393b579050509050601660008154811061396657613966615638565b90600052602060002001805461397b906155fd565b80601f01602080910402602001604051908101604052809291908181526020018280546139a7906155fd565b80156139f45780601f106139c9576101008083540402835291602001916139f4565b820191906000526020600020905b8154815290600101906020018083116139d757829003601f168201915b505050505081600081518110613a0c57613a0c615638565b60200260200101819052506016600181548110613a2b57613a2b615638565b906000526020600020018054613a40906155fd565b80601f0160208091040260200160405190810160405280929190818152602001828054613a6c906155fd565b8015613ab95780601f10613a8e57610100808354040283529160200191613ab9565b820191906000526020600020905b815481529060010190602001808311613a9c57829003601f168201915b505050505081600181518110613ad157613ad1615638565b60200260200101819052506016600281548110613af057613af0615638565b906000526020600020018054613b05906155fd565b80601f0160208091040260200160405190810160405280929190818152602001828054613b31906155fd565b8015613b7e5780601f10613b5357610100808354040283529160200191613b7e565b820191906000526020600020905b815481529060010190602001808311613b6157829003601f168201915b505050505081600281518110613b9657613b96615638565b6020026020010181905250613bac600382614a82565b91505090565b6012546301000000900460ff1615613d915760408051600380825260808201909252600091816020015b6060815260200190600190039081613bdc5790505090506016600681548110613c0757613c07615638565b906000526020600020018054613c1c906155fd565b80601f0160208091040260200160405190810160405280929190818152602001828054613c48906155fd565b8015613c955780601f10613c6a57610100808354040283529160200191613c95565b820191906000526020600020905b815481529060010190602001808311613c7857829003601f168201915b505050505081600081518110613cad57613cad615638565b60200260200101819052506016600781548110613ccc57613ccc615638565b906000526020600020018054613ce1906155fd565b80601f0160208091040260200160405190810160405280929190818152602001828054613d0d906155fd565b8015613d5a5780601f10613d2f57610100808354040283529160200191613d5a565b820191906000526020600020905b815481529060010190602001808311613d3d57829003601f168201915b505050505081600181518110613d7257613d72615638565b60200260200101819052506016600881548110613af057613af0615638565b6016805460408051602080840282018101909252828152613e6b939091839060009084015b82821015613e62578382906000526020600020018054613dd5906155fd565b80601f0160208091040260200160405190810160405280929190818152602001828054613e01906155fd565b8015613e4e5780601f10613e2357610100808354040283529160200191613e4e565b820191906000526020600020905b815481529060010190602001808311613e3157829003601f168201915b505050505081526020019060010190613db6565b50505050614a82565b905090565b613e78615166565b600082815260146020526040902060010154600a9060179060329060ff1615613ea457600f9250601991505b6000613eb08484615935565b613ebb9060016155bf565b90506000613eca826000614a07565b613ed490866155bf565b9050613ee28160ff16614ac8565b6000613eef836001614a07565b613ef990876155bf565b9050613f078160ff16614ac8565b6000613f14846002614a07565b613f1e90886155bf565b9050613f2c8160ff16614ac8565b6000613f39856003614a07565b613f4390896155bf565b9050613f518160ff16614ac8565b6040805160808101825260ff8087168252858116602083015284811692820192909252908216606082015260005b6004811015614055576000613f95826004615935565b60408051426020820152016040516020818303038152906040528051906020012060001c613fc391906159e0565b613fcd90836155bf565b90506000838260048110613fe357613fe3615638565b60200201519050838360048110613ffc57613ffc615638565b602002015184836004811061401357614013615638565b60ff90921660209290920201528084846004811061403357614033615638565b60ff90921660209290920201525081905061404d81615690565b915050613f7f565b509a9950505050505050505050565b60038115614070575060055b6040805161014081018252600061012082018181528252841515602080840191909152828401829052606083018290526080830182905260a0830182905260ff851660c084015260e0830182905261010083018290528682526014815292902081518051929384936140e592849201906150c3565b50602082810151600192830180546040808701516060880151608089015160a08a015160c08b015160e08c01516101009c8d015161ffff1990981699151561ff0019169990991760ff958616909c029b909b1763ffff00001916620100009385169390930263ff0000001916929092176301000000918416919091021766ffffff000000001916640100000000929091169190910266ffff00000000001916176501000000000061ffff98891602177fffffff00000000000000000000000000000000000000000000ffffffffffffff16600160381b97909416969096027fffffff0000000000000000000000000000000000000000ffffffffffffffffff1692909217600160481b6001600160a01b03909316929092029190911790556000878152601390915291909120805460ff191690911790556142268585614b3b565b5050505050565b600081815260146020526040812080548291829161424a906155fd565b80601f0160208091040260200160405190810160405280929190818152602001828054614276906155fd565b80156142c35780601f10614298576101008083540402835291602001916142c3565b820191906000526020600020905b8154815290600101906020018083116142a657829003601f168201915b50505050509050606060005b6016548110156143cb57601681815481106142ec576142ec615638565b906000526020600020018054614301906155fd565b80601f016020809104026020016040519081016040528092919081815260200182805461432d906155fd565b801561437a5780601f1061434f5761010080835404028352916020019161437a565b820191906000526020600020905b81548152906001019060200180831161435d57829003601f168201915b505050505091508180519060200120838051906020012014156143b9576143a26003826159f4565b6143ad6003836159e0565b94509450505050915091565b806143c381615690565b9150506142cf565b506000958695509350505050565b6143e4848484613417565b6143f084848484614b55565b612de25760405162461bcd60e51b815260206004820152603260248201527f4552433732313a207472616e7366657220746f206e6f6e20455243373231526560448201527131b2b4bb32b91034b6b83632b6b2b73a32b960711b606482015260840161050b565b6060601580546111a5906155fd565b60608161448a5750506040805180820190915260018152600360fc1b602082015290565b8160005b81156144b4578061449e81615690565b91506144ad9050600a836159f4565b915061448e565b60008167ffffffffffffffff8111156144cf576144cf615336565b6040519080825280601f01601f1916602001820160405280156144f9576020820181803683370190505b5090505b841561340f5761450e600183615935565b915061451b600a866159e0565b6145269060306155bf565b60f81b81838151811061453b5761453b615638565b60200101906001600160f81b031916908160001a90535061455d600a866159f4565b94506144fd565b6000818152601360209081526040808320805460ff19169055805161016081018252600c61012082019081527f54727565204e65757472616c0000000000000000000000000000000000000000610140830152815260018184018190526019828401819052606083018190526080830181905260a083015261040060c083015260e08201859052858552601480855292852090810154600160481b90046001600160a01b0316610100830152938590529082528051805191938493909261462e92849201906150c3565b5060208201516001909101805460408401516060850151608086015160a087015160c088015160e0890151610100998a01516001600160a01b0316600160481b027fffffff0000000000000000000000000000000000000000ffffffffffffffffff61ffff928316600160381b02167fffffff00000000000000000000000000000000000000000000ffffffffffffff92909316650100000000000266ffff00000000001960ff958616640100000000021666ffffff000000001996861663010000000263ff0000001998871662010000029890981663ffff00001999909616909c0261ff00199b15159b909b1661ffff19909916989098179990991795909516919091179290921716959095179190911716929092171790555050565b60006001600160e01b031982167f780e9d63000000000000000000000000000000000000000000000000000000001480610ec25750610ec282614c9e565b6001600160a01b0383166147e5576147e081600880546000838152600960205260408120829055600182018355919091527ff3f7a9fe364faab93b216da50a3214154f22a0a2b415b23a84c8169e8b636ee30155565b614808565b816001600160a01b0316836001600160a01b031614614808576148088382614d39565b6001600160a01b03821661481f576113ea81614dd6565b826001600160a01b0316826001600160a01b0316146113ea576113ea8282614e85565b60606000614851836002615671565b61485c9060026155bf565b67ffffffffffffffff81111561487457614874615336565b6040519080825280601f01601f19166020018201604052801561489e576020820181803683370190505b509050600360fc1b816000815181106148b9576148b9615638565b60200101906001600160f81b031916908160001a9053507f78000000000000000000000000000000000000000000000000000000000000008160018151811061490457614904615638565b60200101906001600160f81b031916908160001a9053506000614928846002615671565b6149339060016155bf565b90505b60018111156149b8577f303132333435363738396162636465660000000000000000000000000000000085600f166010811061497457614974615638565b1a60f81b82828151811061498a5761498a615638565b60200101906001600160f81b031916908160001a90535060049490941c936149b181615a08565b9050614936565b508315612fa05760405162461bcd60e51b815260206004820181905260248201527f537472696e67733a20686578206c656e67746820696e73756666696369656e74604482015260640161050b565b600080614a15600143615935565b60408051914060208301526bffffffffffffffffffffffff1941606090811b8216928401929092524460548401523390911b1660748201526088810185905260a8810184905260c80160408051601f198184030181529190528051602090910120905061340f84826159e0565b60606000614a91846000614a07565b9050600083845183614aa391906159e0565b81518110614ab357614ab3615638565b60200260200101519050809250505092915050565b61185181604051602401614ade91815260200190565b60408051601f198184030181529190526020810180517bffffffffffffffffffffffffffffffffffffffffffffffffffffffff167ff5b1bba900000000000000000000000000000000000000000000000000000000179052614ec9565b6116ed828260405180602001604052806000815250614eea565b60006001600160a01b0384163b15614c9357604051630a85bd0160e11b81526001600160a01b0385169063150b7a0290614b99903390899088908890600401615a1f565b6020604051808303816000875af1925050508015614bd4575060408051601f3d908101601f19168201909252614bd191810190615a5b565b60015b614c79573d808015614c02576040519150601f19603f3d011682016040523d82523d6000602084013e614c07565b606091505b508051614c715760405162461bcd60e51b815260206004820152603260248201527f4552433732313a207472616e7366657220746f206e6f6e20455243373231526560448201527131b2b4bb32b91034b6b83632b6b2b73a32b960711b606482015260840161050b565b805181602001fd5b6001600160e01b031916630a85bd0160e11b14905061340f565b506001949350505050565b60006001600160e01b031982167f80ac58cd000000000000000000000000000000000000000000000000000000001480614d0157506001600160e01b031982167f5b5e139f00000000000000000000000000000000000000000000000000000000145b80610ec257507f01ffc9a7000000000000000000000000000000000000000000000000000000006001600160e01b0319831614610ec2565b60006001614d46846122fa565b614d509190615935565b600083815260076020526040902054909150808214614da3576001600160a01b03841660009081526006602090815260408083208584528252808320548484528184208190558352600790915290208190555b5060009182526007602090815260408084208490556001600160a01b039094168352600681528383209183525290812055565b600854600090614de890600190615935565b60008381526009602052604081205460088054939450909284908110614e1057614e10615638565b906000526020600020015490508060088381548110614e3157614e31615638565b6000918252602080832090910192909255828152600990915260408082208490558582528120556008805480614e6957614e69615a78565b6001900381819060005260206000200160009055905550505050565b6000614e90836122fa565b6001600160a01b039093166000908152600660209081526040808320868452825280832085905593825260079052919091209190915550565b80516a636f6e736f6c652e6c6f67602083016000808483855afa5050505050565b614ef48383614f68565b614f016000848484614b55565b6113ea5760405162461bcd60e51b815260206004820152603260248201527f4552433732313a207472616e7366657220746f206e6f6e20455243373231526560448201527131b2b4bb32b91034b6b83632b6b2b73a32b960711b606482015260840161050b565b6001600160a01b038216614fbe5760405162461bcd60e51b815260206004820181905260248201527f4552433732313a206d696e7420746f20746865207a65726f2061646472657373604482015260640161050b565b6000818152600260205260409020546001600160a01b0316156150235760405162461bcd60e51b815260206004820152601c60248201527f4552433732313a20746f6b656e20616c7265616479206d696e74656400000000604482015260640161050b565b61502f6000838361478a565b6001600160a01b03821660009081526003602052604081208054600192906150589084906155bf565b9091555050600081815260026020526040808220805473ffffffffffffffffffffffffffffffffffffffff19166001600160a01b03861690811790915590518392907fddf252ad1be2c89b69c2b068fc378daa952ba7f163c4a11628f55a4df523b3ef908290a45050565b8280546150cf906155fd565b90600052602060002090601f0160209004810192826150f15760008555615137565b82601f1061510a57805160ff1916838001178555615137565b82800160010185558215615137579182015b8281111561513757825182559160200191906001019061511c565b50615143929150615184565b5090565b6040518061040001604052806020906020820280368337509192915050565b60405180608001604052806004906020820280368337509192915050565b5b808211156151435760008155600101615185565b6001600160e01b03198116811461185157600080fd5b6000602082840312156151c157600080fd5b8135612fa081615199565b600080604083850312156151df57600080fd5b50508035926020909101359150565b60006020828403121561520057600080fd5b5035919050565b60005b8381101561522257818101518382015260200161520a565b83811115612de25750506000910152565b6000815180845261524b816020860160208601615207565b601f01601f19169290920160200192915050565b602081526000612fa06020830184615233565b80356001600160a01b038116811461286457600080fd5b6000806040838503121561529c57600080fd5b6152a583615272565b946020939093013593505050565b6000806000606084860312156152c857600080fd5b6152d184615272565b92506152df60208501615272565b9150604084013590509250925092565b6000806040838503121561530257600080fd5b8235915061531260208401615272565b90509250929050565b60006020828403121561532d57600080fd5b612fa082615272565b634e487b7160e01b600052604160045260246000fd5b600067ffffffffffffffff8084111561536757615367615336565b604051601f8501601f19908116603f0116810190828211818310171561538f5761538f615336565b816040528093508581528686860111156153a857600080fd5b858560208301376000602087830101525050509392505050565b6000602082840312156153d457600080fd5b813567ffffffffffffffff8111156153eb57600080fd5b8201601f810184136153fc57600080fd5b61340f8482356020840161534c565b6104008101818360005b6020808210615424575061543e565b825163ffffffff1684529283019290910190600101615415565b50505092915050565b6000806040838503121561545a57600080fd5b61546383615272565b91506020830135801515811461547857600080fd5b809150509250929050565b6000806000806080858703121561549957600080fd5b6154a285615272565b93506154b060208601615272565b925060408501359150606085013567ffffffffffffffff8111156154d357600080fd5b8501601f810187136154e457600080fd5b6154f38782356020840161534c565b91505092959194509250565b803561ffff8116811461286457600080fd5b60008060006060848603121561552657600080fd5b61552f846154ff565b925061553d602085016154ff565b915061554b604085016154ff565b90509250925092565b60808101818360005b600481101561543e57815160ff1683526020928301929091019060010161555d565b6000806040838503121561559257600080fd5b61559b83615272565b915061531260208401615272565b634e487b7160e01b600052601160045260246000fd5b600082198211156155d2576155d26155a9565b500190565b600061ffff8083168185168083038211156155f4576155f46155a9565b01949350505050565b600181811c9082168061561157607f821691505b6020821081141561563257634e487b7160e01b600052602260045260246000fd5b50919050565b634e487b7160e01b600052603260045260246000fd5b600061ffff83811690831681811015615669576156696155a9565b039392505050565b600081600019048311821515161561568b5761568b6155a9565b500290565b60006000198214156156a4576156a46155a9565b5060010190565b634e487b7160e01b600052601260045260246000fd5b600061ffff808416806156d6576156d66156ab565b92169190910692915050565b600061ffff808316818114156156fa576156fa6155a9565b6001019392505050565b600181815b80851115615741578163ffffffff04821115615727576157276155a9565b8085161561573457918102915b93841c9390800290615709565b509250929050565b600181815b80851115615741578161ffff0482111561576a5761576a6155a9565b8085161561577757918102915b93841c939080029061574e565b60008261579357506001610ec2565b816157a057506000610ec2565b81600181146157b657600281146157c0576157f1565b6001915050610ec2565b60ff8411156157d1576157d16155a9565b6001841b915063ffffffff8211156157eb576157eb6155a9565b50610ec2565b5060208310610133831016604e8410600b8410161715615828575081810a63ffffffff811115615823576158236155a9565b610ec2565b6158328383615704565b8063ffffffff04821115615848576158486155a9565b029392505050565b60008261585f57506001610ec2565b8161586c57506000610ec2565b81600181146157b65760028114615882576158ab565b60ff841115615893576158936155a9565b6001841b915061ffff8211156157eb576157eb6155a9565b5060208310610133831016604e8410600b84101617156158db575081810a61ffff811115615823576158236155a9565b6158e58383615749565b8061ffff04821115615848576158486155a9565b6000612fa061ffff841663ffffffff8416615784565b60008351615921818460208801615207565b8351908301906155f4818360208801615207565b600082821015615947576159476155a9565b500390565b7f416363657373436f6e74726f6c3a206163636f756e7420000000000000000000815260008351615984816017850160208801615207565b7f206973206d697373696e6720726f6c652000000000000000000000000000000060179184019182015283516159c1816028840160208801615207565b01602801949350505050565b600061ffff61340f818516828516615850565b6000826159ef576159ef6156ab565b500690565b600082615a0357615a036156ab565b500490565b600081615a1757615a176155a9565b506000190190565b60006001600160a01b03808716835280861660208401525083604083015260806060830152615a516080830184615233565b9695505050505050565b600060208284031215615a6d57600080fd5b8151612fa081615199565b634e487b7160e01b600052603160045260246000fdfea26469706673582212200f2d45d3f1e3a4d70d6caef78b79ec026809a80c6cc4ef3efab45e7e857c9f9c64736f6c634300080a00334552433732313a207472616e7366657220746f206e6f6e2045524337323152652fa3586e1228a6d020f44df84a4695dcd1cfcb55a51cd832563c729d866522ff68747470733a2f2f6d6574612e636f696e6c616e6465722e6f6e652f7365656b6572732f",
  "linkReferences": {},
  "deployedLinkReferences": {}
}