{
  "_format": "hh-sol-artifact-1",
  "contractName": "Seekers",
  "sourceName": "contracts/Seekers.sol",
  "abi": [
    {
      "inputs": [],
      "stateMutability": "nonpayable",
      "type": "constructor"
    },
    {
      "anonymous": false,
      "inputs": [
        {
          "indexed": true,
          "internalType": "address",
          "name": "owner",
          "type": "address"
        },
        {
          "indexed": true,
          "internalType": "address",
          "name": "approved",
          "type": "address"
        },
        {
          "indexed": true,
          "internalType": "uint256",
          "name": "tokenId",
          "type": "uint256"
        }
      ],
      "name": "Approval",
      "type": "event"
    },
    {
      "anonymous": false,
      "inputs": [
        {
          "indexed": true,
          "internalType": "address",
          "name": "owner",
          "type": "address"
        },
        {
          "indexed": true,
          "internalType": "address",
          "name": "operator",
          "type": "address"
        },
        {
          "indexed": false,
          "internalType": "bool",
          "name": "approved",
          "type": "bool"
        }
      ],
      "name": "ApprovalForAll",
      "type": "event"
    },
    {
      "anonymous": false,
      "inputs": [
        {
          "indexed": false,
          "internalType": "uint256",
          "name": "id",
          "type": "uint256"
        }
      ],
      "name": "DethscalesRerolled",
      "type": "event"
    },
    {
      "anonymous": false,
      "inputs": [],
      "name": "FirstMintActivated",
      "type": "event"
    },
    {
      "anonymous": false,
      "inputs": [
        {
          "indexed": true,
          "internalType": "bytes32",
          "name": "role",
          "type": "bytes32"
        },
        {
          "indexed": true,
          "internalType": "bytes32",
          "name": "previousAdminRole",
          "type": "bytes32"
        },
        {
          "indexed": true,
          "internalType": "bytes32",
          "name": "newAdminRole",
          "type": "bytes32"
        }
      ],
      "name": "RoleAdminChanged",
      "type": "event"
    },
    {
      "anonymous": false,
      "inputs": [
        {
          "indexed": true,
          "internalType": "bytes32",
          "name": "role",
          "type": "bytes32"
        },
        {
          "indexed": true,
          "internalType": "address",
          "name": "account",
          "type": "address"
        },
        {
          "indexed": true,
          "internalType": "address",
          "name": "sender",
          "type": "address"
        }
      ],
      "name": "RoleGranted",
      "type": "event"
    },
    {
      "anonymous": false,
      "inputs": [
        {
          "indexed": true,
          "internalType": "bytes32",
          "name": "role",
          "type": "bytes32"
        },
        {
          "indexed": true,
          "internalType": "address",
          "name": "account",
          "type": "address"
        },
        {
          "indexed": true,
          "internalType": "address",
          "name": "sender",
          "type": "address"
        }
      ],
      "name": "RoleRevoked",
      "type": "event"
    },
    {
      "anonymous": false,
      "inputs": [
        {
          "indexed": true,
          "internalType": "uint256",
          "name": "seekerId",
          "type": "uint256"
        },
        {
          "indexed": false,
          "internalType": "uint256",
          "name": "scalesAdded",
          "type": "uint256"
        },
        {
          "indexed": false,
          "internalType": "uint256",
          "name": "newScaleCount",
          "type": "uint256"
        }
      ],
      "name": "ScalesAdded",
      "type": "event"
    },
    {
      "anonymous": false,
      "inputs": [],
      "name": "SecondMintActivated",
      "type": "event"
    },
    {
      "anonymous": false,
      "inputs": [
        {
          "indexed": true,
          "internalType": "uint256",
          "name": "seekerId",
          "type": "uint256"
        },
        {
          "indexed": true,
          "internalType": "address",
          "name": "clan",
          "type": "address"
        }
      ],
      "name": "SeekerDeclaredToClan",
      "type": "event"
    },
    {
      "anonymous": false,
      "inputs": [
        {
          "indexed": true,
          "internalType": "uint256",
          "name": "seekerId",
          "type": "uint256"
        }
      ],
      "name": "SeekerUncloaked",
      "type": "event"
    },
    {
      "anonymous": false,
      "inputs": [],
      "name": "ThirdMintActivated",
      "type": "event"
    },
    {
      "anonymous": false,
      "inputs": [
        {
          "indexed": true,
          "internalType": "address",
          "name": "from",
          "type": "address"
        },
        {
          "indexed": true,
          "internalType": "address",
          "name": "to",
          "type": "address"
        },
        {
          "indexed": true,
          "internalType": "uint256",
          "name": "tokenId",
          "type": "uint256"
        }
      ],
      "name": "Transfer",
      "type": "event"
    },
    {
      "anonymous": false,
      "inputs": [],
      "name": "UncloakingAvailable",
      "type": "event"
    },
    {
      "inputs": [],
      "name": "BIRTHSEEKERSCALESTART",
      "outputs": [
        {
          "internalType": "uint256",
          "name": "",
          "type": "uint256"
        }
      ],
      "stateMutability": "view",
      "type": "function"
    },
    {
      "inputs": [],
      "name": "DEFAULT_ADMIN_ROLE",
      "outputs": [
        {
          "internalType": "bytes32",
          "name": "",
          "type": "bytes32"
        }
      ],
      "stateMutability": "view",
      "type": "function"
    },
    {
      "inputs": [],
      "name": "DETHSCALEREROLLCOST",
      "outputs": [
        {
          "internalType": "uint256",
          "name": "",
          "type": "uint256"
        }
      ],
      "stateMutability": "view",
      "type": "function"
    },
    {
      "inputs": [],
      "name": "FIRSTMINT",
      "outputs": [
        {
          "internalType": "uint256",
          "name": "",
          "type": "uint256"
        }
      ],
      "stateMutability": "view",
      "type": "function"
    },
    {
      "inputs": [],
      "name": "FIRSTMINTPRICE",
      "outputs": [
        {
          "internalType": "uint256",
          "name": "",
          "type": "uint256"
        }
      ],
      "stateMutability": "view",
      "type": "function"
    },
    {
      "inputs": [],
      "name": "GAME_ROLE",
      "outputs": [
        {
          "internalType": "bytes32",
          "name": "",
          "type": "bytes32"
        }
      ],
      "stateMutability": "view",
      "type": "function"
    },
    {
      "inputs": [],
      "name": "KEEPERS_ROLE",
      "outputs": [
        {
          "internalType": "bytes32",
          "name": "",
          "type": "bytes32"
        }
      ],
      "stateMutability": "view",
      "type": "function"
    },
    {
      "inputs": [],
      "name": "MAXMINTABLE",
      "outputs": [
        {
          "internalType": "uint256",
          "name": "",
          "type": "uint256"
        }
      ],
      "stateMutability": "view",
      "type": "function"
    },
    {
      "inputs": [],
      "name": "MAXPIXELS",
      "outputs": [
        {
          "internalType": "uint256",
          "name": "",
          "type": "uint256"
        }
      ],
      "stateMutability": "view",
      "type": "function"
    },
    {
      "inputs": [],
      "name": "MAXSEEKERS",
      "outputs": [
        {
          "internalType": "uint256",
          "name": "",
          "type": "uint256"
        }
      ],
      "stateMutability": "view",
      "type": "function"
    },
    {
      "inputs": [],
      "name": "SECONDMINT",
      "outputs": [
        {
          "internalType": "uint256",
          "name": "",
          "type": "uint256"
        }
      ],
      "stateMutability": "view",
      "type": "function"
    },
    {
      "inputs": [],
      "name": "SECONDMINTPRICE",
      "outputs": [
        {
          "internalType": "uint256",
          "name": "",
          "type": "uint256"
        }
      ],
      "stateMutability": "view",
      "type": "function"
    },
    {
      "inputs": [],
      "name": "SUMMONSEEKERSCALESTART",
      "outputs": [
        {
          "internalType": "uint256",
          "name": "",
          "type": "uint256"
        }
      ],
      "stateMutability": "view",
      "type": "function"
    },
    {
      "inputs": [],
      "name": "THIRDMINT",
      "outputs": [
        {
          "internalType": "uint256",
          "name": "",
          "type": "uint256"
        }
      ],
      "stateMutability": "view",
      "type": "function"
    },
    {
      "inputs": [],
      "name": "THIRDMINTPRICE",
      "outputs": [
        {
          "internalType": "uint256",
          "name": "",
          "type": "uint256"
        }
      ],
      "stateMutability": "view",
      "type": "function"
    },
    {
      "inputs": [],
      "name": "THIRDMINT_INCR",
      "outputs": [
        {
          "internalType": "uint256",
          "name": "",
          "type": "uint256"
        }
      ],
      "stateMutability": "view",
      "type": "function"
    },
    {
      "inputs": [
        {
          "internalType": "uint16",
          "name": "mod",
          "type": "uint16"
        },
        {
          "internalType": "uint16",
          "name": "r1",
          "type": "uint16"
        },
        {
          "internalType": "uint16",
          "name": "r2",
          "type": "uint16"
        }
      ],
      "name": "_getRandomNumber16",
      "outputs": [
        {
          "internalType": "uint16",
          "name": "",
          "type": "uint16"
        }
      ],
      "stateMutability": "pure",
      "type": "function"
    },
    {
      "inputs": [],
      "name": "activateFirstMint",
      "outputs": [],
      "stateMutability": "nonpayable",
      "type": "function"
    },
    {
      "inputs": [],
      "name": "activateSecondMint",
      "outputs": [],
      "stateMutability": "nonpayable",
      "type": "function"
    },
    {
      "inputs": [],
      "name": "activateThirdMint",
      "outputs": [],
      "stateMutability": "nonpayable",
      "type": "function"
    },
    {
      "inputs": [
        {
          "internalType": "address",
          "name": "gameContract",
          "type": "address"
        }
      ],
      "name": "addGameContract",
      "outputs": [],
      "stateMutability": "nonpayable",
      "type": "function"
    },
    {
      "inputs": [
        {
          "internalType": "address",
          "name": "newKeeper",
          "type": "address"
        }
      ],
      "name": "addKeeper",
      "outputs": [],
      "stateMutability": "nonpayable",
      "type": "function"
    },
    {
      "inputs": [
        {
          "internalType": "uint256",
          "name": "id",
          "type": "uint256"
        },
        {
          "internalType": "uint256",
          "name": "scales",
          "type": "uint256"
        }
      ],
      "name": "addScales",
      "outputs": [],
      "stateMutability": "nonpayable",
      "type": "function"
    },
    {
      "inputs": [
        {
          "internalType": "address",
          "name": "to",
          "type": "address"
        },
        {
          "internalType": "uint256",
          "name": "tokenId",
          "type": "uint256"
        }
      ],
      "name": "approve",
      "outputs": [],
      "stateMutability": "nonpayable",
      "type": "function"
    },
    {
      "inputs": [
        {
          "internalType": "address",
          "name": "owner",
          "type": "address"
        }
      ],
      "name": "balanceOf",
      "outputs": [
        {
          "internalType": "uint256",
          "name": "",
          "type": "uint256"
        }
      ],
      "stateMutability": "view",
      "type": "function"
    },
    {
      "inputs": [
        {
          "internalType": "address",
          "name": "to",
          "type": "address"
        }
      ],
      "name": "birthSeeker",
      "outputs": [
        {
          "internalType": "uint256",
          "name": "",
          "type": "uint256"
        }
      ],
      "stateMutability": "nonpayable",
      "type": "function"
    },
    {
      "inputs": [],
      "name": "currentBuyableSeekers",
      "outputs": [
        {
          "internalType": "uint256",
          "name": "",
          "type": "uint256"
        }
      ],
      "stateMutability": "view",
      "type": "function"
    },
    {
      "inputs": [],
      "name": "currentPrice",
      "outputs": [
        {
          "internalType": "uint256",
          "name": "",
          "type": "uint256"
        }
      ],
      "stateMutability": "view",
      "type": "function"
    },
    {
      "inputs": [
        {
          "internalType": "uint256",
          "name": "id",
          "type": "uint256"
        },
        {
          "internalType": "address",
          "name": "clanAddress",
          "type": "address"
        }
      ],
      "name": "declareForClan",
      "outputs": [],
      "stateMutability": "nonpayable",
      "type": "function"
    },
    {
      "inputs": [],
      "name": "endGoodsOnly",
      "outputs": [],
      "stateMutability": "nonpayable",
      "type": "function"
    },
    {
      "inputs": [],
      "name": "evilsOnly",
      "outputs": [
        {
          "internalType": "bool",
          "name": "",
          "type": "bool"
        }
      ],
      "stateMutability": "view",
      "type": "function"
    },
    {
      "inputs": [],
      "name": "firstMintActive",
      "outputs": [
        {
          "internalType": "bool",
          "name": "",
          "type": "bool"
        }
      ],
      "stateMutability": "view",
      "type": "function"
    },
    {
      "inputs": [
        {
          "internalType": "uint256",
          "name": "id",
          "type": "uint256"
        }
      ],
      "name": "getAlignmentById",
      "outputs": [
        {
          "internalType": "string",
          "name": "",
          "type": "string"
        }
      ],
      "stateMutability": "view",
      "type": "function"
    },
    {
      "inputs": [
        {
          "internalType": "uint256",
          "name": "id",
          "type": "uint256"
        }
      ],
      "name": "getApById",
      "outputs": [
        {
          "internalType": "uint256[4]",
          "name": "",
          "type": "uint256[4]"
        }
      ],
      "stateMutability": "view",
      "type": "function"
    },
    {
      "inputs": [
        {
          "internalType": "uint256",
          "name": "tokenId",
          "type": "uint256"
        }
      ],
      "name": "getApproved",
      "outputs": [
        {
          "internalType": "address",
          "name": "",
          "type": "address"
        }
      ],
      "stateMutability": "view",
      "type": "function"
    },
    {
      "inputs": [
        {
          "internalType": "uint256",
          "name": "id",
          "type": "uint256"
        }
      ],
      "name": "getBirthStatusById",
      "outputs": [
        {
          "internalType": "bool",
          "name": "",
          "type": "bool"
        }
      ],
      "stateMutability": "view",
      "type": "function"
    },
    {
      "inputs": [
        {
          "internalType": "uint256",
          "name": "id",
          "type": "uint256"
        }
      ],
      "name": "getClanById",
      "outputs": [
        {
          "internalType": "address",
          "name": "",
          "type": "address"
        }
      ],
      "stateMutability": "view",
      "type": "function"
    },
    {
      "inputs": [
        {
          "internalType": "uint256",
          "name": "id",
          "type": "uint256"
        }
      ],
      "name": "getCloakStatusById",
      "outputs": [
        {
          "internalType": "bool",
          "name": "",
          "type": "bool"
        }
      ],
      "stateMutability": "view",
      "type": "function"
    },
    {
      "inputs": [
        {
          "internalType": "uint256",
          "name": "id",
          "type": "uint256"
        }
      ],
      "name": "getDethscalesById",
      "outputs": [
        {
          "internalType": "uint16",
          "name": "",
          "type": "uint16"
        }
      ],
      "stateMutability": "view",
      "type": "function"
    },
    {
      "inputs": [
        {
          "internalType": "uint256",
          "name": "id",
          "type": "uint256"
        }
      ],
      "name": "getFullCloak",
      "outputs": [
        {
          "internalType": "uint32[32]",
          "name": "",
          "type": "uint32[32]"
        }
      ],
      "stateMutability": "view",
      "type": "function"
    },
    {
      "inputs": [
        {
          "internalType": "bytes32",
          "name": "role",
          "type": "bytes32"
        }
      ],
      "name": "getRoleAdmin",
      "outputs": [
        {
          "internalType": "bytes32",
          "name": "",
          "type": "bytes32"
        }
      ],
      "stateMutability": "view",
      "type": "function"
    },
    {
      "inputs": [
        {
          "internalType": "uint256",
          "name": "id",
          "type": "uint256"
        }
      ],
      "name": "getScaleCountById",
      "outputs": [
        {
          "internalType": "uint256",
          "name": "",
          "type": "uint256"
        }
      ],
      "stateMutability": "view",
      "type": "function"
    },
    {
      "inputs": [],
      "name": "goodsOnly",
      "outputs": [
        {
          "internalType": "bool",
          "name": "",
          "type": "bool"
        }
      ],
      "stateMutability": "view",
      "type": "function"
    },
    {
      "inputs": [
        {
          "internalType": "bytes32",
          "name": "role",
          "type": "bytes32"
        },
        {
          "internalType": "address",
          "name": "account",
          "type": "address"
        }
      ],
      "name": "grantRole",
      "outputs": [],
      "stateMutability": "nonpayable",
      "type": "function"
    },
    {
      "inputs": [
        {
          "internalType": "bytes32",
          "name": "role",
          "type": "bytes32"
        },
        {
          "internalType": "address",
          "name": "account",
          "type": "address"
        }
      ],
      "name": "hasRole",
      "outputs": [
        {
          "internalType": "bool",
          "name": "",
          "type": "bool"
        }
      ],
      "stateMutability": "view",
      "type": "function"
    },
    {
      "inputs": [
        {
          "internalType": "address",
          "name": "owner",
          "type": "address"
        },
        {
          "internalType": "address",
          "name": "operator",
          "type": "address"
        }
      ],
      "name": "isApprovedForAll",
      "outputs": [
        {
          "internalType": "bool",
          "name": "",
          "type": "bool"
        }
      ],
      "stateMutability": "view",
      "type": "function"
    },
    {
      "inputs": [
        {
          "internalType": "uint256",
          "name": "summonCount",
          "type": "uint256"
        }
      ],
      "name": "keepersSummonSeeker",
      "outputs": [],
      "stateMutability": "nonpayable",
      "type": "function"
    },
    {
      "inputs": [],
      "name": "name",
      "outputs": [
        {
          "internalType": "string",
          "name": "",
          "type": "string"
        }
      ],
      "stateMutability": "view",
      "type": "function"
    },
    {
      "inputs": [
        {
          "internalType": "uint256",
          "name": "tokenId",
          "type": "uint256"
        }
      ],
      "name": "ownerOf",
      "outputs": [
        {
          "internalType": "address",
          "name": "",
          "type": "address"
        }
      ],
      "stateMutability": "view",
      "type": "function"
    },
    {
      "inputs": [],
      "name": "ownerWithdraw",
      "outputs": [],
      "stateMutability": "payable",
      "type": "function"
    },
    {
      "inputs": [],
      "name": "performUncloaking",
      "outputs": [],
      "stateMutability": "nonpayable",
      "type": "function"
    },
    {
      "inputs": [],
      "name": "released",
      "outputs": [
        {
          "internalType": "bool",
          "name": "",
          "type": "bool"
        }
      ],
      "stateMutability": "view",
      "type": "function"
    },
    {
      "inputs": [
        {
          "internalType": "bytes32",
          "name": "role",
          "type": "bytes32"
        },
        {
          "internalType": "address",
          "name": "account",
          "type": "address"
        }
      ],
      "name": "renounceRole",
      "outputs": [],
      "stateMutability": "nonpayable",
      "type": "function"
    },
    {
      "inputs": [
        {
          "internalType": "uint256",
          "name": "id",
          "type": "uint256"
        }
      ],
      "name": "rerollDethscales",
      "outputs": [],
      "stateMutability": "nonpayable",
      "type": "function"
    },
    {
      "inputs": [
        {
          "internalType": "bytes32",
          "name": "role",
          "type": "bytes32"
        },
        {
          "internalType": "address",
          "name": "account",
          "type": "address"
        }
      ],
      "name": "revokeRole",
      "outputs": [],
      "stateMutability": "nonpayable",
      "type": "function"
    },
    {
      "inputs": [
        {
          "internalType": "address",
          "name": "from",
          "type": "address"
        },
        {
          "internalType": "address",
          "name": "to",
          "type": "address"
        },
        {
          "internalType": "uint256",
          "name": "tokenId",
          "type": "uint256"
        }
      ],
      "name": "safeTransferFrom",
      "outputs": [],
      "stateMutability": "nonpayable",
      "type": "function"
    },
    {
      "inputs": [
        {
          "internalType": "address",
          "name": "from",
          "type": "address"
        },
        {
          "internalType": "address",
          "name": "to",
          "type": "address"
        },
        {
          "internalType": "uint256",
          "name": "tokenId",
          "type": "uint256"
        },
        {
          "internalType": "bytes",
          "name": "_data",
          "type": "bytes"
        }
      ],
      "name": "safeTransferFrom",
      "outputs": [],
      "stateMutability": "nonpayable",
      "type": "function"
    },
    {
      "inputs": [],
      "name": "secondMintActive",
      "outputs": [
        {
          "internalType": "bool",
          "name": "",
          "type": "bool"
        }
      ],
      "stateMutability": "view",
      "type": "function"
    },
    {
      "inputs": [],
      "name": "seizureMintIncrement",
      "outputs": [],
      "stateMutability": "nonpayable",
      "type": "function"
    },
    {
      "inputs": [
        {
          "internalType": "address",
          "name": "winner",
          "type": "address"
        }
      ],
      "name": "sendWinnerSeeker",
      "outputs": [],
      "stateMutability": "nonpayable",
      "type": "function"
    },
    {
      "inputs": [
        {
          "internalType": "address",
          "name": "operator",
          "type": "address"
        },
        {
          "internalType": "bool",
          "name": "approved",
          "type": "bool"
        }
      ],
      "name": "setApprovalForAll",
      "outputs": [],
      "stateMutability": "nonpayable",
      "type": "function"
    },
    {
      "inputs": [
        {
          "internalType": "string",
          "name": "baseTokenURI",
          "type": "string"
        }
      ],
      "name": "setBaseURI",
      "outputs": [],
      "stateMutability": "nonpayable",
      "type": "function"
    },
    {
      "inputs": [
        {
          "internalType": "uint256",
          "name": "summonCount",
          "type": "uint256"
        }
      ],
      "name": "summonSeeker",
      "outputs": [],
      "stateMutability": "payable",
      "type": "function"
    },
    {
      "inputs": [
        {
          "internalType": "bytes4",
          "name": "interfaceId",
          "type": "bytes4"
        }
      ],
      "name": "supportsInterface",
      "outputs": [
        {
          "internalType": "bool",
          "name": "",
          "type": "bool"
        }
      ],
      "stateMutability": "view",
      "type": "function"
    },
    {
      "inputs": [],
      "name": "symbol",
      "outputs": [
        {
          "internalType": "string",
          "name": "",
          "type": "string"
        }
      ],
      "stateMutability": "view",
      "type": "function"
    },
    {
      "inputs": [],
      "name": "thirdMintActive",
      "outputs": [
        {
          "internalType": "bool",
          "name": "",
          "type": "bool"
        }
      ],
      "stateMutability": "view",
      "type": "function"
    },
    {
      "inputs": [
        {
          "internalType": "uint256",
          "name": "index",
          "type": "uint256"
        }
      ],
      "name": "tokenByIndex",
      "outputs": [
        {
          "internalType": "uint256",
          "name": "",
          "type": "uint256"
        }
      ],
      "stateMutability": "view",
      "type": "function"
    },
    {
      "inputs": [
        {
          "internalType": "address",
          "name": "owner",
          "type": "address"
        },
        {
          "internalType": "uint256",
          "name": "index",
          "type": "uint256"
        }
      ],
      "name": "tokenOfOwnerByIndex",
      "outputs": [
        {
          "internalType": "uint256",
          "name": "",
          "type": "uint256"
        }
      ],
      "stateMutability": "view",
      "type": "function"
    },
    {
      "inputs": [
        {
          "internalType": "uint256",
          "name": "tokenId",
          "type": "uint256"
        }
      ],
      "name": "tokenURI",
      "outputs": [
        {
          "internalType": "string",
          "name": "",
          "type": "string"
        }
      ],
      "stateMutability": "view",
      "type": "function"
    },
    {
      "inputs": [],
      "name": "totalSupply",
      "outputs": [
        {
          "internalType": "uint256",
          "name": "",
          "type": "uint256"
        }
      ],
      "stateMutability": "view",
      "type": "function"
    },
    {
      "inputs": [
        {
          "internalType": "address",
          "name": "from",
          "type": "address"
        },
        {
          "internalType": "address",
          "name": "to",
          "type": "address"
        },
        {
          "internalType": "uint256",
          "name": "tokenId",
          "type": "uint256"
        }
      ],
      "name": "transferFrom",
      "outputs": [],
      "stateMutability": "nonpayable",
      "type": "function"
    },
    {
      "inputs": [
        {
          "internalType": "uint256",
          "name": "id",
          "type": "uint256"
        }
      ],
      "name": "uncloakSeeker",
      "outputs": [],
      "stateMutability": "nonpayable",
      "type": "function"
    },
    {
      "inputs": [],
      "name": "uncloaking",
      "outputs": [
        {
          "internalType": "bool",
          "name": "",
          "type": "bool"
        }
      ],
      "stateMutability": "view",
      "type": "function"
    },
    {
      "stateMutability": "payable",
      "type": "receive"
    }
  ],
  "bytecode": "0x60806040526000600c556000600d556000600e556000600f55600060105560006011556000601260006101000a81548160ff0219169083151502179055506000601260016101000a81548160ff0219169083151502179055506000601260026101000a81548160ff0219169083151502179055506000601260036101000a81548160ff0219169083151502179055506000601260046101000a81548160ff0219169083151502179055506000601260056101000a81548160ff0219169083151502179055506000601260066101000a81548160ff0219169083151502179055506040518060600160405280602481526020016200a13c602491396015908051906020019062000110929190620010d3565b506040518061012001604052806040518060400160405280600b81526020017f4c617766756c20476f6f6400000000000000000000000000000000000000000081525081526020016040518060400160405280600c81526020017f4e65757472616c20476f6f64000000000000000000000000000000000000000081525081526020016040518060400160405280600c81526020017f4368616f74696320476f6f64000000000000000000000000000000000000000081525081526020016040518060400160405280600e81526020017f4c617766756c204e65757472616c00000000000000000000000000000000000081525081526020016040518060400160405280600c81526020017f54727565204e65757472616c000000000000000000000000000000000000000081525081526020016040518060400160405280600f81526020017f4368616f746963204e65757472616c000000000000000000000000000000000081525081526020016040518060400160405280600b81526020017f4c617766756c204576696c00000000000000000000000000000000000000000081525081526020016040518060400160405280600c81526020017f4e65757472616c204576696c000000000000000000000000000000000000000081525081526020016040518060400160405280600c81526020017f4368616f746963204576696c000000000000000000000000000000000000000081525081525060169060096200034092919062001164565b503480156200034e57600080fd5b506040518060400160405280600781526020017f5365656b657273000000000000000000000000000000000000000000000000008152506040518060400160405280600481526020017f5345454b000000000000000000000000000000000000000000000000000000008152508160009080519060200190620003d3929190620010d3565b508060019080519060200190620003ec929190620010d3565b5050506001600b819055506200040c6000801b33620004ec60201b60201c565b6200043e7f2fa3586e1228a6d020f44df84a4695dcd1cfcb55a51cd832563c729d866522ff33620004ec60201b60201c565b620004737f2fa3586e1228a6d020f44df84a4695dcd1cfcb55a51cd832563c729d866522ff6000801b6200050260201b60201c565b6001600c600082825462000488919062001291565b92505081905550620004a333600c546200056660201b60201c565b6002604061010b610d05611388620004bc919062001291565b620004c8919062001291565b620004d4919062001291565b620004e0919062001291565b600d81905550620017f3565b620004fe82826200058c60201b60201c565b5050565b600062000515836200067e60201b60201c565b905081600a6000858152602001908152602001600020600101819055508181847fbd79b86ffe0ab8e8776151514217cd7cacd52c909f66475c3af44e129f0b00ff60405160405180910390a4505050565b620005888282604051806020016040528060008152506200069e60201b60201c565b5050565b6200059e82826200070c60201b60201c565b6200067a576001600a600084815260200190815260200160002060000160008373ffffffffffffffffffffffffffffffffffffffff1673ffffffffffffffffffffffffffffffffffffffff16815260200190815260200160002060006101000a81548160ff0219169083151502179055506200061f6200077760201b60201c565b73ffffffffffffffffffffffffffffffffffffffff168173ffffffffffffffffffffffffffffffffffffffff16837f2f8788117e7eff1d82e926ec794901d17c78024a50270940304540a733656f0d60405160405180910390a45b5050565b6000600a6000838152602001908152602001600020600101549050919050565b620006b083836200077f60201b60201c565b620006c560008484846200096560201b60201c565b62000707576040517f08c379a0000000000000000000000000000000000000000000000000000000008152600401620006fe9062001375565b60405180910390fd5b505050565b6000600a600084815260200190815260200160002060000160008373ffffffffffffffffffffffffffffffffffffffff1673ffffffffffffffffffffffffffffffffffffffff16815260200190815260200160002060009054906101000a900460ff16905092915050565b600033905090565b600073ffffffffffffffffffffffffffffffffffffffff168273ffffffffffffffffffffffffffffffffffffffff161415620007f2576040517f08c379a0000000000000000000000000000000000000000000000000000000008152600401620007e990620013e7565b60405180910390fd5b620008038162000b1f60201b60201c565b1562000846576040517f08c379a00000000000000000000000000000000000000000000000000000000081526004016200083d9062001459565b60405180910390fd5b6200085a6000838362000b8b60201b60201c565b6001600360008473ffffffffffffffffffffffffffffffffffffffff1673ffffffffffffffffffffffffffffffffffffffff1681526020019081526020016000206000828254620008ac919062001291565b92505081905550816002600083815260200190815260200160002060006101000a81548173ffffffffffffffffffffffffffffffffffffffff021916908373ffffffffffffffffffffffffffffffffffffffff160217905550808273ffffffffffffffffffffffffffffffffffffffff16600073ffffffffffffffffffffffffffffffffffffffff167fddf252ad1be2c89b69c2b068fc378daa952ba7f163c4a11628f55a4df523b3ef60405160405180910390a45050565b6000620009938473ffffffffffffffffffffffffffffffffffffffff1662000cd260201b62003c2b1760201c565b1562000b12578373ffffffffffffffffffffffffffffffffffffffff1663150b7a02620009c56200077760201b60201c565b8786866040518563ffffffff1660e01b8152600401620009e9949392919062001575565b602060405180830381600087803b15801562000a0457600080fd5b505af192505050801562000a3857506040513d601f19601f8201168201806040525081019062000a3591906200162b565b60015b62000ac1573d806000811462000a6b576040519150601f19603f3d011682016040523d82523d6000602084013e62000a70565b606091505b5060008151141562000ab9576040517f08c379a000000000000000000000000000000000000000000000000000000000815260040162000ab09062001375565b60405180910390fd5b805181602001fd5b63150b7a0260e01b7bffffffffffffffffffffffffffffffffffffffffffffffffffffffff1916817bffffffffffffffffffffffffffffffffffffffffffffffffffffffff19161491505062000b17565b600190505b949350505050565b60008073ffffffffffffffffffffffffffffffffffffffff166002600084815260200190815260200160002060009054906101000a900473ffffffffffffffffffffffffffffffffffffffff1673ffffffffffffffffffffffffffffffffffffffff1614159050919050565b62000ba383838362000ce560201b62003c3e1760201c565b600073ffffffffffffffffffffffffffffffffffffffff168373ffffffffffffffffffffffffffffffffffffffff16141562000bf05762000bea8162000cea60201b60201c565b62000c38565b8173ffffffffffffffffffffffffffffffffffffffff168373ffffffffffffffffffffffffffffffffffffffff161462000c375762000c36838262000d3360201b60201c565b5b5b600073ffffffffffffffffffffffffffffffffffffffff168273ffffffffffffffffffffffffffffffffffffffff16141562000c855762000c7f8162000eb060201b60201c565b62000ccd565b8273ffffffffffffffffffffffffffffffffffffffff168273ffffffffffffffffffffffffffffffffffffffff161462000ccc5762000ccb828262000f8c60201b60201c565b5b5b505050565b600080823b905060008111915050919050565b505050565b6008805490506009600083815260200190815260200160002081905550600881908060018154018082558091505060019003906000526020600020016000909190919091505550565b6000600162000d4d846200101860201b620025201760201c565b62000d5991906200165d565b905060006007600084815260200190815260200160002054905081811462000e3f576000600660008673ffffffffffffffffffffffffffffffffffffffff1673ffffffffffffffffffffffffffffffffffffffff168152602001908152602001600020600084815260200190815260200160002054905080600660008773ffffffffffffffffffffffffffffffffffffffff1673ffffffffffffffffffffffffffffffffffffffff168152602001908152602001600020600084815260200190815260200160002081905550816007600083815260200190815260200160002081905550505b6007600084815260200190815260200160002060009055600660008573ffffffffffffffffffffffffffffffffffffffff1673ffffffffffffffffffffffffffffffffffffffff16815260200190815260200160002060008381526020019081526020016000206000905550505050565b6000600160088054905062000ec691906200165d565b905060006009600084815260200190815260200160002054905060006008838154811062000ef95762000ef862001698565b5b90600052602060002001549050806008838154811062000f1e5762000f1d62001698565b5b90600052602060002001819055508160096000838152602001908152602001600020819055506009600085815260200190815260200160002060009055600880548062000f705762000f6f620016c7565b5b6001900381819060005260206000200160009055905550505050565b600062000fa4836200101860201b620025201760201c565b905081600660008573ffffffffffffffffffffffffffffffffffffffff1673ffffffffffffffffffffffffffffffffffffffff168152602001908152602001600020600083815260200190815260200160002081905550806007600084815260200190815260200160002081905550505050565b60008073ffffffffffffffffffffffffffffffffffffffff168273ffffffffffffffffffffffffffffffffffffffff1614156200108c576040517f08c379a000000000000000000000000000000000000000000000000000000000815260040162001083906200176c565b60405180910390fd5b600360008373ffffffffffffffffffffffffffffffffffffffff1673ffffffffffffffffffffffffffffffffffffffff168152602001908152602001600020549050919050565b828054620010e190620017bd565b90600052602060002090601f01602090048101928262001105576000855562001151565b82601f106200112057805160ff191683800117855562001151565b8280016001018555821562001151579182015b828111156200115057825182559160200191906001019062001133565b5b509050620011609190620011cb565b5090565b828054828255906000526020600020908101928215620011b8579160200282015b82811115620011b7578251829080519060200190620011a6929190620010d3565b509160200191906001019062001185565b5b509050620011c79190620011ea565b5090565b5b80821115620011e6576000816000905550600101620011cc565b5090565b5b808211156200120e576000818162001204919062001212565b50600101620011eb565b5090565b5080546200122090620017bd565b6000825580601f1062001234575062001255565b601f016020900490600052602060002090810190620012549190620011cb565b5b50565b6000819050919050565b7f4e487b7100000000000000000000000000000000000000000000000000000000600052601160045260246000fd5b60006200129e8262001258565b9150620012ab8362001258565b9250827fffffffffffffffffffffffffffffffffffffffffffffffffffffffffffffffff03821115620012e357620012e262001262565b5b828201905092915050565b600082825260208201905092915050565b7f4552433732313a207472616e7366657220746f206e6f6e20455243373231526560008201527f63656976657220696d706c656d656e7465720000000000000000000000000000602082015250565b60006200135d603283620012ee565b91506200136a82620012ff565b604082019050919050565b6000602082019050818103600083015262001390816200134e565b9050919050565b7f4552433732313a206d696e7420746f20746865207a65726f2061646472657373600082015250565b6000620013cf602083620012ee565b9150620013dc8262001397565b602082019050919050565b600060208201905081810360008301526200140281620013c0565b9050919050565b7f4552433732313a20746f6b656e20616c7265616479206d696e74656400000000600082015250565b600062001441601c83620012ee565b91506200144e8262001409565b602082019050919050565b60006020820190508181036000830152620014748162001432565b9050919050565b600073ffffffffffffffffffffffffffffffffffffffff82169050919050565b6000620014a8826200147b565b9050919050565b620014ba816200149b565b82525050565b620014cb8162001258565b82525050565b600081519050919050565b600082825260208201905092915050565b60005b838110156200150d578082015181840152602081019050620014f0565b838111156200151d576000848401525b50505050565b6000601f19601f8301169050919050565b60006200154182620014d1565b6200154d8185620014dc565b93506200155f818560208601620014ed565b6200156a8162001523565b840191505092915050565b60006080820190506200158c6000830187620014af565b6200159b6020830186620014af565b620015aa6040830185620014c0565b8181036060830152620015be818462001534565b905095945050505050565b600080fd5b60007fffffffff0000000000000000000000000000000000000000000000000000000082169050919050565b6200160581620015ce565b81146200161157600080fd5b50565b6000815190506200162581620015fa565b92915050565b600060208284031215620016445762001643620015c9565b5b6000620016548482850162001614565b91505092915050565b60006200166a8262001258565b9150620016778362001258565b9250828210156200168d576200168c62001262565b5b828203905092915050565b7f4e487b7100000000000000000000000000000000000000000000000000000000600052603260045260246000fd5b7f4e487b7100000000000000000000000000000000000000000000000000000000600052603160045260246000fd5b7f4552433732313a2062616c616e636520717565727920666f7220746865207a6560008201527f726f206164647265737300000000000000000000000000000000000000000000602082015250565b600062001754602a83620012ee565b91506200176182620016f6565b604082019050919050565b60006020820190508181036000830152620017878162001745565b9050919050565b7f4e487b7100000000000000000000000000000000000000000000000000000000600052602260045260246000fd5b60006002820490506001821680620017d657607f821691505b60208210811415620017ed57620017ec6200178e565b5b50919050565b61893980620018036000396000f3fe60806040526004361061042a5760003560e01c80638ae626a211610229578063c2b278791161012e578063dec8a315116100b6578063eeb3f66d1161007a578063eeb3f66d1461105b578063f5ee25ac14611086578063fe019462146110b1578063ff25b2b2146110c8578063ff799ebb146110f157610434565b8063dec8a31514610f4e578063e25a8b6114610f79578063e84f579814610fb6578063e985e9c514610ff3578063eb8fafd01461103057610434565b8063c87b56dd116100fd578063c87b56dd14610e7b578063d547741f14610eb8578063d6763bcf14610ee1578063dce62c7914610f0c578063dec3a74c14610f3757610434565b8063c2b2787914610dab578063c2d9382014610de8578063c5ce83f914610e13578063c5f5e3d114610e3e57610434565b8063a1073deb116101b1578063ab40070611610180578063ab40070614610cd8578063af992df814610d03578063b085a3f714610d40578063b473e21614610d57578063b88d4fde14610d8257610434565b8063a1073deb14610c2e578063a217fddf14610c59578063a22cb46514610c84578063a9abebe514610cad57610434565b806396132521116101f85780639613252114610b335780639767d42314610b5e5780639d1b464a14610b895780639dc4263f14610bb45780639e94505814610bf157610434565b80638ae626a214610a6357806391d1485414610a8e57806394a3b4d914610acb57806395d89b4114610b0857610434565b80634032b72b1161032f578063682341fa116102b757806373afc2571161028657806373afc2571461099f5780637aaf13a0146109bb5780637c6aa02a146109e4578063807d88fa14610a0f57806381cd08ee14610a3a57610434565b8063682341fa146108f75780636c97c46f146109225780636e39a3451461094b57806370a082311461096257610434565b80634f6ccce7116102fe5780634f6ccce7146108005780635123b39a1461083d57806351e224ca1461086857806355f804b3146108915780636352211e146108ba57610434565b80634032b72b1461078d57806342842e0e146107b65780634311de8f146107df5780634f483b8e146107e957610434565b80631ca8ca5f116103b25780632f2ff15d116103815780632f2ff15d146106aa5780632f745c59146106d357806336568abe1461071057806336842eae146107395780633a61017b1461076257610434565b80631ca8ca5f146105dc57806322e36c861461060757806323b872dd14610644578063248a9ca31461066d57610434565b8063081812fc116103f9578063081812fc1461050957806308c3ad3514610546578063095ea7b31461057157806310b127091461059a57806318160ddd146105b157610434565b806301ffc9a7146104395780630278c1ba1461047657806303989c71146104b357806306fdde03146104de57610434565b3661043457600080fd5b600080fd5b34801561044557600080fd5b50610460600480360381019061045b9190616336565b61111a565b60405161046d919061637e565b60405180910390f35b34801561048257600080fd5b5061049d600480360381019061049891906163cf565b61112c565b6040516104aa9190616495565b60405180910390f35b3480156104bf57600080fd5b506104c86111da565b6040516104d5919061637e565b60405180910390f35b3480156104ea57600080fd5b506104f36111ed565b6040516105009190616495565b60405180910390f35b34801561051557600080fd5b50610530600480360381019061052b91906163cf565b61127f565b60405161053d91906164f8565b60405180910390f35b34801561055257600080fd5b5061055b611304565b604051610568919061637e565b60405180910390f35b34801561057d57600080fd5b506105986004803603810190610593919061653f565b611317565b005b3480156105a657600080fd5b506105af61142f565b005b3480156105bd57600080fd5b506105c661156b565b6040516105d3919061658e565b60405180910390f35b3480156105e857600080fd5b506105f1611578565b6040516105fe919061658e565b60405180910390f35b34801561061357600080fd5b5061062e600480360381019061062991906163cf565b61157d565b60405161063b919061637e565b60405180910390f35b34801561065057600080fd5b5061066b600480360381019061066691906165a9565b6115aa565b005b34801561067957600080fd5b50610694600480360381019061068f9190616632565b61160a565b6040516106a1919061666e565b60405180910390f35b3480156106b657600080fd5b506106d160048036038101906106cc9190616689565b61162a565b005b3480156106df57600080fd5b506106fa60048036038101906106f5919061653f565b611653565b604051610707919061658e565b60405180910390f35b34801561071c57600080fd5b5061073760048036038101906107329190616689565b6116f8565b005b34801561074557600080fd5b50610760600480360381019061075b91906166c9565b61177b565b005b34801561076e57600080fd5b506107776118fc565b604051610784919061658e565b60405180910390f35b34801561079957600080fd5b506107b460048036038101906107af9190616709565b611902565b005b3480156107c257600080fd5b506107dd60048036038101906107d891906165a9565b611998565b005b6107e76119b8565b005b3480156107f557600080fd5b506107fe611b25565b005b34801561080c57600080fd5b50610827600480360381019061082291906163cf565b611bd7565b604051610834919061658e565b60405180910390f35b34801561084957600080fd5b50610852611c48565b60405161085f919061658e565b60405180910390f35b34801561087457600080fd5b5061088f600480360381019061088a91906163cf565b611c52565b005b34801561089d57600080fd5b506108b860048036038101906108b3919061686b565b611e75565b005b3480156108c657600080fd5b506108e160048036038101906108dc91906163cf565b611ef8565b6040516108ee91906164f8565b60405180910390f35b34801561090357600080fd5b5061090c611faa565b604051610919919061658e565b60405180910390f35b34801561092e57600080fd5b50610949600480360381019061094491906163cf565b611faf565b005b34801561095757600080fd5b506109606123ae565b005b34801561096e57600080fd5b5061098960048036038101906109849190616709565b612520565b604051610996919061658e565b60405180910390f35b6109b960048036038101906109b491906163cf565b6125d8565b005b3480156109c757600080fd5b506109e260048036038101906109dd91906163cf565b61276a565b005b3480156109f057600080fd5b506109f961292f565b604051610a06919061658e565b60405180910390f35b348015610a1b57600080fd5b50610a24612935565b604051610a31919061658e565b60405180910390f35b348015610a4657600080fd5b50610a616004803603810190610a5c9190616709565b61293f565b005b348015610a6f57600080fd5b50610a786129d5565b604051610a85919061658e565b60405180910390f35b348015610a9a57600080fd5b50610ab56004803603810190610ab09190616689565b6129db565b604051610ac2919061637e565b60405180910390f35b348015610ad757600080fd5b50610af26004803603810190610aed9190616709565b612a46565b604051610aff919061658e565b60405180910390f35b348015610b1457600080fd5b50610b1d612b29565b604051610b2a9190616495565b60405180910390f35b348015610b3f57600080fd5b50610b48612bbb565b604051610b55919061637e565b60405180910390f35b348015610b6a57600080fd5b50610b73612bce565b604051610b80919061637e565b60405180910390f35b348015610b9557600080fd5b50610b9e612be1565b604051610bab919061658e565b60405180910390f35b348015610bc057600080fd5b50610bdb6004803603810190610bd691906163cf565b612be7565b604051610be891906168d1565b60405180910390f35b348015610bfd57600080fd5b50610c186004803603810190610c1391906163cf565b612c15565b604051610c2591906169a7565b60405180910390f35b348015610c3a57600080fd5b50610c43613187565b604051610c50919061658e565b60405180910390f35b348015610c6557600080fd5b50610c6e61318d565b604051610c7b919061666e565b60405180910390f35b348015610c9057600080fd5b50610cab6004803603810190610ca691906169ef565b613194565b005b348015610cb957600080fd5b50610cc2613315565b604051610ccf919061658e565b60405180910390f35b348015610ce457600080fd5b50610ced61331a565b604051610cfa919061666e565b60405180910390f35b348015610d0f57600080fd5b50610d2a6004803603810190610d2591906163cf565b61333e565b604051610d37919061658e565b60405180910390f35b348015610d4c57600080fd5b50610d5561335e565b005b348015610d6357600080fd5b50610d6c6133e3565b604051610d79919061658e565b60405180910390f35b348015610d8e57600080fd5b50610da96004803603810190610da49190616ad0565b6133e8565b005b348015610db757600080fd5b50610dd26004803603810190610dcd9190616b7f565b61344a565b604051610ddf91906168d1565b60405180910390f35b348015610df457600080fd5b50610dfd613491565b604051610e0a919061666e565b60405180910390f35b348015610e1f57600080fd5b50610e286134b5565b604051610e35919061637e565b60405180910390f35b348015610e4a57600080fd5b50610e656004803603810190610e6091906163cf565b6134c8565b604051610e729190616c7d565b60405180910390f35b348015610e8757600080fd5b50610ea26004803603810190610e9d91906163cf565b613556565b604051610eaf9190616495565b60405180910390f35b348015610ec457600080fd5b50610edf6004803603810190610eda9190616689565b6135fd565b005b348015610eed57600080fd5b50610ef6613626565b604051610f03919061658e565b60405180910390f35b348015610f1857600080fd5b50610f2161362c565b604051610f2e919061637e565b60405180910390f35b348015610f4357600080fd5b50610f4c61363f565b005b348015610f5a57600080fd5b50610f6361378a565b604051610f70919061658e565b60405180910390f35b348015610f8557600080fd5b50610fa06004803603810190610f9b91906163cf565b613790565b604051610fad919061637e565b60405180910390f35b348015610fc257600080fd5b50610fdd6004803603810190610fd891906163cf565b6137ba565b604051610fea91906164f8565b60405180910390f35b348015610fff57600080fd5b5061101a60048036038101906110159190616c98565b6137fa565b604051611027919061637e565b60405180910390f35b34801561103c57600080fd5b5061104561388e565b604051611052919061658e565b60405180910390f35b34801561106757600080fd5b50611070613898565b60405161107d919061637e565b60405180910390f35b34801561109257600080fd5b5061109b6138ab565b6040516110a8919061658e565b60405180910390f35b3480156110bd57600080fd5b506110c66138b0565b005b3480156110d457600080fd5b506110ef60048036038101906110ea9190616709565b613936565b005b3480156110fd57600080fd5b5061111860048036038101906111139190616cd8565b613a32565b005b600061112582613c43565b9050919050565b6060600060146000848152602001908152602001600020600101805461115190616d47565b80601f016020809104026020016040519081016040528092919081815260200182805461117d90616d47565b80156111ca5780601f1061119f576101008083540402835291602001916111ca565b820191906000526020600020905b8154815290600101906020018083116111ad57829003601f168201915b5050505050905080915050919050565b601260039054906101000a900460ff1681565b6060600080546111fc90616d47565b80601f016020809104026020016040519081016040528092919081815260200182805461122890616d47565b80156112755780601f1061124a57610100808354040283529160200191611275565b820191906000526020600020905b81548152906001019060200180831161125857829003601f168201915b5050505050905090565b600061128a82613cbd565b6112c9576040517f08c379a00000000000000000000000000000000000000000000000000000000081526004016112c090616deb565b60405180910390fd5b6004600083815260200190815260200160002060009054906101000a900473ffffffffffffffffffffffffffffffffffffffff169050919050565b601260069054906101000a900460ff1681565b600061132282611ef8565b90508073ffffffffffffffffffffffffffffffffffffffff168373ffffffffffffffffffffffffffffffffffffffff161415611393576040517f08c379a000000000000000000000000000000000000000000000000000000000815260040161138a90616e7d565b60405180910390fd5b8073ffffffffffffffffffffffffffffffffffffffff166113b2613d29565b73ffffffffffffffffffffffffffffffffffffffff1614806113e157506113e0816113db613d29565b6137fa565b5b611420576040517f08c379a000000000000000000000000000000000000000000000000000000000815260040161141790616f0f565b60405180910390fd5b61142a8383613d31565b505050565b6114597f6a64baf327d646d1bca72653e2a075d15fd6ac6d8cbd7f6ee03fc55875e0fa88336129db565b611498576040517f08c379a000000000000000000000000000000000000000000000000000000000815260040161148f90616f7b565b60405180910390fd5b60001515601260009054906101000a900460ff161515146114ee576040517f08c379a00000000000000000000000000000000000000000000000000000000081526004016114e590616fe7565b60405180910390fd5b6001601260006101000a81548160ff0219169083151502179055507f0d3dae01e1b4644a9619797b649d24e856e8d3dd662f97e01427e70bf2ae91a660405160405180910390a160406113886115449190617036565b600e60008282546115559190617036565b925050819055506512309ce54000600f81905550565b6000600880549050905090565b600a81565b60006014600083815260200190815260200160002060000160009054906101000a900460ff169050919050565b6115bb6115b5613d29565b82613dea565b6115fa576040517f08c379a00000000000000000000000000000000000000000000000000000000081526004016115f1906170fe565b60405180910390fd5b611605838383613ec8565b505050565b6000600a6000838152602001908152602001600020600101549050919050565b6116338261160a565b6116448161163f613d29565b614124565b61164e83836141c1565b505050565b600061165e83612520565b821061169f576040517f08c379a000000000000000000000000000000000000000000000000000000000815260040161169690617190565b60405180910390fd5b600660008473ffffffffffffffffffffffffffffffffffffffff1673ffffffffffffffffffffffffffffffffffffffff168152602001908152602001600020600083815260200190815260200160002054905092915050565b611700613d29565b73ffffffffffffffffffffffffffffffffffffffff168173ffffffffffffffffffffffffffffffffffffffff161461176d576040517f08c379a000000000000000000000000000000000000000000000000000000000815260040161176490617222565b60405180910390fd5b61177782826142a2565b5050565b61178482611ef8565b73ffffffffffffffffffffffffffffffffffffffff163373ffffffffffffffffffffffffffffffffffffffff16146117f1576040517f08c379a00000000000000000000000000000000000000000000000000000000081526004016117e89061728e565b60405180910390fd5b8073ffffffffffffffffffffffffffffffffffffffff168173ffffffffffffffffffffffffffffffffffffffff161461185f576040517f08c379a0000000000000000000000000000000000000000000000000000000008152600401611856906172fa565b60405180910390fd5b806014600084815260200190815260200160002060070160006101000a81548173ffffffffffffffffffffffffffffffffffffffff021916908373ffffffffffffffffffffffffffffffffffffffff1602179055508073ffffffffffffffffffffffffffffffffffffffff16827fafa5959eb8823d589ec08c28f3effdde6546d1102288f3ba855119af25e3bbba60405160405180910390a35050565b61040081565b61192c7f2fa3586e1228a6d020f44df84a4695dcd1cfcb55a51cd832563c729d866522ff336129db565b61196b576040517f08c379a000000000000000000000000000000000000000000000000000000000815260040161196290617366565b60405180910390fd5b6119957f2fa3586e1228a6d020f44df84a4695dcd1cfcb55a51cd832563c729d866522ff8261162a565b50565b6119b3838383604051806020016040528060008152506133e8565b505050565b6119e27f2fa3586e1228a6d020f44df84a4695dcd1cfcb55a51cd832563c729d866522ff336129db565b611a21576040517f08c379a0000000000000000000000000000000000000000000000000000000008152600401611a1890617366565b60405180910390fd5b600060105411611a66576040517f08c379a0000000000000000000000000000000000000000000000000000000008152600401611a5d906173d2565b60405180910390fd5b60006010549050600060108190555060003373ffffffffffffffffffffffffffffffffffffffff1682604051611a9b90617423565b60006040518083038185875af1925050503d8060008114611ad8576040519150601f19603f3d011682016040523d82523d6000602084013e611add565b606091505b5050905080611b21576040517f08c379a0000000000000000000000000000000000000000000000000000000008152600401611b1890617484565b60405180910390fd5b5050565b611b4f7f6a64baf327d646d1bca72653e2a075d15fd6ac6d8cbd7f6ee03fc55875e0fa88336129db565b611b8e576040517f08c379a0000000000000000000000000000000000000000000000000000000008152600401611b8590616f7b565b60405180910390fd5b6001601260066101000a81548160ff0219169083151502179055507f5482c0653ae6084c9c4091da0728c40dc90c385f432b3cf5f6a5a5df5a22919660405160405180910390a1565b6000611be161156b565b8210611c22576040517f08c379a0000000000000000000000000000000000000000000000000000000008152600401611c1990617516565b60405180910390fd5b60088281548110611c3657611c35617536565b5b90600052602060002001549050919050565b6512309ce5400081565b601260069054906101000a900460ff16611ca1576040517f08c379a0000000000000000000000000000000000000000000000000000000008152600401611c98906175b1565b60405180910390fd5b611caa81611ef8565b73ffffffffffffffffffffffffffffffffffffffff163373ffffffffffffffffffffffffffffffffffffffff1614611d17576040517f08c379a0000000000000000000000000000000000000000000000000000000008152600401611d0e9061728e565b60405180910390fd5b6013600082815260200190815260200160002060009054906101000a900460ff1615611d78576040517f08c379a0000000000000000000000000000000000000000000000000000000008152600401611d6f9061761d565b60405180910390fd5b600160146000838152602001908152602001600020600601541015611dd2576040517f08c379a0000000000000000000000000000000000000000000000000000000008152600401611dc990617689565b60405180910390fd5b6001601460008381526020019081526020016000206006016000828254611df991906176a9565b92505081905550611e0b816001614384565b6014600083815260200190815260200160002060070160146101000a81548161ffff021916908361ffff1602179055507fdcc2145292317879f6319461deaed4ada2422f436a0b0e15f2af0e60c637d12181604051611e6a919061658e565b60405180910390a150565b611e9f7f2fa3586e1228a6d020f44df84a4695dcd1cfcb55a51cd832563c729d866522ff336129db565b611ede576040517f08c379a0000000000000000000000000000000000000000000000000000000008152600401611ed590617366565b60405180910390fd5b8060159080519060200190611ef49291906161c0565b5050565b6000806002600084815260200190815260200160002060009054906101000a900473ffffffffffffffffffffffffffffffffffffffff169050600073ffffffffffffffffffffffffffffffffffffffff168173ffffffffffffffffffffffffffffffffffffffff161415611fa1576040517f08c379a0000000000000000000000000000000000000000000000000000000008152600401611f989061774f565b60405180910390fd5b80915050919050565b600181565b601260069054906101000a900460ff16611ffe576040517f08c379a0000000000000000000000000000000000000000000000000000000008152600401611ff5906175b1565b60405180910390fd5b61200781611ef8565b73ffffffffffffffffffffffffffffffffffffffff163373ffffffffffffffffffffffffffffffffffffffff1614612074576040517f08c379a000000000000000000000000000000000000000000000000000000000815260040161206b9061728e565b60405180910390fd5b6013600082815260200190815260200160002060009054906101000a900460ff166120d4576040517f08c379a00000000000000000000000000000000000000000000000000000000081526004016120cb906177bb565b60405180910390fd5b60006120de614517565b905060006120eb83614b9f565b905060006013600085815260200190815260200160002060006101000a81548160ff02191690831515021790555060006040518061012001604052806014600087815260200190815260200160002060000160009054906101000a900460ff16151581526020018481526020018360006004811061216c5761216b617536565b5b602002015181526020018360016004811061218a57612189617536565b5b60200201518152602001836002600481106121a8576121a7617536565b5b60200201518152602001836003600481106121c6576121c5617536565b5b60200201518152602001601460008781526020019081526020016000206006015481526020016014600087815260200190815260200160002060070160009054906101000a900473ffffffffffffffffffffffffffffffffffffffff1673ffffffffffffffffffffffffffffffffffffffff168152602001600061ffff168152509050806014600086815260200190815260200160002060008201518160000160006101000a81548160ff02191690831515021790555060208201518160010190805190602001906122999291906161c0565b5060408201518160020155606082015181600301556080820151816004015560a0820151816005015560c0820151816006015560e08201518160070160006101000a81548173ffffffffffffffffffffffffffffffffffffffff021916908373ffffffffffffffffffffffffffffffffffffffff1602179055506101008201518160070160146101000a81548161ffff021916908361ffff1602179055509050506000612347856000614384565b9050806014600087815260200190815260200160002060070160146101000a81548161ffff021916908361ffff160217905550847fb91faaa78142ff7cf17e2901f700062d893e98dae6eb9d835fd56f012c06960660405160405180910390a25050505050565b6123d87f6a64baf327d646d1bca72653e2a075d15fd6ac6d8cbd7f6ee03fc55875e0fa88336129db565b612417576040517f08c379a000000000000000000000000000000000000000000000000000000000815260040161240e90616f7b565b60405180910390fd5b60001515601260029054906101000a900460ff1615151461246d576040517f08c379a000000000000000000000000000000000000000000000000000000000815260040161246490617827565b60405180910390fd5b6001601260026101000a81548160ff0219169083151502179055506000601260036101000a81548160ff0219169083151502179055506001601260046101000a81548160ff0219169083151502179055507f1bbe80213228404e276963f9e286d445ba1e5609daacc5098b97ad3783da4d9760405160405180910390a161010b60046124f99190617036565b600e600082825461250a9190617036565b92505081905550655af3107a4000600f81905550565b60008073ffffffffffffffffffffffffffffffffffffffff168273ffffffffffffffffffffffffffffffffffffffff161415612591576040517f08c379a0000000000000000000000000000000000000000000000000000000008152600401612588906178b9565b60405180910390fd5b600360008373ffffffffffffffffffffffffffffffffffffffff1673ffffffffffffffffffffffffffffffffffffffff168152602001908152602001600020549050919050565b6002600b54141561261e576040517f08c379a000000000000000000000000000000000000000000000000000000000815260040161261590617925565b60405180910390fd5b6002600b819055506000811180156126375750600a8111155b612676576040517f08c379a000000000000000000000000000000000000000000000000000000000815260040161266d90617991565b60405180910390fd5b80600f5461268491906179b1565b3410156126c6576040517f08c379a00000000000000000000000000000000000000000000000000000000081526004016126bd90617a57565b60405180910390fd5b600e5481600c546126d79190617036565b1115612718576040517f08c379a000000000000000000000000000000000000000000000000000000000815260040161270f90617ac3565b60405180910390fd5b60005b8181101561275e576001600c60008282546127369190617036565b9250508190555061274b33600c546000614d6d565b808061275690617ae3565b91505061271b565b506001600b8190555050565b6002600b5414156127b0576040517f08c379a00000000000000000000000000000000000000000000000000000000081526004016127a790617925565b60405180910390fd5b6002600b819055506127e27f2fa3586e1228a6d020f44df84a4695dcd1cfcb55a51cd832563c729d866522ff336129db565b612821576040517f08c379a000000000000000000000000000000000000000000000000000000000815260040161281890617366565b60405180910390fd5b6040816011546128319190617036565b1115612872576040517f08c379a000000000000000000000000000000000000000000000000000000000815260040161286990617b78565b60405180910390fd5b600e5481600c546128839190617036565b11156128c4576040517f08c379a00000000000000000000000000000000000000000000000000000000081526004016128bb90617ac3565b60405180910390fd5b80601160008282546128d69190617036565b9250508190555060005b81811015612923576001600c60008282546128fb9190617036565b9250508190555061291033600c546000614d6d565b808061291b90617ae3565b9150506128e0565b506001600b8190555050565b600e5481565b655af3107a400081565b6129697f2fa3586e1228a6d020f44df84a4695dcd1cfcb55a51cd832563c729d866522ff336129db565b6129a8576040517f08c379a000000000000000000000000000000000000000000000000000000000815260040161299f90617366565b60405180910390fd5b6129d27f6a64baf327d646d1bca72653e2a075d15fd6ac6d8cbd7f6ee03fc55875e0fa888261162a565b50565b612b6781565b6000600a600084815260200190815260200160002060000160008373ffffffffffffffffffffffffffffffffffffffff1673ffffffffffffffffffffffffffffffffffffffff16815260200190815260200160002060009054906101000a900460ff16905092915050565b6000612a727f6a64baf327d646d1bca72653e2a075d15fd6ac6d8cbd7f6ee03fc55875e0fa88336129db565b612ab1576040517f08c379a0000000000000000000000000000000000000000000000000000000008152600401612aa890616f7b565b60405180910390fd5b612b67600d5410612af7576040517f08c379a0000000000000000000000000000000000000000000000000000000008152600401612aee90617ac3565b60405180910390fd5b6001600d6000828254612b0a9190617036565b92505081905550612b1f82600d546001614d6d565b600d549050919050565b606060018054612b3890616d47565b80601f0160208091040260200160405190810160405280929190818152602001828054612b6490616d47565b8015612bb15780601f10612b8657610100808354040283529160200191612bb1565b820191906000526020600020905b815481529060010190602001808311612b9457829003601f168201915b5050505050905090565b601260059054906101000a900460ff1681565b601260029054906101000a900460ff1681565b600f5481565b60006014600083815260200190815260200160002060070160149054906101000a900461ffff169050919050565b612c1d616246565b6013600083815260200190815260200160002060009054906101000a900460ff1615612c7e576040517f08c379a0000000000000000000000000000000000000000000000000000000008152600401612c759061761d565b60405180910390fd5b60006014600084815260200190815260200160002060070160149054906101000a900461ffff1690506000612cb284614f21565b9150506000806000831415612cca5760009150601090505b6001831415612ce0576010915060209050612ce9565b60209150604090505b612cf1616246565b60008561ffff169050612d02616269565b601c600c8363ffffffff16901c63ffffffff16901b6018600c8463ffffffff16901c63ffffffff16901b6014600c8563ffffffff16901c63ffffffff16901b6010600c8663ffffffff16901c63ffffffff16901b600c808763ffffffff16901c63ffffffff16901b6008600c8863ffffffff16901c63ffffffff16901b6004600c8963ffffffff16901c63ffffffff16901b600c8963ffffffff16901c1717171717171781600060048110612dba57612db9617536565b5b602002019063ffffffff16908163ffffffff1681525050601c60088363ffffffff16901c600f1663ffffffff16901b601860088463ffffffff16901c600f1663ffffffff16901b601460088563ffffffff16901c600f1663ffffffff16901b601060088663ffffffff16901c600f1663ffffffff16901b600c60088763ffffffff16901c600f1663ffffffff16901b6008808863ffffffff16901c600f1663ffffffff16901b600460088963ffffffff16901c600f1663ffffffff16901b60088963ffffffff16901c600f161717171717171781600160048110612ea157612ea0617536565b5b602002019063ffffffff16908163ffffffff1681525050601c60048363ffffffff16901c600f1663ffffffff16901b601860048463ffffffff16901c600f1663ffffffff16901b601460048563ffffffff16901c600f1663ffffffff16901b601060048663ffffffff16901c600f1663ffffffff16901b600c60048763ffffffff16901c600f1663ffffffff16901b600860048863ffffffff16901c600f1663ffffffff16901b6004808963ffffffff16901c600f1663ffffffff16901b60048963ffffffff16901c600f161717171717171781600260048110612f8857612f87617536565b5b602002019063ffffffff16908163ffffffff1681525050601c82600f1663ffffffff16901b601883600f1663ffffffff16901b601484600f1663ffffffff16901b601085600f1663ffffffff16901b600c86600f1663ffffffff16901b600887600f1663ffffffff16901b600488600f1663ffffffff16901b88600f1617171717171717816003600481106130205761301f617536565b5b602002019063ffffffff16908163ffffffff168152505060005b60208161ffff1610156130b057816004826130559190617bc7565b61ffff166004811061306a57613069617536565b5b6020020151848261ffff166020811061308657613085617536565b5b602002019063ffffffff16908163ffffffff168152505080806130a890617bf8565b91505061303a565b506000856130ca87876130c39190617c23565b8a8861344a565b6130d49190617c57565b905060005b8161ffff168161ffff1610156131765760006130f760208b8461344a565b905060006131076020838561344a565b9050868161ffff16602081106131205761311f617536565b5b60200201518260026131329190617dc2565b18878261ffff166020811061314a57613149617536565b5b602002019063ffffffff16908163ffffffff16815250505050808061316e90617bf8565b9150506130d9565b508398505050505050505050919050565b61010b81565b6000801b81565b61319c613d29565b73ffffffffffffffffffffffffffffffffffffffff168273ffffffffffffffffffffffffffffffffffffffff16141561320a576040517f08c379a000000000000000000000000000000000000000000000000000000000815260040161320190617e3d565b60405180910390fd5b8060056000613217613d29565b73ffffffffffffffffffffffffffffffffffffffff1673ffffffffffffffffffffffffffffffffffffffff16815260200190815260200160002060008473ffffffffffffffffffffffffffffffffffffffff1673ffffffffffffffffffffffffffffffffffffffff16815260200190815260200160002060006101000a81548160ff0219169083151502179055508173ffffffffffffffffffffffffffffffffffffffff166132c4613d29565b73ffffffffffffffffffffffffffffffffffffffff167f17307eab39ab6107e8899845ad3d59bd9653f200f220920489ca2b5937696c3183604051613309919061637e565b60405180910390a35050565b600581565b7f6a64baf327d646d1bca72653e2a075d15fd6ac6d8cbd7f6ee03fc55875e0fa8881565b600060146000838152602001908152602001600020600601549050919050565b6133887f6a64baf327d646d1bca72653e2a075d15fd6ac6d8cbd7f6ee03fc55875e0fa88336129db565b6133c7576040517f08c379a00000000000000000000000000000000000000000000000000000000081526004016133be90616f7b565b60405180910390fd5b6004600e60008282546133da9190617036565b92505081905550565b600481565b6133f96133f3613d29565b83613dea565b613438576040517f08c379a000000000000000000000000000000000000000000000000000000000815260040161342f906170fe565b60405180910390fd5b613444848484846150e1565b50505050565b6000808383604051602001613460929190617e93565b6040516020818303038152906040528051906020012060f01c905084816134879190617bc7565b9150509392505050565b7f2fa3586e1228a6d020f44df84a4695dcd1cfcb55a51cd832563c729d866522ff81565b601260019054906101000a900460ff1681565b6134d061628b565b600060405180608001604052806014600086815260200190815260200160002060020154815260200160146000868152602001908152602001600020600301548152602001601460008681526020019081526020016000206005015481526020016014600086815260200190815260200160002060040154815250905080915050919050565b606061356182613cbd565b6135a0576040517f08c379a000000000000000000000000000000000000000000000000000000000815260040161359790617f31565b60405180910390fd5b60006135aa61513d565b905060008151116135ca57604051806020016040528060008152506135f5565b806135d4846151cf565b6040516020016135e5929190617f8d565b6040516020818303038152906040525b915050919050565b6136068261160a565b61361781613612613d29565b614124565b61362183836142a2565b505050565b61138881565b601260009054906101000a900460ff1681565b6136697f6a64baf327d646d1bca72653e2a075d15fd6ac6d8cbd7f6ee03fc55875e0fa88336129db565b6136a8576040517f08c379a000000000000000000000000000000000000000000000000000000000815260040161369f90616f7b565b60405180910390fd5b60001515601260019054906101000a900460ff161515146136fe576040517f08c379a00000000000000000000000000000000000000000000000000000000081526004016136f590617ffd565b60405180910390fd5b6001601260016101000a81548160ff0219169083151502179055506001601260036101000a81548160ff0219169083151502179055507fce28fb74a9fed93421bef1c67a577ec8bdd8f93d99962f27a4b52207e9e80dd360405160405180910390a1610d05600e60008282546137749190617036565b92505081905550652d79883d2000600f81905550565b610d0581565b60006013600083815260200190815260200160002060009054906101000a900460ff169050919050565b60006014600083815260200190815260200160002060070160009054906101000a900473ffffffffffffffffffffffffffffffffffffffff169050919050565b6000600560008473ffffffffffffffffffffffffffffffffffffffff1673ffffffffffffffffffffffffffffffffffffffff16815260200190815260200160002060008373ffffffffffffffffffffffffffffffffffffffff1673ffffffffffffffffffffffffffffffffffffffff16815260200190815260200160002060009054906101000a900460ff16905092915050565b652d79883d200081565b601260049054906101000a900460ff1681565b600381565b6138da7f6a64baf327d646d1bca72653e2a075d15fd6ac6d8cbd7f6ee03fc55875e0fa88336129db565b613919576040517f08c379a000000000000000000000000000000000000000000000000000000000815260040161391090616f7b565b60405180910390fd5b6000601260046101000a81548160ff021916908315150217905550565b6139607f6a64baf327d646d1bca72653e2a075d15fd6ac6d8cbd7f6ee03fc55875e0fa88336129db565b61399f576040517f08c379a000000000000000000000000000000000000000000000000000000000815260040161399690616f7b565b60405180910390fd5b60001515601260059054906101000a900460ff161515146139f5576040517f08c379a00000000000000000000000000000000000000000000000000000000081526004016139ec90618069565b60405180910390fd5b6001601260056101000a81548160ff021916908315150217905550613a1a6001615330565b613a2f613a276001611ef8565b826001613ec8565b50565b613a5c7f6a64baf327d646d1bca72653e2a075d15fd6ac6d8cbd7f6ee03fc55875e0fa88336129db565b613a9b576040517f08c379a0000000000000000000000000000000000000000000000000000000008152600401613a9290616f7b565b60405180910390fd5b600073ffffffffffffffffffffffffffffffffffffffff16613abc83611ef8565b73ffffffffffffffffffffffffffffffffffffffff161415613b13576040517f08c379a0000000000000000000000000000000000000000000000000000000008152600401613b0a906180d5565b60405180910390fd5b60008111613b56576040517f08c379a0000000000000000000000000000000000000000000000000000000008152600401613b4d90618141565b60405180910390fd5b6000601460008481526020019081526020016000206006015490506104008282613b809190617036565b1115613ba8576104006014600085815260200190815260200160002060060181905550613bd6565b81601460008581526020019081526020016000206006016000828254613bce9190617036565b925050819055505b827f9e1a49ceab2280ac408738e597bc0b5694717f3378c3ac2300d8e2b0885e1163836014600087815260200190815260200160002060060154604051613c1e929190618161565b60405180910390a2505050565b600080823b905060008111915050919050565b505050565b60007f7965db0b000000000000000000000000000000000000000000000000000000007bffffffffffffffffffffffffffffffffffffffffffffffffffffffff1916827bffffffffffffffffffffffffffffffffffffffffffffffffffffffff19161480613cb65750613cb582615524565b5b9050919050565b60008073ffffffffffffffffffffffffffffffffffffffff166002600084815260200190815260200160002060009054906101000a900473ffffffffffffffffffffffffffffffffffffffff1673ffffffffffffffffffffffffffffffffffffffff1614159050919050565b600033905090565b816004600083815260200190815260200160002060006101000a81548173ffffffffffffffffffffffffffffffffffffffff021916908373ffffffffffffffffffffffffffffffffffffffff160217905550808273ffffffffffffffffffffffffffffffffffffffff16613da483611ef8565b73ffffffffffffffffffffffffffffffffffffffff167f8c5be1e5ebec7d5bd14f71427d1e84f3dd0314c0f7b2291e5b200ac8c7c3b92560405160405180910390a45050565b6000613df582613cbd565b613e34576040517f08c379a0000000000000000000000000000000000000000000000000000000008152600401613e2b906181fc565b60405180910390fd5b6000613e3f83611ef8565b90508073ffffffffffffffffffffffffffffffffffffffff168473ffffffffffffffffffffffffffffffffffffffff161480613eae57508373ffffffffffffffffffffffffffffffffffffffff16613e968461127f565b73ffffffffffffffffffffffffffffffffffffffff16145b80613ebf5750613ebe81856137fa565b5b91505092915050565b8273ffffffffffffffffffffffffffffffffffffffff16613ee882611ef8565b73ffffffffffffffffffffffffffffffffffffffff1614613f3e576040517f08c379a0000000000000000000000000000000000000000000000000000000008152600401613f359061828e565b60405180910390fd5b600073ffffffffffffffffffffffffffffffffffffffff168273ffffffffffffffffffffffffffffffffffffffff161415613fae576040517f08c379a0000000000000000000000000000000000000000000000000000000008152600401613fa590618320565b60405180910390fd5b613fb983838361559e565b613fc4600082613d31565b6001600360008573ffffffffffffffffffffffffffffffffffffffff1673ffffffffffffffffffffffffffffffffffffffff168152602001908152602001600020600082825461401491906176a9565b925050819055506001600360008473ffffffffffffffffffffffffffffffffffffffff1673ffffffffffffffffffffffffffffffffffffffff168152602001908152602001600020600082825461406b9190617036565b92505081905550816002600083815260200190815260200160002060006101000a81548173ffffffffffffffffffffffffffffffffffffffff021916908373ffffffffffffffffffffffffffffffffffffffff160217905550808273ffffffffffffffffffffffffffffffffffffffff168473ffffffffffffffffffffffffffffffffffffffff167fddf252ad1be2c89b69c2b068fc378daa952ba7f163c4a11628f55a4df523b3ef60405160405180910390a4505050565b61412e82826129db565b6141bd576141538173ffffffffffffffffffffffffffffffffffffffff1660146156b2565b6141618360001c60206156b2565b6040516020016141729291906183d8565b6040516020818303038152906040526040517f08c379a00000000000000000000000000000000000000000000000000000000081526004016141b49190616495565b60405180910390fd5b5050565b6141cb82826129db565b61429e576001600a600084815260200190815260200160002060000160008373ffffffffffffffffffffffffffffffffffffffff1673ffffffffffffffffffffffffffffffffffffffff16815260200190815260200160002060006101000a81548160ff021916908315150217905550614243613d29565b73ffffffffffffffffffffffffffffffffffffffff168173ffffffffffffffffffffffffffffffffffffffff16837f2f8788117e7eff1d82e926ec794901d17c78024a50270940304540a733656f0d60405160405180910390a45b5050565b6142ac82826129db565b15614380576000600a600084815260200190815260200160002060000160008373ffffffffffffffffffffffffffffffffffffffff1673ffffffffffffffffffffffffffffffffffffffff16815260200190815260200160002060006101000a81548160ff021916908315150217905550614325613d29565b73ffffffffffffffffffffffffffffffffffffffff168173ffffffffffffffffffffffffffffffffffffffff16837ff6391f5c32d9c69d2a47ea670b442974b53935d1edc7fd64eb21e047a839171b60405160405180910390a45b5050565b60008061439084614f21565b50905060008060018314156143ac5760079150600c90506143b5565b60049150600890505b600080600084846143c69190617c23565b90506000886143e1576143dc620100008b6158ee565b614407565b601460008b815260200190815260200160002060070160149054906101000a900461ffff165b9050600086614417848d8561344a565b6144219190617c57565b905060005b8161ffff168161ffff161015614468576144426010828561344a565b9450858560026144529190618412565b179550808061446090617bf8565b915050614426565b50600061447a60648461ffff166158ee565b905060028914156144c05760058161ffff161115801561449857508a155b156144ae57859950505050505050505050614511565b85199950505050505050505050614511565b60008914156145045760058161ffff16111580156144dc57508a155b156144f35785199950505050505050505050614511565b859950505050505050505050614511565b8599505050505050505050505b92915050565b6060601260049054906101000a900460ff16156147e9576000600367ffffffffffffffff81111561454b5761454a616740565b5b60405190808252806020026020018201604052801561457e57816020015b60608152602001906001900390816145695790505b509050601660008154811061459657614595617536565b5b9060005260206000200180546145ab90616d47565b80601f01602080910402602001604051908101604052809291908181526020018280546145d790616d47565b80156146245780601f106145f957610100808354040283529160200191614624565b820191906000526020600020905b81548152906001019060200180831161460757829003601f168201915b50505050508160008151811061463d5761463c617536565b5b6020026020010181905250601660018154811061465d5761465c617536565b5b90600052602060002001805461467290616d47565b80601f016020809104026020016040519081016040528092919081815260200182805461469e90616d47565b80156146eb5780601f106146c0576101008083540402835291602001916146eb565b820191906000526020600020905b8154815290600101906020018083116146ce57829003601f168201915b50505050508160018151811061470457614703617536565b5b6020026020010181905250601660028154811061472457614723617536565b5b90600052602060002001805461473990616d47565b80601f016020809104026020016040519081016040528092919081815260200182805461476590616d47565b80156147b25780601f10614787576101008083540402835291602001916147b2565b820191906000526020600020905b81548152906001019060200180831161479557829003601f168201915b5050505050816002815181106147cb576147ca617536565b5b60200260200101819052506147e1600382615949565b915050614b9c565b601260039054906101000a900460ff1615614ab9576000600367ffffffffffffffff81111561481b5761481a616740565b5b60405190808252806020026020018201604052801561484e57816020015b60608152602001906001900390816148395790505b509050601660068154811061486657614865617536565b5b90600052602060002001805461487b90616d47565b80601f01602080910402602001604051908101604052809291908181526020018280546148a790616d47565b80156148f45780601f106148c9576101008083540402835291602001916148f4565b820191906000526020600020905b8154815290600101906020018083116148d757829003601f168201915b50505050508160008151811061490d5761490c617536565b5b6020026020010181905250601660078154811061492d5761492c617536565b5b90600052602060002001805461494290616d47565b80601f016020809104026020016040519081016040528092919081815260200182805461496e90616d47565b80156149bb5780601f10614990576101008083540402835291602001916149bb565b820191906000526020600020905b81548152906001019060200180831161499e57829003601f168201915b5050505050816001815181106149d4576149d3617536565b5b602002602001018190525060166008815481106149f4576149f3617536565b5b906000526020600020018054614a0990616d47565b80601f0160208091040260200160405190810160405280929190818152602001828054614a3590616d47565b8015614a825780601f10614a5757610100808354040283529160200191614a82565b820191906000526020600020905b815481529060010190602001808311614a6557829003601f168201915b505050505081600281518110614a9b57614a9a617536565b5b6020026020010181905250614ab1600382615949565b915050614b9c565b614b996016805490506016805480602002602001604051908101604052809291908181526020016000905b82821015614b90578382906000526020600020018054614b0390616d47565b80601f0160208091040260200160405190810160405280929190818152602001828054614b2f90616d47565b8015614b7c5780601f10614b5157610100808354040283529160200191614b7c565b820191906000526020600020905b815481529060010190602001808311614b5f57829003601f168201915b505050505081526020019060010190614ae4565b50505050615949565b90505b90565b614ba761628b565b6000601190506000601790506014600085815260200190815260200160002060000160009054906101000a900460ff1615614be55760149150601990505b60008282614bf391906176a9565b90506000614c0182876158ee565b84614c0c9190617036565b90506000614c1a83836158ee565b85614c259190617036565b90506000614c3384836158ee565b86614c3e9190617036565b90506000614c4c85836158ee565b87614c579190617036565b90506000604051806080016040528086815260200185815260200184815260200183815250905060005b6004811015614d5c576000816004614c9991906176a9565b42604051602001614caa9190618460565b6040516020818303038152906040528051906020012060001c614ccd919061847b565b82614cd89190617036565b90506000838260048110614cef57614cee617536565b5b60200201519050838360048110614d0957614d08617536565b5b6020020151848360048110614d2157614d20617536565b5b60200201818152505080848460048110614d3e57614d3d617536565b5b60200201818152505050508080614d5490617ae3565b915050614c81565b508098505050505050505050919050565b6000600390508115614d7e57600590505b6000604051806101200160405280841515815260200160405180602001604052806000815250815260200160008152602001600081526020016000815260200160008152602001838152602001600073ffffffffffffffffffffffffffffffffffffffff168152602001600061ffff168152509050806014600086815260200190815260200160002060008201518160000160006101000a81548160ff0219169083151502179055506020820151816001019080519060200190614e439291906161c0565b5060408201518160020155606082015181600301556080820151816004015560a0820151816005015560c0820151816006015560e08201518160070160006101000a81548173ffffffffffffffffffffffffffffffffffffffff021916908373ffffffffffffffffffffffffffffffffffffffff1602179055506101008201518160070160146101000a81548161ffff021916908361ffff16021790555090505060016013600086815260200190815260200160002060006101000a81548160ff021916908315150217905550614f1a8585615990565b5050505050565b6000806000601460008581526020019081526020016000206001018054614f4790616d47565b80601f0160208091040260200160405190810160405280929190818152602001828054614f7390616d47565b8015614fc05780601f10614f9557610100808354040283529160200191614fc0565b820191906000526020600020905b815481529060010190602001808311614fa357829003601f168201915b50505050509050606060005b6016805490508110156150d15760168181548110614fed57614fec617536565b5b90600052602060002001805461500290616d47565b80601f016020809104026020016040519081016040528092919081815260200182805461502e90616d47565b801561507b5780601f106150505761010080835404028352916020019161507b565b820191906000526020600020905b81548152906001019060200180831161505e57829003601f168201915b505050505091508180519060200120838051906020012014156150be576003816150a591906184ac565b6003826150b2919061847b565b945094505050506150dc565b80806150c990617ae3565b915050614fcc565b506000809350935050505b915091565b6150ec848484613ec8565b6150f8848484846159ae565b615137576040517f08c379a000000000000000000000000000000000000000000000000000000000815260040161512e9061854f565b60405180910390fd5b50505050565b60606015805461514c90616d47565b80601f016020809104026020016040519081016040528092919081815260200182805461517890616d47565b80156151c55780601f1061519a576101008083540402835291602001916151c5565b820191906000526020600020905b8154815290600101906020018083116151a857829003601f168201915b5050505050905090565b60606000821415615217576040518060400160405280600181526020017f3000000000000000000000000000000000000000000000000000000000000000815250905061532b565b600082905060005b6000821461524957808061523290617ae3565b915050600a8261524291906184ac565b915061521f565b60008167ffffffffffffffff81111561526557615264616740565b5b6040519080825280601f01601f1916602001820160405280156152975781602001600182028036833780820191505090505b5090505b60008514615324576001826152b091906176a9565b9150600a856152bf919061847b565b60306152cb9190617036565b60f81b8183815181106152e1576152e0617536565b5b60200101907effffffffffffffffffffffffffffffffffffffffffffffffffffffffffffff1916908160001a905350600a8561531d91906184ac565b945061529b565b8093505050505b919050565b60006013600083815260200190815260200160002060006101000a81548160ff02191690831515021790555060006040518061012001604052806001151581526020016040518060400160405280600c81526020017f54727565204e65757472616c000000000000000000000000000000000000000081525081526020016019815260200160198152602001601981526020016019815260200161040081526020016014600085815260200190815260200160002060070160009054906101000a900473ffffffffffffffffffffffffffffffffffffffff1673ffffffffffffffffffffffffffffffffffffffff168152602001600061ffff168152509050806014600084815260200190815260200160002060008201518160000160006101000a81548160ff021916908315150217905550602082015181600101908051906020019061547f9291906161c0565b5060408201518160020155606082015181600301556080820151816004015560a0820151816005015560c0820151816006015560e08201518160070160006101000a81548173ffffffffffffffffffffffffffffffffffffffff021916908373ffffffffffffffffffffffffffffffffffffffff1602179055506101008201518160070160146101000a81548161ffff021916908361ffff1602179055509050505050565b60007f780e9d63000000000000000000000000000000000000000000000000000000007bffffffffffffffffffffffffffffffffffffffffffffffffffffffff1916827bffffffffffffffffffffffffffffffffffffffffffffffffffffffff19161480615597575061559682615b45565b5b9050919050565b6155a9838383613c3e565b600073ffffffffffffffffffffffffffffffffffffffff168373ffffffffffffffffffffffffffffffffffffffff1614156155ec576155e781615c27565b61562b565b8173ffffffffffffffffffffffffffffffffffffffff168373ffffffffffffffffffffffffffffffffffffffff161461562a576156298382615c70565b5b5b600073ffffffffffffffffffffffffffffffffffffffff168273ffffffffffffffffffffffffffffffffffffffff16141561566e5761566981615ddd565b6156ad565b8273ffffffffffffffffffffffffffffffffffffffff168273ffffffffffffffffffffffffffffffffffffffff16146156ac576156ab8282615eae565b5b5b505050565b6060600060028360026156c591906179b1565b6156cf9190617036565b67ffffffffffffffff8111156156e8576156e7616740565b5b6040519080825280601f01601f19166020018201604052801561571a5781602001600182028036833780820191505090505b5090507f30000000000000000000000000000000000000000000000000000000000000008160008151811061575257615751617536565b5b60200101907effffffffffffffffffffffffffffffffffffffffffffffffffffffffffffff1916908160001a9053507f7800000000000000000000000000000000000000000000000000000000000000816001815181106157b6576157b5617536565b5b60200101907effffffffffffffffffffffffffffffffffffffffffffffffffffffffffffff1916908160001a905350600060018460026157f691906179b1565b6158009190617036565b90505b60018111156158a0577f3031323334353637383961626364656600000000000000000000000000000000600f86166010811061584257615841617536565b5b1a60f81b82828151811061585957615858617536565b5b60200101907effffffffffffffffffffffffffffffffffffffffffffffffffffffffffffff1916908160001a905350600485901c9450806158999061856f565b9050615803565b50600084146158e4576040517f08c379a00000000000000000000000000000000000000000000000000000000081526004016158db906185e5565b60405180910390fd5b8091505092915050565b600080838360014361590091906176a9565b40414433604051602001615919969594939291906186a9565b6040516020818303038152906040528051906020012060001c90508381615940919061847b565b91505092915050565b606060006159588460006158ee565b905060008384518361596a919061847b565b8151811061597b5761597a617536565b5b60200260200101519050809250505092915050565b6159aa828260405180602001604052806000815250615f2d565b5050565b60006159cf8473ffffffffffffffffffffffffffffffffffffffff16613c2b565b15615b38578373ffffffffffffffffffffffffffffffffffffffff1663150b7a026159f8613d29565b8786866040518563ffffffff1660e01b8152600401615a1a949392919061876e565b602060405180830381600087803b158015615a3457600080fd5b505af1925050508015615a6557506040513d601f19601f82011682018060405250810190615a6291906187cf565b60015b615ae8573d8060008114615a95576040519150601f19603f3d011682016040523d82523d6000602084013e615a9a565b606091505b50600081511415615ae0576040517f08c379a0000000000000000000000000000000000000000000000000000000008152600401615ad79061854f565b60405180910390fd5b805181602001fd5b63150b7a0260e01b7bffffffffffffffffffffffffffffffffffffffffffffffffffffffff1916817bffffffffffffffffffffffffffffffffffffffffffffffffffffffff191614915050615b3d565b600190505b949350505050565b60007f80ac58cd000000000000000000000000000000000000000000000000000000007bffffffffffffffffffffffffffffffffffffffffffffffffffffffff1916827bffffffffffffffffffffffffffffffffffffffffffffffffffffffff19161480615c1057507f5b5e139f000000000000000000000000000000000000000000000000000000007bffffffffffffffffffffffffffffffffffffffffffffffffffffffff1916827bffffffffffffffffffffffffffffffffffffffffffffffffffffffff1916145b80615c205750615c1f82615f88565b5b9050919050565b6008805490506009600083815260200190815260200160002081905550600881908060018154018082558091505060019003906000526020600020016000909190919091505550565b60006001615c7d84612520565b615c8791906176a9565b9050600060076000848152602001908152602001600020549050818114615d6c576000600660008673ffffffffffffffffffffffffffffffffffffffff1673ffffffffffffffffffffffffffffffffffffffff168152602001908152602001600020600084815260200190815260200160002054905080600660008773ffffffffffffffffffffffffffffffffffffffff1673ffffffffffffffffffffffffffffffffffffffff168152602001908152602001600020600084815260200190815260200160002081905550816007600083815260200190815260200160002081905550505b6007600084815260200190815260200160002060009055600660008573ffffffffffffffffffffffffffffffffffffffff1673ffffffffffffffffffffffffffffffffffffffff16815260200190815260200160002060008381526020019081526020016000206000905550505050565b60006001600880549050615df191906176a9565b9050600060096000848152602001908152602001600020549050600060088381548110615e2157615e20617536565b5b906000526020600020015490508060088381548110615e4357615e42617536565b5b906000526020600020018190555081600960008381526020019081526020016000208190555060096000858152602001908152602001600020600090556008805480615e9257615e916187fc565b5b6001900381819060005260206000200160009055905550505050565b6000615eb983612520565b905081600660008573ffffffffffffffffffffffffffffffffffffffff1673ffffffffffffffffffffffffffffffffffffffff168152602001908152602001600020600083815260200190815260200160002081905550806007600084815260200190815260200160002081905550505050565b615f378383615ff2565b615f4460008484846159ae565b615f83576040517f08c379a0000000000000000000000000000000000000000000000000000000008152600401615f7a9061854f565b60405180910390fd5b505050565b60007f01ffc9a7000000000000000000000000000000000000000000000000000000007bffffffffffffffffffffffffffffffffffffffffffffffffffffffff1916827bffffffffffffffffffffffffffffffffffffffffffffffffffffffff1916149050919050565b600073ffffffffffffffffffffffffffffffffffffffff168273ffffffffffffffffffffffffffffffffffffffff161415616062576040517f08c379a000000000000000000000000000000000000000000000000000000000815260040161605990618877565b60405180910390fd5b61606b81613cbd565b156160ab576040517f08c379a00000000000000000000000000000000000000000000000000000000081526004016160a2906188e3565b60405180910390fd5b6160b76000838361559e565b6001600360008473ffffffffffffffffffffffffffffffffffffffff1673ffffffffffffffffffffffffffffffffffffffff16815260200190815260200160002060008282546161079190617036565b92505081905550816002600083815260200190815260200160002060006101000a81548173ffffffffffffffffffffffffffffffffffffffff021916908373ffffffffffffffffffffffffffffffffffffffff160217905550808273ffffffffffffffffffffffffffffffffffffffff16600073ffffffffffffffffffffffffffffffffffffffff167fddf252ad1be2c89b69c2b068fc378daa952ba7f163c4a11628f55a4df523b3ef60405160405180910390a45050565b8280546161cc90616d47565b90600052602060002090601f0160209004810192826161ee5760008555616235565b82601f1061620757805160ff1916838001178555616235565b82800160010185558215616235579182015b82811115616234578251825591602001919060010190616219565b5b50905061624291906162ad565b5090565b604051806104000160405280602090602082028036833780820191505090505090565b6040518060800160405280600490602082028036833780820191505090505090565b6040518060800160405280600490602082028036833780820191505090505090565b5b808211156162c65760008160009055506001016162ae565b5090565b6000604051905090565b600080fd5b600080fd5b60007fffffffff0000000000000000000000000000000000000000000000000000000082169050919050565b616313816162de565b811461631e57600080fd5b50565b6000813590506163308161630a565b92915050565b60006020828403121561634c5761634b6162d4565b5b600061635a84828501616321565b91505092915050565b60008115159050919050565b61637881616363565b82525050565b6000602082019050616393600083018461636f565b92915050565b6000819050919050565b6163ac81616399565b81146163b757600080fd5b50565b6000813590506163c9816163a3565b92915050565b6000602082840312156163e5576163e46162d4565b5b60006163f3848285016163ba565b91505092915050565b600081519050919050565b600082825260208201905092915050565b60005b8381101561643657808201518184015260208101905061641b565b83811115616445576000848401525b50505050565b6000601f19601f8301169050919050565b6000616467826163fc565b6164718185616407565b9350616481818560208601616418565b61648a8161644b565b840191505092915050565b600060208201905081810360008301526164af818461645c565b905092915050565b600073ffffffffffffffffffffffffffffffffffffffff82169050919050565b60006164e2826164b7565b9050919050565b6164f2816164d7565b82525050565b600060208201905061650d60008301846164e9565b92915050565b61651c816164d7565b811461652757600080fd5b50565b60008135905061653981616513565b92915050565b60008060408385031215616556576165556162d4565b5b60006165648582860161652a565b9250506020616575858286016163ba565b9150509250929050565b61658881616399565b82525050565b60006020820190506165a3600083018461657f565b92915050565b6000806000606084860312156165c2576165c16162d4565b5b60006165d08682870161652a565b93505060206165e18682870161652a565b92505060406165f2868287016163ba565b9150509250925092565b6000819050919050565b61660f816165fc565b811461661a57600080fd5b50565b60008135905061662c81616606565b92915050565b600060208284031215616648576166476162d4565b5b60006166568482850161661d565b91505092915050565b616668816165fc565b82525050565b6000602082019050616683600083018461665f565b92915050565b600080604083850312156166a05761669f6162d4565b5b60006166ae8582860161661d565b92505060206166bf8582860161652a565b9150509250929050565b600080604083850312156166e0576166df6162d4565b5b60006166ee858286016163ba565b92505060206166ff8582860161652a565b9150509250929050565b60006020828403121561671f5761671e6162d4565b5b600061672d8482850161652a565b91505092915050565b600080fd5b600080fd5b7f4e487b7100000000000000000000000000000000000000000000000000000000600052604160045260246000fd5b6167788261644b565b810181811067ffffffffffffffff8211171561679757616796616740565b5b80604052505050565b60006167aa6162ca565b90506167b6828261676f565b919050565b600067ffffffffffffffff8211156167d6576167d5616740565b5b6167df8261644b565b9050602081019050919050565b82818337600083830152505050565b600061680e616809846167bb565b6167a0565b90508281526020810184848401111561682a5761682961673b565b5b6168358482856167ec565b509392505050565b600082601f83011261685257616851616736565b5b81356168628482602086016167fb565b91505092915050565b600060208284031215616881576168806162d4565b5b600082013567ffffffffffffffff81111561689f5761689e6162d9565b5b6168ab8482850161683d565b91505092915050565b600061ffff82169050919050565b6168cb816168b4565b82525050565b60006020820190506168e660008301846168c2565b92915050565b600060209050919050565b600081905092915050565b6000819050919050565b600063ffffffff82169050919050565b6169258161690c565b82525050565b6000616937838361691c565b60208301905092915050565b6000602082019050919050565b616959816168ec565b61696381846168f7565b925061696e82616902565b8060005b8381101561699f578151616986878261692b565b965061699183616943565b925050600181019050616972565b505050505050565b6000610400820190506169bd6000830184616950565b92915050565b6169cc81616363565b81146169d757600080fd5b50565b6000813590506169e9816169c3565b92915050565b60008060408385031215616a0657616a056162d4565b5b6000616a148582860161652a565b9250506020616a25858286016169da565b9150509250929050565b600067ffffffffffffffff821115616a4a57616a49616740565b5b616a538261644b565b9050602081019050919050565b6000616a73616a6e84616a2f565b6167a0565b905082815260208101848484011115616a8f57616a8e61673b565b5b616a9a8482856167ec565b509392505050565b600082601f830112616ab757616ab6616736565b5b8135616ac7848260208601616a60565b91505092915050565b60008060008060808587031215616aea57616ae96162d4565b5b6000616af88782880161652a565b9450506020616b098782880161652a565b9350506040616b1a878288016163ba565b925050606085013567ffffffffffffffff811115616b3b57616b3a6162d9565b5b616b4787828801616aa2565b91505092959194509250565b616b5c816168b4565b8114616b6757600080fd5b50565b600081359050616b7981616b53565b92915050565b600080600060608486031215616b9857616b976162d4565b5b6000616ba686828701616b6a565b9350506020616bb786828701616b6a565b9250506040616bc886828701616b6a565b9150509250925092565b600060049050919050565b600081905092915050565b6000819050919050565b616bfb81616399565b82525050565b6000616c0d8383616bf2565b60208301905092915050565b6000602082019050919050565b616c2f81616bd2565b616c398184616bdd565b9250616c4482616be8565b8060005b83811015616c75578151616c5c8782616c01565b9650616c6783616c19565b925050600181019050616c48565b505050505050565b6000608082019050616c926000830184616c26565b92915050565b60008060408385031215616caf57616cae6162d4565b5b6000616cbd8582860161652a565b9250506020616cce8582860161652a565b9150509250929050565b60008060408385031215616cef57616cee6162d4565b5b6000616cfd858286016163ba565b9250506020616d0e858286016163ba565b9150509250929050565b7f4e487b7100000000000000000000000000000000000000000000000000000000600052602260045260246000fd5b60006002820490506001821680616d5f57607f821691505b60208210811415616d7357616d72616d18565b5b50919050565b7f4552433732313a20617070726f76656420717565727920666f72206e6f6e657860008201527f697374656e7420746f6b656e0000000000000000000000000000000000000000602082015250565b6000616dd5602c83616407565b9150616de082616d79565b604082019050919050565b60006020820190508181036000830152616e0481616dc8565b9050919050565b7f4552433732313a20617070726f76616c20746f2063757272656e74206f776e6560008201527f7200000000000000000000000000000000000000000000000000000000000000602082015250565b6000616e67602183616407565b9150616e7282616e0b565b604082019050919050565b60006020820190508181036000830152616e9681616e5a565b9050919050565b7f4552433732313a20617070726f76652063616c6c6572206973206e6f74206f7760008201527f6e6572206e6f7220617070726f76656420666f7220616c6c0000000000000000602082015250565b6000616ef9603883616407565b9150616f0482616e9d565b604082019050919050565b60006020820190508181036000830152616f2881616eec565b9050919050565b7f4530313700000000000000000000000000000000000000000000000000000000600082015250565b6000616f65600483616407565b9150616f7082616f2f565b602082019050919050565b60006020820190508181036000830152616f9481616f58565b9050919050565b7f4530303500000000000000000000000000000000000000000000000000000000600082015250565b6000616fd1600483616407565b9150616fdc82616f9b565b602082019050919050565b6000602082019050818103600083015261700081616fc4565b9050919050565b7f4e487b7100000000000000000000000000000000000000000000000000000000600052601160045260246000fd5b600061704182616399565b915061704c83616399565b9250827fffffffffffffffffffffffffffffffffffffffffffffffffffffffffffffffff0382111561708157617080617007565b5b828201905092915050565b7f4552433732313a207472616e736665722063616c6c6572206973206e6f74206f60008201527f776e6572206e6f7220617070726f766564000000000000000000000000000000602082015250565b60006170e8603183616407565b91506170f38261708c565b604082019050919050565b60006020820190508181036000830152617117816170db565b9050919050565b7f455243373231456e756d657261626c653a206f776e657220696e646578206f7560008201527f74206f6620626f756e6473000000000000000000000000000000000000000000602082015250565b600061717a602b83616407565b91506171858261711e565b604082019050919050565b600060208201905081810360008301526171a98161716d565b9050919050565b7f416363657373436f6e74726f6c3a2063616e206f6e6c792072656e6f756e636560008201527f20726f6c657320666f722073656c660000000000000000000000000000000000602082015250565b600061720c602f83616407565b9150617217826171b0565b604082019050919050565b6000602082019050818103600083015261723b816171ff565b9050919050565b7f4530313000000000000000000000000000000000000000000000000000000000600082015250565b6000617278600483616407565b915061728382617242565b602082019050919050565b600060208201905081810360008301526172a78161726b565b9050919050565b7f4530313600000000000000000000000000000000000000000000000000000000600082015250565b60006172e4600483616407565b91506172ef826172ae565b602082019050919050565b60006020820190508181036000830152617313816172d7565b9050919050565b7f4530313800000000000000000000000000000000000000000000000000000000600082015250565b6000617350600483616407565b915061735b8261731a565b602082019050919050565b6000602082019050818103600083015261737f81617343565b9050919050565b7f4530313900000000000000000000000000000000000000000000000000000000600082015250565b60006173bc600483616407565b91506173c782617386565b602082019050919050565b600060208201905081810360008301526173eb816173af565b9050919050565b600081905092915050565b50565b600061740d6000836173f2565b9150617418826173fd565b600082019050919050565b600061742e82617400565b9150819050919050565b7f4530323000000000000000000000000000000000000000000000000000000000600082015250565b600061746e600483616407565b915061747982617438565b602082019050919050565b6000602082019050818103600083015261749d81617461565b9050919050565b7f455243373231456e756d657261626c653a20676c6f62616c20696e646578206f60008201527f7574206f6620626f756e64730000000000000000000000000000000000000000602082015250565b6000617500602c83616407565b915061750b826174a4565b604082019050919050565b6000602082019050818103600083015261752f816174f3565b9050919050565b7f4e487b7100000000000000000000000000000000000000000000000000000000600052603260045260246000fd5b7f4530303900000000000000000000000000000000000000000000000000000000600082015250565b600061759b600483616407565b91506175a682617565565b602082019050919050565b600060208201905081810360008301526175ca8161758e565b9050919050565b7f4530313200000000000000000000000000000000000000000000000000000000600082015250565b6000617607600483616407565b9150617612826175d1565b602082019050919050565b60006020820190508181036000830152617636816175fa565b9050919050565b7f4530313300000000000000000000000000000000000000000000000000000000600082015250565b6000617673600483616407565b915061767e8261763d565b602082019050919050565b600060208201905081810360008301526176a281617666565b9050919050565b60006176b482616399565b91506176bf83616399565b9250828210156176d2576176d1617007565b5b828203905092915050565b7f4552433732313a206f776e657220717565727920666f72206e6f6e657869737460008201527f656e7420746f6b656e0000000000000000000000000000000000000000000000602082015250565b6000617739602983616407565b9150617744826176dd565b604082019050919050565b600060208201905081810360008301526177688161772c565b9050919050565b7f4530313100000000000000000000000000000000000000000000000000000000600082015250565b60006177a5600483616407565b91506177b08261776f565b602082019050919050565b600060208201905081810360008301526177d481617798565b9050919050565b7f4530303700000000000000000000000000000000000000000000000000000000600082015250565b6000617811600483616407565b915061781c826177db565b602082019050919050565b6000602082019050818103600083015261784081617804565b9050919050565b7f4552433732313a2062616c616e636520717565727920666f7220746865207a6560008201527f726f206164647265737300000000000000000000000000000000000000000000602082015250565b60006178a3602a83616407565b91506178ae82617847565b604082019050919050565b600060208201905081810360008301526178d281617896565b9050919050565b7f5265656e7472616e637947756172643a207265656e7472616e742063616c6c00600082015250565b600061790f601f83616407565b915061791a826178d9565b602082019050919050565b6000602082019050818103600083015261793e81617902565b9050919050565b7f4530303100000000000000000000000000000000000000000000000000000000600082015250565b600061797b600483616407565b915061798682617945565b602082019050919050565b600060208201905081810360008301526179aa8161796e565b9050919050565b60006179bc82616399565b91506179c783616399565b9250817fffffffffffffffffffffffffffffffffffffffffffffffffffffffffffffffff0483118215151615617a00576179ff617007565b5b828202905092915050565b7f4530303200000000000000000000000000000000000000000000000000000000600082015250565b6000617a41600483616407565b9150617a4c82617a0b565b602082019050919050565b60006020820190508181036000830152617a7081617a34565b9050919050565b7f4530303300000000000000000000000000000000000000000000000000000000600082015250565b6000617aad600483616407565b9150617ab882617a77565b602082019050919050565b60006020820190508181036000830152617adc81617aa0565b9050919050565b6000617aee82616399565b91507fffffffffffffffffffffffffffffffffffffffffffffffffffffffffffffffff821415617b2157617b20617007565b5b600182019050919050565b7f4530303400000000000000000000000000000000000000000000000000000000600082015250565b6000617b62600483616407565b9150617b6d82617b2c565b602082019050919050565b60006020820190508181036000830152617b9181617b55565b9050919050565b7f4e487b7100000000000000000000000000000000000000000000000000000000600052601260045260246000fd5b6000617bd2826168b4565b9150617bdd836168b4565b925082617bed57617bec617b98565b5b828206905092915050565b6000617c03826168b4565b915061ffff821415617c1857617c17617007565b5b600182019050919050565b6000617c2e826168b4565b9150617c39836168b4565b925082821015617c4c57617c4b617007565b5b828203905092915050565b6000617c62826168b4565b9150617c6d836168b4565b92508261ffff03821115617c8457617c83617007565b5b828201905092915050565b60008160011c9050919050565b6000808291508390505b6001851115617ce657808604811115617cc257617cc1617007565b5b6001851615617cd15780820291505b8081029050617cdf85617c8f565b9450617ca6565b94509492505050565b600082617cff5760019050617dbb565b81617d0d5760009050617dbb565b8160018114617d235760028114617d2d57617d5c565b6001915050617dbb565b60ff841115617d3f57617d3e617007565b5b8360020a915084821115617d5657617d55617007565b5b50617dbb565b5060208310610133831016604e8410600b8410161715617d915782820a905083811115617d8c57617d8b617007565b5b617dbb565b617d9e8484846001617c9c565b92509050818404811115617db557617db4617007565b5b81810290505b9392505050565b6000617dcd8261690c565b9150617dd8836168b4565b9250617de963ffffffff8484617cef565b905092915050565b7f4552433732313a20617070726f766520746f2063616c6c657200000000000000600082015250565b6000617e27601983616407565b9150617e3282617df1565b602082019050919050565b60006020820190508181036000830152617e5681617e1a565b9050919050565b60008160f01b9050919050565b6000617e7582617e5d565b9050919050565b617e8d617e88826168b4565b617e6a565b82525050565b6000617e9f8285617e7c565b600282019150617eaf8284617e7c565b6002820191508190509392505050565b7f4552433732314d657461646174613a2055524920717565727920666f72206e6f60008201527f6e6578697374656e7420746f6b656e0000000000000000000000000000000000602082015250565b6000617f1b602f83616407565b9150617f2682617ebf565b604082019050919050565b60006020820190508181036000830152617f4a81617f0e565b9050919050565b600081905092915050565b6000617f67826163fc565b617f718185617f51565b9350617f81818560208601616418565b80840191505092915050565b6000617f998285617f5c565b9150617fa58284617f5c565b91508190509392505050565b7f4530303600000000000000000000000000000000000000000000000000000000600082015250565b6000617fe7600483616407565b9150617ff282617fb1565b602082019050919050565b6000602082019050818103600083015261801681617fda565b9050919050565b7f4530303800000000000000000000000000000000000000000000000000000000600082015250565b6000618053600483616407565b915061805e8261801d565b602082019050919050565b6000602082019050818103600083015261808281618046565b9050919050565b7f4530313400000000000000000000000000000000000000000000000000000000600082015250565b60006180bf600483616407565b91506180ca82618089565b602082019050919050565b600060208201905081810360008301526180ee816180b2565b9050919050565b7f4530313500000000000000000000000000000000000000000000000000000000600082015250565b600061812b600483616407565b9150618136826180f5565b602082019050919050565b6000602082019050818103600083015261815a8161811e565b9050919050565b6000604082019050618176600083018561657f565b618183602083018461657f565b9392505050565b7f4552433732313a206f70657261746f7220717565727920666f72206e6f6e657860008201527f697374656e7420746f6b656e0000000000000000000000000000000000000000602082015250565b60006181e6602c83616407565b91506181f18261818a565b604082019050919050565b60006020820190508181036000830152618215816181d9565b9050919050565b7f4552433732313a207472616e73666572206f6620746f6b656e2074686174206960008201527f73206e6f74206f776e0000000000000000000000000000000000000000000000602082015250565b6000618278602983616407565b91506182838261821c565b604082019050919050565b600060208201905081810360008301526182a78161826b565b9050919050565b7f4552433732313a207472616e7366657220746f20746865207a65726f2061646460008201527f7265737300000000000000000000000000000000000000000000000000000000602082015250565b600061830a602483616407565b9150618315826182ae565b604082019050919050565b60006020820190508181036000830152618339816182fd565b9050919050565b7f416363657373436f6e74726f6c3a206163636f756e7420000000000000000000600082015250565b6000618376601783617f51565b915061838182618340565b601782019050919050565b7f206973206d697373696e6720726f6c6520000000000000000000000000000000600082015250565b60006183c2601183617f51565b91506183cd8261838c565b601182019050919050565b60006183e382618369565b91506183ef8285617f5c565b91506183fa826183b5565b91506184068284617f5c565b91508190509392505050565b600061841d826168b4565b9150618428836168b4565b925061843761ffff8484617cef565b905092915050565b6000819050919050565b61845a61845582616399565b61843f565b82525050565b600061846c8284618449565b60208201915081905092915050565b600061848682616399565b915061849183616399565b9250826184a1576184a0617b98565b5b828206905092915050565b60006184b782616399565b91506184c283616399565b9250826184d2576184d1617b98565b5b828204905092915050565b7f4552433732313a207472616e7366657220746f206e6f6e20455243373231526560008201527f63656976657220696d706c656d656e7465720000000000000000000000000000602082015250565b6000618539603283616407565b9150618544826184dd565b604082019050919050565b600060208201905081810360008301526185688161852c565b9050919050565b600061857a82616399565b9150600082141561858e5761858d617007565b5b600182039050919050565b7f537472696e67733a20686578206c656e67746820696e73756666696369656e74600082015250565b60006185cf602083616407565b91506185da82618599565b602082019050919050565b600060208201905081810360008301526185fe816185c2565b9050919050565b6000819050919050565b61862061861b826165fc565b618605565b82525050565b6000618631826164b7565b9050919050565b60008160601b9050919050565b600061865082618638565b9050919050565b600061866282618645565b9050919050565b61867a61867582618626565b618657565b82525050565b600061868b82618645565b9050919050565b6186a361869e826164d7565b618680565b82525050565b60006186b58289618449565b6020820191506186c58288618449565b6020820191506186d5828761860f565b6020820191506186e58286618669565b6014820191506186f58285618449565b6020820191506187058284618692565b601482019150819050979650505050505050565b600081519050919050565b600082825260208201905092915050565b600061874082618719565b61874a8185618724565b935061875a818560208601616418565b6187638161644b565b840191505092915050565b600060808201905061878360008301876164e9565b61879060208301866164e9565b61879d604083018561657f565b81810360608301526187af8184618735565b905095945050505050565b6000815190506187c98161630a565b92915050565b6000602082840312156187e5576187e46162d4565b5b60006187f3848285016187ba565b91505092915050565b7f4e487b7100000000000000000000000000000000000000000000000000000000600052603160045260246000fd5b7f4552433732313a206d696e7420746f20746865207a65726f2061646472657373600082015250565b6000618861602083616407565b915061886c8261882b565b602082019050919050565b6000602082019050818103600083015261889081618854565b9050919050565b7f4552433732313a20746f6b656e20616c7265616479206d696e74656400000000600082015250565b60006188cd601c83616407565b91506188d882618897565b602082019050919050565b600060208201905081810360008301526188fc816188c0565b905091905056fea264697066735822122033474e8f3c871dd810131409b5b7c8099805c18439a557c4f36be2b6cde492eb64736f6c6343000808003368747470733a2f2f6d6574612e636f696e6c616e6465722e6f6e652f7365656b6572732f",
  "linkReferences": {},
  "deployedLinkReferences": {}
}