{
  "_format": "hh-sol-artifact-1",
  "contractName": "Seekers",
  "sourceName": "contracts/Seekers.sol",
  "abi": [
    {
      "inputs": [],
      "stateMutability": "nonpayable",
      "type": "constructor"
    },
    {
      "anonymous": false,
      "inputs": [
        {
          "indexed": true,
          "internalType": "address",
          "name": "owner",
          "type": "address"
        },
        {
          "indexed": true,
          "internalType": "address",
          "name": "approved",
          "type": "address"
        },
        {
          "indexed": true,
          "internalType": "uint256",
          "name": "tokenId",
          "type": "uint256"
        }
      ],
      "name": "Approval",
      "type": "event"
    },
    {
      "anonymous": false,
      "inputs": [
        {
          "indexed": true,
          "internalType": "address",
          "name": "owner",
          "type": "address"
        },
        {
          "indexed": true,
          "internalType": "address",
          "name": "operator",
          "type": "address"
        },
        {
          "indexed": false,
          "internalType": "bool",
          "name": "approved",
          "type": "bool"
        }
      ],
      "name": "ApprovalForAll",
      "type": "event"
    },
    {
      "anonymous": false,
      "inputs": [
        {
          "indexed": false,
          "internalType": "uint256",
          "name": "id",
          "type": "uint256"
        }
      ],
      "name": "DethscalesRerolled",
      "type": "event"
    },
    {
      "anonymous": false,
      "inputs": [],
      "name": "FirstMintActivated",
      "type": "event"
    },
    {
      "anonymous": false,
      "inputs": [
        {
          "indexed": true,
          "internalType": "uint256",
          "name": "seekerId",
          "type": "uint256"
        },
        {
          "indexed": false,
          "internalType": "uint256",
          "name": "powerAdded",
          "type": "uint256"
        },
        {
          "indexed": false,
          "internalType": "uint256",
          "name": "newPower",
          "type": "uint256"
        }
      ],
      "name": "PowerAdded",
      "type": "event"
    },
    {
      "anonymous": false,
      "inputs": [
        {
          "indexed": true,
          "internalType": "bytes32",
          "name": "role",
          "type": "bytes32"
        },
        {
          "indexed": true,
          "internalType": "bytes32",
          "name": "previousAdminRole",
          "type": "bytes32"
        },
        {
          "indexed": true,
          "internalType": "bytes32",
          "name": "newAdminRole",
          "type": "bytes32"
        }
      ],
      "name": "RoleAdminChanged",
      "type": "event"
    },
    {
      "anonymous": false,
      "inputs": [
        {
          "indexed": true,
          "internalType": "bytes32",
          "name": "role",
          "type": "bytes32"
        },
        {
          "indexed": true,
          "internalType": "address",
          "name": "account",
          "type": "address"
        },
        {
          "indexed": true,
          "internalType": "address",
          "name": "sender",
          "type": "address"
        }
      ],
      "name": "RoleGranted",
      "type": "event"
    },
    {
      "anonymous": false,
      "inputs": [
        {
          "indexed": true,
          "internalType": "bytes32",
          "name": "role",
          "type": "bytes32"
        },
        {
          "indexed": true,
          "internalType": "address",
          "name": "account",
          "type": "address"
        },
        {
          "indexed": true,
          "internalType": "address",
          "name": "sender",
          "type": "address"
        }
      ],
      "name": "RoleRevoked",
      "type": "event"
    },
    {
      "anonymous": false,
      "inputs": [],
      "name": "SecondMintActivated",
      "type": "event"
    },
    {
      "anonymous": false,
      "inputs": [
        {
          "indexed": true,
          "internalType": "uint256",
          "name": "seekerId",
          "type": "uint256"
        },
        {
          "indexed": true,
          "internalType": "address",
          "name": "clan",
          "type": "address"
        }
      ],
      "name": "SeekerDeclaredToClan",
      "type": "event"
    },
    {
      "anonymous": false,
      "inputs": [
        {
          "indexed": true,
          "internalType": "uint256",
          "name": "seekerId",
          "type": "uint256"
        }
      ],
      "name": "SeekerUncloaked",
      "type": "event"
    },
    {
      "anonymous": false,
      "inputs": [],
      "name": "ThirdMintActivated",
      "type": "event"
    },
    {
      "anonymous": false,
      "inputs": [
        {
          "indexed": true,
          "internalType": "address",
          "name": "from",
          "type": "address"
        },
        {
          "indexed": true,
          "internalType": "address",
          "name": "to",
          "type": "address"
        },
        {
          "indexed": true,
          "internalType": "uint256",
          "name": "tokenId",
          "type": "uint256"
        }
      ],
      "name": "Transfer",
      "type": "event"
    },
    {
      "anonymous": false,
      "inputs": [],
      "name": "UncloakingAvailable",
      "type": "event"
    },
    {
      "inputs": [],
      "name": "BIRTHSEEKERPOWERSTART",
      "outputs": [
        {
          "internalType": "uint16",
          "name": "",
          "type": "uint16"
        }
      ],
      "stateMutability": "view",
      "type": "function"
    },
    {
      "inputs": [],
      "name": "DEFAULT_ADMIN_ROLE",
      "outputs": [
        {
          "internalType": "bytes32",
          "name": "",
          "type": "bytes32"
        }
      ],
      "stateMutability": "view",
      "type": "function"
    },
    {
      "inputs": [],
      "name": "DETHSCALEREROLLCOST",
      "outputs": [
        {
          "internalType": "uint16",
          "name": "",
          "type": "uint16"
        }
      ],
      "stateMutability": "view",
      "type": "function"
    },
    {
      "inputs": [],
      "name": "FIRSTMINT",
      "outputs": [
        {
          "internalType": "uint256",
          "name": "",
          "type": "uint256"
        }
      ],
      "stateMutability": "view",
      "type": "function"
    },
    {
      "inputs": [],
      "name": "FIRSTMINTPRICE",
      "outputs": [
        {
          "internalType": "uint256",
          "name": "",
          "type": "uint256"
        }
      ],
      "stateMutability": "view",
      "type": "function"
    },
    {
      "inputs": [],
      "name": "GAME_ROLE",
      "outputs": [
        {
          "internalType": "bytes32",
          "name": "",
          "type": "bytes32"
        }
      ],
      "stateMutability": "view",
      "type": "function"
    },
    {
      "inputs": [],
      "name": "KEEPERS_ROLE",
      "outputs": [
        {
          "internalType": "bytes32",
          "name": "",
          "type": "bytes32"
        }
      ],
      "stateMutability": "view",
      "type": "function"
    },
    {
      "inputs": [],
      "name": "MAXMINTABLE",
      "outputs": [
        {
          "internalType": "uint256",
          "name": "",
          "type": "uint256"
        }
      ],
      "stateMutability": "view",
      "type": "function"
    },
    {
      "inputs": [],
      "name": "MAXPOWER",
      "outputs": [
        {
          "internalType": "uint16",
          "name": "",
          "type": "uint16"
        }
      ],
      "stateMutability": "view",
      "type": "function"
    },
    {
      "inputs": [],
      "name": "MAXSEEKERS",
      "outputs": [
        {
          "internalType": "uint256",
          "name": "",
          "type": "uint256"
        }
      ],
      "stateMutability": "view",
      "type": "function"
    },
    {
      "inputs": [],
      "name": "SECONDMINT",
      "outputs": [
        {
          "internalType": "uint256",
          "name": "",
          "type": "uint256"
        }
      ],
      "stateMutability": "view",
      "type": "function"
    },
    {
      "inputs": [],
      "name": "SECONDMINTPRICE",
      "outputs": [
        {
          "internalType": "uint256",
          "name": "",
          "type": "uint256"
        }
      ],
      "stateMutability": "view",
      "type": "function"
    },
    {
      "inputs": [],
      "name": "SUMMONSEEKERPOWERSTART",
      "outputs": [
        {
          "internalType": "uint16",
          "name": "",
          "type": "uint16"
        }
      ],
      "stateMutability": "view",
      "type": "function"
    },
    {
      "inputs": [],
      "name": "THIRDMINT",
      "outputs": [
        {
          "internalType": "uint256",
          "name": "",
          "type": "uint256"
        }
      ],
      "stateMutability": "view",
      "type": "function"
    },
    {
      "inputs": [],
      "name": "THIRDMINTPRICE",
      "outputs": [
        {
          "internalType": "uint256",
          "name": "",
          "type": "uint256"
        }
      ],
      "stateMutability": "view",
      "type": "function"
    },
    {
      "inputs": [],
      "name": "THIRDMINT_INCR",
      "outputs": [
        {
          "internalType": "uint256",
          "name": "",
          "type": "uint256"
        }
      ],
      "stateMutability": "view",
      "type": "function"
    },
    {
      "inputs": [],
      "name": "THIRDMINT_TOTAL",
      "outputs": [
        {
          "internalType": "uint256",
          "name": "",
          "type": "uint256"
        }
      ],
      "stateMutability": "view",
      "type": "function"
    },
    {
      "inputs": [
        {
          "internalType": "uint16",
          "name": "mod",
          "type": "uint16"
        },
        {
          "internalType": "uint16",
          "name": "r1",
          "type": "uint16"
        },
        {
          "internalType": "uint16",
          "name": "r2",
          "type": "uint16"
        }
      ],
      "name": "_getRandomNumber16",
      "outputs": [
        {
          "internalType": "uint16",
          "name": "",
          "type": "uint16"
        }
      ],
      "stateMutability": "pure",
      "type": "function"
    },
    {
      "inputs": [],
      "name": "activateFirstMint",
      "outputs": [],
      "stateMutability": "nonpayable",
      "type": "function"
    },
    {
      "inputs": [],
      "name": "activateSecondMint",
      "outputs": [],
      "stateMutability": "nonpayable",
      "type": "function"
    },
    {
      "inputs": [],
      "name": "activateThirdMint",
      "outputs": [],
      "stateMutability": "nonpayable",
      "type": "function"
    },
    {
      "inputs": [
        {
          "internalType": "address",
          "name": "gameContract",
          "type": "address"
        }
      ],
      "name": "addGameContract",
      "outputs": [],
      "stateMutability": "nonpayable",
      "type": "function"
    },
    {
      "inputs": [
        {
          "internalType": "address",
          "name": "newKeeper",
          "type": "address"
        }
      ],
      "name": "addKeeper",
      "outputs": [],
      "stateMutability": "nonpayable",
      "type": "function"
    },
    {
      "inputs": [
        {
          "internalType": "uint256",
          "name": "id",
          "type": "uint256"
        },
        {
          "internalType": "uint256",
          "name": "power",
          "type": "uint256"
        }
      ],
      "name": "addPower",
      "outputs": [],
      "stateMutability": "nonpayable",
      "type": "function"
    },
    {
      "inputs": [
        {
          "internalType": "address",
          "name": "to",
          "type": "address"
        },
        {
          "internalType": "uint256",
          "name": "tokenId",
          "type": "uint256"
        }
      ],
      "name": "approve",
      "outputs": [],
      "stateMutability": "nonpayable",
      "type": "function"
    },
    {
      "inputs": [
        {
          "internalType": "address",
          "name": "owner",
          "type": "address"
        }
      ],
      "name": "balanceOf",
      "outputs": [
        {
          "internalType": "uint256",
          "name": "",
          "type": "uint256"
        }
      ],
      "stateMutability": "view",
      "type": "function"
    },
    {
      "inputs": [
        {
          "internalType": "address",
          "name": "to",
          "type": "address"
        }
      ],
      "name": "birthSeeker",
      "outputs": [
        {
          "internalType": "uint256",
          "name": "",
          "type": "uint256"
        }
      ],
      "stateMutability": "nonpayable",
      "type": "function"
    },
    {
      "inputs": [
        {
          "internalType": "uint256",
          "name": "id",
          "type": "uint256"
        },
        {
          "internalType": "uint16",
          "name": "powerToBurn",
          "type": "uint16"
        }
      ],
      "name": "burnPower",
      "outputs": [],
      "stateMutability": "nonpayable",
      "type": "function"
    },
    {
      "inputs": [],
      "name": "currentBuyableSeekers",
      "outputs": [
        {
          "internalType": "uint256",
          "name": "",
          "type": "uint256"
        }
      ],
      "stateMutability": "view",
      "type": "function"
    },
    {
      "inputs": [],
      "name": "currentPrice",
      "outputs": [
        {
          "internalType": "uint256",
          "name": "",
          "type": "uint256"
        }
      ],
      "stateMutability": "view",
      "type": "function"
    },
    {
      "inputs": [
        {
          "internalType": "uint256",
          "name": "id",
          "type": "uint256"
        },
        {
          "internalType": "address",
          "name": "clanAddress",
          "type": "address"
        }
      ],
      "name": "declareForClan",
      "outputs": [],
      "stateMutability": "nonpayable",
      "type": "function"
    },
    {
      "inputs": [],
      "name": "endGoodsOnly",
      "outputs": [],
      "stateMutability": "nonpayable",
      "type": "function"
    },
    {
      "inputs": [],
      "name": "evilsOnly",
      "outputs": [
        {
          "internalType": "bool",
          "name": "",
          "type": "bool"
        }
      ],
      "stateMutability": "view",
      "type": "function"
    },
    {
      "inputs": [],
      "name": "firstMintActive",
      "outputs": [
        {
          "internalType": "bool",
          "name": "",
          "type": "bool"
        }
      ],
      "stateMutability": "view",
      "type": "function"
    },
    {
      "inputs": [
        {
          "internalType": "uint256",
          "name": "id",
          "type": "uint256"
        }
      ],
      "name": "getAlignmentById",
      "outputs": [
        {
          "internalType": "string",
          "name": "",
          "type": "string"
        }
      ],
      "stateMutability": "view",
      "type": "function"
    },
    {
      "inputs": [
        {
          "internalType": "uint256",
          "name": "id",
          "type": "uint256"
        }
      ],
      "name": "getApById",
      "outputs": [
        {
          "internalType": "uint8[4]",
          "name": "",
          "type": "uint8[4]"
        }
      ],
      "stateMutability": "view",
      "type": "function"
    },
    {
      "inputs": [
        {
          "internalType": "uint256",
          "name": "tokenId",
          "type": "uint256"
        }
      ],
      "name": "getApproved",
      "outputs": [
        {
          "internalType": "address",
          "name": "",
          "type": "address"
        }
      ],
      "stateMutability": "view",
      "type": "function"
    },
    {
      "inputs": [
        {
          "internalType": "uint256",
          "name": "id",
          "type": "uint256"
        }
      ],
      "name": "getBirthStatusById",
      "outputs": [
        {
          "internalType": "bool",
          "name": "",
          "type": "bool"
        }
      ],
      "stateMutability": "view",
      "type": "function"
    },
    {
      "inputs": [
        {
          "internalType": "uint256",
          "name": "id",
          "type": "uint256"
        }
      ],
      "name": "getClanById",
      "outputs": [
        {
          "internalType": "address",
          "name": "",
          "type": "address"
        }
      ],
      "stateMutability": "view",
      "type": "function"
    },
    {
      "inputs": [
        {
          "internalType": "uint256",
          "name": "id",
          "type": "uint256"
        }
      ],
      "name": "getCloakStatusById",
      "outputs": [
        {
          "internalType": "bool",
          "name": "",
          "type": "bool"
        }
      ],
      "stateMutability": "view",
      "type": "function"
    },
    {
      "inputs": [
        {
          "internalType": "uint256",
          "name": "id",
          "type": "uint256"
        }
      ],
      "name": "getDethscalesById",
      "outputs": [
        {
          "internalType": "uint16",
          "name": "",
          "type": "uint16"
        }
      ],
      "stateMutability": "view",
      "type": "function"
    },
    {
      "inputs": [
        {
          "internalType": "uint256",
          "name": "id",
          "type": "uint256"
        }
      ],
      "name": "getFullCloak",
      "outputs": [
        {
          "internalType": "uint32[32]",
          "name": "",
          "type": "uint32[32]"
        }
      ],
      "stateMutability": "view",
      "type": "function"
    },
    {
      "inputs": [
        {
          "internalType": "uint256",
          "name": "id",
          "type": "uint256"
        }
      ],
      "name": "getPowerById",
      "outputs": [
        {
          "internalType": "uint16",
          "name": "",
          "type": "uint16"
        }
      ],
      "stateMutability": "view",
      "type": "function"
    },
    {
      "inputs": [
        {
          "internalType": "bytes32",
          "name": "role",
          "type": "bytes32"
        }
      ],
      "name": "getRoleAdmin",
      "outputs": [
        {
          "internalType": "bytes32",
          "name": "",
          "type": "bytes32"
        }
      ],
      "stateMutability": "view",
      "type": "function"
    },
    {
      "inputs": [],
      "name": "goodsOnly",
      "outputs": [
        {
          "internalType": "bool",
          "name": "",
          "type": "bool"
        }
      ],
      "stateMutability": "view",
      "type": "function"
    },
    {
      "inputs": [
        {
          "internalType": "bytes32",
          "name": "role",
          "type": "bytes32"
        },
        {
          "internalType": "address",
          "name": "account",
          "type": "address"
        }
      ],
      "name": "grantRole",
      "outputs": [],
      "stateMutability": "nonpayable",
      "type": "function"
    },
    {
      "inputs": [
        {
          "internalType": "bytes32",
          "name": "role",
          "type": "bytes32"
        },
        {
          "internalType": "address",
          "name": "account",
          "type": "address"
        }
      ],
      "name": "hasRole",
      "outputs": [
        {
          "internalType": "bool",
          "name": "",
          "type": "bool"
        }
      ],
      "stateMutability": "view",
      "type": "function"
    },
    {
      "inputs": [
        {
          "internalType": "address",
          "name": "owner",
          "type": "address"
        },
        {
          "internalType": "address",
          "name": "operator",
          "type": "address"
        }
      ],
      "name": "isApprovedForAll",
      "outputs": [
        {
          "internalType": "bool",
          "name": "",
          "type": "bool"
        }
      ],
      "stateMutability": "view",
      "type": "function"
    },
    {
      "inputs": [
        {
          "internalType": "uint256",
          "name": "summonCount",
          "type": "uint256"
        }
      ],
      "name": "keepersSummonSeeker",
      "outputs": [],
      "stateMutability": "nonpayable",
      "type": "function"
    },
    {
      "inputs": [],
      "name": "name",
      "outputs": [
        {
          "internalType": "string",
          "name": "",
          "type": "string"
        }
      ],
      "stateMutability": "view",
      "type": "function"
    },
    {
      "inputs": [
        {
          "internalType": "uint256",
          "name": "tokenId",
          "type": "uint256"
        }
      ],
      "name": "ownerOf",
      "outputs": [
        {
          "internalType": "address",
          "name": "",
          "type": "address"
        }
      ],
      "stateMutability": "view",
      "type": "function"
    },
    {
      "inputs": [],
      "name": "ownerWithdraw",
      "outputs": [],
      "stateMutability": "payable",
      "type": "function"
    },
    {
      "inputs": [],
      "name": "performUncloaking",
      "outputs": [],
      "stateMutability": "nonpayable",
      "type": "function"
    },
    {
      "inputs": [],
      "name": "released",
      "outputs": [
        {
          "internalType": "bool",
          "name": "",
          "type": "bool"
        }
      ],
      "stateMutability": "view",
      "type": "function"
    },
    {
      "inputs": [
        {
          "internalType": "bytes32",
          "name": "role",
          "type": "bytes32"
        },
        {
          "internalType": "address",
          "name": "account",
          "type": "address"
        }
      ],
      "name": "renounceRole",
      "outputs": [],
      "stateMutability": "nonpayable",
      "type": "function"
    },
    {
      "inputs": [
        {
          "internalType": "uint256",
          "name": "id",
          "type": "uint256"
        }
      ],
      "name": "rerollDethscales",
      "outputs": [],
      "stateMutability": "nonpayable",
      "type": "function"
    },
    {
      "inputs": [
        {
          "internalType": "bytes32",
          "name": "role",
          "type": "bytes32"
        },
        {
          "internalType": "address",
          "name": "account",
          "type": "address"
        }
      ],
      "name": "revokeRole",
      "outputs": [],
      "stateMutability": "nonpayable",
      "type": "function"
    },
    {
      "inputs": [
        {
          "internalType": "address",
          "name": "from",
          "type": "address"
        },
        {
          "internalType": "address",
          "name": "to",
          "type": "address"
        },
        {
          "internalType": "uint256",
          "name": "tokenId",
          "type": "uint256"
        }
      ],
      "name": "safeTransferFrom",
      "outputs": [],
      "stateMutability": "nonpayable",
      "type": "function"
    },
    {
      "inputs": [
        {
          "internalType": "address",
          "name": "from",
          "type": "address"
        },
        {
          "internalType": "address",
          "name": "to",
          "type": "address"
        },
        {
          "internalType": "uint256",
          "name": "tokenId",
          "type": "uint256"
        },
        {
          "internalType": "bytes",
          "name": "_data",
          "type": "bytes"
        }
      ],
      "name": "safeTransferFrom",
      "outputs": [],
      "stateMutability": "nonpayable",
      "type": "function"
    },
    {
      "inputs": [],
      "name": "secondMintActive",
      "outputs": [
        {
          "internalType": "bool",
          "name": "",
          "type": "bool"
        }
      ],
      "stateMutability": "view",
      "type": "function"
    },
    {
      "inputs": [],
      "name": "seizureMintIncrement",
      "outputs": [],
      "stateMutability": "nonpayable",
      "type": "function"
    },
    {
      "inputs": [
        {
          "internalType": "address",
          "name": "winner",
          "type": "address"
        }
      ],
      "name": "sendWinnerSeeker",
      "outputs": [],
      "stateMutability": "nonpayable",
      "type": "function"
    },
    {
      "inputs": [
        {
          "internalType": "address",
          "name": "operator",
          "type": "address"
        },
        {
          "internalType": "bool",
          "name": "approved",
          "type": "bool"
        }
      ],
      "name": "setApprovalForAll",
      "outputs": [],
      "stateMutability": "nonpayable",
      "type": "function"
    },
    {
      "inputs": [
        {
          "internalType": "string",
          "name": "baseTokenURI",
          "type": "string"
        }
      ],
      "name": "setBaseURI",
      "outputs": [],
      "stateMutability": "nonpayable",
      "type": "function"
    },
    {
      "inputs": [
        {
          "internalType": "uint256",
          "name": "summonCount",
          "type": "uint256"
        }
      ],
      "name": "summonSeeker",
      "outputs": [],
      "stateMutability": "payable",
      "type": "function"
    },
    {
      "inputs": [
        {
          "internalType": "bytes4",
          "name": "interfaceId",
          "type": "bytes4"
        }
      ],
      "name": "supportsInterface",
      "outputs": [
        {
          "internalType": "bool",
          "name": "",
          "type": "bool"
        }
      ],
      "stateMutability": "view",
      "type": "function"
    },
    {
      "inputs": [],
      "name": "symbol",
      "outputs": [
        {
          "internalType": "string",
          "name": "",
          "type": "string"
        }
      ],
      "stateMutability": "view",
      "type": "function"
    },
    {
      "inputs": [],
      "name": "thirdMintActive",
      "outputs": [
        {
          "internalType": "bool",
          "name": "",
          "type": "bool"
        }
      ],
      "stateMutability": "view",
      "type": "function"
    },
    {
      "inputs": [
        {
          "internalType": "uint256",
          "name": "index",
          "type": "uint256"
        }
      ],
      "name": "tokenByIndex",
      "outputs": [
        {
          "internalType": "uint256",
          "name": "",
          "type": "uint256"
        }
      ],
      "stateMutability": "view",
      "type": "function"
    },
    {
      "inputs": [
        {
          "internalType": "address",
          "name": "owner",
          "type": "address"
        },
        {
          "internalType": "uint256",
          "name": "index",
          "type": "uint256"
        }
      ],
      "name": "tokenOfOwnerByIndex",
      "outputs": [
        {
          "internalType": "uint256",
          "name": "",
          "type": "uint256"
        }
      ],
      "stateMutability": "view",
      "type": "function"
    },
    {
      "inputs": [
        {
          "internalType": "uint256",
          "name": "tokenId",
          "type": "uint256"
        }
      ],
      "name": "tokenURI",
      "outputs": [
        {
          "internalType": "string",
          "name": "",
          "type": "string"
        }
      ],
      "stateMutability": "view",
      "type": "function"
    },
    {
      "inputs": [],
      "name": "totalSupply",
      "outputs": [
        {
          "internalType": "uint256",
          "name": "",
          "type": "uint256"
        }
      ],
      "stateMutability": "view",
      "type": "function"
    },
    {
      "inputs": [
        {
          "internalType": "address",
          "name": "from",
          "type": "address"
        },
        {
          "internalType": "address",
          "name": "to",
          "type": "address"
        },
        {
          "internalType": "uint256",
          "name": "tokenId",
          "type": "uint256"
        }
      ],
      "name": "transferFrom",
      "outputs": [],
      "stateMutability": "nonpayable",
      "type": "function"
    },
    {
      "inputs": [
        {
          "internalType": "uint256",
          "name": "id",
          "type": "uint256"
        }
      ],
      "name": "uncloakSeeker",
      "outputs": [],
      "stateMutability": "nonpayable",
      "type": "function"
    },
    {
      "inputs": [],
      "name": "uncloaking",
      "outputs": [
        {
          "internalType": "bool",
          "name": "",
          "type": "bool"
        }
      ],
      "stateMutability": "view",
      "type": "function"
    },
    {
      "stateMutability": "payable",
      "type": "receive"
    }
  ],
  "bytecode": "0x6000600c819055600d819055600e819055600f81905560108190556011556012805466ffffffffffffff1916905560e0604052602460808181529062006a9160a0398051620000579160159160209091019062000a5a565b506040805161016081018252600b61012082018181526a13185dd99d5b0811dbdbd960aa1b610140840152825282518084018452600c8082526b13995d5d1c985b0811dbdbd960a21b60208381019190915280850192909252845180860186528181526b10da185bdd1a58c811dbdbd960a21b818401528486015284518086018652600e81526d13185dd99d5b0813995d5d1c985b60921b818401526060850152845180860186528181526b151c9d594813995d5d1c985b60a21b81840152608085015284518086018652600f81526e10da185bdd1a58c813995d5d1c985b608a1b8184015260a0850152845180860186529283526a13185dd99d5b08115d9a5b60aa1b8383015260c0840192909252835180850185528281526b13995d5d1c985b08115d9a5b60a21b8183015260e084015283518085019094529083526b10da185bdd1a58c8115d9a5b60a21b90830152610100810191909152620001c290601690600962000ae9565b50348015620001d057600080fd5b5060408051808201825260078152665365656b65727360c81b6020808301918252835180850190945260048452635345454b60e01b9084015281519192916200021c9160009162000a5a565b5080516200023290600190602084019062000a5a565b50506001600b555062000247600033620002eb565b6200026260008051602062006a7183398151915233620002eb565b6200027e60008051602062006a718339815191526000620002fb565b6001600c600082825462000293919062000bd9565b9091555050600c54620002a890339062000346565b6040610643620002bd610d0561138862000bd9565b620002c9919062000bd9565b620002d5919062000bd9565b620002e290600262000bd9565b600d5562000d25565b620002f7828262000368565b5050565b6000828152600a6020526040808220600101805490849055905190918391839186917fbd79b86ffe0ab8e8776151514217cd7cacd52c909f66475c3af44e129f0b00ff9190a4505050565b620002f78282604051806020016040528060008152506200040c60201b60201c565b6000828152600a602090815260408083206001600160a01b038516845290915290205460ff16620002f7576000828152600a602090815260408083206001600160a01b03851684529091529020805460ff19166001179055620003c83390565b6001600160a01b0316816001600160a01b0316837f2f8788117e7eff1d82e926ec794901d17c78024a50270940304540a733656f0d60405160405180910390a45050565b62000418838362000488565b620004276000848484620005de565b620004835760405162461bcd60e51b8152602060048201526032602482015260008051602062006a5183398151915260448201527131b2b4bb32b91034b6b83632b6b2b73a32b960711b60648201526084015b60405180910390fd5b505050565b6001600160a01b038216620004e05760405162461bcd60e51b815260206004820181905260248201527f4552433732313a206d696e7420746f20746865207a65726f206164647265737360448201526064016200047a565b6000818152600260205260409020546001600160a01b031615620005475760405162461bcd60e51b815260206004820152601c60248201527f4552433732313a20746f6b656e20616c7265616479206d696e7465640000000060448201526064016200047a565b620005556000838362000737565b6001600160a01b03821660009081526003602052604081208054600192906200058090849062000bd9565b909155505060008181526002602052604080822080546001600160a01b0319166001600160a01b03861690811790915590518392907fddf252ad1be2c89b69c2b068fc378daa952ba7f163c4a11628f55a4df523b3ef908290a45050565b6000620005ff846001600160a01b03166200081360201b620033ab1760201c565b156200072b57604051630a85bd0160e11b81526001600160a01b0385169063150b7a02906200063990339089908890889060040162000bf4565b6020604051808303816000875af192505050801562000677575060408051601f3d908101601f19168201909252620006749181019062000c6f565b60015b62000710573d808015620006a8576040519150601f19603f3d011682016040523d82523d6000602084013e620006ad565b606091505b508051620007085760405162461bcd60e51b8152602060048201526032602482015260008051602062006a5183398151915260448201527131b2b4bb32b91034b6b83632b6b2b73a32b960711b60648201526084016200047a565b805181602001fd5b6001600160e01b031916630a85bd0160e11b1490506200072f565b5060015b949350505050565b6200074f8383836200048360201b620013fa1760201c565b6001600160a01b038316620007ad57620007a781600880546000838152600960205260408120829055600182018355919091527ff3f7a9fe364faab93b216da50a3214154f22a0a2b415b23a84c8169e8b636ee30155565b620007d3565b816001600160a01b0316836001600160a01b031614620007d357620007d3838262000819565b6001600160a01b038216620007ed576200048381620008c6565b826001600160a01b0316826001600160a01b031614620004835762000483828262000980565b3b151590565b600060016200083384620009d160201b620022cb1760201c565b6200083f919062000ca2565b60008381526007602052604090205490915080821462000893576001600160a01b03841660009081526006602090815260408083208584528252808320548484528184208190558352600790915290208190555b5060009182526007602090815260408084208490556001600160a01b039094168352600681528383209183525290812055565b600854600090620008da9060019062000ca2565b6000838152600960205260408120546008805493945090928490811062000905576200090562000cbc565b90600052602060002001549050806008838154811062000929576200092962000cbc565b600091825260208083209091019290925582815260099091526040808220849055858252812055600880548062000964576200096462000cd2565b6001900381819060005260206000200160009055905550505050565b60006200099883620009d160201b620022cb1760201c565b6001600160a01b039093166000908152600660209081526040808320868452825280832085905593825260079052919091209190915550565b60006001600160a01b03821662000a3e5760405162461bcd60e51b815260206004820152602a60248201527f4552433732313a2062616c616e636520717565727920666f7220746865207a65604482015269726f206164647265737360b01b60648201526084016200047a565b506001600160a01b031660009081526003602052604090205490565b82805462000a689062000ce8565b90600052602060002090601f01602090048101928262000a8c576000855562000ad7565b82601f1062000aa757805160ff191683800117855562000ad7565b8280016001018555821562000ad7579182015b8281111562000ad757825182559160200191906001019062000aba565b5062000ae592915062000b49565b5090565b82805482825590600052602060002090810192821562000b3b579160200282015b8281111562000b3b578251805162000b2a91849160209091019062000a5a565b509160200191906001019062000b0a565b5062000ae592915062000b60565b5b8082111562000ae5576000815560010162000b4a565b8082111562000ae557600062000b77828262000b81565b5060010162000b60565b50805462000b8f9062000ce8565b6000825580601f1062000ba0575050565b601f01602090049060005260206000209081019062000bc0919062000b49565b50565b634e487b7160e01b600052601160045260246000fd5b6000821982111562000bef5762000bef62000bc3565b500190565b600060018060a01b038087168352602081871681850152856040850152608060608501528451915081608085015260005b8281101562000c435785810182015185820160a00152810162000c25565b8281111562000c5657600060a084870101525b5050601f01601f19169190910160a00195945050505050565b60006020828403121562000c8257600080fd5b81516001600160e01b03198116811462000c9b57600080fd5b9392505050565b60008282101562000cb75762000cb762000bc3565b500390565b634e487b7160e01b600052603260045260246000fd5b634e487b7160e01b600052603160045260246000fd5b600181811c9082168062000cfd57607f821691505b6020821081141562000d1f57634e487b7160e01b600052602260045260246000fd5b50919050565b615d1c8062000d356000396000f3fe6080604052600436106104f05760003560e01c806381cd08ee11610294578063c2b278791161015e578063dec3a74c116100d6578063e985e9c51161008a578063eeb3f66d1161006f578063eeb3f66d14610e89578063fe01946214610eab578063ff25b2b214610ec057600080fd5b8063e985e9c514610e26578063eb8fafd014610e6f57600080fd5b8063e25a8b61116100bb578063e25a8b6114610da0578063e493c00c14610dd0578063e84f579814610de657600080fd5b8063dec3a74c14610d75578063dec8a31514610d8a57600080fd5b8063c87b56dd1161012d578063d6763bcf11610112578063d6763bcf14610d25578063dce62c7914610d3b578063dd38007514610d5557600080fd5b8063c87b56dd14610ce5578063d547741f14610d0557600080fd5b8063c2b2787914610c45578063c2d9382014610c65578063c5ce83f914610c99578063c5f5e3d114610cb857600080fd5b80639dc4263f1161020c578063a22cb465116101c0578063b085a3f7116101a5578063b085a3f714610bfb578063b473e21614610c10578063b88d4fde14610c2557600080fd5b8063a22cb46514610ba7578063ab40070614610bc757600080fd5b8063a1073deb116101f1578063a1073deb14610b66578063a1a6125f14610b7c578063a217fddf14610b9257600080fd5b80639dc4263f14610afe5780639e94505814610b3957600080fd5b806395d89b41116102635780639767d423116102485780639767d42314610ab35780639c6bf85414610ad35780639d1b464a14610ae857600080fd5b806395d89b4114610a7b5780639613252114610a9057600080fd5b806381cd08ee146109df5780638ae626a2146109ff57806391d1485414610a1557806394a3b4d914610a5b57600080fd5b806336842eae116103d55780636352211e1161034d57806373afc257116103015780637aaf13a0116102e65780637aaf13a01461098f5780637c6aa02a146109af578063807d88fa146109c557600080fd5b806373afc257146109675780637a9597a61461097a57600080fd5b80636c97c46f116103325780636c97c46f146109125780636e39a3451461093257806370a082311461094757600080fd5b80636352211e146108dd578063682341fa146108fd57600080fd5b80634f483b8e116103a45780635123b39a116103895780635123b39a1461088357806351e224ca1461089d57806355f804b3146108bd57600080fd5b80634f483b8e1461084e5780634f6ccce71461086357600080fd5b806336842eae146107e65780634032b72b1461080657806342842e0e146108265780634311de8f1461084657600080fd5b806318160ddd11610468578063248a9ca3116104375780632f745c591161041c5780632f745c59146107565780632fc2add11461077657806336568abe146107c657600080fd5b8063248a9ca3146107065780632f2ff15d1461073657600080fd5b806318160ddd1461067f5780631ca8ca5f1461069e57806322e36c86146106b357806323b872dd146106e657600080fd5b806306fdde03116104bf57806308c3ad35116104a457806308c3ad3514610626578063095ea7b31461064a57806310b127091461066a57600080fd5b806306fdde03146105d9578063081812fc146105ee57600080fd5b806301ffc9a71461053457806302368a2c146105695780630278c1ba1461058b57806303989c71146105b857600080fd5b3661052f5760405162461bcd60e51b8152600401610526906020808252600490820152630453032360e41b604082015260600190565b60405180910390fd5b600080fd5b34801561054057600080fd5b5061055461054f36600461537c565b610ee0565b60405190151581526020015b60405180910390f35b34801561057557600080fd5b50610589610584366004615399565b610ef1565b005b34801561059757600080fd5b506105ab6105a63660046153bb565b611102565b604051610560919061542c565b3480156105c457600080fd5b50601254610554906301000000900460ff1681565b3480156105e557600080fd5b506105ab6111a6565b3480156105fa57600080fd5b5061060e6106093660046153bb565b611238565b6040516001600160a01b039091168152602001610560565b34801561063257600080fd5b50601254610554906601000000000000900460ff1681565b34801561065657600080fd5b50610589610665366004615456565b6112cd565b34801561067657600080fd5b506105896113ff565b34801561068b57600080fd5b506008545b604051908152602001610560565b3480156106aa57600080fd5b50610690600a81565b3480156106bf57600080fd5b506105546106ce3660046153bb565b60009081526014602052604090206001015460ff1690565b3480156106f257600080fd5b50610589610701366004615480565b611520565b34801561071257600080fd5b506106906107213660046153bb565b6000908152600a602052604090206001015490565b34801561074257600080fd5b506105896107513660046154bc565b6115a7565b34801561076257600080fd5b50610690610771366004615456565b6115cd565b34801561078257600080fd5b506107b36107913660046153bb565b60009081526014602052604090206001015465010000000000900461ffff1690565b60405161ffff9091168152602001610560565b3480156107d257600080fd5b506105896107e13660046154bc565b611675565b3480156107f257600080fd5b506105896108013660046154bc565b611701565b34801561081257600080fd5b506105896108213660046154e8565b6117d0565b34801561083257600080fd5b50610589610841366004615480565b611864565b61058961187f565b34801561085a57600080fd5b506105896119c5565b34801561086f57600080fd5b5061069061087e3660046153bb565b611a70565b34801561088f57600080fd5b506106906512309ce5400081565b3480156108a957600080fd5b506105896108b83660046153bb565b611b14565b3480156108c957600080fd5b506105896108d836600461558f565b611cec565b3480156108e957600080fd5b5061060e6108f83660046153bb565b611d66565b34801561090957600080fd5b506107b3600181565b34801561091e57600080fd5b5061058961092d3660046153bb565b611df1565b34801561093e57600080fd5b5061058961219c565b34801561095357600080fd5b506106906109623660046154e8565b6122cb565b6105896109753660046153bb565b612365565b34801561098657600080fd5b506107b3600581565b34801561099b57600080fd5b506105896109aa3660046153bb565b612510565b3480156109bb57600080fd5b50610690600e5481565b3480156109d157600080fd5b50610690655af3107a400081565b3480156109eb57600080fd5b506105896109fa3660046154e8565b6126d4565b348015610a0b57600080fd5b50610690612b6781565b348015610a2157600080fd5b50610554610a303660046154bc565b6000918252600a602090815260408084206001600160a01b0393909316845291905290205460ff1690565b348015610a6757600080fd5b50610690610a763660046154e8565b612765565b348015610a8757600080fd5b506105ab61283a565b348015610a9c57600080fd5b506012546105549065010000000000900460ff1681565b348015610abf57600080fd5b506012546105549062010000900460ff1681565b348015610adf57600080fd5b506107b3600381565b348015610af457600080fd5b50610690600f5481565b348015610b0a57600080fd5b506107b3610b193660046153bb565b600090815260146020526040902060010154600160381b900461ffff1690565b348015610b4557600080fd5b50610b59610b543660046153bb565b612849565b60405161056091906155d8565b348015610b7257600080fd5b5061069061010b81565b348015610b8857600080fd5b506107b361040081565b348015610b9e57600080fd5b50610690600081565b348015610bb357600080fd5b50610589610bc2366004615614565b612be5565b348015610bd357600080fd5b506106907f6a64baf327d646d1bca72653e2a075d15fd6ac6d8cbd7f6ee03fc55875e0fa8881565b348015610c0757600080fd5b50610589612caa565b348015610c1c57600080fd5b50610690600481565b348015610c3157600080fd5b50610589610c40366004615650565b612d2b565b348015610c5157600080fd5b506107b3610c603660046156de565b612db9565b348015610c7157600080fd5b506106907f2fa3586e1228a6d020f44df84a4695dcd1cfcb55a51cd832563c729d866522ff81565b348015610ca557600080fd5b5060125461055490610100900460ff1681565b348015610cc457600080fd5b50610cd8610cd33660046153bb565b612e2a565b6040516105609190615721565b348015610cf157600080fd5b506105ab610d003660046153bb565b612e8f565b348015610d1157600080fd5b50610589610d203660046154bc565b612f78565b348015610d3157600080fd5b5061069061138881565b348015610d4757600080fd5b506012546105549060ff1681565b348015610d6157600080fd5b50610589610d7036600461574c565b612f9e565b348015610d8157600080fd5b50610589613117565b348015610d9657600080fd5b50610690610d0581565b348015610dac57600080fd5b50610554610dbb3660046153bb565b60009081526013602052604090205460ff1690565b348015610ddc57600080fd5b5061069061064381565b348015610df257600080fd5b5061060e610e013660046153bb565b600090815260146020526040902060010154600160481b90046001600160a01b031690565b348015610e3257600080fd5b50610554610e4136600461576f565b6001600160a01b03918216600090815260056020908152604080832093909416825291909152205460ff1690565b348015610e7b57600080fd5b50610690652d79883d200081565b348015610e9557600080fd5b5060125461055490640100000000900460ff1681565b348015610eb757600080fd5b50610589613239565b348015610ecc57600080fd5b50610589610edb3660046154e8565b6132b0565b6000610eeb826133b1565b92915050565b3360009081527f61452436a62565ab2cbed6a23d441329fc7a4b9f7fa5613961bdfeb3b7247f6d602052604090205460ff16610f585760405162461bcd60e51b8152600401610526906020808252600490820152634530313760e01b604082015260600190565b6000610f6383611d66565b6001600160a01b03161415610fa35760405162461bcd60e51b815260040161052690602080825260049082015263114c0c4d60e21b604082015260600190565b60008111610ff55760405162461bcd60e51b81526004016105269060208082526004908201527f4530313500000000000000000000000000000000000000000000000000000000604082015260600190565b60008281526014602052604090206001015465010000000000900461ffff1661040061102183836157af565b1115611054576000838152601460205260409020600101805466ffff0000000000191666040000000000001790556110a0565b6000838152601460205260409020600101805483919060059061108590849065010000000000900461ffff166157c7565b92506101000a81548161ffff021916908361ffff1602179055505b6000838152601460209081526040918290206001015482518581526501000000000090910461ffff169181019190915284917f2d06a0b6d9e448255510db8be5700d234d963e07554aa376f2a103125f19ae62910160405180910390a2505050565b600081815260146020526040812080546060929190611120906157ed565b80601f016020809104026020016040519081016040528092919081815260200182805461114c906157ed565b80156111995780601f1061116e57610100808354040283529160200191611199565b820191906000526020600020905b81548152906001019060200180831161117c57829003601f168201915b5093979650505050505050565b6060600080546111b5906157ed565b80601f01602080910402602001604051908101604052809291908181526020018280546111e1906157ed565b801561122e5780601f106112035761010080835404028352916020019161122e565b820191906000526020600020905b81548152906001019060200180831161121157829003601f168201915b5050505050905090565b6000818152600260205260408120546001600160a01b03166112b15760405162461bcd60e51b815260206004820152602c60248201527f4552433732313a20617070726f76656420717565727920666f72206e6f6e657860448201526b34b9ba32b73a103a37b5b2b760a11b6064820152608401610526565b506000908152600460205260409020546001600160a01b031690565b60006112d882611d66565b9050806001600160a01b0316836001600160a01b031614156113625760405162461bcd60e51b815260206004820152602160248201527f4552433732313a20617070726f76616c20746f2063757272656e74206f776e6560448201527f72000000000000000000000000000000000000000000000000000000000000006064820152608401610526565b336001600160a01b038216148061137e575061137e8133610e41565b6113f05760405162461bcd60e51b815260206004820152603860248201527f4552433732313a20617070726f76652063616c6c6572206973206e6f74206f7760448201527f6e6572206e6f7220617070726f76656420666f7220616c6c00000000000000006064820152608401610526565b6113fa83836133ef565b505050565b3360009081527f61452436a62565ab2cbed6a23d441329fc7a4b9f7fa5613961bdfeb3b7247f6d602052604090205460ff166114665760405162461bcd60e51b8152600401610526906020808252600490820152634530313760e01b604082015260600190565b60125460ff16156114bb5760405162461bcd60e51b81526004016105269060208082526004908201527f4530303500000000000000000000000000000000000000000000000000000000604082015260600190565b6012805460ff191660011790556040517f0d3dae01e1b4644a9619797b649d24e856e8d3dd662f97e01427e70bf2ae91a690600090a16114fe60406113886157af565b600e600082825461150f91906157af565b90915550506512309ce54000600f55565b61152a338261346a565b61159c5760405162461bcd60e51b815260206004820152603160248201527f4552433732313a207472616e736665722063616c6c6572206973206e6f74206f60448201527f776e6572206e6f7220617070726f7665640000000000000000000000000000006064820152608401610526565b6113fa838383613561565b6000828152600a60205260409020600101546115c38133613746565b6113fa83836137c6565b60006115d8836122cb565b821061164c5760405162461bcd60e51b815260206004820152602b60248201527f455243373231456e756d657261626c653a206f776e657220696e646578206f7560448201527f74206f6620626f756e64730000000000000000000000000000000000000000006064820152608401610526565b506001600160a01b03919091166000908152600660209081526040808320938352929052205490565b6001600160a01b03811633146116f35760405162461bcd60e51b815260206004820152602f60248201527f416363657373436f6e74726f6c3a2063616e206f6e6c792072656e6f756e636560448201527f20726f6c657320666f722073656c6600000000000000000000000000000000006064820152608401610526565b6116fd8282613868565b5050565b61170a82611d66565b6001600160a01b0316336001600160a01b0316146117535760405162461bcd60e51b8152600401610526906020808252600490820152630453031360e41b604082015260600190565b60008281526014602052604080822060010180547fffffff0000000000000000000000000000000000000000ffffffffffffffffff16600160481b6001600160a01b038616908102919091179091559051909184917fafa5959eb8823d589ec08c28f3effdde6546d1102288f3ba855119af25e3bbba9190a35050565b3360009081527fd097c2ba9c9f8e2dcc0db7b99113293b0940e94d6b5c6f2698d589381e9782e7602052604090205460ff166118375760405162461bcd60e51b81526004016105269060208082526004908201526308a6062760e31b604082015260600190565b6118617f2fa3586e1228a6d020f44df84a4695dcd1cfcb55a51cd832563c729d866522ff826115a7565b50565b6113fa83838360405180602001604052806000815250612d2b565b3360009081527fd097c2ba9c9f8e2dcc0db7b99113293b0940e94d6b5c6f2698d589381e9782e7602052604090205460ff166118e65760405162461bcd60e51b81526004016105269060208082526004908201526308a6062760e31b604082015260600190565b60006010541161193a5760405162461bcd60e51b81526004016105269060208082526004908201527f4530313900000000000000000000000000000000000000000000000000000000604082015260600190565b60108054600091829055604051909190339083908381818185875af1925050503d8060008114611986576040519150601f19603f3d011682016040523d82523d6000602084013e61198b565b606091505b50509050806116fd5760405162461bcd60e51b8152600401610526906020808252600490820152630453032360e41b604082015260600190565b3360009081527f61452436a62565ab2cbed6a23d441329fc7a4b9f7fa5613961bdfeb3b7247f6d602052604090205460ff16611a2c5760405162461bcd60e51b8152600401610526906020808252600490820152634530313760e01b604082015260600190565b6012805466ff000000000000191666010000000000001790556040517f5482c0653ae6084c9c4091da0728c40dc90c385f432b3cf5f6a5a5df5a22919690600090a1565b6000611a7b60085490565b8210611aef5760405162461bcd60e51b815260206004820152602c60248201527f455243373231456e756d657261626c653a20676c6f62616c20696e646578206f60448201527f7574206f6620626f756e647300000000000000000000000000000000000000006064820152608401610526565b60088281548110611b0257611b02615828565b90600052602060002001549050919050565b6012546601000000000000900460ff16611b595760405162461bcd60e51b8152600401610526906020808252600490820152634530303960e01b604082015260600190565b611b6281611d66565b6001600160a01b0316336001600160a01b031614611bab5760405162461bcd60e51b8152600401610526906020808252600490820152630453031360e41b604082015260600190565b60008181526013602052604090205460ff1615611bf35760405162461bcd60e51b8152600401610526906020808252600490820152632298189960e11b604082015260600190565b600081815260146020526040902060019081015465010000000000900461ffff161015611c645760405162461bcd60e51b81526004016105269060208082526004908201527f4530313300000000000000000000000000000000000000000000000000000000604082015260600190565b611c6f8160016138eb565b611c7a81600161393a565b60008281526014602052604090819020600101805461ffff93909316600160381b0268ffff000000000000001990931692909217909155517fdcc2145292317879f6319461deaed4ada2422f436a0b0e15f2af0e60c637d12190611ce19083815260200190565b60405180910390a150565b3360009081527fd097c2ba9c9f8e2dcc0db7b99113293b0940e94d6b5c6f2698d589381e9782e7602052604090205460ff16611d535760405162461bcd60e51b81526004016105269060208082526004908201526308a6062760e31b604082015260600190565b80516116fd906015906020840190615290565b6000818152600260205260408120546001600160a01b031680610eeb5760405162461bcd60e51b815260206004820152602960248201527f4552433732313a206f776e657220717565727920666f72206e6f6e657869737460448201527f656e7420746f6b656e00000000000000000000000000000000000000000000006064820152608401610526565b6012546601000000000000900460ff16611e365760405162461bcd60e51b8152600401610526906020808252600490820152634530303960e01b604082015260600190565b611e3f81611d66565b6001600160a01b0316336001600160a01b031614611e885760405162461bcd60e51b8152600401610526906020808252600490820152630453031360e41b604082015260600190565b60008181526013602052604090205460ff16611ee85760405162461bcd60e51b81526004016105269060208082526004908201527f4530313100000000000000000000000000000000000000000000000000000000604082015260600190565b6000611ef2613ab1565b90506000611eff83614014565b6000848152601360209081526040808320805460ff19169055805161012081018252868152878452601483528184206001015460ff16151592810192909252929350909181018383602002015160ff16815260200183600160048110611f6757611f67615828565b602002015160ff16815260200183600260048110611f8757611f87615828565b602002015160ff16815260200183600360048110611fa757611fa7615828565b6020908102919091015160ff168252600087815260148083526040808320600181015465010000000000810461ffff1687870152918601849052600160481b9091046001600160a01b03166060909501949094529088905281528251805193945084936120179284920190615290565b5060208201516001909101805460408401516060850151608086015160a087015160c088015160e0890151610100998a01516001600160a01b0316600160481b027fffffff0000000000000000000000000000000000000000ffffffffffffffffff61ffff928316600160381b02167fffffff00000000000000000000000000000000000000000000ffffffffffffff92909316650100000000000266ffff00000000001960ff958616640100000000021666ffffff000000001996861663010000000263ff0000001998871662010000029890981663ffff00001999909616909c0261ff00199b15159b909b1661ffff1990991698909817999099179590951691909117929092171695909517919091171692909217179055600061213d858261393a565b600086815260146020526040808220600101805468ffff000000000000001916600160381b61ffff8616021790555191925086917fb91faaa78142ff7cf17e2901f700062d893e98dae6eb9d835fd56f012c0696069190a25050505050565b3360009081527f61452436a62565ab2cbed6a23d441329fc7a4b9f7fa5613961bdfeb3b7247f6d602052604090205460ff166122035760405162461bcd60e51b8152600401610526906020808252600490820152634530313760e01b604082015260600190565b60125462010000900460ff161561225e5760405162461bcd60e51b81526004016105269060208082526004908201527f4530303700000000000000000000000000000000000000000000000000000000604082015260600190565b6012805464ffffff000019166401000100001790556040517f1bbe80213228404e276963f9e286d445ba1e5609daacc5098b97ad3783da4d9790600090a16122a961010b60046157af565b600e60008282546122ba91906157af565b9091555050655af3107a4000600f55565b60006001600160a01b0382166123495760405162461bcd60e51b815260206004820152602a60248201527f4552433732313a2062616c616e636520717565727920666f7220746865207a6560448201527f726f2061646472657373000000000000000000000000000000000000000000006064820152608401610526565b506001600160a01b031660009081526003602052604090205490565b6002600b5414156123b85760405162461bcd60e51b815260206004820152601f60248201527f5265656e7472616e637947756172643a207265656e7472616e742063616c6c006044820152606401610526565b6002600b5580158015906123cd5750600a8111155b61241b5760405162461bcd60e51b81526004016105269060208082526004908201527f4530303100000000000000000000000000000000000000000000000000000000604082015260600190565b80600f54612429919061583e565b34101561247a5760405162461bcd60e51b81526004016105269060208082526004908201527f4530303200000000000000000000000000000000000000000000000000000000604082015260600190565b600e5481600c5461248b91906157af565b11156124c25760405162461bcd60e51b8152600401610526906020808252600490820152634530303360e01b604082015260600190565b60005b81811015612507576001600c60008282546124e091906157af565b925050819055506124f533600c546000614255565b806124ff8161585d565b9150506124c5565b50506001600b55565b6002600b5414156125635760405162461bcd60e51b815260206004820152601f60248201527f5265656e7472616e637947756172643a207265656e7472616e742063616c6c006044820152606401610526565b6002600b553360009081527fd097c2ba9c9f8e2dcc0db7b99113293b0940e94d6b5c6f2698d589381e9782e7602052604090205460ff166125cf5760405162461bcd60e51b81526004016105269060208082526004908201526308a6062760e31b604082015260600190565b6040816011546125df91906157af565b111561262f5760405162461bcd60e51b81526004016105269060208082526004908201527f4530303400000000000000000000000000000000000000000000000000000000604082015260600190565b600e5481600c5461264091906157af565b11156126775760405162461bcd60e51b8152600401610526906020808252600490820152634530303360e01b604082015260600190565b806011600082825461268991906157af565b90915550600090505b81811015612507576001600c60008282546126ad91906157af565b925050819055506126c233600c546000614255565b806126cc8161585d565b915050612692565b3360009081527fd097c2ba9c9f8e2dcc0db7b99113293b0940e94d6b5c6f2698d589381e9782e7602052604090205460ff1661273b5760405162461bcd60e51b81526004016105269060208082526004908201526308a6062760e31b604082015260600190565b6118617f6a64baf327d646d1bca72653e2a075d15fd6ac6d8cbd7f6ee03fc55875e0fa88826115a7565b3360009081527f61452436a62565ab2cbed6a23d441329fc7a4b9f7fa5613961bdfeb3b7247f6d602052604081205460ff166127cc5760405162461bcd60e51b8152600401610526906020808252600490820152634530313760e01b604082015260600190565b612b67600d54106128085760405162461bcd60e51b8152600401610526906020808252600490820152634530303360e01b604082015260600190565b6001600d600082825461281b91906157af565b9250508190555061283082600d546001614255565b50600d545b919050565b6060600180546111b5906157ed565b612851615314565b60008281526013602052604090205460ff16156128995760405162461bcd60e51b8152600401610526906020808252600490820152632298189960e11b604082015260600190565b600082815260146020526040812060010154600160381b900461ffff16906128c08461441f565b91505060008082600014156128d757506000905060105b82600114156128ec57506010905060206128f4565b506020905060605b6128fc615314565b61ffff8516612909615333565b601082901b65fffff000000016600c83811b650fffff00000016600885811b64fffff0000016600487811b640fffff00001663fffff00089169189901c630fffff00169589901c620fffff169389901c62fffff0169390931794909417939093171791909117171781600063ffffffff9290921660209092020152601482901b63f000000016601083901b630f00000016600c84901b62f0000016600885811b620f000016600487811b61f00016610f0089169389901c600f169189901c60f0169190911792909217919091171717171781600163ffffffff9290921660209092020152601882901b63f000000016601483901b630f00000016601084901b62f0000016600c85901b620f000016600886901b61f00016600487811b610f00169088901c600f1660f089161717171717171781600263ffffffff909216602092909202015260f0600483901b16600f831617610f00600884901b161761f000600c84901b1617620f0000601084901b161762f00000601484901b1617630f000000601884901b161763f0000000601c84901b161781600363ffffffff909216602092909202015260005b60208161ffff161015612b1d5781612acc60048361588e565b61ffff1660048110612ae057612ae0615828565b6020020151848261ffff1660208110612afb57612afb615828565b63ffffffff909216602092909202015280612b15816158af565b915050612ab3565b50600085612b35612b2e82886158d1565b8a88612db9565b612b3f91906157c7565b905060005b8161ffff168161ffff161015612bd6576000612b6260208b84612db9565b90506000612b7260208385612db9565b9050868161ffff1660208110612b8a57612b8a615828565b6020020151612b9a836002615ae9565b18878261ffff1660208110612bb157612bb1615828565b63ffffffff909216602092909202015250819050612bce816158af565b915050612b44565b50929998505050505050505050565b6001600160a01b038216331415612c3e5760405162461bcd60e51b815260206004820152601960248201527f4552433732313a20617070726f766520746f2063616c6c6572000000000000006044820152606401610526565b3360008181526005602090815260408083206001600160a01b03871680855290835292819020805460ff191686151590811790915590519081529192917f17307eab39ab6107e8899845ad3d59bd9653f200f220920489ca2b5937696c31910160405180910390a35050565b3360009081527f61452436a62565ab2cbed6a23d441329fc7a4b9f7fa5613961bdfeb3b7247f6d602052604090205460ff16612d115760405162461bcd60e51b8152600401610526906020808252600490820152634530313760e01b604082015260600190565b6004600e6000828254612d2491906157af565b9091555050565b612d35338361346a565b612da75760405162461bcd60e51b815260206004820152603160248201527f4552433732313a207472616e736665722063616c6c6572206973206e6f74206f60448201527f776e6572206e6f7220617070726f7665640000000000000000000000000000006064820152608401610526565b612db3848484846145cb565b50505050565b6040517fffff00000000000000000000000000000000000000000000000000000000000060f084811b8216602084015283901b16602282015260009081906024016040516020818303038152906040528051906020012060f01c90508481612e21919061588e565b95945050505050565b612e32615333565b50604080516080810182526000838152601460208181528483206001015460ff6101008204811686526201000082048116838701526401000000008204811696860196909652959092529052630100000090920416606082015290565b6000818152600260205260409020546060906001600160a01b0316612f1c5760405162461bcd60e51b815260206004820152602f60248201527f4552433732314d657461646174613a2055524920717565727920666f72206e6f60448201527f6e6578697374656e7420746f6b656e00000000000000000000000000000000006064820152608401610526565b6000612f26614649565b90506000815111612f465760405180602001604052806000815250612f71565b80612f5084614658565b604051602001612f61929190615aff565b6040516020818303038152906040525b9392505050565b6000828152600a6020526040902060010154612f948133613746565b6113fa8383613868565b3360009081527f61452436a62565ab2cbed6a23d441329fc7a4b9f7fa5613961bdfeb3b7247f6d602052604090205460ff166130055760405162461bcd60e51b8152600401610526906020808252600490820152634530313760e01b604082015260600190565b600061301083611d66565b6001600160a01b031614156130505760405162461bcd60e51b815260040161052690602080825260049082015263114c0c4d60e21b604082015260600190565b3261305a83611d66565b6001600160a01b0316146130995760405162461bcd60e51b8152600401610526906020808252600490820152630453031360e41b604082015260600190565b60008281526014602052604090206001015461ffff650100000000009091048116908216111561310d5760405162461bcd60e51b81526004016105269060208082526004908201527f4530323100000000000000000000000000000000000000000000000000000000604082015260600190565b6116fd82826138eb565b3360009081527f61452436a62565ab2cbed6a23d441329fc7a4b9f7fa5613961bdfeb3b7247f6d602052604090205460ff1661317e5760405162461bcd60e51b8152600401610526906020808252600490820152634530313760e01b604082015260600190565b601254610100900460ff16156131d85760405162461bcd60e51b81526004016105269060208082526004908201527f4530303600000000000000000000000000000000000000000000000000000000604082015260600190565b6012805463ff00ff00191663010001001790556040517fce28fb74a9fed93421bef1c67a577ec8bdd8f93d99962f27a4b52207e9e80dd390600090a1610d05600e600082825461322891906157af565b9091555050652d79883d2000600f55565b3360009081527f61452436a62565ab2cbed6a23d441329fc7a4b9f7fa5613961bdfeb3b7247f6d602052604090205460ff166132a05760405162461bcd60e51b8152600401610526906020808252600490820152634530313760e01b604082015260600190565b6012805464ff0000000019169055565b3360009081527f61452436a62565ab2cbed6a23d441329fc7a4b9f7fa5613961bdfeb3b7247f6d602052604090205460ff166133175760405162461bcd60e51b8152600401610526906020808252600490820152634530313760e01b604082015260600190565b60125465010000000000900460ff16156133755760405162461bcd60e51b81526004016105269060208082526004908201527f4530303800000000000000000000000000000000000000000000000000000000604082015260600190565b6012805465ff00000000001916650100000000001790556133966001614756565b6118616133a36001611d66565b826001613561565b3b151590565b60006001600160e01b031982167f7965db0b000000000000000000000000000000000000000000000000000000001480610eeb5750610eeb8261493e565b6000818152600460205260409020805473ffffffffffffffffffffffffffffffffffffffff19166001600160a01b038416908117909155819061343182611d66565b6001600160a01b03167f8c5be1e5ebec7d5bd14f71427d1e84f3dd0314c0f7b2291e5b200ac8c7c3b92560405160405180910390a45050565b6000818152600260205260408120546001600160a01b03166134e35760405162461bcd60e51b815260206004820152602c60248201527f4552433732313a206f70657261746f7220717565727920666f72206e6f6e657860448201526b34b9ba32b73a103a37b5b2b760a11b6064820152608401610526565b60006134ee83611d66565b9050806001600160a01b0316846001600160a01b031614806135295750836001600160a01b031661351e84611238565b6001600160a01b0316145b8061355957506001600160a01b0380821660009081526005602090815260408083209388168352929052205460ff165b949350505050565b826001600160a01b031661357482611d66565b6001600160a01b0316146135f05760405162461bcd60e51b815260206004820152602960248201527f4552433732313a207472616e73666572206f6620746f6b656e2074686174206960448201527f73206e6f74206f776e00000000000000000000000000000000000000000000006064820152608401610526565b6001600160a01b03821661366b5760405162461bcd60e51b8152602060048201526024808201527f4552433732313a207472616e7366657220746f20746865207a65726f2061646460448201527f72657373000000000000000000000000000000000000000000000000000000006064820152608401610526565b61367683838361497c565b6136816000826133ef565b6001600160a01b03831660009081526003602052604081208054600192906136aa908490615b25565b90915550506001600160a01b03821660009081526003602052604081208054600192906136d89084906157af565b9091555050600081815260026020526040808220805473ffffffffffffffffffffffffffffffffffffffff19166001600160a01b0386811691821790925591518493918716917fddf252ad1be2c89b69c2b068fc378daa952ba7f163c4a11628f55a4df523b3ef91a4505050565b6000828152600a602090815260408083206001600160a01b038516845290915290205460ff166116fd57613784816001600160a01b03166014614a34565b61378f836020614a34565b6040516020016137a0929190615b3c565b60408051601f198184030181529082905262461bcd60e51b82526105269160040161542c565b6000828152600a602090815260408083206001600160a01b038516845290915290205460ff166116fd576000828152600a602090815260408083206001600160a01b03851684529091529020805460ff191660011790556138243390565b6001600160a01b0316816001600160a01b0316837f2f8788117e7eff1d82e926ec794901d17c78024a50270940304540a733656f0d60405160405180910390a45050565b6000828152600a602090815260408083206001600160a01b038516845290915290205460ff16156116fd576000828152600a602090815260408083206001600160a01b0385168085529252808320805460ff1916905551339285917ff6391f5c32d9c69d2a47ea670b442974b53935d1edc7fd64eb21e047a839171b9190a45050565b6000828152601460205260409020600101805482919060059061391c90849065010000000000900461ffff166158d1565b92506101000a81548161ffff021916908361ffff1602179055505050565b6000806139468461441f565b5090506000808260011415613961575060079050600c613969565b506004905060085b6000808061397785856158d1565b6139829060016157c7565b905060008861399d57613998620100008b614bf9565b6139bb565b60008a815260146020526040902060010154600160381b900461ffff165b90506000866139cb848d85612db9565b6139d591906157c7565b905060005b8161ffff168161ffff161015613a19576139f660108285612db9565b945085613a04866002615bbd565b17955080613a11816158af565b9150506139da565b506000613a2b60648461ffff16614bf9565b90508860021415613a715760058161ffff1611158015613a4957508a155b15613a5f57859950505050505050505050610eeb565b85199950505050505050505050610eeb565b88613aa05760058161ffff1611158015613a8957508a155b15613aa05785199950505050505050505050610eeb565b859950505050505050505050610eeb565b601254606090640100000000900460ff1615613d565760408051600380825260808201909252600091816020015b6060815260200190600190039081613adf5790505090506016600081548110613b0a57613b0a615828565b906000526020600020018054613b1f906157ed565b80601f0160208091040260200160405190810160405280929190818152602001828054613b4b906157ed565b8015613b985780601f10613b6d57610100808354040283529160200191613b98565b820191906000526020600020905b815481529060010190602001808311613b7b57829003601f168201915b505050505081600081518110613bb057613bb0615828565b60200260200101819052506016600181548110613bcf57613bcf615828565b906000526020600020018054613be4906157ed565b80601f0160208091040260200160405190810160405280929190818152602001828054613c10906157ed565b8015613c5d5780601f10613c3257610100808354040283529160200191613c5d565b820191906000526020600020905b815481529060010190602001808311613c4057829003601f168201915b505050505081600181518110613c7557613c75615828565b60200260200101819052506016600281548110613c9457613c94615828565b906000526020600020018054613ca9906157ed565b80601f0160208091040260200160405190810160405280929190818152602001828054613cd5906157ed565b8015613d225780601f10613cf757610100808354040283529160200191613d22565b820191906000526020600020905b815481529060010190602001808311613d0557829003601f168201915b505050505081600281518110613d3a57613d3a615828565b6020026020010181905250613d50600382614c74565b91505090565b6012546301000000900460ff1615613f355760408051600380825260808201909252600091816020015b6060815260200190600190039081613d805790505090506016600681548110613dab57613dab615828565b906000526020600020018054613dc0906157ed565b80601f0160208091040260200160405190810160405280929190818152602001828054613dec906157ed565b8015613e395780601f10613e0e57610100808354040283529160200191613e39565b820191906000526020600020905b815481529060010190602001808311613e1c57829003601f168201915b505050505081600081518110613e5157613e51615828565b60200260200101819052506016600781548110613e7057613e70615828565b906000526020600020018054613e85906157ed565b80601f0160208091040260200160405190810160405280929190818152602001828054613eb1906157ed565b8015613efe5780601f10613ed357610100808354040283529160200191613efe565b820191906000526020600020905b815481529060010190602001808311613ee157829003601f168201915b505050505081600181518110613f1657613f16615828565b60200260200101819052506016600881548110613c9457613c94615828565b601680546040805160208084028201810190925282815261400f939091839060009084015b82821015614006578382906000526020600020018054613f79906157ed565b80601f0160208091040260200160405190810160405280929190818152602001828054613fa5906157ed565b8015613ff25780601f10613fc757610100808354040283529160200191613ff2565b820191906000526020600020905b815481529060010190602001808311613fd557829003601f168201915b505050505081526020019060010190613f5a565b50505050614c74565b905090565b61401c615333565b600082815260146020526040902060010154600a9060179060329060ff161561404857600f9250601991505b60006140548484615b25565b61405f9060016157af565b9050600061406e826000614bf9565b61407890866157af565b90506000614087836001614bf9565b61409190876157af565b905060006140a0846002614bf9565b6140aa90886157af565b905060006140b9856003614bf9565b6140c390896157af565b9050600081836140d38688615bd0565b6140dd9190615bd0565b6140e79190615bd0565b6040805160808101825260ff80891682528781166020830152868116928201929092528482166060820152919250888116908316101561416c57600061412d838a615bf5565b9050600061413a83614cba565b905081838260ff166004811061415257614152615828565b602002018181516141639190615bd0565b60ff1690525050505b60005b6004811015614245576000614185826004615b25565b60408051426020820152016040516020818303038152906040528051906020012060001c6141b39190615c18565b6141bd90836157af565b905060008382600481106141d3576141d3615828565b602002015190508383600481106141ec576141ec615828565b602002015184836004811061420357614203615828565b60ff90921660209290920201528084846004811061422357614223615828565b60ff90921660209290920201525081905061423d8161585d565b91505061416f565b509b9a5050505050505050505050565b60038115614261575060055b6040805161014081018252600061012082018181528252841515602080840191909152828401829052606083018290526080830182905260a0830182905261ffff851660c084015260e0830182905261010083018290528682526014815292902081518051929384936142d79284920190615290565b50602082810151600192830180546040808701516060880151608089015160a08a015160c08b015160e08c01516101009c8d015161ffff1990981699151561ff0019169990991760ff958616909c029b909b1763ffff00001916620100009385169390930263ff0000001916929092176301000000918416919091021766ffffff000000001916640100000000929091169190910266ffff00000000001916176501000000000061ffff98891602177fffffff00000000000000000000000000000000000000000000ffffffffffffff16600160381b97909416969096027fffffff0000000000000000000000000000000000000000ffffffffffffffffff1692909217600160481b6001600160a01b03909316929092029190911790556000878152601390915291909120805460ff191690911790556144188585614d29565b5050505050565b600081815260146020526040812080548291829161443c906157ed565b80601f0160208091040260200160405190810160405280929190818152602001828054614468906157ed565b80156144b55780601f1061448a576101008083540402835291602001916144b5565b820191906000526020600020905b81548152906001019060200180831161449857829003601f168201915b50505050509050606060005b6016548110156145bd57601681815481106144de576144de615828565b9060005260206000200180546144f3906157ed565b80601f016020809104026020016040519081016040528092919081815260200182805461451f906157ed565b801561456c5780601f106145415761010080835404028352916020019161456c565b820191906000526020600020905b81548152906001019060200180831161454f57829003601f168201915b505050505091508180519060200120838051906020012014156145ab57614594600382615c2c565b61459f600383615c18565b94509450505050915091565b806145b58161585d565b9150506144c1565b506000958695509350505050565b6145d6848484613561565b6145e284848484614d43565b612db35760405162461bcd60e51b815260206004820152603260248201527f4552433732313a207472616e7366657220746f206e6f6e20455243373231526560448201527131b2b4bb32b91034b6b83632b6b2b73a32b960711b6064820152608401610526565b6060601580546111b5906157ed565b60608161467c5750506040805180820190915260018152600360fc1b602082015290565b8160005b81156146a657806146908161585d565b915061469f9050600a83615c2c565b9150614680565b60008167ffffffffffffffff8111156146c1576146c1615503565b6040519080825280601f01601f1916602001820160405280156146eb576020820181803683370190505b5090505b841561355957614700600183615b25565b915061470d600a86615c18565b6147189060306157af565b60f81b81838151811061472d5761472d615828565b60200101906001600160f81b031916908160001a90535061474f600a86615c2c565b94506146ef565b6000818152601360209081526040808320805460ff19169055805161016081018252600c61012082019081527f54727565204e65757472616c0000000000000000000000000000000000000000610140830152815260018184018190526019828401819052606083018190526080830181905260a083015261040060c083015260e08201859052858552601480855292852090810154600160481b90046001600160a01b031661010083015293859052908252805180519193849390926148209284920190615290565b5060208201516001909101805460408401516060850151608086015160a087015160c088015160e0890151610100998a01516001600160a01b0316600160481b027fffffff0000000000000000000000000000000000000000ffffffffffffffffff61ffff928316600160381b02167fffffff00000000000000000000000000000000000000000000ffffffffffffff92909316650100000000000266ffff00000000001960ff958616640100000000021666ffffff000000001996861663010000000263ff0000001998871662010000029890981663ffff00001999909616909c0261ff00199b15159b909b1661ffff19909916989098179990991795909516919091179290921716959095179190911716929092171790555050565b60006001600160e01b031982167f780e9d63000000000000000000000000000000000000000000000000000000001480610eeb5750610eeb82614e8c565b6001600160a01b0383166149d7576149d281600880546000838152600960205260408120829055600182018355919091527ff3f7a9fe364faab93b216da50a3214154f22a0a2b415b23a84c8169e8b636ee30155565b6149fa565b816001600160a01b0316836001600160a01b0316146149fa576149fa8382614f27565b6001600160a01b038216614a11576113fa81614fc4565b826001600160a01b0316826001600160a01b0316146113fa576113fa8282615073565b60606000614a4383600261583e565b614a4e9060026157af565b67ffffffffffffffff811115614a6657614a66615503565b6040519080825280601f01601f191660200182016040528015614a90576020820181803683370190505b509050600360fc1b81600081518110614aab57614aab615828565b60200101906001600160f81b031916908160001a9053507f780000000000000000000000000000000000000000000000000000000000000081600181518110614af657614af6615828565b60200101906001600160f81b031916908160001a9053506000614b1a84600261583e565b614b259060016157af565b90505b6001811115614baa577f303132333435363738396162636465660000000000000000000000000000000085600f1660108110614b6657614b66615828565b1a60f81b828281518110614b7c57614b7c615828565b60200101906001600160f81b031916908160001a90535060049490941c93614ba381615c40565b9050614b28565b508315612f715760405162461bcd60e51b815260206004820181905260248201527f537472696e67733a20686578206c656e67746820696e73756666696369656e746044820152606401610526565b600080614c07600143615b25565b60408051914060208301526bffffffffffffffffffffffff1941606090811b8216928401929092524460548401523390911b1660748201526088810185905260a8810184905260c80160408051601f19818403018152919052805160209091012090506135598482615c18565b60606000614c83846000614bf9565b9050600083845183614c959190615c18565b81518110614ca557614ca5615828565b60200260200101519050809250505092915050565b60008060005b60038160ff161015614d2257838260ff1660048110614ce157614ce1615828565b602002015160ff16848260ff1660048110614cfe57614cfe615828565b602002015160ff161015614d10578091505b80614d1a81615c57565b915050614cc0565b5092915050565b6116fd8282604051806020016040528060008152506150b7565b60006001600160a01b0384163b15614e8157604051630a85bd0160e11b81526001600160a01b0385169063150b7a0290614d87903390899088908890600401615c77565b6020604051808303816000875af1925050508015614dc2575060408051601f3d908101601f19168201909252614dbf91810190615cb3565b60015b614e67573d808015614df0576040519150601f19603f3d011682016040523d82523d6000602084013e614df5565b606091505b508051614e5f5760405162461bcd60e51b815260206004820152603260248201527f4552433732313a207472616e7366657220746f206e6f6e20455243373231526560448201527131b2b4bb32b91034b6b83632b6b2b73a32b960711b6064820152608401610526565b805181602001fd5b6001600160e01b031916630a85bd0160e11b149050613559565b506001949350505050565b60006001600160e01b031982167f80ac58cd000000000000000000000000000000000000000000000000000000001480614eef57506001600160e01b031982167f5b5e139f00000000000000000000000000000000000000000000000000000000145b80610eeb57507f01ffc9a7000000000000000000000000000000000000000000000000000000006001600160e01b0319831614610eeb565b60006001614f34846122cb565b614f3e9190615b25565b600083815260076020526040902054909150808214614f91576001600160a01b03841660009081526006602090815260408083208584528252808320548484528184208190558352600790915290208190555b5060009182526007602090815260408084208490556001600160a01b039094168352600681528383209183525290812055565b600854600090614fd690600190615b25565b60008381526009602052604081205460088054939450909284908110614ffe57614ffe615828565b90600052602060002001549050806008838154811061501f5761501f615828565b600091825260208083209091019290925582815260099091526040808220849055858252812055600880548061505757615057615cd0565b6001900381819060005260206000200160009055905550505050565b600061507e836122cb565b6001600160a01b039093166000908152600660209081526040808320868452825280832085905593825260079052919091209190915550565b6150c18383615135565b6150ce6000848484614d43565b6113fa5760405162461bcd60e51b815260206004820152603260248201527f4552433732313a207472616e7366657220746f206e6f6e20455243373231526560448201527131b2b4bb32b91034b6b83632b6b2b73a32b960711b6064820152608401610526565b6001600160a01b03821661518b5760405162461bcd60e51b815260206004820181905260248201527f4552433732313a206d696e7420746f20746865207a65726f20616464726573736044820152606401610526565b6000818152600260205260409020546001600160a01b0316156151f05760405162461bcd60e51b815260206004820152601c60248201527f4552433732313a20746f6b656e20616c7265616479206d696e746564000000006044820152606401610526565b6151fc6000838361497c565b6001600160a01b03821660009081526003602052604081208054600192906152259084906157af565b9091555050600081815260026020526040808220805473ffffffffffffffffffffffffffffffffffffffff19166001600160a01b03861690811790915590518392907fddf252ad1be2c89b69c2b068fc378daa952ba7f163c4a11628f55a4df523b3ef908290a45050565b82805461529c906157ed565b90600052602060002090601f0160209004810192826152be5760008555615304565b82601f106152d757805160ff1916838001178555615304565b82800160010185558215615304579182015b828111156153045782518255916020019190600101906152e9565b50615310929150615351565b5090565b6040518061040001604052806020906020820280368337509192915050565b60405180608001604052806004906020820280368337509192915050565b5b808211156153105760008155600101615352565b6001600160e01b03198116811461186157600080fd5b60006020828403121561538e57600080fd5b8135612f7181615366565b600080604083850312156153ac57600080fd5b50508035926020909101359150565b6000602082840312156153cd57600080fd5b5035919050565b60005b838110156153ef5781810151838201526020016153d7565b83811115612db35750506000910152565b600081518084526154188160208601602086016153d4565b601f01601f19169290920160200192915050565b602081526000612f716020830184615400565b80356001600160a01b038116811461283557600080fd5b6000806040838503121561546957600080fd5b6154728361543f565b946020939093013593505050565b60008060006060848603121561549557600080fd5b61549e8461543f565b92506154ac6020850161543f565b9150604084013590509250925092565b600080604083850312156154cf57600080fd5b823591506154df6020840161543f565b90509250929050565b6000602082840312156154fa57600080fd5b612f718261543f565b634e487b7160e01b600052604160045260246000fd5b600067ffffffffffffffff8084111561553457615534615503565b604051601f8501601f19908116603f0116810190828211818310171561555c5761555c615503565b8160405280935085815286868601111561557557600080fd5b858560208301376000602087830101525050509392505050565b6000602082840312156155a157600080fd5b813567ffffffffffffffff8111156155b857600080fd5b8201601f810184136155c957600080fd5b61355984823560208401615519565b6104008101818360005b60208082106155f1575061560b565b825163ffffffff16845292830192909101906001016155e2565b50505092915050565b6000806040838503121561562757600080fd5b6156308361543f565b91506020830135801515811461564557600080fd5b809150509250929050565b6000806000806080858703121561566657600080fd5b61566f8561543f565b935061567d6020860161543f565b925060408501359150606085013567ffffffffffffffff8111156156a057600080fd5b8501601f810187136156b157600080fd5b6156c087823560208401615519565b91505092959194509250565b803561ffff8116811461283557600080fd5b6000806000606084860312156156f357600080fd5b6156fc846156cc565b925061570a602085016156cc565b9150615718604085016156cc565b90509250925092565b60808101818360005b600481101561560b57815160ff1683526020928301929091019060010161572a565b6000806040838503121561575f57600080fd5b823591506154df602084016156cc565b6000806040838503121561578257600080fd5b61578b8361543f565b91506154df6020840161543f565b634e487b7160e01b600052601160045260246000fd5b600082198211156157c2576157c2615799565b500190565b600061ffff8083168185168083038211156157e4576157e4615799565b01949350505050565b600181811c9082168061580157607f821691505b6020821081141561582257634e487b7160e01b600052602260045260246000fd5b50919050565b634e487b7160e01b600052603260045260246000fd5b600081600019048311821515161561585857615858615799565b500290565b600060001982141561587157615871615799565b5060010190565b634e487b7160e01b600052601260045260246000fd5b600061ffff808416806158a3576158a3615878565b92169190910692915050565b600061ffff808316818114156158c7576158c7615799565b6001019392505050565b600061ffff838116908316818110156158ec576158ec615799565b039392505050565b600181815b80851115615931578163ffffffff0482111561591757615917615799565b8085161561592457918102915b93841c93908002906158f9565b509250929050565b600181815b80851115615931578161ffff0482111561595a5761595a615799565b8085161561596757918102915b93841c939080029061593e565b60008261598357506001610eeb565b8161599057506000610eeb565b81600181146159a657600281146159b0576159e1565b6001915050610eeb565b60ff8411156159c1576159c1615799565b6001841b915063ffffffff8211156159db576159db615799565b50610eeb565b5060208310610133831016604e8410600b8410161715615a18575081810a63ffffffff811115615a1357615a13615799565b610eeb565b615a2283836158f4565b8063ffffffff04821115615a3857615a38615799565b029392505050565b600082615a4f57506001610eeb565b81615a5c57506000610eeb565b81600181146159a65760028114615a7257615a9b565b60ff841115615a8357615a83615799565b6001841b915061ffff8211156159db576159db615799565b5060208310610133831016604e8410600b8410161715615acb575081810a61ffff811115615a1357615a13615799565b615ad58383615939565b8061ffff04821115615a3857615a38615799565b6000612f7161ffff841663ffffffff8416615974565b60008351615b118184602088016153d4565b8351908301906157e48183602088016153d4565b600082821015615b3757615b37615799565b500390565b7f416363657373436f6e74726f6c3a206163636f756e7420000000000000000000815260008351615b748160178501602088016153d4565b7f206973206d697373696e6720726f6c65200000000000000000000000000000006017918401918201528351615bb18160288401602088016153d4565b01602801949350505050565b600061ffff613559818516828516615a40565b600060ff821660ff84168060ff03821115615bed57615bed615799565b019392505050565b600060ff821660ff841680821015615c0f57615c0f615799565b90039392505050565b600082615c2757615c27615878565b500690565b600082615c3b57615c3b615878565b500490565b600081615c4f57615c4f615799565b506000190190565b600060ff821660ff811415615c6e57615c6e615799565b60010192915050565b60006001600160a01b03808716835280861660208401525083604083015260806060830152615ca96080830184615400565b9695505050505050565b600060208284031215615cc557600080fd5b8151612f7181615366565b634e487b7160e01b600052603160045260246000fdfea2646970667358221220105ea654a0e3b7ee8a2b2007386fafe2816bd3069a40df7cc868402a47533b2064736f6c634300080a00334552433732313a207472616e7366657220746f206e6f6e2045524337323152652fa3586e1228a6d020f44df84a4695dcd1cfcb55a51cd832563c729d866522ff68747470733a2f2f6d6574612e636f696e6c616e6465722e6f6e652f7365656b6572732f",
  "linkReferences": {},
  "deployedLinkReferences": {}
}