{
  "_format": "hh-sol-artifact-1",
  "contractName": "Seekers",
  "sourceName": "contracts/Seekers.sol",
  "abi": [
    {
      "inputs": [],
      "stateMutability": "nonpayable",
      "type": "constructor"
    },
    {
      "anonymous": false,
      "inputs": [
        {
          "indexed": true,
          "internalType": "address",
          "name": "owner",
          "type": "address"
        },
        {
          "indexed": true,
          "internalType": "address",
          "name": "approved",
          "type": "address"
        },
        {
          "indexed": true,
          "internalType": "uint256",
          "name": "tokenId",
          "type": "uint256"
        }
      ],
      "name": "Approval",
      "type": "event"
    },
    {
      "anonymous": false,
      "inputs": [
        {
          "indexed": true,
          "internalType": "address",
          "name": "owner",
          "type": "address"
        },
        {
          "indexed": true,
          "internalType": "address",
          "name": "operator",
          "type": "address"
        },
        {
          "indexed": false,
          "internalType": "bool",
          "name": "approved",
          "type": "bool"
        }
      ],
      "name": "ApprovalForAll",
      "type": "event"
    },
    {
      "anonymous": false,
      "inputs": [],
      "name": "CloakingAvailable",
      "type": "event"
    },
    {
      "anonymous": false,
      "inputs": [
        {
          "indexed": false,
          "internalType": "uint256",
          "name": "id",
          "type": "uint256"
        }
      ],
      "name": "DethscalesRerolled",
      "type": "event"
    },
    {
      "anonymous": false,
      "inputs": [],
      "name": "FirstMintActivated",
      "type": "event"
    },
    {
      "anonymous": false,
      "inputs": [
        {
          "indexed": true,
          "internalType": "uint256",
          "name": "seekerId",
          "type": "uint256"
        },
        {
          "indexed": false,
          "internalType": "uint256",
          "name": "powerAdded",
          "type": "uint256"
        },
        {
          "indexed": false,
          "internalType": "uint256",
          "name": "newPower",
          "type": "uint256"
        }
      ],
      "name": "PowerAdded",
      "type": "event"
    },
    {
      "anonymous": false,
      "inputs": [
        {
          "indexed": true,
          "internalType": "uint256",
          "name": "seekerId",
          "type": "uint256"
        },
        {
          "indexed": false,
          "internalType": "uint256",
          "name": "powerBurned",
          "type": "uint256"
        },
        {
          "indexed": false,
          "internalType": "uint256",
          "name": "newPower",
          "type": "uint256"
        }
      ],
      "name": "PowerBurned",
      "type": "event"
    },
    {
      "anonymous": false,
      "inputs": [
        {
          "indexed": true,
          "internalType": "bytes32",
          "name": "role",
          "type": "bytes32"
        },
        {
          "indexed": true,
          "internalType": "bytes32",
          "name": "previousAdminRole",
          "type": "bytes32"
        },
        {
          "indexed": true,
          "internalType": "bytes32",
          "name": "newAdminRole",
          "type": "bytes32"
        }
      ],
      "name": "RoleAdminChanged",
      "type": "event"
    },
    {
      "anonymous": false,
      "inputs": [
        {
          "indexed": true,
          "internalType": "bytes32",
          "name": "role",
          "type": "bytes32"
        },
        {
          "indexed": true,
          "internalType": "address",
          "name": "account",
          "type": "address"
        },
        {
          "indexed": true,
          "internalType": "address",
          "name": "sender",
          "type": "address"
        }
      ],
      "name": "RoleGranted",
      "type": "event"
    },
    {
      "anonymous": false,
      "inputs": [
        {
          "indexed": true,
          "internalType": "bytes32",
          "name": "role",
          "type": "bytes32"
        },
        {
          "indexed": true,
          "internalType": "address",
          "name": "account",
          "type": "address"
        },
        {
          "indexed": true,
          "internalType": "address",
          "name": "sender",
          "type": "address"
        }
      ],
      "name": "RoleRevoked",
      "type": "event"
    },
    {
      "anonymous": false,
      "inputs": [],
      "name": "SecondMintActivated",
      "type": "event"
    },
    {
      "anonymous": false,
      "inputs": [
        {
          "indexed": true,
          "internalType": "uint256",
          "name": "seekerId",
          "type": "uint256"
        }
      ],
      "name": "SeekerCloaked",
      "type": "event"
    },
    {
      "anonymous": false,
      "inputs": [
        {
          "indexed": true,
          "internalType": "uint256",
          "name": "seekerId",
          "type": "uint256"
        },
        {
          "indexed": true,
          "internalType": "address",
          "name": "clan",
          "type": "address"
        }
      ],
      "name": "SeekerDeclaredToClan",
      "type": "event"
    },
    {
      "anonymous": false,
      "inputs": [],
      "name": "ThirdMintActivated",
      "type": "event"
    },
    {
      "anonymous": false,
      "inputs": [
        {
          "indexed": true,
          "internalType": "address",
          "name": "from",
          "type": "address"
        },
        {
          "indexed": true,
          "internalType": "address",
          "name": "to",
          "type": "address"
        },
        {
          "indexed": true,
          "internalType": "uint256",
          "name": "tokenId",
          "type": "uint256"
        }
      ],
      "name": "Transfer",
      "type": "event"
    },
    {
      "inputs": [],
      "name": "BIRTHSEEKERPOWERSTART",
      "outputs": [
        {
          "internalType": "uint16",
          "name": "",
          "type": "uint16"
        }
      ],
      "stateMutability": "view",
      "type": "function"
    },
    {
      "inputs": [],
      "name": "DEFAULT_ADMIN_ROLE",
      "outputs": [
        {
          "internalType": "bytes32",
          "name": "",
          "type": "bytes32"
        }
      ],
      "stateMutability": "view",
      "type": "function"
    },
    {
      "inputs": [],
      "name": "DETHSCALEREROLLCOST",
      "outputs": [
        {
          "internalType": "uint16",
          "name": "",
          "type": "uint16"
        }
      ],
      "stateMutability": "view",
      "type": "function"
    },
    {
      "inputs": [],
      "name": "FIRSTMINTPRICE",
      "outputs": [
        {
          "internalType": "uint256",
          "name": "",
          "type": "uint256"
        }
      ],
      "stateMutability": "view",
      "type": "function"
    },
    {
      "inputs": [],
      "name": "MAXPOWER",
      "outputs": [
        {
          "internalType": "uint16",
          "name": "",
          "type": "uint16"
        }
      ],
      "stateMutability": "view",
      "type": "function"
    },
    {
      "inputs": [],
      "name": "MAXSEEKERS",
      "outputs": [
        {
          "internalType": "uint256",
          "name": "",
          "type": "uint256"
        }
      ],
      "stateMutability": "view",
      "type": "function"
    },
    {
      "inputs": [],
      "name": "POWERPERHOUR",
      "outputs": [
        {
          "internalType": "uint16",
          "name": "",
          "type": "uint16"
        }
      ],
      "stateMutability": "view",
      "type": "function"
    },
    {
      "inputs": [],
      "name": "SECONDMINT",
      "outputs": [
        {
          "internalType": "uint256",
          "name": "",
          "type": "uint256"
        }
      ],
      "stateMutability": "view",
      "type": "function"
    },
    {
      "inputs": [],
      "name": "SECONDMINTPRICE",
      "outputs": [
        {
          "internalType": "uint256",
          "name": "",
          "type": "uint256"
        }
      ],
      "stateMutability": "view",
      "type": "function"
    },
    {
      "inputs": [],
      "name": "SUMMONSEEKERPOWERSTART",
      "outputs": [
        {
          "internalType": "uint16",
          "name": "",
          "type": "uint16"
        }
      ],
      "stateMutability": "view",
      "type": "function"
    },
    {
      "inputs": [],
      "name": "THIRDMINTPRICE",
      "outputs": [
        {
          "internalType": "uint256",
          "name": "",
          "type": "uint256"
        }
      ],
      "stateMutability": "view",
      "type": "function"
    },
    {
      "inputs": [],
      "name": "activateFirstMint",
      "outputs": [],
      "stateMutability": "nonpayable",
      "type": "function"
    },
    {
      "inputs": [],
      "name": "activateSecondMint",
      "outputs": [],
      "stateMutability": "nonpayable",
      "type": "function"
    },
    {
      "inputs": [],
      "name": "activateThirdMint",
      "outputs": [],
      "stateMutability": "nonpayable",
      "type": "function"
    },
    {
      "inputs": [
        {
          "internalType": "address",
          "name": "gameContract",
          "type": "address"
        }
      ],
      "name": "addGameContract",
      "outputs": [],
      "stateMutability": "nonpayable",
      "type": "function"
    },
    {
      "inputs": [
        {
          "internalType": "address",
          "name": "newKeeper",
          "type": "address"
        }
      ],
      "name": "addKeeper",
      "outputs": [],
      "stateMutability": "nonpayable",
      "type": "function"
    },
    {
      "inputs": [
        {
          "internalType": "uint256",
          "name": "id",
          "type": "uint256"
        },
        {
          "internalType": "uint256",
          "name": "powerToAdd",
          "type": "uint256"
        }
      ],
      "name": "addPower",
      "outputs": [],
      "stateMutability": "nonpayable",
      "type": "function"
    },
    {
      "inputs": [
        {
          "internalType": "address",
          "name": "to",
          "type": "address"
        },
        {
          "internalType": "uint256",
          "name": "tokenId",
          "type": "uint256"
        }
      ],
      "name": "approve",
      "outputs": [],
      "stateMutability": "nonpayable",
      "type": "function"
    },
    {
      "inputs": [
        {
          "internalType": "address",
          "name": "owner",
          "type": "address"
        }
      ],
      "name": "balanceOf",
      "outputs": [
        {
          "internalType": "uint256",
          "name": "",
          "type": "uint256"
        }
      ],
      "stateMutability": "view",
      "type": "function"
    },
    {
      "inputs": [
        {
          "internalType": "address",
          "name": "to",
          "type": "address"
        },
        {
          "internalType": "uint32",
          "name": "holdTime",
          "type": "uint32"
        }
      ],
      "name": "birthSeeker",
      "outputs": [
        {
          "internalType": "uint256",
          "name": "",
          "type": "uint256"
        }
      ],
      "stateMutability": "nonpayable",
      "type": "function"
    },
    {
      "inputs": [
        {
          "internalType": "uint256",
          "name": "id",
          "type": "uint256"
        },
        {
          "internalType": "uint16",
          "name": "powerToBurn",
          "type": "uint16"
        }
      ],
      "name": "burnPower",
      "outputs": [],
      "stateMutability": "nonpayable",
      "type": "function"
    },
    {
      "inputs": [
        {
          "internalType": "uint256",
          "name": "id",
          "type": "uint256"
        }
      ],
      "name": "cloakSeeker",
      "outputs": [],
      "stateMutability": "nonpayable",
      "type": "function"
    },
    {
      "inputs": [],
      "name": "cloakingAvailable",
      "outputs": [
        {
          "internalType": "bool",
          "name": "",
          "type": "bool"
        }
      ],
      "stateMutability": "view",
      "type": "function"
    },
    {
      "inputs": [],
      "name": "contractURI",
      "outputs": [
        {
          "internalType": "string",
          "name": "",
          "type": "string"
        }
      ],
      "stateMutability": "view",
      "type": "function"
    },
    {
      "inputs": [],
      "name": "currentBuyableSeekers",
      "outputs": [
        {
          "internalType": "uint256",
          "name": "",
          "type": "uint256"
        }
      ],
      "stateMutability": "view",
      "type": "function"
    },
    {
      "inputs": [],
      "name": "currentPrice",
      "outputs": [
        {
          "internalType": "uint256",
          "name": "",
          "type": "uint256"
        }
      ],
      "stateMutability": "view",
      "type": "function"
    },
    {
      "inputs": [
        {
          "internalType": "uint256",
          "name": "id",
          "type": "uint256"
        },
        {
          "internalType": "address",
          "name": "clanAddress",
          "type": "address"
        }
      ],
      "name": "declareForClan",
      "outputs": [],
      "stateMutability": "nonpayable",
      "type": "function"
    },
    {
      "inputs": [],
      "name": "endGoodsOnly",
      "outputs": [],
      "stateMutability": "nonpayable",
      "type": "function"
    },
    {
      "inputs": [],
      "name": "evilsOnly",
      "outputs": [
        {
          "internalType": "bool",
          "name": "",
          "type": "bool"
        }
      ],
      "stateMutability": "view",
      "type": "function"
    },
    {
      "inputs": [],
      "name": "firstMintActive",
      "outputs": [
        {
          "internalType": "bool",
          "name": "",
          "type": "bool"
        }
      ],
      "stateMutability": "view",
      "type": "function"
    },
    {
      "inputs": [
        {
          "internalType": "uint256",
          "name": "id",
          "type": "uint256"
        }
      ],
      "name": "getAlignmentById",
      "outputs": [
        {
          "internalType": "string",
          "name": "",
          "type": "string"
        }
      ],
      "stateMutability": "view",
      "type": "function"
    },
    {
      "inputs": [
        {
          "internalType": "uint256",
          "name": "id",
          "type": "uint256"
        }
      ],
      "name": "getApById",
      "outputs": [
        {
          "internalType": "uint8[4]",
          "name": "",
          "type": "uint8[4]"
        }
      ],
      "stateMutability": "view",
      "type": "function"
    },
    {
      "inputs": [
        {
          "internalType": "uint256",
          "name": "tokenId",
          "type": "uint256"
        }
      ],
      "name": "getApproved",
      "outputs": [
        {
          "internalType": "address",
          "name": "",
          "type": "address"
        }
      ],
      "stateMutability": "view",
      "type": "function"
    },
    {
      "inputs": [
        {
          "internalType": "uint256",
          "name": "id",
          "type": "uint256"
        }
      ],
      "name": "getClanById",
      "outputs": [
        {
          "internalType": "address",
          "name": "",
          "type": "address"
        }
      ],
      "stateMutability": "view",
      "type": "function"
    },
    {
      "inputs": [
        {
          "internalType": "uint256",
          "name": "id",
          "type": "uint256"
        }
      ],
      "name": "getCloakStatusById",
      "outputs": [
        {
          "internalType": "bool",
          "name": "",
          "type": "bool"
        }
      ],
      "stateMutability": "view",
      "type": "function"
    },
    {
      "inputs": [
        {
          "internalType": "uint256",
          "name": "id",
          "type": "uint256"
        }
      ],
      "name": "getDethscalesById",
      "outputs": [
        {
          "internalType": "uint16",
          "name": "",
          "type": "uint16"
        }
      ],
      "stateMutability": "view",
      "type": "function"
    },
    {
      "inputs": [
        {
          "internalType": "uint256",
          "name": "id",
          "type": "uint256"
        }
      ],
      "name": "getFullCloak",
      "outputs": [
        {
          "internalType": "uint32[32]",
          "name": "",
          "type": "uint32[32]"
        }
      ],
      "stateMutability": "view",
      "type": "function"
    },
    {
      "inputs": [
        {
          "internalType": "uint256",
          "name": "id",
          "type": "uint256"
        }
      ],
      "name": "getOriginById",
      "outputs": [
        {
          "internalType": "bool",
          "name": "",
          "type": "bool"
        }
      ],
      "stateMutability": "view",
      "type": "function"
    },
    {
      "inputs": [
        {
          "internalType": "uint256",
          "name": "id",
          "type": "uint256"
        }
      ],
      "name": "getPowerById",
      "outputs": [
        {
          "internalType": "uint16",
          "name": "",
          "type": "uint16"
        }
      ],
      "stateMutability": "view",
      "type": "function"
    },
    {
      "inputs": [
        {
          "internalType": "bytes32",
          "name": "role",
          "type": "bytes32"
        }
      ],
      "name": "getRoleAdmin",
      "outputs": [
        {
          "internalType": "bytes32",
          "name": "",
          "type": "bytes32"
        }
      ],
      "stateMutability": "view",
      "type": "function"
    },
    {
      "inputs": [],
      "name": "goodsOnly",
      "outputs": [
        {
          "internalType": "bool",
          "name": "",
          "type": "bool"
        }
      ],
      "stateMutability": "view",
      "type": "function"
    },
    {
      "inputs": [
        {
          "internalType": "bytes32",
          "name": "role",
          "type": "bytes32"
        },
        {
          "internalType": "address",
          "name": "account",
          "type": "address"
        }
      ],
      "name": "grantRole",
      "outputs": [],
      "stateMutability": "nonpayable",
      "type": "function"
    },
    {
      "inputs": [
        {
          "internalType": "bytes32",
          "name": "role",
          "type": "bytes32"
        },
        {
          "internalType": "address",
          "name": "account",
          "type": "address"
        }
      ],
      "name": "hasRole",
      "outputs": [
        {
          "internalType": "bool",
          "name": "",
          "type": "bool"
        }
      ],
      "stateMutability": "view",
      "type": "function"
    },
    {
      "inputs": [
        {
          "internalType": "address",
          "name": "owner",
          "type": "address"
        },
        {
          "internalType": "address",
          "name": "operator",
          "type": "address"
        }
      ],
      "name": "isApprovedForAll",
      "outputs": [
        {
          "internalType": "bool",
          "name": "",
          "type": "bool"
        }
      ],
      "stateMutability": "view",
      "type": "function"
    },
    {
      "inputs": [
        {
          "internalType": "uint256",
          "name": "summonCount",
          "type": "uint256"
        }
      ],
      "name": "keepersSummonSeeker",
      "outputs": [],
      "stateMutability": "nonpayable",
      "type": "function"
    },
    {
      "inputs": [],
      "name": "name",
      "outputs": [
        {
          "internalType": "string",
          "name": "",
          "type": "string"
        }
      ],
      "stateMutability": "view",
      "type": "function"
    },
    {
      "inputs": [
        {
          "internalType": "uint256",
          "name": "tokenId",
          "type": "uint256"
        }
      ],
      "name": "ownerOf",
      "outputs": [
        {
          "internalType": "address",
          "name": "",
          "type": "address"
        }
      ],
      "stateMutability": "view",
      "type": "function"
    },
    {
      "inputs": [],
      "name": "ownerWithdraw",
      "outputs": [],
      "stateMutability": "payable",
      "type": "function"
    },
    {
      "inputs": [],
      "name": "performCloakingCeremony",
      "outputs": [],
      "stateMutability": "nonpayable",
      "type": "function"
    },
    {
      "inputs": [],
      "name": "released",
      "outputs": [
        {
          "internalType": "bool",
          "name": "",
          "type": "bool"
        }
      ],
      "stateMutability": "view",
      "type": "function"
    },
    {
      "inputs": [
        {
          "internalType": "bytes32",
          "name": "role",
          "type": "bytes32"
        },
        {
          "internalType": "address",
          "name": "account",
          "type": "address"
        }
      ],
      "name": "renounceRole",
      "outputs": [],
      "stateMutability": "nonpayable",
      "type": "function"
    },
    {
      "inputs": [
        {
          "internalType": "uint256",
          "name": "id",
          "type": "uint256"
        }
      ],
      "name": "rerollDethscales",
      "outputs": [],
      "stateMutability": "nonpayable",
      "type": "function"
    },
    {
      "inputs": [
        {
          "internalType": "bytes32",
          "name": "role",
          "type": "bytes32"
        },
        {
          "internalType": "address",
          "name": "account",
          "type": "address"
        }
      ],
      "name": "revokeRole",
      "outputs": [],
      "stateMutability": "nonpayable",
      "type": "function"
    },
    {
      "inputs": [
        {
          "internalType": "address",
          "name": "from",
          "type": "address"
        },
        {
          "internalType": "address",
          "name": "to",
          "type": "address"
        },
        {
          "internalType": "uint256",
          "name": "tokenId",
          "type": "uint256"
        }
      ],
      "name": "safeTransferFrom",
      "outputs": [],
      "stateMutability": "nonpayable",
      "type": "function"
    },
    {
      "inputs": [
        {
          "internalType": "address",
          "name": "from",
          "type": "address"
        },
        {
          "internalType": "address",
          "name": "to",
          "type": "address"
        },
        {
          "internalType": "uint256",
          "name": "tokenId",
          "type": "uint256"
        },
        {
          "internalType": "bytes",
          "name": "_data",
          "type": "bytes"
        }
      ],
      "name": "safeTransferFrom",
      "outputs": [],
      "stateMutability": "nonpayable",
      "type": "function"
    },
    {
      "inputs": [],
      "name": "secondMintActive",
      "outputs": [
        {
          "internalType": "bool",
          "name": "",
          "type": "bool"
        }
      ],
      "stateMutability": "view",
      "type": "function"
    },
    {
      "inputs": [],
      "name": "seizureMintIncrement",
      "outputs": [],
      "stateMutability": "nonpayable",
      "type": "function"
    },
    {
      "inputs": [
        {
          "internalType": "address",
          "name": "winner",
          "type": "address"
        }
      ],
      "name": "sendWinnerSeeker",
      "outputs": [],
      "stateMutability": "nonpayable",
      "type": "function"
    },
    {
      "inputs": [
        {
          "internalType": "address",
          "name": "operator",
          "type": "address"
        },
        {
          "internalType": "bool",
          "name": "approved",
          "type": "bool"
        }
      ],
      "name": "setApprovalForAll",
      "outputs": [],
      "stateMutability": "nonpayable",
      "type": "function"
    },
    {
      "inputs": [
        {
          "internalType": "string",
          "name": "baseTokenURI",
          "type": "string"
        }
      ],
      "name": "setBaseURI",
      "outputs": [],
      "stateMutability": "nonpayable",
      "type": "function"
    },
    {
      "inputs": [
        {
          "internalType": "string",
          "name": "newContractURI",
          "type": "string"
        }
      ],
      "name": "setContractURI",
      "outputs": [],
      "stateMutability": "nonpayable",
      "type": "function"
    },
    {
      "inputs": [
        {
          "internalType": "uint256",
          "name": "summonCount",
          "type": "uint256"
        }
      ],
      "name": "summonSeeker",
      "outputs": [],
      "stateMutability": "payable",
      "type": "function"
    },
    {
      "inputs": [
        {
          "internalType": "bytes4",
          "name": "interfaceId",
          "type": "bytes4"
        }
      ],
      "name": "supportsInterface",
      "outputs": [
        {
          "internalType": "bool",
          "name": "",
          "type": "bool"
        }
      ],
      "stateMutability": "view",
      "type": "function"
    },
    {
      "inputs": [],
      "name": "symbol",
      "outputs": [
        {
          "internalType": "string",
          "name": "",
          "type": "string"
        }
      ],
      "stateMutability": "view",
      "type": "function"
    },
    {
      "inputs": [],
      "name": "thirdMintActive",
      "outputs": [
        {
          "internalType": "bool",
          "name": "",
          "type": "bool"
        }
      ],
      "stateMutability": "view",
      "type": "function"
    },
    {
      "inputs": [
        {
          "internalType": "uint256",
          "name": "index",
          "type": "uint256"
        }
      ],
      "name": "tokenByIndex",
      "outputs": [
        {
          "internalType": "uint256",
          "name": "",
          "type": "uint256"
        }
      ],
      "stateMutability": "view",
      "type": "function"
    },
    {
      "inputs": [
        {
          "internalType": "address",
          "name": "owner",
          "type": "address"
        },
        {
          "internalType": "uint256",
          "name": "index",
          "type": "uint256"
        }
      ],
      "name": "tokenOfOwnerByIndex",
      "outputs": [
        {
          "internalType": "uint256",
          "name": "",
          "type": "uint256"
        }
      ],
      "stateMutability": "view",
      "type": "function"
    },
    {
      "inputs": [
        {
          "internalType": "uint256",
          "name": "tokenId",
          "type": "uint256"
        }
      ],
      "name": "tokenURI",
      "outputs": [
        {
          "internalType": "string",
          "name": "",
          "type": "string"
        }
      ],
      "stateMutability": "view",
      "type": "function"
    },
    {
      "inputs": [],
      "name": "totalSupply",
      "outputs": [
        {
          "internalType": "uint256",
          "name": "",
          "type": "uint256"
        }
      ],
      "stateMutability": "view",
      "type": "function"
    },
    {
      "inputs": [
        {
          "internalType": "address",
          "name": "from",
          "type": "address"
        },
        {
          "internalType": "address",
          "name": "to",
          "type": "address"
        },
        {
          "internalType": "uint256",
          "name": "tokenId",
          "type": "uint256"
        }
      ],
      "name": "transferFrom",
      "outputs": [],
      "stateMutability": "nonpayable",
      "type": "function"
    },
    {
      "stateMutability": "payable",
      "type": "receive"
    }
  ],
  "bytecode": "0x6000600c819055600d819055600e819055600f8190556010556011805466ffffffffffffff1916905560e06040526027608081815290620062da60a0398051620000529160149160209091019062000ad7565b5060405180606001604052806028815260200162006321602891398051620000839160159160209091019062000ad7565b506040805161016081018252600b61012082018181526a13185dd99d5b0811dbdbd960aa1b610140840152825282518084018452600c8082526b13995d5d1c985b0811dbdbd960a21b60208381019190915280850192909252845180860186528181526b10da185bdd1a58c811dbdbd960a21b818401528486015284518086018652600e81526d13185dd99d5b0813995d5d1c985b60921b818401526060850152845180860186528181526b151c9d594813995d5d1c985b60a21b81840152608085015284518086018652600f81526e10da185bdd1a58c813995d5d1c985b608a1b8184015260a0850152845180860186529283526a13185dd99d5b08115d9a5b60aa1b8383015260c0840192909252835180850185528281526b13995d5d1c985b08115d9a5b60a21b8183015260e084015283518085019094529083526b10da185bdd1a58c8115d9a5b60a21b90830152610100810191909152620001ee90601690600962000b66565b50348015620001fc57600080fd5b50604080518082018252601381527f436f696e6c616e6465723a205365656b657273000000000000000000000000006020808301918252835180850190945260078452665345454b45525360c81b908401528151919291620002619160009162000ad7565b5080516200027790600190602084019062000ad7565b50506001600b55506200028c60003362000368565b620002a7600080516020620063018339815191523362000368565b620002c360008051602062006301833981519152600062000378565b6001600c6000828254620002d8919062000c56565b9091555050600c54620002ed903390620003c3565b6001600081905260136020527f4155c2f711f2cdd34f8262ab8fb9b7020a700fe7b6948222152f7670d1fdf34e805460ff1916909117905560406106436200033a610d0561138862000c56565b62000346919062000c56565b62000352919062000c56565b6200035f90600162000c56565b600d5562000da2565b620003748282620003e5565b5050565b6000828152600a6020526040808220600101805490849055905190918391839186917fbd79b86ffe0ab8e8776151514217cd7cacd52c909f66475c3af44e129f0b00ff9190a4505050565b620003748282604051806020016040528060008152506200048960201b60201c565b6000828152600a602090815260408083206001600160a01b038516845290915290205460ff1662000374576000828152600a602090815260408083206001600160a01b03851684529091529020805460ff19166001179055620004453390565b6001600160a01b0316816001600160a01b0316837f2f8788117e7eff1d82e926ec794901d17c78024a50270940304540a733656f0d60405160405180910390a45050565b62000495838362000505565b620004a460008484846200065b565b620005005760405162461bcd60e51b81526020600482015260326024820152600080516020620062ba83398151915260448201527131b2b4bb32b91034b6b83632b6b2b73a32b960711b60648201526084015b60405180910390fd5b505050565b6001600160a01b0382166200055d5760405162461bcd60e51b815260206004820181905260248201527f4552433732313a206d696e7420746f20746865207a65726f20616464726573736044820152606401620004f7565b6000818152600260205260409020546001600160a01b031615620005c45760405162461bcd60e51b815260206004820152601c60248201527f4552433732313a20746f6b656e20616c7265616479206d696e746564000000006044820152606401620004f7565b620005d260008383620007b4565b6001600160a01b0382166000908152600360205260408120805460019290620005fd90849062000c56565b909155505060008181526002602052604080822080546001600160a01b0319166001600160a01b03861690811790915590518392907fddf252ad1be2c89b69c2b068fc378daa952ba7f163c4a11628f55a4df523b3ef908290a45050565b60006200067c846001600160a01b03166200089060201b62002a651760201c565b15620007a857604051630a85bd0160e11b81526001600160a01b0385169063150b7a0290620006b690339089908890889060040162000c71565b6020604051808303816000875af1925050508015620006f4575060408051601f3d908101601f19168201909252620006f19181019062000cec565b60015b6200078d573d80801562000725576040519150601f19603f3d011682016040523d82523d6000602084013e6200072a565b606091505b508051620007855760405162461bcd60e51b81526020600482015260326024820152600080516020620062ba83398151915260448201527131b2b4bb32b91034b6b83632b6b2b73a32b960711b6064820152608401620004f7565b805181602001fd5b6001600160e01b031916630a85bd0160e11b149050620007ac565b5060015b949350505050565b620007cc8383836200050060201b620012311760201c565b6001600160a01b0383166200082a576200082481600880546000838152600960205260408120829055600182018355919091527ff3f7a9fe364faab93b216da50a3214154f22a0a2b415b23a84c8169e8b636ee30155565b62000850565b816001600160a01b0316836001600160a01b031614620008505762000850838262000896565b6001600160a01b0382166200086a57620005008162000943565b826001600160a01b0316826001600160a01b0316146200050057620005008282620009fd565b3b151590565b60006001620008b08462000a4e60201b620019601760201c565b620008bc919062000d1f565b60008381526007602052604090205490915080821462000910576001600160a01b03841660009081526006602090815260408083208584528252808320548484528184208190558352600790915290208190555b5060009182526007602090815260408084208490556001600160a01b039094168352600681528383209183525290812055565b600854600090620009579060019062000d1f565b6000838152600960205260408120546008805493945090928490811062000982576200098262000d39565b906000526020600020015490508060088381548110620009a657620009a662000d39565b6000918252602080832090910192909255828152600990915260408082208490558582528120556008805480620009e157620009e162000d4f565b6001900381819060005260206000200160009055905550505050565b600062000a158362000a4e60201b620019601760201c565b6001600160a01b039093166000908152600660209081526040808320868452825280832085905593825260079052919091209190915550565b60006001600160a01b03821662000abb5760405162461bcd60e51b815260206004820152602a60248201527f4552433732313a2062616c616e636520717565727920666f7220746865207a65604482015269726f206164647265737360b01b6064820152608401620004f7565b506001600160a01b031660009081526003602052604090205490565b82805462000ae59062000d65565b90600052602060002090601f01602090048101928262000b09576000855562000b54565b82601f1062000b2457805160ff191683800117855562000b54565b8280016001018555821562000b54579182015b8281111562000b5457825182559160200191906001019062000b37565b5062000b6292915062000bc6565b5090565b82805482825590600052602060002090810192821562000bb8579160200282015b8281111562000bb8578251805162000ba791849160209091019062000ad7565b509160200191906001019062000b87565b5062000b6292915062000bdd565b5b8082111562000b62576000815560010162000bc7565b8082111562000b6257600062000bf4828262000bfe565b5060010162000bdd565b50805462000c0c9062000d65565b6000825580601f1062000c1d575050565b601f01602090049060005260206000209081019062000c3d919062000bc6565b50565b634e487b7160e01b600052601160045260246000fd5b6000821982111562000c6c5762000c6c62000c40565b500190565b600060018060a01b038087168352602081871681850152856040850152608060608501528451915081608085015260005b8281101562000cc05785810182015185820160a00152810162000ca2565b8281111562000cd357600060a084870101525b5050601f01601f19169190910160a00195945050505050565b60006020828403121562000cff57600080fd5b81516001600160e01b03198116811462000d1857600080fd5b9392505050565b60008282101562000d345762000d3462000c40565b500390565b634e487b7160e01b600052603260045260246000fd5b634e487b7160e01b600052603160045260246000fd5b600181811c9082168062000d7a57607f821691505b6020821081141562000d9c57634e487b7160e01b600052602260045260246000fd5b50919050565b6155088062000db26000396000f3fe6080604052600436106104095760003560e01c806381cd08ee11610213578063b88d4fde11610123578063dec8a315116100ab578063e985e9c51161007a578063e985e9c514610c52578063eb8fafd014610c9b578063eeb3f66d14610cb5578063fe01946214610cd7578063ff25b2b214610cec57600080fd5b8063dec8a31514610bb7578063e25a8b6114610bcd578063e84f579814610bfd578063e8a3d48514610c3d57600080fd5b8063ca21ec1b116100f2578063ca21ec1b14610b15578063d547741f14610b48578063dce62c7914610b68578063dd38007514610b82578063dec3a74c14610ba257600080fd5b8063b88d4fde14610a89578063c5ce83f914610aa9578063c5f5e3d114610ac8578063c87b56dd14610af557600080fd5b80639c6bf854116101a6578063a1a6125f11610175578063a1a6125f14610a09578063a217fddf14610a1f578063a22cb46514610a34578063a28d746814610a54578063b085a3f714610a7457600080fd5b80639c6bf854146109765780639d1b464a1461098b5780639dc4263f146109a15780639e945058146109dc57600080fd5b8063938e3d7b116101e2578063938e3d7b1461090057806395d89b411461092057806396132521146109355780639767d4231461095657600080fd5b806381cd08ee1461088a578063825b0da7146108aa5780638ae626a2146108ca57806391d14854146108e057600080fd5b80634032b72b116103195780636352211e116102a157806373afc2571161027057806373afc257146108125780637a9597a6146108255780637aaf13a01461083a5780637c6aa02a1461085a578063807d88fa1461087057600080fd5b80636352211e146107bd578063682341fa1461070d5780636e39a345146107dd57806370a08231146107f257600080fd5b80634f6ccce7116102e85780634f6ccce7146107225780635123b39a1461074257806351e224ca1461075c57806355f804b31461077c57806361cf05ce1461079c57600080fd5b80634032b72b146106c557806342842e0e146106e55780634311de8f146107055780634483a5811461070d57600080fd5b806310b127091161039c5780632f2ff15d1161036b5780632f2ff15d146105f75780632f745c59146106175780632fc2add11461063757806336568abe1461068557806336842eae146106a557600080fd5b806310b127091461057357806318160ddd1461058857806323b872dd146105a7578063248a9ca3146105c757600080fd5b806303989c71116103d857806303989c71146104e557806306fdde0314610506578063081812fc1461051b578063095ea7b31461055357600080fd5b806301ffc9a71461044c57806302368a2c146104815780630278c1ba146104a357806302a1b9e9146104d057600080fd5b366104475760405162461bcd60e51b81526020600482015260096024820152680452d3030312d3032360bc1b60448201526064015b60405180910390fd5b600080fd5b34801561045857600080fd5b5061046c610467366004614955565b610d0c565b60405190151581526020015b60405180910390f35b34801561048d57600080fd5b506104a161049c366004614972565b610d1d565b005b3480156104af57600080fd5b506104c36104be366004614994565b610ee0565b6040516104789190614a05565b3480156104dc57600080fd5b506104a1610f84565b3480156104f157600080fd5b5060115461046c906301000000900460ff1681565b34801561051257600080fd5b506104c3610ff9565b34801561052757600080fd5b5061053b610536366004614994565b61108b565b6040516001600160a01b039091168152602001610478565b34801561055f57600080fd5b506104a161056e366004614a34565b611120565b34801561057f57600080fd5b506104a1611236565b34801561059457600080fd5b506008545b604051908152602001610478565b3480156105b357600080fd5b506104a16105c2366004614a5e565b61130e565b3480156105d357600080fd5b506105996105e2366004614994565b6000908152600a602052604090206001015490565b34801561060357600080fd5b506104a1610612366004614a9a565b61133f565b34801561062357600080fd5b50610599610632366004614a34565b611365565b34801561064357600080fd5b50610672610652366004614994565b600090815260136020526040902060010154600160281b900461ffff1690565b60405161ffff9091168152602001610478565b34801561069157600080fd5b506104a16106a0366004614a9a565b6113fb565b3480156106b157600080fd5b506104a16106c0366004614a9a565b611479565b3480156106d157600080fd5b506104a16106e0366004614ac6565b61151a565b3480156106f157600080fd5b506104a1610700366004614a5e565b611569565b6104a1611584565b34801561071957600080fd5b50610672600181565b34801561072e57600080fd5b5061059961073d366004614994565b6115e7565b34801561074e57600080fd5b506105996512309ce5400081565b34801561076857600080fd5b506104a1610777366004614994565b61167a565b34801561078857600080fd5b506104a1610797366004614b6d565b6117c6565b3480156107a857600080fd5b5060115461046c90600160301b900460ff1681565b3480156107c957600080fd5b5061053b6107d8366004614994565b61180d565b3480156107e957600080fd5b506104a1611884565b3480156107fe57600080fd5b5061059961080d366004614ac6565b611960565b6104a1610820366004614994565b6119e7565b34801561083157600080fd5b50610672600581565b34801561084657600080fd5b506104a1610855366004614994565b611b4f565b34801561086657600080fd5b50610599600e5481565b34801561087c57600080fd5b50610599655af3107a400081565b34801561089657600080fd5b506104a16108a5366004614ac6565b611cb3565b3480156108b657600080fd5b506105996108c5366004614bb6565b611cff565b3480156108d657600080fd5b50610599612b6781565b3480156108ec57600080fd5b5061046c6108fb366004614a9a565b611dc0565b34801561090c57600080fd5b506104a161091b366004614bf6565b611deb565b34801561092c57600080fd5b506104c3611e2b565b34801561094157600080fd5b5060115461046c90600160281b900460ff1681565b34801561096257600080fd5b5060115461046c9062010000900460ff1681565b34801561098257600080fd5b50610672600381565b34801561099757600080fd5b50610599600f5481565b3480156109ad57600080fd5b506106726109bc366004614994565b600090815260136020526040902060010154600160381b900461ffff1690565b3480156109e857600080fd5b506109fc6109f7366004614994565b611e3a565b6040516104789190614c68565b348015610a1557600080fd5b5061067261040081565b348015610a2b57600080fd5b50610599600081565b348015610a4057600080fd5b506104a1610a4f366004614ca4565b6121e3565b348015610a6057600080fd5b506104a1610a6f366004614994565b6122a8565b348015610a8057600080fd5b506104a16125f7565b348015610a9557600080fd5b506104a1610aa4366004614cd5565b612645565b348015610ab557600080fd5b5060115461046c90610100900460ff1681565b348015610ad457600080fd5b50610ae8610ae3366004614994565b61267d565b6040516104789190614d51565b348015610b0157600080fd5b506104c3610b10366004614994565b6126e2565b348015610b2157600080fd5b5061046c610b30366004614994565b60009081526013602052604090206001015460ff1690565b348015610b5457600080fd5b506104a1610b63366004614a9a565b6127bd565b348015610b7457600080fd5b5060115461046c9060ff1681565b348015610b8e57600080fd5b506104a1610b9d366004614d7c565b6127e3565b348015610bae57600080fd5b506104a161286f565b348015610bc357600080fd5b50610599610d0581565b348015610bd957600080fd5b5061046c610be8366004614994565b60009081526012602052604090205460ff1690565b348015610c0957600080fd5b5061053b610c18366004614994565b600090815260136020526040902060010154600160481b90046001600160a01b031690565b348015610c4957600080fd5b506104c3612948565b348015610c5e57600080fd5b5061046c610c6d366004614da8565b6001600160a01b03918216600090815260056020908152604080832093909416825291909152205460ff1690565b348015610ca757600080fd5b50610599652d79883d200081565b348015610cc157600080fd5b5060115461046c90640100000000900460ff1681565b348015610ce357600080fd5b506104a1612957565b348015610cf857600080fd5b506104a1610d07366004614ac6565b61299b565b6000610d1782612a6b565b92915050565b610d3560008051602061549383398151915233611dc0565b610d515760405162461bcd60e51b815260040161043e90614dd2565b6000610d5c8361180d565b6001600160a01b03161415610d9f5760405162461bcd60e51b8152602060048201526009602482015268114b4c0c0c4b4c0c4d60ba1b604482015260640161043e565b60008111610ddb5760405162461bcd60e51b8152602060048201526009602482015268452d3030312d30313560b81b604482015260640161043e565b600082815260136020526040902060010154600160281b900461ffff16610400610e058383614e0b565b1115610e36576000838152601360205260409020600101805461ffff60281b19166604000000000000179055610e80565b60008381526013602052604090206001018054839190600590610e65908490600160281b900461ffff16614e23565b92506101000a81548161ffff021916908361ffff1602179055505b600083815260136020908152604091829020600101548251858152600160281b90910461ffff169181019190915284917f2d06a0b6d9e448255510db8be5700d234d963e07554aa376f2a103125f19ae62910160405180910390a2505050565b600081815260136020526040812080546060929190610efe90614e49565b80601f0160208091040260200160405190810160405280929190818152602001828054610f2a90614e49565b8015610f775780601f10610f4c57610100808354040283529160200191610f77565b820191906000526020600020905b815481529060010190602001808311610f5a57829003601f168201915b5093979650505050505050565b610f9c60008051602061549383398151915233611dc0565b610fb85760405162461bcd60e51b815260040161043e90614dd2565b6011805466ff0000000000001916600160301b1790556040517f384cd6e879e19b3a7feb9103a0279a87ba150b6ca87991db6cb08ca2981224ee90600090a1565b60606000805461100890614e49565b80601f016020809104026020016040519081016040528092919081815260200182805461103490614e49565b80156110815780601f1061105657610100808354040283529160200191611081565b820191906000526020600020905b81548152906001019060200180831161106457829003601f168201915b5050505050905090565b6000818152600260205260408120546001600160a01b03166111045760405162461bcd60e51b815260206004820152602c60248201527f4552433732313a20617070726f76656420717565727920666f72206e6f6e657860448201526b34b9ba32b73a103a37b5b2b760a11b606482015260840161043e565b506000908152600460205260409020546001600160a01b031690565b600061112b8261180d565b9050806001600160a01b0316836001600160a01b031614156111995760405162461bcd60e51b815260206004820152602160248201527f4552433732313a20617070726f76616c20746f2063757272656e74206f776e656044820152603960f91b606482015260840161043e565b336001600160a01b03821614806111b557506111b58133610c6d565b6112275760405162461bcd60e51b815260206004820152603860248201527f4552433732313a20617070726f76652063616c6c6572206973206e6f74206f7760448201527f6e6572206e6f7220617070726f76656420666f7220616c6c0000000000000000606482015260840161043e565b6112318383612a90565b505050565b61124e60008051602061549383398151915233611dc0565b61126a5760405162461bcd60e51b815260040161043e90614dd2565b60115460ff16156112a95760405162461bcd60e51b8152602060048201526009602482015268452d3030312d30303560b81b604482015260640161043e565b6011805460ff191660011790556040517f0d3dae01e1b4644a9619797b649d24e856e8d3dd662f97e01427e70bf2ae91a690600090a16112ec6040611388614e0b565b600e60008282546112fd9190614e0b565b90915550506512309ce54000600f55565b6113183382612afe565b6113345760405162461bcd60e51b815260040161043e90614e84565b611231838383612bf5565b6000828152600a602052604090206001015461135b8133612da0565b6112318383612e04565b600061137083611960565b82106113d25760405162461bcd60e51b815260206004820152602b60248201527f455243373231456e756d657261626c653a206f776e657220696e646578206f7560448201526a74206f6620626f756e647360a81b606482015260840161043e565b506001600160a01b03919091166000908152600660209081526040808320938352929052205490565b6001600160a01b038116331461146b5760405162461bcd60e51b815260206004820152602f60248201527f416363657373436f6e74726f6c3a2063616e206f6e6c792072656e6f756e636560448201526e103937b632b9903337b91039b2b63360891b606482015260840161043e565b6114758282612e8a565b5050565b6114828261180d565b6001600160a01b0316336001600160a01b0316146114b25760405162461bcd60e51b815260040161043e90614ed5565b6000828152601360205260408082206001018054600160481b600160e81b031916600160481b6001600160a01b038616908102919091179091559051909184917fafa5959eb8823d589ec08c28f3effdde6546d1102288f3ba855119af25e3bbba9190a35050565b6115326000805160206154b383398151915233611dc0565b61154e5760405162461bcd60e51b815260040161043e90614ef8565b6115666000805160206154b38339815191528261133f565b50565b61123183838360405180602001604052806000815250612645565b61159c6000805160206154b383398151915233611dc0565b6115b85760405162461bcd60e51b815260040161043e90614ef8565b6040514790339082156108fc029083906000818181858888f19350505050158015611475573d6000803e3d6000fd5b60006115f260085490565b82106116555760405162461bcd60e51b815260206004820152602c60248201527f455243373231456e756d657261626c653a20676c6f62616c20696e646578206f60448201526b7574206f6620626f756e647360a01b606482015260840161043e565b6008828154811061166857611668614f1b565b90600052602060002001549050919050565b601154600160301b900460ff166116bf5760405162461bcd60e51b8152602060048201526009602482015268452d3030312d30303960b81b604482015260640161043e565b6116c88161180d565b6001600160a01b0316336001600160a01b0316146116f85760405162461bcd60e51b815260040161043e90614ed5565b60008181526012602052604090205460ff166117425760405162461bcd60e51b815260206004820152600960248201526822969818189698189960b91b604482015260640161043e565b61174d816001612ef1565b611758816001612ff5565b60008281526013602052604090819020600101805461ffff93909316600160381b0261ffff60381b1990931692909217909155517fdcc2145292317879f6319461deaed4ada2422f436a0b0e15f2af0e60c637d121906117bb9083815260200190565b60405180910390a150565b6117de6000805160206154b383398151915233611dc0565b6117fa5760405162461bcd60e51b815260040161043e90614ef8565b80516114759060159060208401906147f5565b6000818152600260205260408120546001600160a01b031680610d175760405162461bcd60e51b815260206004820152602960248201527f4552433732313a206f776e657220717565727920666f72206e6f6e657869737460448201526832b73a103a37b5b2b760b91b606482015260840161043e565b61189c60008051602061549383398151915233611dc0565b6118b85760405162461bcd60e51b815260040161043e90614dd2565b60115462010000900460ff16156118fd5760405162461bcd60e51b8152602060048201526009602482015268452d3030312d30303760b81b604482015260640161043e565b6011805464ffffff000019166401000100001790556040517f1bbe80213228404e276963f9e286d445ba1e5609daacc5098b97ad3783da4d9790600090a161010b600e600082825461194f9190614e0b565b9091555050655af3107a4000600f55565b60006001600160a01b0382166119cb5760405162461bcd60e51b815260206004820152602a60248201527f4552433732313a2062616c616e636520717565727920666f7220746865207a65604482015269726f206164647265737360b01b606482015260840161043e565b506001600160a01b031660009081526003602052604090205490565b6002600b541415611a3a5760405162461bcd60e51b815260206004820152601f60248201527f5265656e7472616e637947756172643a207265656e7472616e742063616c6c00604482015260640161043e565b6002600b558015801590611a4f5750600a8111155b611a875760405162461bcd60e51b8152602060048201526009602482015268452d3030312d30303160b81b604482015260640161043e565b80600f54611a959190614f31565b341015611ad05760405162461bcd60e51b815260206004820152600960248201526822969818189698181960b91b604482015260640161043e565b600e5481600c54611ae19190614e0b565b1115611aff5760405162461bcd60e51b815260040161043e90614f50565b60005b81811015611b46576001600c6000828254611b1d9190614e0b565b92505081905550611b3433600c546000600361316a565b80611b3e81614f73565b915050611b02565b50506001600b55565b6002600b541415611ba25760405162461bcd60e51b815260206004820152601f60248201527f5265656e7472616e637947756172643a207265656e7472616e742063616c6c00604482015260640161043e565b6002600b55611bbf6000805160206154b383398151915233611dc0565b611bdb5760405162461bcd60e51b815260040161043e90614ef8565b604081601054611beb9190614e0b565b1115611c255760405162461bcd60e51b8152602060048201526009602482015268114b4c0c0c4b4c0c0d60ba1b604482015260640161043e565b600e5481600c54611c369190614e0b565b1115611c545760405162461bcd60e51b815260040161043e90614f50565b8060106000828254611c669190614e0b565b90915550600090505b81811015611b46576001600c6000828254611c8a9190614e0b565b92505081905550611ca133600c546000600361316a565b80611cab81614f73565b915050611c6f565b611ccb6000805160206154b383398151915233611dc0565b611ce75760405162461bcd60e51b815260040161043e90614ef8565b6115666000805160206154938339815191528261133f565b6000611d1960008051602061549383398151915233611dc0565b611d355760405162461bcd60e51b815260040161043e90614dd2565b612b67600d5410611d585760405162461bcd60e51b815260040161043e90614f50565b6001600d6000828254611d6b9190614e0b565b90915550600090506005611d7e846132f6565b611d889190614e23565b9050600061040061ffff831611611d9f5781611da3565b6104005b9050611db485600d5460018461316a565b5050600d549392505050565b6000918252600a602090815260408084206001600160a01b0393909316845291905290205460ff1690565b611e036000805160206154b383398151915233611dc0565b611e1f5760405162461bcd60e51b815260040161043e90614ef8565b61123160148383614879565b60606001805461100890614e49565b611e426148ed565b60008281526012602052604090205460ff16611e8c5760405162461bcd60e51b815260206004820152600960248201526822969818189698189960b91b604482015260640161043e565b600082815260136020526040812060010154600160381b900461ffff1690611eb384613312565b9150506000808260001415611eca57506000905060105b8260011415611edf5750601090506020611ee7565b506020905060605b611eef6148ed565b61ffff8516611efc61490c565b601082901b65fffff000000016600c83811b650fffff00000016600885811b64fffff0000016600487811b640fffff00001663fffff00089169189901c630fffff00169589901c620fffff169389901c62fffff0169390931794909417939093171791909117171781600063ffffffff9290921660209092020152601482901b63f000000016601083901b630f00000016600c84901b62f0000016600885811b620f000016600487811b61f00016610f0089169389901c600f169189901c60f0169190911792909217919091171717171781600163ffffffff9290921660209092020152601882901b63f000000016601483901b630f00000016601084901b62f0000016600c85901b620f000016600886901b61f00016600487811b610f00169088901c600f1660f089161717171717171781600263ffffffff909216602092909202015260f0600483901b16600f831617610f00600884901b161761f000600c84901b1617620f0000601084901b161762f00000601484901b1617630f000000601884901b161763f0000000601c84901b161781600363ffffffff909216602092909202015260005b60208161ffff16101561211057816120bf600483614fa4565b61ffff16600481106120d3576120d3614f1b565b6020020151848261ffff16602081106120ee576120ee614f1b565b63ffffffff90921660209290920201528061210881614fc5565b9150506120a6565b506000856121336121218288614fe7565b61212c906001614e23565b8a886134be565b61213d9190614e23565b905060005b8161ffff168161ffff1610156121d457600061216060208b846134be565b90506000612170602083856134be565b9050868161ffff166020811061218857612188614f1b565b60200201516121988360026151ff565b18878261ffff16602081106121af576121af614f1b565b63ffffffff9092166020929092020152508190506121cc81614fc5565b915050612142565b50929998505050505050505050565b6001600160a01b03821633141561223c5760405162461bcd60e51b815260206004820152601960248201527f4552433732313a20617070726f766520746f2063616c6c657200000000000000604482015260640161043e565b3360008181526005602090815260408083206001600160a01b03871680855290835292819020805460ff191686151590811790915590519081529192917f17307eab39ab6107e8899845ad3d59bd9653f200f220920489ca2b5937696c31910160405180910390a35050565b601154600160301b900460ff166122ed5760405162461bcd60e51b8152602060048201526009602482015268452d3030312d30303960b81b604482015260640161043e565b6122f68161180d565b6001600160a01b0316336001600160a01b0316146123265760405162461bcd60e51b815260040161043e90614ed5565b60008181526012602052604090205460ff16156123715760405162461bcd60e51b8152602060048201526009602482015268452d3030312d30313160b81b604482015260640161043e565b600061237b613517565b9050600061238883613a7a565b6000848152601260209081526040808320805460ff19166001908117909155815161012081018352878152888552601384528285209091015460ff16151592810192909252929350909181018383602002015160ff168152602001836001600481106123f6576123f6614f1b565b602002015160ff1681526020018360026004811061241657612416614f1b565b602002015160ff1681526020018360036004811061243657612436614f1b565b6020908102919091015160ff1682526000878152601380835260408083206001810154600160281b810461ffff1687870152918601849052600160481b9091046001600160a01b03166060909501949094529088905281528251805193945084936124a492849201906147f5565b5060208201516001909101805460408401516060850151608086015160a087015160c088015160e0890151610100998a01516001600160a01b0316600160481b02600160481b600160e81b031961ffff928316600160381b0216600160381b600160e81b031992909316600160281b0261ffff60281b1960ff958616640100000000021666ffffff000000001996861663010000000263ff0000001998871662010000029890981663ffff00001999909616909c0261ff00199b15159b909b1661ffff1990991698909817999099179590951691909117929092171695909517919091171692909217179055600061259c8582612ff5565b600086815260136020526040808220600101805461ffff60381b1916600160381b61ffff8616021790555191925086917f41bbd0e6e72fe1635257a4b4e357fc8af4fd144c837dc8d0a82cdf8d1c8cb6f09190a25050505050565b61260f60008051602061549383398151915233611dc0565b61262b5760405162461bcd60e51b815260040161043e90614dd2565b6004600e600082825461263e9190614e0b565b9091555050565b61264f3383612afe565b61266b5760405162461bcd60e51b815260040161043e90614e84565b61267784848484613cbb565b50505050565b61268561490c565b50604080516080810182526000838152601360208181528483206001015460ff6101008204811686526201000082048116838701526401000000008204811696860196909652959092529052630100000090920416606082015290565b6000818152600260205260409020546060906001600160a01b03166127615760405162461bcd60e51b815260206004820152602f60248201527f4552433732314d657461646174613a2055524920717565727920666f72206e6f60448201526e3732bc34b9ba32b73a103a37b5b2b760891b606482015260840161043e565b600061276b613cee565b9050600081511161278b57604051806020016040528060008152506127b6565b8061279584613cfd565b6040516020016127a6929190615215565b6040516020818303038152906040525b9392505050565b6000828152600a60205260409020600101546127d98133612da0565b6112318383612e8a565b6127fb60008051602061549383398151915233611dc0565b6128175760405162461bcd60e51b815260040161043e90614dd2565b60006128228361180d565b6001600160a01b031614156128655760405162461bcd60e51b8152602060048201526009602482015268114b4c0c0c4b4c0c4d60ba1b604482015260640161043e565b6114758282612ef1565b61288760008051602061549383398151915233611dc0565b6128a35760405162461bcd60e51b815260040161043e90614dd2565b601154610100900460ff16156128e75760405162461bcd60e51b815260206004820152600960248201526822969818189698181b60b91b604482015260640161043e565b6011805463ff00ff00191663010001001790556040517fce28fb74a9fed93421bef1c67a577ec8bdd8f93d99962f27a4b52207e9e80dd390600090a1610d05600e60008282546129379190614e0b565b9091555050652d79883d2000600f55565b60606014805461100890614e49565b61296f60008051602061549383398151915233611dc0565b61298b5760405162461bcd60e51b815260040161043e90614dd2565b6011805464ff0000000019169055565b6129b360008051602061549383398151915233611dc0565b6129cf5760405162461bcd60e51b815260040161043e90614dd2565b601154600160281b900460ff1615612a155760405162461bcd60e51b815260206004820152600960248201526808a5a6060625a6060760bb1b604482015260640161043e565b6011805465ff00000000001916600160281b179055612a346001613dfb565b611566612a41600161180d565b8260016040518060400160405280600381526020016203078360ec1b815250613cbb565b3b151590565b60006001600160e01b03198216637965db0b60e01b1480610d175750610d1782613fd3565b600081815260046020526040902080546001600160a01b0319166001600160a01b0384169081179091558190612ac58261180d565b6001600160a01b03167f8c5be1e5ebec7d5bd14f71427d1e84f3dd0314c0f7b2291e5b200ac8c7c3b92560405160405180910390a45050565b6000818152600260205260408120546001600160a01b0316612b775760405162461bcd60e51b815260206004820152602c60248201527f4552433732313a206f70657261746f7220717565727920666f72206e6f6e657860448201526b34b9ba32b73a103a37b5b2b760a11b606482015260840161043e565b6000612b828361180d565b9050806001600160a01b0316846001600160a01b03161480612bbd5750836001600160a01b0316612bb28461108b565b6001600160a01b0316145b80612bed57506001600160a01b0380821660009081526005602090815260408083209388168352929052205460ff165b949350505050565b826001600160a01b0316612c088261180d565b6001600160a01b031614612c705760405162461bcd60e51b815260206004820152602960248201527f4552433732313a207472616e73666572206f6620746f6b656e2074686174206960448201526839903737ba1037bbb760b91b606482015260840161043e565b6001600160a01b038216612cd25760405162461bcd60e51b8152602060048201526024808201527f4552433732313a207472616e7366657220746f20746865207a65726f206164646044820152637265737360e01b606482015260840161043e565b612cdd838383613ff8565b612ce8600082612a90565b6001600160a01b0383166000908152600360205260408120805460019290612d1190849061523b565b90915550506001600160a01b0382166000908152600360205260408120805460019290612d3f908490614e0b565b909155505060008181526002602052604080822080546001600160a01b0319166001600160a01b0386811691821790925591518493918716917fddf252ad1be2c89b69c2b068fc378daa952ba7f163c4a11628f55a4df523b3ef91a4505050565b612daa8282611dc0565b61147557612dc2816001600160a01b031660146140b0565b612dcd8360206140b0565b604051602001612dde929190615252565b60408051601f198184030181529082905262461bcd60e51b825261043e91600401614a05565b612e0e8282611dc0565b611475576000828152600a602090815260408083206001600160a01b03851684529091529020805460ff19166001179055612e463390565b6001600160a01b0316816001600160a01b0316837f2f8788117e7eff1d82e926ec794901d17c78024a50270940304540a733656f0d60405160405180910390a45050565b612e948282611dc0565b15611475576000828152600a602090815260408083206001600160a01b0385168085529252808320805460ff1916905551339285917ff6391f5c32d9c69d2a47ea670b442974b53935d1edc7fd64eb21e047a839171b9190a45050565b60008281526013602052604090206001015461ffff600160281b90910481169082161115612f4d5760405162461bcd60e51b8152602060048201526009602482015268452d3030312d30323160b81b604482015260640161043e565b60008281526013602052604090206001018054829190600590612f7c908490600160281b900461ffff16614fe7565b82546101009290920a61ffff8181021990931691831602179091556000848152601360209081526040918290206001015482518685168152600160281b909104909316908301528492507fa7ed3965d6fe6e37914f97b6e0e30e56ea184d78907b49c112c18867c8f31757910160405180910390a25050565b60008061300184613312565b509050600080826001141561301c575060079050600c613024565b506004905060085b600080806130328585614fe7565b61303d906001614e23565b905060008861305857613053620100008b61424c565b613076565b60008a815260136020526040902060010154600160381b900461ffff165b9050600086613086848d856134be565b6130909190614e23565b905060005b8161ffff168161ffff1610156130d4576130b1601082856134be565b9450856130bf8660026152c7565b179550806130cc81614fc5565b915050613095565b5060006130e660648461ffff1661424c565b9050886002141561312b5760058161ffff1610801561310357508a155b1561311a5785199950505050505050505050610d17565b859950505050505050505050610d17565b8861311a5760058161ffff1610801561314257508a155b1561315857859950505050505050505050610d17565b85199950505050505050505050610d17565b6040805161014081018252600061012082018181528252841515602080840191909152828401829052606083018290526080830182905260a0830182905261ffff851660c084015260e0830182905261010083018290528682526013815292902081518051929384936131e092849201906147f5565b5060208281015160019290920180546040808601516060870151608088015160a089015160c08a015160e08b01516101009b8c015161ffff199098169a151561ff0019169a909a1760ff958616909b029a909a1763ffff00001916620100009385169390930263ff0000001916929092176301000000918416919091021766ffffff000000001916640100000000929091169190910261ffff60281b191617600160281b61ffff9788160217600160381b600160e81b031916600160381b9690951695909502600160481b600160e81b03191693909317600160481b6001600160a01b0390941693909302929092179091556000868152601290915220805460ff191690556132ef85856142c7565b5050505050565b600080613305610e10846152da565b90506127b68160016152fd565b600081815260136020526040812080548291829161332f90614e49565b80601f016020809104026020016040519081016040528092919081815260200182805461335b90614e49565b80156133a85780601f1061337d576101008083540402835291602001916133a8565b820191906000526020600020905b81548152906001019060200180831161338b57829003601f168201915b50505050509050606060005b6016548110156134b057601681815481106133d1576133d1614f1b565b9060005260206000200180546133e690614e49565b80601f016020809104026020016040519081016040528092919081815260200182805461341290614e49565b801561345f5780601f106134345761010080835404028352916020019161345f565b820191906000526020600020905b81548152906001019060200180831161344257829003601f168201915b5050505050915081805190602001208380519060200120141561349e57613487600382615329565b61349260038361533d565b94509450505050915091565b806134a881614f73565b9150506133b4565b506000958695509350505050565b6040516001600160f01b031960f084811b8216602084015283901b16602282015260009081906024016040516020818303038152906040528051906020012060f01c9050848161350e9190614fa4565b95945050505050565b601154606090640100000000900460ff16156137bc5760408051600380825260808201909252600091816020015b6060815260200190600190039081613545579050509050601660008154811061357057613570614f1b565b90600052602060002001805461358590614e49565b80601f01602080910402602001604051908101604052809291908181526020018280546135b190614e49565b80156135fe5780601f106135d3576101008083540402835291602001916135fe565b820191906000526020600020905b8154815290600101906020018083116135e157829003601f168201915b50505050508160008151811061361657613616614f1b565b6020026020010181905250601660018154811061363557613635614f1b565b90600052602060002001805461364a90614e49565b80601f016020809104026020016040519081016040528092919081815260200182805461367690614e49565b80156136c35780601f10613698576101008083540402835291602001916136c3565b820191906000526020600020905b8154815290600101906020018083116136a657829003601f168201915b5050505050816001815181106136db576136db614f1b565b602002602001018190525060166002815481106136fa576136fa614f1b565b90600052602060002001805461370f90614e49565b80601f016020809104026020016040519081016040528092919081815260200182805461373b90614e49565b80156137885780601f1061375d57610100808354040283529160200191613788565b820191906000526020600020905b81548152906001019060200180831161376b57829003601f168201915b5050505050816002815181106137a0576137a0614f1b565b60200260200101819052506137b66003826142e1565b91505090565b6011546301000000900460ff161561399b5760408051600380825260808201909252600091816020015b60608152602001906001900390816137e6579050509050601660068154811061381157613811614f1b565b90600052602060002001805461382690614e49565b80601f016020809104026020016040519081016040528092919081815260200182805461385290614e49565b801561389f5780601f106138745761010080835404028352916020019161389f565b820191906000526020600020905b81548152906001019060200180831161388257829003601f168201915b5050505050816000815181106138b7576138b7614f1b565b602002602001018190525060166007815481106138d6576138d6614f1b565b9060005260206000200180546138eb90614e49565b80601f016020809104026020016040519081016040528092919081815260200182805461391790614e49565b80156139645780601f1061393957610100808354040283529160200191613964565b820191906000526020600020905b81548152906001019060200180831161394757829003601f168201915b50505050508160018151811061397c5761397c614f1b565b602002602001018190525060166008815481106136fa576136fa614f1b565b6016805460408051602080840282018101909252828152613a75939091839060009084015b82821015613a6c5783829060005260206000200180546139df90614e49565b80601f0160208091040260200160405190810160405280929190818152602001828054613a0b90614e49565b8015613a585780601f10613a2d57610100808354040283529160200191613a58565b820191906000526020600020905b815481529060010190602001808311613a3b57829003601f168201915b5050505050815260200190600101906139c0565b505050506142e1565b905090565b613a8261490c565b600082815260136020526040902060010154600a9060179060329060ff1615613aae57600f9250601991505b6000613aba848461523b565b613ac5906001614e0b565b90506000613ad482600061424c565b613ade9086614e0b565b90506000613aed83600161424c565b613af79087614e0b565b90506000613b0684600261424c565b613b109088614e0b565b90506000613b1f85600361424c565b613b299089614e0b565b905060008183613b398688615351565b613b439190615351565b613b4d9190615351565b6040805160808101825260ff808916825287811660208301528681169282019290925284821660608201529192508881169083161015613bd2576000613b93838a615376565b90506000613ba083614327565b905081838260ff1660048110613bb857613bb8614f1b565b60200201818151613bc99190615351565b60ff1690525050505b60005b6004811015613cab576000613beb82600461523b565b60408051426020820152016040516020818303038152906040528051906020012060001c613c19919061533d565b613c239083614e0b565b90506000838260048110613c3957613c39614f1b565b60200201519050838360048110613c5257613c52614f1b565b6020020151848360048110613c6957613c69614f1b565b60ff909216602092909202015280848460048110613c8957613c89614f1b565b60ff909216602092909202015250819050613ca381614f73565b915050613bd5565b509b9a5050505050505050505050565b613cc6848484612bf5565b613cd284848484614396565b6126775760405162461bcd60e51b815260040161043e90615399565b60606015805461100890614e49565b606081613d215750506040805180820190915260018152600360fc1b602082015290565b8160005b8115613d4b5780613d3581614f73565b9150613d449050600a83615329565b9150613d25565b60008167ffffffffffffffff811115613d6657613d66614ae1565b6040519080825280601f01601f191660200182016040528015613d90576020820181803683370190505b5090505b8415612bed57613da560018361523b565b9150613db2600a8661533d565b613dbd906030614e0b565b60f81b818381518110613dd257613dd2614f1b565b60200101906001600160f81b031916908160001a905350613df4600a86615329565b9450613d94565b6000818152601260209081526040808320805460ff19166001908117909155815161016081018352600c61012082019081526b151c9d594813995d5d1c985b60a21b61014083015281528084018290526019818401819052606082018190526080820181905260a082015261040060c082015260e081018590528585526013808552928520918201546001600160a01b03600160481b9091041661010082015293859052908252825180518493613eb69284929101906147f5565b50602082015160019190910180546040808501516060860151608087015160a088015160c089015160e08a01516101009a8b015161ffff1990981699151561ff0019169990991760ff958616909a029990991763ffff00001916620100009385169390930263ff0000001916929092176301000000918416919091021766ffffff000000001916640100000000929091169190910261ffff60281b191617600160281b61ffff9687160217600160381b600160e81b031916600160381b9590941694909402600160481b600160e81b03191692909217600160481b6001600160a01b03909316929092029190911790555182907f41bbd0e6e72fe1635257a4b4e357fc8af4fd144c837dc8d0a82cdf8d1c8cb6f090600090a25050565b60006001600160e01b0319821663780e9d6360e01b1480610d175750610d1782614494565b6001600160a01b0383166140535761404e81600880546000838152600960205260408120829055600182018355919091527ff3f7a9fe364faab93b216da50a3214154f22a0a2b415b23a84c8169e8b636ee30155565b614076565b816001600160a01b0316836001600160a01b0316146140765761407683826144e4565b6001600160a01b03821661408d5761123181614581565b826001600160a01b0316826001600160a01b031614611231576112318282614630565b606060006140bf836002614f31565b6140ca906002614e0b565b67ffffffffffffffff8111156140e2576140e2614ae1565b6040519080825280601f01601f19166020018201604052801561410c576020820181803683370190505b509050600360fc1b8160008151811061412757614127614f1b565b60200101906001600160f81b031916908160001a905350600f60fb1b8160018151811061415657614156614f1b565b60200101906001600160f81b031916908160001a905350600061417a846002614f31565b614185906001614e0b565b90505b60018111156141fd576f181899199a1a9b1b9c1cb0b131b232b360811b85600f16601081106141b9576141b9614f1b565b1a60f81b8282815181106141cf576141cf614f1b565b60200101906001600160f81b031916908160001a90535060049490941c936141f6816153eb565b9050614188565b5083156127b65760405162461bcd60e51b815260206004820181905260248201527f537472696e67733a20686578206c656e67746820696e73756666696369656e74604482015260640161043e565b60008061425a60014361523b565b60408051914060208301526bffffffffffffffffffffffff1941606090811b8216928401929092524460548401523390911b1660748201526088810185905260a8810184905260c80160408051601f1981840301815291905280516020909101209050612bed848261533d565b611475828260405180602001604052806000815250614674565b606060006142f084600061424c565b9050600083845183614302919061533d565b8151811061431257614312614f1b565b60200260200101519050809250505092915050565b60008060005b60048160ff16101561438f57838260ff166004811061434e5761434e614f1b565b602002015160ff16848260ff166004811061436b5761436b614f1b565b602002015160ff16101561437d578091505b8061438781615402565b91505061432d565b5092915050565b60006001600160a01b0384163b1561448957604051630a85bd0160e11b81526001600160a01b0385169063150b7a02906143da903390899088908890600401615422565b6020604051808303816000875af1925050508015614415575060408051601f3d908101601f191682019092526144129181019061545f565b60015b61446f573d808015614443576040519150601f19603f3d011682016040523d82523d6000602084013e614448565b606091505b5080516144675760405162461bcd60e51b815260040161043e90615399565b805181602001fd5b6001600160e01b031916630a85bd0160e11b149050612bed565b506001949350505050565b60006001600160e01b031982166380ac58cd60e01b14806144c557506001600160e01b03198216635b5e139f60e01b145b80610d1757506301ffc9a760e01b6001600160e01b0319831614610d17565b600060016144f184611960565b6144fb919061523b565b60008381526007602052604090205490915080821461454e576001600160a01b03841660009081526006602090815260408083208584528252808320548484528184208190558352600790915290208190555b5060009182526007602090815260408084208490556001600160a01b039094168352600681528383209183525290812055565b6008546000906145939060019061523b565b600083815260096020526040812054600880549394509092849081106145bb576145bb614f1b565b9060005260206000200154905080600883815481106145dc576145dc614f1b565b60009182526020808320909101929092558281526009909152604080822084905585825281205560088054806146145761461461547c565b6001900381819060005260206000200160009055905550505050565b600061463b83611960565b6001600160a01b039093166000908152600660209081526040808320868452825280832085905593825260079052919091209190915550565b61467e83836146a7565b61468b6000848484614396565b6112315760405162461bcd60e51b815260040161043e90615399565b6001600160a01b0382166146fd5760405162461bcd60e51b815260206004820181905260248201527f4552433732313a206d696e7420746f20746865207a65726f2061646472657373604482015260640161043e565b6000818152600260205260409020546001600160a01b0316156147625760405162461bcd60e51b815260206004820152601c60248201527f4552433732313a20746f6b656e20616c7265616479206d696e74656400000000604482015260640161043e565b61476e60008383613ff8565b6001600160a01b0382166000908152600360205260408120805460019290614797908490614e0b565b909155505060008181526002602052604080822080546001600160a01b0319166001600160a01b03861690811790915590518392907fddf252ad1be2c89b69c2b068fc378daa952ba7f163c4a11628f55a4df523b3ef908290a45050565b82805461480190614e49565b90600052602060002090601f0160209004810192826148235760008555614869565b82601f1061483c57805160ff1916838001178555614869565b82800160010185558215614869579182015b8281111561486957825182559160200191906001019061484e565b5061487592915061492a565b5090565b82805461488590614e49565b90600052602060002090601f0160209004810192826148a75760008555614869565b82601f106148c05782800160ff19823516178555614869565b82800160010185558215614869579182015b828111156148695782358255916020019190600101906148d2565b6040518061040001604052806020906020820280368337509192915050565b60405180608001604052806004906020820280368337509192915050565b5b80821115614875576000815560010161492b565b6001600160e01b03198116811461156657600080fd5b60006020828403121561496757600080fd5b81356127b68161493f565b6000806040838503121561498557600080fd5b50508035926020909101359150565b6000602082840312156149a657600080fd5b5035919050565b60005b838110156149c85781810151838201526020016149b0565b838111156126775750506000910152565b600081518084526149f18160208601602086016149ad565b601f01601f19169290920160200192915050565b6020815260006127b660208301846149d9565b80356001600160a01b0381168114614a2f57600080fd5b919050565b60008060408385031215614a4757600080fd5b614a5083614a18565b946020939093013593505050565b600080600060608486031215614a7357600080fd5b614a7c84614a18565b9250614a8a60208501614a18565b9150604084013590509250925092565b60008060408385031215614aad57600080fd5b82359150614abd60208401614a18565b90509250929050565b600060208284031215614ad857600080fd5b6127b682614a18565b634e487b7160e01b600052604160045260246000fd5b600067ffffffffffffffff80841115614b1257614b12614ae1565b604051601f8501601f19908116603f01168101908282118183101715614b3a57614b3a614ae1565b81604052809350858152868686011115614b5357600080fd5b858560208301376000602087830101525050509392505050565b600060208284031215614b7f57600080fd5b813567ffffffffffffffff811115614b9657600080fd5b8201601f81018413614ba757600080fd5b612bed84823560208401614af7565b60008060408385031215614bc957600080fd5b614bd283614a18565b9150602083013563ffffffff81168114614beb57600080fd5b809150509250929050565b60008060208385031215614c0957600080fd5b823567ffffffffffffffff80821115614c2157600080fd5b818501915085601f830112614c3557600080fd5b813581811115614c4457600080fd5b866020828501011115614c5657600080fd5b60209290920196919550909350505050565b6104008101818360005b6020808210614c815750614c9b565b825163ffffffff1684529283019290910190600101614c72565b50505092915050565b60008060408385031215614cb757600080fd5b614cc083614a18565b915060208301358015158114614beb57600080fd5b60008060008060808587031215614ceb57600080fd5b614cf485614a18565b9350614d0260208601614a18565b925060408501359150606085013567ffffffffffffffff811115614d2557600080fd5b8501601f81018713614d3657600080fd5b614d4587823560208401614af7565b91505092959194509250565b60808101818360005b6004811015614c9b57815160ff16835260209283019290910190600101614d5a565b60008060408385031215614d8f57600080fd5b82359150602083013561ffff81168114614beb57600080fd5b60008060408385031215614dbb57600080fd5b614dc483614a18565b9150614abd60208401614a18565b602080825260099082015268452d3030312d30313760b81b604082015260600190565b634e487b7160e01b600052601160045260246000fd5b60008219821115614e1e57614e1e614df5565b500190565b600061ffff808316818516808303821115614e4057614e40614df5565b01949350505050565b600181811c90821680614e5d57607f821691505b60208210811415614e7e57634e487b7160e01b600052602260045260246000fd5b50919050565b60208082526031908201527f4552433732313a207472616e736665722063616c6c6572206973206e6f74206f6040820152701ddb995c881b9bdc88185c1c1c9bdd9959607a1b606082015260800190565b6020808252600990820152680452d3030312d3031360bc1b604082015260600190565b60208082526009908201526808a5a6060625a6062760bb1b604082015260600190565b634e487b7160e01b600052603260045260246000fd5b6000816000190483118215151615614f4b57614f4b614df5565b500290565b602080825260099082015268452d3030312d30303360b81b604082015260600190565b6000600019821415614f8757614f87614df5565b5060010190565b634e487b7160e01b600052601260045260246000fd5b600061ffff80841680614fb957614fb9614f8e565b92169190910692915050565b600061ffff80831681811415614fdd57614fdd614df5565b6001019392505050565b600061ffff8381169083168181101561500257615002614df5565b039392505050565b600181815b80851115615047578163ffffffff0482111561502d5761502d614df5565b8085161561503a57918102915b93841c939080029061500f565b509250929050565b600181815b80851115615047578161ffff0482111561507057615070614df5565b8085161561507d57918102915b93841c9390800290615054565b60008261509957506001610d17565b816150a657506000610d17565b81600181146150bc57600281146150c6576150f7565b6001915050610d17565b60ff8411156150d7576150d7614df5565b6001841b915063ffffffff8211156150f1576150f1614df5565b50610d17565b5060208310610133831016604e8410600b841016171561512e575081810a63ffffffff81111561512957615129614df5565b610d17565b615138838361500a565b8063ffffffff0482111561514e5761514e614df5565b029392505050565b60008261516557506001610d17565b8161517257506000610d17565b81600181146150bc5760028114615188576151b1565b60ff84111561519957615199614df5565b6001841b915061ffff8211156150f1576150f1614df5565b5060208310610133831016604e8410600b84101617156151e1575081810a61ffff81111561512957615129614df5565b6151eb838361504f565b8061ffff0482111561514e5761514e614df5565b60006127b661ffff841663ffffffff841661508a565b600083516152278184602088016149ad565b835190830190614e408183602088016149ad565b60008282101561524d5761524d614df5565b500390565b7f416363657373436f6e74726f6c3a206163636f756e742000000000000000000081526000835161528a8160178501602088016149ad565b7001034b99036b4b9b9b4b733903937b6329607d1b60179184019182015283516152bb8160288401602088016149ad565b01602801949350505050565b600061ffff612bed818516828516615156565b600063ffffffff808416806152f1576152f1614f8e565b92169190910492915050565b600063ffffffff8083168185168183048111821515161561532057615320614df5565b02949350505050565b60008261533857615338614f8e565b500490565b60008261534c5761534c614f8e565b500690565b600060ff821660ff84168060ff0382111561536e5761536e614df5565b019392505050565b600060ff821660ff84168082101561539057615390614df5565b90039392505050565b60208082526032908201527f4552433732313a207472616e7366657220746f206e6f6e20455243373231526560408201527131b2b4bb32b91034b6b83632b6b2b73a32b960711b606082015260800190565b6000816153fa576153fa614df5565b506000190190565b600060ff821660ff81141561541957615419614df5565b60010192915050565b6001600160a01b0385811682528416602082015260408101839052608060608201819052600090615455908301846149d9565b9695505050505050565b60006020828403121561547157600080fd5b81516127b68161493f565b634e487b7160e01b600052603160045260246000fdfe6a64baf327d646d1bca72653e2a075d15fd6ac6d8cbd7f6ee03fc55875e0fa882fa3586e1228a6d020f44df84a4695dcd1cfcb55a51cd832563c729d866522ffa26469706673582212208251c8aa244729b95e3c32afb81a047509f1792d19ce4d60d59dd7bde0fa38cd64736f6c634300080a00334552433732313a207472616e7366657220746f206e6f6e20455243373231526568747470733a2f2f6170692e636f696e6c616e6465722e6465762f6d6574612f7365656b6572732fa3586e1228a6d020f44df84a4695dcd1cfcb55a51cd832563c729d866522ff68747470733a2f2f6170692e636f696e6c616e6465722e6465762f6d6574612f7365656b6572732f",
  "linkReferences": {},
  "deployedLinkReferences": {}
}