{
  "_format": "hh-sol-artifact-1",
  "contractName": "Seekers",
  "sourceName": "contracts/Seekers.sol",
  "abi": [
    {
      "inputs": [],
      "stateMutability": "nonpayable",
      "type": "constructor"
    },
    {
      "anonymous": false,
      "inputs": [
        {
          "indexed": true,
          "internalType": "address",
          "name": "owner",
          "type": "address"
        },
        {
          "indexed": true,
          "internalType": "address",
          "name": "approved",
          "type": "address"
        },
        {
          "indexed": true,
          "internalType": "uint256",
          "name": "tokenId",
          "type": "uint256"
        }
      ],
      "name": "Approval",
      "type": "event"
    },
    {
      "anonymous": false,
      "inputs": [
        {
          "indexed": true,
          "internalType": "address",
          "name": "owner",
          "type": "address"
        },
        {
          "indexed": true,
          "internalType": "address",
          "name": "operator",
          "type": "address"
        },
        {
          "indexed": false,
          "internalType": "bool",
          "name": "approved",
          "type": "bool"
        }
      ],
      "name": "ApprovalForAll",
      "type": "event"
    },
    {
      "anonymous": false,
      "inputs": [
        {
          "indexed": false,
          "internalType": "uint256",
          "name": "id",
          "type": "uint256"
        }
      ],
      "name": "DethscalesRerolled",
      "type": "event"
    },
    {
      "anonymous": false,
      "inputs": [],
      "name": "FirstMintActivated",
      "type": "event"
    },
    {
      "anonymous": false,
      "inputs": [
        {
          "indexed": true,
          "internalType": "uint256",
          "name": "seekerId",
          "type": "uint256"
        },
        {
          "indexed": false,
          "internalType": "uint256",
          "name": "powerAdded",
          "type": "uint256"
        },
        {
          "indexed": false,
          "internalType": "uint256",
          "name": "newPower",
          "type": "uint256"
        }
      ],
      "name": "PowerAdded",
      "type": "event"
    },
    {
      "anonymous": false,
      "inputs": [
        {
          "indexed": true,
          "internalType": "uint256",
          "name": "seekerId",
          "type": "uint256"
        },
        {
          "indexed": false,
          "internalType": "uint256",
          "name": "powerBurned",
          "type": "uint256"
        },
        {
          "indexed": false,
          "internalType": "uint256",
          "name": "newPower",
          "type": "uint256"
        }
      ],
      "name": "PowerBurned",
      "type": "event"
    },
    {
      "anonymous": false,
      "inputs": [
        {
          "indexed": true,
          "internalType": "bytes32",
          "name": "role",
          "type": "bytes32"
        },
        {
          "indexed": true,
          "internalType": "bytes32",
          "name": "previousAdminRole",
          "type": "bytes32"
        },
        {
          "indexed": true,
          "internalType": "bytes32",
          "name": "newAdminRole",
          "type": "bytes32"
        }
      ],
      "name": "RoleAdminChanged",
      "type": "event"
    },
    {
      "anonymous": false,
      "inputs": [
        {
          "indexed": true,
          "internalType": "bytes32",
          "name": "role",
          "type": "bytes32"
        },
        {
          "indexed": true,
          "internalType": "address",
          "name": "account",
          "type": "address"
        },
        {
          "indexed": true,
          "internalType": "address",
          "name": "sender",
          "type": "address"
        }
      ],
      "name": "RoleGranted",
      "type": "event"
    },
    {
      "anonymous": false,
      "inputs": [
        {
          "indexed": true,
          "internalType": "bytes32",
          "name": "role",
          "type": "bytes32"
        },
        {
          "indexed": true,
          "internalType": "address",
          "name": "account",
          "type": "address"
        },
        {
          "indexed": true,
          "internalType": "address",
          "name": "sender",
          "type": "address"
        }
      ],
      "name": "RoleRevoked",
      "type": "event"
    },
    {
      "anonymous": false,
      "inputs": [],
      "name": "SecondMintActivated",
      "type": "event"
    },
    {
      "anonymous": false,
      "inputs": [
        {
          "indexed": true,
          "internalType": "uint256",
          "name": "seekerId",
          "type": "uint256"
        },
        {
          "indexed": true,
          "internalType": "address",
          "name": "clan",
          "type": "address"
        }
      ],
      "name": "SeekerDeclaredToClan",
      "type": "event"
    },
    {
      "anonymous": false,
      "inputs": [
        {
          "indexed": true,
          "internalType": "uint256",
          "name": "seekerId",
          "type": "uint256"
        }
      ],
      "name": "SeekerUncloaked",
      "type": "event"
    },
    {
      "anonymous": false,
      "inputs": [],
      "name": "ThirdMintActivated",
      "type": "event"
    },
    {
      "anonymous": false,
      "inputs": [
        {
          "indexed": true,
          "internalType": "address",
          "name": "from",
          "type": "address"
        },
        {
          "indexed": true,
          "internalType": "address",
          "name": "to",
          "type": "address"
        },
        {
          "indexed": true,
          "internalType": "uint256",
          "name": "tokenId",
          "type": "uint256"
        }
      ],
      "name": "Transfer",
      "type": "event"
    },
    {
      "anonymous": false,
      "inputs": [],
      "name": "UncloakingAvailable",
      "type": "event"
    },
    {
      "inputs": [],
      "name": "BIRTHSEEKERPOWERSTART",
      "outputs": [
        {
          "internalType": "uint16",
          "name": "",
          "type": "uint16"
        }
      ],
      "stateMutability": "view",
      "type": "function"
    },
    {
      "inputs": [],
      "name": "DEFAULT_ADMIN_ROLE",
      "outputs": [
        {
          "internalType": "bytes32",
          "name": "",
          "type": "bytes32"
        }
      ],
      "stateMutability": "view",
      "type": "function"
    },
    {
      "inputs": [],
      "name": "DETHSCALEREROLLCOST",
      "outputs": [
        {
          "internalType": "uint16",
          "name": "",
          "type": "uint16"
        }
      ],
      "stateMutability": "view",
      "type": "function"
    },
    {
      "inputs": [],
      "name": "FIRSTMINT",
      "outputs": [
        {
          "internalType": "uint256",
          "name": "",
          "type": "uint256"
        }
      ],
      "stateMutability": "view",
      "type": "function"
    },
    {
      "inputs": [],
      "name": "FIRSTMINTPRICE",
      "outputs": [
        {
          "internalType": "uint256",
          "name": "",
          "type": "uint256"
        }
      ],
      "stateMutability": "view",
      "type": "function"
    },
    {
      "inputs": [],
      "name": "GAME_ROLE",
      "outputs": [
        {
          "internalType": "bytes32",
          "name": "",
          "type": "bytes32"
        }
      ],
      "stateMutability": "view",
      "type": "function"
    },
    {
      "inputs": [],
      "name": "KEEPERS_ROLE",
      "outputs": [
        {
          "internalType": "bytes32",
          "name": "",
          "type": "bytes32"
        }
      ],
      "stateMutability": "view",
      "type": "function"
    },
    {
      "inputs": [],
      "name": "MAXMINTABLE",
      "outputs": [
        {
          "internalType": "uint256",
          "name": "",
          "type": "uint256"
        }
      ],
      "stateMutability": "view",
      "type": "function"
    },
    {
      "inputs": [],
      "name": "MAXPOWER",
      "outputs": [
        {
          "internalType": "uint16",
          "name": "",
          "type": "uint16"
        }
      ],
      "stateMutability": "view",
      "type": "function"
    },
    {
      "inputs": [],
      "name": "MAXSEEKERS",
      "outputs": [
        {
          "internalType": "uint256",
          "name": "",
          "type": "uint256"
        }
      ],
      "stateMutability": "view",
      "type": "function"
    },
    {
      "inputs": [],
      "name": "SECONDMINT",
      "outputs": [
        {
          "internalType": "uint256",
          "name": "",
          "type": "uint256"
        }
      ],
      "stateMutability": "view",
      "type": "function"
    },
    {
      "inputs": [],
      "name": "SECONDMINTPRICE",
      "outputs": [
        {
          "internalType": "uint256",
          "name": "",
          "type": "uint256"
        }
      ],
      "stateMutability": "view",
      "type": "function"
    },
    {
      "inputs": [],
      "name": "SUMMONSEEKERPOWERSTART",
      "outputs": [
        {
          "internalType": "uint16",
          "name": "",
          "type": "uint16"
        }
      ],
      "stateMutability": "view",
      "type": "function"
    },
    {
      "inputs": [],
      "name": "THIRDMINT",
      "outputs": [
        {
          "internalType": "uint256",
          "name": "",
          "type": "uint256"
        }
      ],
      "stateMutability": "view",
      "type": "function"
    },
    {
      "inputs": [],
      "name": "THIRDMINTPRICE",
      "outputs": [
        {
          "internalType": "uint256",
          "name": "",
          "type": "uint256"
        }
      ],
      "stateMutability": "view",
      "type": "function"
    },
    {
      "inputs": [],
      "name": "THIRDMINT_INCR",
      "outputs": [
        {
          "internalType": "uint256",
          "name": "",
          "type": "uint256"
        }
      ],
      "stateMutability": "view",
      "type": "function"
    },
    {
      "inputs": [],
      "name": "THIRDMINT_TOTAL",
      "outputs": [
        {
          "internalType": "uint256",
          "name": "",
          "type": "uint256"
        }
      ],
      "stateMutability": "view",
      "type": "function"
    },
    {
      "inputs": [
        {
          "internalType": "uint16",
          "name": "mod",
          "type": "uint16"
        },
        {
          "internalType": "uint16",
          "name": "r1",
          "type": "uint16"
        },
        {
          "internalType": "uint16",
          "name": "r2",
          "type": "uint16"
        }
      ],
      "name": "_getRandomNumber16",
      "outputs": [
        {
          "internalType": "uint16",
          "name": "",
          "type": "uint16"
        }
      ],
      "stateMutability": "pure",
      "type": "function"
    },
    {
      "inputs": [],
      "name": "activateFirstMint",
      "outputs": [],
      "stateMutability": "nonpayable",
      "type": "function"
    },
    {
      "inputs": [],
      "name": "activateSecondMint",
      "outputs": [],
      "stateMutability": "nonpayable",
      "type": "function"
    },
    {
      "inputs": [],
      "name": "activateThirdMint",
      "outputs": [],
      "stateMutability": "nonpayable",
      "type": "function"
    },
    {
      "inputs": [
        {
          "internalType": "address",
          "name": "gameContract",
          "type": "address"
        }
      ],
      "name": "addGameContract",
      "outputs": [],
      "stateMutability": "nonpayable",
      "type": "function"
    },
    {
      "inputs": [
        {
          "internalType": "address",
          "name": "newKeeper",
          "type": "address"
        }
      ],
      "name": "addKeeper",
      "outputs": [],
      "stateMutability": "nonpayable",
      "type": "function"
    },
    {
      "inputs": [
        {
          "internalType": "uint256",
          "name": "id",
          "type": "uint256"
        },
        {
          "internalType": "uint256",
          "name": "powerToAdd",
          "type": "uint256"
        }
      ],
      "name": "addPower",
      "outputs": [],
      "stateMutability": "nonpayable",
      "type": "function"
    },
    {
      "inputs": [
        {
          "internalType": "address",
          "name": "to",
          "type": "address"
        },
        {
          "internalType": "uint256",
          "name": "tokenId",
          "type": "uint256"
        }
      ],
      "name": "approve",
      "outputs": [],
      "stateMutability": "nonpayable",
      "type": "function"
    },
    {
      "inputs": [
        {
          "internalType": "address",
          "name": "owner",
          "type": "address"
        }
      ],
      "name": "balanceOf",
      "outputs": [
        {
          "internalType": "uint256",
          "name": "",
          "type": "uint256"
        }
      ],
      "stateMutability": "view",
      "type": "function"
    },
    {
      "inputs": [
        {
          "internalType": "address",
          "name": "to",
          "type": "address"
        }
      ],
      "name": "birthSeeker",
      "outputs": [
        {
          "internalType": "uint256",
          "name": "",
          "type": "uint256"
        }
      ],
      "stateMutability": "nonpayable",
      "type": "function"
    },
    {
      "inputs": [
        {
          "internalType": "uint256",
          "name": "id",
          "type": "uint256"
        },
        {
          "internalType": "uint16",
          "name": "powerToBurn",
          "type": "uint16"
        }
      ],
      "name": "burnPower",
      "outputs": [],
      "stateMutability": "nonpayable",
      "type": "function"
    },
    {
      "inputs": [],
      "name": "currentBuyableSeekers",
      "outputs": [
        {
          "internalType": "uint256",
          "name": "",
          "type": "uint256"
        }
      ],
      "stateMutability": "view",
      "type": "function"
    },
    {
      "inputs": [],
      "name": "currentPrice",
      "outputs": [
        {
          "internalType": "uint256",
          "name": "",
          "type": "uint256"
        }
      ],
      "stateMutability": "view",
      "type": "function"
    },
    {
      "inputs": [
        {
          "internalType": "uint256",
          "name": "id",
          "type": "uint256"
        },
        {
          "internalType": "address",
          "name": "clanAddress",
          "type": "address"
        }
      ],
      "name": "declareForClan",
      "outputs": [],
      "stateMutability": "nonpayable",
      "type": "function"
    },
    {
      "inputs": [],
      "name": "endGoodsOnly",
      "outputs": [],
      "stateMutability": "nonpayable",
      "type": "function"
    },
    {
      "inputs": [],
      "name": "evilsOnly",
      "outputs": [
        {
          "internalType": "bool",
          "name": "",
          "type": "bool"
        }
      ],
      "stateMutability": "view",
      "type": "function"
    },
    {
      "inputs": [],
      "name": "firstMintActive",
      "outputs": [
        {
          "internalType": "bool",
          "name": "",
          "type": "bool"
        }
      ],
      "stateMutability": "view",
      "type": "function"
    },
    {
      "inputs": [
        {
          "internalType": "uint256",
          "name": "id",
          "type": "uint256"
        }
      ],
      "name": "getAlignmentById",
      "outputs": [
        {
          "internalType": "string",
          "name": "",
          "type": "string"
        }
      ],
      "stateMutability": "view",
      "type": "function"
    },
    {
      "inputs": [
        {
          "internalType": "uint256",
          "name": "id",
          "type": "uint256"
        }
      ],
      "name": "getApById",
      "outputs": [
        {
          "internalType": "uint8[4]",
          "name": "",
          "type": "uint8[4]"
        }
      ],
      "stateMutability": "view",
      "type": "function"
    },
    {
      "inputs": [
        {
          "internalType": "uint256",
          "name": "tokenId",
          "type": "uint256"
        }
      ],
      "name": "getApproved",
      "outputs": [
        {
          "internalType": "address",
          "name": "",
          "type": "address"
        }
      ],
      "stateMutability": "view",
      "type": "function"
    },
    {
      "inputs": [
        {
          "internalType": "uint256",
          "name": "id",
          "type": "uint256"
        }
      ],
      "name": "getBirthStatusById",
      "outputs": [
        {
          "internalType": "bool",
          "name": "",
          "type": "bool"
        }
      ],
      "stateMutability": "view",
      "type": "function"
    },
    {
      "inputs": [
        {
          "internalType": "uint256",
          "name": "id",
          "type": "uint256"
        }
      ],
      "name": "getClanById",
      "outputs": [
        {
          "internalType": "address",
          "name": "",
          "type": "address"
        }
      ],
      "stateMutability": "view",
      "type": "function"
    },
    {
      "inputs": [
        {
          "internalType": "uint256",
          "name": "id",
          "type": "uint256"
        }
      ],
      "name": "getCloakStatusById",
      "outputs": [
        {
          "internalType": "bool",
          "name": "",
          "type": "bool"
        }
      ],
      "stateMutability": "view",
      "type": "function"
    },
    {
      "inputs": [
        {
          "internalType": "uint256",
          "name": "id",
          "type": "uint256"
        }
      ],
      "name": "getDethscalesById",
      "outputs": [
        {
          "internalType": "uint16",
          "name": "",
          "type": "uint16"
        }
      ],
      "stateMutability": "view",
      "type": "function"
    },
    {
      "inputs": [
        {
          "internalType": "uint256",
          "name": "id",
          "type": "uint256"
        }
      ],
      "name": "getFullCloak",
      "outputs": [
        {
          "internalType": "uint32[32]",
          "name": "",
          "type": "uint32[32]"
        }
      ],
      "stateMutability": "view",
      "type": "function"
    },
    {
      "inputs": [
        {
          "internalType": "uint256",
          "name": "id",
          "type": "uint256"
        }
      ],
      "name": "getPowerById",
      "outputs": [
        {
          "internalType": "uint16",
          "name": "",
          "type": "uint16"
        }
      ],
      "stateMutability": "view",
      "type": "function"
    },
    {
      "inputs": [
        {
          "internalType": "bytes32",
          "name": "role",
          "type": "bytes32"
        }
      ],
      "name": "getRoleAdmin",
      "outputs": [
        {
          "internalType": "bytes32",
          "name": "",
          "type": "bytes32"
        }
      ],
      "stateMutability": "view",
      "type": "function"
    },
    {
      "inputs": [],
      "name": "goodsOnly",
      "outputs": [
        {
          "internalType": "bool",
          "name": "",
          "type": "bool"
        }
      ],
      "stateMutability": "view",
      "type": "function"
    },
    {
      "inputs": [
        {
          "internalType": "bytes32",
          "name": "role",
          "type": "bytes32"
        },
        {
          "internalType": "address",
          "name": "account",
          "type": "address"
        }
      ],
      "name": "grantRole",
      "outputs": [],
      "stateMutability": "nonpayable",
      "type": "function"
    },
    {
      "inputs": [
        {
          "internalType": "bytes32",
          "name": "role",
          "type": "bytes32"
        },
        {
          "internalType": "address",
          "name": "account",
          "type": "address"
        }
      ],
      "name": "hasRole",
      "outputs": [
        {
          "internalType": "bool",
          "name": "",
          "type": "bool"
        }
      ],
      "stateMutability": "view",
      "type": "function"
    },
    {
      "inputs": [
        {
          "internalType": "address",
          "name": "owner",
          "type": "address"
        },
        {
          "internalType": "address",
          "name": "operator",
          "type": "address"
        }
      ],
      "name": "isApprovedForAll",
      "outputs": [
        {
          "internalType": "bool",
          "name": "",
          "type": "bool"
        }
      ],
      "stateMutability": "view",
      "type": "function"
    },
    {
      "inputs": [
        {
          "internalType": "uint256",
          "name": "summonCount",
          "type": "uint256"
        }
      ],
      "name": "keepersSummonSeeker",
      "outputs": [],
      "stateMutability": "nonpayable",
      "type": "function"
    },
    {
      "inputs": [],
      "name": "name",
      "outputs": [
        {
          "internalType": "string",
          "name": "",
          "type": "string"
        }
      ],
      "stateMutability": "view",
      "type": "function"
    },
    {
      "inputs": [
        {
          "internalType": "uint256",
          "name": "tokenId",
          "type": "uint256"
        }
      ],
      "name": "ownerOf",
      "outputs": [
        {
          "internalType": "address",
          "name": "",
          "type": "address"
        }
      ],
      "stateMutability": "view",
      "type": "function"
    },
    {
      "inputs": [],
      "name": "ownerWithdraw",
      "outputs": [],
      "stateMutability": "payable",
      "type": "function"
    },
    {
      "inputs": [],
      "name": "performUncloaking",
      "outputs": [],
      "stateMutability": "nonpayable",
      "type": "function"
    },
    {
      "inputs": [],
      "name": "released",
      "outputs": [
        {
          "internalType": "bool",
          "name": "",
          "type": "bool"
        }
      ],
      "stateMutability": "view",
      "type": "function"
    },
    {
      "inputs": [
        {
          "internalType": "bytes32",
          "name": "role",
          "type": "bytes32"
        },
        {
          "internalType": "address",
          "name": "account",
          "type": "address"
        }
      ],
      "name": "renounceRole",
      "outputs": [],
      "stateMutability": "nonpayable",
      "type": "function"
    },
    {
      "inputs": [
        {
          "internalType": "uint256",
          "name": "id",
          "type": "uint256"
        }
      ],
      "name": "rerollDethscales",
      "outputs": [],
      "stateMutability": "nonpayable",
      "type": "function"
    },
    {
      "inputs": [
        {
          "internalType": "bytes32",
          "name": "role",
          "type": "bytes32"
        },
        {
          "internalType": "address",
          "name": "account",
          "type": "address"
        }
      ],
      "name": "revokeRole",
      "outputs": [],
      "stateMutability": "nonpayable",
      "type": "function"
    },
    {
      "inputs": [
        {
          "internalType": "address",
          "name": "from",
          "type": "address"
        },
        {
          "internalType": "address",
          "name": "to",
          "type": "address"
        },
        {
          "internalType": "uint256",
          "name": "tokenId",
          "type": "uint256"
        }
      ],
      "name": "safeTransferFrom",
      "outputs": [],
      "stateMutability": "nonpayable",
      "type": "function"
    },
    {
      "inputs": [
        {
          "internalType": "address",
          "name": "from",
          "type": "address"
        },
        {
          "internalType": "address",
          "name": "to",
          "type": "address"
        },
        {
          "internalType": "uint256",
          "name": "tokenId",
          "type": "uint256"
        },
        {
          "internalType": "bytes",
          "name": "_data",
          "type": "bytes"
        }
      ],
      "name": "safeTransferFrom",
      "outputs": [],
      "stateMutability": "nonpayable",
      "type": "function"
    },
    {
      "inputs": [],
      "name": "secondMintActive",
      "outputs": [
        {
          "internalType": "bool",
          "name": "",
          "type": "bool"
        }
      ],
      "stateMutability": "view",
      "type": "function"
    },
    {
      "inputs": [],
      "name": "seizureMintIncrement",
      "outputs": [],
      "stateMutability": "nonpayable",
      "type": "function"
    },
    {
      "inputs": [
        {
          "internalType": "address",
          "name": "winner",
          "type": "address"
        }
      ],
      "name": "sendWinnerSeeker",
      "outputs": [],
      "stateMutability": "nonpayable",
      "type": "function"
    },
    {
      "inputs": [
        {
          "internalType": "address",
          "name": "operator",
          "type": "address"
        },
        {
          "internalType": "bool",
          "name": "approved",
          "type": "bool"
        }
      ],
      "name": "setApprovalForAll",
      "outputs": [],
      "stateMutability": "nonpayable",
      "type": "function"
    },
    {
      "inputs": [
        {
          "internalType": "string",
          "name": "baseTokenURI",
          "type": "string"
        }
      ],
      "name": "setBaseURI",
      "outputs": [],
      "stateMutability": "nonpayable",
      "type": "function"
    },
    {
      "inputs": [
        {
          "internalType": "uint256",
          "name": "summonCount",
          "type": "uint256"
        }
      ],
      "name": "summonSeeker",
      "outputs": [],
      "stateMutability": "payable",
      "type": "function"
    },
    {
      "inputs": [
        {
          "internalType": "bytes4",
          "name": "interfaceId",
          "type": "bytes4"
        }
      ],
      "name": "supportsInterface",
      "outputs": [
        {
          "internalType": "bool",
          "name": "",
          "type": "bool"
        }
      ],
      "stateMutability": "view",
      "type": "function"
    },
    {
      "inputs": [],
      "name": "symbol",
      "outputs": [
        {
          "internalType": "string",
          "name": "",
          "type": "string"
        }
      ],
      "stateMutability": "view",
      "type": "function"
    },
    {
      "inputs": [],
      "name": "thirdMintActive",
      "outputs": [
        {
          "internalType": "bool",
          "name": "",
          "type": "bool"
        }
      ],
      "stateMutability": "view",
      "type": "function"
    },
    {
      "inputs": [
        {
          "internalType": "uint256",
          "name": "index",
          "type": "uint256"
        }
      ],
      "name": "tokenByIndex",
      "outputs": [
        {
          "internalType": "uint256",
          "name": "",
          "type": "uint256"
        }
      ],
      "stateMutability": "view",
      "type": "function"
    },
    {
      "inputs": [
        {
          "internalType": "address",
          "name": "owner",
          "type": "address"
        },
        {
          "internalType": "uint256",
          "name": "index",
          "type": "uint256"
        }
      ],
      "name": "tokenOfOwnerByIndex",
      "outputs": [
        {
          "internalType": "uint256",
          "name": "",
          "type": "uint256"
        }
      ],
      "stateMutability": "view",
      "type": "function"
    },
    {
      "inputs": [
        {
          "internalType": "uint256",
          "name": "tokenId",
          "type": "uint256"
        }
      ],
      "name": "tokenURI",
      "outputs": [
        {
          "internalType": "string",
          "name": "",
          "type": "string"
        }
      ],
      "stateMutability": "view",
      "type": "function"
    },
    {
      "inputs": [],
      "name": "totalSupply",
      "outputs": [
        {
          "internalType": "uint256",
          "name": "",
          "type": "uint256"
        }
      ],
      "stateMutability": "view",
      "type": "function"
    },
    {
      "inputs": [
        {
          "internalType": "address",
          "name": "from",
          "type": "address"
        },
        {
          "internalType": "address",
          "name": "to",
          "type": "address"
        },
        {
          "internalType": "uint256",
          "name": "tokenId",
          "type": "uint256"
        }
      ],
      "name": "transferFrom",
      "outputs": [],
      "stateMutability": "nonpayable",
      "type": "function"
    },
    {
      "inputs": [
        {
          "internalType": "uint256",
          "name": "id",
          "type": "uint256"
        }
      ],
      "name": "uncloakSeeker",
      "outputs": [],
      "stateMutability": "nonpayable",
      "type": "function"
    },
    {
      "inputs": [],
      "name": "uncloaking",
      "outputs": [
        {
          "internalType": "bool",
          "name": "",
          "type": "bool"
        }
      ],
      "stateMutability": "view",
      "type": "function"
    },
    {
      "stateMutability": "payable",
      "type": "receive"
    }
  ],
  "bytecode": "0x6000600c819055600d819055600e819055600f81905560108190556011556012805466ffffffffffffff1916905560e060405260246080818152906200623a60a0398051620000579160159160209091019062000a5a565b506040805161016081018252600b61012082018181526a13185dd99d5b0811dbdbd960aa1b610140840152825282518084018452600c8082526b13995d5d1c985b0811dbdbd960a21b60208381019190915280850192909252845180860186528181526b10da185bdd1a58c811dbdbd960a21b818401528486015284518086018652600e81526d13185dd99d5b0813995d5d1c985b60921b818401526060850152845180860186528181526b151c9d594813995d5d1c985b60a21b81840152608085015284518086018652600f81526e10da185bdd1a58c813995d5d1c985b608a1b8184015260a0850152845180860186529283526a13185dd99d5b08115d9a5b60aa1b8383015260c0840192909252835180850185528281526b13995d5d1c985b08115d9a5b60a21b8183015260e084015283518085019094529083526b10da185bdd1a58c8115d9a5b60a21b90830152610100810191909152620001c290601690600962000ae9565b50348015620001d057600080fd5b5060408051808201825260078152665365656b65727360c81b6020808301918252835180850190945260048452635345454b60e01b9084015281519192916200021c9160009162000a5a565b5080516200023290600190602084019062000a5a565b50506001600b555062000247600033620002eb565b620002626000805160206200621a83398151915233620002eb565b6200027e6000805160206200621a8339815191526000620002fb565b6001600c600082825462000293919062000bd9565b9091555050600c54620002a890339062000346565b6040610643620002bd610d0561138862000bd9565b620002c9919062000bd9565b620002d5919062000bd9565b620002e290600162000bd9565b600d5562000d25565b620002f7828262000368565b5050565b6000828152600a6020526040808220600101805490849055905190918391839186917fbd79b86ffe0ab8e8776151514217cd7cacd52c909f66475c3af44e129f0b00ff9190a4505050565b620002f78282604051806020016040528060008152506200040c60201b60201c565b6000828152600a602090815260408083206001600160a01b038516845290915290205460ff16620002f7576000828152600a602090815260408083206001600160a01b03851684529091529020805460ff19166001179055620003c83390565b6001600160a01b0316816001600160a01b0316837f2f8788117e7eff1d82e926ec794901d17c78024a50270940304540a733656f0d60405160405180910390a45050565b62000418838362000488565b620004276000848484620005de565b620004835760405162461bcd60e51b81526020600482015260326024820152600080516020620061fa83398151915260448201527131b2b4bb32b91034b6b83632b6b2b73a32b960711b60648201526084015b60405180910390fd5b505050565b6001600160a01b038216620004e05760405162461bcd60e51b815260206004820181905260248201527f4552433732313a206d696e7420746f20746865207a65726f206164647265737360448201526064016200047a565b6000818152600260205260409020546001600160a01b031615620005475760405162461bcd60e51b815260206004820152601c60248201527f4552433732313a20746f6b656e20616c7265616479206d696e7465640000000060448201526064016200047a565b620005556000838362000737565b6001600160a01b03821660009081526003602052604081208054600192906200058090849062000bd9565b909155505060008181526002602052604080822080546001600160a01b0319166001600160a01b03861690811790915590518392907fddf252ad1be2c89b69c2b068fc378daa952ba7f163c4a11628f55a4df523b3ef908290a45050565b6000620005ff846001600160a01b03166200081360201b62002bd91760201c565b156200072b57604051630a85bd0160e11b81526001600160a01b0385169063150b7a02906200063990339089908890889060040162000bf4565b6020604051808303816000875af192505050801562000677575060408051601f3d908101601f19168201909252620006749181019062000c6f565b60015b62000710573d808015620006a8576040519150601f19603f3d011682016040523d82523d6000602084013e620006ad565b606091505b508051620007085760405162461bcd60e51b81526020600482015260326024820152600080516020620061fa83398151915260448201527131b2b4bb32b91034b6b83632b6b2b73a32b960711b60648201526084016200047a565b805181602001fd5b6001600160e01b031916630a85bd0160e11b1490506200072f565b5060015b949350505050565b6200074f8383836200048360201b6200128e1760201c565b6001600160a01b038316620007ad57620007a781600880546000838152600960205260408120829055600182018355919091527ff3f7a9fe364faab93b216da50a3214154f22a0a2b415b23a84c8169e8b636ee30155565b620007d3565b816001600160a01b0316836001600160a01b031614620007d357620007d3838262000819565b6001600160a01b038216620007ed576200048381620008c6565b826001600160a01b0316826001600160a01b031614620004835762000483828262000980565b3b151590565b600060016200083384620009d160201b62001e221760201c565b6200083f919062000ca2565b60008381526007602052604090205490915080821462000893576001600160a01b03841660009081526006602090815260408083208584528252808320548484528184208190558352600790915290208190555b5060009182526007602090815260408084208490556001600160a01b039094168352600681528383209183525290812055565b600854600090620008da9060019062000ca2565b6000838152600960205260408120546008805493945090928490811062000905576200090562000cbc565b90600052602060002001549050806008838154811062000929576200092962000cbc565b600091825260208083209091019290925582815260099091526040808220849055858252812055600880548062000964576200096462000cd2565b6001900381819060005260206000200160009055905550505050565b60006200099883620009d160201b62001e221760201c565b6001600160a01b039093166000908152600660209081526040808320868452825280832085905593825260079052919091209190915550565b60006001600160a01b03821662000a3e5760405162461bcd60e51b815260206004820152602a60248201527f4552433732313a2062616c616e636520717565727920666f7220746865207a65604482015269726f206164647265737360b01b60648201526084016200047a565b506001600160a01b031660009081526003602052604090205490565b82805462000a689062000ce8565b90600052602060002090601f01602090048101928262000a8c576000855562000ad7565b82601f1062000aa757805160ff191683800117855562000ad7565b8280016001018555821562000ad7579182015b8281111562000ad757825182559160200191906001019062000aba565b5062000ae592915062000b49565b5090565b82805482825590600052602060002090810192821562000b3b579160200282015b8281111562000b3b578251805162000b2a91849160209091019062000a5a565b509160200191906001019062000b0a565b5062000ae592915062000b60565b5b8082111562000ae5576000815560010162000b4a565b8082111562000ae557600062000b77828262000b81565b5060010162000b60565b50805462000b8f9062000ce8565b6000825580601f1062000ba0575050565b601f01602090049060005260206000209081019062000bc0919062000b49565b50565b634e487b7160e01b600052601160045260246000fd5b6000821982111562000bef5762000bef62000bc3565b500190565b600060018060a01b038087168352602081871681850152856040850152608060608501528451915081608085015260005b8281101562000c435785810182015185820160a00152810162000c25565b8281111562000c5657600060a084870101525b5050601f01601f19169190910160a00195945050505050565b60006020828403121562000c8257600080fd5b81516001600160e01b03198116811462000c9b57600080fd5b9392505050565b60008282101562000cb75762000cb762000bc3565b500390565b634e487b7160e01b600052603260045260246000fd5b634e487b7160e01b600052603160045260246000fd5b600181811c9082168062000cfd57607f821691505b6020821081141562000d1f57634e487b7160e01b600052602260045260246000fd5b50919050565b6154c58062000d356000396000f3fe6080604052600436106104405760003560e01c806381cd08ee11610234578063c2b278791161012e578063dec3a74c116100b6578063e985e9c51161007a578063e985e9c514610d24578063eb8fafd014610d6d578063eeb3f66d14610d87578063fe01946214610da9578063ff25b2b214610dbe57600080fd5b8063dec3a74c14610c73578063dec8a31514610c88578063e25a8b6114610c9e578063e493c00c14610cce578063e84f579814610ce457600080fd5b8063c87b56dd116100fd578063c87b56dd14610be3578063d547741f14610c03578063d6763bcf14610c23578063dce62c7914610c39578063dd38007514610c5357600080fd5b8063c2b2787914610b55578063c2d9382014610b75578063c5ce83f914610b97578063c5f5e3d114610bb657600080fd5b80639dc4263f116101bc578063a22cb46511610180578063a22cb46514610ac9578063ab40070614610ae9578063b085a3f714610b0b578063b473e21614610b20578063b88d4fde14610b3557600080fd5b80639dc4263f14610a205780639e94505814610a5b578063a1073deb14610a88578063a1a6125f14610a9e578063a217fddf14610ab457600080fd5b806395d89b411161020357806395d89b411461099f57806396132521146109b45780639767d423146109d55780639c6bf854146109f55780639d1b464a14610a0a57600080fd5b806381cd08ee146109295780638ae626a21461094957806391d148541461095f57806394a3b4d91461097f57600080fd5b806336842eae116103455780636352211e116102cd57806373afc2571161029157806373afc257146108b15780637a9597a6146108c45780637aaf13a0146108d95780637c6aa02a146108f9578063807d88fa1461090f57600080fd5b80636352211e14610827578063682341fa146108475780636c97c46f1461085c5780636e39a3451461087c57806370a082311461089157600080fd5b80634f483b8e116103145780634f483b8e146107985780634f6ccce7146107ad5780635123b39a146107cd57806351e224ca146107e757806355f804b31461080757600080fd5b806336842eae146107305780634032b72b1461075057806342842e0e146107705780634311de8f1461079057600080fd5b806318160ddd116103c8578063248a9ca311610397578063248a9ca3146106525780632f2ff15d146106825780632f745c59146106a25780632fc2add1146106c257806336568abe1461071057600080fd5b806318160ddd146105cb5780631ca8ca5f146105ea57806322e36c86146105ff57806323b872dd1461063257600080fd5b806306fdde031161040f57806306fdde0314610528578063081812fc1461053d57806308c3ad3514610575578063095ea7b31461059657806310b12709146105b657600080fd5b806301ffc9a71461048357806302368a2c146104b85780630278c1ba146104da57806303989c711461050757600080fd5b3661047e5760405162461bcd60e51b81526020600482015260096024820152680452d3030312d3032360bc1b60448201526064015b60405180910390fd5b600080fd5b34801561048f57600080fd5b506104a361049e3660046149c1565b610dde565b60405190151581526020015b60405180910390f35b3480156104c457600080fd5b506104d86104d33660046149de565b610def565b005b3480156104e657600080fd5b506104fa6104f5366004614a00565b610fb2565b6040516104af9190614a71565b34801561051357600080fd5b506012546104a3906301000000900460ff1681565b34801561053457600080fd5b506104fa611056565b34801561054957600080fd5b5061055d610558366004614a00565b6110e8565b6040516001600160a01b0390911681526020016104af565b34801561058157600080fd5b506012546104a390600160301b900460ff1681565b3480156105a257600080fd5b506104d86105b1366004614a9b565b61117d565b3480156105c257600080fd5b506104d8611293565b3480156105d757600080fd5b506008545b6040519081526020016104af565b3480156105f657600080fd5b506105dc600a81565b34801561060b57600080fd5b506104a361061a366004614a00565b60009081526014602052604090206001015460ff1690565b34801561063e57600080fd5b506104d861064d366004614ac5565b61136b565b34801561065e57600080fd5b506105dc61066d366004614a00565b6000908152600a602052604090206001015490565b34801561068e57600080fd5b506104d861069d366004614b01565b61139c565b3480156106ae57600080fd5b506105dc6106bd366004614a9b565b6113c2565b3480156106ce57600080fd5b506106fd6106dd366004614a00565b600090815260146020526040902060010154600160281b900461ffff1690565b60405161ffff90911681526020016104af565b34801561071c57600080fd5b506104d861072b366004614b01565b611458565b34801561073c57600080fd5b506104d861074b366004614b01565b6114d6565b34801561075c57600080fd5b506104d861076b366004614b2d565b611577565b34801561077c57600080fd5b506104d861078b366004614ac5565b6115c6565b6104d86115e1565b3480156107a457600080fd5b506104d86116e1565b3480156107b957600080fd5b506105dc6107c8366004614a00565b611756565b3480156107d957600080fd5b506105dc6512309ce5400081565b3480156107f357600080fd5b506104d8610802366004614a00565b6117e9565b34801561081357600080fd5b506104d8610822366004614bd4565b611936565b34801561083357600080fd5b5061055d610842366004614a00565b61197d565b34801561085357600080fd5b506106fd600181565b34801561086857600080fd5b506104d8610877366004614a00565b6119f4565b34801561088857600080fd5b506104d8611d3c565b34801561089d57600080fd5b506105dc6108ac366004614b2d565b611e22565b6104d86108bf366004614a00565b611ea9565b3480156108d057600080fd5b506106fd600581565b3480156108e557600080fd5b506104d86108f4366004614a00565b61200f565b34801561090557600080fd5b506105dc600e5481565b34801561091b57600080fd5b506105dc655af3107a400081565b34801561093557600080fd5b506104d8610944366004614b2d565b612171565b34801561095557600080fd5b506105dc612b6781565b34801561096b57600080fd5b506104a361097a366004614b01565b6121bd565b34801561098b57600080fd5b506105dc61099a366004614b2d565b6121e8565b3480156109ab57600080fd5b506104fa612273565b3480156109c057600080fd5b506012546104a390600160281b900460ff1681565b3480156109e157600080fd5b506012546104a39062010000900460ff1681565b348015610a0157600080fd5b506106fd600381565b348015610a1657600080fd5b506105dc600f5481565b348015610a2c57600080fd5b506106fd610a3b366004614a00565b600090815260146020526040902060010154600160381b900461ffff1690565b348015610a6757600080fd5b50610a7b610a76366004614a00565b612282565b6040516104af9190614c1d565b348015610a9457600080fd5b506105dc61010b81565b348015610aaa57600080fd5b506106fd61040081565b348015610ac057600080fd5b506105dc600081565b348015610ad557600080fd5b506104d8610ae4366004614c59565b61262c565b348015610af557600080fd5b506105dc60008051602061545083398151915281565b348015610b1757600080fd5b506104d86126f1565b348015610b2c57600080fd5b506105dc600481565b348015610b4157600080fd5b506104d8610b50366004614c95565b61273f565b348015610b6157600080fd5b506106fd610b70366004614d23565b612777565b348015610b8157600080fd5b506105dc60008051602061547083398151915281565b348015610ba357600080fd5b506012546104a390610100900460ff1681565b348015610bc257600080fd5b50610bd6610bd1366004614a00565b6127d0565b6040516104af9190614d66565b348015610bef57600080fd5b506104fa610bfe366004614a00565b612835565b348015610c0f57600080fd5b506104d8610c1e366004614b01565b612910565b348015610c2f57600080fd5b506105dc61138881565b348015610c4557600080fd5b506012546104a39060ff1681565b348015610c5f57600080fd5b506104d8610c6e366004614d91565b612936565b348015610c7f57600080fd5b506104d86129f2565b348015610c9457600080fd5b506105dc610d0581565b348015610caa57600080fd5b506104a3610cb9366004614a00565b60009081526013602052604090205460ff1690565b348015610cda57600080fd5b506105dc61064381565b348015610cf057600080fd5b5061055d610cff366004614a00565b600090815260146020526040902060010154600160481b90046001600160a01b031690565b348015610d3057600080fd5b506104a3610d3f366004614db4565b6001600160a01b03918216600090815260056020908152604080832093909416825291909152205460ff1690565b348015610d7957600080fd5b506105dc652d79883d200081565b348015610d9357600080fd5b506012546104a390640100000000900460ff1681565b348015610db557600080fd5b506104d8612acb565b348015610dca57600080fd5b506104d8610dd9366004614b2d565b612b0f565b6000610de982612bdf565b92915050565b610e07600080516020615450833981519152336121bd565b610e235760405162461bcd60e51b815260040161047590614dde565b6000610e2e8361197d565b6001600160a01b03161415610e715760405162461bcd60e51b8152602060048201526009602482015268114b4c0c0c4b4c0c4d60ba1b6044820152606401610475565b60008111610ead5760405162461bcd60e51b8152602060048201526009602482015268452d3030312d30313560b81b6044820152606401610475565b600082815260146020526040902060010154600160281b900461ffff16610400610ed78383614e17565b1115610f08576000838152601460205260409020600101805461ffff60281b19166604000000000000179055610f52565b60008381526014602052604090206001018054839190600590610f37908490600160281b900461ffff16614e2f565b92506101000a81548161ffff021916908361ffff1602179055505b600083815260146020908152604091829020600101548251858152600160281b90910461ffff169181019190915284917f2d06a0b6d9e448255510db8be5700d234d963e07554aa376f2a103125f19ae62910160405180910390a2505050565b600081815260146020526040812080546060929190610fd090614e55565b80601f0160208091040260200160405190810160405280929190818152602001828054610ffc90614e55565b80156110495780601f1061101e57610100808354040283529160200191611049565b820191906000526020600020905b81548152906001019060200180831161102c57829003601f168201915b5093979650505050505050565b60606000805461106590614e55565b80601f016020809104026020016040519081016040528092919081815260200182805461109190614e55565b80156110de5780601f106110b3576101008083540402835291602001916110de565b820191906000526020600020905b8154815290600101906020018083116110c157829003601f168201915b5050505050905090565b6000818152600260205260408120546001600160a01b03166111615760405162461bcd60e51b815260206004820152602c60248201527f4552433732313a20617070726f76656420717565727920666f72206e6f6e657860448201526b34b9ba32b73a103a37b5b2b760a11b6064820152608401610475565b506000908152600460205260409020546001600160a01b031690565b60006111888261197d565b9050806001600160a01b0316836001600160a01b031614156111f65760405162461bcd60e51b815260206004820152602160248201527f4552433732313a20617070726f76616c20746f2063757272656e74206f776e656044820152603960f91b6064820152608401610475565b336001600160a01b038216148061121257506112128133610d3f565b6112845760405162461bcd60e51b815260206004820152603860248201527f4552433732313a20617070726f76652063616c6c6572206973206e6f74206f7760448201527f6e6572206e6f7220617070726f76656420666f7220616c6c00000000000000006064820152608401610475565b61128e8383612c04565b505050565b6112ab600080516020615450833981519152336121bd565b6112c75760405162461bcd60e51b815260040161047590614dde565b60125460ff16156113065760405162461bcd60e51b8152602060048201526009602482015268452d3030312d30303560b81b6044820152606401610475565b6012805460ff191660011790556040517f0d3dae01e1b4644a9619797b649d24e856e8d3dd662f97e01427e70bf2ae91a690600090a16113496040611388614e17565b600e600082825461135a9190614e17565b90915550506512309ce54000600f55565b6113753382612c72565b6113915760405162461bcd60e51b815260040161047590614e90565b61128e838383612d69565b6000828152600a60205260409020600101546113b88133612f14565b61128e8383612f78565b60006113cd83611e22565b821061142f5760405162461bcd60e51b815260206004820152602b60248201527f455243373231456e756d657261626c653a206f776e657220696e646578206f7560448201526a74206f6620626f756e647360a81b6064820152608401610475565b506001600160a01b03919091166000908152600660209081526040808320938352929052205490565b6001600160a01b03811633146114c85760405162461bcd60e51b815260206004820152602f60248201527f416363657373436f6e74726f6c3a2063616e206f6e6c792072656e6f756e636560448201526e103937b632b9903337b91039b2b63360891b6064820152608401610475565b6114d28282612ffe565b5050565b6114df8261197d565b6001600160a01b0316336001600160a01b03161461150f5760405162461bcd60e51b815260040161047590614ee1565b6000828152601460205260408082206001018054600160481b600160e81b031916600160481b6001600160a01b038616908102919091179091559051909184917fafa5959eb8823d589ec08c28f3effdde6546d1102288f3ba855119af25e3bbba9190a35050565b61158f600080516020615470833981519152336121bd565b6115ab5760405162461bcd60e51b815260040161047590614f04565b6115c36000805160206154708339815191528261139c565b50565b61128e8383836040518060200160405280600081525061273f565b6115f9600080516020615470833981519152336121bd565b6116155760405162461bcd60e51b815260040161047590614f04565b6000601054116116535760405162461bcd60e51b8152602060048201526009602482015268452d3030312d30313960b81b6044820152606401610475565b60108054600091829055604051909190339083908381818185875af1925050503d806000811461169f576040519150601f19603f3d011682016040523d82523d6000602084013e6116a4565b606091505b50509050806114d25760405162461bcd60e51b81526020600482015260096024820152680452d3030312d3032360bc1b6044820152606401610475565b6116f9600080516020615450833981519152336121bd565b6117155760405162461bcd60e51b815260040161047590614dde565b6012805466ff0000000000001916600160301b1790556040517f5482c0653ae6084c9c4091da0728c40dc90c385f432b3cf5f6a5a5df5a22919690600090a1565b600061176160085490565b82106117c45760405162461bcd60e51b815260206004820152602c60248201527f455243373231456e756d657261626c653a20676c6f62616c20696e646578206f60448201526b7574206f6620626f756e647360a01b6064820152608401610475565b600882815481106117d7576117d7614f27565b90600052602060002001549050919050565b601254600160301b900460ff1661182e5760405162461bcd60e51b8152602060048201526009602482015268452d3030312d30303960b81b6044820152606401610475565b6118378161197d565b6001600160a01b0316336001600160a01b0316146118675760405162461bcd60e51b815260040161047590614ee1565b60008181526013602052604090205460ff16156118b25760405162461bcd60e51b815260206004820152600960248201526822969818189698189960b91b6044820152606401610475565b6118bd816001613065565b6118c8816001613169565b60008281526014602052604090819020600101805461ffff93909316600160381b0261ffff60381b1990931692909217909155517fdcc2145292317879f6319461deaed4ada2422f436a0b0e15f2af0e60c637d1219061192b9083815260200190565b60405180910390a150565b61194e600080516020615470833981519152336121bd565b61196a5760405162461bcd60e51b815260040161047590614f04565b80516114d29060159060208401906148d5565b6000818152600260205260408120546001600160a01b031680610de95760405162461bcd60e51b815260206004820152602960248201527f4552433732313a206f776e657220717565727920666f72206e6f6e657869737460448201526832b73a103a37b5b2b760b91b6064820152608401610475565b601254600160301b900460ff16611a395760405162461bcd60e51b8152602060048201526009602482015268452d3030312d30303960b81b6044820152606401610475565b611a428161197d565b6001600160a01b0316336001600160a01b031614611a725760405162461bcd60e51b815260040161047590614ee1565b60008181526013602052604090205460ff16611abc5760405162461bcd60e51b8152602060048201526009602482015268452d3030312d30313160b81b6044820152606401610475565b6000611ac66132de565b90506000611ad383613841565b6000848152601360209081526040808320805460ff19169055805161012081018252868152878452601483528184206001015460ff16151592810192909252929350909181018383602002015160ff16815260200183600160048110611b3b57611b3b614f27565b602002015160ff16815260200183600260048110611b5b57611b5b614f27565b602002015160ff16815260200183600360048110611b7b57611b7b614f27565b6020908102919091015160ff1682526000878152601480835260408083206001810154600160281b810461ffff1687870152918601849052600160481b9091046001600160a01b0316606090950194909452908890528152825180519394508493611be992849201906148d5565b5060208201516001909101805460408401516060850151608086015160a087015160c088015160e0890151610100998a01516001600160a01b0316600160481b02600160481b600160e81b031961ffff928316600160381b0216600160381b600160e81b031992909316600160281b0261ffff60281b1960ff958616640100000000021666ffffff000000001996861663010000000263ff0000001998871662010000029890981663ffff00001999909616909c0261ff00199b15159b909b1661ffff19909916989098179990991795909516919091179290921716959095179190911716929092171790556000611ce18582613169565b600086815260146020526040808220600101805461ffff60381b1916600160381b61ffff8616021790555191925086917fb91faaa78142ff7cf17e2901f700062d893e98dae6eb9d835fd56f012c0696069190a25050505050565b611d54600080516020615450833981519152336121bd565b611d705760405162461bcd60e51b815260040161047590614dde565b60125462010000900460ff1615611db55760405162461bcd60e51b8152602060048201526009602482015268452d3030312d30303760b81b6044820152606401610475565b6012805464ffffff000019166401000100001790556040517f1bbe80213228404e276963f9e286d445ba1e5609daacc5098b97ad3783da4d9790600090a1611e0061010b6004614e17565b600e6000828254611e119190614e17565b9091555050655af3107a4000600f55565b60006001600160a01b038216611e8d5760405162461bcd60e51b815260206004820152602a60248201527f4552433732313a2062616c616e636520717565727920666f7220746865207a65604482015269726f206164647265737360b01b6064820152608401610475565b506001600160a01b031660009081526003602052604090205490565b6002600b541415611efc5760405162461bcd60e51b815260206004820152601f60248201527f5265656e7472616e637947756172643a207265656e7472616e742063616c6c006044820152606401610475565b6002600b558015801590611f115750600a8111155b611f495760405162461bcd60e51b8152602060048201526009602482015268452d3030312d30303160b81b6044820152606401610475565b80600f54611f579190614f3d565b341015611f925760405162461bcd60e51b815260206004820152600960248201526822969818189698181960b91b6044820152606401610475565b600e5481600c54611fa39190614e17565b1115611fc15760405162461bcd60e51b815260040161047590614f5c565b60005b81811015612006576001600c6000828254611fdf9190614e17565b92505081905550611ff433600c546000613a82565b80611ffe81614f7f565b915050611fc4565b50506001600b55565b6002600b5414156120625760405162461bcd60e51b815260206004820152601f60248201527f5265656e7472616e637947756172643a207265656e7472616e742063616c6c006044820152606401610475565b6002600b5561207f600080516020615470833981519152336121bd565b61209b5760405162461bcd60e51b815260040161047590614f04565b6040816011546120ab9190614e17565b11156120e55760405162461bcd60e51b8152602060048201526009602482015268114b4c0c0c4b4c0c0d60ba1b6044820152606401610475565b600e5481600c546120f69190614e17565b11156121145760405162461bcd60e51b815260040161047590614f5c565b80601160008282546121269190614e17565b90915550600090505b81811015612006576001600c600082825461214a9190614e17565b9250508190555061215f33600c546000613a82565b8061216981614f7f565b91505061212f565b612189600080516020615470833981519152336121bd565b6121a55760405162461bcd60e51b815260040161047590614f04565b6115c36000805160206154508339815191528261139c565b6000918252600a602090815260408084206001600160a01b0393909316845291905290205460ff1690565b6000612202600080516020615450833981519152336121bd565b61221e5760405162461bcd60e51b815260040161047590614dde565b612b67600d54106122415760405162461bcd60e51b815260040161047590614f5c565b6001600d60008282546122549190614e17565b9250508190555061226982600d546001613a82565b50600d545b919050565b60606001805461106590614e55565b61228a614959565b60008281526013602052604090205460ff16156122d55760405162461bcd60e51b815260206004820152600960248201526822969818189698189960b91b6044820152606401610475565b600082815260146020526040812060010154600160381b900461ffff16906122fc84613c1e565b915050600080826000141561231357506000905060105b82600114156123285750601090506020612330565b506020905060605b612338614959565b61ffff8516612345614978565b601082901b65fffff000000016600c83811b650fffff00000016600885811b64fffff0000016600487811b640fffff00001663fffff00089169189901c630fffff00169589901c620fffff169389901c62fffff0169390931794909417939093171791909117171781600063ffffffff9290921660209092020152601482901b63f000000016601083901b630f00000016600c84901b62f0000016600885811b620f000016600487811b61f00016610f0089169389901c600f169189901c60f0169190911792909217919091171717171781600163ffffffff9290921660209092020152601882901b63f000000016601483901b630f00000016601084901b62f0000016600c85901b620f000016600886901b61f00016600487811b610f00169088901c600f1660f089161717171717171781600263ffffffff909216602092909202015260f0600483901b16600f831617610f00600884901b161761f000600c84901b1617620f0000601084901b161762f00000601484901b1617630f000000601884901b161763f0000000601c84901b161781600363ffffffff909216602092909202015260005b60208161ffff1610156125595781612508600483614fb0565b61ffff166004811061251c5761251c614f27565b6020020151848261ffff166020811061253757612537614f27565b63ffffffff90921660209290920201528061255181614fd1565b9150506124ef565b5060008561257c61256a8288614ff3565b612575906001614e2f565b8a88612777565b6125869190614e2f565b905060005b8161ffff168161ffff16101561261d5760006125a960208b84612777565b905060006125b960208385612777565b9050868161ffff16602081106125d1576125d1614f27565b60200201516125e183600261520b565b18878261ffff16602081106125f8576125f8614f27565b63ffffffff90921660209290920201525081905061261581614fd1565b91505061258b565b50929998505050505050505050565b6001600160a01b0382163314156126855760405162461bcd60e51b815260206004820152601960248201527f4552433732313a20617070726f766520746f2063616c6c6572000000000000006044820152606401610475565b3360008181526005602090815260408083206001600160a01b03871680855290835292819020805460ff191686151590811790915590519081529192917f17307eab39ab6107e8899845ad3d59bd9653f200f220920489ca2b5937696c31910160405180910390a35050565b612709600080516020615450833981519152336121bd565b6127255760405162461bcd60e51b815260040161047590614dde565b6004600e60008282546127389190614e17565b9091555050565b6127493383612c72565b6127655760405162461bcd60e51b815260040161047590614e90565b61277184848484613dca565b50505050565b6040516001600160f01b031960f084811b8216602084015283901b16602282015260009081906024016040516020818303038152906040528051906020012060f01c905084816127c79190614fb0565b95945050505050565b6127d8614978565b50604080516080810182526000838152601460208181528483206001015460ff6101008204811686526201000082048116838701526401000000008204811696860196909652959092529052630100000090920416606082015290565b6000818152600260205260409020546060906001600160a01b03166128b45760405162461bcd60e51b815260206004820152602f60248201527f4552433732314d657461646174613a2055524920717565727920666f72206e6f60448201526e3732bc34b9ba32b73a103a37b5b2b760891b6064820152608401610475565b60006128be613dfd565b905060008151116128de5760405180602001604052806000815250612909565b806128e884613e0c565b6040516020016128f9929190615221565b6040516020818303038152906040525b9392505050565b6000828152600a602052604090206001015461292c8133612f14565b61128e8383612ffe565b61294e600080516020615450833981519152336121bd565b61296a5760405162461bcd60e51b815260040161047590614dde565b60006129758361197d565b6001600160a01b031614156129b85760405162461bcd60e51b8152602060048201526009602482015268114b4c0c0c4b4c0c4d60ba1b6044820152606401610475565b326129c28361197d565b6001600160a01b0316146129e85760405162461bcd60e51b815260040161047590614ee1565b6114d28282613065565b612a0a600080516020615450833981519152336121bd565b612a265760405162461bcd60e51b815260040161047590614dde565b601254610100900460ff1615612a6a5760405162461bcd60e51b815260206004820152600960248201526822969818189698181b60b91b6044820152606401610475565b6012805463ff00ff00191663010001001790556040517fce28fb74a9fed93421bef1c67a577ec8bdd8f93d99962f27a4b52207e9e80dd390600090a1610d05600e6000828254612aba9190614e17565b9091555050652d79883d2000600f55565b612ae3600080516020615450833981519152336121bd565b612aff5760405162461bcd60e51b815260040161047590614dde565b6012805464ff0000000019169055565b612b27600080516020615450833981519152336121bd565b612b435760405162461bcd60e51b815260040161047590614dde565b601254600160281b900460ff1615612b895760405162461bcd60e51b815260206004820152600960248201526808a5a6060625a6060760bb1b6044820152606401610475565b6012805465ff00000000001916600160281b179055612ba86001613f0a565b6115c3612bb5600161197d565b8260016040518060400160405280600381526020016203078360ec1b815250613dca565b3b151590565b60006001600160e01b03198216637965db0b60e01b1480610de95750610de9826140b3565b600081815260046020526040902080546001600160a01b0319166001600160a01b0384169081179091558190612c398261197d565b6001600160a01b03167f8c5be1e5ebec7d5bd14f71427d1e84f3dd0314c0f7b2291e5b200ac8c7c3b92560405160405180910390a45050565b6000818152600260205260408120546001600160a01b0316612ceb5760405162461bcd60e51b815260206004820152602c60248201527f4552433732313a206f70657261746f7220717565727920666f72206e6f6e657860448201526b34b9ba32b73a103a37b5b2b760a11b6064820152608401610475565b6000612cf68361197d565b9050806001600160a01b0316846001600160a01b03161480612d315750836001600160a01b0316612d26846110e8565b6001600160a01b0316145b80612d6157506001600160a01b0380821660009081526005602090815260408083209388168352929052205460ff165b949350505050565b826001600160a01b0316612d7c8261197d565b6001600160a01b031614612de45760405162461bcd60e51b815260206004820152602960248201527f4552433732313a207472616e73666572206f6620746f6b656e2074686174206960448201526839903737ba1037bbb760b91b6064820152608401610475565b6001600160a01b038216612e465760405162461bcd60e51b8152602060048201526024808201527f4552433732313a207472616e7366657220746f20746865207a65726f206164646044820152637265737360e01b6064820152608401610475565b612e518383836140d8565b612e5c600082612c04565b6001600160a01b0383166000908152600360205260408120805460019290612e85908490615247565b90915550506001600160a01b0382166000908152600360205260408120805460019290612eb3908490614e17565b909155505060008181526002602052604080822080546001600160a01b0319166001600160a01b0386811691821790925591518493918716917fddf252ad1be2c89b69c2b068fc378daa952ba7f163c4a11628f55a4df523b3ef91a4505050565b612f1e82826121bd565b6114d257612f36816001600160a01b03166014614190565b612f41836020614190565b604051602001612f5292919061525e565b60408051601f198184030181529082905262461bcd60e51b825261047591600401614a71565b612f8282826121bd565b6114d2576000828152600a602090815260408083206001600160a01b03851684529091529020805460ff19166001179055612fba3390565b6001600160a01b0316816001600160a01b0316837f2f8788117e7eff1d82e926ec794901d17c78024a50270940304540a733656f0d60405160405180910390a45050565b61300882826121bd565b156114d2576000828152600a602090815260408083206001600160a01b0385168085529252808320805460ff1916905551339285917ff6391f5c32d9c69d2a47ea670b442974b53935d1edc7fd64eb21e047a839171b9190a45050565b60008281526014602052604090206001015461ffff600160281b909104811690821611156130c15760405162461bcd60e51b8152602060048201526009602482015268452d3030312d30323160b81b6044820152606401610475565b600082815260146020526040902060010180548291906005906130f0908490600160281b900461ffff16614ff3565b82546101009290920a61ffff8181021990931691831602179091556000848152601460209081526040918290206001015482518685168152600160281b909104909316908301528492507fa7ed3965d6fe6e37914f97b6e0e30e56ea184d78907b49c112c18867c8f31757910160405180910390a25050565b60008061317584613c1e565b5090506000808260011415613190575060079050600c613198565b506004905060085b600080806131a68585614ff3565b6131b1906001614e2f565b90506000886131cc576131c7620100008b61432c565b6131ea565b60008a815260146020526040902060010154600160381b900461ffff165b90506000866131fa848d85612777565b6132049190614e2f565b905060005b8161ffff168161ffff1610156132485761322560108285612777565b9450856132338660026152d3565b1795508061324081614fd1565b915050613209565b50600061325a60648461ffff1661432c565b9050886002141561329f5760058161ffff1610801561327757508a155b1561328e5785199950505050505050505050610de9565b859950505050505050505050610de9565b8861328e5760058161ffff161080156132b657508a155b156132cc57859950505050505050505050610de9565b85199950505050505050505050610de9565b601254606090640100000000900460ff16156135835760408051600380825260808201909252600091816020015b606081526020019060019003908161330c579050509050601660008154811061333757613337614f27565b90600052602060002001805461334c90614e55565b80601f016020809104026020016040519081016040528092919081815260200182805461337890614e55565b80156133c55780601f1061339a576101008083540402835291602001916133c5565b820191906000526020600020905b8154815290600101906020018083116133a857829003601f168201915b5050505050816000815181106133dd576133dd614f27565b602002602001018190525060166001815481106133fc576133fc614f27565b90600052602060002001805461341190614e55565b80601f016020809104026020016040519081016040528092919081815260200182805461343d90614e55565b801561348a5780601f1061345f5761010080835404028352916020019161348a565b820191906000526020600020905b81548152906001019060200180831161346d57829003601f168201915b5050505050816001815181106134a2576134a2614f27565b602002602001018190525060166002815481106134c1576134c1614f27565b9060005260206000200180546134d690614e55565b80601f016020809104026020016040519081016040528092919081815260200182805461350290614e55565b801561354f5780601f106135245761010080835404028352916020019161354f565b820191906000526020600020905b81548152906001019060200180831161353257829003601f168201915b50505050508160028151811061356757613567614f27565b602002602001018190525061357d6003826143a7565b91505090565b6012546301000000900460ff16156137625760408051600380825260808201909252600091816020015b60608152602001906001900390816135ad57905050905060166006815481106135d8576135d8614f27565b9060005260206000200180546135ed90614e55565b80601f016020809104026020016040519081016040528092919081815260200182805461361990614e55565b80156136665780601f1061363b57610100808354040283529160200191613666565b820191906000526020600020905b81548152906001019060200180831161364957829003601f168201915b50505050508160008151811061367e5761367e614f27565b6020026020010181905250601660078154811061369d5761369d614f27565b9060005260206000200180546136b290614e55565b80601f01602080910402602001604051908101604052809291908181526020018280546136de90614e55565b801561372b5780601f106137005761010080835404028352916020019161372b565b820191906000526020600020905b81548152906001019060200180831161370e57829003601f168201915b50505050508160018151811061374357613743614f27565b602002602001018190525060166008815481106134c1576134c1614f27565b601680546040805160208084028201810190925282815261383c939091839060009084015b828210156138335783829060005260206000200180546137a690614e55565b80601f01602080910402602001604051908101604052809291908181526020018280546137d290614e55565b801561381f5780601f106137f45761010080835404028352916020019161381f565b820191906000526020600020905b81548152906001019060200180831161380257829003601f168201915b505050505081526020019060010190613787565b505050506143a7565b905090565b613849614978565b600082815260146020526040902060010154600a9060179060329060ff161561387557600f9250601991505b60006138818484615247565b61388c906001614e17565b9050600061389b82600061432c565b6138a59086614e17565b905060006138b483600161432c565b6138be9087614e17565b905060006138cd84600261432c565b6138d79088614e17565b905060006138e685600361432c565b6138f09089614e17565b90506000818361390086886152e6565b61390a91906152e6565b61391491906152e6565b6040805160808101825260ff80891682528781166020830152868116928201929092528482166060820152919250888116908316101561399957600061395a838a61530b565b90506000613967836143ed565b905081838260ff166004811061397f5761397f614f27565b6020020181815161399091906152e6565b60ff1690525050505b60005b6004811015613a725760006139b2826004615247565b60408051426020820152016040516020818303038152906040528051906020012060001c6139e0919061532e565b6139ea9083614e17565b90506000838260048110613a0057613a00614f27565b60200201519050838360048110613a1957613a19614f27565b6020020151848360048110613a3057613a30614f27565b60ff909216602092909202015280848460048110613a5057613a50614f27565b60ff909216602092909202015250819050613a6a81614f7f565b91505061399c565b509b9a5050505050505050505050565b60038115613a8e575060055b6040805161014081018252600061012082018181528252841515602080840191909152828401829052606083018290526080830182905260a0830182905261ffff851660c084015260e083018290526101008301829052868252601481529290208151805192938493613b0492849201906148d5565b50602082810151600192830180546040808701516060880151608089015160a08a015160c08b015160e08c01516101009c8d015161ffff1990981699151561ff0019169990991760ff958616909c029b909b1763ffff00001916620100009385169390930263ff0000001916929092176301000000918416919091021766ffffff000000001916640100000000929091169190910261ffff60281b191617600160281b61ffff9889160217600160381b600160e81b031916600160381b9790941696909602600160481b600160e81b03191692909217600160481b6001600160a01b03909316929092029190911790556000878152601390915291909120805460ff19169091179055613c17858561445c565b5050505050565b6000818152601460205260408120805482918291613c3b90614e55565b80601f0160208091040260200160405190810160405280929190818152602001828054613c6790614e55565b8015613cb45780601f10613c8957610100808354040283529160200191613cb4565b820191906000526020600020905b815481529060010190602001808311613c9757829003601f168201915b50505050509050606060005b601654811015613dbc5760168181548110613cdd57613cdd614f27565b906000526020600020018054613cf290614e55565b80601f0160208091040260200160405190810160405280929190818152602001828054613d1e90614e55565b8015613d6b5780601f10613d4057610100808354040283529160200191613d6b565b820191906000526020600020905b815481529060010190602001808311613d4e57829003601f168201915b50505050509150818051906020012083805190602001201415613daa57613d93600382615342565b613d9e60038361532e565b94509450505050915091565b80613db481614f7f565b915050613cc0565b506000958695509350505050565b613dd5848484612d69565b613de184848484614476565b6127715760405162461bcd60e51b815260040161047590615356565b60606015805461106590614e55565b606081613e305750506040805180820190915260018152600360fc1b602082015290565b8160005b8115613e5a5780613e4481614f7f565b9150613e539050600a83615342565b9150613e34565b60008167ffffffffffffffff811115613e7557613e75614b48565b6040519080825280601f01601f191660200182016040528015613e9f576020820181803683370190505b5090505b8415612d6157613eb4600183615247565b9150613ec1600a8661532e565b613ecc906030614e17565b60f81b818381518110613ee157613ee1614f27565b60200101906001600160f81b031916908160001a905350613f03600a86615342565b9450613ea3565b6000818152601360209081526040808320805460ff19169055805161016081018252600c61012082019081526b151c9d594813995d5d1c985b60a21b610140830152815260018184018190526019828401819052606083018190526080830181905260a083015261040060c083015260e08201859052858552601480855292852090810154600160481b90046001600160a01b03166101008301529385905290825280518051919384939092613fc392849201906148d5565b5060208201516001909101805460408401516060850151608086015160a087015160c088015160e0890151610100998a01516001600160a01b0316600160481b02600160481b600160e81b031961ffff928316600160381b0216600160381b600160e81b031992909316600160281b0261ffff60281b1960ff958616640100000000021666ffffff000000001996861663010000000263ff0000001998871662010000029890981663ffff00001999909616909c0261ff00199b15159b909b1661ffff19909916989098179990991795909516919091179290921716959095179190911716929092171790555050565b60006001600160e01b0319821663780e9d6360e01b1480610de95750610de982614574565b6001600160a01b0383166141335761412e81600880546000838152600960205260408120829055600182018355919091527ff3f7a9fe364faab93b216da50a3214154f22a0a2b415b23a84c8169e8b636ee30155565b614156565b816001600160a01b0316836001600160a01b0316146141565761415683826145c4565b6001600160a01b03821661416d5761128e81614661565b826001600160a01b0316826001600160a01b03161461128e5761128e8282614710565b6060600061419f836002614f3d565b6141aa906002614e17565b67ffffffffffffffff8111156141c2576141c2614b48565b6040519080825280601f01601f1916602001820160405280156141ec576020820181803683370190505b509050600360fc1b8160008151811061420757614207614f27565b60200101906001600160f81b031916908160001a905350600f60fb1b8160018151811061423657614236614f27565b60200101906001600160f81b031916908160001a905350600061425a846002614f3d565b614265906001614e17565b90505b60018111156142dd576f181899199a1a9b1b9c1cb0b131b232b360811b85600f166010811061429957614299614f27565b1a60f81b8282815181106142af576142af614f27565b60200101906001600160f81b031916908160001a90535060049490941c936142d6816153a8565b9050614268565b5083156129095760405162461bcd60e51b815260206004820181905260248201527f537472696e67733a20686578206c656e67746820696e73756666696369656e746044820152606401610475565b60008061433a600143615247565b60408051914060208301526bffffffffffffffffffffffff1941606090811b8216928401929092524460548401523390911b1660748201526088810185905260a8810184905260c80160408051601f1981840301815291905280516020909101209050612d61848261532e565b606060006143b684600061432c565b90506000838451836143c8919061532e565b815181106143d8576143d8614f27565b60200260200101519050809250505092915050565b60008060005b60048160ff16101561445557838260ff166004811061441457614414614f27565b602002015160ff16848260ff166004811061443157614431614f27565b602002015160ff161015614443578091505b8061444d816153bf565b9150506143f3565b5092915050565b6114d2828260405180602001604052806000815250614754565b60006001600160a01b0384163b1561456957604051630a85bd0160e11b81526001600160a01b0385169063150b7a02906144ba9033908990889088906004016153df565b6020604051808303816000875af19250505080156144f5575060408051601f3d908101601f191682019092526144f29181019061541c565b60015b61454f573d808015614523576040519150601f19603f3d011682016040523d82523d6000602084013e614528565b606091505b5080516145475760405162461bcd60e51b815260040161047590615356565b805181602001fd5b6001600160e01b031916630a85bd0160e11b149050612d61565b506001949350505050565b60006001600160e01b031982166380ac58cd60e01b14806145a557506001600160e01b03198216635b5e139f60e01b145b80610de957506301ffc9a760e01b6001600160e01b0319831614610de9565b600060016145d184611e22565b6145db9190615247565b60008381526007602052604090205490915080821461462e576001600160a01b03841660009081526006602090815260408083208584528252808320548484528184208190558352600790915290208190555b5060009182526007602090815260408084208490556001600160a01b039094168352600681528383209183525290812055565b60085460009061467390600190615247565b6000838152600960205260408120546008805493945090928490811061469b5761469b614f27565b9060005260206000200154905080600883815481106146bc576146bc614f27565b60009182526020808320909101929092558281526009909152604080822084905585825281205560088054806146f4576146f4615439565b6001900381819060005260206000200160009055905550505050565b600061471b83611e22565b6001600160a01b039093166000908152600660209081526040808320868452825280832085905593825260079052919091209190915550565b61475e8383614787565b61476b6000848484614476565b61128e5760405162461bcd60e51b815260040161047590615356565b6001600160a01b0382166147dd5760405162461bcd60e51b815260206004820181905260248201527f4552433732313a206d696e7420746f20746865207a65726f20616464726573736044820152606401610475565b6000818152600260205260409020546001600160a01b0316156148425760405162461bcd60e51b815260206004820152601c60248201527f4552433732313a20746f6b656e20616c7265616479206d696e746564000000006044820152606401610475565b61484e600083836140d8565b6001600160a01b0382166000908152600360205260408120805460019290614877908490614e17565b909155505060008181526002602052604080822080546001600160a01b0319166001600160a01b03861690811790915590518392907fddf252ad1be2c89b69c2b068fc378daa952ba7f163c4a11628f55a4df523b3ef908290a45050565b8280546148e190614e55565b90600052602060002090601f0160209004810192826149035760008555614949565b82601f1061491c57805160ff1916838001178555614949565b82800160010185558215614949579182015b8281111561494957825182559160200191906001019061492e565b50614955929150614996565b5090565b6040518061040001604052806020906020820280368337509192915050565b60405180608001604052806004906020820280368337509192915050565b5b808211156149555760008155600101614997565b6001600160e01b0319811681146115c357600080fd5b6000602082840312156149d357600080fd5b8135612909816149ab565b600080604083850312156149f157600080fd5b50508035926020909101359150565b600060208284031215614a1257600080fd5b5035919050565b60005b83811015614a34578181015183820152602001614a1c565b838111156127715750506000910152565b60008151808452614a5d816020860160208601614a19565b601f01601f19169290920160200192915050565b6020815260006129096020830184614a45565b80356001600160a01b038116811461226e57600080fd5b60008060408385031215614aae57600080fd5b614ab783614a84565b946020939093013593505050565b600080600060608486031215614ada57600080fd5b614ae384614a84565b9250614af160208501614a84565b9150604084013590509250925092565b60008060408385031215614b1457600080fd5b82359150614b2460208401614a84565b90509250929050565b600060208284031215614b3f57600080fd5b61290982614a84565b634e487b7160e01b600052604160045260246000fd5b600067ffffffffffffffff80841115614b7957614b79614b48565b604051601f8501601f19908116603f01168101908282118183101715614ba157614ba1614b48565b81604052809350858152868686011115614bba57600080fd5b858560208301376000602087830101525050509392505050565b600060208284031215614be657600080fd5b813567ffffffffffffffff811115614bfd57600080fd5b8201601f81018413614c0e57600080fd5b612d6184823560208401614b5e565b6104008101818360005b6020808210614c365750614c50565b825163ffffffff1684529283019290910190600101614c27565b50505092915050565b60008060408385031215614c6c57600080fd5b614c7583614a84565b915060208301358015158114614c8a57600080fd5b809150509250929050565b60008060008060808587031215614cab57600080fd5b614cb485614a84565b9350614cc260208601614a84565b925060408501359150606085013567ffffffffffffffff811115614ce557600080fd5b8501601f81018713614cf657600080fd5b614d0587823560208401614b5e565b91505092959194509250565b803561ffff8116811461226e57600080fd5b600080600060608486031215614d3857600080fd5b614d4184614d11565b9250614d4f60208501614d11565b9150614d5d60408501614d11565b90509250925092565b60808101818360005b6004811015614c5057815160ff16835260209283019290910190600101614d6f565b60008060408385031215614da457600080fd5b82359150614b2460208401614d11565b60008060408385031215614dc757600080fd5b614dd083614a84565b9150614b2460208401614a84565b602080825260099082015268452d3030312d30313760b81b604082015260600190565b634e487b7160e01b600052601160045260246000fd5b60008219821115614e2a57614e2a614e01565b500190565b600061ffff808316818516808303821115614e4c57614e4c614e01565b01949350505050565b600181811c90821680614e6957607f821691505b60208210811415614e8a57634e487b7160e01b600052602260045260246000fd5b50919050565b60208082526031908201527f4552433732313a207472616e736665722063616c6c6572206973206e6f74206f6040820152701ddb995c881b9bdc88185c1c1c9bdd9959607a1b606082015260800190565b6020808252600990820152680452d3030312d3031360bc1b604082015260600190565b60208082526009908201526808a5a6060625a6062760bb1b604082015260600190565b634e487b7160e01b600052603260045260246000fd5b6000816000190483118215151615614f5757614f57614e01565b500290565b602080825260099082015268452d3030312d30303360b81b604082015260600190565b6000600019821415614f9357614f93614e01565b5060010190565b634e487b7160e01b600052601260045260246000fd5b600061ffff80841680614fc557614fc5614f9a565b92169190910692915050565b600061ffff80831681811415614fe957614fe9614e01565b6001019392505050565b600061ffff8381169083168181101561500e5761500e614e01565b039392505050565b600181815b80851115615053578163ffffffff0482111561503957615039614e01565b8085161561504657918102915b93841c939080029061501b565b509250929050565b600181815b80851115615053578161ffff0482111561507c5761507c614e01565b8085161561508957918102915b93841c9390800290615060565b6000826150a557506001610de9565b816150b257506000610de9565b81600181146150c857600281146150d257615103565b6001915050610de9565b60ff8411156150e3576150e3614e01565b6001841b915063ffffffff8211156150fd576150fd614e01565b50610de9565b5060208310610133831016604e8410600b841016171561513a575081810a63ffffffff81111561513557615135614e01565b610de9565b6151448383615016565b8063ffffffff0482111561515a5761515a614e01565b029392505050565b60008261517157506001610de9565b8161517e57506000610de9565b81600181146150c85760028114615194576151bd565b60ff8411156151a5576151a5614e01565b6001841b915061ffff8211156150fd576150fd614e01565b5060208310610133831016604e8410600b84101617156151ed575081810a61ffff81111561513557615135614e01565b6151f7838361505b565b8061ffff0482111561515a5761515a614e01565b600061290961ffff841663ffffffff8416615096565b60008351615233818460208801614a19565b835190830190614e4c818360208801614a19565b60008282101561525957615259614e01565b500390565b7f416363657373436f6e74726f6c3a206163636f756e7420000000000000000000815260008351615296816017850160208801614a19565b7001034b99036b4b9b9b4b733903937b6329607d1b60179184019182015283516152c7816028840160208801614a19565b01602801949350505050565b600061ffff612d61818516828516615162565b600060ff821660ff84168060ff0382111561530357615303614e01565b019392505050565b600060ff821660ff84168082101561532557615325614e01565b90039392505050565b60008261533d5761533d614f9a565b500690565b60008261535157615351614f9a565b500490565b60208082526032908201527f4552433732313a207472616e7366657220746f206e6f6e20455243373231526560408201527131b2b4bb32b91034b6b83632b6b2b73a32b960711b606082015260800190565b6000816153b7576153b7614e01565b506000190190565b600060ff821660ff8114156153d6576153d6614e01565b60010192915050565b6001600160a01b038581168252841660208201526040810183905260806060820181905260009061541290830184614a45565b9695505050505050565b60006020828403121561542e57600080fd5b8151612909816149ab565b634e487b7160e01b600052603160045260246000fdfe6a64baf327d646d1bca72653e2a075d15fd6ac6d8cbd7f6ee03fc55875e0fa882fa3586e1228a6d020f44df84a4695dcd1cfcb55a51cd832563c729d866522ffa26469706673582212202e36e4e85f24924738e11095eae82c158af47100f2db58635927bf6e5fe99c9e64736f6c634300080a00334552433732313a207472616e7366657220746f206e6f6e2045524337323152652fa3586e1228a6d020f44df84a4695dcd1cfcb55a51cd832563c729d866522ff68747470733a2f2f6d6574612e636f696e6c616e6465722e6f6e652f7365656b6572732f",
  "linkReferences": {},
  "deployedLinkReferences": {}
}