{
  "_format": "hh-sol-artifact-1",
  "contractName": "Seekers",
  "sourceName": "contracts/Seekers.sol",
  "abi": [
    {
      "inputs": [],
      "stateMutability": "nonpayable",
      "type": "constructor"
    },
    {
      "anonymous": false,
      "inputs": [
        {
          "indexed": true,
          "internalType": "address",
          "name": "owner",
          "type": "address"
        },
        {
          "indexed": true,
          "internalType": "address",
          "name": "approved",
          "type": "address"
        },
        {
          "indexed": true,
          "internalType": "uint256",
          "name": "tokenId",
          "type": "uint256"
        }
      ],
      "name": "Approval",
      "type": "event"
    },
    {
      "anonymous": false,
      "inputs": [
        {
          "indexed": true,
          "internalType": "address",
          "name": "owner",
          "type": "address"
        },
        {
          "indexed": true,
          "internalType": "address",
          "name": "operator",
          "type": "address"
        },
        {
          "indexed": false,
          "internalType": "bool",
          "name": "approved",
          "type": "bool"
        }
      ],
      "name": "ApprovalForAll",
      "type": "event"
    },
    {
      "anonymous": false,
      "inputs": [
        {
          "indexed": false,
          "internalType": "uint256",
          "name": "id",
          "type": "uint256"
        }
      ],
      "name": "DethscalesRerolled",
      "type": "event"
    },
    {
      "anonymous": false,
      "inputs": [],
      "name": "FirstMintActivated",
      "type": "event"
    },
    {
      "anonymous": false,
      "inputs": [
        {
          "indexed": true,
          "internalType": "bytes32",
          "name": "role",
          "type": "bytes32"
        },
        {
          "indexed": true,
          "internalType": "bytes32",
          "name": "previousAdminRole",
          "type": "bytes32"
        },
        {
          "indexed": true,
          "internalType": "bytes32",
          "name": "newAdminRole",
          "type": "bytes32"
        }
      ],
      "name": "RoleAdminChanged",
      "type": "event"
    },
    {
      "anonymous": false,
      "inputs": [
        {
          "indexed": true,
          "internalType": "bytes32",
          "name": "role",
          "type": "bytes32"
        },
        {
          "indexed": true,
          "internalType": "address",
          "name": "account",
          "type": "address"
        },
        {
          "indexed": true,
          "internalType": "address",
          "name": "sender",
          "type": "address"
        }
      ],
      "name": "RoleGranted",
      "type": "event"
    },
    {
      "anonymous": false,
      "inputs": [
        {
          "indexed": true,
          "internalType": "bytes32",
          "name": "role",
          "type": "bytes32"
        },
        {
          "indexed": true,
          "internalType": "address",
          "name": "account",
          "type": "address"
        },
        {
          "indexed": true,
          "internalType": "address",
          "name": "sender",
          "type": "address"
        }
      ],
      "name": "RoleRevoked",
      "type": "event"
    },
    {
      "anonymous": false,
      "inputs": [
        {
          "indexed": true,
          "internalType": "uint256",
          "name": "seekerId",
          "type": "uint256"
        },
        {
          "indexed": false,
          "internalType": "uint256",
          "name": "scalesAdded",
          "type": "uint256"
        },
        {
          "indexed": false,
          "internalType": "uint256",
          "name": "newScaleCount",
          "type": "uint256"
        }
      ],
      "name": "ScalesAdded",
      "type": "event"
    },
    {
      "anonymous": false,
      "inputs": [],
      "name": "SecondMintActivated",
      "type": "event"
    },
    {
      "anonymous": false,
      "inputs": [
        {
          "indexed": true,
          "internalType": "uint256",
          "name": "seekerId",
          "type": "uint256"
        },
        {
          "indexed": true,
          "internalType": "address",
          "name": "clan",
          "type": "address"
        }
      ],
      "name": "SeekerDeclaredToClan",
      "type": "event"
    },
    {
      "anonymous": false,
      "inputs": [
        {
          "indexed": true,
          "internalType": "uint256",
          "name": "seekerId",
          "type": "uint256"
        }
      ],
      "name": "SeekerUncloaked",
      "type": "event"
    },
    {
      "anonymous": false,
      "inputs": [],
      "name": "ThirdMintActivated",
      "type": "event"
    },
    {
      "anonymous": false,
      "inputs": [
        {
          "indexed": true,
          "internalType": "address",
          "name": "from",
          "type": "address"
        },
        {
          "indexed": true,
          "internalType": "address",
          "name": "to",
          "type": "address"
        },
        {
          "indexed": true,
          "internalType": "uint256",
          "name": "tokenId",
          "type": "uint256"
        }
      ],
      "name": "Transfer",
      "type": "event"
    },
    {
      "anonymous": false,
      "inputs": [],
      "name": "UncloakingAvailable",
      "type": "event"
    },
    {
      "inputs": [],
      "name": "BIRTHSEEKERSCALESTART",
      "outputs": [
        {
          "internalType": "uint8",
          "name": "",
          "type": "uint8"
        }
      ],
      "stateMutability": "view",
      "type": "function"
    },
    {
      "inputs": [],
      "name": "DEFAULT_ADMIN_ROLE",
      "outputs": [
        {
          "internalType": "bytes32",
          "name": "",
          "type": "bytes32"
        }
      ],
      "stateMutability": "view",
      "type": "function"
    },
    {
      "inputs": [],
      "name": "DETHSCALEREROLLCOST",
      "outputs": [
        {
          "internalType": "uint8",
          "name": "",
          "type": "uint8"
        }
      ],
      "stateMutability": "view",
      "type": "function"
    },
    {
      "inputs": [],
      "name": "FIRSTMINT",
      "outputs": [
        {
          "internalType": "uint256",
          "name": "",
          "type": "uint256"
        }
      ],
      "stateMutability": "view",
      "type": "function"
    },
    {
      "inputs": [],
      "name": "FIRSTMINTPRICE",
      "outputs": [
        {
          "internalType": "uint256",
          "name": "",
          "type": "uint256"
        }
      ],
      "stateMutability": "view",
      "type": "function"
    },
    {
      "inputs": [],
      "name": "GAME_ROLE",
      "outputs": [
        {
          "internalType": "bytes32",
          "name": "",
          "type": "bytes32"
        }
      ],
      "stateMutability": "view",
      "type": "function"
    },
    {
      "inputs": [],
      "name": "KEEPERS_ROLE",
      "outputs": [
        {
          "internalType": "bytes32",
          "name": "",
          "type": "bytes32"
        }
      ],
      "stateMutability": "view",
      "type": "function"
    },
    {
      "inputs": [],
      "name": "MAXMINTABLE",
      "outputs": [
        {
          "internalType": "uint256",
          "name": "",
          "type": "uint256"
        }
      ],
      "stateMutability": "view",
      "type": "function"
    },
    {
      "inputs": [],
      "name": "MAXPIXELS",
      "outputs": [
        {
          "internalType": "uint16",
          "name": "",
          "type": "uint16"
        }
      ],
      "stateMutability": "view",
      "type": "function"
    },
    {
      "inputs": [],
      "name": "MAXSEEKERS",
      "outputs": [
        {
          "internalType": "uint256",
          "name": "",
          "type": "uint256"
        }
      ],
      "stateMutability": "view",
      "type": "function"
    },
    {
      "inputs": [],
      "name": "SECONDMINT",
      "outputs": [
        {
          "internalType": "uint256",
          "name": "",
          "type": "uint256"
        }
      ],
      "stateMutability": "view",
      "type": "function"
    },
    {
      "inputs": [],
      "name": "SECONDMINTPRICE",
      "outputs": [
        {
          "internalType": "uint256",
          "name": "",
          "type": "uint256"
        }
      ],
      "stateMutability": "view",
      "type": "function"
    },
    {
      "inputs": [],
      "name": "SUMMONSEEKERSCALESTART",
      "outputs": [
        {
          "internalType": "uint8",
          "name": "",
          "type": "uint8"
        }
      ],
      "stateMutability": "view",
      "type": "function"
    },
    {
      "inputs": [],
      "name": "THIRDMINT",
      "outputs": [
        {
          "internalType": "uint256",
          "name": "",
          "type": "uint256"
        }
      ],
      "stateMutability": "view",
      "type": "function"
    },
    {
      "inputs": [],
      "name": "THIRDMINTPRICE",
      "outputs": [
        {
          "internalType": "uint256",
          "name": "",
          "type": "uint256"
        }
      ],
      "stateMutability": "view",
      "type": "function"
    },
    {
      "inputs": [],
      "name": "THIRDMINT_INCR",
      "outputs": [
        {
          "internalType": "uint256",
          "name": "",
          "type": "uint256"
        }
      ],
      "stateMutability": "view",
      "type": "function"
    },
    {
      "inputs": [],
      "name": "THIRDMINT_TOTAL",
      "outputs": [
        {
          "internalType": "uint256",
          "name": "",
          "type": "uint256"
        }
      ],
      "stateMutability": "view",
      "type": "function"
    },
    {
      "inputs": [
        {
          "internalType": "uint16",
          "name": "mod",
          "type": "uint16"
        },
        {
          "internalType": "uint16",
          "name": "r1",
          "type": "uint16"
        },
        {
          "internalType": "uint16",
          "name": "r2",
          "type": "uint16"
        }
      ],
      "name": "_getRandomNumber16",
      "outputs": [
        {
          "internalType": "uint16",
          "name": "",
          "type": "uint16"
        }
      ],
      "stateMutability": "pure",
      "type": "function"
    },
    {
      "inputs": [],
      "name": "activateFirstMint",
      "outputs": [],
      "stateMutability": "nonpayable",
      "type": "function"
    },
    {
      "inputs": [],
      "name": "activateSecondMint",
      "outputs": [],
      "stateMutability": "nonpayable",
      "type": "function"
    },
    {
      "inputs": [],
      "name": "activateThirdMint",
      "outputs": [],
      "stateMutability": "nonpayable",
      "type": "function"
    },
    {
      "inputs": [
        {
          "internalType": "address",
          "name": "gameContract",
          "type": "address"
        }
      ],
      "name": "addGameContract",
      "outputs": [],
      "stateMutability": "nonpayable",
      "type": "function"
    },
    {
      "inputs": [
        {
          "internalType": "address",
          "name": "newKeeper",
          "type": "address"
        }
      ],
      "name": "addKeeper",
      "outputs": [],
      "stateMutability": "nonpayable",
      "type": "function"
    },
    {
      "inputs": [
        {
          "internalType": "uint256",
          "name": "id",
          "type": "uint256"
        },
        {
          "internalType": "uint256",
          "name": "scales",
          "type": "uint256"
        }
      ],
      "name": "addScales",
      "outputs": [],
      "stateMutability": "nonpayable",
      "type": "function"
    },
    {
      "inputs": [
        {
          "internalType": "address",
          "name": "to",
          "type": "address"
        },
        {
          "internalType": "uint256",
          "name": "tokenId",
          "type": "uint256"
        }
      ],
      "name": "approve",
      "outputs": [],
      "stateMutability": "nonpayable",
      "type": "function"
    },
    {
      "inputs": [
        {
          "internalType": "address",
          "name": "owner",
          "type": "address"
        }
      ],
      "name": "balanceOf",
      "outputs": [
        {
          "internalType": "uint256",
          "name": "",
          "type": "uint256"
        }
      ],
      "stateMutability": "view",
      "type": "function"
    },
    {
      "inputs": [
        {
          "internalType": "address",
          "name": "to",
          "type": "address"
        }
      ],
      "name": "birthSeeker",
      "outputs": [
        {
          "internalType": "uint256",
          "name": "",
          "type": "uint256"
        }
      ],
      "stateMutability": "nonpayable",
      "type": "function"
    },
    {
      "inputs": [],
      "name": "currentBuyableSeekers",
      "outputs": [
        {
          "internalType": "uint256",
          "name": "",
          "type": "uint256"
        }
      ],
      "stateMutability": "view",
      "type": "function"
    },
    {
      "inputs": [],
      "name": "currentPrice",
      "outputs": [
        {
          "internalType": "uint256",
          "name": "",
          "type": "uint256"
        }
      ],
      "stateMutability": "view",
      "type": "function"
    },
    {
      "inputs": [
        {
          "internalType": "uint256",
          "name": "id",
          "type": "uint256"
        },
        {
          "internalType": "address",
          "name": "clanAddress",
          "type": "address"
        }
      ],
      "name": "declareForClan",
      "outputs": [],
      "stateMutability": "nonpayable",
      "type": "function"
    },
    {
      "inputs": [],
      "name": "endGoodsOnly",
      "outputs": [],
      "stateMutability": "nonpayable",
      "type": "function"
    },
    {
      "inputs": [],
      "name": "evilsOnly",
      "outputs": [
        {
          "internalType": "bool",
          "name": "",
          "type": "bool"
        }
      ],
      "stateMutability": "view",
      "type": "function"
    },
    {
      "inputs": [],
      "name": "firstMintActive",
      "outputs": [
        {
          "internalType": "bool",
          "name": "",
          "type": "bool"
        }
      ],
      "stateMutability": "view",
      "type": "function"
    },
    {
      "inputs": [
        {
          "internalType": "uint256",
          "name": "id",
          "type": "uint256"
        }
      ],
      "name": "getAlignmentById",
      "outputs": [
        {
          "internalType": "string",
          "name": "",
          "type": "string"
        }
      ],
      "stateMutability": "view",
      "type": "function"
    },
    {
      "inputs": [
        {
          "internalType": "uint256",
          "name": "id",
          "type": "uint256"
        }
      ],
      "name": "getApById",
      "outputs": [
        {
          "internalType": "uint8[4]",
          "name": "",
          "type": "uint8[4]"
        }
      ],
      "stateMutability": "view",
      "type": "function"
    },
    {
      "inputs": [
        {
          "internalType": "uint256",
          "name": "tokenId",
          "type": "uint256"
        }
      ],
      "name": "getApproved",
      "outputs": [
        {
          "internalType": "address",
          "name": "",
          "type": "address"
        }
      ],
      "stateMutability": "view",
      "type": "function"
    },
    {
      "inputs": [
        {
          "internalType": "uint256",
          "name": "id",
          "type": "uint256"
        }
      ],
      "name": "getBirthStatusById",
      "outputs": [
        {
          "internalType": "bool",
          "name": "",
          "type": "bool"
        }
      ],
      "stateMutability": "view",
      "type": "function"
    },
    {
      "inputs": [
        {
          "internalType": "uint256",
          "name": "id",
          "type": "uint256"
        }
      ],
      "name": "getClanById",
      "outputs": [
        {
          "internalType": "address",
          "name": "",
          "type": "address"
        }
      ],
      "stateMutability": "view",
      "type": "function"
    },
    {
      "inputs": [
        {
          "internalType": "uint256",
          "name": "id",
          "type": "uint256"
        }
      ],
      "name": "getCloakStatusById",
      "outputs": [
        {
          "internalType": "bool",
          "name": "",
          "type": "bool"
        }
      ],
      "stateMutability": "view",
      "type": "function"
    },
    {
      "inputs": [
        {
          "internalType": "uint256",
          "name": "id",
          "type": "uint256"
        }
      ],
      "name": "getDethscalesById",
      "outputs": [
        {
          "internalType": "uint16",
          "name": "",
          "type": "uint16"
        }
      ],
      "stateMutability": "view",
      "type": "function"
    },
    {
      "inputs": [
        {
          "internalType": "uint256",
          "name": "id",
          "type": "uint256"
        }
      ],
      "name": "getFullCloak",
      "outputs": [
        {
          "internalType": "uint32[32]",
          "name": "",
          "type": "uint32[32]"
        }
      ],
      "stateMutability": "view",
      "type": "function"
    },
    {
      "inputs": [
        {
          "internalType": "bytes32",
          "name": "role",
          "type": "bytes32"
        }
      ],
      "name": "getRoleAdmin",
      "outputs": [
        {
          "internalType": "bytes32",
          "name": "",
          "type": "bytes32"
        }
      ],
      "stateMutability": "view",
      "type": "function"
    },
    {
      "inputs": [
        {
          "internalType": "uint256",
          "name": "id",
          "type": "uint256"
        }
      ],
      "name": "getScaleCountById",
      "outputs": [
        {
          "internalType": "uint16",
          "name": "",
          "type": "uint16"
        }
      ],
      "stateMutability": "view",
      "type": "function"
    },
    {
      "inputs": [],
      "name": "goodsOnly",
      "outputs": [
        {
          "internalType": "bool",
          "name": "",
          "type": "bool"
        }
      ],
      "stateMutability": "view",
      "type": "function"
    },
    {
      "inputs": [
        {
          "internalType": "bytes32",
          "name": "role",
          "type": "bytes32"
        },
        {
          "internalType": "address",
          "name": "account",
          "type": "address"
        }
      ],
      "name": "grantRole",
      "outputs": [],
      "stateMutability": "nonpayable",
      "type": "function"
    },
    {
      "inputs": [
        {
          "internalType": "bytes32",
          "name": "role",
          "type": "bytes32"
        },
        {
          "internalType": "address",
          "name": "account",
          "type": "address"
        }
      ],
      "name": "hasRole",
      "outputs": [
        {
          "internalType": "bool",
          "name": "",
          "type": "bool"
        }
      ],
      "stateMutability": "view",
      "type": "function"
    },
    {
      "inputs": [
        {
          "internalType": "address",
          "name": "owner",
          "type": "address"
        },
        {
          "internalType": "address",
          "name": "operator",
          "type": "address"
        }
      ],
      "name": "isApprovedForAll",
      "outputs": [
        {
          "internalType": "bool",
          "name": "",
          "type": "bool"
        }
      ],
      "stateMutability": "view",
      "type": "function"
    },
    {
      "inputs": [
        {
          "internalType": "uint256",
          "name": "summonCount",
          "type": "uint256"
        }
      ],
      "name": "keepersSummonSeeker",
      "outputs": [],
      "stateMutability": "nonpayable",
      "type": "function"
    },
    {
      "inputs": [],
      "name": "name",
      "outputs": [
        {
          "internalType": "string",
          "name": "",
          "type": "string"
        }
      ],
      "stateMutability": "view",
      "type": "function"
    },
    {
      "inputs": [
        {
          "internalType": "uint256",
          "name": "tokenId",
          "type": "uint256"
        }
      ],
      "name": "ownerOf",
      "outputs": [
        {
          "internalType": "address",
          "name": "",
          "type": "address"
        }
      ],
      "stateMutability": "view",
      "type": "function"
    },
    {
      "inputs": [],
      "name": "ownerWithdraw",
      "outputs": [],
      "stateMutability": "payable",
      "type": "function"
    },
    {
      "inputs": [],
      "name": "performUncloaking",
      "outputs": [],
      "stateMutability": "nonpayable",
      "type": "function"
    },
    {
      "inputs": [],
      "name": "released",
      "outputs": [
        {
          "internalType": "bool",
          "name": "",
          "type": "bool"
        }
      ],
      "stateMutability": "view",
      "type": "function"
    },
    {
      "inputs": [
        {
          "internalType": "bytes32",
          "name": "role",
          "type": "bytes32"
        },
        {
          "internalType": "address",
          "name": "account",
          "type": "address"
        }
      ],
      "name": "renounceRole",
      "outputs": [],
      "stateMutability": "nonpayable",
      "type": "function"
    },
    {
      "inputs": [
        {
          "internalType": "uint256",
          "name": "id",
          "type": "uint256"
        }
      ],
      "name": "rerollDethscales",
      "outputs": [],
      "stateMutability": "nonpayable",
      "type": "function"
    },
    {
      "inputs": [
        {
          "internalType": "bytes32",
          "name": "role",
          "type": "bytes32"
        },
        {
          "internalType": "address",
          "name": "account",
          "type": "address"
        }
      ],
      "name": "revokeRole",
      "outputs": [],
      "stateMutability": "nonpayable",
      "type": "function"
    },
    {
      "inputs": [
        {
          "internalType": "address",
          "name": "from",
          "type": "address"
        },
        {
          "internalType": "address",
          "name": "to",
          "type": "address"
        },
        {
          "internalType": "uint256",
          "name": "tokenId",
          "type": "uint256"
        }
      ],
      "name": "safeTransferFrom",
      "outputs": [],
      "stateMutability": "nonpayable",
      "type": "function"
    },
    {
      "inputs": [
        {
          "internalType": "address",
          "name": "from",
          "type": "address"
        },
        {
          "internalType": "address",
          "name": "to",
          "type": "address"
        },
        {
          "internalType": "uint256",
          "name": "tokenId",
          "type": "uint256"
        },
        {
          "internalType": "bytes",
          "name": "_data",
          "type": "bytes"
        }
      ],
      "name": "safeTransferFrom",
      "outputs": [],
      "stateMutability": "nonpayable",
      "type": "function"
    },
    {
      "inputs": [],
      "name": "secondMintActive",
      "outputs": [
        {
          "internalType": "bool",
          "name": "",
          "type": "bool"
        }
      ],
      "stateMutability": "view",
      "type": "function"
    },
    {
      "inputs": [],
      "name": "seizureMintIncrement",
      "outputs": [],
      "stateMutability": "nonpayable",
      "type": "function"
    },
    {
      "inputs": [
        {
          "internalType": "address",
          "name": "winner",
          "type": "address"
        }
      ],
      "name": "sendWinnerSeeker",
      "outputs": [],
      "stateMutability": "nonpayable",
      "type": "function"
    },
    {
      "inputs": [
        {
          "internalType": "address",
          "name": "operator",
          "type": "address"
        },
        {
          "internalType": "bool",
          "name": "approved",
          "type": "bool"
        }
      ],
      "name": "setApprovalForAll",
      "outputs": [],
      "stateMutability": "nonpayable",
      "type": "function"
    },
    {
      "inputs": [
        {
          "internalType": "string",
          "name": "baseTokenURI",
          "type": "string"
        }
      ],
      "name": "setBaseURI",
      "outputs": [],
      "stateMutability": "nonpayable",
      "type": "function"
    },
    {
      "inputs": [
        {
          "internalType": "uint256",
          "name": "summonCount",
          "type": "uint256"
        }
      ],
      "name": "summonSeeker",
      "outputs": [],
      "stateMutability": "payable",
      "type": "function"
    },
    {
      "inputs": [
        {
          "internalType": "bytes4",
          "name": "interfaceId",
          "type": "bytes4"
        }
      ],
      "name": "supportsInterface",
      "outputs": [
        {
          "internalType": "bool",
          "name": "",
          "type": "bool"
        }
      ],
      "stateMutability": "view",
      "type": "function"
    },
    {
      "inputs": [],
      "name": "symbol",
      "outputs": [
        {
          "internalType": "string",
          "name": "",
          "type": "string"
        }
      ],
      "stateMutability": "view",
      "type": "function"
    },
    {
      "inputs": [],
      "name": "thirdMintActive",
      "outputs": [
        {
          "internalType": "bool",
          "name": "",
          "type": "bool"
        }
      ],
      "stateMutability": "view",
      "type": "function"
    },
    {
      "inputs": [
        {
          "internalType": "uint256",
          "name": "index",
          "type": "uint256"
        }
      ],
      "name": "tokenByIndex",
      "outputs": [
        {
          "internalType": "uint256",
          "name": "",
          "type": "uint256"
        }
      ],
      "stateMutability": "view",
      "type": "function"
    },
    {
      "inputs": [
        {
          "internalType": "address",
          "name": "owner",
          "type": "address"
        },
        {
          "internalType": "uint256",
          "name": "index",
          "type": "uint256"
        }
      ],
      "name": "tokenOfOwnerByIndex",
      "outputs": [
        {
          "internalType": "uint256",
          "name": "",
          "type": "uint256"
        }
      ],
      "stateMutability": "view",
      "type": "function"
    },
    {
      "inputs": [
        {
          "internalType": "uint256",
          "name": "tokenId",
          "type": "uint256"
        }
      ],
      "name": "tokenURI",
      "outputs": [
        {
          "internalType": "string",
          "name": "",
          "type": "string"
        }
      ],
      "stateMutability": "view",
      "type": "function"
    },
    {
      "inputs": [],
      "name": "totalSupply",
      "outputs": [
        {
          "internalType": "uint256",
          "name": "",
          "type": "uint256"
        }
      ],
      "stateMutability": "view",
      "type": "function"
    },
    {
      "inputs": [
        {
          "internalType": "address",
          "name": "from",
          "type": "address"
        },
        {
          "internalType": "address",
          "name": "to",
          "type": "address"
        },
        {
          "internalType": "uint256",
          "name": "tokenId",
          "type": "uint256"
        }
      ],
      "name": "transferFrom",
      "outputs": [],
      "stateMutability": "nonpayable",
      "type": "function"
    },
    {
      "inputs": [
        {
          "internalType": "uint256",
          "name": "id",
          "type": "uint256"
        }
      ],
      "name": "uncloakSeeker",
      "outputs": [],
      "stateMutability": "nonpayable",
      "type": "function"
    },
    {
      "inputs": [],
      "name": "uncloaking",
      "outputs": [
        {
          "internalType": "bool",
          "name": "",
          "type": "bool"
        }
      ],
      "stateMutability": "view",
      "type": "function"
    },
    {
      "stateMutability": "payable",
      "type": "receive"
    }
  ],
  "bytecode": "0x6000600c819055600d819055600e819055600f81905560108190556011556012805466ffffffffffffff1916905560e060405260246080818152906200676b60a0398051620000579160159160209091019062000a5a565b506040805161016081018252600b61012082018181526a13185dd99d5b0811dbdbd960aa1b610140840152825282518084018452600c8082526b13995d5d1c985b0811dbdbd960a21b60208381019190915280850192909252845180860186528181526b10da185bdd1a58c811dbdbd960a21b818401528486015284518086018652600e81526d13185dd99d5b0813995d5d1c985b60921b818401526060850152845180860186528181526b151c9d594813995d5d1c985b60a21b81840152608085015284518086018652600f81526e10da185bdd1a58c813995d5d1c985b608a1b8184015260a0850152845180860186529283526a13185dd99d5b08115d9a5b60aa1b8383015260c0840192909252835180850185528281526b13995d5d1c985b08115d9a5b60a21b8183015260e084015283518085019094529083526b10da185bdd1a58c8115d9a5b60a21b90830152610100810191909152620001c290601690600962000ae9565b50348015620001d057600080fd5b5060408051808201825260078152665365656b65727360c81b6020808301918252835180850190945260048452635345454b60e01b9084015281519192916200021c9160009162000a5a565b5080516200023290600190602084019062000a5a565b50506001600b555062000247600033620002eb565b620002626000805160206200674b83398151915233620002eb565b6200027e6000805160206200674b8339815191526000620002fb565b6001600c600082825462000293919062000bd9565b9091555050600c54620002a890339062000346565b6040610643620002bd610d0561138862000bd9565b620002c9919062000bd9565b620002d5919062000bd9565b620002e290600262000bd9565b600d5562000d25565b620002f7828262000368565b5050565b6000828152600a6020526040808220600101805490849055905190918391839186917fbd79b86ffe0ab8e8776151514217cd7cacd52c909f66475c3af44e129f0b00ff9190a4505050565b620002f78282604051806020016040528060008152506200040c60201b60201c565b6000828152600a602090815260408083206001600160a01b038516845290915290205460ff16620002f7576000828152600a602090815260408083206001600160a01b03851684529091529020805460ff19166001179055620003c83390565b6001600160a01b0316816001600160a01b0316837f2f8788117e7eff1d82e926ec794901d17c78024a50270940304540a733656f0d60405160405180910390a45050565b62000418838362000488565b620004276000848484620005de565b620004835760405162461bcd60e51b815260206004820152603260248201526000805160206200672b83398151915260448201527131b2b4bb32b91034b6b83632b6b2b73a32b960711b60648201526084015b60405180910390fd5b505050565b6001600160a01b038216620004e05760405162461bcd60e51b815260206004820181905260248201527f4552433732313a206d696e7420746f20746865207a65726f206164647265737360448201526064016200047a565b6000818152600260205260409020546001600160a01b031615620005475760405162461bcd60e51b815260206004820152601c60248201527f4552433732313a20746f6b656e20616c7265616479206d696e7465640000000060448201526064016200047a565b620005556000838362000737565b6001600160a01b03821660009081526003602052604081208054600192906200058090849062000bd9565b909155505060008181526002602052604080822080546001600160a01b0319166001600160a01b03861690811790915590518392907fddf252ad1be2c89b69c2b068fc378daa952ba7f163c4a11628f55a4df523b3ef908290a45050565b6000620005ff846001600160a01b03166200081360201b620032611760201c565b156200072b57604051630a85bd0160e11b81526001600160a01b0385169063150b7a02906200063990339089908890889060040162000bf4565b6020604051808303816000875af192505050801562000677575060408051601f3d908101601f19168201909252620006749181019062000c6f565b60015b62000710573d808015620006a8576040519150601f19603f3d011682016040523d82523d6000602084013e620006ad565b606091505b508051620007085760405162461bcd60e51b815260206004820152603260248201526000805160206200672b83398151915260448201527131b2b4bb32b91034b6b83632b6b2b73a32b960711b60648201526084016200047a565b805181602001fd5b6001600160e01b031916630a85bd0160e11b1490506200072f565b5060015b949350505050565b6200074f8383836200048360201b620011c01760201c565b6001600160a01b038316620007ad57620007a781600880546000838152600960205260408120829055600182018355919091527ff3f7a9fe364faab93b216da50a3214154f22a0a2b415b23a84c8169e8b636ee30155565b620007d3565b816001600160a01b0316836001600160a01b031614620007d357620007d3838262000819565b6001600160a01b038216620007ed576200048381620008c6565b826001600160a01b0316826001600160a01b031614620004835762000483828262000980565b3b151590565b600060016200083384620009d160201b620020d01760201c565b6200083f919062000ca2565b60008381526007602052604090205490915080821462000893576001600160a01b03841660009081526006602090815260408083208584528252808320548484528184208190558352600790915290208190555b5060009182526007602090815260408084208490556001600160a01b039094168352600681528383209183525290812055565b600854600090620008da9060019062000ca2565b6000838152600960205260408120546008805493945090928490811062000905576200090562000cbc565b90600052602060002001549050806008838154811062000929576200092962000cbc565b600091825260208083209091019290925582815260099091526040808220849055858252812055600880548062000964576200096462000cd2565b6001900381819060005260206000200160009055905550505050565b60006200099883620009d160201b620020d01760201c565b6001600160a01b039093166000908152600660209081526040808320868452825280832085905593825260079052919091209190915550565b60006001600160a01b03821662000a3e5760405162461bcd60e51b815260206004820152602a60248201527f4552433732313a2062616c616e636520717565727920666f7220746865207a65604482015269726f206164647265737360b01b60648201526084016200047a565b506001600160a01b031660009081526003602052604090205490565b82805462000a689062000ce8565b90600052602060002090601f01602090048101928262000a8c576000855562000ad7565b82601f1062000aa757805160ff191683800117855562000ad7565b8280016001018555821562000ad7579182015b8281111562000ad757825182559160200191906001019062000aba565b5062000ae592915062000b49565b5090565b82805482825590600052602060002090810192821562000b3b579160200282015b8281111562000b3b578251805162000b2a91849160209091019062000a5a565b509160200191906001019062000b0a565b5062000ae592915062000b60565b5b8082111562000ae5576000815560010162000b4a565b8082111562000ae557600062000b77828262000b81565b5060010162000b60565b50805462000b8f9062000ce8565b6000825580601f1062000ba0575050565b601f01602090049060005260206000209081019062000bc0919062000b49565b50565b634e487b7160e01b600052601160045260246000fd5b6000821982111562000bef5762000bef62000bc3565b500190565b600060018060a01b038087168352602081871681850152856040850152608060608501528451915081608085015260005b8281101562000c435785810182015185820160a00152810162000c25565b8281111562000c5657600060a084870101525b5050601f01601f19169190910160a00195945050505050565b60006020828403121562000c8257600080fd5b81516001600160e01b03198116811462000c9b57600080fd5b9392505050565b60008282101562000cb75762000cb762000bc3565b500390565b634e487b7160e01b600052603260045260246000fd5b634e487b7160e01b600052603160045260246000fd5b600181811c9082168062000cfd57607f821691505b6020821081141562000d1f57634e487b7160e01b600052602260045260246000fd5b50919050565b6159f68062000d356000396000f3fe6080604052600436106104d55760003560e01c806391d1485411610279578063c2d938201161015e578063e25a8b61116100d6578063eeb3f66d1161008a578063fe0194621161006f578063fe01946214610e62578063ff25b2b214610e77578063ff799ebb14610e9757600080fd5b8063eeb3f66d14610e2b578063f5ee25ac14610e4d57600080fd5b8063e84f5798116100bb578063e84f579814610d88578063e985e9c514610dc8578063eb8fafd014610e1157600080fd5b8063e25a8b6114610d42578063e493c00c14610d7257600080fd5b8063d547741f1161012d578063dce62c7911610112578063dce62c7914610cfd578063dec3a74c14610d17578063dec8a31514610d2c57600080fd5b8063d547741f14610cc7578063d6763bcf14610ce757600080fd5b8063c2d9382014610c27578063c5ce83f914610c5b578063c5f5e3d114610c7a578063c87b56dd14610ca757600080fd5b8063a217fddf116101f1578063af992df8116101c0578063b473e216116101a5578063b473e21614610bd2578063b88d4fde14610be7578063c2b2787914610c0757600080fd5b8063af992df814610b80578063b085a3f714610bbd57600080fd5b8063a217fddf14610b02578063a22cb46514610b17578063a9abebe514610b37578063ab40070614610b4c57600080fd5b80639767d423116102485780639dc4263f1161022d5780639dc4263f14610a845780639e94505814610abf578063a1073deb14610aec57600080fd5b80639767d42314610a4e5780639d1b464a14610a6e57600080fd5b806391d14854146109b057806394a3b4d9146109f657806395d89b4114610a165780639613252114610a2b57600080fd5b80634032b72b116103ba578063682341fa116103325780637aaf13a0116102e6578063807d88fa116102cb578063807d88fa1461096057806381cd08ee1461097a5780638ae626a21461099a57600080fd5b80637aaf13a01461092a5780637c6aa02a1461094a57600080fd5b80636e39a345116103175780636e39a345146108e257806370a08231146108f757806373afc2571461091757600080fd5b8063682341fa1461089b5780636c97c46f146108c257600080fd5b80634f6ccce71161038957806351e224ca1161036e57806351e224ca1461083b57806355f804b31461085b5780636352211e1461087b57600080fd5b80634f6ccce7146108015780635123b39a1461082157600080fd5b80634032b72b146107a457806342842e0e146107c45780634311de8f146107e45780634f483b8e146107ec57600080fd5b80631ca8ca5f1161044d5780632f2ff15d1161041c57806336568abe1161040157806336568abe1461073b57806336842eae1461075b5780633a61017b1461077b57600080fd5b80632f2ff15d146106fb5780632f745c591461071b57600080fd5b80631ca8ca5f1461066357806322e36c861461067857806323b872dd146106ab578063248a9ca3146106cb57600080fd5b8063081812fc116104a4578063095ea7b311610489578063095ea7b31461060d57806310b127091461062f57806318160ddd1461064457600080fd5b8063081812fc146105b157806308c3ad35146105e957600080fd5b806301ffc9a7146105195780630278c1ba1461054e57806303989c711461057b57806306fdde031461059c57600080fd5b366105145760405162461bcd60e51b815260040161050b906020808252600490820152630453032360e41b604082015260600190565b60405180910390fd5b600080fd5b34801561052557600080fd5b506105396105343660046150e1565b610eb7565b60405190151581526020015b60405180910390f35b34801561055a57600080fd5b5061056e6105693660046150fe565b610ec8565b604051610545919061516f565b34801561058757600080fd5b50601254610539906301000000900460ff1681565b3480156105a857600080fd5b5061056e610f6c565b3480156105bd57600080fd5b506105d16105cc3660046150fe565b610ffe565b6040516001600160a01b039091168152602001610545565b3480156105f557600080fd5b50601254610539906601000000000000900460ff1681565b34801561061957600080fd5b5061062d610628366004615199565b611093565b005b34801561063b57600080fd5b5061062d6111c5565b34801561065057600080fd5b506008545b604051908152602001610545565b34801561066f57600080fd5b50610655600a81565b34801561068457600080fd5b506105396106933660046150fe565b60009081526014602052604090206001015460ff1690565b3480156106b757600080fd5b5061062d6106c63660046151c3565b6112e6565b3480156106d757600080fd5b506106556106e63660046150fe565b6000908152600a602052604090206001015490565b34801561070757600080fd5b5061062d6107163660046151ff565b61136d565b34801561072757600080fd5b50610655610736366004615199565b611393565b34801561074757600080fd5b5061062d6107563660046151ff565b61143b565b34801561076757600080fd5b5061062d6107763660046151ff565b6114c7565b34801561078757600080fd5b5061079161040081565b60405161ffff9091168152602001610545565b3480156107b057600080fd5b5061062d6107bf36600461522b565b611596565b3480156107d057600080fd5b5061062d6107df3660046151c3565b61162a565b61062d611645565b3480156107f857600080fd5b5061062d61178b565b34801561080d57600080fd5b5061065561081c3660046150fe565b611836565b34801561082d57600080fd5b506106556512309ce5400081565b34801561084757600080fd5b5061062d6108563660046150fe565b6118da565b34801561086757600080fd5b5061062d6108763660046152d2565b611af1565b34801561088757600080fd5b506105d16108963660046150fe565b611b6b565b3480156108a757600080fd5b506108b0600181565b60405160ff9091168152602001610545565b3480156108ce57600080fd5b5061062d6108dd3660046150fe565b611bf6565b3480156108ee57600080fd5b5061062d611fa1565b34801561090357600080fd5b5061065561091236600461522b565b6120d0565b61062d6109253660046150fe565b61216a565b34801561093657600080fd5b5061062d6109453660046150fe565b612315565b34801561095657600080fd5b50610655600e5481565b34801561096c57600080fd5b50610655655af3107a400081565b34801561098657600080fd5b5061062d61099536600461522b565b6124d9565b3480156109a657600080fd5b50610655612b6781565b3480156109bc57600080fd5b506105396109cb3660046151ff565b6000918252600a602090815260408084206001600160a01b0393909316845291905290205460ff1690565b348015610a0257600080fd5b50610655610a1136600461522b565b61256a565b348015610a2257600080fd5b5061056e61263f565b348015610a3757600080fd5b506012546105399065010000000000900460ff1681565b348015610a5a57600080fd5b506012546105399062010000900460ff1681565b348015610a7a57600080fd5b50610655600f5481565b348015610a9057600080fd5b50610791610a9f3660046150fe565b600090815260146020526040902060010154600160381b900461ffff1690565b348015610acb57600080fd5b50610adf610ada3660046150fe565b61264e565b604051610545919061531b565b348015610af857600080fd5b5061065561010b81565b348015610b0e57600080fd5b50610655600081565b348015610b2357600080fd5b5061062d610b32366004615357565b6129ea565b348015610b4357600080fd5b506108b0600581565b348015610b5857600080fd5b506106557f6a64baf327d646d1bca72653e2a075d15fd6ac6d8cbd7f6ee03fc55875e0fa8881565b348015610b8c57600080fd5b50610791610b9b3660046150fe565b60009081526014602052604090206001015465010000000000900461ffff1690565b348015610bc957600080fd5b5061062d612aaf565b348015610bde57600080fd5b50610655600481565b348015610bf357600080fd5b5061062d610c02366004615393565b612b30565b348015610c1357600080fd5b50610791610c22366004615421565b612bbe565b348015610c3357600080fd5b506106557f2fa3586e1228a6d020f44df84a4695dcd1cfcb55a51cd832563c729d866522ff81565b348015610c6757600080fd5b5060125461053990610100900460ff1681565b348015610c8657600080fd5b50610c9a610c953660046150fe565b612c2f565b6040516105459190615464565b348015610cb357600080fd5b5061056e610cc23660046150fe565b612c94565b348015610cd357600080fd5b5061062d610ce23660046151ff565b612d7d565b348015610cf357600080fd5b5061065561138881565b348015610d0957600080fd5b506012546105399060ff1681565b348015610d2357600080fd5b5061062d612da3565b348015610d3857600080fd5b50610655610d0581565b348015610d4e57600080fd5b50610539610d5d3660046150fe565b60009081526013602052604090205460ff1690565b348015610d7e57600080fd5b5061065561064381565b348015610d9457600080fd5b506105d1610da33660046150fe565b600090815260146020526040902060010154600160481b90046001600160a01b031690565b348015610dd457600080fd5b50610539610de336600461548f565b6001600160a01b03918216600090815260056020908152604080832093909416825291909152205460ff1690565b348015610e1d57600080fd5b50610655652d79883d200081565b348015610e3757600080fd5b5060125461053990640100000000900460ff1681565b348015610e5957600080fd5b506108b0600381565b348015610e6e57600080fd5b5061062d612ec5565b348015610e8357600080fd5b5061062d610e9236600461522b565b612f3c565b348015610ea357600080fd5b5061062d610eb23660046154b9565b613037565b6000610ec282613267565b92915050565b600081815260146020526040812080546060929190610ee6906154db565b80601f0160208091040260200160405190810160405280929190818152602001828054610f12906154db565b8015610f5f5780601f10610f3457610100808354040283529160200191610f5f565b820191906000526020600020905b815481529060010190602001808311610f4257829003601f168201915b5093979650505050505050565b606060008054610f7b906154db565b80601f0160208091040260200160405190810160405280929190818152602001828054610fa7906154db565b8015610ff45780601f10610fc957610100808354040283529160200191610ff4565b820191906000526020600020905b815481529060010190602001808311610fd757829003601f168201915b5050505050905090565b6000818152600260205260408120546001600160a01b03166110775760405162461bcd60e51b815260206004820152602c60248201527f4552433732313a20617070726f76656420717565727920666f72206e6f6e657860448201526b34b9ba32b73a103a37b5b2b760a11b606482015260840161050b565b506000908152600460205260409020546001600160a01b031690565b600061109e82611b6b565b9050806001600160a01b0316836001600160a01b031614156111285760405162461bcd60e51b815260206004820152602160248201527f4552433732313a20617070726f76616c20746f2063757272656e74206f776e6560448201527f7200000000000000000000000000000000000000000000000000000000000000606482015260840161050b565b336001600160a01b038216148061114457506111448133610de3565b6111b65760405162461bcd60e51b815260206004820152603860248201527f4552433732313a20617070726f76652063616c6c6572206973206e6f74206f7760448201527f6e6572206e6f7220617070726f76656420666f7220616c6c0000000000000000606482015260840161050b565b6111c083836132a5565b505050565b3360009081527f61452436a62565ab2cbed6a23d441329fc7a4b9f7fa5613961bdfeb3b7247f6d602052604090205460ff1661122c5760405162461bcd60e51b815260040161050b906020808252600490820152634530313760e01b604082015260600190565b60125460ff16156112815760405162461bcd60e51b815260040161050b9060208082526004908201527f4530303500000000000000000000000000000000000000000000000000000000604082015260600190565b6012805460ff191660011790556040517f0d3dae01e1b4644a9619797b649d24e856e8d3dd662f97e01427e70bf2ae91a690600090a16112c4604061138861552c565b600e60008282546112d5919061552c565b90915550506512309ce54000600f55565b6112f03382613320565b6113625760405162461bcd60e51b815260206004820152603160248201527f4552433732313a207472616e736665722063616c6c6572206973206e6f74206f60448201527f776e6572206e6f7220617070726f766564000000000000000000000000000000606482015260840161050b565b6111c0838383613417565b6000828152600a602052604090206001015461138981336135fc565b6111c0838361367c565b600061139e836120d0565b82106114125760405162461bcd60e51b815260206004820152602b60248201527f455243373231456e756d657261626c653a206f776e657220696e646578206f7560448201527f74206f6620626f756e6473000000000000000000000000000000000000000000606482015260840161050b565b506001600160a01b03919091166000908152600660209081526040808320938352929052205490565b6001600160a01b03811633146114b95760405162461bcd60e51b815260206004820152602f60248201527f416363657373436f6e74726f6c3a2063616e206f6e6c792072656e6f756e636560448201527f20726f6c657320666f722073656c660000000000000000000000000000000000606482015260840161050b565b6114c3828261371e565b5050565b6114d082611b6b565b6001600160a01b0316336001600160a01b0316146115195760405162461bcd60e51b815260040161050b906020808252600490820152630453031360e41b604082015260600190565b60008281526014602052604080822060010180547fffffff0000000000000000000000000000000000000000ffffffffffffffffff16600160481b6001600160a01b038616908102919091179091559051909184917fafa5959eb8823d589ec08c28f3effdde6546d1102288f3ba855119af25e3bbba9190a35050565b3360009081527fd097c2ba9c9f8e2dcc0db7b99113293b0940e94d6b5c6f2698d589381e9782e7602052604090205460ff166115fd5760405162461bcd60e51b815260040161050b9060208082526004908201526308a6062760e31b604082015260600190565b6116277f2fa3586e1228a6d020f44df84a4695dcd1cfcb55a51cd832563c729d866522ff8261136d565b50565b6111c083838360405180602001604052806000815250612b30565b3360009081527fd097c2ba9c9f8e2dcc0db7b99113293b0940e94d6b5c6f2698d589381e9782e7602052604090205460ff166116ac5760405162461bcd60e51b815260040161050b9060208082526004908201526308a6062760e31b604082015260600190565b6000601054116117005760405162461bcd60e51b815260040161050b9060208082526004908201527f4530313900000000000000000000000000000000000000000000000000000000604082015260600190565b60108054600091829055604051909190339083908381818185875af1925050503d806000811461174c576040519150601f19603f3d011682016040523d82523d6000602084013e611751565b606091505b50509050806114c35760405162461bcd60e51b815260040161050b906020808252600490820152630453032360e41b604082015260600190565b3360009081527f61452436a62565ab2cbed6a23d441329fc7a4b9f7fa5613961bdfeb3b7247f6d602052604090205460ff166117f25760405162461bcd60e51b815260040161050b906020808252600490820152634530313760e01b604082015260600190565b6012805466ff000000000000191666010000000000001790556040517f5482c0653ae6084c9c4091da0728c40dc90c385f432b3cf5f6a5a5df5a22919690600090a1565b600061184160085490565b82106118b55760405162461bcd60e51b815260206004820152602c60248201527f455243373231456e756d657261626c653a20676c6f62616c20696e646578206f60448201527f7574206f6620626f756e64730000000000000000000000000000000000000000606482015260840161050b565b600882815481106118c8576118c8615544565b90600052602060002001549050919050565b6012546601000000000000900460ff1661191f5760405162461bcd60e51b815260040161050b906020808252600490820152634530303960e01b604082015260600190565b61192881611b6b565b6001600160a01b0316336001600160a01b0316146119715760405162461bcd60e51b815260040161050b906020808252600490820152630453031360e41b604082015260600190565b60008181526013602052604090205460ff16156119b95760405162461bcd60e51b815260040161050b906020808252600490820152632298189960e11b604082015260600190565b600081815260146020526040902060019081015465010000000000900461ffff161015611a2a5760405162461bcd60e51b815260040161050b9060208082526004908201527f4530313300000000000000000000000000000000000000000000000000000000604082015260600190565b600081815260146020526040902060019081018054600590611a5a90849065010000000000900461ffff1661555a565b92506101000a81548161ffff021916908361ffff160217905550611a7f8160016137a1565b60008281526014602052604090819020600101805461ffff93909316600160381b0268ffff000000000000001990931692909217909155517fdcc2145292317879f6319461deaed4ada2422f436a0b0e15f2af0e60c637d12190611ae69083815260200190565b60405180910390a150565b3360009081527fd097c2ba9c9f8e2dcc0db7b99113293b0940e94d6b5c6f2698d589381e9782e7602052604090205460ff16611b585760405162461bcd60e51b815260040161050b9060208082526004908201526308a6062760e31b604082015260600190565b80516114c3906015906020840190614ff5565b6000818152600260205260408120546001600160a01b031680610ec25760405162461bcd60e51b815260206004820152602960248201527f4552433732313a206f776e657220717565727920666f72206e6f6e657869737460448201527f656e7420746f6b656e0000000000000000000000000000000000000000000000606482015260840161050b565b6012546601000000000000900460ff16611c3b5760405162461bcd60e51b815260040161050b906020808252600490820152634530303960e01b604082015260600190565b611c4481611b6b565b6001600160a01b0316336001600160a01b031614611c8d5760405162461bcd60e51b815260040161050b906020808252600490820152630453031360e41b604082015260600190565b60008181526013602052604090205460ff16611ced5760405162461bcd60e51b815260040161050b9060208082526004908201527f4530313100000000000000000000000000000000000000000000000000000000604082015260600190565b6000611cf761390d565b90506000611d0483613e70565b6000848152601360209081526040808320805460ff19169055805161012081018252868152878452601483528184206001015460ff16151592810192909252929350909181018383602002015160ff16815260200183600160048110611d6c57611d6c615544565b602002015160ff16815260200183600260048110611d8c57611d8c615544565b602002015160ff16815260200183600360048110611dac57611dac615544565b6020908102919091015160ff168252600087815260148083526040808320600181015465010000000000810461ffff1687870152918601849052600160481b9091046001600160a01b0316606090950194909452908890528152825180519394508493611e1c9284920190614ff5565b5060208201516001909101805460408401516060850151608086015160a087015160c088015160e0890151610100998a01516001600160a01b0316600160481b027fffffff0000000000000000000000000000000000000000ffffffffffffffffff61ffff928316600160381b02167fffffff00000000000000000000000000000000000000000000ffffffffffffff92909316650100000000000266ffff00000000001960ff958616640100000000021666ffffff000000001996861663010000000263ff0000001998871662010000029890981663ffff00001999909616909c0261ff00199b15159b909b1661ffff19909916989098179990991795909516919091179290921716959095179190911716929092171790556000611f4285826137a1565b600086815260146020526040808220600101805468ffff000000000000001916600160381b61ffff8616021790555191925086917fb91faaa78142ff7cf17e2901f700062d893e98dae6eb9d835fd56f012c0696069190a25050505050565b3360009081527f61452436a62565ab2cbed6a23d441329fc7a4b9f7fa5613961bdfeb3b7247f6d602052604090205460ff166120085760405162461bcd60e51b815260040161050b906020808252600490820152634530313760e01b604082015260600190565b60125462010000900460ff16156120635760405162461bcd60e51b815260040161050b9060208082526004908201527f4530303700000000000000000000000000000000000000000000000000000000604082015260600190565b6012805464ffffff000019166401000100001790556040517f1bbe80213228404e276963f9e286d445ba1e5609daacc5098b97ad3783da4d9790600090a16120ae61010b600461552c565b600e60008282546120bf919061552c565b9091555050655af3107a4000600f55565b60006001600160a01b03821661214e5760405162461bcd60e51b815260206004820152602a60248201527f4552433732313a2062616c616e636520717565727920666f7220746865207a6560448201527f726f206164647265737300000000000000000000000000000000000000000000606482015260840161050b565b506001600160a01b031660009081526003602052604090205490565b6002600b5414156121bd5760405162461bcd60e51b815260206004820152601f60248201527f5265656e7472616e637947756172643a207265656e7472616e742063616c6c00604482015260640161050b565b6002600b5580158015906121d25750600a8111155b6122205760405162461bcd60e51b815260040161050b9060208082526004908201527f4530303100000000000000000000000000000000000000000000000000000000604082015260600190565b80600f5461222e919061557d565b34101561227f5760405162461bcd60e51b815260040161050b9060208082526004908201527f4530303200000000000000000000000000000000000000000000000000000000604082015260600190565b600e5481600c54612290919061552c565b11156122c75760405162461bcd60e51b815260040161050b906020808252600490820152634530303360e01b604082015260600190565b60005b8181101561230c576001600c60008282546122e5919061552c565b925050819055506122fa33600c54600061402a565b806123048161559c565b9150506122ca565b50506001600b55565b6002600b5414156123685760405162461bcd60e51b815260206004820152601f60248201527f5265656e7472616e637947756172643a207265656e7472616e742063616c6c00604482015260640161050b565b6002600b553360009081527fd097c2ba9c9f8e2dcc0db7b99113293b0940e94d6b5c6f2698d589381e9782e7602052604090205460ff166123d45760405162461bcd60e51b815260040161050b9060208082526004908201526308a6062760e31b604082015260600190565b6040816011546123e4919061552c565b11156124345760405162461bcd60e51b815260040161050b9060208082526004908201527f4530303400000000000000000000000000000000000000000000000000000000604082015260600190565b600e5481600c54612445919061552c565b111561247c5760405162461bcd60e51b815260040161050b906020808252600490820152634530303360e01b604082015260600190565b806011600082825461248e919061552c565b90915550600090505b8181101561230c576001600c60008282546124b2919061552c565b925050819055506124c733600c54600061402a565b806124d18161559c565b915050612497565b3360009081527fd097c2ba9c9f8e2dcc0db7b99113293b0940e94d6b5c6f2698d589381e9782e7602052604090205460ff166125405760405162461bcd60e51b815260040161050b9060208082526004908201526308a6062760e31b604082015260600190565b6116277f6a64baf327d646d1bca72653e2a075d15fd6ac6d8cbd7f6ee03fc55875e0fa888261136d565b3360009081527f61452436a62565ab2cbed6a23d441329fc7a4b9f7fa5613961bdfeb3b7247f6d602052604081205460ff166125d15760405162461bcd60e51b815260040161050b906020808252600490820152634530313760e01b604082015260600190565b612b67600d541061260d5760405162461bcd60e51b815260040161050b906020808252600490820152634530303360e01b604082015260600190565b6001600d6000828254612620919061552c565b9250508190555061263582600d54600161402a565b50600d545b919050565b606060018054610f7b906154db565b612656615079565b60008281526013602052604090205460ff161561269e5760405162461bcd60e51b815260040161050b906020808252600490820152632298189960e11b604082015260600190565b600082815260146020526040812060010154600160381b900461ffff16906126c5846141f3565b91505060008082600014156126dc57506000905060105b82600114156126f157506010905060206126f9565b506020905060405b612701615079565b61ffff851661270e615098565b601082901b65fffff000000016600c83811b650fffff00000016600885811b64fffff0000016600487811b640fffff00001663fffff00089169189901c630fffff00169589901c620fffff169389901c62fffff0169390931794909417939093171791909117171781600063ffffffff9290921660209092020152601482901b63f000000016601083901b630f00000016600c84901b62f0000016600885811b620f000016600487811b61f00016610f0089169389901c600f169189901c60f0169190911792909217919091171717171781600163ffffffff9290921660209092020152601882901b63f000000016601483901b630f00000016601084901b62f0000016600c85901b620f000016600886901b61f00016600487811b610f00169088901c600f1660f089161717171717171781600263ffffffff909216602092909202015260f0600483901b16600f831617610f00600884901b161761f000600c84901b1617620f0000601084901b161762f00000601484901b1617630f000000601884901b161763f0000000601c84901b161781600363ffffffff909216602092909202015260005b60208161ffff16101561292257816128d16004836155cd565b61ffff16600481106128e5576128e5615544565b6020020151848261ffff166020811061290057612900615544565b63ffffffff90921660209290920201528061291a816155ee565b9150506128b8565b5060008561293a612933828861555a565b8a88612bbe565b6129449190615610565b905060005b8161ffff168161ffff1610156129db57600061296760208b84612bbe565b9050600061297760208385612bbe565b9050868161ffff166020811061298f5761298f615544565b602002015161299f83600261582b565b18878261ffff16602081106129b6576129b6615544565b63ffffffff9092166020929092020152508190506129d3816155ee565b915050612949565b50929998505050505050505050565b6001600160a01b038216331415612a435760405162461bcd60e51b815260206004820152601960248201527f4552433732313a20617070726f766520746f2063616c6c657200000000000000604482015260640161050b565b3360008181526005602090815260408083206001600160a01b03871680855290835292819020805460ff191686151590811790915590519081529192917f17307eab39ab6107e8899845ad3d59bd9653f200f220920489ca2b5937696c31910160405180910390a35050565b3360009081527f61452436a62565ab2cbed6a23d441329fc7a4b9f7fa5613961bdfeb3b7247f6d602052604090205460ff16612b165760405162461bcd60e51b815260040161050b906020808252600490820152634530313760e01b604082015260600190565b6004600e6000828254612b29919061552c565b9091555050565b612b3a3383613320565b612bac5760405162461bcd60e51b815260206004820152603160248201527f4552433732313a207472616e736665722063616c6c6572206973206e6f74206f60448201527f776e6572206e6f7220617070726f766564000000000000000000000000000000606482015260840161050b565b612bb88484848461439f565b50505050565b6040517fffff00000000000000000000000000000000000000000000000000000000000060f084811b8216602084015283901b16602282015260009081906024016040516020818303038152906040528051906020012060f01c90508481612c2691906155cd565b95945050505050565b612c37615098565b50604080516080810182526000838152601460208181528483206001015460ff6101008204811686526201000082048116838701526401000000008204811696860196909652959092529052630100000090920416606082015290565b6000818152600260205260409020546060906001600160a01b0316612d215760405162461bcd60e51b815260206004820152602f60248201527f4552433732314d657461646174613a2055524920717565727920666f72206e6f60448201527f6e6578697374656e7420746f6b656e0000000000000000000000000000000000606482015260840161050b565b6000612d2b61441d565b90506000815111612d4b5760405180602001604052806000815250612d76565b80612d558461442c565b604051602001612d66929190615841565b6040516020818303038152906040525b9392505050565b6000828152600a6020526040902060010154612d9981336135fc565b6111c0838361371e565b3360009081527f61452436a62565ab2cbed6a23d441329fc7a4b9f7fa5613961bdfeb3b7247f6d602052604090205460ff16612e0a5760405162461bcd60e51b815260040161050b906020808252600490820152634530313760e01b604082015260600190565b601254610100900460ff1615612e645760405162461bcd60e51b815260040161050b9060208082526004908201527f4530303600000000000000000000000000000000000000000000000000000000604082015260600190565b6012805463ff00ff00191663010001001790556040517fce28fb74a9fed93421bef1c67a577ec8bdd8f93d99962f27a4b52207e9e80dd390600090a1610d05600e6000828254612eb4919061552c565b9091555050652d79883d2000600f55565b3360009081527f61452436a62565ab2cbed6a23d441329fc7a4b9f7fa5613961bdfeb3b7247f6d602052604090205460ff16612f2c5760405162461bcd60e51b815260040161050b906020808252600490820152634530313760e01b604082015260600190565b6012805464ff0000000019169055565b3360009081527f61452436a62565ab2cbed6a23d441329fc7a4b9f7fa5613961bdfeb3b7247f6d602052604090205460ff16612fa35760405162461bcd60e51b815260040161050b906020808252600490820152634530313760e01b604082015260600190565b60125465010000000000900460ff16156130015760405162461bcd60e51b815260040161050b9060208082526004908201527f4530303800000000000000000000000000000000000000000000000000000000604082015260600190565b6012805465ff0000000000191665010000000000179055613022600161452a565b61162761302f6001611b6b565b826001613417565b3360009081527f61452436a62565ab2cbed6a23d441329fc7a4b9f7fa5613961bdfeb3b7247f6d602052604090205460ff1661309e5760405162461bcd60e51b815260040161050b906020808252600490820152634530313760e01b604082015260600190565b60006130a983611b6b565b6001600160a01b031614156131025760405162461bcd60e51b815260040161050b9060208082526004908201527f4530313400000000000000000000000000000000000000000000000000000000604082015260600190565b600081116131545760405162461bcd60e51b815260040161050b9060208082526004908201527f4530313500000000000000000000000000000000000000000000000000000000604082015260600190565b60008281526014602052604090206001015465010000000000900461ffff16610400613180838361552c565b11156131b3576000838152601460205260409020600101805466ffff0000000000191666040000000000001790556131ff565b600083815260146020526040902060010180548391906005906131e490849065010000000000900461ffff16615610565b92506101000a81548161ffff021916908361ffff1602179055505b6000838152601460209081526040918290206001015482518581526501000000000090910461ffff169181019190915284917f9e1a49ceab2280ac408738e597bc0b5694717f3378c3ac2300d8e2b0885e1163910160405180910390a2505050565b3b151590565b60006001600160e01b031982167f7965db0b000000000000000000000000000000000000000000000000000000001480610ec25750610ec282614712565b6000818152600460205260409020805473ffffffffffffffffffffffffffffffffffffffff19166001600160a01b03841690811790915581906132e782611b6b565b6001600160a01b03167f8c5be1e5ebec7d5bd14f71427d1e84f3dd0314c0f7b2291e5b200ac8c7c3b92560405160405180910390a45050565b6000818152600260205260408120546001600160a01b03166133995760405162461bcd60e51b815260206004820152602c60248201527f4552433732313a206f70657261746f7220717565727920666f72206e6f6e657860448201526b34b9ba32b73a103a37b5b2b760a11b606482015260840161050b565b60006133a483611b6b565b9050806001600160a01b0316846001600160a01b031614806133df5750836001600160a01b03166133d484610ffe565b6001600160a01b0316145b8061340f57506001600160a01b0380821660009081526005602090815260408083209388168352929052205460ff165b949350505050565b826001600160a01b031661342a82611b6b565b6001600160a01b0316146134a65760405162461bcd60e51b815260206004820152602960248201527f4552433732313a207472616e73666572206f6620746f6b656e2074686174206960448201527f73206e6f74206f776e0000000000000000000000000000000000000000000000606482015260840161050b565b6001600160a01b0382166135215760405162461bcd60e51b8152602060048201526024808201527f4552433732313a207472616e7366657220746f20746865207a65726f2061646460448201527f7265737300000000000000000000000000000000000000000000000000000000606482015260840161050b565b61352c838383614750565b6135376000826132a5565b6001600160a01b0383166000908152600360205260408120805460019290613560908490615867565b90915550506001600160a01b038216600090815260036020526040812080546001929061358e90849061552c565b9091555050600081815260026020526040808220805473ffffffffffffffffffffffffffffffffffffffff19166001600160a01b0386811691821790925591518493918716917fddf252ad1be2c89b69c2b068fc378daa952ba7f163c4a11628f55a4df523b3ef91a4505050565b6000828152600a602090815260408083206001600160a01b038516845290915290205460ff166114c35761363a816001600160a01b03166014614808565b613645836020614808565b60405160200161365692919061587e565b60408051601f198184030181529082905262461bcd60e51b825261050b9160040161516f565b6000828152600a602090815260408083206001600160a01b038516845290915290205460ff166114c3576000828152600a602090815260408083206001600160a01b03851684529091529020805460ff191660011790556136da3390565b6001600160a01b0316816001600160a01b0316837f2f8788117e7eff1d82e926ec794901d17c78024a50270940304540a733656f0d60405160405180910390a45050565b6000828152600a602090815260408083206001600160a01b038516845290915290205460ff16156114c3576000828152600a602090815260408083206001600160a01b0385168085529252808320805460ff1916905551339285917ff6391f5c32d9c69d2a47ea670b442974b53935d1edc7fd64eb21e047a839171b9190a45050565b6000806137ad846141f3565b50905060008082600114156137c8575060079050600c6137d0565b506004905060085b600080806137de858561555a565b90506000886137f9576137f4620100008b6149cd565b613817565b60008a815260146020526040902060010154600160381b900461ffff165b9050600086613827848d85612bbe565b6138319190615610565b905060005b8161ffff168161ffff1610156138755761385260108285612bbe565b9450856138608660026158ff565b1795508061386d816155ee565b915050613836565b50600061388760648461ffff166149cd565b905088600214156138cd5760058161ffff16111580156138a557508a155b156138bb57859950505050505050505050610ec2565b85199950505050505050505050610ec2565b886138fc5760058161ffff16111580156138e557508a155b156138fc5785199950505050505050505050610ec2565b859950505050505050505050610ec2565b601254606090640100000000900460ff1615613bb25760408051600380825260808201909252600091816020015b606081526020019060019003908161393b579050509050601660008154811061396657613966615544565b90600052602060002001805461397b906154db565b80601f01602080910402602001604051908101604052809291908181526020018280546139a7906154db565b80156139f45780601f106139c9576101008083540402835291602001916139f4565b820191906000526020600020905b8154815290600101906020018083116139d757829003601f168201915b505050505081600081518110613a0c57613a0c615544565b60200260200101819052506016600181548110613a2b57613a2b615544565b906000526020600020018054613a40906154db565b80601f0160208091040260200160405190810160405280929190818152602001828054613a6c906154db565b8015613ab95780601f10613a8e57610100808354040283529160200191613ab9565b820191906000526020600020905b815481529060010190602001808311613a9c57829003601f168201915b505050505081600181518110613ad157613ad1615544565b60200260200101819052506016600281548110613af057613af0615544565b906000526020600020018054613b05906154db565b80601f0160208091040260200160405190810160405280929190818152602001828054613b31906154db565b8015613b7e5780601f10613b5357610100808354040283529160200191613b7e565b820191906000526020600020905b815481529060010190602001808311613b6157829003601f168201915b505050505081600281518110613b9657613b96615544565b6020026020010181905250613bac600382614a48565b91505090565b6012546301000000900460ff1615613d915760408051600380825260808201909252600091816020015b6060815260200190600190039081613bdc5790505090506016600681548110613c0757613c07615544565b906000526020600020018054613c1c906154db565b80601f0160208091040260200160405190810160405280929190818152602001828054613c48906154db565b8015613c955780601f10613c6a57610100808354040283529160200191613c95565b820191906000526020600020905b815481529060010190602001808311613c7857829003601f168201915b505050505081600081518110613cad57613cad615544565b60200260200101819052506016600781548110613ccc57613ccc615544565b906000526020600020018054613ce1906154db565b80601f0160208091040260200160405190810160405280929190818152602001828054613d0d906154db565b8015613d5a5780601f10613d2f57610100808354040283529160200191613d5a565b820191906000526020600020905b815481529060010190602001808311613d3d57829003601f168201915b505050505081600181518110613d7257613d72615544565b60200260200101819052506016600881548110613af057613af0615544565b6016805460408051602080840282018101909252828152613e6b939091839060009084015b82821015613e62578382906000526020600020018054613dd5906154db565b80601f0160208091040260200160405190810160405280929190818152602001828054613e01906154db565b8015613e4e5780601f10613e2357610100808354040283529160200191613e4e565b820191906000526020600020905b815481529060010190602001808311613e3157829003601f168201915b505050505081526020019060010190613db6565b50505050614a48565b905090565b613e78615098565b60008281526014602052604090206001015460119060179060ff1615613ea057506014905060195b6000613eac8383615867565b90506000613eba82876149cd565b613ec4908561552c565b90506000613ed5838360ff166149cd565b613edf908661552c565b90506000613ef0848360ff166149cd565b613efa908761552c565b90506000613f0b858360ff166149cd565b613f15908861552c565b6040805160808101825260ff8088168252868116602083015285811692820192909252908216606082015290915060005b600481101561401c576000613f5c826004615867565b60408051426020820152016040516020818303038152906040528051906020012060001c613f8a9190615912565b613f94908361552c565b90506000838260048110613faa57613faa615544565b60200201519050838360048110613fc357613fc3615544565b6020020151848360048110613fda57613fda615544565b60ff909216602092909202015280848460048110613ffa57613ffa615544565b60ff9092166020929092020152508190506140148161559c565b915050613f46565b509998505050505050505050565b60038115614036575060055b6040805161014081018252600061012082018181528252841515602080840191909152828401829052606083018290526080830182905260a0830182905260ff851660c084015260e0830182905261010083018290528682526014815292902081518051929384936140ab9284920190614ff5565b50602082810151600192830180546040808701516060880151608089015160a08a015160c08b015160e08c01516101009c8d015161ffff1990981699151561ff0019169990991760ff958616909c029b909b1763ffff00001916620100009385169390930263ff0000001916929092176301000000918416919091021766ffffff000000001916640100000000929091169190910266ffff00000000001916176501000000000061ffff98891602177fffffff00000000000000000000000000000000000000000000ffffffffffffff16600160381b97909416969096027fffffff0000000000000000000000000000000000000000ffffffffffffffffff1692909217600160481b6001600160a01b03909316929092029190911790556000878152601390915291909120805460ff191690911790556141ec8585614a8e565b5050505050565b6000818152601460205260408120805482918291614210906154db565b80601f016020809104026020016040519081016040528092919081815260200182805461423c906154db565b80156142895780601f1061425e57610100808354040283529160200191614289565b820191906000526020600020905b81548152906001019060200180831161426c57829003601f168201915b50505050509050606060005b60165481101561439157601681815481106142b2576142b2615544565b9060005260206000200180546142c7906154db565b80601f01602080910402602001604051908101604052809291908181526020018280546142f3906154db565b80156143405780601f1061431557610100808354040283529160200191614340565b820191906000526020600020905b81548152906001019060200180831161432357829003601f168201915b5050505050915081805190602001208380519060200120141561437f57614368600382615926565b614373600383615912565b94509450505050915091565b806143898161559c565b915050614295565b506000958695509350505050565b6143aa848484613417565b6143b684848484614aa8565b612bb85760405162461bcd60e51b815260206004820152603260248201527f4552433732313a207472616e7366657220746f206e6f6e20455243373231526560448201527131b2b4bb32b91034b6b83632b6b2b73a32b960711b606482015260840161050b565b606060158054610f7b906154db565b6060816144505750506040805180820190915260018152600360fc1b602082015290565b8160005b811561447a57806144648161559c565b91506144739050600a83615926565b9150614454565b60008167ffffffffffffffff81111561449557614495615246565b6040519080825280601f01601f1916602001820160405280156144bf576020820181803683370190505b5090505b841561340f576144d4600183615867565b91506144e1600a86615912565b6144ec90603061552c565b60f81b81838151811061450157614501615544565b60200101906001600160f81b031916908160001a905350614523600a86615926565b94506144c3565b6000818152601360209081526040808320805460ff19169055805161016081018252600c61012082019081527f54727565204e65757472616c0000000000000000000000000000000000000000610140830152815260018184018190526019828401819052606083018190526080830181905260a083015261040060c083015260e08201859052858552601480855292852090810154600160481b90046001600160a01b031661010083015293859052908252805180519193849390926145f49284920190614ff5565b5060208201516001909101805460408401516060850151608086015160a087015160c088015160e0890151610100998a01516001600160a01b0316600160481b027fffffff0000000000000000000000000000000000000000ffffffffffffffffff61ffff928316600160381b02167fffffff00000000000000000000000000000000000000000000ffffffffffffff92909316650100000000000266ffff00000000001960ff958616640100000000021666ffffff000000001996861663010000000263ff0000001998871662010000029890981663ffff00001999909616909c0261ff00199b15159b909b1661ffff19909916989098179990991795909516919091179290921716959095179190911716929092171790555050565b60006001600160e01b031982167f780e9d63000000000000000000000000000000000000000000000000000000001480610ec25750610ec282614bf1565b6001600160a01b0383166147ab576147a681600880546000838152600960205260408120829055600182018355919091527ff3f7a9fe364faab93b216da50a3214154f22a0a2b415b23a84c8169e8b636ee30155565b6147ce565b816001600160a01b0316836001600160a01b0316146147ce576147ce8382614c8c565b6001600160a01b0382166147e5576111c081614d29565b826001600160a01b0316826001600160a01b0316146111c0576111c08282614dd8565b6060600061481783600261557d565b61482290600261552c565b67ffffffffffffffff81111561483a5761483a615246565b6040519080825280601f01601f191660200182016040528015614864576020820181803683370190505b509050600360fc1b8160008151811061487f5761487f615544565b60200101906001600160f81b031916908160001a9053507f7800000000000000000000000000000000000000000000000000000000000000816001815181106148ca576148ca615544565b60200101906001600160f81b031916908160001a90535060006148ee84600261557d565b6148f990600161552c565b90505b600181111561497e577f303132333435363738396162636465660000000000000000000000000000000085600f166010811061493a5761493a615544565b1a60f81b82828151811061495057614950615544565b60200101906001600160f81b031916908160001a90535060049490941c936149778161593a565b90506148fc565b508315612d765760405162461bcd60e51b815260206004820181905260248201527f537472696e67733a20686578206c656e67746820696e73756666696369656e74604482015260640161050b565b60008083836149dd600143615867565b604080516020810194909452830191909152406060808301919091526bffffffffffffffffffffffff1941821b811660808401524460948401523390911b1660b482015260c80160408051601f198184030181529190528051602090910120905061340f8482615912565b60606000614a578460006149cd565b9050600083845183614a699190615912565b81518110614a7957614a79615544565b60200260200101519050809250505092915050565b6114c3828260405180602001604052806000815250614e1c565b60006001600160a01b0384163b15614be657604051630a85bd0160e11b81526001600160a01b0385169063150b7a0290614aec903390899088908890600401615951565b6020604051808303816000875af1925050508015614b27575060408051601f3d908101601f19168201909252614b249181019061598d565b60015b614bcc573d808015614b55576040519150601f19603f3d011682016040523d82523d6000602084013e614b5a565b606091505b508051614bc45760405162461bcd60e51b815260206004820152603260248201527f4552433732313a207472616e7366657220746f206e6f6e20455243373231526560448201527131b2b4bb32b91034b6b83632b6b2b73a32b960711b606482015260840161050b565b805181602001fd5b6001600160e01b031916630a85bd0160e11b14905061340f565b506001949350505050565b60006001600160e01b031982167f80ac58cd000000000000000000000000000000000000000000000000000000001480614c5457506001600160e01b031982167f5b5e139f00000000000000000000000000000000000000000000000000000000145b80610ec257507f01ffc9a7000000000000000000000000000000000000000000000000000000006001600160e01b0319831614610ec2565b60006001614c99846120d0565b614ca39190615867565b600083815260076020526040902054909150808214614cf6576001600160a01b03841660009081526006602090815260408083208584528252808320548484528184208190558352600790915290208190555b5060009182526007602090815260408084208490556001600160a01b039094168352600681528383209183525290812055565b600854600090614d3b90600190615867565b60008381526009602052604081205460088054939450909284908110614d6357614d63615544565b906000526020600020015490508060088381548110614d8457614d84615544565b6000918252602080832090910192909255828152600990915260408082208490558582528120556008805480614dbc57614dbc6159aa565b6001900381819060005260206000200160009055905550505050565b6000614de3836120d0565b6001600160a01b039093166000908152600660209081526040808320868452825280832085905593825260079052919091209190915550565b614e268383614e9a565b614e336000848484614aa8565b6111c05760405162461bcd60e51b815260206004820152603260248201527f4552433732313a207472616e7366657220746f206e6f6e20455243373231526560448201527131b2b4bb32b91034b6b83632b6b2b73a32b960711b606482015260840161050b565b6001600160a01b038216614ef05760405162461bcd60e51b815260206004820181905260248201527f4552433732313a206d696e7420746f20746865207a65726f2061646472657373604482015260640161050b565b6000818152600260205260409020546001600160a01b031615614f555760405162461bcd60e51b815260206004820152601c60248201527f4552433732313a20746f6b656e20616c7265616479206d696e74656400000000604482015260640161050b565b614f6160008383614750565b6001600160a01b0382166000908152600360205260408120805460019290614f8a90849061552c565b9091555050600081815260026020526040808220805473ffffffffffffffffffffffffffffffffffffffff19166001600160a01b03861690811790915590518392907fddf252ad1be2c89b69c2b068fc378daa952ba7f163c4a11628f55a4df523b3ef908290a45050565b828054615001906154db565b90600052602060002090601f0160209004810192826150235760008555615069565b82601f1061503c57805160ff1916838001178555615069565b82800160010185558215615069579182015b8281111561506957825182559160200191906001019061504e565b506150759291506150b6565b5090565b6040518061040001604052806020906020820280368337509192915050565b60405180608001604052806004906020820280368337509192915050565b5b8082111561507557600081556001016150b7565b6001600160e01b03198116811461162757600080fd5b6000602082840312156150f357600080fd5b8135612d76816150cb565b60006020828403121561511057600080fd5b5035919050565b60005b8381101561513257818101518382015260200161511a565b83811115612bb85750506000910152565b6000815180845261515b816020860160208601615117565b601f01601f19169290920160200192915050565b602081526000612d766020830184615143565b80356001600160a01b038116811461263a57600080fd5b600080604083850312156151ac57600080fd5b6151b583615182565b946020939093013593505050565b6000806000606084860312156151d857600080fd5b6151e184615182565b92506151ef60208501615182565b9150604084013590509250925092565b6000806040838503121561521257600080fd5b8235915061522260208401615182565b90509250929050565b60006020828403121561523d57600080fd5b612d7682615182565b634e487b7160e01b600052604160045260246000fd5b600067ffffffffffffffff8084111561527757615277615246565b604051601f8501601f19908116603f0116810190828211818310171561529f5761529f615246565b816040528093508581528686860111156152b857600080fd5b858560208301376000602087830101525050509392505050565b6000602082840312156152e457600080fd5b813567ffffffffffffffff8111156152fb57600080fd5b8201601f8101841361530c57600080fd5b61340f8482356020840161525c565b6104008101818360005b6020808210615334575061534e565b825163ffffffff1684529283019290910190600101615325565b50505092915050565b6000806040838503121561536a57600080fd5b61537383615182565b91506020830135801515811461538857600080fd5b809150509250929050565b600080600080608085870312156153a957600080fd5b6153b285615182565b93506153c060208601615182565b925060408501359150606085013567ffffffffffffffff8111156153e357600080fd5b8501601f810187136153f457600080fd5b6154038782356020840161525c565b91505092959194509250565b803561ffff8116811461263a57600080fd5b60008060006060848603121561543657600080fd5b61543f8461540f565b925061544d6020850161540f565b915061545b6040850161540f565b90509250925092565b60808101818360005b600481101561534e57815160ff1683526020928301929091019060010161546d565b600080604083850312156154a257600080fd5b6154ab83615182565b915061522260208401615182565b600080604083850312156154cc57600080fd5b50508035926020909101359150565b600181811c908216806154ef57607f821691505b6020821081141561551057634e487b7160e01b600052602260045260246000fd5b50919050565b634e487b7160e01b600052601160045260246000fd5b6000821982111561553f5761553f615516565b500190565b634e487b7160e01b600052603260045260246000fd5b600061ffff8381169083168181101561557557615575615516565b039392505050565b600081600019048311821515161561559757615597615516565b500290565b60006000198214156155b0576155b0615516565b5060010190565b634e487b7160e01b600052601260045260246000fd5b600061ffff808416806155e2576155e26155b7565b92169190910692915050565b600061ffff8083168181141561560657615606615516565b6001019392505050565b600061ffff80831681851680830382111561562d5761562d615516565b01949350505050565b600181815b80851115615673578163ffffffff0482111561565957615659615516565b8085161561566657918102915b93841c939080029061563b565b509250929050565b600181815b80851115615673578161ffff0482111561569c5761569c615516565b808516156156a957918102915b93841c9390800290615680565b6000826156c557506001610ec2565b816156d257506000610ec2565b81600181146156e857600281146156f257615723565b6001915050610ec2565b60ff84111561570357615703615516565b6001841b915063ffffffff82111561571d5761571d615516565b50610ec2565b5060208310610133831016604e8410600b841016171561575a575081810a63ffffffff81111561575557615755615516565b610ec2565b6157648383615636565b8063ffffffff0482111561577a5761577a615516565b029392505050565b60008261579157506001610ec2565b8161579e57506000610ec2565b81600181146156e857600281146157b4576157dd565b60ff8411156157c5576157c5615516565b6001841b915061ffff82111561571d5761571d615516565b5060208310610133831016604e8410600b841016171561580d575081810a61ffff81111561575557615755615516565b615817838361567b565b8061ffff0482111561577a5761577a615516565b6000612d7661ffff841663ffffffff84166156b6565b60008351615853818460208801615117565b83519083019061562d818360208801615117565b60008282101561587957615879615516565b500390565b7f416363657373436f6e74726f6c3a206163636f756e74200000000000000000008152600083516158b6816017850160208801615117565b7f206973206d697373696e6720726f6c652000000000000000000000000000000060179184019182015283516158f3816028840160208801615117565b01602801949350505050565b600061ffff61340f818516828516615782565b600082615921576159216155b7565b500690565b600082615935576159356155b7565b500490565b60008161594957615949615516565b506000190190565b60006001600160a01b038087168352808616602084015250836040830152608060608301526159836080830184615143565b9695505050505050565b60006020828403121561599f57600080fd5b8151612d76816150cb565b634e487b7160e01b600052603160045260246000fdfea264697066735822122092873055496757e28a3bf3ead77d001ad2e69ef6ccb7e14c50e9ff7fd5e867f364736f6c634300080a00334552433732313a207472616e7366657220746f206e6f6e2045524337323152652fa3586e1228a6d020f44df84a4695dcd1cfcb55a51cd832563c729d866522ff68747470733a2f2f6d6574612e636f696e6c616e6465722e6f6e652f7365656b6572732f",
  "linkReferences": {},
  "deployedLinkReferences": {}
}