{
  "_format": "hh-sol-artifact-1",
  "contractName": "Seekers",
  "sourceName": "contracts/Seekers.sol",
  "abi": [
    {
      "inputs": [],
      "stateMutability": "nonpayable",
      "type": "constructor"
    },
    {
      "anonymous": false,
      "inputs": [
        {
          "indexed": true,
          "internalType": "address",
          "name": "owner",
          "type": "address"
        },
        {
          "indexed": true,
          "internalType": "address",
          "name": "approved",
          "type": "address"
        },
        {
          "indexed": true,
          "internalType": "uint256",
          "name": "tokenId",
          "type": "uint256"
        }
      ],
      "name": "Approval",
      "type": "event"
    },
    {
      "anonymous": false,
      "inputs": [
        {
          "indexed": true,
          "internalType": "address",
          "name": "owner",
          "type": "address"
        },
        {
          "indexed": true,
          "internalType": "address",
          "name": "operator",
          "type": "address"
        },
        {
          "indexed": false,
          "internalType": "bool",
          "name": "approved",
          "type": "bool"
        }
      ],
      "name": "ApprovalForAll",
      "type": "event"
    },
    {
      "anonymous": false,
      "inputs": [],
      "name": "CloakingAvailable",
      "type": "event"
    },
    {
      "anonymous": false,
      "inputs": [
        {
          "indexed": false,
          "internalType": "uint256",
          "name": "id",
          "type": "uint256"
        }
      ],
      "name": "DethscalesRerolled",
      "type": "event"
    },
    {
      "anonymous": false,
      "inputs": [],
      "name": "FirstMintActivated",
      "type": "event"
    },
    {
      "anonymous": false,
      "inputs": [
        {
          "indexed": true,
          "internalType": "uint256",
          "name": "seekerId",
          "type": "uint256"
        },
        {
          "indexed": false,
          "internalType": "uint256",
          "name": "powerAdded",
          "type": "uint256"
        },
        {
          "indexed": false,
          "internalType": "uint256",
          "name": "newPower",
          "type": "uint256"
        }
      ],
      "name": "PowerAdded",
      "type": "event"
    },
    {
      "anonymous": false,
      "inputs": [
        {
          "indexed": true,
          "internalType": "uint256",
          "name": "seekerId",
          "type": "uint256"
        },
        {
          "indexed": false,
          "internalType": "uint256",
          "name": "powerBurned",
          "type": "uint256"
        },
        {
          "indexed": false,
          "internalType": "uint256",
          "name": "newPower",
          "type": "uint256"
        }
      ],
      "name": "PowerBurned",
      "type": "event"
    },
    {
      "anonymous": false,
      "inputs": [
        {
          "indexed": true,
          "internalType": "bytes32",
          "name": "role",
          "type": "bytes32"
        },
        {
          "indexed": true,
          "internalType": "bytes32",
          "name": "previousAdminRole",
          "type": "bytes32"
        },
        {
          "indexed": true,
          "internalType": "bytes32",
          "name": "newAdminRole",
          "type": "bytes32"
        }
      ],
      "name": "RoleAdminChanged",
      "type": "event"
    },
    {
      "anonymous": false,
      "inputs": [
        {
          "indexed": true,
          "internalType": "bytes32",
          "name": "role",
          "type": "bytes32"
        },
        {
          "indexed": true,
          "internalType": "address",
          "name": "account",
          "type": "address"
        },
        {
          "indexed": true,
          "internalType": "address",
          "name": "sender",
          "type": "address"
        }
      ],
      "name": "RoleGranted",
      "type": "event"
    },
    {
      "anonymous": false,
      "inputs": [
        {
          "indexed": true,
          "internalType": "bytes32",
          "name": "role",
          "type": "bytes32"
        },
        {
          "indexed": true,
          "internalType": "address",
          "name": "account",
          "type": "address"
        },
        {
          "indexed": true,
          "internalType": "address",
          "name": "sender",
          "type": "address"
        }
      ],
      "name": "RoleRevoked",
      "type": "event"
    },
    {
      "anonymous": false,
      "inputs": [],
      "name": "SecondMintActivated",
      "type": "event"
    },
    {
      "anonymous": false,
      "inputs": [
        {
          "indexed": true,
          "internalType": "uint256",
          "name": "seekerId",
          "type": "uint256"
        }
      ],
      "name": "SeekerCloaked",
      "type": "event"
    },
    {
      "anonymous": false,
      "inputs": [
        {
          "indexed": true,
          "internalType": "uint256",
          "name": "seekerId",
          "type": "uint256"
        },
        {
          "indexed": true,
          "internalType": "address",
          "name": "clan",
          "type": "address"
        }
      ],
      "name": "SeekerDeclaredToClan",
      "type": "event"
    },
    {
      "anonymous": false,
      "inputs": [],
      "name": "ThirdMintActivated",
      "type": "event"
    },
    {
      "anonymous": false,
      "inputs": [
        {
          "indexed": true,
          "internalType": "address",
          "name": "from",
          "type": "address"
        },
        {
          "indexed": true,
          "internalType": "address",
          "name": "to",
          "type": "address"
        },
        {
          "indexed": true,
          "internalType": "uint256",
          "name": "tokenId",
          "type": "uint256"
        }
      ],
      "name": "Transfer",
      "type": "event"
    },
    {
      "inputs": [],
      "name": "BIRTHSEEKERPOWERSTART",
      "outputs": [
        {
          "internalType": "uint16",
          "name": "",
          "type": "uint16"
        }
      ],
      "stateMutability": "view",
      "type": "function"
    },
    {
      "inputs": [],
      "name": "DEFAULT_ADMIN_ROLE",
      "outputs": [
        {
          "internalType": "bytes32",
          "name": "",
          "type": "bytes32"
        }
      ],
      "stateMutability": "view",
      "type": "function"
    },
    {
      "inputs": [],
      "name": "DETHSCALEREROLLCOST",
      "outputs": [
        {
          "internalType": "uint16",
          "name": "",
          "type": "uint16"
        }
      ],
      "stateMutability": "view",
      "type": "function"
    },
    {
      "inputs": [],
      "name": "FIRSTMINT",
      "outputs": [
        {
          "internalType": "uint256",
          "name": "",
          "type": "uint256"
        }
      ],
      "stateMutability": "view",
      "type": "function"
    },
    {
      "inputs": [],
      "name": "FIRSTMINTPRICE",
      "outputs": [
        {
          "internalType": "uint256",
          "name": "",
          "type": "uint256"
        }
      ],
      "stateMutability": "view",
      "type": "function"
    },
    {
      "inputs": [],
      "name": "GAME_ROLE",
      "outputs": [
        {
          "internalType": "bytes32",
          "name": "",
          "type": "bytes32"
        }
      ],
      "stateMutability": "view",
      "type": "function"
    },
    {
      "inputs": [],
      "name": "KEEPERS_ROLE",
      "outputs": [
        {
          "internalType": "bytes32",
          "name": "",
          "type": "bytes32"
        }
      ],
      "stateMutability": "view",
      "type": "function"
    },
    {
      "inputs": [],
      "name": "MAXMINTABLE",
      "outputs": [
        {
          "internalType": "uint256",
          "name": "",
          "type": "uint256"
        }
      ],
      "stateMutability": "view",
      "type": "function"
    },
    {
      "inputs": [],
      "name": "MAXPOWER",
      "outputs": [
        {
          "internalType": "uint16",
          "name": "",
          "type": "uint16"
        }
      ],
      "stateMutability": "view",
      "type": "function"
    },
    {
      "inputs": [],
      "name": "MAXSEEKERS",
      "outputs": [
        {
          "internalType": "uint256",
          "name": "",
          "type": "uint256"
        }
      ],
      "stateMutability": "view",
      "type": "function"
    },
    {
      "inputs": [],
      "name": "SECONDMINT",
      "outputs": [
        {
          "internalType": "uint256",
          "name": "",
          "type": "uint256"
        }
      ],
      "stateMutability": "view",
      "type": "function"
    },
    {
      "inputs": [],
      "name": "SECONDMINTPRICE",
      "outputs": [
        {
          "internalType": "uint256",
          "name": "",
          "type": "uint256"
        }
      ],
      "stateMutability": "view",
      "type": "function"
    },
    {
      "inputs": [],
      "name": "SUMMONSEEKERPOWERSTART",
      "outputs": [
        {
          "internalType": "uint16",
          "name": "",
          "type": "uint16"
        }
      ],
      "stateMutability": "view",
      "type": "function"
    },
    {
      "inputs": [],
      "name": "THIRDMINT",
      "outputs": [
        {
          "internalType": "uint256",
          "name": "",
          "type": "uint256"
        }
      ],
      "stateMutability": "view",
      "type": "function"
    },
    {
      "inputs": [],
      "name": "THIRDMINTPRICE",
      "outputs": [
        {
          "internalType": "uint256",
          "name": "",
          "type": "uint256"
        }
      ],
      "stateMutability": "view",
      "type": "function"
    },
    {
      "inputs": [],
      "name": "THIRDMINT_INCR",
      "outputs": [
        {
          "internalType": "uint256",
          "name": "",
          "type": "uint256"
        }
      ],
      "stateMutability": "view",
      "type": "function"
    },
    {
      "inputs": [],
      "name": "THIRDMINT_TOTAL",
      "outputs": [
        {
          "internalType": "uint256",
          "name": "",
          "type": "uint256"
        }
      ],
      "stateMutability": "view",
      "type": "function"
    },
    {
      "inputs": [
        {
          "internalType": "uint16",
          "name": "mod",
          "type": "uint16"
        },
        {
          "internalType": "uint16",
          "name": "r1",
          "type": "uint16"
        },
        {
          "internalType": "uint16",
          "name": "r2",
          "type": "uint16"
        }
      ],
      "name": "_getRandomNumber16",
      "outputs": [
        {
          "internalType": "uint16",
          "name": "",
          "type": "uint16"
        }
      ],
      "stateMutability": "pure",
      "type": "function"
    },
    {
      "inputs": [],
      "name": "activateFirstMint",
      "outputs": [],
      "stateMutability": "nonpayable",
      "type": "function"
    },
    {
      "inputs": [],
      "name": "activateSecondMint",
      "outputs": [],
      "stateMutability": "nonpayable",
      "type": "function"
    },
    {
      "inputs": [],
      "name": "activateThirdMint",
      "outputs": [],
      "stateMutability": "nonpayable",
      "type": "function"
    },
    {
      "inputs": [
        {
          "internalType": "address",
          "name": "gameContract",
          "type": "address"
        }
      ],
      "name": "addGameContract",
      "outputs": [],
      "stateMutability": "nonpayable",
      "type": "function"
    },
    {
      "inputs": [
        {
          "internalType": "address",
          "name": "newKeeper",
          "type": "address"
        }
      ],
      "name": "addKeeper",
      "outputs": [],
      "stateMutability": "nonpayable",
      "type": "function"
    },
    {
      "inputs": [
        {
          "internalType": "uint256",
          "name": "id",
          "type": "uint256"
        },
        {
          "internalType": "uint256",
          "name": "powerToAdd",
          "type": "uint256"
        }
      ],
      "name": "addPower",
      "outputs": [],
      "stateMutability": "nonpayable",
      "type": "function"
    },
    {
      "inputs": [
        {
          "internalType": "address",
          "name": "to",
          "type": "address"
        },
        {
          "internalType": "uint256",
          "name": "tokenId",
          "type": "uint256"
        }
      ],
      "name": "approve",
      "outputs": [],
      "stateMutability": "nonpayable",
      "type": "function"
    },
    {
      "inputs": [
        {
          "internalType": "address",
          "name": "owner",
          "type": "address"
        }
      ],
      "name": "balanceOf",
      "outputs": [
        {
          "internalType": "uint256",
          "name": "",
          "type": "uint256"
        }
      ],
      "stateMutability": "view",
      "type": "function"
    },
    {
      "inputs": [
        {
          "internalType": "address",
          "name": "to",
          "type": "address"
        }
      ],
      "name": "birthSeeker",
      "outputs": [
        {
          "internalType": "uint256",
          "name": "",
          "type": "uint256"
        }
      ],
      "stateMutability": "nonpayable",
      "type": "function"
    },
    {
      "inputs": [
        {
          "internalType": "uint256",
          "name": "id",
          "type": "uint256"
        },
        {
          "internalType": "uint16",
          "name": "powerToBurn",
          "type": "uint16"
        }
      ],
      "name": "burnPower",
      "outputs": [],
      "stateMutability": "nonpayable",
      "type": "function"
    },
    {
      "inputs": [
        {
          "internalType": "uint256",
          "name": "id",
          "type": "uint256"
        }
      ],
      "name": "cloakSeeker",
      "outputs": [],
      "stateMutability": "nonpayable",
      "type": "function"
    },
    {
      "inputs": [],
      "name": "cloakingAvailable",
      "outputs": [
        {
          "internalType": "bool",
          "name": "",
          "type": "bool"
        }
      ],
      "stateMutability": "view",
      "type": "function"
    },
    {
      "inputs": [],
      "name": "currentBuyableSeekers",
      "outputs": [
        {
          "internalType": "uint256",
          "name": "",
          "type": "uint256"
        }
      ],
      "stateMutability": "view",
      "type": "function"
    },
    {
      "inputs": [],
      "name": "currentPrice",
      "outputs": [
        {
          "internalType": "uint256",
          "name": "",
          "type": "uint256"
        }
      ],
      "stateMutability": "view",
      "type": "function"
    },
    {
      "inputs": [
        {
          "internalType": "uint256",
          "name": "id",
          "type": "uint256"
        },
        {
          "internalType": "address",
          "name": "clanAddress",
          "type": "address"
        }
      ],
      "name": "declareForClan",
      "outputs": [],
      "stateMutability": "nonpayable",
      "type": "function"
    },
    {
      "inputs": [],
      "name": "endGoodsOnly",
      "outputs": [],
      "stateMutability": "nonpayable",
      "type": "function"
    },
    {
      "inputs": [],
      "name": "evilsOnly",
      "outputs": [
        {
          "internalType": "bool",
          "name": "",
          "type": "bool"
        }
      ],
      "stateMutability": "view",
      "type": "function"
    },
    {
      "inputs": [],
      "name": "firstMintActive",
      "outputs": [
        {
          "internalType": "bool",
          "name": "",
          "type": "bool"
        }
      ],
      "stateMutability": "view",
      "type": "function"
    },
    {
      "inputs": [
        {
          "internalType": "uint256",
          "name": "id",
          "type": "uint256"
        }
      ],
      "name": "getAlignmentById",
      "outputs": [
        {
          "internalType": "string",
          "name": "",
          "type": "string"
        }
      ],
      "stateMutability": "view",
      "type": "function"
    },
    {
      "inputs": [
        {
          "internalType": "uint256",
          "name": "id",
          "type": "uint256"
        }
      ],
      "name": "getApById",
      "outputs": [
        {
          "internalType": "uint8[4]",
          "name": "",
          "type": "uint8[4]"
        }
      ],
      "stateMutability": "view",
      "type": "function"
    },
    {
      "inputs": [
        {
          "internalType": "uint256",
          "name": "tokenId",
          "type": "uint256"
        }
      ],
      "name": "getApproved",
      "outputs": [
        {
          "internalType": "address",
          "name": "",
          "type": "address"
        }
      ],
      "stateMutability": "view",
      "type": "function"
    },
    {
      "inputs": [
        {
          "internalType": "uint256",
          "name": "id",
          "type": "uint256"
        }
      ],
      "name": "getClanById",
      "outputs": [
        {
          "internalType": "address",
          "name": "",
          "type": "address"
        }
      ],
      "stateMutability": "view",
      "type": "function"
    },
    {
      "inputs": [
        {
          "internalType": "uint256",
          "name": "id",
          "type": "uint256"
        }
      ],
      "name": "getCloakStatusById",
      "outputs": [
        {
          "internalType": "bool",
          "name": "",
          "type": "bool"
        }
      ],
      "stateMutability": "view",
      "type": "function"
    },
    {
      "inputs": [
        {
          "internalType": "uint256",
          "name": "id",
          "type": "uint256"
        }
      ],
      "name": "getDethscalesById",
      "outputs": [
        {
          "internalType": "uint16",
          "name": "",
          "type": "uint16"
        }
      ],
      "stateMutability": "view",
      "type": "function"
    },
    {
      "inputs": [
        {
          "internalType": "uint256",
          "name": "id",
          "type": "uint256"
        }
      ],
      "name": "getFullCloak",
      "outputs": [
        {
          "internalType": "uint32[32]",
          "name": "",
          "type": "uint32[32]"
        }
      ],
      "stateMutability": "view",
      "type": "function"
    },
    {
      "inputs": [
        {
          "internalType": "uint256",
          "name": "id",
          "type": "uint256"
        }
      ],
      "name": "getOriginById",
      "outputs": [
        {
          "internalType": "bool",
          "name": "",
          "type": "bool"
        }
      ],
      "stateMutability": "view",
      "type": "function"
    },
    {
      "inputs": [
        {
          "internalType": "uint256",
          "name": "id",
          "type": "uint256"
        }
      ],
      "name": "getPowerById",
      "outputs": [
        {
          "internalType": "uint16",
          "name": "",
          "type": "uint16"
        }
      ],
      "stateMutability": "view",
      "type": "function"
    },
    {
      "inputs": [
        {
          "internalType": "bytes32",
          "name": "role",
          "type": "bytes32"
        }
      ],
      "name": "getRoleAdmin",
      "outputs": [
        {
          "internalType": "bytes32",
          "name": "",
          "type": "bytes32"
        }
      ],
      "stateMutability": "view",
      "type": "function"
    },
    {
      "inputs": [],
      "name": "goodsOnly",
      "outputs": [
        {
          "internalType": "bool",
          "name": "",
          "type": "bool"
        }
      ],
      "stateMutability": "view",
      "type": "function"
    },
    {
      "inputs": [
        {
          "internalType": "bytes32",
          "name": "role",
          "type": "bytes32"
        },
        {
          "internalType": "address",
          "name": "account",
          "type": "address"
        }
      ],
      "name": "grantRole",
      "outputs": [],
      "stateMutability": "nonpayable",
      "type": "function"
    },
    {
      "inputs": [
        {
          "internalType": "bytes32",
          "name": "role",
          "type": "bytes32"
        },
        {
          "internalType": "address",
          "name": "account",
          "type": "address"
        }
      ],
      "name": "hasRole",
      "outputs": [
        {
          "internalType": "bool",
          "name": "",
          "type": "bool"
        }
      ],
      "stateMutability": "view",
      "type": "function"
    },
    {
      "inputs": [
        {
          "internalType": "address",
          "name": "owner",
          "type": "address"
        },
        {
          "internalType": "address",
          "name": "operator",
          "type": "address"
        }
      ],
      "name": "isApprovedForAll",
      "outputs": [
        {
          "internalType": "bool",
          "name": "",
          "type": "bool"
        }
      ],
      "stateMutability": "view",
      "type": "function"
    },
    {
      "inputs": [
        {
          "internalType": "uint256",
          "name": "summonCount",
          "type": "uint256"
        }
      ],
      "name": "keepersSummonSeeker",
      "outputs": [],
      "stateMutability": "nonpayable",
      "type": "function"
    },
    {
      "inputs": [],
      "name": "name",
      "outputs": [
        {
          "internalType": "string",
          "name": "",
          "type": "string"
        }
      ],
      "stateMutability": "view",
      "type": "function"
    },
    {
      "inputs": [
        {
          "internalType": "uint256",
          "name": "tokenId",
          "type": "uint256"
        }
      ],
      "name": "ownerOf",
      "outputs": [
        {
          "internalType": "address",
          "name": "",
          "type": "address"
        }
      ],
      "stateMutability": "view",
      "type": "function"
    },
    {
      "inputs": [],
      "name": "ownerWithdraw",
      "outputs": [],
      "stateMutability": "payable",
      "type": "function"
    },
    {
      "inputs": [],
      "name": "performCloakingCeremony",
      "outputs": [],
      "stateMutability": "nonpayable",
      "type": "function"
    },
    {
      "inputs": [],
      "name": "released",
      "outputs": [
        {
          "internalType": "bool",
          "name": "",
          "type": "bool"
        }
      ],
      "stateMutability": "view",
      "type": "function"
    },
    {
      "inputs": [
        {
          "internalType": "bytes32",
          "name": "role",
          "type": "bytes32"
        },
        {
          "internalType": "address",
          "name": "account",
          "type": "address"
        }
      ],
      "name": "renounceRole",
      "outputs": [],
      "stateMutability": "nonpayable",
      "type": "function"
    },
    {
      "inputs": [
        {
          "internalType": "uint256",
          "name": "id",
          "type": "uint256"
        }
      ],
      "name": "rerollDethscales",
      "outputs": [],
      "stateMutability": "nonpayable",
      "type": "function"
    },
    {
      "inputs": [
        {
          "internalType": "bytes32",
          "name": "role",
          "type": "bytes32"
        },
        {
          "internalType": "address",
          "name": "account",
          "type": "address"
        }
      ],
      "name": "revokeRole",
      "outputs": [],
      "stateMutability": "nonpayable",
      "type": "function"
    },
    {
      "inputs": [
        {
          "internalType": "address",
          "name": "from",
          "type": "address"
        },
        {
          "internalType": "address",
          "name": "to",
          "type": "address"
        },
        {
          "internalType": "uint256",
          "name": "tokenId",
          "type": "uint256"
        }
      ],
      "name": "safeTransferFrom",
      "outputs": [],
      "stateMutability": "nonpayable",
      "type": "function"
    },
    {
      "inputs": [
        {
          "internalType": "address",
          "name": "from",
          "type": "address"
        },
        {
          "internalType": "address",
          "name": "to",
          "type": "address"
        },
        {
          "internalType": "uint256",
          "name": "tokenId",
          "type": "uint256"
        },
        {
          "internalType": "bytes",
          "name": "_data",
          "type": "bytes"
        }
      ],
      "name": "safeTransferFrom",
      "outputs": [],
      "stateMutability": "nonpayable",
      "type": "function"
    },
    {
      "inputs": [],
      "name": "secondMintActive",
      "outputs": [
        {
          "internalType": "bool",
          "name": "",
          "type": "bool"
        }
      ],
      "stateMutability": "view",
      "type": "function"
    },
    {
      "inputs": [],
      "name": "seizureMintIncrement",
      "outputs": [],
      "stateMutability": "nonpayable",
      "type": "function"
    },
    {
      "inputs": [
        {
          "internalType": "address",
          "name": "winner",
          "type": "address"
        }
      ],
      "name": "sendWinnerSeeker",
      "outputs": [],
      "stateMutability": "nonpayable",
      "type": "function"
    },
    {
      "inputs": [
        {
          "internalType": "address",
          "name": "operator",
          "type": "address"
        },
        {
          "internalType": "bool",
          "name": "approved",
          "type": "bool"
        }
      ],
      "name": "setApprovalForAll",
      "outputs": [],
      "stateMutability": "nonpayable",
      "type": "function"
    },
    {
      "inputs": [
        {
          "internalType": "string",
          "name": "baseTokenURI",
          "type": "string"
        }
      ],
      "name": "setBaseURI",
      "outputs": [],
      "stateMutability": "nonpayable",
      "type": "function"
    },
    {
      "inputs": [
        {
          "internalType": "uint256",
          "name": "summonCount",
          "type": "uint256"
        }
      ],
      "name": "summonSeeker",
      "outputs": [],
      "stateMutability": "payable",
      "type": "function"
    },
    {
      "inputs": [
        {
          "internalType": "bytes4",
          "name": "interfaceId",
          "type": "bytes4"
        }
      ],
      "name": "supportsInterface",
      "outputs": [
        {
          "internalType": "bool",
          "name": "",
          "type": "bool"
        }
      ],
      "stateMutability": "view",
      "type": "function"
    },
    {
      "inputs": [],
      "name": "symbol",
      "outputs": [
        {
          "internalType": "string",
          "name": "",
          "type": "string"
        }
      ],
      "stateMutability": "view",
      "type": "function"
    },
    {
      "inputs": [],
      "name": "thirdMintActive",
      "outputs": [
        {
          "internalType": "bool",
          "name": "",
          "type": "bool"
        }
      ],
      "stateMutability": "view",
      "type": "function"
    },
    {
      "inputs": [
        {
          "internalType": "uint256",
          "name": "index",
          "type": "uint256"
        }
      ],
      "name": "tokenByIndex",
      "outputs": [
        {
          "internalType": "uint256",
          "name": "",
          "type": "uint256"
        }
      ],
      "stateMutability": "view",
      "type": "function"
    },
    {
      "inputs": [
        {
          "internalType": "address",
          "name": "owner",
          "type": "address"
        },
        {
          "internalType": "uint256",
          "name": "index",
          "type": "uint256"
        }
      ],
      "name": "tokenOfOwnerByIndex",
      "outputs": [
        {
          "internalType": "uint256",
          "name": "",
          "type": "uint256"
        }
      ],
      "stateMutability": "view",
      "type": "function"
    },
    {
      "inputs": [
        {
          "internalType": "uint256",
          "name": "tokenId",
          "type": "uint256"
        }
      ],
      "name": "tokenURI",
      "outputs": [
        {
          "internalType": "string",
          "name": "",
          "type": "string"
        }
      ],
      "stateMutability": "view",
      "type": "function"
    },
    {
      "inputs": [],
      "name": "totalSupply",
      "outputs": [
        {
          "internalType": "uint256",
          "name": "",
          "type": "uint256"
        }
      ],
      "stateMutability": "view",
      "type": "function"
    },
    {
      "inputs": [
        {
          "internalType": "address",
          "name": "from",
          "type": "address"
        },
        {
          "internalType": "address",
          "name": "to",
          "type": "address"
        },
        {
          "internalType": "uint256",
          "name": "tokenId",
          "type": "uint256"
        }
      ],
      "name": "transferFrom",
      "outputs": [],
      "stateMutability": "nonpayable",
      "type": "function"
    },
    {
      "stateMutability": "payable",
      "type": "receive"
    }
  ],
  "bytecode": "0x6000600c819055600d819055600e819055600f8190556010556011805466ffffffffffffff1916905560e06040526028608081815290620061b160a0398051620000529160149160209091019062000a6b565b506040805161016081018252600b61012082018181526a13185dd99d5b0811dbdbd960aa1b610140840152825282518084018452600c8082526b13995d5d1c985b0811dbdbd960a21b60208381019190915280850192909252845180860186528181526b10da185bdd1a58c811dbdbd960a21b818401528486015284518086018652600e81526d13185dd99d5b0813995d5d1c985b60921b818401526060850152845180860186528181526b151c9d594813995d5d1c985b60a21b81840152608085015284518086018652600f81526e10da185bdd1a58c813995d5d1c985b608a1b8184015260a0850152845180860186529283526a13185dd99d5b08115d9a5b60aa1b8383015260c0840192909252835180850185528281526b13995d5d1c985b08115d9a5b60a21b8183015260e084015283518085019094529083526b10da185bdd1a58c8115d9a5b60a21b90830152610100810191909152620001bd90601590600962000afa565b50348015620001cb57600080fd5b50604080518082018252601381527f436f696e6c616e6465723a205365656b657273000000000000000000000000006020808301918252835180850190945260048452635345454b60e01b9084015281519192916200022d9160009162000a6b565b5080516200024390600190602084019062000a6b565b50506001600b555062000258600033620002fc565b620002736000805160206200619183398151915233620002fc565b6200028f6000805160206200619183398151915260006200030c565b6001600c6000828254620002a4919062000bea565b9091555050600c54620002b990339062000357565b6040610643620002ce610d0561138862000bea565b620002da919062000bea565b620002e6919062000bea565b620002f390600162000bea565b600d5562000d36565b62000308828262000379565b5050565b6000828152600a6020526040808220600101805490849055905190918391839186917fbd79b86ffe0ab8e8776151514217cd7cacd52c909f66475c3af44e129f0b00ff9190a4505050565b620003088282604051806020016040528060008152506200041d60201b60201c565b6000828152600a602090815260408083206001600160a01b038516845290915290205460ff1662000308576000828152600a602090815260408083206001600160a01b03851684529091529020805460ff19166001179055620003d93390565b6001600160a01b0316816001600160a01b0316837f2f8788117e7eff1d82e926ec794901d17c78024a50270940304540a733656f0d60405160405180910390a45050565b62000429838362000499565b620004386000848484620005ef565b620004945760405162461bcd60e51b815260206004820152603260248201526000805160206200617183398151915260448201527131b2b4bb32b91034b6b83632b6b2b73a32b960711b60648201526084015b60405180910390fd5b505050565b6001600160a01b038216620004f15760405162461bcd60e51b815260206004820181905260248201527f4552433732313a206d696e7420746f20746865207a65726f206164647265737360448201526064016200048b565b6000818152600260205260409020546001600160a01b031615620005585760405162461bcd60e51b815260206004820152601c60248201527f4552433732313a20746f6b656e20616c7265616479206d696e7465640000000060448201526064016200048b565b620005666000838362000748565b6001600160a01b03821660009081526003602052604081208054600192906200059190849062000bea565b909155505060008181526002602052604080822080546001600160a01b0319166001600160a01b03861690811790915590518392907fddf252ad1be2c89b69c2b068fc378daa952ba7f163c4a11628f55a4df523b3ef908290a45050565b600062000610846001600160a01b03166200082460201b62002b411760201c565b156200073c57604051630a85bd0160e11b81526001600160a01b0385169063150b7a02906200064a90339089908890889060040162000c05565b6020604051808303816000875af192505050801562000688575060408051601f3d908101601f19168201909252620006859181019062000c80565b60015b62000721573d808015620006b9576040519150601f19603f3d011682016040523d82523d6000602084013e620006be565b606091505b508051620007195760405162461bcd60e51b815260206004820152603260248201526000805160206200617183398151915260448201527131b2b4bb32b91034b6b83632b6b2b73a32b960711b60648201526084016200048b565b805181602001fd5b6001600160e01b031916630a85bd0160e11b14905062000740565b5060015b949350505050565b620007608383836200049460201b620013031760201c565b6001600160a01b038316620007be57620007b881600880546000838152600960205260408120829055600182018355919091527ff3f7a9fe364faab93b216da50a3214154f22a0a2b415b23a84c8169e8b636ee30155565b620007e4565b816001600160a01b0316836001600160a01b031614620007e457620007e483826200082a565b6001600160a01b038216620007fe576200049481620008d7565b826001600160a01b0316826001600160a01b031614620004945762000494828262000991565b3b151590565b600060016200084484620009e260201b62001a3c1760201c565b62000850919062000cb3565b600083815260076020526040902054909150808214620008a4576001600160a01b03841660009081526006602090815260408083208584528252808320548484528184208190558352600790915290208190555b5060009182526007602090815260408084208490556001600160a01b039094168352600681528383209183525290812055565b600854600090620008eb9060019062000cb3565b6000838152600960205260408120546008805493945090928490811062000916576200091662000ccd565b9060005260206000200154905080600883815481106200093a576200093a62000ccd565b600091825260208083209091019290925582815260099091526040808220849055858252812055600880548062000975576200097562000ce3565b6001900381819060005260206000200160009055905550505050565b6000620009a983620009e260201b62001a3c1760201c565b6001600160a01b039093166000908152600660209081526040808320868452825280832085905593825260079052919091209190915550565b60006001600160a01b03821662000a4f5760405162461bcd60e51b815260206004820152602a60248201527f4552433732313a2062616c616e636520717565727920666f7220746865207a65604482015269726f206164647265737360b01b60648201526084016200048b565b506001600160a01b031660009081526003602052604090205490565b82805462000a799062000cf9565b90600052602060002090601f01602090048101928262000a9d576000855562000ae8565b82601f1062000ab857805160ff191683800117855562000ae8565b8280016001018555821562000ae8579182015b8281111562000ae857825182559160200191906001019062000acb565b5062000af692915062000b5a565b5090565b82805482825590600052602060002090810192821562000b4c579160200282015b8281111562000b4c578251805162000b3b91849160209091019062000a6b565b509160200191906001019062000b1b565b5062000af692915062000b71565b5b8082111562000af6576000815560010162000b5b565b8082111562000af657600062000b88828262000b92565b5060010162000b71565b50805462000ba09062000cf9565b6000825580601f1062000bb1575050565b601f01602090049060005260206000209081019062000bd1919062000b5a565b50565b634e487b7160e01b600052601160045260246000fd5b6000821982111562000c005762000c0062000bd4565b500190565b600060018060a01b038087168352602081871681850152856040850152608060608501528451915081608085015260005b8281101562000c545785810182015185820160a00152810162000c36565b8281111562000c6757600060a084870101525b5050601f01601f19169190910160a00195945050505050565b60006020828403121562000c9357600080fd5b81516001600160e01b03198116811462000cac57600080fd5b9392505050565b60008282101562000cc85762000cc862000bd4565b500390565b634e487b7160e01b600052603260045260246000fd5b634e487b7160e01b600052603160045260246000fd5b600181811c9082168062000d0e57607f821691505b6020821081141562000d3057634e487b7160e01b600052602260045260246000fd5b50919050565b61542b8062000d466000396000f3fe6080604052600436106104405760003560e01c806391d1485411610234578063c2d938201161012e578063dec3a74c116100b6578063e985e9c51161007a578063e985e9c514610d24578063eb8fafd014610d6d578063eeb3f66d14610d87578063fe01946214610da9578063ff25b2b214610dbe57600080fd5b8063dec3a74c14610c73578063dec8a31514610c88578063e25a8b6114610c9e578063e493c00c14610cce578063e84f579814610ce457600080fd5b8063ca21ec1b116100fd578063ca21ec1b14610bd0578063d547741f14610c03578063d6763bcf14610c23578063dce62c7914610c39578063dd38007514610c5357600080fd5b8063c2d9382014610b42578063c5ce83f914610b64578063c5f5e3d114610b83578063c87b56dd14610bb057600080fd5b8063a1073deb116101bc578063ab40070611610180578063ab40070614610ab6578063b085a3f714610ad8578063b473e21614610aed578063b88d4fde14610b02578063c2b2787914610b2257600080fd5b8063a1073deb14610a35578063a1a6125f14610a4b578063a217fddf14610a61578063a22cb46514610a76578063a28d746814610a9657600080fd5b80639767d423116102035780639767d423146109825780639c6bf854146109a25780639d1b464a146109b75780639dc4263f146109cd5780639e94505814610a0857600080fd5b806391d148541461090c57806394a3b4d91461092c57806395d89b411461094c578063961325211461096157600080fd5b80634032b72b11610345578063682341fa116102cd5780637aaf13a0116102915780637aaf13a0146108865780637c6aa02a146108a6578063807d88fa146108bc57806381cd08ee146108d65780638ae626a2146108f657600080fd5b8063682341fa146108145780636e39a3451461082957806370a082311461083e57806373afc2571461085e5780637a9597a61461087157600080fd5b80635123b39a116103145780635123b39a1461077957806351e224ca1461079357806355f804b3146107b357806361cf05ce146107d35780636352211e146107f457600080fd5b80634032b72b1461071157806342842e0e146107315780634311de8f146107515780634f6ccce71461075957600080fd5b806318160ddd116103c85780632f2ff15d116103975780632f2ff15d146106435780632f745c59146106635780632fc2add11461068357806336568abe146106d157806336842eae146106f157600080fd5b806318160ddd146105bf5780631ca8ca5f146105de57806323b872dd146105f3578063248a9ca31461061357600080fd5b806303989c711161040f57806303989c711461051c57806306fdde031461053d578063081812fc14610552578063095ea7b31461058a57806310b12709146105aa57600080fd5b806301ffc9a71461048357806302368a2c146104b85780630278c1ba146104da57806302a1b9e91461050757600080fd5b3661047e5760405162461bcd60e51b81526020600482015260096024820152680452d3030312d3032360bc1b60448201526064015b60405180910390fd5b600080fd5b34801561048f57600080fd5b506104a361049e366004614927565b610dde565b60405190151581526020015b60405180910390f35b3480156104c457600080fd5b506104d86104d3366004614944565b610def565b005b3480156104e657600080fd5b506104fa6104f5366004614966565b610fb2565b6040516104af91906149d7565b34801561051357600080fd5b506104d8611056565b34801561052857600080fd5b506011546104a3906301000000900460ff1681565b34801561054957600080fd5b506104fa6110cb565b34801561055e57600080fd5b5061057261056d366004614966565b61115d565b6040516001600160a01b0390911681526020016104af565b34801561059657600080fd5b506104d86105a5366004614a01565b6111f2565b3480156105b657600080fd5b506104d8611308565b3480156105cb57600080fd5b506008545b6040519081526020016104af565b3480156105ea57600080fd5b506105d0600a81565b3480156105ff57600080fd5b506104d861060e366004614a2b565b6113e0565b34801561061f57600080fd5b506105d061062e366004614966565b6000908152600a602052604090206001015490565b34801561064f57600080fd5b506104d861065e366004614a67565b611411565b34801561066f57600080fd5b506105d061067e366004614a01565b611437565b34801561068f57600080fd5b506106be61069e366004614966565b600090815260136020526040902060010154600160281b900461ffff1690565b60405161ffff90911681526020016104af565b3480156106dd57600080fd5b506104d86106ec366004614a67565b6114cd565b3480156106fd57600080fd5b506104d861070c366004614a67565b61154b565b34801561071d57600080fd5b506104d861072c366004614a93565b6115ec565b34801561073d57600080fd5b506104d861074c366004614a2b565b61163b565b6104d8611656565b34801561076557600080fd5b506105d0610774366004614966565b6116b9565b34801561078557600080fd5b506105d06512309ce5400081565b34801561079f57600080fd5b506104d86107ae366004614966565b61174c565b3480156107bf57600080fd5b506104d86107ce366004614b3a565b611898565b3480156107df57600080fd5b506011546104a390600160301b900460ff1681565b34801561080057600080fd5b5061057261080f366004614966565b6118df565b34801561082057600080fd5b506106be600181565b34801561083557600080fd5b506104d8611956565b34801561084a57600080fd5b506105d0610859366004614a93565b611a3c565b6104d861086c366004614966565b611ac3565b34801561087d57600080fd5b506106be600581565b34801561089257600080fd5b506104d86108a1366004614966565b611c29565b3480156108b257600080fd5b506105d0600e5481565b3480156108c857600080fd5b506105d0655af3107a400081565b3480156108e257600080fd5b506104d86108f1366004614a93565b611d8b565b34801561090257600080fd5b506105d0612b6781565b34801561091857600080fd5b506104a3610927366004614a67565b611dd7565b34801561093857600080fd5b506105d0610947366004614a93565b611e02565b34801561095857600080fd5b506104fa611e8d565b34801561096d57600080fd5b506011546104a390600160281b900460ff1681565b34801561098e57600080fd5b506011546104a39062010000900460ff1681565b3480156109ae57600080fd5b506106be600381565b3480156109c357600080fd5b506105d0600f5481565b3480156109d957600080fd5b506106be6109e8366004614966565b600090815260136020526040902060010154600160381b900461ffff1690565b348015610a1457600080fd5b50610a28610a23366004614966565b611e9c565b6040516104af9190614b83565b348015610a4157600080fd5b506105d061010b81565b348015610a5757600080fd5b506106be61040081565b348015610a6d57600080fd5b506105d0600081565b348015610a8257600080fd5b506104d8610a91366004614bbf565b612245565b348015610aa257600080fd5b506104d8610ab1366004614966565b61230a565b348015610ac257600080fd5b506105d06000805160206153b683398151915281565b348015610ae457600080fd5b506104d8612659565b348015610af957600080fd5b506105d0600481565b348015610b0e57600080fd5b506104d8610b1d366004614bfb565b6126a7565b348015610b2e57600080fd5b506106be610b3d366004614c89565b6126df565b348015610b4e57600080fd5b506105d06000805160206153d683398151915281565b348015610b7057600080fd5b506011546104a390610100900460ff1681565b348015610b8f57600080fd5b50610ba3610b9e366004614966565b612738565b6040516104af9190614ccc565b348015610bbc57600080fd5b506104fa610bcb366004614966565b61279d565b348015610bdc57600080fd5b506104a3610beb366004614966565b60009081526013602052604090206001015460ff1690565b348015610c0f57600080fd5b506104d8610c1e366004614a67565b612878565b348015610c2f57600080fd5b506105d061138881565b348015610c4557600080fd5b506011546104a39060ff1681565b348015610c5f57600080fd5b506104d8610c6e366004614cf7565b61289e565b348015610c7f57600080fd5b506104d861295a565b348015610c9457600080fd5b506105d0610d0581565b348015610caa57600080fd5b506104a3610cb9366004614966565b60009081526012602052604090205460ff1690565b348015610cda57600080fd5b506105d061064381565b348015610cf057600080fd5b50610572610cff366004614966565b600090815260136020526040902060010154600160481b90046001600160a01b031690565b348015610d3057600080fd5b506104a3610d3f366004614d1a565b6001600160a01b03918216600090815260056020908152604080832093909416825291909152205460ff1690565b348015610d7957600080fd5b506105d0652d79883d200081565b348015610d9357600080fd5b506011546104a390640100000000900460ff1681565b348015610db557600080fd5b506104d8612a33565b348015610dca57600080fd5b506104d8610dd9366004614a93565b612a77565b6000610de982612b47565b92915050565b610e076000805160206153b683398151915233611dd7565b610e235760405162461bcd60e51b815260040161047590614d44565b6000610e2e836118df565b6001600160a01b03161415610e715760405162461bcd60e51b8152602060048201526009602482015268114b4c0c0c4b4c0c4d60ba1b6044820152606401610475565b60008111610ead5760405162461bcd60e51b8152602060048201526009602482015268452d3030312d30313560b81b6044820152606401610475565b600082815260136020526040902060010154600160281b900461ffff16610400610ed78383614d7d565b1115610f08576000838152601360205260409020600101805461ffff60281b19166604000000000000179055610f52565b60008381526013602052604090206001018054839190600590610f37908490600160281b900461ffff16614d95565b92506101000a81548161ffff021916908361ffff1602179055505b600083815260136020908152604091829020600101548251858152600160281b90910461ffff169181019190915284917f2d06a0b6d9e448255510db8be5700d234d963e07554aa376f2a103125f19ae62910160405180910390a2505050565b600081815260136020526040812080546060929190610fd090614dbb565b80601f0160208091040260200160405190810160405280929190818152602001828054610ffc90614dbb565b80156110495780601f1061101e57610100808354040283529160200191611049565b820191906000526020600020905b81548152906001019060200180831161102c57829003601f168201915b5093979650505050505050565b61106e6000805160206153b683398151915233611dd7565b61108a5760405162461bcd60e51b815260040161047590614d44565b6011805466ff0000000000001916600160301b1790556040517f384cd6e879e19b3a7feb9103a0279a87ba150b6ca87991db6cb08ca2981224ee90600090a1565b6060600080546110da90614dbb565b80601f016020809104026020016040519081016040528092919081815260200182805461110690614dbb565b80156111535780601f1061112857610100808354040283529160200191611153565b820191906000526020600020905b81548152906001019060200180831161113657829003601f168201915b5050505050905090565b6000818152600260205260408120546001600160a01b03166111d65760405162461bcd60e51b815260206004820152602c60248201527f4552433732313a20617070726f76656420717565727920666f72206e6f6e657860448201526b34b9ba32b73a103a37b5b2b760a11b6064820152608401610475565b506000908152600460205260409020546001600160a01b031690565b60006111fd826118df565b9050806001600160a01b0316836001600160a01b0316141561126b5760405162461bcd60e51b815260206004820152602160248201527f4552433732313a20617070726f76616c20746f2063757272656e74206f776e656044820152603960f91b6064820152608401610475565b336001600160a01b038216148061128757506112878133610d3f565b6112f95760405162461bcd60e51b815260206004820152603860248201527f4552433732313a20617070726f76652063616c6c6572206973206e6f74206f7760448201527f6e6572206e6f7220617070726f76656420666f7220616c6c00000000000000006064820152608401610475565b6113038383612b6c565b505050565b6113206000805160206153b683398151915233611dd7565b61133c5760405162461bcd60e51b815260040161047590614d44565b60115460ff161561137b5760405162461bcd60e51b8152602060048201526009602482015268452d3030312d30303560b81b6044820152606401610475565b6011805460ff191660011790556040517f0d3dae01e1b4644a9619797b649d24e856e8d3dd662f97e01427e70bf2ae91a690600090a16113be6040611388614d7d565b600e60008282546113cf9190614d7d565b90915550506512309ce54000600f55565b6113ea3382612bda565b6114065760405162461bcd60e51b815260040161047590614df6565b611303838383612cd1565b6000828152600a602052604090206001015461142d8133612e7c565b6113038383612ee0565b600061144283611a3c565b82106114a45760405162461bcd60e51b815260206004820152602b60248201527f455243373231456e756d657261626c653a206f776e657220696e646578206f7560448201526a74206f6620626f756e647360a81b6064820152608401610475565b506001600160a01b03919091166000908152600660209081526040808320938352929052205490565b6001600160a01b038116331461153d5760405162461bcd60e51b815260206004820152602f60248201527f416363657373436f6e74726f6c3a2063616e206f6e6c792072656e6f756e636560448201526e103937b632b9903337b91039b2b63360891b6064820152608401610475565b6115478282612f66565b5050565b611554826118df565b6001600160a01b0316336001600160a01b0316146115845760405162461bcd60e51b815260040161047590614e47565b6000828152601360205260408082206001018054600160481b600160e81b031916600160481b6001600160a01b038616908102919091179091559051909184917fafa5959eb8823d589ec08c28f3effdde6546d1102288f3ba855119af25e3bbba9190a35050565b6116046000805160206153d683398151915233611dd7565b6116205760405162461bcd60e51b815260040161047590614e6a565b6116386000805160206153d683398151915282611411565b50565b611303838383604051806020016040528060008152506126a7565b61166e6000805160206153d683398151915233611dd7565b61168a5760405162461bcd60e51b815260040161047590614e6a565b6040514790339082156108fc029083906000818181858888f19350505050158015611547573d6000803e3d6000fd5b60006116c460085490565b82106117275760405162461bcd60e51b815260206004820152602c60248201527f455243373231456e756d657261626c653a20676c6f62616c20696e646578206f60448201526b7574206f6620626f756e647360a01b6064820152608401610475565b6008828154811061173a5761173a614e8d565b90600052602060002001549050919050565b601154600160301b900460ff166117915760405162461bcd60e51b8152602060048201526009602482015268452d3030312d30303960b81b6044820152606401610475565b61179a816118df565b6001600160a01b0316336001600160a01b0316146117ca5760405162461bcd60e51b815260040161047590614e47565b60008181526012602052604090205460ff166118145760405162461bcd60e51b815260206004820152600960248201526822969818189698189960b91b6044820152606401610475565b61181f816001612fcd565b61182a8160016130d1565b60008281526013602052604090819020600101805461ffff93909316600160381b0261ffff60381b1990931692909217909155517fdcc2145292317879f6319461deaed4ada2422f436a0b0e15f2af0e60c637d1219061188d9083815260200190565b60405180910390a150565b6118b06000805160206153d683398151915233611dd7565b6118cc5760405162461bcd60e51b815260040161047590614e6a565b805161154790601490602084019061483b565b6000818152600260205260408120546001600160a01b031680610de95760405162461bcd60e51b815260206004820152602960248201527f4552433732313a206f776e657220717565727920666f72206e6f6e657869737460448201526832b73a103a37b5b2b760b91b6064820152608401610475565b61196e6000805160206153b683398151915233611dd7565b61198a5760405162461bcd60e51b815260040161047590614d44565b60115462010000900460ff16156119cf5760405162461bcd60e51b8152602060048201526009602482015268452d3030312d30303760b81b6044820152606401610475565b6011805464ffffff000019166401000100001790556040517f1bbe80213228404e276963f9e286d445ba1e5609daacc5098b97ad3783da4d9790600090a1611a1a61010b6004614d7d565b600e6000828254611a2b9190614d7d565b9091555050655af3107a4000600f55565b60006001600160a01b038216611aa75760405162461bcd60e51b815260206004820152602a60248201527f4552433732313a2062616c616e636520717565727920666f7220746865207a65604482015269726f206164647265737360b01b6064820152608401610475565b506001600160a01b031660009081526003602052604090205490565b6002600b541415611b165760405162461bcd60e51b815260206004820152601f60248201527f5265656e7472616e637947756172643a207265656e7472616e742063616c6c006044820152606401610475565b6002600b558015801590611b2b5750600a8111155b611b635760405162461bcd60e51b8152602060048201526009602482015268452d3030312d30303160b81b6044820152606401610475565b80600f54611b719190614ea3565b341015611bac5760405162461bcd60e51b815260206004820152600960248201526822969818189698181960b91b6044820152606401610475565b600e5481600c54611bbd9190614d7d565b1115611bdb5760405162461bcd60e51b815260040161047590614ec2565b60005b81811015611c20576001600c6000828254611bf99190614d7d565b92505081905550611c0e33600c546000613246565b80611c1881614ee5565b915050611bde565b50506001600b55565b6002600b541415611c7c5760405162461bcd60e51b815260206004820152601f60248201527f5265656e7472616e637947756172643a207265656e7472616e742063616c6c006044820152606401610475565b6002600b55611c996000805160206153d683398151915233611dd7565b611cb55760405162461bcd60e51b815260040161047590614e6a565b604081601054611cc59190614d7d565b1115611cff5760405162461bcd60e51b8152602060048201526009602482015268114b4c0c0c4b4c0c0d60ba1b6044820152606401610475565b600e5481600c54611d109190614d7d565b1115611d2e5760405162461bcd60e51b815260040161047590614ec2565b8060106000828254611d409190614d7d565b90915550600090505b81811015611c20576001600c6000828254611d649190614d7d565b92505081905550611d7933600c546000613246565b80611d8381614ee5565b915050611d49565b611da36000805160206153d683398151915233611dd7565b611dbf5760405162461bcd60e51b815260040161047590614e6a565b6116386000805160206153b683398151915282611411565b6000918252600a602090815260408084206001600160a01b0393909316845291905290205460ff1690565b6000611e1c6000805160206153b683398151915233611dd7565b611e385760405162461bcd60e51b815260040161047590614d44565b612b67600d5410611e5b5760405162461bcd60e51b815260040161047590614ec2565b6001600d6000828254611e6e9190614d7d565b92505081905550611e8382600d546001613246565b50600d545b919050565b6060600180546110da90614dbb565b611ea46148bf565b60008281526012602052604090205460ff16611eee5760405162461bcd60e51b815260206004820152600960248201526822969818189698189960b91b6044820152606401610475565b600082815260136020526040812060010154600160381b900461ffff1690611f15846133de565b9150506000808260001415611f2c57506000905060105b8260011415611f415750601090506020611f49565b506020905060605b611f516148bf565b61ffff8516611f5e6148de565b601082901b65fffff000000016600c83811b650fffff00000016600885811b64fffff0000016600487811b640fffff00001663fffff00089169189901c630fffff00169589901c620fffff169389901c62fffff0169390931794909417939093171791909117171781600063ffffffff9290921660209092020152601482901b63f000000016601083901b630f00000016600c84901b62f0000016600885811b620f000016600487811b61f00016610f0089169389901c600f169189901c60f0169190911792909217919091171717171781600163ffffffff9290921660209092020152601882901b63f000000016601483901b630f00000016601084901b62f0000016600c85901b620f000016600886901b61f00016600487811b610f00169088901c600f1660f089161717171717171781600263ffffffff909216602092909202015260f0600483901b16600f831617610f00600884901b161761f000600c84901b1617620f0000601084901b161762f00000601484901b1617630f000000601884901b161763f0000000601c84901b161781600363ffffffff909216602092909202015260005b60208161ffff1610156121725781612121600483614f16565b61ffff166004811061213557612135614e8d565b6020020151848261ffff166020811061215057612150614e8d565b63ffffffff90921660209290920201528061216a81614f37565b915050612108565b506000856121956121838288614f59565b61218e906001614d95565b8a886126df565b61219f9190614d95565b905060005b8161ffff168161ffff1610156122365760006121c260208b846126df565b905060006121d2602083856126df565b9050868161ffff16602081106121ea576121ea614e8d565b60200201516121fa836002615171565b18878261ffff166020811061221157612211614e8d565b63ffffffff90921660209290920201525081905061222e81614f37565b9150506121a4565b50929998505050505050505050565b6001600160a01b03821633141561229e5760405162461bcd60e51b815260206004820152601960248201527f4552433732313a20617070726f766520746f2063616c6c6572000000000000006044820152606401610475565b3360008181526005602090815260408083206001600160a01b03871680855290835292819020805460ff191686151590811790915590519081529192917f17307eab39ab6107e8899845ad3d59bd9653f200f220920489ca2b5937696c31910160405180910390a35050565b601154600160301b900460ff1661234f5760405162461bcd60e51b8152602060048201526009602482015268452d3030312d30303960b81b6044820152606401610475565b612358816118df565b6001600160a01b0316336001600160a01b0316146123885760405162461bcd60e51b815260040161047590614e47565b60008181526012602052604090205460ff16156123d35760405162461bcd60e51b8152602060048201526009602482015268452d3030312d30313160b81b6044820152606401610475565b60006123dd61358a565b905060006123ea83613aed565b6000848152601260209081526040808320805460ff19166001908117909155815161012081018352878152888552601384528285209091015460ff16151592810192909252929350909181018383602002015160ff1681526020018360016004811061245857612458614e8d565b602002015160ff1681526020018360026004811061247857612478614e8d565b602002015160ff1681526020018360036004811061249857612498614e8d565b6020908102919091015160ff1682526000878152601380835260408083206001810154600160281b810461ffff1687870152918601849052600160481b9091046001600160a01b0316606090950194909452908890528152825180519394508493612506928492019061483b565b5060208201516001909101805460408401516060850151608086015160a087015160c088015160e0890151610100998a01516001600160a01b0316600160481b02600160481b600160e81b031961ffff928316600160381b0216600160381b600160e81b031992909316600160281b0261ffff60281b1960ff958616640100000000021666ffffff000000001996861663010000000263ff0000001998871662010000029890981663ffff00001999909616909c0261ff00199b15159b909b1661ffff199099169890981799909917959095169190911792909217169590951791909117169290921717905560006125fe85826130d1565b600086815260136020526040808220600101805461ffff60381b1916600160381b61ffff8616021790555191925086917f41bbd0e6e72fe1635257a4b4e357fc8af4fd144c837dc8d0a82cdf8d1c8cb6f09190a25050505050565b6126716000805160206153b683398151915233611dd7565b61268d5760405162461bcd60e51b815260040161047590614d44565b6004600e60008282546126a09190614d7d565b9091555050565b6126b13383612bda565b6126cd5760405162461bcd60e51b815260040161047590614df6565b6126d984848484613d2e565b50505050565b6040516001600160f01b031960f084811b8216602084015283901b16602282015260009081906024016040516020818303038152906040528051906020012060f01c9050848161272f9190614f16565b95945050505050565b6127406148de565b50604080516080810182526000838152601360208181528483206001015460ff6101008204811686526201000082048116838701526401000000008204811696860196909652959092529052630100000090920416606082015290565b6000818152600260205260409020546060906001600160a01b031661281c5760405162461bcd60e51b815260206004820152602f60248201527f4552433732314d657461646174613a2055524920717565727920666f72206e6f60448201526e3732bc34b9ba32b73a103a37b5b2b760891b6064820152608401610475565b6000612826613d61565b905060008151116128465760405180602001604052806000815250612871565b8061285084613d70565b604051602001612861929190615187565b6040516020818303038152906040525b9392505050565b6000828152600a60205260409020600101546128948133612e7c565b6113038383612f66565b6128b66000805160206153b683398151915233611dd7565b6128d25760405162461bcd60e51b815260040161047590614d44565b60006128dd836118df565b6001600160a01b031614156129205760405162461bcd60e51b8152602060048201526009602482015268114b4c0c0c4b4c0c4d60ba1b6044820152606401610475565b3261292a836118df565b6001600160a01b0316146129505760405162461bcd60e51b815260040161047590614e47565b6115478282612fcd565b6129726000805160206153b683398151915233611dd7565b61298e5760405162461bcd60e51b815260040161047590614d44565b601154610100900460ff16156129d25760405162461bcd60e51b815260206004820152600960248201526822969818189698181b60b91b6044820152606401610475565b6011805463ff00ff00191663010001001790556040517fce28fb74a9fed93421bef1c67a577ec8bdd8f93d99962f27a4b52207e9e80dd390600090a1610d05600e6000828254612a229190614d7d565b9091555050652d79883d2000600f55565b612a4b6000805160206153b683398151915233611dd7565b612a675760405162461bcd60e51b815260040161047590614d44565b6011805464ff0000000019169055565b612a8f6000805160206153b683398151915233611dd7565b612aab5760405162461bcd60e51b815260040161047590614d44565b601154600160281b900460ff1615612af15760405162461bcd60e51b815260206004820152600960248201526808a5a6060625a6060760bb1b6044820152606401610475565b6011805465ff00000000001916600160281b179055612b106001613e6e565b611638612b1d60016118df565b8260016040518060400160405280600381526020016203078360ec1b815250613d2e565b3b151590565b60006001600160e01b03198216637965db0b60e01b1480610de95750610de982614019565b600081815260046020526040902080546001600160a01b0319166001600160a01b0384169081179091558190612ba1826118df565b6001600160a01b03167f8c5be1e5ebec7d5bd14f71427d1e84f3dd0314c0f7b2291e5b200ac8c7c3b92560405160405180910390a45050565b6000818152600260205260408120546001600160a01b0316612c535760405162461bcd60e51b815260206004820152602c60248201527f4552433732313a206f70657261746f7220717565727920666f72206e6f6e657860448201526b34b9ba32b73a103a37b5b2b760a11b6064820152608401610475565b6000612c5e836118df565b9050806001600160a01b0316846001600160a01b03161480612c995750836001600160a01b0316612c8e8461115d565b6001600160a01b0316145b80612cc957506001600160a01b0380821660009081526005602090815260408083209388168352929052205460ff165b949350505050565b826001600160a01b0316612ce4826118df565b6001600160a01b031614612d4c5760405162461bcd60e51b815260206004820152602960248201527f4552433732313a207472616e73666572206f6620746f6b656e2074686174206960448201526839903737ba1037bbb760b91b6064820152608401610475565b6001600160a01b038216612dae5760405162461bcd60e51b8152602060048201526024808201527f4552433732313a207472616e7366657220746f20746865207a65726f206164646044820152637265737360e01b6064820152608401610475565b612db983838361403e565b612dc4600082612b6c565b6001600160a01b0383166000908152600360205260408120805460019290612ded9084906151ad565b90915550506001600160a01b0382166000908152600360205260408120805460019290612e1b908490614d7d565b909155505060008181526002602052604080822080546001600160a01b0319166001600160a01b0386811691821790925591518493918716917fddf252ad1be2c89b69c2b068fc378daa952ba7f163c4a11628f55a4df523b3ef91a4505050565b612e868282611dd7565b61154757612e9e816001600160a01b031660146140f6565b612ea98360206140f6565b604051602001612eba9291906151c4565b60408051601f198184030181529082905262461bcd60e51b8252610475916004016149d7565b612eea8282611dd7565b611547576000828152600a602090815260408083206001600160a01b03851684529091529020805460ff19166001179055612f223390565b6001600160a01b0316816001600160a01b0316837f2f8788117e7eff1d82e926ec794901d17c78024a50270940304540a733656f0d60405160405180910390a45050565b612f708282611dd7565b15611547576000828152600a602090815260408083206001600160a01b0385168085529252808320805460ff1916905551339285917ff6391f5c32d9c69d2a47ea670b442974b53935d1edc7fd64eb21e047a839171b9190a45050565b60008281526013602052604090206001015461ffff600160281b909104811690821611156130295760405162461bcd60e51b8152602060048201526009602482015268452d3030312d30323160b81b6044820152606401610475565b60008281526013602052604090206001018054829190600590613058908490600160281b900461ffff16614f59565b82546101009290920a61ffff8181021990931691831602179091556000848152601360209081526040918290206001015482518685168152600160281b909104909316908301528492507fa7ed3965d6fe6e37914f97b6e0e30e56ea184d78907b49c112c18867c8f31757910160405180910390a25050565b6000806130dd846133de565b50905060008082600114156130f8575060079050600c613100565b506004905060085b6000808061310e8585614f59565b613119906001614d95565b90506000886131345761312f620100008b614292565b613152565b60008a815260136020526040902060010154600160381b900461ffff165b9050600086613162848d856126df565b61316c9190614d95565b905060005b8161ffff168161ffff1610156131b05761318d601082856126df565b94508561319b866002615239565b179550806131a881614f37565b915050613171565b5060006131c260648461ffff16614292565b905088600214156132075760058161ffff161080156131df57508a155b156131f65785199950505050505050505050610de9565b859950505050505050505050610de9565b886131f65760058161ffff1610801561321e57508a155b1561323457859950505050505050505050610de9565b85199950505050505050505050610de9565b60038115613252575060055b6040805161014081018252600061012082018181528252841515602080840191909152828401829052606083018290526080830182905260a0830182905261ffff851660c084015260e0830182905261010083018290528682526013815292902081518051929384936132c8928492019061483b565b5060208281015160019290920180546040808601516060870151608088015160a089015160c08a015160e08b01516101009b8c015161ffff199098169a151561ff0019169a909a1760ff958616909b029a909a1763ffff00001916620100009385169390930263ff0000001916929092176301000000918416919091021766ffffff000000001916640100000000929091169190910261ffff60281b191617600160281b61ffff9788160217600160381b600160e81b031916600160381b9690951695909502600160481b600160e81b03191693909317600160481b6001600160a01b0390941693909302929092179091556000868152601290915220805460ff191690556133d7858561430d565b5050505050565b60008181526013602052604081208054829182916133fb90614dbb565b80601f016020809104026020016040519081016040528092919081815260200182805461342790614dbb565b80156134745780601f1061344957610100808354040283529160200191613474565b820191906000526020600020905b81548152906001019060200180831161345757829003601f168201915b50505050509050606060005b60155481101561357c576015818154811061349d5761349d614e8d565b9060005260206000200180546134b290614dbb565b80601f01602080910402602001604051908101604052809291908181526020018280546134de90614dbb565b801561352b5780601f106135005761010080835404028352916020019161352b565b820191906000526020600020905b81548152906001019060200180831161350e57829003601f168201915b5050505050915081805190602001208380519060200120141561356a5761355360038261524c565b61355e600383615260565b94509450505050915091565b8061357481614ee5565b915050613480565b506000958695509350505050565b601154606090640100000000900460ff161561382f5760408051600380825260808201909252600091816020015b60608152602001906001900390816135b857905050905060156000815481106135e3576135e3614e8d565b9060005260206000200180546135f890614dbb565b80601f016020809104026020016040519081016040528092919081815260200182805461362490614dbb565b80156136715780601f1061364657610100808354040283529160200191613671565b820191906000526020600020905b81548152906001019060200180831161365457829003601f168201915b50505050508160008151811061368957613689614e8d565b602002602001018190525060156001815481106136a8576136a8614e8d565b9060005260206000200180546136bd90614dbb565b80601f01602080910402602001604051908101604052809291908181526020018280546136e990614dbb565b80156137365780601f1061370b57610100808354040283529160200191613736565b820191906000526020600020905b81548152906001019060200180831161371957829003601f168201915b50505050508160018151811061374e5761374e614e8d565b6020026020010181905250601560028154811061376d5761376d614e8d565b90600052602060002001805461378290614dbb565b80601f01602080910402602001604051908101604052809291908181526020018280546137ae90614dbb565b80156137fb5780601f106137d0576101008083540402835291602001916137fb565b820191906000526020600020905b8154815290600101906020018083116137de57829003601f168201915b50505050508160028151811061381357613813614e8d565b6020026020010181905250613829600382614327565b91505090565b6011546301000000900460ff1615613a0e5760408051600380825260808201909252600091816020015b6060815260200190600190039081613859579050509050601560068154811061388457613884614e8d565b90600052602060002001805461389990614dbb565b80601f01602080910402602001604051908101604052809291908181526020018280546138c590614dbb565b80156139125780601f106138e757610100808354040283529160200191613912565b820191906000526020600020905b8154815290600101906020018083116138f557829003601f168201915b50505050508160008151811061392a5761392a614e8d565b6020026020010181905250601560078154811061394957613949614e8d565b90600052602060002001805461395e90614dbb565b80601f016020809104026020016040519081016040528092919081815260200182805461398a90614dbb565b80156139d75780601f106139ac576101008083540402835291602001916139d7565b820191906000526020600020905b8154815290600101906020018083116139ba57829003601f168201915b5050505050816001815181106139ef576139ef614e8d565b6020026020010181905250601560088154811061376d5761376d614e8d565b6015805460408051602080840282018101909252828152613ae8939091839060009084015b82821015613adf578382906000526020600020018054613a5290614dbb565b80601f0160208091040260200160405190810160405280929190818152602001828054613a7e90614dbb565b8015613acb5780601f10613aa057610100808354040283529160200191613acb565b820191906000526020600020905b815481529060010190602001808311613aae57829003601f168201915b505050505081526020019060010190613a33565b50505050614327565b905090565b613af56148de565b600082815260136020526040902060010154600a9060179060329060ff1615613b2157600f9250601991505b6000613b2d84846151ad565b613b38906001614d7d565b90506000613b47826000614292565b613b519086614d7d565b90506000613b60836001614292565b613b6a9087614d7d565b90506000613b79846002614292565b613b839088614d7d565b90506000613b92856003614292565b613b9c9089614d7d565b905060008183613bac8688615274565b613bb69190615274565b613bc09190615274565b6040805160808101825260ff808916825287811660208301528681169282019290925284821660608201529192508881169083161015613c45576000613c06838a615299565b90506000613c138361436d565b905081838260ff1660048110613c2b57613c2b614e8d565b60200201818151613c3c9190615274565b60ff1690525050505b60005b6004811015613d1e576000613c5e8260046151ad565b60408051426020820152016040516020818303038152906040528051906020012060001c613c8c9190615260565b613c969083614d7d565b90506000838260048110613cac57613cac614e8d565b60200201519050838360048110613cc557613cc5614e8d565b6020020151848360048110613cdc57613cdc614e8d565b60ff909216602092909202015280848460048110613cfc57613cfc614e8d565b60ff909216602092909202015250819050613d1681614ee5565b915050613c48565b509b9a5050505050505050505050565b613d39848484612cd1565b613d45848484846143dc565b6126d95760405162461bcd60e51b8152600401610475906152bc565b6060601480546110da90614dbb565b606081613d945750506040805180820190915260018152600360fc1b602082015290565b8160005b8115613dbe5780613da881614ee5565b9150613db79050600a8361524c565b9150613d98565b60008167ffffffffffffffff811115613dd957613dd9614aae565b6040519080825280601f01601f191660200182016040528015613e03576020820181803683370190505b5090505b8415612cc957613e186001836151ad565b9150613e25600a86615260565b613e30906030614d7d565b60f81b818381518110613e4557613e45614e8d565b60200101906001600160f81b031916908160001a905350613e67600a8661524c565b9450613e07565b6000818152601260209081526040808320805460ff19166001908117909155815161016081018352600c61012082019081526b151c9d594813995d5d1c985b60a21b61014083015281528084018290526019818401819052606082018190526080820181905260a082015261040060c082015260e081018590528585526013808552928520918201546001600160a01b03600160481b9091041661010082015293859052908252825180518493613f2992849291019061483b565b5060208201516001909101805460408401516060850151608086015160a087015160c088015160e0890151610100998a01516001600160a01b0316600160481b02600160481b600160e81b031961ffff928316600160381b0216600160381b600160e81b031992909316600160281b0261ffff60281b1960ff958616640100000000021666ffffff000000001996861663010000000263ff0000001998871662010000029890981663ffff00001999909616909c0261ff00199b15159b909b1661ffff19909916989098179990991795909516919091179290921716959095179190911716929092171790555050565b60006001600160e01b0319821663780e9d6360e01b1480610de95750610de9826144da565b6001600160a01b0383166140995761409481600880546000838152600960205260408120829055600182018355919091527ff3f7a9fe364faab93b216da50a3214154f22a0a2b415b23a84c8169e8b636ee30155565b6140bc565b816001600160a01b0316836001600160a01b0316146140bc576140bc838261452a565b6001600160a01b0382166140d357611303816145c7565b826001600160a01b0316826001600160a01b031614611303576113038282614676565b60606000614105836002614ea3565b614110906002614d7d565b67ffffffffffffffff81111561412857614128614aae565b6040519080825280601f01601f191660200182016040528015614152576020820181803683370190505b509050600360fc1b8160008151811061416d5761416d614e8d565b60200101906001600160f81b031916908160001a905350600f60fb1b8160018151811061419c5761419c614e8d565b60200101906001600160f81b031916908160001a90535060006141c0846002614ea3565b6141cb906001614d7d565b90505b6001811115614243576f181899199a1a9b1b9c1cb0b131b232b360811b85600f16601081106141ff576141ff614e8d565b1a60f81b82828151811061421557614215614e8d565b60200101906001600160f81b031916908160001a90535060049490941c9361423c8161530e565b90506141ce565b5083156128715760405162461bcd60e51b815260206004820181905260248201527f537472696e67733a20686578206c656e67746820696e73756666696369656e746044820152606401610475565b6000806142a06001436151ad565b60408051914060208301526bffffffffffffffffffffffff1941606090811b8216928401929092524460548401523390911b1660748201526088810185905260a8810184905260c80160408051601f1981840301815291905280516020909101209050612cc98482615260565b6115478282604051806020016040528060008152506146ba565b60606000614336846000614292565b90506000838451836143489190615260565b8151811061435857614358614e8d565b60200260200101519050809250505092915050565b60008060005b60048160ff1610156143d557838260ff166004811061439457614394614e8d565b602002015160ff16848260ff16600481106143b1576143b1614e8d565b602002015160ff1610156143c3578091505b806143cd81615325565b915050614373565b5092915050565b60006001600160a01b0384163b156144cf57604051630a85bd0160e11b81526001600160a01b0385169063150b7a0290614420903390899088908890600401615345565b6020604051808303816000875af192505050801561445b575060408051601f3d908101601f1916820190925261445891810190615382565b60015b6144b5573d808015614489576040519150601f19603f3d011682016040523d82523d6000602084013e61448e565b606091505b5080516144ad5760405162461bcd60e51b8152600401610475906152bc565b805181602001fd5b6001600160e01b031916630a85bd0160e11b149050612cc9565b506001949350505050565b60006001600160e01b031982166380ac58cd60e01b148061450b57506001600160e01b03198216635b5e139f60e01b145b80610de957506301ffc9a760e01b6001600160e01b0319831614610de9565b6000600161453784611a3c565b61454191906151ad565b600083815260076020526040902054909150808214614594576001600160a01b03841660009081526006602090815260408083208584528252808320548484528184208190558352600790915290208190555b5060009182526007602090815260408084208490556001600160a01b039094168352600681528383209183525290812055565b6008546000906145d9906001906151ad565b6000838152600960205260408120546008805493945090928490811061460157614601614e8d565b90600052602060002001549050806008838154811061462257614622614e8d565b600091825260208083209091019290925582815260099091526040808220849055858252812055600880548061465a5761465a61539f565b6001900381819060005260206000200160009055905550505050565b600061468183611a3c565b6001600160a01b039093166000908152600660209081526040808320868452825280832085905593825260079052919091209190915550565b6146c483836146ed565b6146d160008484846143dc565b6113035760405162461bcd60e51b8152600401610475906152bc565b6001600160a01b0382166147435760405162461bcd60e51b815260206004820181905260248201527f4552433732313a206d696e7420746f20746865207a65726f20616464726573736044820152606401610475565b6000818152600260205260409020546001600160a01b0316156147a85760405162461bcd60e51b815260206004820152601c60248201527f4552433732313a20746f6b656e20616c7265616479206d696e746564000000006044820152606401610475565b6147b46000838361403e565b6001600160a01b03821660009081526003602052604081208054600192906147dd908490614d7d565b909155505060008181526002602052604080822080546001600160a01b0319166001600160a01b03861690811790915590518392907fddf252ad1be2c89b69c2b068fc378daa952ba7f163c4a11628f55a4df523b3ef908290a45050565b82805461484790614dbb565b90600052602060002090601f01602090048101928261486957600085556148af565b82601f1061488257805160ff19168380011785556148af565b828001600101855582156148af579182015b828111156148af578251825591602001919060010190614894565b506148bb9291506148fc565b5090565b6040518061040001604052806020906020820280368337509192915050565b60405180608001604052806004906020820280368337509192915050565b5b808211156148bb57600081556001016148fd565b6001600160e01b03198116811461163857600080fd5b60006020828403121561493957600080fd5b813561287181614911565b6000806040838503121561495757600080fd5b50508035926020909101359150565b60006020828403121561497857600080fd5b5035919050565b60005b8381101561499a578181015183820152602001614982565b838111156126d95750506000910152565b600081518084526149c381602086016020860161497f565b601f01601f19169290920160200192915050565b60208152600061287160208301846149ab565b80356001600160a01b0381168114611e8857600080fd5b60008060408385031215614a1457600080fd5b614a1d836149ea565b946020939093013593505050565b600080600060608486031215614a4057600080fd5b614a49846149ea565b9250614a57602085016149ea565b9150604084013590509250925092565b60008060408385031215614a7a57600080fd5b82359150614a8a602084016149ea565b90509250929050565b600060208284031215614aa557600080fd5b612871826149ea565b634e487b7160e01b600052604160045260246000fd5b600067ffffffffffffffff80841115614adf57614adf614aae565b604051601f8501601f19908116603f01168101908282118183101715614b0757614b07614aae565b81604052809350858152868686011115614b2057600080fd5b858560208301376000602087830101525050509392505050565b600060208284031215614b4c57600080fd5b813567ffffffffffffffff811115614b6357600080fd5b8201601f81018413614b7457600080fd5b612cc984823560208401614ac4565b6104008101818360005b6020808210614b9c5750614bb6565b825163ffffffff1684529283019290910190600101614b8d565b50505092915050565b60008060408385031215614bd257600080fd5b614bdb836149ea565b915060208301358015158114614bf057600080fd5b809150509250929050565b60008060008060808587031215614c1157600080fd5b614c1a856149ea565b9350614c28602086016149ea565b925060408501359150606085013567ffffffffffffffff811115614c4b57600080fd5b8501601f81018713614c5c57600080fd5b614c6b87823560208401614ac4565b91505092959194509250565b803561ffff81168114611e8857600080fd5b600080600060608486031215614c9e57600080fd5b614ca784614c77565b9250614cb560208501614c77565b9150614cc360408501614c77565b90509250925092565b60808101818360005b6004811015614bb657815160ff16835260209283019290910190600101614cd5565b60008060408385031215614d0a57600080fd5b82359150614a8a60208401614c77565b60008060408385031215614d2d57600080fd5b614d36836149ea565b9150614a8a602084016149ea565b602080825260099082015268452d3030312d30313760b81b604082015260600190565b634e487b7160e01b600052601160045260246000fd5b60008219821115614d9057614d90614d67565b500190565b600061ffff808316818516808303821115614db257614db2614d67565b01949350505050565b600181811c90821680614dcf57607f821691505b60208210811415614df057634e487b7160e01b600052602260045260246000fd5b50919050565b60208082526031908201527f4552433732313a207472616e736665722063616c6c6572206973206e6f74206f6040820152701ddb995c881b9bdc88185c1c1c9bdd9959607a1b606082015260800190565b6020808252600990820152680452d3030312d3031360bc1b604082015260600190565b60208082526009908201526808a5a6060625a6062760bb1b604082015260600190565b634e487b7160e01b600052603260045260246000fd5b6000816000190483118215151615614ebd57614ebd614d67565b500290565b602080825260099082015268452d3030312d30303360b81b604082015260600190565b6000600019821415614ef957614ef9614d67565b5060010190565b634e487b7160e01b600052601260045260246000fd5b600061ffff80841680614f2b57614f2b614f00565b92169190910692915050565b600061ffff80831681811415614f4f57614f4f614d67565b6001019392505050565b600061ffff83811690831681811015614f7457614f74614d67565b039392505050565b600181815b80851115614fb9578163ffffffff04821115614f9f57614f9f614d67565b80851615614fac57918102915b93841c9390800290614f81565b509250929050565b600181815b80851115614fb9578161ffff04821115614fe257614fe2614d67565b80851615614fef57918102915b93841c9390800290614fc6565b60008261500b57506001610de9565b8161501857506000610de9565b816001811461502e576002811461503857615069565b6001915050610de9565b60ff84111561504957615049614d67565b6001841b915063ffffffff82111561506357615063614d67565b50610de9565b5060208310610133831016604e8410600b84101617156150a0575081810a63ffffffff81111561509b5761509b614d67565b610de9565b6150aa8383614f7c565b8063ffffffff048211156150c0576150c0614d67565b029392505050565b6000826150d757506001610de9565b816150e457506000610de9565b816001811461502e57600281146150fa57615123565b60ff84111561510b5761510b614d67565b6001841b915061ffff82111561506357615063614d67565b5060208310610133831016604e8410600b8410161715615153575081810a61ffff81111561509b5761509b614d67565b61515d8383614fc1565b8061ffff048211156150c0576150c0614d67565b600061287161ffff841663ffffffff8416614ffc565b6000835161519981846020880161497f565b835190830190614db281836020880161497f565b6000828210156151bf576151bf614d67565b500390565b7f416363657373436f6e74726f6c3a206163636f756e74200000000000000000008152600083516151fc81601785016020880161497f565b7001034b99036b4b9b9b4b733903937b6329607d1b601791840191820152835161522d81602884016020880161497f565b01602801949350505050565b600061ffff612cc98185168285166150c8565b60008261525b5761525b614f00565b500490565b60008261526f5761526f614f00565b500690565b600060ff821660ff84168060ff0382111561529157615291614d67565b019392505050565b600060ff821660ff8416808210156152b3576152b3614d67565b90039392505050565b60208082526032908201527f4552433732313a207472616e7366657220746f206e6f6e20455243373231526560408201527131b2b4bb32b91034b6b83632b6b2b73a32b960711b606082015260800190565b60008161531d5761531d614d67565b506000190190565b600060ff821660ff81141561533c5761533c614d67565b60010192915050565b6001600160a01b0385811682528416602082015260408101839052608060608201819052600090615378908301846149ab565b9695505050505050565b60006020828403121561539457600080fd5b815161287181614911565b634e487b7160e01b600052603160045260246000fdfe6a64baf327d646d1bca72653e2a075d15fd6ac6d8cbd7f6ee03fc55875e0fa882fa3586e1228a6d020f44df84a4695dcd1cfcb55a51cd832563c729d866522ffa2646970667358221220b72764bb8ca557aed1503d6322275c3399cc7af587e1e79d1339aa58da98523364736f6c634300080a00334552433732313a207472616e7366657220746f206e6f6e2045524337323152652fa3586e1228a6d020f44df84a4695dcd1cfcb55a51cd832563c729d866522ff68747470733a2f2f6170692e636f696e6c616e6465722e6465762f6d6574612f7365656b6572732f",
  "linkReferences": {},
  "deployedLinkReferences": {}
}