{
  "_format": "hh-sol-artifact-1",
  "contractName": "Seekers",
  "sourceName": "contracts/Seekers.sol",
  "abi": [
    {
      "inputs": [],
      "stateMutability": "nonpayable",
      "type": "constructor"
    },
    {
      "anonymous": false,
      "inputs": [
        {
          "indexed": true,
          "internalType": "address",
          "name": "owner",
          "type": "address"
        },
        {
          "indexed": true,
          "internalType": "address",
          "name": "approved",
          "type": "address"
        },
        {
          "indexed": true,
          "internalType": "uint256",
          "name": "tokenId",
          "type": "uint256"
        }
      ],
      "name": "Approval",
      "type": "event"
    },
    {
      "anonymous": false,
      "inputs": [
        {
          "indexed": true,
          "internalType": "address",
          "name": "owner",
          "type": "address"
        },
        {
          "indexed": true,
          "internalType": "address",
          "name": "operator",
          "type": "address"
        },
        {
          "indexed": false,
          "internalType": "bool",
          "name": "approved",
          "type": "bool"
        }
      ],
      "name": "ApprovalForAll",
      "type": "event"
    },
    {
      "anonymous": false,
      "inputs": [],
      "name": "CloakingAvailable",
      "type": "event"
    },
    {
      "anonymous": false,
      "inputs": [
        {
          "indexed": false,
          "internalType": "uint256",
          "name": "id",
          "type": "uint256"
        }
      ],
      "name": "DethscalesRerolled",
      "type": "event"
    },
    {
      "anonymous": false,
      "inputs": [],
      "name": "FirstMintActivated",
      "type": "event"
    },
    {
      "anonymous": false,
      "inputs": [
        {
          "indexed": true,
          "internalType": "uint256",
          "name": "seekerId",
          "type": "uint256"
        },
        {
          "indexed": false,
          "internalType": "uint256",
          "name": "powerAdded",
          "type": "uint256"
        },
        {
          "indexed": false,
          "internalType": "uint256",
          "name": "newPower",
          "type": "uint256"
        }
      ],
      "name": "PowerAdded",
      "type": "event"
    },
    {
      "anonymous": false,
      "inputs": [
        {
          "indexed": true,
          "internalType": "uint256",
          "name": "seekerId",
          "type": "uint256"
        },
        {
          "indexed": false,
          "internalType": "uint256",
          "name": "powerBurned",
          "type": "uint256"
        },
        {
          "indexed": false,
          "internalType": "uint256",
          "name": "newPower",
          "type": "uint256"
        }
      ],
      "name": "PowerBurned",
      "type": "event"
    },
    {
      "anonymous": false,
      "inputs": [
        {
          "indexed": true,
          "internalType": "bytes32",
          "name": "role",
          "type": "bytes32"
        },
        {
          "indexed": true,
          "internalType": "bytes32",
          "name": "previousAdminRole",
          "type": "bytes32"
        },
        {
          "indexed": true,
          "internalType": "bytes32",
          "name": "newAdminRole",
          "type": "bytes32"
        }
      ],
      "name": "RoleAdminChanged",
      "type": "event"
    },
    {
      "anonymous": false,
      "inputs": [
        {
          "indexed": true,
          "internalType": "bytes32",
          "name": "role",
          "type": "bytes32"
        },
        {
          "indexed": true,
          "internalType": "address",
          "name": "account",
          "type": "address"
        },
        {
          "indexed": true,
          "internalType": "address",
          "name": "sender",
          "type": "address"
        }
      ],
      "name": "RoleGranted",
      "type": "event"
    },
    {
      "anonymous": false,
      "inputs": [
        {
          "indexed": true,
          "internalType": "bytes32",
          "name": "role",
          "type": "bytes32"
        },
        {
          "indexed": true,
          "internalType": "address",
          "name": "account",
          "type": "address"
        },
        {
          "indexed": true,
          "internalType": "address",
          "name": "sender",
          "type": "address"
        }
      ],
      "name": "RoleRevoked",
      "type": "event"
    },
    {
      "anonymous": false,
      "inputs": [],
      "name": "SecondMintActivated",
      "type": "event"
    },
    {
      "anonymous": false,
      "inputs": [
        {
          "indexed": true,
          "internalType": "uint256",
          "name": "seekerId",
          "type": "uint256"
        }
      ],
      "name": "SeekerCloaked",
      "type": "event"
    },
    {
      "anonymous": false,
      "inputs": [
        {
          "indexed": true,
          "internalType": "uint256",
          "name": "seekerId",
          "type": "uint256"
        },
        {
          "indexed": true,
          "internalType": "address",
          "name": "clan",
          "type": "address"
        }
      ],
      "name": "SeekerDeclaredToClan",
      "type": "event"
    },
    {
      "anonymous": false,
      "inputs": [],
      "name": "ThirdMintActivated",
      "type": "event"
    },
    {
      "anonymous": false,
      "inputs": [
        {
          "indexed": true,
          "internalType": "address",
          "name": "from",
          "type": "address"
        },
        {
          "indexed": true,
          "internalType": "address",
          "name": "to",
          "type": "address"
        },
        {
          "indexed": true,
          "internalType": "uint256",
          "name": "tokenId",
          "type": "uint256"
        }
      ],
      "name": "Transfer",
      "type": "event"
    },
    {
      "inputs": [],
      "name": "BIRTHSEEKERPOWERSTART",
      "outputs": [
        {
          "internalType": "uint16",
          "name": "",
          "type": "uint16"
        }
      ],
      "stateMutability": "view",
      "type": "function"
    },
    {
      "inputs": [],
      "name": "DEFAULT_ADMIN_ROLE",
      "outputs": [
        {
          "internalType": "bytes32",
          "name": "",
          "type": "bytes32"
        }
      ],
      "stateMutability": "view",
      "type": "function"
    },
    {
      "inputs": [],
      "name": "DETHSCALEREROLLCOST",
      "outputs": [
        {
          "internalType": "uint16",
          "name": "",
          "type": "uint16"
        }
      ],
      "stateMutability": "view",
      "type": "function"
    },
    {
      "inputs": [],
      "name": "FIRSTMINTPRICE",
      "outputs": [
        {
          "internalType": "uint256",
          "name": "",
          "type": "uint256"
        }
      ],
      "stateMutability": "view",
      "type": "function"
    },
    {
      "inputs": [],
      "name": "MAXPOWER",
      "outputs": [
        {
          "internalType": "uint16",
          "name": "",
          "type": "uint16"
        }
      ],
      "stateMutability": "view",
      "type": "function"
    },
    {
      "inputs": [],
      "name": "MAXSEEKERS",
      "outputs": [
        {
          "internalType": "uint256",
          "name": "",
          "type": "uint256"
        }
      ],
      "stateMutability": "view",
      "type": "function"
    },
    {
      "inputs": [],
      "name": "SECONDMINT",
      "outputs": [
        {
          "internalType": "uint256",
          "name": "",
          "type": "uint256"
        }
      ],
      "stateMutability": "view",
      "type": "function"
    },
    {
      "inputs": [],
      "name": "SECONDMINTPRICE",
      "outputs": [
        {
          "internalType": "uint256",
          "name": "",
          "type": "uint256"
        }
      ],
      "stateMutability": "view",
      "type": "function"
    },
    {
      "inputs": [],
      "name": "SUMMONSEEKERPOWERSTART",
      "outputs": [
        {
          "internalType": "uint16",
          "name": "",
          "type": "uint16"
        }
      ],
      "stateMutability": "view",
      "type": "function"
    },
    {
      "inputs": [],
      "name": "THIRDMINTPRICE",
      "outputs": [
        {
          "internalType": "uint256",
          "name": "",
          "type": "uint256"
        }
      ],
      "stateMutability": "view",
      "type": "function"
    },
    {
      "inputs": [],
      "name": "activateFirstMint",
      "outputs": [],
      "stateMutability": "nonpayable",
      "type": "function"
    },
    {
      "inputs": [],
      "name": "activateSecondMint",
      "outputs": [],
      "stateMutability": "nonpayable",
      "type": "function"
    },
    {
      "inputs": [],
      "name": "activateThirdMint",
      "outputs": [],
      "stateMutability": "nonpayable",
      "type": "function"
    },
    {
      "inputs": [
        {
          "internalType": "address",
          "name": "gameContract",
          "type": "address"
        }
      ],
      "name": "addGameContract",
      "outputs": [],
      "stateMutability": "nonpayable",
      "type": "function"
    },
    {
      "inputs": [
        {
          "internalType": "address",
          "name": "newKeeper",
          "type": "address"
        }
      ],
      "name": "addKeeper",
      "outputs": [],
      "stateMutability": "nonpayable",
      "type": "function"
    },
    {
      "inputs": [
        {
          "internalType": "uint256",
          "name": "id",
          "type": "uint256"
        },
        {
          "internalType": "uint256",
          "name": "powerToAdd",
          "type": "uint256"
        }
      ],
      "name": "addPower",
      "outputs": [],
      "stateMutability": "nonpayable",
      "type": "function"
    },
    {
      "inputs": [
        {
          "internalType": "address",
          "name": "to",
          "type": "address"
        },
        {
          "internalType": "uint256",
          "name": "tokenId",
          "type": "uint256"
        }
      ],
      "name": "approve",
      "outputs": [],
      "stateMutability": "nonpayable",
      "type": "function"
    },
    {
      "inputs": [
        {
          "internalType": "address",
          "name": "owner",
          "type": "address"
        }
      ],
      "name": "balanceOf",
      "outputs": [
        {
          "internalType": "uint256",
          "name": "",
          "type": "uint256"
        }
      ],
      "stateMutability": "view",
      "type": "function"
    },
    {
      "inputs": [
        {
          "internalType": "address",
          "name": "to",
          "type": "address"
        }
      ],
      "name": "birthSeeker",
      "outputs": [
        {
          "internalType": "uint256",
          "name": "",
          "type": "uint256"
        }
      ],
      "stateMutability": "nonpayable",
      "type": "function"
    },
    {
      "inputs": [
        {
          "internalType": "uint256",
          "name": "id",
          "type": "uint256"
        },
        {
          "internalType": "uint16",
          "name": "powerToBurn",
          "type": "uint16"
        }
      ],
      "name": "burnPower",
      "outputs": [],
      "stateMutability": "nonpayable",
      "type": "function"
    },
    {
      "inputs": [
        {
          "internalType": "uint256",
          "name": "id",
          "type": "uint256"
        }
      ],
      "name": "cloakSeeker",
      "outputs": [],
      "stateMutability": "nonpayable",
      "type": "function"
    },
    {
      "inputs": [],
      "name": "cloakingAvailable",
      "outputs": [
        {
          "internalType": "bool",
          "name": "",
          "type": "bool"
        }
      ],
      "stateMutability": "view",
      "type": "function"
    },
    {
      "inputs": [],
      "name": "contractURI",
      "outputs": [
        {
          "internalType": "string",
          "name": "",
          "type": "string"
        }
      ],
      "stateMutability": "view",
      "type": "function"
    },
    {
      "inputs": [],
      "name": "currentBuyableSeekers",
      "outputs": [
        {
          "internalType": "uint256",
          "name": "",
          "type": "uint256"
        }
      ],
      "stateMutability": "view",
      "type": "function"
    },
    {
      "inputs": [],
      "name": "currentPrice",
      "outputs": [
        {
          "internalType": "uint256",
          "name": "",
          "type": "uint256"
        }
      ],
      "stateMutability": "view",
      "type": "function"
    },
    {
      "inputs": [
        {
          "internalType": "uint256",
          "name": "id",
          "type": "uint256"
        },
        {
          "internalType": "address",
          "name": "clanAddress",
          "type": "address"
        }
      ],
      "name": "declareForClan",
      "outputs": [],
      "stateMutability": "nonpayable",
      "type": "function"
    },
    {
      "inputs": [],
      "name": "endGoodsOnly",
      "outputs": [],
      "stateMutability": "nonpayable",
      "type": "function"
    },
    {
      "inputs": [],
      "name": "evilsOnly",
      "outputs": [
        {
          "internalType": "bool",
          "name": "",
          "type": "bool"
        }
      ],
      "stateMutability": "view",
      "type": "function"
    },
    {
      "inputs": [],
      "name": "firstMintActive",
      "outputs": [
        {
          "internalType": "bool",
          "name": "",
          "type": "bool"
        }
      ],
      "stateMutability": "view",
      "type": "function"
    },
    {
      "inputs": [
        {
          "internalType": "uint256",
          "name": "id",
          "type": "uint256"
        }
      ],
      "name": "getAlignmentById",
      "outputs": [
        {
          "internalType": "string",
          "name": "",
          "type": "string"
        }
      ],
      "stateMutability": "view",
      "type": "function"
    },
    {
      "inputs": [
        {
          "internalType": "uint256",
          "name": "id",
          "type": "uint256"
        }
      ],
      "name": "getApById",
      "outputs": [
        {
          "internalType": "uint8[4]",
          "name": "",
          "type": "uint8[4]"
        }
      ],
      "stateMutability": "view",
      "type": "function"
    },
    {
      "inputs": [
        {
          "internalType": "uint256",
          "name": "tokenId",
          "type": "uint256"
        }
      ],
      "name": "getApproved",
      "outputs": [
        {
          "internalType": "address",
          "name": "",
          "type": "address"
        }
      ],
      "stateMutability": "view",
      "type": "function"
    },
    {
      "inputs": [
        {
          "internalType": "uint256",
          "name": "id",
          "type": "uint256"
        }
      ],
      "name": "getClanById",
      "outputs": [
        {
          "internalType": "address",
          "name": "",
          "type": "address"
        }
      ],
      "stateMutability": "view",
      "type": "function"
    },
    {
      "inputs": [
        {
          "internalType": "uint256",
          "name": "id",
          "type": "uint256"
        }
      ],
      "name": "getCloakStatusById",
      "outputs": [
        {
          "internalType": "bool",
          "name": "",
          "type": "bool"
        }
      ],
      "stateMutability": "view",
      "type": "function"
    },
    {
      "inputs": [
        {
          "internalType": "uint256",
          "name": "id",
          "type": "uint256"
        }
      ],
      "name": "getDethscalesById",
      "outputs": [
        {
          "internalType": "uint16",
          "name": "",
          "type": "uint16"
        }
      ],
      "stateMutability": "view",
      "type": "function"
    },
    {
      "inputs": [
        {
          "internalType": "uint256",
          "name": "id",
          "type": "uint256"
        }
      ],
      "name": "getFullCloak",
      "outputs": [
        {
          "internalType": "uint32[32]",
          "name": "",
          "type": "uint32[32]"
        }
      ],
      "stateMutability": "view",
      "type": "function"
    },
    {
      "inputs": [
        {
          "internalType": "uint256",
          "name": "id",
          "type": "uint256"
        }
      ],
      "name": "getOriginById",
      "outputs": [
        {
          "internalType": "bool",
          "name": "",
          "type": "bool"
        }
      ],
      "stateMutability": "view",
      "type": "function"
    },
    {
      "inputs": [
        {
          "internalType": "uint256",
          "name": "id",
          "type": "uint256"
        }
      ],
      "name": "getPowerById",
      "outputs": [
        {
          "internalType": "uint16",
          "name": "",
          "type": "uint16"
        }
      ],
      "stateMutability": "view",
      "type": "function"
    },
    {
      "inputs": [
        {
          "internalType": "bytes32",
          "name": "role",
          "type": "bytes32"
        }
      ],
      "name": "getRoleAdmin",
      "outputs": [
        {
          "internalType": "bytes32",
          "name": "",
          "type": "bytes32"
        }
      ],
      "stateMutability": "view",
      "type": "function"
    },
    {
      "inputs": [],
      "name": "goodsOnly",
      "outputs": [
        {
          "internalType": "bool",
          "name": "",
          "type": "bool"
        }
      ],
      "stateMutability": "view",
      "type": "function"
    },
    {
      "inputs": [
        {
          "internalType": "bytes32",
          "name": "role",
          "type": "bytes32"
        },
        {
          "internalType": "address",
          "name": "account",
          "type": "address"
        }
      ],
      "name": "grantRole",
      "outputs": [],
      "stateMutability": "nonpayable",
      "type": "function"
    },
    {
      "inputs": [
        {
          "internalType": "bytes32",
          "name": "role",
          "type": "bytes32"
        },
        {
          "internalType": "address",
          "name": "account",
          "type": "address"
        }
      ],
      "name": "hasRole",
      "outputs": [
        {
          "internalType": "bool",
          "name": "",
          "type": "bool"
        }
      ],
      "stateMutability": "view",
      "type": "function"
    },
    {
      "inputs": [
        {
          "internalType": "address",
          "name": "owner",
          "type": "address"
        },
        {
          "internalType": "address",
          "name": "operator",
          "type": "address"
        }
      ],
      "name": "isApprovedForAll",
      "outputs": [
        {
          "internalType": "bool",
          "name": "",
          "type": "bool"
        }
      ],
      "stateMutability": "view",
      "type": "function"
    },
    {
      "inputs": [
        {
          "internalType": "uint256",
          "name": "summonCount",
          "type": "uint256"
        }
      ],
      "name": "keepersSummonSeeker",
      "outputs": [],
      "stateMutability": "nonpayable",
      "type": "function"
    },
    {
      "inputs": [],
      "name": "name",
      "outputs": [
        {
          "internalType": "string",
          "name": "",
          "type": "string"
        }
      ],
      "stateMutability": "view",
      "type": "function"
    },
    {
      "inputs": [
        {
          "internalType": "uint256",
          "name": "tokenId",
          "type": "uint256"
        }
      ],
      "name": "ownerOf",
      "outputs": [
        {
          "internalType": "address",
          "name": "",
          "type": "address"
        }
      ],
      "stateMutability": "view",
      "type": "function"
    },
    {
      "inputs": [],
      "name": "ownerWithdraw",
      "outputs": [],
      "stateMutability": "payable",
      "type": "function"
    },
    {
      "inputs": [],
      "name": "performCloakingCeremony",
      "outputs": [],
      "stateMutability": "nonpayable",
      "type": "function"
    },
    {
      "inputs": [],
      "name": "released",
      "outputs": [
        {
          "internalType": "bool",
          "name": "",
          "type": "bool"
        }
      ],
      "stateMutability": "view",
      "type": "function"
    },
    {
      "inputs": [
        {
          "internalType": "bytes32",
          "name": "role",
          "type": "bytes32"
        },
        {
          "internalType": "address",
          "name": "account",
          "type": "address"
        }
      ],
      "name": "renounceRole",
      "outputs": [],
      "stateMutability": "nonpayable",
      "type": "function"
    },
    {
      "inputs": [
        {
          "internalType": "uint256",
          "name": "id",
          "type": "uint256"
        }
      ],
      "name": "rerollDethscales",
      "outputs": [],
      "stateMutability": "nonpayable",
      "type": "function"
    },
    {
      "inputs": [
        {
          "internalType": "bytes32",
          "name": "role",
          "type": "bytes32"
        },
        {
          "internalType": "address",
          "name": "account",
          "type": "address"
        }
      ],
      "name": "revokeRole",
      "outputs": [],
      "stateMutability": "nonpayable",
      "type": "function"
    },
    {
      "inputs": [
        {
          "internalType": "address",
          "name": "from",
          "type": "address"
        },
        {
          "internalType": "address",
          "name": "to",
          "type": "address"
        },
        {
          "internalType": "uint256",
          "name": "tokenId",
          "type": "uint256"
        }
      ],
      "name": "safeTransferFrom",
      "outputs": [],
      "stateMutability": "nonpayable",
      "type": "function"
    },
    {
      "inputs": [
        {
          "internalType": "address",
          "name": "from",
          "type": "address"
        },
        {
          "internalType": "address",
          "name": "to",
          "type": "address"
        },
        {
          "internalType": "uint256",
          "name": "tokenId",
          "type": "uint256"
        },
        {
          "internalType": "bytes",
          "name": "_data",
          "type": "bytes"
        }
      ],
      "name": "safeTransferFrom",
      "outputs": [],
      "stateMutability": "nonpayable",
      "type": "function"
    },
    {
      "inputs": [],
      "name": "secondMintActive",
      "outputs": [
        {
          "internalType": "bool",
          "name": "",
          "type": "bool"
        }
      ],
      "stateMutability": "view",
      "type": "function"
    },
    {
      "inputs": [],
      "name": "seizureMintIncrement",
      "outputs": [],
      "stateMutability": "nonpayable",
      "type": "function"
    },
    {
      "inputs": [
        {
          "internalType": "address",
          "name": "winner",
          "type": "address"
        }
      ],
      "name": "sendWinnerSeeker",
      "outputs": [],
      "stateMutability": "nonpayable",
      "type": "function"
    },
    {
      "inputs": [
        {
          "internalType": "address",
          "name": "operator",
          "type": "address"
        },
        {
          "internalType": "bool",
          "name": "approved",
          "type": "bool"
        }
      ],
      "name": "setApprovalForAll",
      "outputs": [],
      "stateMutability": "nonpayable",
      "type": "function"
    },
    {
      "inputs": [
        {
          "internalType": "string",
          "name": "baseTokenURI",
          "type": "string"
        }
      ],
      "name": "setBaseURI",
      "outputs": [],
      "stateMutability": "nonpayable",
      "type": "function"
    },
    {
      "inputs": [
        {
          "internalType": "string",
          "name": "newContractURI",
          "type": "string"
        }
      ],
      "name": "setContractURI",
      "outputs": [],
      "stateMutability": "nonpayable",
      "type": "function"
    },
    {
      "inputs": [
        {
          "internalType": "uint256",
          "name": "summonCount",
          "type": "uint256"
        }
      ],
      "name": "summonSeeker",
      "outputs": [],
      "stateMutability": "payable",
      "type": "function"
    },
    {
      "inputs": [
        {
          "internalType": "bytes4",
          "name": "interfaceId",
          "type": "bytes4"
        }
      ],
      "name": "supportsInterface",
      "outputs": [
        {
          "internalType": "bool",
          "name": "",
          "type": "bool"
        }
      ],
      "stateMutability": "view",
      "type": "function"
    },
    {
      "inputs": [],
      "name": "symbol",
      "outputs": [
        {
          "internalType": "string",
          "name": "",
          "type": "string"
        }
      ],
      "stateMutability": "view",
      "type": "function"
    },
    {
      "inputs": [],
      "name": "thirdMintActive",
      "outputs": [
        {
          "internalType": "bool",
          "name": "",
          "type": "bool"
        }
      ],
      "stateMutability": "view",
      "type": "function"
    },
    {
      "inputs": [
        {
          "internalType": "uint256",
          "name": "index",
          "type": "uint256"
        }
      ],
      "name": "tokenByIndex",
      "outputs": [
        {
          "internalType": "uint256",
          "name": "",
          "type": "uint256"
        }
      ],
      "stateMutability": "view",
      "type": "function"
    },
    {
      "inputs": [
        {
          "internalType": "address",
          "name": "owner",
          "type": "address"
        },
        {
          "internalType": "uint256",
          "name": "index",
          "type": "uint256"
        }
      ],
      "name": "tokenOfOwnerByIndex",
      "outputs": [
        {
          "internalType": "uint256",
          "name": "",
          "type": "uint256"
        }
      ],
      "stateMutability": "view",
      "type": "function"
    },
    {
      "inputs": [
        {
          "internalType": "uint256",
          "name": "tokenId",
          "type": "uint256"
        }
      ],
      "name": "tokenURI",
      "outputs": [
        {
          "internalType": "string",
          "name": "",
          "type": "string"
        }
      ],
      "stateMutability": "view",
      "type": "function"
    },
    {
      "inputs": [],
      "name": "totalSupply",
      "outputs": [
        {
          "internalType": "uint256",
          "name": "",
          "type": "uint256"
        }
      ],
      "stateMutability": "view",
      "type": "function"
    },
    {
      "inputs": [
        {
          "internalType": "address",
          "name": "from",
          "type": "address"
        },
        {
          "internalType": "address",
          "name": "to",
          "type": "address"
        },
        {
          "internalType": "uint256",
          "name": "tokenId",
          "type": "uint256"
        }
      ],
      "name": "transferFrom",
      "outputs": [],
      "stateMutability": "nonpayable",
      "type": "function"
    },
    {
      "stateMutability": "payable",
      "type": "receive"
    }
  ],
  "bytecode": "0x6000600c819055600d819055600e819055600f8190556010556011805466ffffffffffffff1916905560e06040526027608081815290620061f460a0398051620000529160149160209091019062000a9f565b506040518060600160405280602881526020016200623b602891398051620000839160159160209091019062000a9f565b506040805161016081018252600b61012082018181526a13185dd99d5b0811dbdbd960aa1b610140840152825282518084018452600c8082526b13995d5d1c985b0811dbdbd960a21b60208381019190915280850192909252845180860186528181526b10da185bdd1a58c811dbdbd960a21b818401528486015284518086018652600e81526d13185dd99d5b0813995d5d1c985b60921b818401526060850152845180860186528181526b151c9d594813995d5d1c985b60a21b81840152608085015284518086018652600f81526e10da185bdd1a58c813995d5d1c985b608a1b8184015260a0850152845180860186529283526a13185dd99d5b08115d9a5b60aa1b8383015260c0840192909252835180850185528281526b13995d5d1c985b08115d9a5b60a21b8183015260e084015283518085019094529083526b10da185bdd1a58c8115d9a5b60a21b90830152610100810191909152620001ee90601690600962000b2e565b50348015620001fc57600080fd5b50604080518082018252601381527f436f696e6c616e6465723a205365656b657273000000000000000000000000006020808301918252835180850190945260078452665345454b45525360c81b908401528151919291620002619160009162000a9f565b5080516200027790600190602084019062000a9f565b50506001600b55506200028c60003362000330565b620002a76000805160206200621b8339815191523362000330565b620002c36000805160206200621b833981519152600062000340565b6001600c6000828254620002d8919062000c1e565b9091555050600c54620002ed9033906200038b565b604061064362000302610d0561138862000c1e565b6200030e919062000c1e565b6200031a919062000c1e565b6200032790600162000c1e565b600d5562000d6a565b6200033c8282620003ad565b5050565b6000828152600a6020526040808220600101805490849055905190918391839186917fbd79b86ffe0ab8e8776151514217cd7cacd52c909f66475c3af44e129f0b00ff9190a4505050565b6200033c8282604051806020016040528060008152506200045160201b60201c565b6000828152600a602090815260408083206001600160a01b038516845290915290205460ff166200033c576000828152600a602090815260408083206001600160a01b03851684529091529020805460ff191660011790556200040d3390565b6001600160a01b0316816001600160a01b0316837f2f8788117e7eff1d82e926ec794901d17c78024a50270940304540a733656f0d60405160405180910390a45050565b6200045d8383620004cd565b6200046c600084848462000623565b620004c85760405162461bcd60e51b81526020600482015260326024820152600080516020620061d483398151915260448201527131b2b4bb32b91034b6b83632b6b2b73a32b960711b60648201526084015b60405180910390fd5b505050565b6001600160a01b038216620005255760405162461bcd60e51b815260206004820181905260248201527f4552433732313a206d696e7420746f20746865207a65726f20616464726573736044820152606401620004bf565b6000818152600260205260409020546001600160a01b0316156200058c5760405162461bcd60e51b815260206004820152601c60248201527f4552433732313a20746f6b656e20616c7265616479206d696e746564000000006044820152606401620004bf565b6200059a600083836200077c565b6001600160a01b0382166000908152600360205260408120805460019290620005c590849062000c1e565b909155505060008181526002602052604080822080546001600160a01b0319166001600160a01b03861690811790915590518392907fddf252ad1be2c89b69c2b068fc378daa952ba7f163c4a11628f55a4df523b3ef908290a45050565b600062000644846001600160a01b03166200085860201b62002a501760201c565b156200077057604051630a85bd0160e11b81526001600160a01b0385169063150b7a02906200067e90339089908890889060040162000c39565b6020604051808303816000875af1925050508015620006bc575060408051601f3d908101601f19168201909252620006b99181019062000cb4565b60015b62000755573d808015620006ed576040519150601f19603f3d011682016040523d82523d6000602084013e620006f2565b606091505b5080516200074d5760405162461bcd60e51b81526020600482015260326024820152600080516020620061d483398151915260448201527131b2b4bb32b91034b6b83632b6b2b73a32b960711b6064820152608401620004bf565b805181602001fd5b6001600160e01b031916630a85bd0160e11b14905062000774565b5060015b949350505050565b62000794838383620004c860201b620012261760201c565b6001600160a01b038316620007f257620007ec81600880546000838152600960205260408120829055600182018355919091527ff3f7a9fe364faab93b216da50a3214154f22a0a2b415b23a84c8169e8b636ee30155565b62000818565b816001600160a01b0316836001600160a01b03161462000818576200081883826200085e565b6001600160a01b0382166200083257620004c8816200090b565b826001600160a01b0316826001600160a01b031614620004c857620004c88282620009c5565b3b151590565b60006001620008788462000a1660201b620019551760201c565b62000884919062000ce7565b600083815260076020526040902054909150808214620008d8576001600160a01b03841660009081526006602090815260408083208584528252808320548484528184208190558352600790915290208190555b5060009182526007602090815260408084208490556001600160a01b039094168352600681528383209183525290812055565b6008546000906200091f9060019062000ce7565b600083815260096020526040812054600880549394509092849081106200094a576200094a62000d01565b9060005260206000200154905080600883815481106200096e576200096e62000d01565b6000918252602080832090910192909255828152600990915260408082208490558582528120556008805480620009a957620009a962000d17565b6001900381819060005260206000200160009055905550505050565b6000620009dd8362000a1660201b620019551760201c565b6001600160a01b039093166000908152600660209081526040808320868452825280832085905593825260079052919091209190915550565b60006001600160a01b03821662000a835760405162461bcd60e51b815260206004820152602a60248201527f4552433732313a2062616c616e636520717565727920666f7220746865207a65604482015269726f206164647265737360b01b6064820152608401620004bf565b506001600160a01b031660009081526003602052604090205490565b82805462000aad9062000d2d565b90600052602060002090601f01602090048101928262000ad1576000855562000b1c565b82601f1062000aec57805160ff191683800117855562000b1c565b8280016001018555821562000b1c579182015b8281111562000b1c57825182559160200191906001019062000aff565b5062000b2a92915062000b8e565b5090565b82805482825590600052602060002090810192821562000b80579160200282015b8281111562000b80578251805162000b6f91849160209091019062000a9f565b509160200191906001019062000b4f565b5062000b2a92915062000ba5565b5b8082111562000b2a576000815560010162000b8f565b8082111562000b2a57600062000bbc828262000bc6565b5060010162000ba5565b50805462000bd49062000d2d565b6000825580601f1062000be5575050565b601f01602090049060005260206000209081019062000c05919062000b8e565b50565b634e487b7160e01b600052601160045260246000fd5b6000821982111562000c345762000c3462000c08565b500190565b600060018060a01b038087168352602081871681850152856040850152608060608501528451915081608085015260005b8281101562000c885785810182015185820160a00152810162000c6a565b8281111562000c9b57600060a084870101525b5050601f01601f19169190910160a00195945050505050565b60006020828403121562000cc757600080fd5b81516001600160e01b03198116811462000ce057600080fd5b9392505050565b60008282101562000cfc5762000cfc62000c08565b500390565b634e487b7160e01b600052603260045260246000fd5b634e487b7160e01b600052603160045260246000fd5b600181811c9082168062000d4257607f821691505b6020821081141562000d6457634e487b7160e01b600052602260045260246000fd5b50919050565b61545a8062000d7a6000396000f3fe6080604052600436106103fe5760003560e01c806381cd08ee11610213578063b88d4fde11610123578063dec8a315116100ab578063e985e9c51161007a578063e985e9c514610c47578063eb8fafd014610c90578063eeb3f66d14610caa578063fe01946214610ccc578063ff25b2b214610ce157600080fd5b8063dec8a31514610bac578063e25a8b6114610bc2578063e84f579814610bf2578063e8a3d48514610c3257600080fd5b8063ca21ec1b116100f2578063ca21ec1b14610b0a578063d547741f14610b3d578063dce62c7914610b5d578063dd38007514610b77578063dec3a74c14610b9757600080fd5b8063b88d4fde14610a7e578063c5ce83f914610a9e578063c5f5e3d114610abd578063c87b56dd14610aea57600080fd5b80639c6bf854116101a6578063a1a6125f11610175578063a1a6125f146109fe578063a217fddf14610a14578063a22cb46514610a29578063a28d746814610a49578063b085a3f714610a6957600080fd5b80639c6bf8541461096b5780639d1b464a146109805780639dc4263f146109965780639e945058146109d157600080fd5b806394a3b4d9116101e257806394a3b4d9146108f557806395d89b4114610915578063961325211461092a5780639767d4231461094b57600080fd5b806381cd08ee1461087f5780638ae626a21461089f57806391d14854146108b5578063938e3d7b146108d557600080fd5b80634032b72b1161030e5780636352211e116102a157806373afc2571161027057806373afc257146108075780637a9597a61461081a5780637aaf13a01461082f5780637c6aa02a1461084f578063807d88fa1461086557600080fd5b80636352211e1461079d578063682341fa146107bd5780636e39a345146107d257806370a08231146107e757600080fd5b80635123b39a116102dd5780635123b39a1461072257806351e224ca1461073c57806355f804b31461075c57806361cf05ce1461077c57600080fd5b80634032b72b146106ba57806342842e0e146106da5780634311de8f146106fa5780634f6ccce71461070257600080fd5b806310b12709116103915780632f2ff15d116103605780632f2ff15d146105ec5780632f745c591461060c5780632fc2add11461062c57806336568abe1461067a57806336842eae1461069a57600080fd5b806310b127091461056857806318160ddd1461057d57806323b872dd1461059c578063248a9ca3146105bc57600080fd5b806303989c71116103cd57806303989c71146104da57806306fdde03146104fb578063081812fc14610510578063095ea7b31461054857600080fd5b806301ffc9a71461044157806302368a2c146104765780630278c1ba1461049857806302a1b9e9146104c557600080fd5b3661043c5760405162461bcd60e51b81526020600482015260096024820152680452d3030312d3032360bc1b60448201526064015b60405180910390fd5b600080fd5b34801561044d57600080fd5b5061046161045c366004614930565b610d01565b60405190151581526020015b60405180910390f35b34801561048257600080fd5b5061049661049136600461494d565b610d12565b005b3480156104a457600080fd5b506104b86104b336600461496f565b610ed5565b60405161046d91906149e0565b3480156104d157600080fd5b50610496610f79565b3480156104e657600080fd5b50601154610461906301000000900460ff1681565b34801561050757600080fd5b506104b8610fee565b34801561051c57600080fd5b5061053061052b36600461496f565b611080565b6040516001600160a01b03909116815260200161046d565b34801561055457600080fd5b50610496610563366004614a0a565b611115565b34801561057457600080fd5b5061049661122b565b34801561058957600080fd5b506008545b60405190815260200161046d565b3480156105a857600080fd5b506104966105b7366004614a34565b611303565b3480156105c857600080fd5b5061058e6105d736600461496f565b6000908152600a602052604090206001015490565b3480156105f857600080fd5b50610496610607366004614a70565b611334565b34801561061857600080fd5b5061058e610627366004614a0a565b61135a565b34801561063857600080fd5b5061066761064736600461496f565b600090815260136020526040902060010154600160281b900461ffff1690565b60405161ffff909116815260200161046d565b34801561068657600080fd5b50610496610695366004614a70565b6113f0565b3480156106a657600080fd5b506104966106b5366004614a70565b61146e565b3480156106c657600080fd5b506104966106d5366004614a9c565b61150f565b3480156106e657600080fd5b506104966106f5366004614a34565b61155e565b610496611579565b34801561070e57600080fd5b5061058e61071d36600461496f565b6115dc565b34801561072e57600080fd5b5061058e6512309ce5400081565b34801561074857600080fd5b5061049661075736600461496f565b61166f565b34801561076857600080fd5b50610496610777366004614b43565b6117bb565b34801561078857600080fd5b5060115461046190600160301b900460ff1681565b3480156107a957600080fd5b506105306107b836600461496f565b611802565b3480156107c957600080fd5b50610667600181565b3480156107de57600080fd5b50610496611879565b3480156107f357600080fd5b5061058e610802366004614a9c565b611955565b61049661081536600461496f565b6119dc565b34801561082657600080fd5b50610667600581565b34801561083b57600080fd5b5061049661084a36600461496f565b611b42565b34801561085b57600080fd5b5061058e600e5481565b34801561087157600080fd5b5061058e655af3107a400081565b34801561088b57600080fd5b5061049661089a366004614a9c565b611ca4565b3480156108ab57600080fd5b5061058e612b6781565b3480156108c157600080fd5b506104616108d0366004614a70565b611cf0565b3480156108e157600080fd5b506104966108f0366004614b8c565b611d1b565b34801561090157600080fd5b5061058e610910366004614a9c565b611d5b565b34801561092157600080fd5b506104b8611de6565b34801561093657600080fd5b5060115461046190600160281b900460ff1681565b34801561095757600080fd5b506011546104619062010000900460ff1681565b34801561097757600080fd5b50610667600381565b34801561098c57600080fd5b5061058e600f5481565b3480156109a257600080fd5b506106676109b136600461496f565b600090815260136020526040902060010154600160381b900461ffff1690565b3480156109dd57600080fd5b506109f16109ec36600461496f565b611df5565b60405161046d9190614bfe565b348015610a0a57600080fd5b5061066761040081565b348015610a2057600080fd5b5061058e600081565b348015610a3557600080fd5b50610496610a44366004614c3a565b61219e565b348015610a5557600080fd5b50610496610a6436600461496f565b612263565b348015610a7557600080fd5b506104966125b2565b348015610a8a57600080fd5b50610496610a99366004614c76565b612600565b348015610aaa57600080fd5b5060115461046190610100900460ff1681565b348015610ac957600080fd5b50610add610ad836600461496f565b612638565b60405161046d9190614cf2565b348015610af657600080fd5b506104b8610b0536600461496f565b61269d565b348015610b1657600080fd5b50610461610b2536600461496f565b60009081526013602052604090206001015460ff1690565b348015610b4957600080fd5b50610496610b58366004614a70565b612778565b348015610b6957600080fd5b506011546104619060ff1681565b348015610b8357600080fd5b50610496610b92366004614d1d565b61279e565b348015610ba357600080fd5b5061049661285a565b348015610bb857600080fd5b5061058e610d0581565b348015610bce57600080fd5b50610461610bdd36600461496f565b60009081526012602052604090205460ff1690565b348015610bfe57600080fd5b50610530610c0d36600461496f565b600090815260136020526040902060010154600160481b90046001600160a01b031690565b348015610c3e57600080fd5b506104b8612933565b348015610c5357600080fd5b50610461610c62366004614d49565b6001600160a01b03918216600090815260056020908152604080832093909416825291909152205460ff1690565b348015610c9c57600080fd5b5061058e652d79883d200081565b348015610cb657600080fd5b5060115461046190640100000000900460ff1681565b348015610cd857600080fd5b50610496612942565b348015610ced57600080fd5b50610496610cfc366004614a9c565b612986565b6000610d0c82612a56565b92915050565b610d2a6000805160206153e583398151915233611cf0565b610d465760405162461bcd60e51b815260040161043390614d73565b6000610d5183611802565b6001600160a01b03161415610d945760405162461bcd60e51b8152602060048201526009602482015268114b4c0c0c4b4c0c4d60ba1b6044820152606401610433565b60008111610dd05760405162461bcd60e51b8152602060048201526009602482015268452d3030312d30313560b81b6044820152606401610433565b600082815260136020526040902060010154600160281b900461ffff16610400610dfa8383614dac565b1115610e2b576000838152601360205260409020600101805461ffff60281b19166604000000000000179055610e75565b60008381526013602052604090206001018054839190600590610e5a908490600160281b900461ffff16614dc4565b92506101000a81548161ffff021916908361ffff1602179055505b600083815260136020908152604091829020600101548251858152600160281b90910461ffff169181019190915284917f2d06a0b6d9e448255510db8be5700d234d963e07554aa376f2a103125f19ae62910160405180910390a2505050565b600081815260136020526040812080546060929190610ef390614dea565b80601f0160208091040260200160405190810160405280929190818152602001828054610f1f90614dea565b8015610f6c5780601f10610f4157610100808354040283529160200191610f6c565b820191906000526020600020905b815481529060010190602001808311610f4f57829003601f168201915b5093979650505050505050565b610f916000805160206153e583398151915233611cf0565b610fad5760405162461bcd60e51b815260040161043390614d73565b6011805466ff0000000000001916600160301b1790556040517f384cd6e879e19b3a7feb9103a0279a87ba150b6ca87991db6cb08ca2981224ee90600090a1565b606060008054610ffd90614dea565b80601f016020809104026020016040519081016040528092919081815260200182805461102990614dea565b80156110765780601f1061104b57610100808354040283529160200191611076565b820191906000526020600020905b81548152906001019060200180831161105957829003601f168201915b5050505050905090565b6000818152600260205260408120546001600160a01b03166110f95760405162461bcd60e51b815260206004820152602c60248201527f4552433732313a20617070726f76656420717565727920666f72206e6f6e657860448201526b34b9ba32b73a103a37b5b2b760a11b6064820152608401610433565b506000908152600460205260409020546001600160a01b031690565b600061112082611802565b9050806001600160a01b0316836001600160a01b0316141561118e5760405162461bcd60e51b815260206004820152602160248201527f4552433732313a20617070726f76616c20746f2063757272656e74206f776e656044820152603960f91b6064820152608401610433565b336001600160a01b03821614806111aa57506111aa8133610c62565b61121c5760405162461bcd60e51b815260206004820152603860248201527f4552433732313a20617070726f76652063616c6c6572206973206e6f74206f7760448201527f6e6572206e6f7220617070726f76656420666f7220616c6c00000000000000006064820152608401610433565b6112268383612a7b565b505050565b6112436000805160206153e583398151915233611cf0565b61125f5760405162461bcd60e51b815260040161043390614d73565b60115460ff161561129e5760405162461bcd60e51b8152602060048201526009602482015268452d3030312d30303560b81b6044820152606401610433565b6011805460ff191660011790556040517f0d3dae01e1b4644a9619797b649d24e856e8d3dd662f97e01427e70bf2ae91a690600090a16112e16040611388614dac565b600e60008282546112f29190614dac565b90915550506512309ce54000600f55565b61130d3382612ae9565b6113295760405162461bcd60e51b815260040161043390614e25565b611226838383612be0565b6000828152600a60205260409020600101546113508133612d8b565b6112268383612def565b600061136583611955565b82106113c75760405162461bcd60e51b815260206004820152602b60248201527f455243373231456e756d657261626c653a206f776e657220696e646578206f7560448201526a74206f6620626f756e647360a81b6064820152608401610433565b506001600160a01b03919091166000908152600660209081526040808320938352929052205490565b6001600160a01b03811633146114605760405162461bcd60e51b815260206004820152602f60248201527f416363657373436f6e74726f6c3a2063616e206f6e6c792072656e6f756e636560448201526e103937b632b9903337b91039b2b63360891b6064820152608401610433565b61146a8282612e75565b5050565b61147782611802565b6001600160a01b0316336001600160a01b0316146114a75760405162461bcd60e51b815260040161043390614e76565b6000828152601360205260408082206001018054600160481b600160e81b031916600160481b6001600160a01b038616908102919091179091559051909184917fafa5959eb8823d589ec08c28f3effdde6546d1102288f3ba855119af25e3bbba9190a35050565b61152760008051602061540583398151915233611cf0565b6115435760405162461bcd60e51b815260040161043390614e99565b61155b60008051602061540583398151915282611334565b50565b61122683838360405180602001604052806000815250612600565b61159160008051602061540583398151915233611cf0565b6115ad5760405162461bcd60e51b815260040161043390614e99565b6040514790339082156108fc029083906000818181858888f1935050505015801561146a573d6000803e3d6000fd5b60006115e760085490565b821061164a5760405162461bcd60e51b815260206004820152602c60248201527f455243373231456e756d657261626c653a20676c6f62616c20696e646578206f60448201526b7574206f6620626f756e647360a01b6064820152608401610433565b6008828154811061165d5761165d614ebc565b90600052602060002001549050919050565b601154600160301b900460ff166116b45760405162461bcd60e51b8152602060048201526009602482015268452d3030312d30303960b81b6044820152606401610433565b6116bd81611802565b6001600160a01b0316336001600160a01b0316146116ed5760405162461bcd60e51b815260040161043390614e76565b60008181526012602052604090205460ff166117375760405162461bcd60e51b815260206004820152600960248201526822969818189698189960b91b6044820152606401610433565b611742816001612edc565b61174d816001612fe0565b60008281526013602052604090819020600101805461ffff93909316600160381b0261ffff60381b1990931692909217909155517fdcc2145292317879f6319461deaed4ada2422f436a0b0e15f2af0e60c637d121906117b09083815260200190565b60405180910390a150565b6117d360008051602061540583398151915233611cf0565b6117ef5760405162461bcd60e51b815260040161043390614e99565b805161146a9060159060208401906147d0565b6000818152600260205260408120546001600160a01b031680610d0c5760405162461bcd60e51b815260206004820152602960248201527f4552433732313a206f776e657220717565727920666f72206e6f6e657869737460448201526832b73a103a37b5b2b760b91b6064820152608401610433565b6118916000805160206153e583398151915233611cf0565b6118ad5760405162461bcd60e51b815260040161043390614d73565b60115462010000900460ff16156118f25760405162461bcd60e51b8152602060048201526009602482015268452d3030312d30303760b81b6044820152606401610433565b6011805464ffffff000019166401000100001790556040517f1bbe80213228404e276963f9e286d445ba1e5609daacc5098b97ad3783da4d9790600090a161010b600e60008282546119449190614dac565b9091555050655af3107a4000600f55565b60006001600160a01b0382166119c05760405162461bcd60e51b815260206004820152602a60248201527f4552433732313a2062616c616e636520717565727920666f7220746865207a65604482015269726f206164647265737360b01b6064820152608401610433565b506001600160a01b031660009081526003602052604090205490565b6002600b541415611a2f5760405162461bcd60e51b815260206004820152601f60248201527f5265656e7472616e637947756172643a207265656e7472616e742063616c6c006044820152606401610433565b6002600b558015801590611a445750600a8111155b611a7c5760405162461bcd60e51b8152602060048201526009602482015268452d3030312d30303160b81b6044820152606401610433565b80600f54611a8a9190614ed2565b341015611ac55760405162461bcd60e51b815260206004820152600960248201526822969818189698181960b91b6044820152606401610433565b600e5481600c54611ad69190614dac565b1115611af45760405162461bcd60e51b815260040161043390614ef1565b60005b81811015611b39576001600c6000828254611b129190614dac565b92505081905550611b2733600c546000613155565b80611b3181614f14565b915050611af7565b50506001600b55565b6002600b541415611b955760405162461bcd60e51b815260206004820152601f60248201527f5265656e7472616e637947756172643a207265656e7472616e742063616c6c006044820152606401610433565b6002600b55611bb260008051602061540583398151915233611cf0565b611bce5760405162461bcd60e51b815260040161043390614e99565b604081601054611bde9190614dac565b1115611c185760405162461bcd60e51b8152602060048201526009602482015268114b4c0c0c4b4c0c0d60ba1b6044820152606401610433565b600e5481600c54611c299190614dac565b1115611c475760405162461bcd60e51b815260040161043390614ef1565b8060106000828254611c599190614dac565b90915550600090505b81811015611b39576001600c6000828254611c7d9190614dac565b92505081905550611c9233600c546000613155565b80611c9c81614f14565b915050611c62565b611cbc60008051602061540583398151915233611cf0565b611cd85760405162461bcd60e51b815260040161043390614e99565b61155b6000805160206153e583398151915282611334565b6000918252600a602090815260408084206001600160a01b0393909316845291905290205460ff1690565b611d3360008051602061540583398151915233611cf0565b611d4f5760405162461bcd60e51b815260040161043390614e99565b61122660148383614854565b6000611d756000805160206153e583398151915233611cf0565b611d915760405162461bcd60e51b815260040161043390614d73565b612b67600d5410611db45760405162461bcd60e51b815260040161043390614ef1565b6001600d6000828254611dc79190614dac565b92505081905550611ddc82600d546001613155565b50600d545b919050565b606060018054610ffd90614dea565b611dfd6148c8565b60008281526012602052604090205460ff16611e475760405162461bcd60e51b815260206004820152600960248201526822969818189698189960b91b6044820152606401610433565b600082815260136020526040812060010154600160381b900461ffff1690611e6e846132ed565b9150506000808260001415611e8557506000905060105b8260011415611e9a5750601090506020611ea2565b506020905060605b611eaa6148c8565b61ffff8516611eb76148e7565b601082901b65fffff000000016600c83811b650fffff00000016600885811b64fffff0000016600487811b640fffff00001663fffff00089169189901c630fffff00169589901c620fffff169389901c62fffff0169390931794909417939093171791909117171781600063ffffffff9290921660209092020152601482901b63f000000016601083901b630f00000016600c84901b62f0000016600885811b620f000016600487811b61f00016610f0089169389901c600f169189901c60f0169190911792909217919091171717171781600163ffffffff9290921660209092020152601882901b63f000000016601483901b630f00000016601084901b62f0000016600c85901b620f000016600886901b61f00016600487811b610f00169088901c600f1660f089161717171717171781600263ffffffff909216602092909202015260f0600483901b16600f831617610f00600884901b161761f000600c84901b1617620f0000601084901b161762f00000601484901b1617630f000000601884901b161763f0000000601c84901b161781600363ffffffff909216602092909202015260005b60208161ffff1610156120cb578161207a600483614f45565b61ffff166004811061208e5761208e614ebc565b6020020151848261ffff16602081106120a9576120a9614ebc565b63ffffffff9092166020929092020152806120c381614f66565b915050612061565b506000856120ee6120dc8288614f88565b6120e7906001614dc4565b8a88613499565b6120f89190614dc4565b905060005b8161ffff168161ffff16101561218f57600061211b60208b84613499565b9050600061212b60208385613499565b9050868161ffff166020811061214357612143614ebc565b60200201516121538360026151a0565b18878261ffff166020811061216a5761216a614ebc565b63ffffffff90921660209290920201525081905061218781614f66565b9150506120fd565b50929998505050505050505050565b6001600160a01b0382163314156121f75760405162461bcd60e51b815260206004820152601960248201527f4552433732313a20617070726f766520746f2063616c6c6572000000000000006044820152606401610433565b3360008181526005602090815260408083206001600160a01b03871680855290835292819020805460ff191686151590811790915590519081529192917f17307eab39ab6107e8899845ad3d59bd9653f200f220920489ca2b5937696c31910160405180910390a35050565b601154600160301b900460ff166122a85760405162461bcd60e51b8152602060048201526009602482015268452d3030312d30303960b81b6044820152606401610433565b6122b181611802565b6001600160a01b0316336001600160a01b0316146122e15760405162461bcd60e51b815260040161043390614e76565b60008181526012602052604090205460ff161561232c5760405162461bcd60e51b8152602060048201526009602482015268452d3030312d30313160b81b6044820152606401610433565b60006123366134f2565b9050600061234383613a55565b6000848152601260209081526040808320805460ff19166001908117909155815161012081018352878152888552601384528285209091015460ff16151592810192909252929350909181018383602002015160ff168152602001836001600481106123b1576123b1614ebc565b602002015160ff168152602001836002600481106123d1576123d1614ebc565b602002015160ff168152602001836003600481106123f1576123f1614ebc565b6020908102919091015160ff1682526000878152601380835260408083206001810154600160281b810461ffff1687870152918601849052600160481b9091046001600160a01b031660609095019490945290889052815282518051939450849361245f92849201906147d0565b5060208201516001909101805460408401516060850151608086015160a087015160c088015160e0890151610100998a01516001600160a01b0316600160481b02600160481b600160e81b031961ffff928316600160381b0216600160381b600160e81b031992909316600160281b0261ffff60281b1960ff958616640100000000021666ffffff000000001996861663010000000263ff0000001998871662010000029890981663ffff00001999909616909c0261ff00199b15159b909b1661ffff199099169890981799909917959095169190911792909217169590951791909117169290921717905560006125578582612fe0565b600086815260136020526040808220600101805461ffff60381b1916600160381b61ffff8616021790555191925086917f41bbd0e6e72fe1635257a4b4e357fc8af4fd144c837dc8d0a82cdf8d1c8cb6f09190a25050505050565b6125ca6000805160206153e583398151915233611cf0565b6125e65760405162461bcd60e51b815260040161043390614d73565b6004600e60008282546125f99190614dac565b9091555050565b61260a3383612ae9565b6126265760405162461bcd60e51b815260040161043390614e25565b61263284848484613c96565b50505050565b6126406148e7565b50604080516080810182526000838152601360208181528483206001015460ff6101008204811686526201000082048116838701526401000000008204811696860196909652959092529052630100000090920416606082015290565b6000818152600260205260409020546060906001600160a01b031661271c5760405162461bcd60e51b815260206004820152602f60248201527f4552433732314d657461646174613a2055524920717565727920666f72206e6f60448201526e3732bc34b9ba32b73a103a37b5b2b760891b6064820152608401610433565b6000612726613cc9565b905060008151116127465760405180602001604052806000815250612771565b8061275084613cd8565b6040516020016127619291906151b6565b6040516020818303038152906040525b9392505050565b6000828152600a60205260409020600101546127948133612d8b565b6112268383612e75565b6127b66000805160206153e583398151915233611cf0565b6127d25760405162461bcd60e51b815260040161043390614d73565b60006127dd83611802565b6001600160a01b031614156128205760405162461bcd60e51b8152602060048201526009602482015268114b4c0c0c4b4c0c4d60ba1b6044820152606401610433565b3261282a83611802565b6001600160a01b0316146128505760405162461bcd60e51b815260040161043390614e76565b61146a8282612edc565b6128726000805160206153e583398151915233611cf0565b61288e5760405162461bcd60e51b815260040161043390614d73565b601154610100900460ff16156128d25760405162461bcd60e51b815260206004820152600960248201526822969818189698181b60b91b6044820152606401610433565b6011805463ff00ff00191663010001001790556040517fce28fb74a9fed93421bef1c67a577ec8bdd8f93d99962f27a4b52207e9e80dd390600090a1610d05600e60008282546129229190614dac565b9091555050652d79883d2000600f55565b606060148054610ffd90614dea565b61295a6000805160206153e583398151915233611cf0565b6129765760405162461bcd60e51b815260040161043390614d73565b6011805464ff0000000019169055565b61299e6000805160206153e583398151915233611cf0565b6129ba5760405162461bcd60e51b815260040161043390614d73565b601154600160281b900460ff1615612a005760405162461bcd60e51b815260206004820152600960248201526808a5a6060625a6060760bb1b6044820152606401610433565b6011805465ff00000000001916600160281b179055612a1f6001613dd6565b61155b612a2c6001611802565b8260016040518060400160405280600381526020016203078360ec1b815250613c96565b3b151590565b60006001600160e01b03198216637965db0b60e01b1480610d0c5750610d0c82613fae565b600081815260046020526040902080546001600160a01b0319166001600160a01b0384169081179091558190612ab082611802565b6001600160a01b03167f8c5be1e5ebec7d5bd14f71427d1e84f3dd0314c0f7b2291e5b200ac8c7c3b92560405160405180910390a45050565b6000818152600260205260408120546001600160a01b0316612b625760405162461bcd60e51b815260206004820152602c60248201527f4552433732313a206f70657261746f7220717565727920666f72206e6f6e657860448201526b34b9ba32b73a103a37b5b2b760a11b6064820152608401610433565b6000612b6d83611802565b9050806001600160a01b0316846001600160a01b03161480612ba85750836001600160a01b0316612b9d84611080565b6001600160a01b0316145b80612bd857506001600160a01b0380821660009081526005602090815260408083209388168352929052205460ff165b949350505050565b826001600160a01b0316612bf382611802565b6001600160a01b031614612c5b5760405162461bcd60e51b815260206004820152602960248201527f4552433732313a207472616e73666572206f6620746f6b656e2074686174206960448201526839903737ba1037bbb760b91b6064820152608401610433565b6001600160a01b038216612cbd5760405162461bcd60e51b8152602060048201526024808201527f4552433732313a207472616e7366657220746f20746865207a65726f206164646044820152637265737360e01b6064820152608401610433565b612cc8838383613fd3565b612cd3600082612a7b565b6001600160a01b0383166000908152600360205260408120805460019290612cfc9084906151dc565b90915550506001600160a01b0382166000908152600360205260408120805460019290612d2a908490614dac565b909155505060008181526002602052604080822080546001600160a01b0319166001600160a01b0386811691821790925591518493918716917fddf252ad1be2c89b69c2b068fc378daa952ba7f163c4a11628f55a4df523b3ef91a4505050565b612d958282611cf0565b61146a57612dad816001600160a01b0316601461408b565b612db883602061408b565b604051602001612dc99291906151f3565b60408051601f198184030181529082905262461bcd60e51b8252610433916004016149e0565b612df98282611cf0565b61146a576000828152600a602090815260408083206001600160a01b03851684529091529020805460ff19166001179055612e313390565b6001600160a01b0316816001600160a01b0316837f2f8788117e7eff1d82e926ec794901d17c78024a50270940304540a733656f0d60405160405180910390a45050565b612e7f8282611cf0565b1561146a576000828152600a602090815260408083206001600160a01b0385168085529252808320805460ff1916905551339285917ff6391f5c32d9c69d2a47ea670b442974b53935d1edc7fd64eb21e047a839171b9190a45050565b60008281526013602052604090206001015461ffff600160281b90910481169082161115612f385760405162461bcd60e51b8152602060048201526009602482015268452d3030312d30323160b81b6044820152606401610433565b60008281526013602052604090206001018054829190600590612f67908490600160281b900461ffff16614f88565b82546101009290920a61ffff8181021990931691831602179091556000848152601360209081526040918290206001015482518685168152600160281b909104909316908301528492507fa7ed3965d6fe6e37914f97b6e0e30e56ea184d78907b49c112c18867c8f31757910160405180910390a25050565b600080612fec846132ed565b5090506000808260011415613007575060079050600c61300f565b506004905060085b6000808061301d8585614f88565b613028906001614dc4565b90506000886130435761303e620100008b614227565b613061565b60008a815260136020526040902060010154600160381b900461ffff165b9050600086613071848d85613499565b61307b9190614dc4565b905060005b8161ffff168161ffff1610156130bf5761309c60108285613499565b9450856130aa866002615268565b179550806130b781614f66565b915050613080565b5060006130d160648461ffff16614227565b905088600214156131165760058161ffff161080156130ee57508a155b156131055785199950505050505050505050610d0c565b859950505050505050505050610d0c565b886131055760058161ffff1610801561312d57508a155b1561314357859950505050505050505050610d0c565b85199950505050505050505050610d0c565b60038115613161575060055b6040805161014081018252600061012082018181528252841515602080840191909152828401829052606083018290526080830182905260a0830182905261ffff851660c084015260e0830182905261010083018290528682526013815292902081518051929384936131d792849201906147d0565b5060208281015160019290920180546040808601516060870151608088015160a089015160c08a015160e08b01516101009b8c015161ffff199098169a151561ff0019169a909a1760ff958616909b029a909a1763ffff00001916620100009385169390930263ff0000001916929092176301000000918416919091021766ffffff000000001916640100000000929091169190910261ffff60281b191617600160281b61ffff9788160217600160381b600160e81b031916600160381b9690951695909502600160481b600160e81b03191693909317600160481b6001600160a01b0390941693909302929092179091556000868152601290915220805460ff191690556132e685856142a2565b5050505050565b600081815260136020526040812080548291829161330a90614dea565b80601f016020809104026020016040519081016040528092919081815260200182805461333690614dea565b80156133835780601f1061335857610100808354040283529160200191613383565b820191906000526020600020905b81548152906001019060200180831161336657829003601f168201915b50505050509050606060005b60165481101561348b57601681815481106133ac576133ac614ebc565b9060005260206000200180546133c190614dea565b80601f01602080910402602001604051908101604052809291908181526020018280546133ed90614dea565b801561343a5780601f1061340f5761010080835404028352916020019161343a565b820191906000526020600020905b81548152906001019060200180831161341d57829003601f168201915b505050505091508180519060200120838051906020012014156134795761346260038261527b565b61346d60038361528f565b94509450505050915091565b8061348381614f14565b91505061338f565b506000958695509350505050565b6040516001600160f01b031960f084811b8216602084015283901b16602282015260009081906024016040516020818303038152906040528051906020012060f01c905084816134e99190614f45565b95945050505050565b601154606090640100000000900460ff16156137975760408051600380825260808201909252600091816020015b6060815260200190600190039081613520579050509050601660008154811061354b5761354b614ebc565b90600052602060002001805461356090614dea565b80601f016020809104026020016040519081016040528092919081815260200182805461358c90614dea565b80156135d95780601f106135ae576101008083540402835291602001916135d9565b820191906000526020600020905b8154815290600101906020018083116135bc57829003601f168201915b5050505050816000815181106135f1576135f1614ebc565b6020026020010181905250601660018154811061361057613610614ebc565b90600052602060002001805461362590614dea565b80601f016020809104026020016040519081016040528092919081815260200182805461365190614dea565b801561369e5780601f106136735761010080835404028352916020019161369e565b820191906000526020600020905b81548152906001019060200180831161368157829003601f168201915b5050505050816001815181106136b6576136b6614ebc565b602002602001018190525060166002815481106136d5576136d5614ebc565b9060005260206000200180546136ea90614dea565b80601f016020809104026020016040519081016040528092919081815260200182805461371690614dea565b80156137635780601f1061373857610100808354040283529160200191613763565b820191906000526020600020905b81548152906001019060200180831161374657829003601f168201915b50505050508160028151811061377b5761377b614ebc565b60200260200101819052506137916003826142bc565b91505090565b6011546301000000900460ff16156139765760408051600380825260808201909252600091816020015b60608152602001906001900390816137c157905050905060166006815481106137ec576137ec614ebc565b90600052602060002001805461380190614dea565b80601f016020809104026020016040519081016040528092919081815260200182805461382d90614dea565b801561387a5780601f1061384f5761010080835404028352916020019161387a565b820191906000526020600020905b81548152906001019060200180831161385d57829003601f168201915b50505050508160008151811061389257613892614ebc565b602002602001018190525060166007815481106138b1576138b1614ebc565b9060005260206000200180546138c690614dea565b80601f01602080910402602001604051908101604052809291908181526020018280546138f290614dea565b801561393f5780601f106139145761010080835404028352916020019161393f565b820191906000526020600020905b81548152906001019060200180831161392257829003601f168201915b50505050508160018151811061395757613957614ebc565b602002602001018190525060166008815481106136d5576136d5614ebc565b6016805460408051602080840282018101909252828152613a50939091839060009084015b82821015613a475783829060005260206000200180546139ba90614dea565b80601f01602080910402602001604051908101604052809291908181526020018280546139e690614dea565b8015613a335780601f10613a0857610100808354040283529160200191613a33565b820191906000526020600020905b815481529060010190602001808311613a1657829003601f168201915b50505050508152602001906001019061399b565b505050506142bc565b905090565b613a5d6148e7565b600082815260136020526040902060010154600a9060179060329060ff1615613a8957600f9250601991505b6000613a9584846151dc565b613aa0906001614dac565b90506000613aaf826000614227565b613ab99086614dac565b90506000613ac8836001614227565b613ad29087614dac565b90506000613ae1846002614227565b613aeb9088614dac565b90506000613afa856003614227565b613b049089614dac565b905060008183613b1486886152a3565b613b1e91906152a3565b613b2891906152a3565b6040805160808101825260ff808916825287811660208301528681169282019290925284821660608201529192508881169083161015613bad576000613b6e838a6152c8565b90506000613b7b83614302565b905081838260ff1660048110613b9357613b93614ebc565b60200201818151613ba491906152a3565b60ff1690525050505b60005b6004811015613c86576000613bc68260046151dc565b60408051426020820152016040516020818303038152906040528051906020012060001c613bf4919061528f565b613bfe9083614dac565b90506000838260048110613c1457613c14614ebc565b60200201519050838360048110613c2d57613c2d614ebc565b6020020151848360048110613c4457613c44614ebc565b60ff909216602092909202015280848460048110613c6457613c64614ebc565b60ff909216602092909202015250819050613c7e81614f14565b915050613bb0565b509b9a5050505050505050505050565b613ca1848484612be0565b613cad84848484614371565b6126325760405162461bcd60e51b8152600401610433906152eb565b606060158054610ffd90614dea565b606081613cfc5750506040805180820190915260018152600360fc1b602082015290565b8160005b8115613d265780613d1081614f14565b9150613d1f9050600a8361527b565b9150613d00565b60008167ffffffffffffffff811115613d4157613d41614ab7565b6040519080825280601f01601f191660200182016040528015613d6b576020820181803683370190505b5090505b8415612bd857613d806001836151dc565b9150613d8d600a8661528f565b613d98906030614dac565b60f81b818381518110613dad57613dad614ebc565b60200101906001600160f81b031916908160001a905350613dcf600a8661527b565b9450613d6f565b6000818152601260209081526040808320805460ff19166001908117909155815161016081018352600c61012082019081526b151c9d594813995d5d1c985b60a21b61014083015281528084018290526019818401819052606082018190526080820181905260a082015261040060c082015260e081018590528585526013808552928520918201546001600160a01b03600160481b9091041661010082015293859052908252825180518493613e919284929101906147d0565b50602082015160019190910180546040808501516060860151608087015160a088015160c089015160e08a01516101009a8b015161ffff1990981699151561ff0019169990991760ff958616909a029990991763ffff00001916620100009385169390930263ff0000001916929092176301000000918416919091021766ffffff000000001916640100000000929091169190910261ffff60281b191617600160281b61ffff9687160217600160381b600160e81b031916600160381b9590941694909402600160481b600160e81b03191692909217600160481b6001600160a01b03909316929092029190911790555182907f41bbd0e6e72fe1635257a4b4e357fc8af4fd144c837dc8d0a82cdf8d1c8cb6f090600090a25050565b60006001600160e01b0319821663780e9d6360e01b1480610d0c5750610d0c8261446f565b6001600160a01b03831661402e5761402981600880546000838152600960205260408120829055600182018355919091527ff3f7a9fe364faab93b216da50a3214154f22a0a2b415b23a84c8169e8b636ee30155565b614051565b816001600160a01b0316836001600160a01b0316146140515761405183826144bf565b6001600160a01b038216614068576112268161455c565b826001600160a01b0316826001600160a01b03161461122657611226828261460b565b6060600061409a836002614ed2565b6140a5906002614dac565b67ffffffffffffffff8111156140bd576140bd614ab7565b6040519080825280601f01601f1916602001820160405280156140e7576020820181803683370190505b509050600360fc1b8160008151811061410257614102614ebc565b60200101906001600160f81b031916908160001a905350600f60fb1b8160018151811061413157614131614ebc565b60200101906001600160f81b031916908160001a9053506000614155846002614ed2565b614160906001614dac565b90505b60018111156141d8576f181899199a1a9b1b9c1cb0b131b232b360811b85600f166010811061419457614194614ebc565b1a60f81b8282815181106141aa576141aa614ebc565b60200101906001600160f81b031916908160001a90535060049490941c936141d18161533d565b9050614163565b5083156127715760405162461bcd60e51b815260206004820181905260248201527f537472696e67733a20686578206c656e67746820696e73756666696369656e746044820152606401610433565b6000806142356001436151dc565b60408051914060208301526bffffffffffffffffffffffff1941606090811b8216928401929092524460548401523390911b1660748201526088810185905260a8810184905260c80160408051601f1981840301815291905280516020909101209050612bd8848261528f565b61146a82826040518060200160405280600081525061464f565b606060006142cb846000614227565b90506000838451836142dd919061528f565b815181106142ed576142ed614ebc565b60200260200101519050809250505092915050565b60008060005b60048160ff16101561436a57838260ff166004811061432957614329614ebc565b602002015160ff16848260ff166004811061434657614346614ebc565b602002015160ff161015614358578091505b8061436281615354565b915050614308565b5092915050565b60006001600160a01b0384163b1561446457604051630a85bd0160e11b81526001600160a01b0385169063150b7a02906143b5903390899088908890600401615374565b6020604051808303816000875af19250505080156143f0575060408051601f3d908101601f191682019092526143ed918101906153b1565b60015b61444a573d80801561441e576040519150601f19603f3d011682016040523d82523d6000602084013e614423565b606091505b5080516144425760405162461bcd60e51b8152600401610433906152eb565b805181602001fd5b6001600160e01b031916630a85bd0160e11b149050612bd8565b506001949350505050565b60006001600160e01b031982166380ac58cd60e01b14806144a057506001600160e01b03198216635b5e139f60e01b145b80610d0c57506301ffc9a760e01b6001600160e01b0319831614610d0c565b600060016144cc84611955565b6144d691906151dc565b600083815260076020526040902054909150808214614529576001600160a01b03841660009081526006602090815260408083208584528252808320548484528184208190558352600790915290208190555b5060009182526007602090815260408084208490556001600160a01b039094168352600681528383209183525290812055565b60085460009061456e906001906151dc565b6000838152600960205260408120546008805493945090928490811061459657614596614ebc565b9060005260206000200154905080600883815481106145b7576145b7614ebc565b60009182526020808320909101929092558281526009909152604080822084905585825281205560088054806145ef576145ef6153ce565b6001900381819060005260206000200160009055905550505050565b600061461683611955565b6001600160a01b039093166000908152600660209081526040808320868452825280832085905593825260079052919091209190915550565b6146598383614682565b6146666000848484614371565b6112265760405162461bcd60e51b8152600401610433906152eb565b6001600160a01b0382166146d85760405162461bcd60e51b815260206004820181905260248201527f4552433732313a206d696e7420746f20746865207a65726f20616464726573736044820152606401610433565b6000818152600260205260409020546001600160a01b03161561473d5760405162461bcd60e51b815260206004820152601c60248201527f4552433732313a20746f6b656e20616c7265616479206d696e746564000000006044820152606401610433565b61474960008383613fd3565b6001600160a01b0382166000908152600360205260408120805460019290614772908490614dac565b909155505060008181526002602052604080822080546001600160a01b0319166001600160a01b03861690811790915590518392907fddf252ad1be2c89b69c2b068fc378daa952ba7f163c4a11628f55a4df523b3ef908290a45050565b8280546147dc90614dea565b90600052602060002090601f0160209004810192826147fe5760008555614844565b82601f1061481757805160ff1916838001178555614844565b82800160010185558215614844579182015b82811115614844578251825591602001919060010190614829565b50614850929150614905565b5090565b82805461486090614dea565b90600052602060002090601f0160209004810192826148825760008555614844565b82601f1061489b5782800160ff19823516178555614844565b82800160010185558215614844579182015b828111156148445782358255916020019190600101906148ad565b6040518061040001604052806020906020820280368337509192915050565b60405180608001604052806004906020820280368337509192915050565b5b808211156148505760008155600101614906565b6001600160e01b03198116811461155b57600080fd5b60006020828403121561494257600080fd5b81356127718161491a565b6000806040838503121561496057600080fd5b50508035926020909101359150565b60006020828403121561498157600080fd5b5035919050565b60005b838110156149a357818101518382015260200161498b565b838111156126325750506000910152565b600081518084526149cc816020860160208601614988565b601f01601f19169290920160200192915050565b60208152600061277160208301846149b4565b80356001600160a01b0381168114611de157600080fd5b60008060408385031215614a1d57600080fd5b614a26836149f3565b946020939093013593505050565b600080600060608486031215614a4957600080fd5b614a52846149f3565b9250614a60602085016149f3565b9150604084013590509250925092565b60008060408385031215614a8357600080fd5b82359150614a93602084016149f3565b90509250929050565b600060208284031215614aae57600080fd5b612771826149f3565b634e487b7160e01b600052604160045260246000fd5b600067ffffffffffffffff80841115614ae857614ae8614ab7565b604051601f8501601f19908116603f01168101908282118183101715614b1057614b10614ab7565b81604052809350858152868686011115614b2957600080fd5b858560208301376000602087830101525050509392505050565b600060208284031215614b5557600080fd5b813567ffffffffffffffff811115614b6c57600080fd5b8201601f81018413614b7d57600080fd5b612bd884823560208401614acd565b60008060208385031215614b9f57600080fd5b823567ffffffffffffffff80821115614bb757600080fd5b818501915085601f830112614bcb57600080fd5b813581811115614bda57600080fd5b866020828501011115614bec57600080fd5b60209290920196919550909350505050565b6104008101818360005b6020808210614c175750614c31565b825163ffffffff1684529283019290910190600101614c08565b50505092915050565b60008060408385031215614c4d57600080fd5b614c56836149f3565b915060208301358015158114614c6b57600080fd5b809150509250929050565b60008060008060808587031215614c8c57600080fd5b614c95856149f3565b9350614ca3602086016149f3565b925060408501359150606085013567ffffffffffffffff811115614cc657600080fd5b8501601f81018713614cd757600080fd5b614ce687823560208401614acd565b91505092959194509250565b60808101818360005b6004811015614c3157815160ff16835260209283019290910190600101614cfb565b60008060408385031215614d3057600080fd5b82359150602083013561ffff81168114614c6b57600080fd5b60008060408385031215614d5c57600080fd5b614d65836149f3565b9150614a93602084016149f3565b602080825260099082015268452d3030312d30313760b81b604082015260600190565b634e487b7160e01b600052601160045260246000fd5b60008219821115614dbf57614dbf614d96565b500190565b600061ffff808316818516808303821115614de157614de1614d96565b01949350505050565b600181811c90821680614dfe57607f821691505b60208210811415614e1f57634e487b7160e01b600052602260045260246000fd5b50919050565b60208082526031908201527f4552433732313a207472616e736665722063616c6c6572206973206e6f74206f6040820152701ddb995c881b9bdc88185c1c1c9bdd9959607a1b606082015260800190565b6020808252600990820152680452d3030312d3031360bc1b604082015260600190565b60208082526009908201526808a5a6060625a6062760bb1b604082015260600190565b634e487b7160e01b600052603260045260246000fd5b6000816000190483118215151615614eec57614eec614d96565b500290565b602080825260099082015268452d3030312d30303360b81b604082015260600190565b6000600019821415614f2857614f28614d96565b5060010190565b634e487b7160e01b600052601260045260246000fd5b600061ffff80841680614f5a57614f5a614f2f565b92169190910692915050565b600061ffff80831681811415614f7e57614f7e614d96565b6001019392505050565b600061ffff83811690831681811015614fa357614fa3614d96565b039392505050565b600181815b80851115614fe8578163ffffffff04821115614fce57614fce614d96565b80851615614fdb57918102915b93841c9390800290614fb0565b509250929050565b600181815b80851115614fe8578161ffff0482111561501157615011614d96565b8085161561501e57918102915b93841c9390800290614ff5565b60008261503a57506001610d0c565b8161504757506000610d0c565b816001811461505d576002811461506757615098565b6001915050610d0c565b60ff84111561507857615078614d96565b6001841b915063ffffffff82111561509257615092614d96565b50610d0c565b5060208310610133831016604e8410600b84101617156150cf575081810a63ffffffff8111156150ca576150ca614d96565b610d0c565b6150d98383614fab565b8063ffffffff048211156150ef576150ef614d96565b029392505050565b60008261510657506001610d0c565b8161511357506000610d0c565b816001811461505d576002811461512957615152565b60ff84111561513a5761513a614d96565b6001841b915061ffff82111561509257615092614d96565b5060208310610133831016604e8410600b8410161715615182575081810a61ffff8111156150ca576150ca614d96565b61518c8383614ff0565b8061ffff048211156150ef576150ef614d96565b600061277161ffff841663ffffffff841661502b565b600083516151c8818460208801614988565b835190830190614de1818360208801614988565b6000828210156151ee576151ee614d96565b500390565b7f416363657373436f6e74726f6c3a206163636f756e742000000000000000000081526000835161522b816017850160208801614988565b7001034b99036b4b9b9b4b733903937b6329607d1b601791840191820152835161525c816028840160208801614988565b01602801949350505050565b600061ffff612bd88185168285166150f7565b60008261528a5761528a614f2f565b500490565b60008261529e5761529e614f2f565b500690565b600060ff821660ff84168060ff038211156152c0576152c0614d96565b019392505050565b600060ff821660ff8416808210156152e2576152e2614d96565b90039392505050565b60208082526032908201527f4552433732313a207472616e7366657220746f206e6f6e20455243373231526560408201527131b2b4bb32b91034b6b83632b6b2b73a32b960711b606082015260800190565b60008161534c5761534c614d96565b506000190190565b600060ff821660ff81141561536b5761536b614d96565b60010192915050565b6001600160a01b03858116825284166020820152604081018390526080606082018190526000906153a7908301846149b4565b9695505050505050565b6000602082840312156153c357600080fd5b81516127718161491a565b634e487b7160e01b600052603160045260246000fdfe6a64baf327d646d1bca72653e2a075d15fd6ac6d8cbd7f6ee03fc55875e0fa882fa3586e1228a6d020f44df84a4695dcd1cfcb55a51cd832563c729d866522ffa2646970667358221220d8e03fc751efae4c897252c81b1aadf04f4cc1306103c688539b41f5955ffed464736f6c634300080a00334552433732313a207472616e7366657220746f206e6f6e20455243373231526568747470733a2f2f6170692e636f696e6c616e6465722e6465762f6d6574612f7365656b6572732fa3586e1228a6d020f44df84a4695dcd1cfcb55a51cd832563c729d866522ff68747470733a2f2f6170692e636f696e6c616e6465722e6465762f6d6574612f7365656b6572732f",
  "linkReferences": {},
  "deployedLinkReferences": {}
}