{
  "_format": "hh-sol-artifact-1",
  "contractName": "Vault",
  "sourceName": "contracts/Vault.sol",
  "abi": [
    {
      "inputs": [
        {
          "internalType": "address",
          "name": "_randomnessOracle",
          "type": "address"
        }
      ],
      "stateMutability": "nonpayable",
      "type": "constructor"
    },
    {
      "anonymous": false,
      "inputs": [
        {
          "indexed": true,
          "internalType": "address",
          "name": "account",
          "type": "address"
        },
        {
          "indexed": true,
          "internalType": "address",
          "name": "operator",
          "type": "address"
        },
        {
          "indexed": false,
          "internalType": "bool",
          "name": "approved",
          "type": "bool"
        }
      ],
      "name": "ApprovalForAll",
      "type": "event"
    },
    {
      "anonymous": false,
      "inputs": [
        {
          "indexed": true,
          "internalType": "address",
          "name": "previousOwner",
          "type": "address"
        },
        {
          "indexed": true,
          "internalType": "address",
          "name": "newOwner",
          "type": "address"
        }
      ],
      "name": "OwnershipTransferred",
      "type": "event"
    },
    {
      "anonymous": false,
      "inputs": [
        {
          "indexed": false,
          "internalType": "uint16",
          "name": "requestId",
          "type": "uint16"
        },
        {
          "indexed": false,
          "internalType": "uint16",
          "name": "result",
          "type": "uint16"
        }
      ],
      "name": "RandomnessFulfilled",
      "type": "event"
    },
    {
      "anonymous": false,
      "inputs": [
        {
          "indexed": false,
          "internalType": "address",
          "name": "currentOracle",
          "type": "address"
        },
        {
          "indexed": false,
          "internalType": "address",
          "name": "newOracle",
          "type": "address"
        }
      ],
      "name": "RandomnessOracleChanged",
      "type": "event"
    },
    {
      "anonymous": false,
      "inputs": [
        {
          "indexed": false,
          "internalType": "address",
          "name": "requester",
          "type": "address"
        },
        {
          "indexed": false,
          "internalType": "uint16",
          "name": "requestId",
          "type": "uint16"
        }
      ],
      "name": "RandomnessRequested",
      "type": "event"
    },
    {
      "anonymous": false,
      "inputs": [
        {
          "indexed": true,
          "internalType": "address",
          "name": "operator",
          "type": "address"
        },
        {
          "indexed": true,
          "internalType": "address",
          "name": "from",
          "type": "address"
        },
        {
          "indexed": true,
          "internalType": "address",
          "name": "to",
          "type": "address"
        },
        {
          "indexed": false,
          "internalType": "uint256[]",
          "name": "ids",
          "type": "uint256[]"
        },
        {
          "indexed": false,
          "internalType": "uint256[]",
          "name": "values",
          "type": "uint256[]"
        }
      ],
      "name": "TransferBatch",
      "type": "event"
    },
    {
      "anonymous": false,
      "inputs": [
        {
          "indexed": true,
          "internalType": "address",
          "name": "operator",
          "type": "address"
        },
        {
          "indexed": true,
          "internalType": "address",
          "name": "from",
          "type": "address"
        },
        {
          "indexed": true,
          "internalType": "address",
          "name": "to",
          "type": "address"
        },
        {
          "indexed": false,
          "internalType": "uint256",
          "name": "id",
          "type": "uint256"
        },
        {
          "indexed": false,
          "internalType": "uint256",
          "name": "value",
          "type": "uint256"
        }
      ],
      "name": "TransferSingle",
      "type": "event"
    },
    {
      "anonymous": false,
      "inputs": [
        {
          "indexed": false,
          "internalType": "string",
          "name": "value",
          "type": "string"
        },
        {
          "indexed": true,
          "internalType": "uint256",
          "name": "id",
          "type": "uint256"
        }
      ],
      "name": "URI",
      "type": "event"
    },
    {
      "anonymous": false,
      "inputs": [
        {
          "indexed": false,
          "internalType": "address",
          "name": "winner",
          "type": "address"
        }
      ],
      "name": "VaultUnlocked",
      "type": "event"
    },
    {
      "inputs": [],
      "name": "FRAGMENT1",
      "outputs": [
        {
          "internalType": "uint256",
          "name": "",
          "type": "uint256"
        }
      ],
      "stateMutability": "view",
      "type": "function"
    },
    {
      "inputs": [],
      "name": "FRAGMENT2",
      "outputs": [
        {
          "internalType": "uint256",
          "name": "",
          "type": "uint256"
        }
      ],
      "stateMutability": "view",
      "type": "function"
    },
    {
      "inputs": [],
      "name": "FRAGMENT3",
      "outputs": [
        {
          "internalType": "uint256",
          "name": "",
          "type": "uint256"
        }
      ],
      "stateMutability": "view",
      "type": "function"
    },
    {
      "inputs": [],
      "name": "FRAGMENT4",
      "outputs": [
        {
          "internalType": "uint256",
          "name": "",
          "type": "uint256"
        }
      ],
      "stateMutability": "view",
      "type": "function"
    },
    {
      "inputs": [],
      "name": "FRAGMENT5",
      "outputs": [
        {
          "internalType": "uint256",
          "name": "",
          "type": "uint256"
        }
      ],
      "stateMutability": "view",
      "type": "function"
    },
    {
      "inputs": [],
      "name": "FRAGMENT6",
      "outputs": [
        {
          "internalType": "uint256",
          "name": "",
          "type": "uint256"
        }
      ],
      "stateMutability": "view",
      "type": "function"
    },
    {
      "inputs": [],
      "name": "FRAGMENT7",
      "outputs": [
        {
          "internalType": "uint256",
          "name": "",
          "type": "uint256"
        }
      ],
      "stateMutability": "view",
      "type": "function"
    },
    {
      "inputs": [],
      "name": "FRAGMENT8",
      "outputs": [
        {
          "internalType": "uint256",
          "name": "",
          "type": "uint256"
        }
      ],
      "stateMutability": "view",
      "type": "function"
    },
    {
      "inputs": [],
      "name": "KEY",
      "outputs": [
        {
          "internalType": "uint256",
          "name": "",
          "type": "uint256"
        }
      ],
      "stateMutability": "view",
      "type": "function"
    },
    {
      "inputs": [],
      "name": "MAXFRAGMENTS",
      "outputs": [
        {
          "internalType": "uint16",
          "name": "",
          "type": "uint16"
        }
      ],
      "stateMutability": "view",
      "type": "function"
    },
    {
      "inputs": [
        {
          "internalType": "address",
          "name": "account",
          "type": "address"
        },
        {
          "internalType": "uint256",
          "name": "id",
          "type": "uint256"
        }
      ],
      "name": "balanceOf",
      "outputs": [
        {
          "internalType": "uint256",
          "name": "",
          "type": "uint256"
        }
      ],
      "stateMutability": "view",
      "type": "function"
    },
    {
      "inputs": [
        {
          "internalType": "address[]",
          "name": "accounts",
          "type": "address[]"
        },
        {
          "internalType": "uint256[]",
          "name": "ids",
          "type": "uint256[]"
        }
      ],
      "name": "balanceOfBatch",
      "outputs": [
        {
          "internalType": "uint256[]",
          "name": "",
          "type": "uint256[]"
        }
      ],
      "stateMutability": "view",
      "type": "function"
    },
    {
      "inputs": [
        {
          "internalType": "string",
          "name": "_newURI",
          "type": "string"
        }
      ],
      "name": "changeURI",
      "outputs": [],
      "stateMutability": "nonpayable",
      "type": "function"
    },
    {
      "inputs": [],
      "name": "claimFragments",
      "outputs": [],
      "stateMutability": "nonpayable",
      "type": "function"
    },
    {
      "inputs": [],
      "name": "claimKeepersVault",
      "outputs": [],
      "stateMutability": "nonpayable",
      "type": "function"
    },
    {
      "inputs": [
        {
          "internalType": "address",
          "name": "",
          "type": "address"
        },
        {
          "internalType": "uint256",
          "name": "",
          "type": "uint256"
        }
      ],
      "name": "claimables",
      "outputs": [
        {
          "internalType": "uint16",
          "name": "",
          "type": "uint16"
        }
      ],
      "stateMutability": "view",
      "type": "function"
    },
    {
      "inputs": [],
      "name": "contractURI",
      "outputs": [
        {
          "internalType": "string",
          "name": "",
          "type": "string"
        }
      ],
      "stateMutability": "view",
      "type": "function"
    },
    {
      "inputs": [
        {
          "internalType": "uint16",
          "name": "_requestId",
          "type": "uint16"
        }
      ],
      "name": "fulfillRequest",
      "outputs": [],
      "stateMutability": "nonpayable",
      "type": "function"
    },
    {
      "inputs": [],
      "name": "fundPrizePurse",
      "outputs": [],
      "stateMutability": "payable",
      "type": "function"
    },
    {
      "inputs": [],
      "name": "gameContract",
      "outputs": [
        {
          "internalType": "address",
          "name": "",
          "type": "address"
        }
      ],
      "stateMutability": "view",
      "type": "function"
    },
    {
      "inputs": [],
      "name": "gameWon",
      "outputs": [
        {
          "internalType": "bool",
          "name": "",
          "type": "bool"
        }
      ],
      "stateMutability": "view",
      "type": "function"
    },
    {
      "inputs": [
        {
          "internalType": "address",
          "name": "account",
          "type": "address"
        },
        {
          "internalType": "address",
          "name": "operator",
          "type": "address"
        }
      ],
      "name": "isApprovedForAll",
      "outputs": [
        {
          "internalType": "bool",
          "name": "",
          "type": "bool"
        }
      ],
      "stateMutability": "view",
      "type": "function"
    },
    {
      "inputs": [],
      "name": "numT1",
      "outputs": [
        {
          "internalType": "uint16",
          "name": "",
          "type": "uint16"
        }
      ],
      "stateMutability": "view",
      "type": "function"
    },
    {
      "inputs": [],
      "name": "numT2",
      "outputs": [
        {
          "internalType": "uint16",
          "name": "",
          "type": "uint16"
        }
      ],
      "stateMutability": "view",
      "type": "function"
    },
    {
      "inputs": [],
      "name": "numT3",
      "outputs": [
        {
          "internalType": "uint16",
          "name": "",
          "type": "uint16"
        }
      ],
      "stateMutability": "view",
      "type": "function"
    },
    {
      "inputs": [],
      "name": "numT4",
      "outputs": [
        {
          "internalType": "uint16",
          "name": "",
          "type": "uint16"
        }
      ],
      "stateMutability": "view",
      "type": "function"
    },
    {
      "inputs": [],
      "name": "numT5",
      "outputs": [
        {
          "internalType": "uint16",
          "name": "",
          "type": "uint16"
        }
      ],
      "stateMutability": "view",
      "type": "function"
    },
    {
      "inputs": [],
      "name": "numT6",
      "outputs": [
        {
          "internalType": "uint16",
          "name": "",
          "type": "uint16"
        }
      ],
      "stateMutability": "view",
      "type": "function"
    },
    {
      "inputs": [],
      "name": "numT7",
      "outputs": [
        {
          "internalType": "uint16",
          "name": "",
          "type": "uint16"
        }
      ],
      "stateMutability": "view",
      "type": "function"
    },
    {
      "inputs": [],
      "name": "numT8",
      "outputs": [
        {
          "internalType": "uint16",
          "name": "",
          "type": "uint16"
        }
      ],
      "stateMutability": "view",
      "type": "function"
    },
    {
      "inputs": [],
      "name": "owner",
      "outputs": [
        {
          "internalType": "address",
          "name": "",
          "type": "address"
        }
      ],
      "stateMutability": "view",
      "type": "function"
    },
    {
      "inputs": [],
      "name": "prize",
      "outputs": [
        {
          "internalType": "uint256",
          "name": "",
          "type": "uint256"
        }
      ],
      "stateMutability": "view",
      "type": "function"
    },
    {
      "inputs": [],
      "name": "renounceOwnership",
      "outputs": [],
      "stateMutability": "nonpayable",
      "type": "function"
    },
    {
      "inputs": [
        {
          "internalType": "address",
          "name": "_requester",
          "type": "address"
        },
        {
          "internalType": "uint256",
          "name": "amount",
          "type": "uint256"
        }
      ],
      "name": "requestFragments",
      "outputs": [],
      "stateMutability": "nonpayable",
      "type": "function"
    },
    {
      "inputs": [
        {
          "internalType": "uint16",
          "name": "",
          "type": "uint16"
        }
      ],
      "name": "requestFulfillments",
      "outputs": [
        {
          "internalType": "bool",
          "name": "fulfilled",
          "type": "bool"
        },
        {
          "internalType": "address",
          "name": "requester",
          "type": "address"
        }
      ],
      "stateMutability": "view",
      "type": "function"
    },
    {
      "inputs": [
        {
          "internalType": "address",
          "name": "from",
          "type": "address"
        },
        {
          "internalType": "address",
          "name": "to",
          "type": "address"
        },
        {
          "internalType": "uint256[]",
          "name": "ids",
          "type": "uint256[]"
        },
        {
          "internalType": "uint256[]",
          "name": "amounts",
          "type": "uint256[]"
        },
        {
          "internalType": "bytes",
          "name": "data",
          "type": "bytes"
        }
      ],
      "name": "safeBatchTransferFrom",
      "outputs": [],
      "stateMutability": "nonpayable",
      "type": "function"
    },
    {
      "inputs": [
        {
          "internalType": "address",
          "name": "from",
          "type": "address"
        },
        {
          "internalType": "address",
          "name": "to",
          "type": "address"
        },
        {
          "internalType": "uint256",
          "name": "id",
          "type": "uint256"
        },
        {
          "internalType": "uint256",
          "name": "amount",
          "type": "uint256"
        },
        {
          "internalType": "bytes",
          "name": "data",
          "type": "bytes"
        }
      ],
      "name": "safeTransferFrom",
      "outputs": [],
      "stateMutability": "nonpayable",
      "type": "function"
    },
    {
      "inputs": [
        {
          "internalType": "address",
          "name": "operator",
          "type": "address"
        },
        {
          "internalType": "bool",
          "name": "approved",
          "type": "bool"
        }
      ],
      "name": "setApprovalForAll",
      "outputs": [],
      "stateMutability": "nonpayable",
      "type": "function"
    },
    {
      "inputs": [
        {
          "internalType": "string",
          "name": "newContractURI",
          "type": "string"
        }
      ],
      "name": "setContractURI",
      "outputs": [],
      "stateMutability": "nonpayable",
      "type": "function"
    },
    {
      "inputs": [
        {
          "internalType": "address",
          "name": "_gameContract",
          "type": "address"
        }
      ],
      "name": "setGameContract",
      "outputs": [],
      "stateMutability": "nonpayable",
      "type": "function"
    },
    {
      "inputs": [
        {
          "internalType": "address",
          "name": "newOracle",
          "type": "address"
        }
      ],
      "name": "setRandomnessOracle",
      "outputs": [],
      "stateMutability": "nonpayable",
      "type": "function"
    },
    {
      "inputs": [],
      "name": "setSweetRelease",
      "outputs": [],
      "stateMutability": "nonpayable",
      "type": "function"
    },
    {
      "inputs": [
        {
          "internalType": "bytes4",
          "name": "interfaceId",
          "type": "bytes4"
        }
      ],
      "name": "supportsInterface",
      "outputs": [
        {
          "internalType": "bool",
          "name": "",
          "type": "bool"
        }
      ],
      "stateMutability": "view",
      "type": "function"
    },
    {
      "inputs": [],
      "name": "sweetRelease",
      "outputs": [
        {
          "internalType": "bool",
          "name": "",
          "type": "bool"
        }
      ],
      "stateMutability": "view",
      "type": "function"
    },
    {
      "inputs": [
        {
          "internalType": "address",
          "name": "newOwner",
          "type": "address"
        }
      ],
      "name": "transferOwnership",
      "outputs": [],
      "stateMutability": "nonpayable",
      "type": "function"
    },
    {
      "inputs": [
        {
          "internalType": "uint256",
          "name": "",
          "type": "uint256"
        }
      ],
      "name": "uri",
      "outputs": [
        {
          "internalType": "string",
          "name": "",
          "type": "string"
        }
      ],
      "stateMutability": "view",
      "type": "function"
    },
    {
      "stateMutability": "payable",
      "type": "receive"
    }
  ],
  "bytecode": "0x60806040526000600655600780546001600160b01b03191690553480156200002657600080fd5b5060405162003daf38038062003daf8339810160408190526200004991620005a9565b6040518060600160405280602a815260200162003d85602a91396200006e8162000498565b506200007a33620004b1565b600160045560005b600361ffff82161015620000e6576005805460018101825560009190915260008051602062003d6583398151915260108204018054600f9092166002026101000a61ffff810219909216909117905580620000dd81620005f1565b91505062000082565b5060005b600a61ffff8216101562000153576005805460018101825560009190915260008051602062003d658339815191526010820401805461ffff6002600f90941684026101000a908102199091169202919091179055806200014a81620005f1565b915050620000ea565b5060005b600a61ffff82161015620001c0576005805460018101825560009190915260008051602062003d658339815191526010820401805461ffff600f9093166002026101000a9283021916600390920291909117905580620001b781620005f1565b91505062000157565b5060005b603261ffff821610156200022d576005805460018101825560009190915260008051602062003d658339815191526010820401805461ffff600f9093166002026101000a92830219166004909202919091179055806200022481620005f1565b915050620001c4565b5060005b606461ffff82161015620002955760058054600181018255600082905260008051602062003d658339815191526010820401805461ffff600f9093166002026101000a928302191691909202179055806200028c81620005f1565b91505062000231565b5060005b606f61ffff8216101562000302576005805460018101825560009190915260008051602062003d658339815191526010820401805461ffff600f9093166002026101000a9283021916600690920291909117905580620002f981620005f1565b91505062000299565b5060005b60de61ffff821610156200036f576005805460018101825560009190915260008051602062003d658339815191526010820401805461ffff600f9093166002026101000a92830219166007909202919091179055806200036681620005f1565b91505062000306565b5060005b60de606f60646032600a806200038d600361045762000616565b62000399919062000616565b620003a5919062000616565b620003b1919062000616565b620003bd919062000616565b620003c9919062000616565b620003d5919062000616565b61ffff168161ffff16101562000440576005805460018101825560009190915260008051602062003d658339815191526010820401805461ffff600f9093166002026101000a92830219166008909202919091179055806200043781620005f1565b91505062000373565b5060405180606001604052806025815260200162003d40602591398051620004719160089160209091019062000503565b50600980546001600160a01b0319166001600160a01b039290921691909117905562000679565b8051620004ad90600290602084019062000503565b5050565b600380546001600160a01b038381166001600160a01b0319831681179093556040519116919082907f8be0079c531659141344cd1fd0a4f28419497f9722a3daafe3b4186f6b6457e090600090a35050565b82805462000511906200063c565b90600052602060002090601f01602090048101928262000535576000855562000580565b82601f106200055057805160ff191683800117855562000580565b8280016001018555821562000580579182015b828111156200058057825182559160200191906001019062000563565b506200058e92915062000592565b5090565b5b808211156200058e576000815560010162000593565b600060208284031215620005bc57600080fd5b81516001600160a01b0381168114620005d457600080fd5b9392505050565b634e487b7160e01b600052601160045260246000fd5b600061ffff808316818114156200060c576200060c620005db565b6001019392505050565b600061ffff83811690831681811015620006345762000634620005db565b039392505050565b600181811c908216806200065157607f821691505b602082108114156200067357634e487b7160e01b600052602260045260246000fd5b50919050565b6136b780620006896000396000f3fe6080604052600436106103005760003560e01c8063938e3d7b1161018f578063e04a4ea6116100e1578063ef3af2751161008a578063f468993611610064578063f468993614610811578063ffd807d214610827578063fff1f8921461083c57600080fd5b8063ef3af275146107bc578063f242432a146107d1578063f2fde38b146107f157600080fd5b8063e8a3d485116100bb578063e8a3d48514610749578063e985e9c51461075e578063edd47abf146107a757600080fd5b8063e04a4ea6146106fe578063e3ac5d2614610713578063e5e01c111461072957600080fd5b8063aea876c011610143578063c306219d1161011d578063c306219d146106ae578063d3f33009146106c3578063d92e93c8146106e957600080fd5b8063aea876c01461066f578063b0538dae14610684578063b582aab01461069957600080fd5b8063a22cb46511610174578063a22cb4651461063a578063a6d24b6d14610415578063ae3c15971461065a57600080fd5b8063938e3d7b1461060557806397b578b11461062557600080fd5b8063405ebd4d11610253578063715018a6116101fc5780638dd3503e116101d65780638dd3503e146105d35780638f9352ba146105e857806392f393f8146105fd57600080fd5b8063715018a61461056c57806382283600146105815780638da5cb5b146105a157600080fd5b8063524a12241161022d578063524a1224146105235780635445941f146105385780636d00e2331461055757600080fd5b8063405ebd4d146104c15780634c1299c6146104e15780634e1273f4146104f657600080fd5b80631ceea796116102b55780632dc387b31161028f5780632dc387b31461046c5780632eb2c2d614610481578063335f35a7146104a157600080fd5b80631ceea7961461041557806327ddc9c11461042a5780632d2184061461044c57600080fd5b8063069a825c116102e6578063069a825c146103a65780630e89341c146103c05780631a20cef8146103ed57600080fd5b8062fdd58e1461034357806301ffc9a71461037657600080fd5b3661033e5760405162461bcd60e51b8152602060048201526009602482015268114b4c0c0c8b4c0c4d60ba1b60448201526064015b60405180910390fd5b600080fd5b34801561034f57600080fd5b5061036361035e366004612add565b61089b565b6040519081526020015b60405180910390f35b34801561038257600080fd5b50610396610391366004612b1d565b61093f565b604051901515815260200161036d565b3480156103b257600080fd5b506007546103969060ff1681565b3480156103cc57600080fd5b506103e06103db366004612b3a565b6109dc565b60405161036d9190612ba0565b3480156103f957600080fd5b50610402600381565b60405161ffff909116815260200161036d565b34801561042157600080fd5b50610402600a81565b34801561043657600080fd5b5061044a610445366004612bb3565b610a70565b005b34801561045857600080fd5b5061044a610467366004612add565b610b40565b34801561047857600080fd5b50610363600081565b34801561048d57600080fd5b5061044a61049c366004612d1a565b610d2b565b3480156104ad57600080fd5b506104026104bc366004612add565b610dcd565b3480156104cd57600080fd5b5061044a6104dc366004612bb3565b610e14565b3480156104ed57600080fd5b50610402603281565b34801561050257600080fd5b50610516610511366004612dc4565b610eae565b60405161036d9190612eca565b34801561052f57600080fd5b50610363600281565b34801561054457600080fd5b5060075461039690610100900460ff1681565b34801561056357600080fd5b50610363600781565b34801561057857600080fd5b5061044a610fec565b34801561058d57600080fd5b5061044a61059c366004612edd565b611052565b3480156105ad57600080fd5b506003546001600160a01b03165b6040516001600160a01b03909116815260200161036d565b3480156105df57600080fd5b50610363600381565b3480156105f457600080fd5b50610363600581565b61044a611332565b34801561061157600080fd5b5061044a610620366004612f01565b61134b565b34801561063157600080fd5b5061040260de81565b34801561064657600080fd5b5061044a610655366004612f73565b6113b1565b34801561066657600080fd5b5061044a61149c565b34801561067b57600080fd5b50610402606481565b34801561069057600080fd5b50610363600881565b3480156106a557600080fd5b50610402611a27565b3480156106ba57600080fd5b50610363600681565b3480156106cf57600080fd5b506007546105bb906201000090046001600160a01b031681565b3480156106f557600080fd5b5061044a611a7e565b34801561070a57600080fd5b50610363600481565b34801561071f57600080fd5b5061036360065481565b34801561073557600080fd5b5061044a610744366004612f01565b611bf2565b34801561075557600080fd5b506103e0611c8f565b34801561076a57600080fd5b50610396610779366004612faf565b6001600160a01b03918216600090815260016020908152604080832093909416825291909152205460ff1690565b3480156107b357600080fd5b5061044a611d21565b3480156107c857600080fd5b50610363600181565b3480156107dd57600080fd5b5061044a6107ec366004612fe2565b611d7e565b3480156107fd57600080fd5b5061044a61080c366004612bb3565b611e19565b34801561081d57600080fd5b5061040261045781565b34801561083357600080fd5b50610402606f81565b34801561084857600080fd5b5061087c610857366004612edd565b600b6020526000908152604090205460ff81169061010090046001600160a01b031682565b6040805192151583526001600160a01b0390911660208301520161036d565b60006001600160a01b0383166109195760405162461bcd60e51b815260206004820152602b60248201527f455243313135353a2062616c616e636520717565727920666f7220746865207a60448201527f65726f20616464726573730000000000000000000000000000000000000000006064820152608401610335565b506000908152602081815260408083206001600160a01b03949094168352929052205490565b60006001600160e01b031982167fd9b67a260000000000000000000000000000000000000000000000000000000014806109a257506001600160e01b031982167f0e89341c00000000000000000000000000000000000000000000000000000000145b806109d657507f01ffc9a7000000000000000000000000000000000000000000000000000000006001600160e01b03198316145b92915050565b6060600280546109eb90613047565b80601f0160208091040260200160405190810160405280929190818152602001828054610a1790613047565b8015610a645780601f10610a3957610100808354040283529160200191610a64565b820191906000526020600020905b815481529060010190602001808311610a4757829003601f168201915b50505050509050919050565b6003546001600160a01b03163314610aca5760405162461bcd60e51b815260206004820181905260248201527f4f776e61626c653a2063616c6c6572206973206e6f7420746865206f776e65726044820152606401610335565b600954604080516001600160a01b03928316815291831660208301527fe7e90c05da58ad509b126f5c5ce8c90551c45f8d998679deb7154a66092c12b3910160405180910390a16009805473ffffffffffffffffffffffffffffffffffffffff19166001600160a01b0392909216919091179055565b6007546201000090046001600160a01b03163314610b8c5760405162461bcd60e51b8152602060048201526009602482015268452d3030322d30313560b81b6044820152606401610335565b6009546005548291610baa91600160b01b90910461ffff1690613098565b1015610bf85760405162461bcd60e51b815260206004820152600960248201527f452d3030322d30303900000000000000000000000000000000000000000000006044820152606401610335565b60005b81811015610d265760098054600160a01b900461ffff16906014610c1e836130af565b91906101000a81548161ffff021916908361ffff160217905550506009601681819054906101000a900461ffff1680929190610c59906130af565b82546101009290920a61ffff818102199093169183160217909155600954604080516001600160a01b0388168152600160a01b90920490921660208201527f792116194a9c99a8e97047b42c4fbee03694bcb41a0d0b4b4ab5c7352577812d92500160405180910390a1600954600160a01b900461ffff166000908152600b6020526040902080547fffffffffffffffffffffff0000000000000000000000000000000000000000ff166101006001600160a01b0386160217905580610d1e816130d1565b915050610bfb565b505050565b6001600160a01b038516331480610d475750610d478533610779565b610db95760405162461bcd60e51b815260206004820152603260248201527f455243313135353a207472616e736665722063616c6c6572206973206e6f742060448201527f6f776e6572206e6f7220617070726f76656400000000000000000000000000006064820152608401610335565b610dc68585858585611efb565b5050505050565b600a6020528160005260406000208181548110610de957600080fd5b9060005260206000209060109182820401919006600202915091509054906101000a900461ffff1681565b6003546001600160a01b03163314610e6e5760405162461bcd60e51b815260206004820181905260248201527f4f776e61626c653a2063616c6c6572206973206e6f7420746865206f776e65726044820152606401610335565b600780546001600160a01b0390921662010000027fffffffffffffffffffff0000000000000000000000000000000000000000ffff909216919091179055565b60608151835114610f275760405162461bcd60e51b815260206004820152602960248201527f455243313135353a206163636f756e747320616e6420696473206c656e67746860448201527f206d69736d6174636800000000000000000000000000000000000000000000006064820152608401610335565b6000835167ffffffffffffffff811115610f4357610f43612bce565b604051908082528060200260200182016040528015610f6c578160200160208202803683370190505b50905060005b8451811015610fe457610fb7858281518110610f9057610f906130ec565b6020026020010151858381518110610faa57610faa6130ec565b602002602001015161089b565b828281518110610fc957610fc96130ec565b6020908102919091010152610fdd816130d1565b9050610f72565b509392505050565b6003546001600160a01b031633146110465760405162461bcd60e51b815260206004820181905260248201527f4f776e61626c653a2063616c6c6572206973206e6f7420746865206f776e65726044820152606401610335565b611050600061216e565b565b6009546001600160a01b031633146110ac5760405162461bcd60e51b815260206004820152600a60248201527f452d3030322d30303136000000000000000000000000000000000000000000006044820152606401610335565b61ffff81166000908152600b602052604090205460ff16156111105760405162461bcd60e51b815260206004820152600960248201527f452d3030322d30313700000000000000000000000000000000000000000000006044820152606401610335565b600954600160b01b900461ffff1661112757600080fd5b61ffff8082166000908152600b60205260409020805460ff1916600117905560098054600160b01b900490911690601661116083613102565b91906101000a81548161ffff021916908361ffff16021790555050600061118760056121cd565b905060006005828154811061119e5761119e6130ec565b90600052602060002090601091828204019190066002029054906101000a900461ffff169050600560016005805490506111d89190613098565b815481106111e8576111e86130ec565b90600052602060002090601091828204019190066002029054906101000a900461ffff166005838154811061121f5761121f6130ec565b90600052602060002090601091828204019190066002026101000a81548161ffff021916908361ffff160217905550600580548061125f5761125f613120565b600082815260208082206010600019949094018481049091018054600f808416600290810261010090810a61ffff9081021990941690945593909755898116808652600b85526040808720548490046001600160a01b0316808852600a875281882080546001810182559089529787902098880490980180549790991690940290920a808202199095169088169485021790955580519485529084019190915290917ff9ec374d5a34014dc78cce0e6df87a0f5c55ba84e7432ccab2a5493111080184910160405180910390a150505050565b34600660008282546113449190613136565b9091555050565b6003546001600160a01b031633146113a55760405162461bcd60e51b815260206004820181905260248201527f4f776e61626c653a2063616c6c6572206973206e6f7420746865206f776e65726044820152606401610335565b610d266008838361298f565b336001600160a01b03831614156114305760405162461bcd60e51b815260206004820152602960248201527f455243313135353a2073657474696e6720617070726f76616c2073746174757360448201527f20666f722073656c6600000000000000000000000000000000000000000000006064820152608401610335565b3360008181526001602090815260408083206001600160a01b03871680855290835292819020805460ff191686151590811790915590519081529192917f17307eab39ab6107e8899845ad3d59bd9653f200f220920489ca2b5937696c31910160405180910390a35050565b600260045414156114ef5760405162461bcd60e51b815260206004820152601f60248201527f5265656e7472616e637947756172643a207265656e7472616e742063616c6c006044820152606401610335565b6002600455600754610100900460ff1661154b5760405162461bcd60e51b815260206004820152600960248201527f452d3030322d30313000000000000000000000000000000000000000000000006044820152606401610335565b60075460ff161561159e5760405162461bcd60e51b815260206004820152600960248201527f452d3030322d30313100000000000000000000000000000000000000000000006044820152606401610335565b6000600654116115f05760405162461bcd60e51b815260206004820152600960248201527f452d3030322d30313200000000000000000000000000000000000000000000006044820152606401610335565b60006115fd33600161089b565b1161164a5760405162461bcd60e51b815260206004820152600960248201527f452d3030322d30303100000000000000000000000000000000000000000000006044820152606401610335565b600061165733600261089b565b116116a45760405162461bcd60e51b815260206004820152600960248201527f452d3030322d30303200000000000000000000000000000000000000000000006044820152606401610335565b60006116b133600361089b565b116116fe5760405162461bcd60e51b815260206004820152600960248201527f452d3030322d30303300000000000000000000000000000000000000000000006044820152606401610335565b600061170b33600461089b565b116117585760405162461bcd60e51b815260206004820152600960248201527f452d3030322d30303400000000000000000000000000000000000000000000006044820152606401610335565b600061176533600561089b565b116117b25760405162461bcd60e51b815260206004820152600960248201527f452d3030322d30303500000000000000000000000000000000000000000000006044820152606401610335565b60006117bf33600661089b565b1161180c5760405162461bcd60e51b815260206004820152600960248201527f452d3030322d30303600000000000000000000000000000000000000000000006044820152606401610335565b600061181933600761089b565b116118665760405162461bcd60e51b815260206004820152600960248201527f452d3030322d30303700000000000000000000000000000000000000000000006044820152606401610335565b600061187333600861089b565b116118c05760405162461bcd60e51b815260206004820152600960248201527f452d3030322d30303800000000000000000000000000000000000000000000006044820152606401610335565b6118cc3360018061221e565b6118d9336002600161221e565b6118e6336003600161221e565b6118f3336004600161221e565b611900336005600161221e565b61190d336006600161221e565b61191a336007600161221e565b611927336008600161221e565b61195033600060016040518060400160405280600381526020016203078360ec1b8152506123cb565b6040513381527fb90f637c9ae38effeea06ad34c58331954898f0d0d4109d30b95e0426b291ff79060200160405180910390a16007805460ff1916600117905560068054600091829055604051909190339083908381818185875af1925050503d80600081146119dc576040519150601f19603f3d011682016040523d82523d6000602084013e6119e1565b606091505b5050905080611a1e5760405162461bcd60e51b8152602060048201526009602482015268114b4c0c0c8b4c0c4d60ba1b6044820152606401610335565b50506001600455565b60de606f60646032600a80611a3f600361045761314e565b611a49919061314e565b611a53919061314e565b611a5d919061314e565b611a67919061314e565b611a71919061314e565b611a7b919061314e565b81565b60026004541415611ad15760405162461bcd60e51b815260206004820152601f60248201527f5265656e7472616e637947756172643a207265656e7472616e742063616c6c006044820152606401610335565b6002600455336000908152600a6020526040902054611b325760405162461bcd60e51b815260206004820152600960248201527f452d3030322d30313800000000000000000000000000000000000000000000006044820152606401610335565b60005b336000908152600a6020526040902054811015611bd257336000908152600a60205260408120805483908110611b6d57611b6d6130ec565b90600052602060002090601091828204019190066002029054906101000a900461ffff1661ffff169050611bbf338260016040518060400160405280600381526020016203078360ec1b8152506123cb565b5080611bca816130d1565b915050611b35565b50336000908152600a60205260408120611beb91612a13565b6001600455565b6003546001600160a01b03163314611c4c5760405162461bcd60e51b815260206004820181905260248201527f4f776e61626c653a2063616c6c6572206973206e6f7420746865206f776e65726044820152606401610335565b611c8b82828080601f0160208091040260200160405190810160405280939291908181526020018383808284376000920191909152506124f192505050565b5050565b606060088054611c9e90613047565b80601f0160208091040260200160405190810160405280929190818152602001828054611cca90613047565b8015611d175780601f10611cec57610100808354040283529160200191611d17565b820191906000526020600020905b815481529060010190602001808311611cfa57829003601f168201915b5050505050905090565b6007546201000090046001600160a01b03163314611d6d5760405162461bcd60e51b8152602060048201526009602482015268452d3030322d30313560b81b6044820152606401610335565b6007805461ff001916610100179055565b6001600160a01b038516331480611d9a5750611d9a8533610779565b611e0c5760405162461bcd60e51b815260206004820152602960248201527f455243313135353a2063616c6c6572206973206e6f74206f776e6572206e6f7260448201527f20617070726f76656400000000000000000000000000000000000000000000006064820152608401610335565b610dc68585858585612504565b6003546001600160a01b03163314611e735760405162461bcd60e51b815260206004820181905260248201527f4f776e61626c653a2063616c6c6572206973206e6f7420746865206f776e65726044820152606401610335565b6001600160a01b038116611eef5760405162461bcd60e51b815260206004820152602660248201527f4f776e61626c653a206e6577206f776e657220697320746865207a65726f206160448201527f64647265737300000000000000000000000000000000000000000000000000006064820152608401610335565b611ef88161216e565b50565b8151835114611f725760405162461bcd60e51b815260206004820152602860248201527f455243313135353a2069647320616e6420616d6f756e7473206c656e6774682060448201527f6d69736d617463680000000000000000000000000000000000000000000000006064820152608401610335565b6001600160a01b038416611fd65760405162461bcd60e51b815260206004820152602560248201527f455243313135353a207472616e7366657220746f20746865207a65726f206164604482015264647265737360d81b6064820152608401610335565b3360005b8451811015612100576000858281518110611ff757611ff76130ec565b602002602001015190506000858381518110612015576120156130ec565b602090810291909101810151600084815280835260408082206001600160a01b038e1683529093529190912054909150818110156120a85760405162461bcd60e51b815260206004820152602a60248201527f455243313135353a20696e73756666696369656e742062616c616e636520666f60448201526939103a3930b739b332b960b11b6064820152608401610335565b6000838152602081815260408083206001600160a01b038e8116855292528083208585039055908b168252812080548492906120e5908490613136565b92505081905550505050806120f9906130d1565b9050611fda565b50846001600160a01b0316866001600160a01b0316826001600160a01b03167f4a39dc06d4c0dbc64b70af90fd698a233a518aa5d07e595d983b8c0526c8f7fb8787604051612150929190613171565b60405180910390a46121668187878787876126a2565b505050505050565b600380546001600160a01b0383811673ffffffffffffffffffffffffffffffffffffffff19831681179093556040519116919082907f8be0079c531659141344cd1fd0a4f28419497f9722a3daafe3b4186f6b6457e090600090a35050565b600080826121dc600143613098565b40336040516020016121f09392919061319f565b60408051601f198184030181529190528051602090910120835490915061221790826134fb565b9392505050565b6001600160a01b03831661229a5760405162461bcd60e51b815260206004820152602360248201527f455243313135353a206275726e2066726f6d20746865207a65726f206164647260448201527f65737300000000000000000000000000000000000000000000000000000000006064820152608401610335565b336122ca818560006122ab87612848565b6122b487612848565b5050604080516020810190915260009052505050565b6000838152602081815260408083206001600160a01b0388168452909152902054828110156123605760405162461bcd60e51b8152602060048201526024808201527f455243313135353a206275726e20616d6f756e7420657863656564732062616c60448201527f616e6365000000000000000000000000000000000000000000000000000000006064820152608401610335565b6000848152602081815260408083206001600160a01b03898116808652918452828520888703905582518981529384018890529092908616917fc3d58168c5ae7397731d063d5bbf3d657854427343f4c083240f7aacaa2d0f62910160405180910390a45050505050565b6001600160a01b0384166124475760405162461bcd60e51b815260206004820152602160248201527f455243313135353a206d696e7420746f20746865207a65726f2061646472657360448201527f73000000000000000000000000000000000000000000000000000000000000006064820152608401610335565b336124618160008761245888612848565b610dc688612848565b6000848152602081815260408083206001600160a01b038916845290915281208054859290612491908490613136565b909155505060408051858152602081018590526001600160a01b0380881692600092918516917fc3d58168c5ae7397731d063d5bbf3d657854427343f4c083240f7aacaa2d0f62910160405180910390a4610dc681600087878787612893565b8051611c8b906002906020840190612a38565b6001600160a01b0384166125685760405162461bcd60e51b815260206004820152602560248201527f455243313135353a207472616e7366657220746f20746865207a65726f206164604482015264647265737360d81b6064820152608401610335565b3361257881878761245888612848565b6000848152602081815260408083206001600160a01b038a168452909152902054838110156125fc5760405162461bcd60e51b815260206004820152602a60248201527f455243313135353a20696e73756666696369656e742062616c616e636520666f60448201526939103a3930b739b332b960b11b6064820152608401610335565b6000858152602081815260408083206001600160a01b038b8116855292528083208785039055908816825281208054869290612639908490613136565b909155505060408051868152602081018690526001600160a01b03808916928a821692918616917fc3d58168c5ae7397731d063d5bbf3d657854427343f4c083240f7aacaa2d0f62910160405180910390a4612699828888888888612893565b50505050505050565b6001600160a01b0384163b156121665760405163bc197c8160e01b81526001600160a01b0385169063bc197c81906126e6908990899088908890889060040161351d565b6020604051808303816000875af1925050508015612721575060408051601f3d908101601f1916820190925261271e9181019061357b565b60015b6127d75761272d613598565b806308c379a0141561276757506127426135b4565b8061274d5750612769565b8060405162461bcd60e51b81526004016103359190612ba0565b505b60405162461bcd60e51b815260206004820152603460248201527f455243313135353a207472616e7366657220746f206e6f6e204552433131353560448201527f526563656976657220696d706c656d656e7465720000000000000000000000006064820152608401610335565b6001600160e01b0319811663bc197c8160e01b146126995760405162461bcd60e51b815260206004820152602860248201527f455243313135353a204552433131353552656365697665722072656a656374656044820152676420746f6b656e7360c01b6064820152608401610335565b60408051600180825281830190925260609160009190602080830190803683370190505090508281600081518110612882576128826130ec565b602090810291909101015292915050565b6001600160a01b0384163b156121665760405163f23a6e6160e01b81526001600160a01b0385169063f23a6e61906128d7908990899088908890889060040161363e565b6020604051808303816000875af1925050508015612912575060408051601f3d908101601f1916820190925261290f9181019061357b565b60015b61291e5761272d613598565b6001600160e01b0319811663f23a6e6160e01b146126995760405162461bcd60e51b815260206004820152602860248201527f455243313135353a204552433131353552656365697665722072656a656374656044820152676420746f6b656e7360c01b6064820152608401610335565b82805461299b90613047565b90600052602060002090601f0160209004810192826129bd5760008555612a03565b82601f106129d65782800160ff19823516178555612a03565b82800160010185558215612a03579182015b82811115612a035782358255916020019190600101906129e8565b50612a0f929150612aac565b5090565b50805460008255600f016010900490600052602060002090810190611ef89190612aac565b828054612a4490613047565b90600052602060002090601f016020900481019282612a665760008555612a03565b82601f10612a7f57805160ff1916838001178555612a03565b82800160010185558215612a03579182015b82811115612a03578251825591602001919060010190612a91565b5b80821115612a0f5760008155600101612aad565b80356001600160a01b0381168114612ad857600080fd5b919050565b60008060408385031215612af057600080fd5b612af983612ac1565b946020939093013593505050565b6001600160e01b031981168114611ef857600080fd5b600060208284031215612b2f57600080fd5b813561221781612b07565b600060208284031215612b4c57600080fd5b5035919050565b6000815180845260005b81811015612b7957602081850181015186830182015201612b5d565b81811115612b8b576000602083870101525b50601f01601f19169290920160200192915050565b6020815260006122176020830184612b53565b600060208284031215612bc557600080fd5b61221782612ac1565b634e487b7160e01b600052604160045260246000fd5b601f8201601f1916810167ffffffffffffffff81118282101715612c0a57612c0a612bce565b6040525050565b600067ffffffffffffffff821115612c2b57612c2b612bce565b5060051b60200190565b600082601f830112612c4657600080fd5b81356020612c5382612c11565b604051612c608282612be4565b83815260059390931b8501820192828101915086841115612c8057600080fd5b8286015b84811015612c9b5780358352918301918301612c84565b509695505050505050565b600082601f830112612cb757600080fd5b813567ffffffffffffffff811115612cd157612cd1612bce565b604051612ce8601f8301601f191660200182612be4565b818152846020838601011115612cfd57600080fd5b816020850160208301376000918101602001919091529392505050565b600080600080600060a08688031215612d3257600080fd5b612d3b86612ac1565b9450612d4960208701612ac1565b9350604086013567ffffffffffffffff80821115612d6657600080fd5b612d7289838a01612c35565b94506060880135915080821115612d8857600080fd5b612d9489838a01612c35565b93506080880135915080821115612daa57600080fd5b50612db788828901612ca6565b9150509295509295909350565b60008060408385031215612dd757600080fd5b823567ffffffffffffffff80821115612def57600080fd5b818501915085601f830112612e0357600080fd5b81356020612e1082612c11565b604051612e1d8282612be4565b83815260059390931b8501820192828101915089841115612e3d57600080fd5b948201945b83861015612e6257612e5386612ac1565b82529482019490820190612e42565b96505086013592505080821115612e7857600080fd5b50612e8585828601612c35565b9150509250929050565b600081518084526020808501945080840160005b83811015612ebf57815187529582019590820190600101612ea3565b509495945050505050565b6020815260006122176020830184612e8f565b600060208284031215612eef57600080fd5b813561ffff8116811461221757600080fd5b60008060208385031215612f1457600080fd5b823567ffffffffffffffff80821115612f2c57600080fd5b818501915085601f830112612f4057600080fd5b813581811115612f4f57600080fd5b866020828501011115612f6157600080fd5b60209290920196919550909350505050565b60008060408385031215612f8657600080fd5b612f8f83612ac1565b915060208301358015158114612fa457600080fd5b809150509250929050565b60008060408385031215612fc257600080fd5b612fcb83612ac1565b9150612fd960208401612ac1565b90509250929050565b600080600080600060a08688031215612ffa57600080fd5b61300386612ac1565b945061301160208701612ac1565b93506040860135925060608601359150608086013567ffffffffffffffff81111561303b57600080fd5b612db788828901612ca6565b600181811c9082168061305b57607f821691505b6020821081141561307c57634e487b7160e01b600052602260045260246000fd5b50919050565b634e487b7160e01b600052601160045260246000fd5b6000828210156130aa576130aa613082565b500390565b600061ffff808316818114156130c7576130c7613082565b6001019392505050565b60006000198214156130e5576130e5613082565b5060010190565b634e487b7160e01b600052603260045260246000fd5b600061ffff82168061311657613116613082565b6000190192915050565b634e487b7160e01b600052603160045260246000fd5b6000821982111561314957613149613082565b500190565b600061ffff8381169083168181101561316957613169613082565b039392505050565b6040815260006131846040830185612e8f565b82810360208401526131968185612e8f565b95945050505050565b83546000858152602081209091839160005b82600f8201101561330257815461ffff808216865260206131dc818801838560101c1661ffff169052565b60406131f18189018486851c1661ffff169052565b60609150613209828901848660301c1661ffff169052565b608061321e818a018587851c1661ffff169052565b60a09150613236828a01858760501c1661ffff169052565b60c061324b818b018688871c1661ffff169052565b60e09350613263848b01868860701c1661ffff169052565b61ffff86831c8616166101008b01526132886101208b01868860901c1661ffff169052565b61ffff86841c8616166101408b01526132ad6101608b01868860b01c1661ffff169052565b61ffff86821c8616166101808b01525050506132d56101a08801838560d01c1661ffff169052565b82901c1661ffff166101c086015260f01c6101e085015261020090930192600191909101906010016131b1565b9054908281101561331e5761ffff821684526020909301926001015b8281101561333b5761ffff601083901c1684526020909301926001015b8281101561335957602082901c61ffff168452602093909301926001015b828110156133765761ffff603083901c1684526020909301926001015b828110156133935761ffff604083901c1684526020909301926001015b828110156133b05761ffff605083901c1684526020909301926001015b828110156133cd5761ffff606083901c1684526020909301926001015b828110156133ea5761ffff607083901c1684526020909301926001015b828110156134075761ffff608083901c1684526020909301926001015b828110156134245761ffff609083901c1684526020909301926001015b828110156134415761ffff60a083901c1684526020909301926001015b8281101561345e5761ffff60b083901c1684526020909301926001015b8281101561347b5761ffff60c083901c1684526020909301926001015b828110156134985761ffff60d083901c1684526020909301926001015b828110156134b55761ffff60e083901c1684526020909301926001015b828110156134cb5760f082901c84526020840193505b5050508481526134ef602082018560601b6bffffffffffffffffffffffff19169052565b60340195945050505050565b60008261351857634e487b7160e01b600052601260045260246000fd5b500690565b60006001600160a01b03808816835280871660208401525060a0604083015261354960a0830186612e8f565b828103606084015261355b8186612e8f565b9050828103608084015261356f8185612b53565b98975050505050505050565b60006020828403121561358d57600080fd5b815161221781612b07565b600060033d11156135b15760046000803e5060005160e01c5b90565b600060443d10156135c25790565b6040516003193d81016004833e81513d67ffffffffffffffff81602484011181841117156135f257505050505090565b828501915081518181111561360a5750505050505090565b843d87010160208285010111156136245750505050505090565b61363360208286010187612be4565b509095945050505050565b60006001600160a01b03808816835280871660208401525084604083015283606083015260a0608083015261367660a0830184612b53565b97965050505050505056fea26469706673582212208bf1e9930b3eb41be682b6ffc9b6d2a89e15dd661200149dabd62e7156dd861f64736f6c634300080a003368747470733a2f2f6170692e636f696e6c616e6465722e6465762f6d6574612f7661756c74036b6384b5eca791c62761152d0c79bb0604c104a5fb6f4eb0703f3154bb3db068747470733a2f2f6170692e636f696e6c616e6465722e6465762f6d6574612f76616c75742f7b69647d",
  "linkReferences": {},
  "deployedLinkReferences": {}
}