{
  "_format": "hh-sol-artifact-1",
  "contractName": "Vault",
  "sourceName": "contracts/Vault.sol",
  "abi": [
    {
      "inputs": [],
      "stateMutability": "nonpayable",
      "type": "constructor"
    },
    {
      "anonymous": false,
      "inputs": [
        {
          "indexed": true,
          "internalType": "address",
          "name": "account",
          "type": "address"
        },
        {
          "indexed": true,
          "internalType": "address",
          "name": "operator",
          "type": "address"
        },
        {
          "indexed": false,
          "internalType": "bool",
          "name": "approved",
          "type": "bool"
        }
      ],
      "name": "ApprovalForAll",
      "type": "event"
    },
    {
      "anonymous": false,
      "inputs": [
        {
          "indexed": true,
          "internalType": "address",
          "name": "previousOwner",
          "type": "address"
        },
        {
          "indexed": true,
          "internalType": "address",
          "name": "newOwner",
          "type": "address"
        }
      ],
      "name": "OwnershipTransferred",
      "type": "event"
    },
    {
      "anonymous": false,
      "inputs": [
        {
          "indexed": true,
          "internalType": "address",
          "name": "operator",
          "type": "address"
        },
        {
          "indexed": true,
          "internalType": "address",
          "name": "from",
          "type": "address"
        },
        {
          "indexed": true,
          "internalType": "address",
          "name": "to",
          "type": "address"
        },
        {
          "indexed": false,
          "internalType": "uint256[]",
          "name": "ids",
          "type": "uint256[]"
        },
        {
          "indexed": false,
          "internalType": "uint256[]",
          "name": "values",
          "type": "uint256[]"
        }
      ],
      "name": "TransferBatch",
      "type": "event"
    },
    {
      "anonymous": false,
      "inputs": [
        {
          "indexed": true,
          "internalType": "address",
          "name": "operator",
          "type": "address"
        },
        {
          "indexed": true,
          "internalType": "address",
          "name": "from",
          "type": "address"
        },
        {
          "indexed": true,
          "internalType": "address",
          "name": "to",
          "type": "address"
        },
        {
          "indexed": false,
          "internalType": "uint256",
          "name": "id",
          "type": "uint256"
        },
        {
          "indexed": false,
          "internalType": "uint256",
          "name": "value",
          "type": "uint256"
        }
      ],
      "name": "TransferSingle",
      "type": "event"
    },
    {
      "anonymous": false,
      "inputs": [
        {
          "indexed": false,
          "internalType": "string",
          "name": "value",
          "type": "string"
        },
        {
          "indexed": true,
          "internalType": "uint256",
          "name": "id",
          "type": "uint256"
        }
      ],
      "name": "URI",
      "type": "event"
    },
    {
      "anonymous": false,
      "inputs": [
        {
          "indexed": false,
          "internalType": "address",
          "name": "winner",
          "type": "address"
        }
      ],
      "name": "VaultUnlocked",
      "type": "event"
    },
    {
      "inputs": [],
      "name": "FRAGMENT1",
      "outputs": [
        {
          "internalType": "uint256",
          "name": "",
          "type": "uint256"
        }
      ],
      "stateMutability": "view",
      "type": "function"
    },
    {
      "inputs": [],
      "name": "FRAGMENT2",
      "outputs": [
        {
          "internalType": "uint256",
          "name": "",
          "type": "uint256"
        }
      ],
      "stateMutability": "view",
      "type": "function"
    },
    {
      "inputs": [],
      "name": "FRAGMENT3",
      "outputs": [
        {
          "internalType": "uint256",
          "name": "",
          "type": "uint256"
        }
      ],
      "stateMutability": "view",
      "type": "function"
    },
    {
      "inputs": [],
      "name": "FRAGMENT4",
      "outputs": [
        {
          "internalType": "uint256",
          "name": "",
          "type": "uint256"
        }
      ],
      "stateMutability": "view",
      "type": "function"
    },
    {
      "inputs": [],
      "name": "FRAGMENT5",
      "outputs": [
        {
          "internalType": "uint256",
          "name": "",
          "type": "uint256"
        }
      ],
      "stateMutability": "view",
      "type": "function"
    },
    {
      "inputs": [],
      "name": "FRAGMENT6",
      "outputs": [
        {
          "internalType": "uint256",
          "name": "",
          "type": "uint256"
        }
      ],
      "stateMutability": "view",
      "type": "function"
    },
    {
      "inputs": [],
      "name": "FRAGMENT7",
      "outputs": [
        {
          "internalType": "uint256",
          "name": "",
          "type": "uint256"
        }
      ],
      "stateMutability": "view",
      "type": "function"
    },
    {
      "inputs": [],
      "name": "FRAGMENT8",
      "outputs": [
        {
          "internalType": "uint256",
          "name": "",
          "type": "uint256"
        }
      ],
      "stateMutability": "view",
      "type": "function"
    },
    {
      "inputs": [],
      "name": "KEY",
      "outputs": [
        {
          "internalType": "uint256",
          "name": "",
          "type": "uint256"
        }
      ],
      "stateMutability": "view",
      "type": "function"
    },
    {
      "inputs": [],
      "name": "MAXFRAGMENTS",
      "outputs": [
        {
          "internalType": "uint16",
          "name": "",
          "type": "uint16"
        }
      ],
      "stateMutability": "view",
      "type": "function"
    },
    {
      "inputs": [
        {
          "internalType": "address",
          "name": "account",
          "type": "address"
        },
        {
          "internalType": "uint256",
          "name": "id",
          "type": "uint256"
        }
      ],
      "name": "balanceOf",
      "outputs": [
        {
          "internalType": "uint256",
          "name": "",
          "type": "uint256"
        }
      ],
      "stateMutability": "view",
      "type": "function"
    },
    {
      "inputs": [
        {
          "internalType": "address[]",
          "name": "accounts",
          "type": "address[]"
        },
        {
          "internalType": "uint256[]",
          "name": "ids",
          "type": "uint256[]"
        }
      ],
      "name": "balanceOfBatch",
      "outputs": [
        {
          "internalType": "uint256[]",
          "name": "",
          "type": "uint256[]"
        }
      ],
      "stateMutability": "view",
      "type": "function"
    },
    {
      "inputs": [
        {
          "internalType": "string",
          "name": "_newURI",
          "type": "string"
        }
      ],
      "name": "changeURI",
      "outputs": [],
      "stateMutability": "nonpayable",
      "type": "function"
    },
    {
      "inputs": [],
      "name": "claimKeepersVault",
      "outputs": [],
      "stateMutability": "nonpayable",
      "type": "function"
    },
    {
      "inputs": [],
      "name": "contractURI",
      "outputs": [
        {
          "internalType": "string",
          "name": "",
          "type": "string"
        }
      ],
      "stateMutability": "view",
      "type": "function"
    },
    {
      "inputs": [],
      "name": "fundPrizePurse",
      "outputs": [],
      "stateMutability": "payable",
      "type": "function"
    },
    {
      "inputs": [],
      "name": "gameContract",
      "outputs": [
        {
          "internalType": "address",
          "name": "",
          "type": "address"
        }
      ],
      "stateMutability": "view",
      "type": "function"
    },
    {
      "inputs": [],
      "name": "gameWon",
      "outputs": [
        {
          "internalType": "bool",
          "name": "",
          "type": "bool"
        }
      ],
      "stateMutability": "view",
      "type": "function"
    },
    {
      "inputs": [
        {
          "internalType": "address",
          "name": "account",
          "type": "address"
        },
        {
          "internalType": "address",
          "name": "operator",
          "type": "address"
        }
      ],
      "name": "isApprovedForAll",
      "outputs": [
        {
          "internalType": "bool",
          "name": "",
          "type": "bool"
        }
      ],
      "stateMutability": "view",
      "type": "function"
    },
    {
      "inputs": [
        {
          "internalType": "address",
          "name": "_receiver",
          "type": "address"
        },
        {
          "internalType": "uint256",
          "name": "amount",
          "type": "uint256"
        }
      ],
      "name": "mintFragments",
      "outputs": [],
      "stateMutability": "nonpayable",
      "type": "function"
    },
    {
      "inputs": [],
      "name": "numT1",
      "outputs": [
        {
          "internalType": "uint16",
          "name": "",
          "type": "uint16"
        }
      ],
      "stateMutability": "view",
      "type": "function"
    },
    {
      "inputs": [],
      "name": "numT2",
      "outputs": [
        {
          "internalType": "uint16",
          "name": "",
          "type": "uint16"
        }
      ],
      "stateMutability": "view",
      "type": "function"
    },
    {
      "inputs": [],
      "name": "numT3",
      "outputs": [
        {
          "internalType": "uint16",
          "name": "",
          "type": "uint16"
        }
      ],
      "stateMutability": "view",
      "type": "function"
    },
    {
      "inputs": [],
      "name": "numT4",
      "outputs": [
        {
          "internalType": "uint16",
          "name": "",
          "type": "uint16"
        }
      ],
      "stateMutability": "view",
      "type": "function"
    },
    {
      "inputs": [],
      "name": "numT5",
      "outputs": [
        {
          "internalType": "uint16",
          "name": "",
          "type": "uint16"
        }
      ],
      "stateMutability": "view",
      "type": "function"
    },
    {
      "inputs": [],
      "name": "numT6",
      "outputs": [
        {
          "internalType": "uint16",
          "name": "",
          "type": "uint16"
        }
      ],
      "stateMutability": "view",
      "type": "function"
    },
    {
      "inputs": [],
      "name": "numT7",
      "outputs": [
        {
          "internalType": "uint16",
          "name": "",
          "type": "uint16"
        }
      ],
      "stateMutability": "view",
      "type": "function"
    },
    {
      "inputs": [],
      "name": "numT8",
      "outputs": [
        {
          "internalType": "uint16",
          "name": "",
          "type": "uint16"
        }
      ],
      "stateMutability": "view",
      "type": "function"
    },
    {
      "inputs": [],
      "name": "owner",
      "outputs": [
        {
          "internalType": "address",
          "name": "",
          "type": "address"
        }
      ],
      "stateMutability": "view",
      "type": "function"
    },
    {
      "inputs": [],
      "name": "prize",
      "outputs": [
        {
          "internalType": "uint256",
          "name": "",
          "type": "uint256"
        }
      ],
      "stateMutability": "view",
      "type": "function"
    },
    {
      "inputs": [],
      "name": "renounceOwnership",
      "outputs": [],
      "stateMutability": "nonpayable",
      "type": "function"
    },
    {
      "inputs": [
        {
          "internalType": "address",
          "name": "from",
          "type": "address"
        },
        {
          "internalType": "address",
          "name": "to",
          "type": "address"
        },
        {
          "internalType": "uint256[]",
          "name": "ids",
          "type": "uint256[]"
        },
        {
          "internalType": "uint256[]",
          "name": "amounts",
          "type": "uint256[]"
        },
        {
          "internalType": "bytes",
          "name": "data",
          "type": "bytes"
        }
      ],
      "name": "safeBatchTransferFrom",
      "outputs": [],
      "stateMutability": "nonpayable",
      "type": "function"
    },
    {
      "inputs": [
        {
          "internalType": "address",
          "name": "from",
          "type": "address"
        },
        {
          "internalType": "address",
          "name": "to",
          "type": "address"
        },
        {
          "internalType": "uint256",
          "name": "id",
          "type": "uint256"
        },
        {
          "internalType": "uint256",
          "name": "amount",
          "type": "uint256"
        },
        {
          "internalType": "bytes",
          "name": "data",
          "type": "bytes"
        }
      ],
      "name": "safeTransferFrom",
      "outputs": [],
      "stateMutability": "nonpayable",
      "type": "function"
    },
    {
      "inputs": [
        {
          "internalType": "address",
          "name": "operator",
          "type": "address"
        },
        {
          "internalType": "bool",
          "name": "approved",
          "type": "bool"
        }
      ],
      "name": "setApprovalForAll",
      "outputs": [],
      "stateMutability": "nonpayable",
      "type": "function"
    },
    {
      "inputs": [
        {
          "internalType": "string",
          "name": "newContractURI",
          "type": "string"
        }
      ],
      "name": "setContractURI",
      "outputs": [],
      "stateMutability": "nonpayable",
      "type": "function"
    },
    {
      "inputs": [
        {
          "internalType": "address",
          "name": "_gameContract",
          "type": "address"
        }
      ],
      "name": "setGameContract",
      "outputs": [],
      "stateMutability": "nonpayable",
      "type": "function"
    },
    {
      "inputs": [],
      "name": "setSweetRelease",
      "outputs": [],
      "stateMutability": "nonpayable",
      "type": "function"
    },
    {
      "inputs": [
        {
          "internalType": "bytes4",
          "name": "interfaceId",
          "type": "bytes4"
        }
      ],
      "name": "supportsInterface",
      "outputs": [
        {
          "internalType": "bool",
          "name": "",
          "type": "bool"
        }
      ],
      "stateMutability": "view",
      "type": "function"
    },
    {
      "inputs": [],
      "name": "sweetRelease",
      "outputs": [
        {
          "internalType": "bool",
          "name": "",
          "type": "bool"
        }
      ],
      "stateMutability": "view",
      "type": "function"
    },
    {
      "inputs": [
        {
          "internalType": "address",
          "name": "newOwner",
          "type": "address"
        }
      ],
      "name": "transferOwnership",
      "outputs": [],
      "stateMutability": "nonpayable",
      "type": "function"
    },
    {
      "inputs": [
        {
          "internalType": "uint256",
          "name": "",
          "type": "uint256"
        }
      ],
      "name": "uri",
      "outputs": [
        {
          "internalType": "string",
          "name": "",
          "type": "string"
        }
      ],
      "stateMutability": "view",
      "type": "function"
    },
    {
      "stateMutability": "payable",
      "type": "receive"
    }
  ],
  "bytecode": "0x60806040526000600655600780546001600160b01b03191690553480156200002657600080fd5b506040518060600160405280602a815260200162003669602a91396200004c8162000456565b5062000058336200046f565b600160045560005b600361ffff82161015620000c457600580546001810182556000919091526000805160206200364983398151915260108204018054600f9092166002026101000a61ffff810219909216909117905580620000bb816200057d565b91505062000060565b5060005b600a61ffff82161015620001315760058054600181018255600091909152600080516020620036498339815191526010820401805461ffff6002600f90941684026101000a9081021990911692029190911790558062000128816200057d565b915050620000c8565b5060005b600a61ffff821610156200019e5760058054600181018255600091909152600080516020620036498339815191526010820401805461ffff600f9093166002026101000a928302191660039092029190911790558062000195816200057d565b91505062000135565b5060005b603261ffff821610156200020b5760058054600181018255600091909152600080516020620036498339815191526010820401805461ffff600f9093166002026101000a928302191660049092029190911790558062000202816200057d565b915050620001a2565b5060005b606461ffff821610156200027357600580546001810182556000829052600080516020620036498339815191526010820401805461ffff600f9093166002026101000a928302191691909202179055806200026a816200057d565b9150506200020f565b5060005b606f61ffff82161015620002e05760058054600181018255600091909152600080516020620036498339815191526010820401805461ffff600f9093166002026101000a9283021916600690920291909117905580620002d7816200057d565b91505062000277565b5060005b60de61ffff821610156200034d5760058054600181018255600091909152600080516020620036498339815191526010820401805461ffff600f9093166002026101000a928302191660079092029190911790558062000344816200057d565b915050620002e4565b5060005b60de606f60646032600a806200036b6003610457620005a2565b620003779190620005a2565b620003839190620005a2565b6200038f9190620005a2565b6200039b9190620005a2565b620003a79190620005a2565b620003b39190620005a2565b61ffff168161ffff1610156200041e5760058054600181018255600091909152600080516020620036498339815191526010820401805461ffff600f9093166002026101000a928302191660089092029190911790558062000415816200057d565b91505062000351565b50604051806060016040528060258152602001620036246025913980516200044f91600891602090910190620004c1565b5062000605565b80516200046b906002906020840190620004c1565b5050565b600380546001600160a01b038381166001600160a01b0319831681179093556040519116919082907f8be0079c531659141344cd1fd0a4f28419497f9722a3daafe3b4186f6b6457e090600090a35050565b828054620004cf90620005c8565b90600052602060002090601f016020900481019282620004f357600085556200053e565b82601f106200050e57805160ff19168380011785556200053e565b828001600101855582156200053e579182015b828111156200053e57825182559160200191906001019062000521565b506200054c92915062000550565b5090565b5b808211156200054c576000815560010162000551565b634e487b7160e01b600052601160045260246000fd5b600061ffff8083168181141562000598576200059862000567565b6001019392505050565b600061ffff83811690831681811015620005c057620005c062000567565b039392505050565b600181811c90821680620005dd57607f821691505b60208210811415620005ff57634e487b7160e01b600052602260045260246000fd5b50919050565b61300f80620006156000396000f3fe6080604052600436106102c95760003560e01c806397b578b111610179578063e04a4ea6116100d6578063edd47abf1161008a578063f2fde38b11610064578063f2fde38b14610745578063f468993614610765578063ffd807d21461077b57600080fd5b8063edd47abf146106fb578063ef3af27514610710578063f242432a1461072557600080fd5b8063e5e01c11116100bb578063e5e01c111461067d578063e8a3d4851461069d578063e985e9c5146106b257600080fd5b8063e04a4ea614610652578063e3ac5d261461066757600080fd5b8063b0538dae1161012d578063c306219d11610112578063c306219d146105f7578063ce16d1661461060c578063d3f330091461062c57600080fd5b8063b0538dae146105cd578063b582aab0146105e257600080fd5b8063a6d24b6d1161015e578063a6d24b6d146103de578063ae3c1597146105a3578063aea876c0146105b857600080fd5b806397b578b11461056e578063a22cb4651461058357600080fd5b80634e1273f4116102275780638da5cb5b116101db5780638f9352ba116101c05780638f9352ba1461053157806392f393f814610546578063938e3d7b1461054e57600080fd5b80638da5cb5b146104ea5780638dd3503e1461051c57600080fd5b80635445941f1161020c5780635445941f146104a15780636d00e233146104c0578063715018a6146104d557600080fd5b80634e1273f41461045f578063524a12241461048c57600080fd5b80631ceea7961161027e5780632eb2c2d6116102635780632eb2c2d614610408578063405ebd4d1461042a5780634c1299c61461044a57600080fd5b80631ceea796146103de5780632dc387b3146103f357600080fd5b8063069a825c116102af578063069a825c1461036f5780630e89341c146103895780631a20cef8146103b657600080fd5b8062fdd58e1461030c57806301ffc9a71461033f57600080fd5b366103075760405162461bcd60e51b8152602060048201526009602482015268114b4c0c0c8b4c0c4d60ba1b60448201526064015b60405180910390fd5b600080fd5b34801561031857600080fd5b5061032c610327366004612473565b610790565b6040519081526020015b60405180910390f35b34801561034b57600080fd5b5061035f61035a3660046124b3565b610834565b6040519015158152602001610336565b34801561037b57600080fd5b5060075461035f9060ff1681565b34801561039557600080fd5b506103a96103a43660046124d0565b6108d1565b6040516103369190612536565b3480156103c257600080fd5b506103cb600381565b60405161ffff9091168152602001610336565b3480156103ea57600080fd5b506103cb600a81565b3480156103ff57600080fd5b5061032c600081565b34801561041457600080fd5b50610428610423366004612695565b610965565b005b34801561043657600080fd5b5061042861044536600461273f565b610a07565b34801561045657600080fd5b506103cb603281565b34801561046b57600080fd5b5061047f61047a36600461275a565b610aa1565b6040516103369190612860565b34801561049857600080fd5b5061032c600281565b3480156104ad57600080fd5b5060075461035f90610100900460ff1681565b3480156104cc57600080fd5b5061032c600781565b3480156104e157600080fd5b50610428610bdf565b3480156104f657600080fd5b506003546001600160a01b03165b6040516001600160a01b039091168152602001610336565b34801561052857600080fd5b5061032c600381565b34801561053d57600080fd5b5061032c600581565b610428610c45565b34801561055a57600080fd5b50610428610569366004612873565b610c5e565b34801561057a57600080fd5b506103cb60de81565b34801561058f57600080fd5b5061042861059e3660046128e5565b610cc9565b3480156105af57600080fd5b50610428610db4565b3480156105c457600080fd5b506103cb606481565b3480156105d957600080fd5b5061032c600881565b3480156105ee57600080fd5b506103cb61133f565b34801561060357600080fd5b5061032c600681565b34801561061857600080fd5b50610428610627366004612473565b611396565b34801561063857600080fd5b50600754610504906201000090046001600160a01b031681565b34801561065e57600080fd5b5061032c600481565b34801561067357600080fd5b5061032c60065481565b34801561068957600080fd5b50610428610698366004612873565b611488565b3480156106a957600080fd5b506103a9611525565b3480156106be57600080fd5b5061035f6106cd366004612921565b6001600160a01b03918216600090815260016020908152604080832093909416825291909152205460ff1690565b34801561070757600080fd5b506104286115b7565b34801561071c57600080fd5b5061032c600181565b34801561073157600080fd5b50610428610740366004612954565b611614565b34801561075157600080fd5b5061042861076036600461273f565b6116af565b34801561077157600080fd5b506103cb61045781565b34801561078757600080fd5b506103cb606f81565b60006001600160a01b03831661080e5760405162461bcd60e51b815260206004820152602b60248201527f455243313135353a2062616c616e636520717565727920666f7220746865207a60448201527f65726f206164647265737300000000000000000000000000000000000000000060648201526084016102fe565b506000908152602081815260408083206001600160a01b03949094168352929052205490565b60006001600160e01b031982167fd9b67a2600000000000000000000000000000000000000000000000000000000148061089757506001600160e01b031982167f0e89341c00000000000000000000000000000000000000000000000000000000145b806108cb57507f01ffc9a7000000000000000000000000000000000000000000000000000000006001600160e01b03198316145b92915050565b6060600280546108e0906129b9565b80601f016020809104026020016040519081016040528092919081815260200182805461090c906129b9565b80156109595780601f1061092e57610100808354040283529160200191610959565b820191906000526020600020905b81548152906001019060200180831161093c57829003601f168201915b50505050509050919050565b6001600160a01b038516331480610981575061098185336106cd565b6109f35760405162461bcd60e51b815260206004820152603260248201527f455243313135353a207472616e736665722063616c6c6572206973206e6f742060448201527f6f776e6572206e6f7220617070726f766564000000000000000000000000000060648201526084016102fe565b610a008585858585611791565b5050505050565b6003546001600160a01b03163314610a615760405162461bcd60e51b815260206004820181905260248201527f4f776e61626c653a2063616c6c6572206973206e6f7420746865206f776e657260448201526064016102fe565b600780546001600160a01b0390921662010000027fffffffffffffffffffff0000000000000000000000000000000000000000ffff909216919091179055565b60608151835114610b1a5760405162461bcd60e51b815260206004820152602960248201527f455243313135353a206163636f756e747320616e6420696473206c656e67746860448201527f206d69736d61746368000000000000000000000000000000000000000000000060648201526084016102fe565b6000835167ffffffffffffffff811115610b3657610b36612549565b604051908082528060200260200182016040528015610b5f578160200160208202803683370190505b50905060005b8451811015610bd757610baa858281518110610b8357610b836129f4565b6020026020010151858381518110610b9d57610b9d6129f4565b6020026020010151610790565b828281518110610bbc57610bbc6129f4565b6020908102919091010152610bd081612a20565b9050610b65565b509392505050565b6003546001600160a01b03163314610c395760405162461bcd60e51b815260206004820181905260248201527f4f776e61626c653a2063616c6c6572206973206e6f7420746865206f776e657260448201526064016102fe565b610c436000611a04565b565b3460066000828254610c579190612a3b565b9091555050565b6003546001600160a01b03163314610cb85760405162461bcd60e51b815260206004820181905260248201527f4f776e61626c653a2063616c6c6572206973206e6f7420746865206f776e657260448201526064016102fe565b610cc46008838361234a565b505050565b336001600160a01b0383161415610d485760405162461bcd60e51b815260206004820152602960248201527f455243313135353a2073657474696e6720617070726f76616c2073746174757360448201527f20666f722073656c66000000000000000000000000000000000000000000000060648201526084016102fe565b3360008181526001602090815260408083206001600160a01b03871680855290835292819020805460ff191686151590811790915590519081529192917f17307eab39ab6107e8899845ad3d59bd9653f200f220920489ca2b5937696c31910160405180910390a35050565b60026004541415610e075760405162461bcd60e51b815260206004820152601f60248201527f5265656e7472616e637947756172643a207265656e7472616e742063616c6c0060448201526064016102fe565b6002600455600754610100900460ff16610e635760405162461bcd60e51b815260206004820152600960248201527f452d3030322d303130000000000000000000000000000000000000000000000060448201526064016102fe565b60075460ff1615610eb65760405162461bcd60e51b815260206004820152600960248201527f452d3030322d303131000000000000000000000000000000000000000000000060448201526064016102fe565b600060065411610f085760405162461bcd60e51b815260206004820152600960248201527f452d3030322d303132000000000000000000000000000000000000000000000060448201526064016102fe565b6000610f15336001610790565b11610f625760405162461bcd60e51b815260206004820152600960248201527f452d3030322d303031000000000000000000000000000000000000000000000060448201526064016102fe565b6000610f6f336002610790565b11610fbc5760405162461bcd60e51b815260206004820152600960248201527f452d3030322d303032000000000000000000000000000000000000000000000060448201526064016102fe565b6000610fc9336003610790565b116110165760405162461bcd60e51b815260206004820152600960248201527f452d3030322d303033000000000000000000000000000000000000000000000060448201526064016102fe565b6000611023336004610790565b116110705760405162461bcd60e51b815260206004820152600960248201527f452d3030322d303034000000000000000000000000000000000000000000000060448201526064016102fe565b600061107d336005610790565b116110ca5760405162461bcd60e51b815260206004820152600960248201527f452d3030322d303035000000000000000000000000000000000000000000000060448201526064016102fe565b60006110d7336006610790565b116111245760405162461bcd60e51b815260206004820152600960248201527f452d3030322d303036000000000000000000000000000000000000000000000060448201526064016102fe565b6000611131336007610790565b1161117e5760405162461bcd60e51b815260206004820152600960248201527f452d3030322d303037000000000000000000000000000000000000000000000060448201526064016102fe565b600061118b336008610790565b116111d85760405162461bcd60e51b815260206004820152600960248201527f452d3030322d303038000000000000000000000000000000000000000000000060448201526064016102fe565b6111e433600180611a6e565b6111f13360026001611a6e565b6111fe3360036001611a6e565b61120b3360046001611a6e565b6112183360056001611a6e565b6112253360066001611a6e565b6112323360076001611a6e565b61123f3360086001611a6e565b61126833600060016040518060400160405280600381526020016203078360ec1b815250611c1b565b6040513381527fb90f637c9ae38effeea06ad34c58331954898f0d0d4109d30b95e0426b291ff79060200160405180910390a16007805460ff1916600117905560068054600091829055604051909190339083908381818185875af1925050503d80600081146112f4576040519150601f19603f3d011682016040523d82523d6000602084013e6112f9565b606091505b50509050806113365760405162461bcd60e51b8152602060048201526009602482015268114b4c0c0c8b4c0c4d60ba1b60448201526064016102fe565b50506001600455565b60de606f60646032600a806113576003610457612a53565b6113619190612a53565b61136b9190612a53565b6113759190612a53565b61137f9190612a53565b6113899190612a53565b6113939190612a53565b81565b6007546201000090046001600160a01b031633146113e25760405162461bcd60e51b8152602060048201526009602482015268452d3030322d30313560b81b60448201526064016102fe565b6005548111156114345760405162461bcd60e51b815260206004820152600960248201527f452d3030322d303039000000000000000000000000000000000000000000000060448201526064016102fe565b60005b81811015610cc457600061144b6005611d41565b9050611475848260016040518060400160405280600381526020016203078360ec1b815250611c1b565b508061148081612a20565b915050611437565b6003546001600160a01b031633146114e25760405162461bcd60e51b815260206004820181905260248201527f4f776e61626c653a2063616c6c6572206973206e6f7420746865206f776e657260448201526064016102fe565b61152182828080601f016020809104026020016040519081016040528093929190818152602001838380828437600092019190915250611e5792505050565b5050565b606060088054611534906129b9565b80601f0160208091040260200160405190810160405280929190818152602001828054611560906129b9565b80156115ad5780601f10611582576101008083540402835291602001916115ad565b820191906000526020600020905b81548152906001019060200180831161159057829003601f168201915b5050505050905090565b6007546201000090046001600160a01b031633146116035760405162461bcd60e51b8152602060048201526009602482015268452d3030322d30313560b81b60448201526064016102fe565b6007805461ff001916610100179055565b6001600160a01b038516331480611630575061163085336106cd565b6116a25760405162461bcd60e51b815260206004820152602960248201527f455243313135353a2063616c6c6572206973206e6f74206f776e6572206e6f7260448201527f20617070726f766564000000000000000000000000000000000000000000000060648201526084016102fe565b610a008585858585611e6a565b6003546001600160a01b031633146117095760405162461bcd60e51b815260206004820181905260248201527f4f776e61626c653a2063616c6c6572206973206e6f7420746865206f776e657260448201526064016102fe565b6001600160a01b0381166117855760405162461bcd60e51b815260206004820152602660248201527f4f776e61626c653a206e6577206f776e657220697320746865207a65726f206160448201527f646472657373000000000000000000000000000000000000000000000000000060648201526084016102fe565b61178e81611a04565b50565b81518351146118085760405162461bcd60e51b815260206004820152602860248201527f455243313135353a2069647320616e6420616d6f756e7473206c656e6774682060448201527f6d69736d6174636800000000000000000000000000000000000000000000000060648201526084016102fe565b6001600160a01b03841661186c5760405162461bcd60e51b815260206004820152602560248201527f455243313135353a207472616e7366657220746f20746865207a65726f206164604482015264647265737360d81b60648201526084016102fe565b3360005b845181101561199657600085828151811061188d5761188d6129f4565b6020026020010151905060008583815181106118ab576118ab6129f4565b602090810291909101810151600084815280835260408082206001600160a01b038e16835290935291909120549091508181101561193e5760405162461bcd60e51b815260206004820152602a60248201527f455243313135353a20696e73756666696369656e742062616c616e636520666f60448201526939103a3930b739b332b960b11b60648201526084016102fe565b6000838152602081815260408083206001600160a01b038e8116855292528083208585039055908b1682528120805484929061197b908490612a3b565b925050819055505050508061198f90612a20565b9050611870565b50846001600160a01b0316866001600160a01b0316826001600160a01b03167f4a39dc06d4c0dbc64b70af90fd698a233a518aa5d07e595d983b8c0526c8f7fb87876040516119e6929190612a76565b60405180910390a46119fc818787878787612008565b505050505050565b600380546001600160a01b038381167fffffffffffffffffffffffff0000000000000000000000000000000000000000831681179093556040519116919082907f8be0079c531659141344cd1fd0a4f28419497f9722a3daafe3b4186f6b6457e090600090a35050565b6001600160a01b038316611aea5760405162461bcd60e51b815260206004820152602360248201527f455243313135353a206275726e2066726f6d20746865207a65726f206164647260448201527f657373000000000000000000000000000000000000000000000000000000000060648201526084016102fe565b33611b1a81856000611afb876121ae565b611b04876121ae565b5050604080516020810190915260009052505050565b6000838152602081815260408083206001600160a01b038816845290915290205482811015611bb05760405162461bcd60e51b8152602060048201526024808201527f455243313135353a206275726e20616d6f756e7420657863656564732062616c60448201527f616e63650000000000000000000000000000000000000000000000000000000060648201526084016102fe565b6000848152602081815260408083206001600160a01b03898116808652918452828520888703905582518981529384018890529092908616917fc3d58168c5ae7397731d063d5bbf3d657854427343f4c083240f7aacaa2d0f62910160405180910390a45050505050565b6001600160a01b038416611c975760405162461bcd60e51b815260206004820152602160248201527f455243313135353a206d696e7420746f20746865207a65726f2061646472657360448201527f730000000000000000000000000000000000000000000000000000000000000060648201526084016102fe565b33611cb181600087611ca8886121ae565b610a00886121ae565b6000848152602081815260408083206001600160a01b038916845290915281208054859290611ce1908490612a3b565b909155505060408051858152602081018590526001600160a01b0380881692600092918516917fc3d58168c5ae7397731d063d5bbf3d657854427343f4c083240f7aacaa2d0f62910160405180910390a4610a00816000878787876121f9565b600080611d4d836122f5565b90506000838281548110611d6357611d636129f4565b90600052602060002090601091828204019190066002029054906101000a900461ffff1661ffff1690508360018580549050611d9f9190612aa4565b81548110611daf57611daf6129f4565b90600052602060002090601091828204019190066002029054906101000a900461ffff16848381548110611de557611de56129f4565b90600052602060002090601091828204019190066002026101000a81548161ffff021916908361ffff16021790555083805480611e2457611e24612abb565b600082815260209020601060001990920191820401805461ffff6002600f8516026101000a021916905590559392505050565b80516115219060029060208401906123ce565b6001600160a01b038416611ece5760405162461bcd60e51b815260206004820152602560248201527f455243313135353a207472616e7366657220746f20746865207a65726f206164604482015264647265737360d81b60648201526084016102fe565b33611ede818787611ca8886121ae565b6000848152602081815260408083206001600160a01b038a16845290915290205483811015611f625760405162461bcd60e51b815260206004820152602a60248201527f455243313135353a20696e73756666696369656e742062616c616e636520666f60448201526939103a3930b739b332b960b11b60648201526084016102fe565b6000858152602081815260408083206001600160a01b038b8116855292528083208785039055908816825281208054869290611f9f908490612a3b565b909155505060408051868152602081018690526001600160a01b03808916928a821692918616917fc3d58168c5ae7397731d063d5bbf3d657854427343f4c083240f7aacaa2d0f62910160405180910390a4611fff8288888888886121f9565b50505050505050565b6001600160a01b0384163b156119fc5760405163bc197c8160e01b81526001600160a01b0385169063bc197c819061204c9089908990889088908890600401612ad1565b6020604051808303816000875af1925050508015612087575060408051601f3d908101601f1916820190925261208491810190612b2f565b60015b61213d57612093612b4c565b806308c379a014156120cd57506120a8612b68565b806120b357506120cf565b8060405162461bcd60e51b81526004016102fe9190612536565b505b60405162461bcd60e51b815260206004820152603460248201527f455243313135353a207472616e7366657220746f206e6f6e204552433131353560448201527f526563656976657220696d706c656d656e74657200000000000000000000000060648201526084016102fe565b6001600160e01b0319811663bc197c8160e01b14611fff5760405162461bcd60e51b815260206004820152602860248201527f455243313135353a204552433131353552656365697665722072656a656374656044820152676420746f6b656e7360c01b60648201526084016102fe565b604080516001808252818301909252606091600091906020808301908036833701905050905082816000815181106121e8576121e86129f4565b602090810291909101015292915050565b6001600160a01b0384163b156119fc5760405163f23a6e6160e01b81526001600160a01b0385169063f23a6e619061223d9089908990889088908890600401612bf2565b6020604051808303816000875af1925050508015612278575060408051601f3d908101601f1916820190925261227591810190612b2f565b60015b61228457612093612b4c565b6001600160e01b0319811663f23a6e6160e01b14611fff5760405162461bcd60e51b815260206004820152602860248201527f455243313135353a204552433131353552656365697665722072656a656374656044820152676420746f6b656e7360c01b60648201526084016102fe565b60008082612304600143612aa4565b4041443360405160200161231c959493929190612c35565b60408051601f19818403018152919052805160209091012083549091506123439082612fb7565b9392505050565b828054612356906129b9565b90600052602060002090601f01602090048101928261237857600085556123be565b82601f106123915782800160ff198235161785556123be565b828001600101855582156123be579182015b828111156123be5782358255916020019190600101906123a3565b506123ca929150612442565b5090565b8280546123da906129b9565b90600052602060002090601f0160209004810192826123fc57600085556123be565b82601f1061241557805160ff19168380011785556123be565b828001600101855582156123be579182015b828111156123be578251825591602001919060010190612427565b5b808211156123ca5760008155600101612443565b80356001600160a01b038116811461246e57600080fd5b919050565b6000806040838503121561248657600080fd5b61248f83612457565b946020939093013593505050565b6001600160e01b03198116811461178e57600080fd5b6000602082840312156124c557600080fd5b81356123438161249d565b6000602082840312156124e257600080fd5b5035919050565b6000815180845260005b8181101561250f576020818501810151868301820152016124f3565b81811115612521576000602083870101525b50601f01601f19169290920160200192915050565b60208152600061234360208301846124e9565b634e487b7160e01b600052604160045260246000fd5b601f8201601f1916810167ffffffffffffffff8111828210171561258557612585612549565b6040525050565b600067ffffffffffffffff8211156125a6576125a6612549565b5060051b60200190565b600082601f8301126125c157600080fd5b813560206125ce8261258c565b6040516125db828261255f565b83815260059390931b85018201928281019150868411156125fb57600080fd5b8286015b8481101561261657803583529183019183016125ff565b509695505050505050565b600082601f83011261263257600080fd5b813567ffffffffffffffff81111561264c5761264c612549565b604051612663601f8301601f19166020018261255f565b81815284602083860101111561267857600080fd5b816020850160208301376000918101602001919091529392505050565b600080600080600060a086880312156126ad57600080fd5b6126b686612457565b94506126c460208701612457565b9350604086013567ffffffffffffffff808211156126e157600080fd5b6126ed89838a016125b0565b9450606088013591508082111561270357600080fd5b61270f89838a016125b0565b9350608088013591508082111561272557600080fd5b5061273288828901612621565b9150509295509295909350565b60006020828403121561275157600080fd5b61234382612457565b6000806040838503121561276d57600080fd5b823567ffffffffffffffff8082111561278557600080fd5b818501915085601f83011261279957600080fd5b813560206127a68261258c565b6040516127b3828261255f565b83815260059390931b85018201928281019150898411156127d357600080fd5b948201945b838610156127f8576127e986612457565b825294820194908201906127d8565b9650508601359250508082111561280e57600080fd5b5061281b858286016125b0565b9150509250929050565b600081518084526020808501945080840160005b8381101561285557815187529582019590820190600101612839565b509495945050505050565b6020815260006123436020830184612825565b6000806020838503121561288657600080fd5b823567ffffffffffffffff8082111561289e57600080fd5b818501915085601f8301126128b257600080fd5b8135818111156128c157600080fd5b8660208285010111156128d357600080fd5b60209290920196919550909350505050565b600080604083850312156128f857600080fd5b61290183612457565b91506020830135801515811461291657600080fd5b809150509250929050565b6000806040838503121561293457600080fd5b61293d83612457565b915061294b60208401612457565b90509250929050565b600080600080600060a0868803121561296c57600080fd5b61297586612457565b945061298360208701612457565b93506040860135925060608601359150608086013567ffffffffffffffff8111156129ad57600080fd5b61273288828901612621565b600181811c908216806129cd57607f821691505b602082108114156129ee57634e487b7160e01b600052602260045260246000fd5b50919050565b634e487b7160e01b600052603260045260246000fd5b634e487b7160e01b600052601160045260246000fd5b6000600019821415612a3457612a34612a0a565b5060010190565b60008219821115612a4e57612a4e612a0a565b500190565b600061ffff83811690831681811015612a6e57612a6e612a0a565b039392505050565b604081526000612a896040830185612825565b8281036020840152612a9b8185612825565b95945050505050565b600082821015612ab657612ab6612a0a565b500390565b634e487b7160e01b600052603160045260246000fd5b60006001600160a01b03808816835280871660208401525060a06040830152612afd60a0830186612825565b8281036060840152612b0f8186612825565b90508281036080840152612b2381856124e9565b98975050505050505050565b600060208284031215612b4157600080fd5b81516123438161249d565b600060033d1115612b655760046000803e5060005160e01c5b90565b600060443d1015612b765790565b6040516003193d81016004833e81513d67ffffffffffffffff8160248401118184111715612ba657505050505090565b8285019150815181811115612bbe5750505050505090565b843d8701016020828501011115612bd85750505050505090565b612be76020828601018761255f565b509095945050505050565b60006001600160a01b03808816835280871660208401525084604083015283606083015260a06080830152612c2a60a08301846124e9565b979650505050505050565b85546000878152602081209091839160005b82600f82011015612d9857815461ffff80821686526020612c72818801838560101c1661ffff169052565b6040612c878189018486851c1661ffff169052565b60609150612c9f828901848660301c1661ffff169052565b6080612cb4818a018587851c1661ffff169052565b60a09150612ccc828a01858760501c1661ffff169052565b60c0612ce1818b018688871c1661ffff169052565b60e09350612cf9848b01868860701c1661ffff169052565b61ffff86831c8616166101008b0152612d1e6101208b01868860901c1661ffff169052565b61ffff86841c8616166101408b0152612d436101608b01868860b01c1661ffff169052565b61ffff86821c8616166101808b0152505050612d6b6101a08801838560d01c1661ffff169052565b82901c1661ffff166101c086015260f01c6101e08501526102009093019260019190910190601001612c47565b90549082811015612db45761ffff821684526020909301926001015b82811015612dd15761ffff601083901c1684526020909301926001015b82811015612def57602082901c61ffff168452602093909301926001015b82811015612e0c5761ffff603083901c1684526020909301926001015b82811015612e295761ffff604083901c1684526020909301926001015b82811015612e465761ffff605083901c1684526020909301926001015b82811015612e635761ffff606083901c1684526020909301926001015b82811015612e805761ffff607083901c1684526020909301926001015b82811015612e9d5761ffff608083901c1684526020909301926001015b82811015612eba5761ffff609083901c1684526020909301926001015b82811015612ed75761ffff60a083901c1684526020909301926001015b82811015612ef45761ffff60b083901c1684526020909301926001015b82811015612f115761ffff60c083901c1684526020909301926001015b82811015612f2e5761ffff60d083901c1684526020909301926001015b82811015612f4b5761ffff60e083901c1684526020909301926001015b82811015612f615760f082901c84526020840193505b505050868152612f85602082018760601b6bffffffffffffffffffffffff19169052565b846034820152612fa9605482018560601b6bffffffffffffffffffffffff19169052565b606801979650505050505050565b600082612fd457634e487b7160e01b600052601260045260246000fd5b50069056fea2646970667358221220446f04addd1357707351133b2db1d81a2eeeed3a092d84e09b7f07f7deb2b3d864736f6c634300080a003368747470733a2f2f6170692e636f696e6c616e6465722e6465762f6d6574612f7661756c74036b6384b5eca791c62761152d0c79bb0604c104a5fb6f4eb0703f3154bb3db068747470733a2f2f6170692e636f696e6c616e6465722e6465762f6d6574612f76616c75742f7b69647d",
  "linkReferences": {},
  "deployedLinkReferences": {}
}