{
  "_format": "hh-sol-artifact-1",
  "contractName": "Vault",
  "sourceName": "contracts/Vault.sol",
  "abi": [
    {
      "inputs": [
        {
          "internalType": "address",
          "name": "seekersContract",
          "type": "address"
        }
      ],
      "stateMutability": "nonpayable",
      "type": "constructor"
    },
    {
      "anonymous": false,
      "inputs": [
        {
          "indexed": true,
          "internalType": "address",
          "name": "account",
          "type": "address"
        },
        {
          "indexed": true,
          "internalType": "address",
          "name": "operator",
          "type": "address"
        },
        {
          "indexed": false,
          "internalType": "bool",
          "name": "approved",
          "type": "bool"
        }
      ],
      "name": "ApprovalForAll",
      "type": "event"
    },
    {
      "anonymous": false,
      "inputs": [
        {
          "indexed": true,
          "internalType": "address",
          "name": "previousOwner",
          "type": "address"
        },
        {
          "indexed": true,
          "internalType": "address",
          "name": "newOwner",
          "type": "address"
        }
      ],
      "name": "OwnershipTransferred",
      "type": "event"
    },
    {
      "anonymous": false,
      "inputs": [
        {
          "indexed": true,
          "internalType": "address",
          "name": "operator",
          "type": "address"
        },
        {
          "indexed": true,
          "internalType": "address",
          "name": "from",
          "type": "address"
        },
        {
          "indexed": true,
          "internalType": "address",
          "name": "to",
          "type": "address"
        },
        {
          "indexed": false,
          "internalType": "uint256[]",
          "name": "ids",
          "type": "uint256[]"
        },
        {
          "indexed": false,
          "internalType": "uint256[]",
          "name": "values",
          "type": "uint256[]"
        }
      ],
      "name": "TransferBatch",
      "type": "event"
    },
    {
      "anonymous": false,
      "inputs": [
        {
          "indexed": true,
          "internalType": "address",
          "name": "operator",
          "type": "address"
        },
        {
          "indexed": true,
          "internalType": "address",
          "name": "from",
          "type": "address"
        },
        {
          "indexed": true,
          "internalType": "address",
          "name": "to",
          "type": "address"
        },
        {
          "indexed": false,
          "internalType": "uint256",
          "name": "id",
          "type": "uint256"
        },
        {
          "indexed": false,
          "internalType": "uint256",
          "name": "value",
          "type": "uint256"
        }
      ],
      "name": "TransferSingle",
      "type": "event"
    },
    {
      "anonymous": false,
      "inputs": [
        {
          "indexed": false,
          "internalType": "string",
          "name": "value",
          "type": "string"
        },
        {
          "indexed": true,
          "internalType": "uint256",
          "name": "id",
          "type": "uint256"
        }
      ],
      "name": "URI",
      "type": "event"
    },
    {
      "anonymous": false,
      "inputs": [
        {
          "indexed": false,
          "internalType": "address",
          "name": "winner",
          "type": "address"
        }
      ],
      "name": "VaultUnlocked",
      "type": "event"
    },
    {
      "inputs": [],
      "name": "FRAGMENT1",
      "outputs": [
        {
          "internalType": "uint256",
          "name": "",
          "type": "uint256"
        }
      ],
      "stateMutability": "view",
      "type": "function"
    },
    {
      "inputs": [],
      "name": "FRAGMENT2",
      "outputs": [
        {
          "internalType": "uint256",
          "name": "",
          "type": "uint256"
        }
      ],
      "stateMutability": "view",
      "type": "function"
    },
    {
      "inputs": [],
      "name": "FRAGMENT3",
      "outputs": [
        {
          "internalType": "uint256",
          "name": "",
          "type": "uint256"
        }
      ],
      "stateMutability": "view",
      "type": "function"
    },
    {
      "inputs": [],
      "name": "FRAGMENT4",
      "outputs": [
        {
          "internalType": "uint256",
          "name": "",
          "type": "uint256"
        }
      ],
      "stateMutability": "view",
      "type": "function"
    },
    {
      "inputs": [],
      "name": "FRAGMENT5",
      "outputs": [
        {
          "internalType": "uint256",
          "name": "",
          "type": "uint256"
        }
      ],
      "stateMutability": "view",
      "type": "function"
    },
    {
      "inputs": [],
      "name": "FRAGMENT6",
      "outputs": [
        {
          "internalType": "uint256",
          "name": "",
          "type": "uint256"
        }
      ],
      "stateMutability": "view",
      "type": "function"
    },
    {
      "inputs": [],
      "name": "FRAGMENT7",
      "outputs": [
        {
          "internalType": "uint256",
          "name": "",
          "type": "uint256"
        }
      ],
      "stateMutability": "view",
      "type": "function"
    },
    {
      "inputs": [],
      "name": "FRAGMENT8",
      "outputs": [
        {
          "internalType": "uint256",
          "name": "",
          "type": "uint256"
        }
      ],
      "stateMutability": "view",
      "type": "function"
    },
    {
      "inputs": [],
      "name": "KEY",
      "outputs": [
        {
          "internalType": "uint256",
          "name": "",
          "type": "uint256"
        }
      ],
      "stateMutability": "view",
      "type": "function"
    },
    {
      "inputs": [],
      "name": "MAXFRAGMENTS",
      "outputs": [
        {
          "internalType": "uint16",
          "name": "",
          "type": "uint16"
        }
      ],
      "stateMutability": "view",
      "type": "function"
    },
    {
      "inputs": [
        {
          "internalType": "address",
          "name": "account",
          "type": "address"
        },
        {
          "internalType": "uint256",
          "name": "id",
          "type": "uint256"
        }
      ],
      "name": "balanceOf",
      "outputs": [
        {
          "internalType": "uint256",
          "name": "",
          "type": "uint256"
        }
      ],
      "stateMutability": "view",
      "type": "function"
    },
    {
      "inputs": [
        {
          "internalType": "address[]",
          "name": "accounts",
          "type": "address[]"
        },
        {
          "internalType": "uint256[]",
          "name": "ids",
          "type": "uint256[]"
        }
      ],
      "name": "balanceOfBatch",
      "outputs": [
        {
          "internalType": "uint256[]",
          "name": "",
          "type": "uint256[]"
        }
      ],
      "stateMutability": "view",
      "type": "function"
    },
    {
      "inputs": [],
      "name": "claimKeepersVault",
      "outputs": [],
      "stateMutability": "nonpayable",
      "type": "function"
    },
    {
      "inputs": [],
      "name": "fundPrizePurse",
      "outputs": [],
      "stateMutability": "payable",
      "type": "function"
    },
    {
      "inputs": [],
      "name": "gameWon",
      "outputs": [
        {
          "internalType": "bool",
          "name": "",
          "type": "bool"
        }
      ],
      "stateMutability": "view",
      "type": "function"
    },
    {
      "inputs": [
        {
          "internalType": "address",
          "name": "account",
          "type": "address"
        },
        {
          "internalType": "address",
          "name": "operator",
          "type": "address"
        }
      ],
      "name": "isApprovedForAll",
      "outputs": [
        {
          "internalType": "bool",
          "name": "",
          "type": "bool"
        }
      ],
      "stateMutability": "view",
      "type": "function"
    },
    {
      "inputs": [
        {
          "internalType": "address",
          "name": "_receiver",
          "type": "address"
        },
        {
          "internalType": "uint256",
          "name": "amount",
          "type": "uint256"
        }
      ],
      "name": "mintFragments",
      "outputs": [],
      "stateMutability": "nonpayable",
      "type": "function"
    },
    {
      "inputs": [],
      "name": "numT1",
      "outputs": [
        {
          "internalType": "uint16",
          "name": "",
          "type": "uint16"
        }
      ],
      "stateMutability": "view",
      "type": "function"
    },
    {
      "inputs": [],
      "name": "numT2",
      "outputs": [
        {
          "internalType": "uint16",
          "name": "",
          "type": "uint16"
        }
      ],
      "stateMutability": "view",
      "type": "function"
    },
    {
      "inputs": [],
      "name": "numT3",
      "outputs": [
        {
          "internalType": "uint16",
          "name": "",
          "type": "uint16"
        }
      ],
      "stateMutability": "view",
      "type": "function"
    },
    {
      "inputs": [],
      "name": "numT4",
      "outputs": [
        {
          "internalType": "uint16",
          "name": "",
          "type": "uint16"
        }
      ],
      "stateMutability": "view",
      "type": "function"
    },
    {
      "inputs": [],
      "name": "numT5",
      "outputs": [
        {
          "internalType": "uint16",
          "name": "",
          "type": "uint16"
        }
      ],
      "stateMutability": "view",
      "type": "function"
    },
    {
      "inputs": [],
      "name": "numT6",
      "outputs": [
        {
          "internalType": "uint16",
          "name": "",
          "type": "uint16"
        }
      ],
      "stateMutability": "view",
      "type": "function"
    },
    {
      "inputs": [],
      "name": "numT7",
      "outputs": [
        {
          "internalType": "uint16",
          "name": "",
          "type": "uint16"
        }
      ],
      "stateMutability": "view",
      "type": "function"
    },
    {
      "inputs": [],
      "name": "numT8",
      "outputs": [
        {
          "internalType": "uint16",
          "name": "",
          "type": "uint16"
        }
      ],
      "stateMutability": "view",
      "type": "function"
    },
    {
      "inputs": [],
      "name": "owner",
      "outputs": [
        {
          "internalType": "address",
          "name": "",
          "type": "address"
        }
      ],
      "stateMutability": "view",
      "type": "function"
    },
    {
      "inputs": [],
      "name": "prize",
      "outputs": [
        {
          "internalType": "uint256",
          "name": "",
          "type": "uint256"
        }
      ],
      "stateMutability": "view",
      "type": "function"
    },
    {
      "inputs": [],
      "name": "renounceOwnership",
      "outputs": [],
      "stateMutability": "nonpayable",
      "type": "function"
    },
    {
      "inputs": [
        {
          "internalType": "address",
          "name": "from",
          "type": "address"
        },
        {
          "internalType": "address",
          "name": "to",
          "type": "address"
        },
        {
          "internalType": "uint256[]",
          "name": "ids",
          "type": "uint256[]"
        },
        {
          "internalType": "uint256[]",
          "name": "amounts",
          "type": "uint256[]"
        },
        {
          "internalType": "bytes",
          "name": "data",
          "type": "bytes"
        }
      ],
      "name": "safeBatchTransferFrom",
      "outputs": [],
      "stateMutability": "nonpayable",
      "type": "function"
    },
    {
      "inputs": [
        {
          "internalType": "address",
          "name": "from",
          "type": "address"
        },
        {
          "internalType": "address",
          "name": "to",
          "type": "address"
        },
        {
          "internalType": "uint256",
          "name": "id",
          "type": "uint256"
        },
        {
          "internalType": "uint256",
          "name": "amount",
          "type": "uint256"
        },
        {
          "internalType": "bytes",
          "name": "data",
          "type": "bytes"
        }
      ],
      "name": "safeTransferFrom",
      "outputs": [],
      "stateMutability": "nonpayable",
      "type": "function"
    },
    {
      "inputs": [],
      "name": "seekers",
      "outputs": [
        {
          "internalType": "contract iSeekers",
          "name": "",
          "type": "address"
        }
      ],
      "stateMutability": "view",
      "type": "function"
    },
    {
      "inputs": [
        {
          "internalType": "address",
          "name": "operator",
          "type": "address"
        },
        {
          "internalType": "bool",
          "name": "approved",
          "type": "bool"
        }
      ],
      "name": "setApprovalForAll",
      "outputs": [],
      "stateMutability": "nonpayable",
      "type": "function"
    },
    {
      "inputs": [],
      "name": "setSweetRelease",
      "outputs": [],
      "stateMutability": "nonpayable",
      "type": "function"
    },
    {
      "inputs": [
        {
          "internalType": "bytes4",
          "name": "interfaceId",
          "type": "bytes4"
        }
      ],
      "name": "supportsInterface",
      "outputs": [
        {
          "internalType": "bool",
          "name": "",
          "type": "bool"
        }
      ],
      "stateMutability": "view",
      "type": "function"
    },
    {
      "inputs": [],
      "name": "sweetRelease",
      "outputs": [
        {
          "internalType": "bool",
          "name": "",
          "type": "bool"
        }
      ],
      "stateMutability": "view",
      "type": "function"
    },
    {
      "inputs": [
        {
          "internalType": "address",
          "name": "newOwner",
          "type": "address"
        }
      ],
      "name": "transferOwnership",
      "outputs": [],
      "stateMutability": "nonpayable",
      "type": "function"
    },
    {
      "inputs": [
        {
          "internalType": "uint256",
          "name": "",
          "type": "uint256"
        }
      ],
      "name": "uri",
      "outputs": [
        {
          "internalType": "string",
          "name": "",
          "type": "string"
        }
      ],
      "stateMutability": "view",
      "type": "function"
    },
    {
      "stateMutability": "payable",
      "type": "receive"
    }
  ],
  "bytecode": "0x608060405260006007556000600860006101000a81548160ff0219169083151502179055506000600860016101000a81548160ff0219169083151502179055503480156200004c57600080fd5b50604051620059a9380380620059a983398181016040528101906200007291906200072a565b60405180606001604052806032815260200162005977603291396200009d816200052660201b60201c565b50620000be620000b26200054260201b60201c565b6200054a60201b60201c565b600160048190555080600660006101000a81548173ffffffffffffffffffffffffffffffffffffffff021916908373ffffffffffffffffffffffffffffffffffffffff16021790555060005b600361ffff168161ffff1610156200017d576005600190806001815401808255809150506001900390600052602060002090601091828204019190066002029091909190916101000a81548161ffff021916908361ffff1602179055508080620001749062000799565b9150506200010a565b5060005b600a61ffff168161ffff161015620001f4576005600290806001815401808255809150506001900390600052602060002090601091828204019190066002029091909190916101000a81548161ffff021916908361ffff1602179055508080620001eb9062000799565b91505062000181565b5060005b600a61ffff168161ffff1610156200026b576005600390806001815401808255809150506001900390600052602060002090601091828204019190066002029091909190916101000a81548161ffff021916908361ffff1602179055508080620002629062000799565b915050620001f8565b5060005b603261ffff168161ffff161015620002e2576005600490806001815401808255809150506001900390600052602060002090601091828204019190066002029091909190916101000a81548161ffff021916908361ffff1602179055508080620002d99062000799565b9150506200026f565b5060005b606461ffff168161ffff1610156200035757600580806001815401808255809150506001900390600052602060002090601091828204019190066002029091909190916101000a81548161ffff021916908361ffff16021790555080806200034e9062000799565b915050620002e6565b5060005b606f61ffff168161ffff161015620003ce576005600690806001815401808255809150506001900390600052602060002090601091828204019190066002029091909190916101000a81548161ffff021916908361ffff1602179055508080620003c59062000799565b9150506200035b565b5060005b60de61ffff168161ffff16101562000445576005600790806001815401808255809150506001900390600052602060002090601091828204019190066002029091909190916101000a81548161ffff021916908361ffff16021790555080806200043c9062000799565b915050620003d2565b5060005b60de606f60646032600a806003610457620004659190620007c9565b620004719190620007c9565b6200047d9190620007c9565b620004899190620007c9565b620004959190620007c9565b620004a19190620007c9565b620004ad9190620007c9565b61ffff168161ffff1610156200051e576005600890806001815401808255809150506001900390600052602060002090601091828204019190066002029091909190916101000a81548161ffff021916908361ffff1602179055508080620005159062000799565b91505062000449565b505062000869565b80600290805190602001906200053e92919062000610565b5050565b600033905090565b6000600360009054906101000a900473ffffffffffffffffffffffffffffffffffffffff16905081600360006101000a81548173ffffffffffffffffffffffffffffffffffffffff021916908373ffffffffffffffffffffffffffffffffffffffff1602179055508173ffffffffffffffffffffffffffffffffffffffff168173ffffffffffffffffffffffffffffffffffffffff167f8be0079c531659141344cd1fd0a4f28419497f9722a3daafe3b4186f6b6457e060405160405180910390a35050565b8280546200061e9062000833565b90600052602060002090601f0160209004810192826200064257600085556200068e565b82601f106200065d57805160ff19168380011785556200068e565b828001600101855582156200068e579182015b828111156200068d57825182559160200191906001019062000670565b5b5090506200069d9190620006a1565b5090565b5b80821115620006bc576000816000905550600101620006a2565b5090565b600080fd5b600073ffffffffffffffffffffffffffffffffffffffff82169050919050565b6000620006f282620006c5565b9050919050565b6200070481620006e5565b81146200071057600080fd5b50565b6000815190506200072481620006f9565b92915050565b600060208284031215620007435762000742620006c0565b5b6000620007538482850162000713565b91505092915050565b7f4e487b7100000000000000000000000000000000000000000000000000000000600052601160045260246000fd5b600061ffff82169050919050565b6000620007a6826200078b565b915061ffff821415620007be57620007bd6200075c565b5b600182019050919050565b6000620007d6826200078b565b9150620007e3836200078b565b925082821015620007f957620007f86200075c565b5b828203905092915050565b7f4e487b7100000000000000000000000000000000000000000000000000000000600052602260045260246000fd5b600060028204905060018216806200084c57607f821691505b6020821081141562000863576200086262000804565b5b50919050565b6150fe80620008796000396000f3fe60806040526004361061026d5760003560e01c806392f393f811610153578063ce16d166116100cb578063ef3af2751161007f578063f2fde38b11610064578063f2fde38b1461085d578063f468993614610886578063ffd807d2146108b1576102ad565b8063ef3af27514610809578063f242432a14610834576102ad565b8063e3ac5d26116100b0578063e3ac5d261461078a578063e985e9c5146107b5578063edd47abf146107f2576102ad565b8063ce16d16614610736578063e04a4ea61461075f576102ad565b8063ae3c159711610122578063b0538dae11610107578063b0538dae146106b5578063b582aab0146106e0578063c306219d1461070b576102ad565b8063ae3c159714610673578063aea876c01461068a576102ad565b806392f393f8146105ea57806397b578b1146105f4578063a22cb4651461061f578063a6d24b6d14610648576102ad565b80634c1299c6116101e65780636d00e233116101b55780638da5cb5b1161019a5780638da5cb5b146105695780638dd3503e146105945780638f9352ba146105bf576102ad565b80636d00e23314610527578063715018a614610552576102ad565b80634c1299c6146104695780634e1273f414610494578063524a1224146104d15780635445941f146104fc576102ad565b80631a20cef81161023d5780632285fcba116102225780632285fcba146103ea5780632dc387b3146104155780632eb2c2d614610440576102ad565b80631a20cef8146103945780631ceea796146103bf576102ad565b8062fdd58e146102b257806301ffc9a7146102ef578063069a825c1461032c5780630e89341c14610357576102ad565b366102ad576040517f08c379a00000000000000000000000000000000000000000000000000000000081526004016102a490612afb565b60405180910390fd5b600080fd5b3480156102be57600080fd5b506102d960048036038101906102d49190612bc3565b6108dc565b6040516102e69190612c12565b60405180910390f35b3480156102fb57600080fd5b5061031660048036038101906103119190612c85565b6109a5565b6040516103239190612ccd565b60405180910390f35b34801561033857600080fd5b50610341610a87565b60405161034e9190612ccd565b60405180910390f35b34801561036357600080fd5b5061037e60048036038101906103799190612ce8565b610a9a565b60405161038b9190612d9d565b60405180910390f35b3480156103a057600080fd5b506103a9610b2e565b6040516103b69190612ddc565b60405180910390f35b3480156103cb57600080fd5b506103d4610b33565b6040516103e19190612ddc565b60405180910390f35b3480156103f657600080fd5b506103ff610b38565b60405161040c9190612e56565b60405180910390f35b34801561042157600080fd5b5061042a610b5e565b6040516104379190612c12565b60405180910390f35b34801561044c57600080fd5b506104676004803603810190610462919061306e565b610b63565b005b34801561047557600080fd5b5061047e610c04565b60405161048b9190612ddc565b60405180910390f35b3480156104a057600080fd5b506104bb60048036038101906104b69190613200565b610c09565b6040516104c89190613336565b60405180910390f35b3480156104dd57600080fd5b506104e6610d22565b6040516104f39190612c12565b60405180910390f35b34801561050857600080fd5b50610511610d27565b60405161051e9190612ccd565b60405180910390f35b34801561053357600080fd5b5061053c610d3a565b6040516105499190612c12565b60405180910390f35b34801561055e57600080fd5b50610567610d3f565b005b34801561057557600080fd5b5061057e610dc7565b60405161058b9190613367565b60405180910390f35b3480156105a057600080fd5b506105a9610df1565b6040516105b69190612c12565b60405180910390f35b3480156105cb57600080fd5b506105d4610df6565b6040516105e19190612c12565b60405180910390f35b6105f2610dfb565b005b34801561060057600080fd5b50610609610e16565b6040516106169190612ddc565b60405180910390f35b34801561062b57600080fd5b50610646600480360381019061064191906133ae565b610e1b565b005b34801561065457600080fd5b5061065d610f9c565b60405161066a9190612ddc565b60405180910390f35b34801561067f57600080fd5b50610688610fa1565b005b34801561069657600080fd5b5061069f6115dc565b6040516106ac9190612ddc565b60405180910390f35b3480156106c157600080fd5b506106ca6115e1565b6040516106d79190612c12565b60405180910390f35b3480156106ec57600080fd5b506106f56115e6565b6040516107029190612ddc565b60405180910390f35b34801561071757600080fd5b5061072061163f565b60405161072d9190612c12565b60405180910390f35b34801561074257600080fd5b5061075d60048036038101906107589190612bc3565b611644565b005b34801561076b57600080fd5b5061077461177c565b6040516107819190612c12565b60405180910390f35b34801561079657600080fd5b5061079f611781565b6040516107ac9190612c12565b60405180910390f35b3480156107c157600080fd5b506107dc60048036038101906107d791906133ee565b611787565b6040516107e99190612ccd565b60405180910390f35b3480156107fe57600080fd5b5061080761181b565b005b34801561081557600080fd5b5061081e6118b4565b60405161082b9190612c12565b60405180910390f35b34801561084057600080fd5b5061085b6004803603810190610856919061342e565b6118b9565b005b34801561086957600080fd5b50610884600480360381019061087f91906134c5565b61195a565b005b34801561089257600080fd5b5061089b611a52565b6040516108a89190612ddc565b60405180910390f35b3480156108bd57600080fd5b506108c6611a58565b6040516108d39190612ddc565b60405180910390f35b60008073ffffffffffffffffffffffffffffffffffffffff168373ffffffffffffffffffffffffffffffffffffffff16141561094d576040517f08c379a000000000000000000000000000000000000000000000000000000000815260040161094490613564565b60405180910390fd5b60008083815260200190815260200160002060008473ffffffffffffffffffffffffffffffffffffffff1673ffffffffffffffffffffffffffffffffffffffff16815260200190815260200160002054905092915050565b60007fd9b67a26000000000000000000000000000000000000000000000000000000007bffffffffffffffffffffffffffffffffffffffffffffffffffffffff1916827bffffffffffffffffffffffffffffffffffffffffffffffffffffffff19161480610a7057507f0e89341c000000000000000000000000000000000000000000000000000000007bffffffffffffffffffffffffffffffffffffffffffffffffffffffff1916827bffffffffffffffffffffffffffffffffffffffffffffffffffffffff1916145b80610a805750610a7f82611a5d565b5b9050919050565b600860009054906101000a900460ff1681565b606060028054610aa9906135b3565b80601f0160208091040260200160405190810160405280929190818152602001828054610ad5906135b3565b8015610b225780601f10610af757610100808354040283529160200191610b22565b820191906000526020600020905b815481529060010190602001808311610b0557829003601f168201915b50505050509050919050565b600381565b600a81565b600660009054906101000a900473ffffffffffffffffffffffffffffffffffffffff1681565b600081565b610b6b611ac7565b73ffffffffffffffffffffffffffffffffffffffff168573ffffffffffffffffffffffffffffffffffffffff161480610bb15750610bb085610bab611ac7565b611787565b5b610bf0576040517f08c379a0000000000000000000000000000000000000000000000000000000008152600401610be790613657565b60405180910390fd5b610bfd8585858585611acf565b5050505050565b603281565b60608151835114610c4f576040517f08c379a0000000000000000000000000000000000000000000000000000000008152600401610c46906136e9565b60405180910390fd5b6000835167ffffffffffffffff811115610c6c57610c6b612e76565b5b604051908082528060200260200182016040528015610c9a5781602001602082028036833780820191505090505b50905060005b8451811015610d1757610ce7858281518110610cbf57610cbe613709565b5b6020026020010151858381518110610cda57610cd9613709565b5b60200260200101516108dc565b828281518110610cfa57610cf9613709565b5b60200260200101818152505080610d1090613767565b9050610ca0565b508091505092915050565b600281565b600860019054906101000a900460ff1681565b600781565b610d47611ac7565b73ffffffffffffffffffffffffffffffffffffffff16610d65610dc7565b73ffffffffffffffffffffffffffffffffffffffff1614610dbb576040517f08c379a0000000000000000000000000000000000000000000000000000000008152600401610db2906137fc565b60405180910390fd5b610dc56000611de3565b565b6000600360009054906101000a900473ffffffffffffffffffffffffffffffffffffffff16905090565b600381565b600581565b3460076000828254610e0d919061381c565b92505081905550565b60de81565b8173ffffffffffffffffffffffffffffffffffffffff16610e3a611ac7565b73ffffffffffffffffffffffffffffffffffffffff161415610e91576040517f08c379a0000000000000000000000000000000000000000000000000000000008152600401610e88906138e4565b60405180910390fd5b8060016000610e9e611ac7565b73ffffffffffffffffffffffffffffffffffffffff1673ffffffffffffffffffffffffffffffffffffffff16815260200190815260200160002060008473ffffffffffffffffffffffffffffffffffffffff1673ffffffffffffffffffffffffffffffffffffffff16815260200190815260200160002060006101000a81548160ff0219169083151502179055508173ffffffffffffffffffffffffffffffffffffffff16610f4b611ac7565b73ffffffffffffffffffffffffffffffffffffffff167f17307eab39ab6107e8899845ad3d59bd9653f200f220920489ca2b5937696c3183604051610f909190612ccd565b60405180910390a35050565b600a81565b60026004541415610fe7576040517f08c379a0000000000000000000000000000000000000000000000000000000008152600401610fde90613950565b60405180910390fd5b6002600481905550600860019054906101000a900460ff1661103e576040517f08c379a0000000000000000000000000000000000000000000000000000000008152600401611035906139bc565b60405180910390fd5b600860009054906101000a900460ff161561108e576040517f08c379a000000000000000000000000000000000000000000000000000000000815260040161108590613a28565b60405180910390fd5b6000600754116110d3576040517f08c379a00000000000000000000000000000000000000000000000000000000081526004016110ca90613a94565b60405180910390fd5b6000600660009054906101000a900473ffffffffffffffffffffffffffffffffffffffff1673ffffffffffffffffffffffffffffffffffffffff166370a08231336040518263ffffffff1660e01b81526004016111309190613367565b602060405180830381865afa15801561114d573d6000803e3d6000fd5b505050506040513d601f19601f820116820180604052508101906111719190613ac9565b116111b1576040517f08c379a00000000000000000000000000000000000000000000000000000000081526004016111a890613b42565b60405180910390fd5b60006111be3360016108dc565b116111fe576040517f08c379a00000000000000000000000000000000000000000000000000000000081526004016111f590613bae565b60405180910390fd5b600061120b3360026108dc565b1161124b576040517f08c379a000000000000000000000000000000000000000000000000000000000815260040161124290613c1a565b60405180910390fd5b60006112583360036108dc565b11611298576040517f08c379a000000000000000000000000000000000000000000000000000000000815260040161128f90613c86565b60405180910390fd5b60006112a53360046108dc565b116112e5576040517f08c379a00000000000000000000000000000000000000000000000000000000081526004016112dc90613cf2565b60405180910390fd5b60006112f23360056108dc565b11611332576040517f08c379a000000000000000000000000000000000000000000000000000000000815260040161132990613d5e565b60405180910390fd5b600061133f3360066108dc565b1161137f576040517f08c379a000000000000000000000000000000000000000000000000000000000815260040161137690613dca565b60405180910390fd5b600061138c3360076108dc565b116113cc576040517f08c379a00000000000000000000000000000000000000000000000000000000081526004016113c390613e36565b60405180910390fd5b60006113d93360086108dc565b11611419576040517f08c379a000000000000000000000000000000000000000000000000000000000815260040161141090613ea2565b60405180910390fd5b61142533600180611ea9565b6114323360026001611ea9565b61143f3360036001611ea9565b61144c3360046001611ea9565b6114593360056001611ea9565b6114663360066001611ea9565b6114733360076001611ea9565b6114803360086001611ea9565b6114c333600060016040518060400160405280600381526020017f30783000000000000000000000000000000000000000000000000000000000008152506120c6565b7fb90f637c9ae38effeea06ad34c58331954898f0d0d4109d30b95e0426b291ff7336040516114f29190613367565b60405180910390a16001600860006101000a81548160ff02191690831515021790555060006007549050600060078190555060003373ffffffffffffffffffffffffffffffffffffffff168260405161154a90613ef3565b60006040518083038185875af1925050503d8060008114611587576040519150601f19603f3d011682016040523d82523d6000602084013e61158c565b606091505b50509050806115d0576040517f08c379a00000000000000000000000000000000000000000000000000000000081526004016115c790612afb565b60405180910390fd5b50506001600481905550565b606481565b600881565b60de606f60646032600a8060036104576116009190613f08565b61160a9190613f08565b6116149190613f08565b61161e9190613f08565b6116289190613f08565b6116329190613f08565b61163c9190613f08565b81565b600681565b61164c611ac7565b73ffffffffffffffffffffffffffffffffffffffff1661166a610dc7565b73ffffffffffffffffffffffffffffffffffffffff16146116c0576040517f08c379a00000000000000000000000000000000000000000000000000000000081526004016116b7906137fc565b60405180910390fd5b806005805490501015611708576040517f08c379a00000000000000000000000000000000000000000000000000000000081526004016116ff90613f88565b60405180910390fd5b60005b8181101561177757600061171f600561225c565b9050611763848260016040518060400160405280600381526020017f30783000000000000000000000000000000000000000000000000000000000008152506120c6565b50808061176f90613767565b91505061170b565b505050565b600481565b60075481565b6000600160008473ffffffffffffffffffffffffffffffffffffffff1673ffffffffffffffffffffffffffffffffffffffff16815260200190815260200160002060008373ffffffffffffffffffffffffffffffffffffffff1673ffffffffffffffffffffffffffffffffffffffff16815260200190815260200160002060009054906101000a900460ff16905092915050565b611823611ac7565b73ffffffffffffffffffffffffffffffffffffffff16611841610dc7565b73ffffffffffffffffffffffffffffffffffffffff1614611897576040517f08c379a000000000000000000000000000000000000000000000000000000000815260040161188e906137fc565b60405180910390fd5b6001600860016101000a81548160ff021916908315150217905550565b600181565b6118c1611ac7565b73ffffffffffffffffffffffffffffffffffffffff168573ffffffffffffffffffffffffffffffffffffffff161480611907575061190685611901611ac7565b611787565b5b611946576040517f08c379a000000000000000000000000000000000000000000000000000000000815260040161193d9061401a565b60405180910390fd5b611953858585858561237b565b5050505050565b611962611ac7565b73ffffffffffffffffffffffffffffffffffffffff16611980610dc7565b73ffffffffffffffffffffffffffffffffffffffff16146119d6576040517f08c379a00000000000000000000000000000000000000000000000000000000081526004016119cd906137fc565b60405180910390fd5b600073ffffffffffffffffffffffffffffffffffffffff168173ffffffffffffffffffffffffffffffffffffffff161415611a46576040517f08c379a0000000000000000000000000000000000000000000000000000000008152600401611a3d906140ac565b60405180910390fd5b611a4f81611de3565b50565b61045781565b606f81565b60007f01ffc9a7000000000000000000000000000000000000000000000000000000007bffffffffffffffffffffffffffffffffffffffffffffffffffffffff1916827bffffffffffffffffffffffffffffffffffffffffffffffffffffffff1916149050919050565b600033905090565b8151835114611b13576040517f08c379a0000000000000000000000000000000000000000000000000000000008152600401611b0a9061413e565b60405180910390fd5b600073ffffffffffffffffffffffffffffffffffffffff168473ffffffffffffffffffffffffffffffffffffffff161415611b83576040517f08c379a0000000000000000000000000000000000000000000000000000000008152600401611b7a906141d0565b60405180910390fd5b6000611b8d611ac7565b9050611b9d8187878787876125fd565b60005b8451811015611d4e576000858281518110611bbe57611bbd613709565b5b602002602001015190506000858381518110611bdd57611bdc613709565b5b60200260200101519050600080600084815260200190815260200160002060008b73ffffffffffffffffffffffffffffffffffffffff1673ffffffffffffffffffffffffffffffffffffffff16815260200190815260200160002054905081811015611c7e576040517f08c379a0000000000000000000000000000000000000000000000000000000008152600401611c7590614262565b60405180910390fd5b81810360008085815260200190815260200160002060008c73ffffffffffffffffffffffffffffffffffffffff1673ffffffffffffffffffffffffffffffffffffffff168152602001908152602001600020819055508160008085815260200190815260200160002060008b73ffffffffffffffffffffffffffffffffffffffff1673ffffffffffffffffffffffffffffffffffffffff1681526020019081526020016000206000828254611d33919061381c565b9250508190555050505080611d4790613767565b9050611ba0565b508473ffffffffffffffffffffffffffffffffffffffff168673ffffffffffffffffffffffffffffffffffffffff168273ffffffffffffffffffffffffffffffffffffffff167f4a39dc06d4c0dbc64b70af90fd698a233a518aa5d07e595d983b8c0526c8f7fb8787604051611dc5929190614282565b60405180910390a4611ddb818787878787612605565b505050505050565b6000600360009054906101000a900473ffffffffffffffffffffffffffffffffffffffff16905081600360006101000a81548173ffffffffffffffffffffffffffffffffffffffff021916908373ffffffffffffffffffffffffffffffffffffffff1602179055508173ffffffffffffffffffffffffffffffffffffffff168173ffffffffffffffffffffffffffffffffffffffff167f8be0079c531659141344cd1fd0a4f28419497f9722a3daafe3b4186f6b6457e060405160405180910390a35050565b600073ffffffffffffffffffffffffffffffffffffffff168373ffffffffffffffffffffffffffffffffffffffff161415611f19576040517f08c379a0000000000000000000000000000000000000000000000000000000008152600401611f109061432b565b60405180910390fd5b6000611f23611ac7565b9050611f5381856000611f35876127dd565b611f3e876127dd565b604051806020016040528060008152506125fd565b600080600085815260200190815260200160002060008673ffffffffffffffffffffffffffffffffffffffff1673ffffffffffffffffffffffffffffffffffffffff16815260200190815260200160002054905082811015611fea576040517f08c379a0000000000000000000000000000000000000000000000000000000008152600401611fe1906143bd565b60405180910390fd5b82810360008086815260200190815260200160002060008773ffffffffffffffffffffffffffffffffffffffff1673ffffffffffffffffffffffffffffffffffffffff16815260200190815260200160002081905550600073ffffffffffffffffffffffffffffffffffffffff168573ffffffffffffffffffffffffffffffffffffffff168373ffffffffffffffffffffffffffffffffffffffff167fc3d58168c5ae7397731d063d5bbf3d657854427343f4c083240f7aacaa2d0f6287876040516120b79291906143dd565b60405180910390a45050505050565b600073ffffffffffffffffffffffffffffffffffffffff168473ffffffffffffffffffffffffffffffffffffffff161415612136576040517f08c379a000000000000000000000000000000000000000000000000000000000815260040161212d90614478565b60405180910390fd5b6000612140611ac7565b905061216181600087612152886127dd565b61215b886127dd565b876125fd565b8260008086815260200190815260200160002060008773ffffffffffffffffffffffffffffffffffffffff1673ffffffffffffffffffffffffffffffffffffffff16815260200190815260200160002060008282546121c0919061381c565b925050819055508473ffffffffffffffffffffffffffffffffffffffff16600073ffffffffffffffffffffffffffffffffffffffff168273ffffffffffffffffffffffffffffffffffffffff167fc3d58168c5ae7397731d063d5bbf3d657854427343f4c083240f7aacaa2d0f62878760405161223e9291906143dd565b60405180910390a461225581600087878787612857565b5050505050565b60008061226883612a2f565b9050600083828154811061227f5761227e613709565b5b90600052602060002090601091828204019190066002029054906101000a900461ffff1661ffff16905083600185805490506122bb9190614498565b815481106122cc576122cb613709565b5b90600052602060002090601091828204019190066002029054906101000a900461ffff1684838154811061230357612302613709565b5b90600052602060002090601091828204019190066002026101000a81548161ffff021916908361ffff16021790555083805480612343576123426144cc565b5b60019003818190600052602060002090601091828204019190066002026101000a81549061ffff021916905590558092505050919050565b600073ffffffffffffffffffffffffffffffffffffffff168473ffffffffffffffffffffffffffffffffffffffff1614156123eb576040517f08c379a00000000000000000000000000000000000000000000000000000000081526004016123e2906141d0565b60405180910390fd5b60006123f5611ac7565b9050612415818787612406886127dd565b61240f886127dd565b876125fd565b600080600086815260200190815260200160002060008873ffffffffffffffffffffffffffffffffffffffff1673ffffffffffffffffffffffffffffffffffffffff168152602001908152602001600020549050838110156124ac576040517f08c379a00000000000000000000000000000000000000000000000000000000081526004016124a390614262565b60405180910390fd5b83810360008087815260200190815260200160002060008973ffffffffffffffffffffffffffffffffffffffff1673ffffffffffffffffffffffffffffffffffffffff168152602001908152602001600020819055508360008087815260200190815260200160002060008873ffffffffffffffffffffffffffffffffffffffff1673ffffffffffffffffffffffffffffffffffffffff1681526020019081526020016000206000828254612561919061381c565b925050819055508573ffffffffffffffffffffffffffffffffffffffff168773ffffffffffffffffffffffffffffffffffffffff168373ffffffffffffffffffffffffffffffffffffffff167fc3d58168c5ae7397731d063d5bbf3d657854427343f4c083240f7aacaa2d0f6288886040516125de9291906143dd565b60405180910390a46125f4828888888888612857565b50505050505050565b505050505050565b6126248473ffffffffffffffffffffffffffffffffffffffff16612a8b565b156127d5578373ffffffffffffffffffffffffffffffffffffffff1663bc197c8187878686866040518663ffffffff1660e01b815260040161266a959493929190614550565b6020604051808303816000875af19250505080156126a657506040513d601f19601f820116820180604052508101906126a391906145cd565b60015b61274c576126b2614607565b806308c379a0141561270f57506126c7614629565b806126d25750612711565b806040517f08c379a00000000000000000000000000000000000000000000000000000000081526004016127069190612d9d565b60405180910390fd5b505b6040517f08c379a000000000000000000000000000000000000000000000000000000000815260040161274390614731565b60405180910390fd5b63bc197c8160e01b7bffffffffffffffffffffffffffffffffffffffffffffffffffffffff1916817bffffffffffffffffffffffffffffffffffffffffffffffffffffffff1916146127d3576040517f08c379a00000000000000000000000000000000000000000000000000000000081526004016127ca906147c3565b60405180910390fd5b505b505050505050565b60606000600167ffffffffffffffff8111156127fc576127fb612e76565b5b60405190808252806020026020018201604052801561282a5781602001602082028036833780820191505090505b509050828160008151811061284257612841613709565b5b60200260200101818152505080915050919050565b6128768473ffffffffffffffffffffffffffffffffffffffff16612a8b565b15612a27578373ffffffffffffffffffffffffffffffffffffffff1663f23a6e6187878686866040518663ffffffff1660e01b81526004016128bc9594939291906147e3565b6020604051808303816000875af19250505080156128f857506040513d601f19601f820116820180604052508101906128f591906145cd565b60015b61299e57612904614607565b806308c379a014156129615750612919614629565b806129245750612963565b806040517f08c379a00000000000000000000000000000000000000000000000000000000081526004016129589190612d9d565b60405180910390fd5b505b6040517f08c379a000000000000000000000000000000000000000000000000000000000815260040161299590614731565b60405180910390fd5b63f23a6e6160e01b7bffffffffffffffffffffffffffffffffffffffffffffffffffffffff1916817bffffffffffffffffffffffffffffffffffffffffffffffffffffffff191614612a25576040517f08c379a0000000000000000000000000000000000000000000000000000000008152600401612a1c906147c3565b60405180910390fd5b505b505050505050565b60008082600143612a409190614498565b40414433604051602001612a5895949392919061500d565b6040516020818303038152906040528051906020012060001c9050828054905081612a839190615097565b915050919050565b600080823b905060008111915050919050565b600082825260208201905092915050565b7f4530313400000000000000000000000000000000000000000000000000000000600082015250565b6000612ae5600483612a9e565b9150612af082612aaf565b602082019050919050565b60006020820190508181036000830152612b1481612ad8565b9050919050565b6000604051905090565b600080fd5b600080fd5b600073ffffffffffffffffffffffffffffffffffffffff82169050919050565b6000612b5a82612b2f565b9050919050565b612b6a81612b4f565b8114612b7557600080fd5b50565b600081359050612b8781612b61565b92915050565b6000819050919050565b612ba081612b8d565b8114612bab57600080fd5b50565b600081359050612bbd81612b97565b92915050565b60008060408385031215612bda57612bd9612b25565b5b6000612be885828601612b78565b9250506020612bf985828601612bae565b9150509250929050565b612c0c81612b8d565b82525050565b6000602082019050612c276000830184612c03565b92915050565b60007fffffffff0000000000000000000000000000000000000000000000000000000082169050919050565b612c6281612c2d565b8114612c6d57600080fd5b50565b600081359050612c7f81612c59565b92915050565b600060208284031215612c9b57612c9a612b25565b5b6000612ca984828501612c70565b91505092915050565b60008115159050919050565b612cc781612cb2565b82525050565b6000602082019050612ce26000830184612cbe565b92915050565b600060208284031215612cfe57612cfd612b25565b5b6000612d0c84828501612bae565b91505092915050565b600081519050919050565b60005b83811015612d3e578082015181840152602081019050612d23565b83811115612d4d576000848401525b50505050565b6000601f19601f8301169050919050565b6000612d6f82612d15565b612d798185612a9e565b9350612d89818560208601612d20565b612d9281612d53565b840191505092915050565b60006020820190508181036000830152612db78184612d64565b905092915050565b600061ffff82169050919050565b612dd681612dbf565b82525050565b6000602082019050612df16000830184612dcd565b92915050565b6000819050919050565b6000612e1c612e17612e1284612b2f565b612df7565b612b2f565b9050919050565b6000612e2e82612e01565b9050919050565b6000612e4082612e23565b9050919050565b612e5081612e35565b82525050565b6000602082019050612e6b6000830184612e47565b92915050565b600080fd5b7f4e487b7100000000000000000000000000000000000000000000000000000000600052604160045260246000fd5b612eae82612d53565b810181811067ffffffffffffffff82111715612ecd57612ecc612e76565b5b80604052505050565b6000612ee0612b1b565b9050612eec8282612ea5565b919050565b600067ffffffffffffffff821115612f0c57612f0b612e76565b5b602082029050602081019050919050565b600080fd5b6000612f35612f3084612ef1565b612ed6565b90508083825260208201905060208402830185811115612f5857612f57612f1d565b5b835b81811015612f815780612f6d8882612bae565b845260208401935050602081019050612f5a565b5050509392505050565b600082601f830112612fa057612f9f612e71565b5b8135612fb0848260208601612f22565b91505092915050565b600080fd5b600067ffffffffffffffff821115612fd957612fd8612e76565b5b612fe282612d53565b9050602081019050919050565b82818337600083830152505050565b600061301161300c84612fbe565b612ed6565b90508281526020810184848401111561302d5761302c612fb9565b5b613038848285612fef565b509392505050565b600082601f83011261305557613054612e71565b5b8135613065848260208601612ffe565b91505092915050565b600080600080600060a0868803121561308a57613089612b25565b5b600061309888828901612b78565b95505060206130a988828901612b78565b945050604086013567ffffffffffffffff8111156130ca576130c9612b2a565b5b6130d688828901612f8b565b935050606086013567ffffffffffffffff8111156130f7576130f6612b2a565b5b61310388828901612f8b565b925050608086013567ffffffffffffffff81111561312457613123612b2a565b5b61313088828901613040565b9150509295509295909350565b600067ffffffffffffffff82111561315857613157612e76565b5b602082029050602081019050919050565b600061317c6131778461313d565b612ed6565b9050808382526020820190506020840283018581111561319f5761319e612f1d565b5b835b818110156131c857806131b48882612b78565b8452602084019350506020810190506131a1565b5050509392505050565b600082601f8301126131e7576131e6612e71565b5b81356131f7848260208601613169565b91505092915050565b6000806040838503121561321757613216612b25565b5b600083013567ffffffffffffffff81111561323557613234612b2a565b5b613241858286016131d2565b925050602083013567ffffffffffffffff81111561326257613261612b2a565b5b61326e85828601612f8b565b9150509250929050565b600081519050919050565b600082825260208201905092915050565b6000819050602082019050919050565b6132ad81612b8d565b82525050565b60006132bf83836132a4565b60208301905092915050565b6000602082019050919050565b60006132e382613278565b6132ed8185613283565b93506132f883613294565b8060005b8381101561332957815161331088826132b3565b975061331b836132cb565b9250506001810190506132fc565b5085935050505092915050565b6000602082019050818103600083015261335081846132d8565b905092915050565b61336181612b4f565b82525050565b600060208201905061337c6000830184613358565b92915050565b61338b81612cb2565b811461339657600080fd5b50565b6000813590506133a881613382565b92915050565b600080604083850312156133c5576133c4612b25565b5b60006133d385828601612b78565b92505060206133e485828601613399565b9150509250929050565b6000806040838503121561340557613404612b25565b5b600061341385828601612b78565b925050602061342485828601612b78565b9150509250929050565b600080600080600060a0868803121561344a57613449612b25565b5b600061345888828901612b78565b955050602061346988828901612b78565b945050604061347a88828901612bae565b935050606061348b88828901612bae565b925050608086013567ffffffffffffffff8111156134ac576134ab612b2a565b5b6134b888828901613040565b9150509295509295909350565b6000602082840312156134db576134da612b25565b5b60006134e984828501612b78565b91505092915050565b7f455243313135353a2062616c616e636520717565727920666f7220746865207a60008201527f65726f2061646472657373000000000000000000000000000000000000000000602082015250565b600061354e602b83612a9e565b9150613559826134f2565b604082019050919050565b6000602082019050818103600083015261357d81613541565b9050919050565b7f4e487b7100000000000000000000000000000000000000000000000000000000600052602260045260246000fd5b600060028204905060018216806135cb57607f821691505b602082108114156135df576135de613584565b5b50919050565b7f455243313135353a207472616e736665722063616c6c6572206973206e6f742060008201527f6f776e6572206e6f7220617070726f7665640000000000000000000000000000602082015250565b6000613641603283612a9e565b915061364c826135e5565b604082019050919050565b6000602082019050818103600083015261367081613634565b9050919050565b7f455243313135353a206163636f756e747320616e6420696473206c656e67746860008201527f206d69736d617463680000000000000000000000000000000000000000000000602082015250565b60006136d3602983612a9e565b91506136de82613677565b604082019050919050565b60006020820190508181036000830152613702816136c6565b9050919050565b7f4e487b7100000000000000000000000000000000000000000000000000000000600052603260045260246000fd5b7f4e487b7100000000000000000000000000000000000000000000000000000000600052601160045260246000fd5b600061377282612b8d565b91507fffffffffffffffffffffffffffffffffffffffffffffffffffffffffffffffff8214156137a5576137a4613738565b5b600182019050919050565b7f4f776e61626c653a2063616c6c6572206973206e6f7420746865206f776e6572600082015250565b60006137e6602083612a9e565b91506137f1826137b0565b602082019050919050565b60006020820190508181036000830152613815816137d9565b9050919050565b600061382782612b8d565b915061383283612b8d565b9250827fffffffffffffffffffffffffffffffffffffffffffffffffffffffffffffffff0382111561386757613866613738565b5b828201905092915050565b7f455243313135353a2073657474696e6720617070726f76616c2073746174757360008201527f20666f722073656c660000000000000000000000000000000000000000000000602082015250565b60006138ce602983612a9e565b91506138d982613872565b604082019050919050565b600060208201905081810360008301526138fd816138c1565b9050919050565b7f5265656e7472616e637947756172643a207265656e7472616e742063616c6c00600082015250565b600061393a601f83612a9e565b915061394582613904565b602082019050919050565b600060208201905081810360008301526139698161392d565b9050919050565b7f4530313000000000000000000000000000000000000000000000000000000000600082015250565b60006139a6600483612a9e565b91506139b182613970565b602082019050919050565b600060208201905081810360008301526139d581613999565b9050919050565b7f4530313100000000000000000000000000000000000000000000000000000000600082015250565b6000613a12600483612a9e565b9150613a1d826139dc565b602082019050919050565b60006020820190508181036000830152613a4181613a05565b9050919050565b7f4530313200000000000000000000000000000000000000000000000000000000600082015250565b6000613a7e600483612a9e565b9150613a8982613a48565b602082019050919050565b60006020820190508181036000830152613aad81613a71565b9050919050565b600081519050613ac381612b97565b92915050565b600060208284031215613adf57613ade612b25565b5b6000613aed84828501613ab4565b91505092915050565b7f4530313300000000000000000000000000000000000000000000000000000000600082015250565b6000613b2c600483612a9e565b9150613b3782613af6565b602082019050919050565b60006020820190508181036000830152613b5b81613b1f565b9050919050565b7f4530303100000000000000000000000000000000000000000000000000000000600082015250565b6000613b98600483612a9e565b9150613ba382613b62565b602082019050919050565b60006020820190508181036000830152613bc781613b8b565b9050919050565b7f4530303200000000000000000000000000000000000000000000000000000000600082015250565b6000613c04600483612a9e565b9150613c0f82613bce565b602082019050919050565b60006020820190508181036000830152613c3381613bf7565b9050919050565b7f4530303300000000000000000000000000000000000000000000000000000000600082015250565b6000613c70600483612a9e565b9150613c7b82613c3a565b602082019050919050565b60006020820190508181036000830152613c9f81613c63565b9050919050565b7f4530303400000000000000000000000000000000000000000000000000000000600082015250565b6000613cdc600483612a9e565b9150613ce782613ca6565b602082019050919050565b60006020820190508181036000830152613d0b81613ccf565b9050919050565b7f4530303500000000000000000000000000000000000000000000000000000000600082015250565b6000613d48600483612a9e565b9150613d5382613d12565b602082019050919050565b60006020820190508181036000830152613d7781613d3b565b9050919050565b7f4530303600000000000000000000000000000000000000000000000000000000600082015250565b6000613db4600483612a9e565b9150613dbf82613d7e565b602082019050919050565b60006020820190508181036000830152613de381613da7565b9050919050565b7f4530303700000000000000000000000000000000000000000000000000000000600082015250565b6000613e20600483612a9e565b9150613e2b82613dea565b602082019050919050565b60006020820190508181036000830152613e4f81613e13565b9050919050565b7f4530303800000000000000000000000000000000000000000000000000000000600082015250565b6000613e8c600483612a9e565b9150613e9782613e56565b602082019050919050565b60006020820190508181036000830152613ebb81613e7f565b9050919050565b600081905092915050565b50565b6000613edd600083613ec2565b9150613ee882613ecd565b600082019050919050565b6000613efe82613ed0565b9150819050919050565b6000613f1382612dbf565b9150613f1e83612dbf565b925082821015613f3157613f30613738565b5b828203905092915050565b7f4530303900000000000000000000000000000000000000000000000000000000600082015250565b6000613f72600483612a9e565b9150613f7d82613f3c565b602082019050919050565b60006020820190508181036000830152613fa181613f65565b9050919050565b7f455243313135353a2063616c6c6572206973206e6f74206f776e6572206e6f7260008201527f20617070726f7665640000000000000000000000000000000000000000000000602082015250565b6000614004602983612a9e565b915061400f82613fa8565b604082019050919050565b6000602082019050818103600083015261403381613ff7565b9050919050565b7f4f776e61626c653a206e6577206f776e657220697320746865207a65726f206160008201527f6464726573730000000000000000000000000000000000000000000000000000602082015250565b6000614096602683612a9e565b91506140a18261403a565b604082019050919050565b600060208201905081810360008301526140c581614089565b9050919050565b7f455243313135353a2069647320616e6420616d6f756e7473206c656e6774682060008201527f6d69736d61746368000000000000000000000000000000000000000000000000602082015250565b6000614128602883612a9e565b9150614133826140cc565b604082019050919050565b600060208201905081810360008301526141578161411b565b9050919050565b7f455243313135353a207472616e7366657220746f20746865207a65726f20616460008201527f6472657373000000000000000000000000000000000000000000000000000000602082015250565b60006141ba602583612a9e565b91506141c58261415e565b604082019050919050565b600060208201905081810360008301526141e9816141ad565b9050919050565b7f455243313135353a20696e73756666696369656e742062616c616e636520666f60008201527f72207472616e7366657200000000000000000000000000000000000000000000602082015250565b600061424c602a83612a9e565b9150614257826141f0565b604082019050919050565b6000602082019050818103600083015261427b8161423f565b9050919050565b6000604082019050818103600083015261429c81856132d8565b905081810360208301526142b081846132d8565b90509392505050565b7f455243313135353a206275726e2066726f6d20746865207a65726f206164647260008201527f6573730000000000000000000000000000000000000000000000000000000000602082015250565b6000614315602383612a9e565b9150614320826142b9565b604082019050919050565b6000602082019050818103600083015261434481614308565b9050919050565b7f455243313135353a206275726e20616d6f756e7420657863656564732062616c60008201527f616e636500000000000000000000000000000000000000000000000000000000602082015250565b60006143a7602483612a9e565b91506143b28261434b565b604082019050919050565b600060208201905081810360008301526143d68161439a565b9050919050565b60006040820190506143f26000830185612c03565b6143ff6020830184612c03565b9392505050565b7f455243313135353a206d696e7420746f20746865207a65726f2061646472657360008201527f7300000000000000000000000000000000000000000000000000000000000000602082015250565b6000614462602183612a9e565b915061446d82614406565b604082019050919050565b6000602082019050818103600083015261449181614455565b9050919050565b60006144a382612b8d565b91506144ae83612b8d565b9250828210156144c1576144c0613738565b5b828203905092915050565b7f4e487b7100000000000000000000000000000000000000000000000000000000600052603160045260246000fd5b600081519050919050565b600082825260208201905092915050565b6000614522826144fb565b61452c8185614506565b935061453c818560208601612d20565b61454581612d53565b840191505092915050565b600060a0820190506145656000830188613358565b6145726020830187613358565b818103604083015261458481866132d8565b9050818103606083015261459881856132d8565b905081810360808301526145ac8184614517565b90509695505050505050565b6000815190506145c781612c59565b92915050565b6000602082840312156145e3576145e2612b25565b5b60006145f1848285016145b8565b91505092915050565b60008160e01c9050919050565b600060033d11156146265760046000803e6146236000516145fa565b90505b90565b600060443d1015614639576146bc565b614641612b1b565b60043d036004823e80513d602482011167ffffffffffffffff821117156146695750506146bc565b808201805167ffffffffffffffff81111561468757505050506146bc565b80602083010160043d0385018111156146a45750505050506146bc565b6146b382602001850186612ea5565b82955050505050505b90565b7f455243313135353a207472616e7366657220746f206e6f6e204552433131353560008201527f526563656976657220696d706c656d656e746572000000000000000000000000602082015250565b600061471b603483612a9e565b9150614726826146bf565b604082019050919050565b6000602082019050818103600083015261474a8161470e565b9050919050565b7f455243313135353a204552433131353552656365697665722072656a6563746560008201527f6420746f6b656e73000000000000000000000000000000000000000000000000602082015250565b60006147ad602883612a9e565b91506147b882614751565b604082019050919050565b600060208201905081810360008301526147dc816147a0565b9050919050565b600060a0820190506147f86000830188613358565b6148056020830187613358565b6148126040830186612c03565b61481f6060830185612c03565b81810360808301526148318184614517565b90509695505050505050565b600081549050919050565b600081905092915050565b60008190508160005260206000209050919050565b61487181612dbf565b82525050565b60008160001c9050919050565b600061ffff82169050919050565b60006148a56148a083614877565b614884565b9050919050565b60008160101c9050919050565b60006148cc6148c7836148ac565b614884565b9050919050565b60008160201c9050919050565b60006148f36148ee836148d3565b614884565b9050919050565b60008160301c9050919050565b600061491a614915836148fa565b614884565b9050919050565b60008160401c9050919050565b600061494161493c83614921565b614884565b9050919050565b60008160501c9050919050565b600061496861496383614948565b614884565b9050919050565b60008160601c9050919050565b600061498f61498a8361496f565b614884565b9050919050565b60008160701c9050919050565b60006149b66149b183614996565b614884565b9050919050565b60008160801c9050919050565b60006149dd6149d8836149bd565b614884565b9050919050565b60008160901c9050919050565b6000614a046149ff836149e4565b614884565b9050919050565b60008160a01c9050919050565b6000614a2b614a2683614a0b565b614884565b9050919050565b60008160b01c9050919050565b6000614a52614a4d83614a32565b614884565b9050919050565b60008160c01c9050919050565b6000614a79614a7483614a59565b614884565b9050919050565b60008160d01c9050919050565b6000614aa0614a9b83614a80565b614884565b9050919050565b6000614aba614ab5836145fa565b614884565b9050919050565b60008160f01c9050919050565b6000614ae1614adc83614ac1565b614884565b9050919050565b6000614af38261483d565b614afd8185614848565b935083614b0984614853565b6000600115614cb6575b83600160100382011015614cb5578154614b3588614b3083614892565b614868565b602088019750614b4d88614b48836148b9565b614868565b602088019750614b6588614b60836148e0565b614868565b602088019750614b7d88614b7883614907565b614868565b602088019750614b9588614b908361492e565b614868565b602088019750614bad88614ba883614955565b614868565b602088019750614bc588614bc08361497c565b614868565b602088019750614bdd88614bd8836149a3565b614868565b602088019750614bf588614bf0836149ca565b614868565b602088019750614c0d88614c08836149f1565b614868565b602088019750614c2588614c2083614a18565b614868565b602088019750614c3d88614c3883614a3f565b614868565b602088019750614c5588614c5083614a66565b614868565b602088019750614c6d88614c6883614a8d565b614868565b602088019750614c8588614c8083614aa7565b614868565b602088019750614c9d88614c9883614ace565b614868565b60208801975060018301925050601081019050614b13565b5b600115614f3157815484821015614ce657614cd988614cd483614892565b614868565b6020880197506001820191505b84821015614d0d57614d0088614cfb836148b9565b614868565b6020880197506001820191505b84821015614d3457614d2788614d22836148e0565b614868565b6020880197506001820191505b84821015614d5b57614d4e88614d4983614907565b614868565b6020880197506001820191505b84821015614d8257614d7588614d708361492e565b614868565b6020880197506001820191505b84821015614da957614d9c88614d9783614955565b614868565b6020880197506001820191505b84821015614dd057614dc388614dbe8361497c565b614868565b6020880197506001820191505b84821015614df757614dea88614de5836149a3565b614868565b6020880197506001820191505b84821015614e1e57614e1188614e0c836149ca565b614868565b6020880197506001820191505b84821015614e4557614e3888614e33836149f1565b614868565b6020880197506001820191505b84821015614e6c57614e5f88614e5a83614a18565b614868565b6020880197506001820191505b84821015614e9357614e8688614e8183614a3f565b614868565b6020880197506001820191505b84821015614eba57614ead88614ea883614a66565b614868565b6020880197506001820191505b84821015614ee157614ed488614ecf83614a8d565b614868565b6020880197506001820191505b84821015614f0857614efb88614ef683614aa7565b614868565b6020880197506001820191505b84821015614f2f57614f2288614f1d83614ace565b614868565b6020880197506001820191505b505b8694505050505092915050565b6000819050919050565b6000819050919050565b614f63614f5e82614f3e565b614f48565b82525050565b6000614f7482612b2f565b9050919050565b60008160601b9050919050565b6000614f9382614f7b565b9050919050565b6000614fa582614f88565b9050919050565b614fbd614fb882614f69565b614f9a565b82525050565b6000819050919050565b614fde614fd982612b8d565b614fc3565b82525050565b6000614fef82614f88565b9050919050565b61500761500282612b4f565b614fe4565b82525050565b60006150198288614ae8565b91506150258287614f52565b6020820191506150358286614fac565b6014820191506150458285614fcd565b6020820191506150558284614ff6565b6014820191508190509695505050505050565b7f4e487b7100000000000000000000000000000000000000000000000000000000600052601260045260246000fd5b60006150a282612b8d565b91506150ad83612b8d565b9250826150bd576150bc615068565b5b82820690509291505056fea26469706673582212203a110ae06d572b212100bcc7836a2bd0cdefc770b14a4588e910ad2da231cc9564736f6c634300080a003368747470733a2f2f6d6574612e636f696e6c616e6465722e6f6e652f6b6565706572735661756c742f7b69647d2e6a736f6e",
  "linkReferences": {},
  "deployedLinkReferences": {}
}