{
  "_format": "hh-sol-artifact-1",
  "contractName": "Vault",
  "sourceName": "contracts/Vault.sol",
  "abi": [
    {
      "inputs": [
        {
          "internalType": "address",
          "name": "_randomnessOracle",
          "type": "address"
        }
      ],
      "stateMutability": "nonpayable",
      "type": "constructor"
    },
    {
      "anonymous": false,
      "inputs": [
        {
          "indexed": true,
          "internalType": "address",
          "name": "account",
          "type": "address"
        },
        {
          "indexed": true,
          "internalType": "address",
          "name": "operator",
          "type": "address"
        },
        {
          "indexed": false,
          "internalType": "bool",
          "name": "approved",
          "type": "bool"
        }
      ],
      "name": "ApprovalForAll",
      "type": "event"
    },
    {
      "anonymous": false,
      "inputs": [
        {
          "indexed": true,
          "internalType": "address",
          "name": "previousOwner",
          "type": "address"
        },
        {
          "indexed": true,
          "internalType": "address",
          "name": "newOwner",
          "type": "address"
        }
      ],
      "name": "OwnershipTransferred",
      "type": "event"
    },
    {
      "anonymous": false,
      "inputs": [
        {
          "indexed": false,
          "internalType": "uint16",
          "name": "requestId",
          "type": "uint16"
        },
        {
          "indexed": false,
          "internalType": "uint16",
          "name": "result",
          "type": "uint16"
        }
      ],
      "name": "RandomnessFulfilled",
      "type": "event"
    },
    {
      "anonymous": false,
      "inputs": [
        {
          "indexed": false,
          "internalType": "address",
          "name": "currentOracle",
          "type": "address"
        },
        {
          "indexed": false,
          "internalType": "address",
          "name": "newOracle",
          "type": "address"
        }
      ],
      "name": "RandomnessOracleChanged",
      "type": "event"
    },
    {
      "anonymous": false,
      "inputs": [
        {
          "indexed": false,
          "internalType": "address",
          "name": "requester",
          "type": "address"
        },
        {
          "indexed": false,
          "internalType": "uint16",
          "name": "requestId",
          "type": "uint16"
        }
      ],
      "name": "RandomnessRequested",
      "type": "event"
    },
    {
      "anonymous": false,
      "inputs": [
        {
          "indexed": true,
          "internalType": "address",
          "name": "operator",
          "type": "address"
        },
        {
          "indexed": true,
          "internalType": "address",
          "name": "from",
          "type": "address"
        },
        {
          "indexed": true,
          "internalType": "address",
          "name": "to",
          "type": "address"
        },
        {
          "indexed": false,
          "internalType": "uint256[]",
          "name": "ids",
          "type": "uint256[]"
        },
        {
          "indexed": false,
          "internalType": "uint256[]",
          "name": "values",
          "type": "uint256[]"
        }
      ],
      "name": "TransferBatch",
      "type": "event"
    },
    {
      "anonymous": false,
      "inputs": [
        {
          "indexed": true,
          "internalType": "address",
          "name": "operator",
          "type": "address"
        },
        {
          "indexed": true,
          "internalType": "address",
          "name": "from",
          "type": "address"
        },
        {
          "indexed": true,
          "internalType": "address",
          "name": "to",
          "type": "address"
        },
        {
          "indexed": false,
          "internalType": "uint256",
          "name": "id",
          "type": "uint256"
        },
        {
          "indexed": false,
          "internalType": "uint256",
          "name": "value",
          "type": "uint256"
        }
      ],
      "name": "TransferSingle",
      "type": "event"
    },
    {
      "anonymous": false,
      "inputs": [
        {
          "indexed": false,
          "internalType": "string",
          "name": "value",
          "type": "string"
        },
        {
          "indexed": true,
          "internalType": "uint256",
          "name": "id",
          "type": "uint256"
        }
      ],
      "name": "URI",
      "type": "event"
    },
    {
      "anonymous": false,
      "inputs": [
        {
          "indexed": false,
          "internalType": "address",
          "name": "winner",
          "type": "address"
        }
      ],
      "name": "VaultUnlocked",
      "type": "event"
    },
    {
      "inputs": [],
      "name": "FRAGMENT1",
      "outputs": [
        {
          "internalType": "uint256",
          "name": "",
          "type": "uint256"
        }
      ],
      "stateMutability": "view",
      "type": "function"
    },
    {
      "inputs": [],
      "name": "FRAGMENT2",
      "outputs": [
        {
          "internalType": "uint256",
          "name": "",
          "type": "uint256"
        }
      ],
      "stateMutability": "view",
      "type": "function"
    },
    {
      "inputs": [],
      "name": "FRAGMENT3",
      "outputs": [
        {
          "internalType": "uint256",
          "name": "",
          "type": "uint256"
        }
      ],
      "stateMutability": "view",
      "type": "function"
    },
    {
      "inputs": [],
      "name": "FRAGMENT4",
      "outputs": [
        {
          "internalType": "uint256",
          "name": "",
          "type": "uint256"
        }
      ],
      "stateMutability": "view",
      "type": "function"
    },
    {
      "inputs": [],
      "name": "FRAGMENT5",
      "outputs": [
        {
          "internalType": "uint256",
          "name": "",
          "type": "uint256"
        }
      ],
      "stateMutability": "view",
      "type": "function"
    },
    {
      "inputs": [],
      "name": "FRAGMENT6",
      "outputs": [
        {
          "internalType": "uint256",
          "name": "",
          "type": "uint256"
        }
      ],
      "stateMutability": "view",
      "type": "function"
    },
    {
      "inputs": [],
      "name": "FRAGMENT7",
      "outputs": [
        {
          "internalType": "uint256",
          "name": "",
          "type": "uint256"
        }
      ],
      "stateMutability": "view",
      "type": "function"
    },
    {
      "inputs": [],
      "name": "FRAGMENT8",
      "outputs": [
        {
          "internalType": "uint256",
          "name": "",
          "type": "uint256"
        }
      ],
      "stateMutability": "view",
      "type": "function"
    },
    {
      "inputs": [],
      "name": "KEY",
      "outputs": [
        {
          "internalType": "uint256",
          "name": "",
          "type": "uint256"
        }
      ],
      "stateMutability": "view",
      "type": "function"
    },
    {
      "inputs": [],
      "name": "MAXFRAGMENTS",
      "outputs": [
        {
          "internalType": "uint16",
          "name": "",
          "type": "uint16"
        }
      ],
      "stateMutability": "view",
      "type": "function"
    },
    {
      "inputs": [
        {
          "internalType": "address",
          "name": "account",
          "type": "address"
        },
        {
          "internalType": "uint256",
          "name": "id",
          "type": "uint256"
        }
      ],
      "name": "balanceOf",
      "outputs": [
        {
          "internalType": "uint256",
          "name": "",
          "type": "uint256"
        }
      ],
      "stateMutability": "view",
      "type": "function"
    },
    {
      "inputs": [
        {
          "internalType": "address[]",
          "name": "accounts",
          "type": "address[]"
        },
        {
          "internalType": "uint256[]",
          "name": "ids",
          "type": "uint256[]"
        }
      ],
      "name": "balanceOfBatch",
      "outputs": [
        {
          "internalType": "uint256[]",
          "name": "",
          "type": "uint256[]"
        }
      ],
      "stateMutability": "view",
      "type": "function"
    },
    {
      "inputs": [
        {
          "internalType": "string",
          "name": "_newURI",
          "type": "string"
        }
      ],
      "name": "changeURI",
      "outputs": [],
      "stateMutability": "nonpayable",
      "type": "function"
    },
    {
      "inputs": [],
      "name": "claimFragments",
      "outputs": [],
      "stateMutability": "nonpayable",
      "type": "function"
    },
    {
      "inputs": [],
      "name": "claimKeepersVault",
      "outputs": [],
      "stateMutability": "nonpayable",
      "type": "function"
    },
    {
      "inputs": [
        {
          "internalType": "address",
          "name": "",
          "type": "address"
        },
        {
          "internalType": "uint256",
          "name": "",
          "type": "uint256"
        }
      ],
      "name": "claimables",
      "outputs": [
        {
          "internalType": "uint16",
          "name": "",
          "type": "uint16"
        }
      ],
      "stateMutability": "view",
      "type": "function"
    },
    {
      "inputs": [],
      "name": "contractURI",
      "outputs": [
        {
          "internalType": "string",
          "name": "",
          "type": "string"
        }
      ],
      "stateMutability": "view",
      "type": "function"
    },
    {
      "inputs": [
        {
          "internalType": "uint16",
          "name": "_requestId",
          "type": "uint16"
        }
      ],
      "name": "fulfillRequest",
      "outputs": [],
      "stateMutability": "nonpayable",
      "type": "function"
    },
    {
      "inputs": [],
      "name": "fundPrizePurse",
      "outputs": [],
      "stateMutability": "payable",
      "type": "function"
    },
    {
      "inputs": [],
      "name": "gameContract",
      "outputs": [
        {
          "internalType": "address",
          "name": "",
          "type": "address"
        }
      ],
      "stateMutability": "view",
      "type": "function"
    },
    {
      "inputs": [],
      "name": "gameWon",
      "outputs": [
        {
          "internalType": "bool",
          "name": "",
          "type": "bool"
        }
      ],
      "stateMutability": "view",
      "type": "function"
    },
    {
      "inputs": [
        {
          "internalType": "address",
          "name": "user",
          "type": "address"
        }
      ],
      "name": "getClaimablesByAddress",
      "outputs": [
        {
          "internalType": "uint256",
          "name": "",
          "type": "uint256"
        }
      ],
      "stateMutability": "view",
      "type": "function"
    },
    {
      "inputs": [
        {
          "internalType": "address",
          "name": "account",
          "type": "address"
        },
        {
          "internalType": "address",
          "name": "operator",
          "type": "address"
        }
      ],
      "name": "isApprovedForAll",
      "outputs": [
        {
          "internalType": "bool",
          "name": "",
          "type": "bool"
        }
      ],
      "stateMutability": "view",
      "type": "function"
    },
    {
      "inputs": [],
      "name": "numT1",
      "outputs": [
        {
          "internalType": "uint16",
          "name": "",
          "type": "uint16"
        }
      ],
      "stateMutability": "view",
      "type": "function"
    },
    {
      "inputs": [],
      "name": "numT2",
      "outputs": [
        {
          "internalType": "uint16",
          "name": "",
          "type": "uint16"
        }
      ],
      "stateMutability": "view",
      "type": "function"
    },
    {
      "inputs": [],
      "name": "numT3",
      "outputs": [
        {
          "internalType": "uint16",
          "name": "",
          "type": "uint16"
        }
      ],
      "stateMutability": "view",
      "type": "function"
    },
    {
      "inputs": [],
      "name": "numT4",
      "outputs": [
        {
          "internalType": "uint16",
          "name": "",
          "type": "uint16"
        }
      ],
      "stateMutability": "view",
      "type": "function"
    },
    {
      "inputs": [],
      "name": "numT5",
      "outputs": [
        {
          "internalType": "uint16",
          "name": "",
          "type": "uint16"
        }
      ],
      "stateMutability": "view",
      "type": "function"
    },
    {
      "inputs": [],
      "name": "numT6",
      "outputs": [
        {
          "internalType": "uint16",
          "name": "",
          "type": "uint16"
        }
      ],
      "stateMutability": "view",
      "type": "function"
    },
    {
      "inputs": [],
      "name": "numT7",
      "outputs": [
        {
          "internalType": "uint16",
          "name": "",
          "type": "uint16"
        }
      ],
      "stateMutability": "view",
      "type": "function"
    },
    {
      "inputs": [],
      "name": "numT8",
      "outputs": [
        {
          "internalType": "uint16",
          "name": "",
          "type": "uint16"
        }
      ],
      "stateMutability": "view",
      "type": "function"
    },
    {
      "inputs": [],
      "name": "owner",
      "outputs": [
        {
          "internalType": "address",
          "name": "",
          "type": "address"
        }
      ],
      "stateMutability": "view",
      "type": "function"
    },
    {
      "inputs": [],
      "name": "prize",
      "outputs": [
        {
          "internalType": "uint256",
          "name": "",
          "type": "uint256"
        }
      ],
      "stateMutability": "view",
      "type": "function"
    },
    {
      "inputs": [],
      "name": "randomnessOracle",
      "outputs": [
        {
          "internalType": "address",
          "name": "",
          "type": "address"
        }
      ],
      "stateMutability": "view",
      "type": "function"
    },
    {
      "inputs": [],
      "name": "renounceOwnership",
      "outputs": [],
      "stateMutability": "nonpayable",
      "type": "function"
    },
    {
      "inputs": [
        {
          "internalType": "address",
          "name": "_requester",
          "type": "address"
        },
        {
          "internalType": "uint256",
          "name": "amount",
          "type": "uint256"
        }
      ],
      "name": "requestFragments",
      "outputs": [],
      "stateMutability": "nonpayable",
      "type": "function"
    },
    {
      "inputs": [
        {
          "internalType": "uint16",
          "name": "",
          "type": "uint16"
        }
      ],
      "name": "requestFulfillments",
      "outputs": [
        {
          "internalType": "bool",
          "name": "fulfilled",
          "type": "bool"
        },
        {
          "internalType": "address",
          "name": "requester",
          "type": "address"
        }
      ],
      "stateMutability": "view",
      "type": "function"
    },
    {
      "inputs": [],
      "name": "requestId",
      "outputs": [
        {
          "internalType": "uint16",
          "name": "",
          "type": "uint16"
        }
      ],
      "stateMutability": "view",
      "type": "function"
    },
    {
      "inputs": [
        {
          "internalType": "address",
          "name": "from",
          "type": "address"
        },
        {
          "internalType": "address",
          "name": "to",
          "type": "address"
        },
        {
          "internalType": "uint256[]",
          "name": "ids",
          "type": "uint256[]"
        },
        {
          "internalType": "uint256[]",
          "name": "amounts",
          "type": "uint256[]"
        },
        {
          "internalType": "bytes",
          "name": "data",
          "type": "bytes"
        }
      ],
      "name": "safeBatchTransferFrom",
      "outputs": [],
      "stateMutability": "nonpayable",
      "type": "function"
    },
    {
      "inputs": [
        {
          "internalType": "address",
          "name": "from",
          "type": "address"
        },
        {
          "internalType": "address",
          "name": "to",
          "type": "address"
        },
        {
          "internalType": "uint256",
          "name": "id",
          "type": "uint256"
        },
        {
          "internalType": "uint256",
          "name": "amount",
          "type": "uint256"
        },
        {
          "internalType": "bytes",
          "name": "data",
          "type": "bytes"
        }
      ],
      "name": "safeTransferFrom",
      "outputs": [],
      "stateMutability": "nonpayable",
      "type": "function"
    },
    {
      "inputs": [
        {
          "internalType": "address",
          "name": "operator",
          "type": "address"
        },
        {
          "internalType": "bool",
          "name": "approved",
          "type": "bool"
        }
      ],
      "name": "setApprovalForAll",
      "outputs": [],
      "stateMutability": "nonpayable",
      "type": "function"
    },
    {
      "inputs": [
        {
          "internalType": "string",
          "name": "newContractURI",
          "type": "string"
        }
      ],
      "name": "setContractURI",
      "outputs": [],
      "stateMutability": "nonpayable",
      "type": "function"
    },
    {
      "inputs": [
        {
          "internalType": "address",
          "name": "_gameContract",
          "type": "address"
        }
      ],
      "name": "setGameContract",
      "outputs": [],
      "stateMutability": "nonpayable",
      "type": "function"
    },
    {
      "inputs": [
        {
          "internalType": "address",
          "name": "newOracle",
          "type": "address"
        }
      ],
      "name": "setRandomnessOracle",
      "outputs": [],
      "stateMutability": "nonpayable",
      "type": "function"
    },
    {
      "inputs": [],
      "name": "setSweetRelease",
      "outputs": [],
      "stateMutability": "nonpayable",
      "type": "function"
    },
    {
      "inputs": [
        {
          "internalType": "bytes4",
          "name": "interfaceId",
          "type": "bytes4"
        }
      ],
      "name": "supportsInterface",
      "outputs": [
        {
          "internalType": "bool",
          "name": "",
          "type": "bool"
        }
      ],
      "stateMutability": "view",
      "type": "function"
    },
    {
      "inputs": [],
      "name": "sweetRelease",
      "outputs": [
        {
          "internalType": "bool",
          "name": "",
          "type": "bool"
        }
      ],
      "stateMutability": "view",
      "type": "function"
    },
    {
      "inputs": [
        {
          "internalType": "address",
          "name": "newOwner",
          "type": "address"
        }
      ],
      "name": "transferOwnership",
      "outputs": [],
      "stateMutability": "nonpayable",
      "type": "function"
    },
    {
      "inputs": [
        {
          "internalType": "uint256",
          "name": "",
          "type": "uint256"
        }
      ],
      "name": "uri",
      "outputs": [
        {
          "internalType": "string",
          "name": "",
          "type": "string"
        }
      ],
      "stateMutability": "view",
      "type": "function"
    },
    {
      "stateMutability": "payable",
      "type": "receive"
    }
  ],
  "bytecode": "0x60806040526000600655600780546001600160b01b03191690553480156200002657600080fd5b5060405162003d8738038062003d878339810160408190526200004991620005a9565b6040518060600160405280602a815260200162003d5d602a91396200006e8162000498565b506200007a33620004b1565b600160045560005b600361ffff82161015620000e6576005805460018101825560009190915260008051602062003d1883398151915260108204018054600f9092166002026101000a61ffff810219909216909117905580620000dd81620005f1565b91505062000082565b5060005b600a61ffff8216101562000153576005805460018101825560009190915260008051602062003d188339815191526010820401805461ffff6002600f90941684026101000a908102199091169202919091179055806200014a81620005f1565b915050620000ea565b5060005b600a61ffff82161015620001c0576005805460018101825560009190915260008051602062003d188339815191526010820401805461ffff600f9093166002026101000a9283021916600390920291909117905580620001b781620005f1565b91505062000157565b5060005b603261ffff821610156200022d576005805460018101825560009190915260008051602062003d188339815191526010820401805461ffff600f9093166002026101000a92830219166004909202919091179055806200022481620005f1565b915050620001c4565b5060005b606461ffff82161015620002955760058054600181018255600082905260008051602062003d188339815191526010820401805461ffff600f9093166002026101000a928302191691909202179055806200028c81620005f1565b91505062000231565b5060005b606f61ffff8216101562000302576005805460018101825560009190915260008051602062003d188339815191526010820401805461ffff600f9093166002026101000a9283021916600690920291909117905580620002f981620005f1565b91505062000299565b5060005b60de61ffff821610156200036f576005805460018101825560009190915260008051602062003d188339815191526010820401805461ffff600f9093166002026101000a92830219166007909202919091179055806200036681620005f1565b91505062000306565b5060005b60de606f60646032600a806200038d600361045762000616565b62000399919062000616565b620003a5919062000616565b620003b1919062000616565b620003bd919062000616565b620003c9919062000616565b620003d5919062000616565b61ffff168161ffff16101562000440576005805460018101825560009190915260008051602062003d188339815191526010820401805461ffff600f9093166002026101000a92830219166008909202919091179055806200043781620005f1565b91505062000373565b5060405180606001604052806025815260200162003d38602591398051620004719160089160209091019062000503565b50600980546001600160a01b0319166001600160a01b039290921691909117905562000679565b8051620004ad90600290602084019062000503565b5050565b600380546001600160a01b038381166001600160a01b0319831681179093556040519116919082907f8be0079c531659141344cd1fd0a4f28419497f9722a3daafe3b4186f6b6457e090600090a35050565b82805462000511906200063c565b90600052602060002090601f01602090048101928262000535576000855562000580565b82601f106200055057805160ff191683800117855562000580565b8280016001018555821562000580579182015b828111156200058057825182559160200191906001019062000563565b506200058e92915062000592565b5090565b5b808211156200058e576000815560010162000593565b600060208284031215620005bc57600080fd5b81516001600160a01b0381168114620005d457600080fd5b9392505050565b634e487b7160e01b600052601160045260246000fd5b600061ffff808316818114156200060c576200060c620005db565b6001019392505050565b600061ffff83811690831681811015620006345762000634620005db565b039392505050565b600181811c908216806200065157607f821691505b602082108114156200067357634e487b7160e01b600052602260045260246000fd5b50919050565b61368f80620006896000396000f3fe6080604052600436106103205760003560e01c80638f9352ba116101a5578063d92e93c8116100ec578063edd47abf11610095578063f2fde38b1161006f578063f2fde38b1461088d578063f4689936146108ad578063ffd807d2146108c3578063fff1f892146108d857600080fd5b8063edd47abf14610843578063ef3af27514610858578063f242432a1461086d57600080fd5b8063e5e01c11116100c6578063e5e01c11146107c5578063e8a3d485146107e5578063e985e9c5146107fa57600080fd5b8063d92e93c814610785578063e04a4ea61461079a578063e3ac5d26146107af57600080fd5b8063ae3c15971161014e578063b582aab011610128578063b582aab014610735578063c306219d1461074a578063d3f330091461075f57600080fd5b8063ae3c1597146106f6578063aea876c01461070b578063b0538dae1461072057600080fd5b806397b578b11161017f57806397b578b1146106c1578063a22cb465146106d6578063a6d24b6d1461048d57600080fd5b80638f9352ba1461068457806392f393f814610699578063938e3d7b146106a157600080fd5b8063335f35a7116102695780636d00e2331161021257806382283600116101ec57806382283600146106315780638da5cb5b146106515780638dd3503e1461066f57600080fd5b80636d00e233146105cf578063715018a6146105e45780637280ef69146105f957600080fd5b80634e1273f4116102435780634e1273f41461056e578063524a12241461059b5780635445941f146105b057600080fd5b8063335f35a714610519578063405ebd4d146105395780634c1299c61461055957600080fd5b80631a20cef8116102cb5780632d218406116102a55780632d218406146104c45780632dc387b3146104e45780632eb2c2d6146104f957600080fd5b80631a20cef8146104785780631ceea7961461048d57806327ddc9c1146104a257600080fd5b8063069a825c116102fc578063069a825c146103fb5780630e89341c146104155780631694c1481461044257600080fd5b80626d6cae14610363578062fdd58e1461039d57806301ffc9a7146103cb57600080fd5b3661035e5760405162461bcd60e51b8152602060048201526009602482015268114b4c0c0c8b4c0c4d60ba1b60448201526064015b60405180910390fd5b600080fd5b34801561036f57600080fd5b5060095461038590600160a01b900461ffff1681565b60405161ffff90911681526020015b60405180910390f35b3480156103a957600080fd5b506103bd6103b8366004612ab5565b610937565b604051908152602001610394565b3480156103d757600080fd5b506103eb6103e6366004612af5565b6109db565b6040519015158152602001610394565b34801561040757600080fd5b506007546103eb9060ff1681565b34801561042157600080fd5b50610435610430366004612b12565b610a78565b6040516103949190612b78565b34801561044e57600080fd5b506103bd61045d366004612b8b565b6001600160a01b03166000908152600a602052604090205490565b34801561048457600080fd5b50610385600381565b34801561049957600080fd5b50610385600a81565b3480156104ae57600080fd5b506104c26104bd366004612b8b565b610b0c565b005b3480156104d057600080fd5b506104c26104df366004612ab5565b610b8a565b3480156104f057600080fd5b506103bd600081565b34801561050557600080fd5b506104c2610514366004612cf2565b610d75565b34801561052557600080fd5b50610385610534366004612ab5565b610e17565b34801561054557600080fd5b506104c2610554366004612b8b565b610e5e565b34801561056557600080fd5b50610385603281565b34801561057a57600080fd5b5061058e610589366004612d9c565b610ea6565b6040516103949190612ea2565b3480156105a757600080fd5b506103bd600281565b3480156105bc57600080fd5b506007546103eb90610100900460ff1681565b3480156105db57600080fd5b506103bd600781565b3480156105f057600080fd5b506104c2610fe4565b34801561060557600080fd5b50600954610619906001600160a01b031681565b6040516001600160a01b039091168152602001610394565b34801561063d57600080fd5b506104c261064c366004612eb5565b610ff8565b34801561065d57600080fd5b506003546001600160a01b0316610619565b34801561067b57600080fd5b506103bd600381565b34801561069057600080fd5b506103bd600581565b6104c261137c565b3480156106ad57600080fd5b506104c26106bc366004612ed9565b611395565b3480156106cd57600080fd5b5061038560de81565b3480156106e257600080fd5b506104c26106f1366004612f4b565b6113a9565b34801561070257600080fd5b506104c26113b8565b34801561071757600080fd5b50610385606481565b34801561072c57600080fd5b506103bd600881565b34801561074157600080fd5b50610385611943565b34801561075657600080fd5b506103bd600681565b34801561076b57600080fd5b50600754610619906201000090046001600160a01b031681565b34801561079157600080fd5b506104c261199a565b3480156107a657600080fd5b506103bd600481565b3480156107bb57600080fd5b506103bd60065481565b3480156107d157600080fd5b506104c26107e0366004612ed9565b611b0e565b3480156107f157600080fd5b50610435611b55565b34801561080657600080fd5b506103eb610815366004612f87565b6001600160a01b03918216600090815260016020908152604080832093909416825291909152205460ff1690565b34801561084f57600080fd5b506104c2611be7565b34801561086457600080fd5b506103bd600181565b34801561087957600080fd5b506104c2610888366004612fba565b611c44565b34801561089957600080fd5b506104c26108a8366004612b8b565b611cdf565b3480156108b957600080fd5b5061038561045781565b3480156108cf57600080fd5b50610385606f81565b3480156108e457600080fd5b506109186108f3366004612eb5565b600b6020526000908152604090205460ff81169061010090046001600160a01b031682565b6040805192151583526001600160a01b03909116602083015201610394565b60006001600160a01b0383166109b55760405162461bcd60e51b815260206004820152602a60248201527f455243313135353a2061646472657373207a65726f206973206e6f742061207660448201527f616c6964206f776e6572000000000000000000000000000000000000000000006064820152608401610355565b506000908152602081815260408083206001600160a01b03949094168352929052205490565b60006001600160e01b031982167fd9b67a26000000000000000000000000000000000000000000000000000000001480610a3e57506001600160e01b031982167f0e89341c00000000000000000000000000000000000000000000000000000000145b80610a7257507f01ffc9a7000000000000000000000000000000000000000000000000000000006001600160e01b03198316145b92915050565b606060028054610a879061301f565b80601f0160208091040260200160405190810160405280929190818152602001828054610ab39061301f565b8015610b005780601f10610ad557610100808354040283529160200191610b00565b820191906000526020600020905b815481529060010190602001808311610ae357829003601f168201915b50505050509050919050565b610b14611d6f565b600954604080516001600160a01b03928316815291831660208301527fe7e90c05da58ad509b126f5c5ce8c90551c45f8d998679deb7154a66092c12b3910160405180910390a16009805473ffffffffffffffffffffffffffffffffffffffff19166001600160a01b0392909216919091179055565b6007546201000090046001600160a01b03163314610bd65760405162461bcd60e51b8152602060048201526009602482015268452d3030322d30313560b81b6044820152606401610355565b6009546005548291610bf491600160b01b90910461ffff1690613070565b1015610c425760405162461bcd60e51b815260206004820152600960248201527f452d3030322d30303900000000000000000000000000000000000000000000006044820152606401610355565b60005b81811015610d705760098054600160a01b900461ffff16906014610c6883613087565b91906101000a81548161ffff021916908361ffff160217905550506009601681819054906101000a900461ffff1680929190610ca390613087565b82546101009290920a61ffff818102199093169183160217909155600954604080516001600160a01b0388168152600160a01b90920490921660208201527f792116194a9c99a8e97047b42c4fbee03694bcb41a0d0b4b4ab5c7352577812d92500160405180910390a1600954600160a01b900461ffff166000908152600b6020526040902080547fffffffffffffffffffffff0000000000000000000000000000000000000000ff166101006001600160a01b0386160217905580610d68816130a9565b915050610c45565b505050565b6001600160a01b038516331480610d915750610d918533610815565b610e035760405162461bcd60e51b815260206004820152602f60248201527f455243313135353a2063616c6c6572206973206e6f7420746f6b656e206f776e60448201527f6572206e6f7220617070726f76656400000000000000000000000000000000006064820152608401610355565b610e108585858585611dc9565b5050505050565b600a6020528160005260406000208181548110610e3357600080fd5b9060005260206000209060109182820401919006600202915091509054906101000a900461ffff1681565b610e66611d6f565b600780546001600160a01b0390921662010000027fffffffffffffffffffff0000000000000000000000000000000000000000ffff909216919091179055565b60608151835114610f1f5760405162461bcd60e51b815260206004820152602960248201527f455243313135353a206163636f756e747320616e6420696473206c656e67746860448201527f206d69736d6174636800000000000000000000000000000000000000000000006064820152608401610355565b6000835167ffffffffffffffff811115610f3b57610f3b612ba6565b604051908082528060200260200182016040528015610f64578160200160208202803683370190505b50905060005b8451811015610fdc57610faf858281518110610f8857610f886130c4565b6020026020010151858381518110610fa257610fa26130c4565b6020026020010151610937565b828281518110610fc157610fc16130c4565b6020908102919091010152610fd5816130a9565b9050610f6a565b509392505050565b610fec611d6f565b610ff6600061203c565b565b6009546001600160a01b031633146110525760405162461bcd60e51b815260206004820152600a60248201527f452d3030322d30303136000000000000000000000000000000000000000000006044820152606401610355565b61ffff81166000908152600b602052604090205460ff16156110b65760405162461bcd60e51b815260206004820152600960248201527f452d3030322d30313700000000000000000000000000000000000000000000006044820152606401610355565b600954600160b01b900461ffff166111105760405162461bcd60e51b815260206004820152600960248201527f452d3030322d30313900000000000000000000000000000000000000000000006044820152606401610355565b60095461ffff600160a01b909104811690821611156111715760405162461bcd60e51b815260206004820152600960248201527f452d3030322d30323000000000000000000000000000000000000000000000006044820152606401610355565b61ffff8082166000908152600b60205260409020805460ff1916600117905560098054600160b01b90049091169060166111aa836130da565b91906101000a81548161ffff021916908361ffff1602179055505060006111d1600561209b565b90506000600582815481106111e8576111e86130c4565b90600052602060002090601091828204019190066002029054906101000a900461ffff169050600560016005805490506112229190613070565b81548110611232576112326130c4565b90600052602060002090601091828204019190066002029054906101000a900461ffff1660058381548110611269576112696130c4565b90600052602060002090601091828204019190066002026101000a81548161ffff021916908361ffff16021790555060058054806112a9576112a96130f8565b600082815260208082206010600019949094018481049091018054600f808416600290810261010090810a61ffff9081021990941690945593909755898116808652600b85526040808720548490046001600160a01b0316808852600a875281882080546001810182559089529787902098880490980180549790991690940290920a808202199095169088169485021790955580519485529084019190915290917ff9ec374d5a34014dc78cce0e6df87a0f5c55ba84e7432ccab2a5493111080184910160405180910390a150505050565b346006600082825461138e919061310e565b9091555050565b61139d611d6f565b610d7060088383612967565b6113b43383836120ec565b5050565b6002600454141561140b5760405162461bcd60e51b815260206004820152601f60248201527f5265656e7472616e637947756172643a207265656e7472616e742063616c6c006044820152606401610355565b6002600455600754610100900460ff166114675760405162461bcd60e51b815260206004820152600960248201527f452d3030322d30313000000000000000000000000000000000000000000000006044820152606401610355565b60075460ff16156114ba5760405162461bcd60e51b815260206004820152600960248201527f452d3030322d30313100000000000000000000000000000000000000000000006044820152606401610355565b60006006541161150c5760405162461bcd60e51b815260206004820152600960248201527f452d3030322d30313200000000000000000000000000000000000000000000006044820152606401610355565b6000611519336001610937565b116115665760405162461bcd60e51b815260206004820152600960248201527f452d3030322d30303100000000000000000000000000000000000000000000006044820152606401610355565b6000611573336002610937565b116115c05760405162461bcd60e51b815260206004820152600960248201527f452d3030322d30303200000000000000000000000000000000000000000000006044820152606401610355565b60006115cd336003610937565b1161161a5760405162461bcd60e51b815260206004820152600960248201527f452d3030322d30303300000000000000000000000000000000000000000000006044820152606401610355565b6000611627336004610937565b116116745760405162461bcd60e51b815260206004820152600960248201527f452d3030322d30303400000000000000000000000000000000000000000000006044820152606401610355565b6000611681336005610937565b116116ce5760405162461bcd60e51b815260206004820152600960248201527f452d3030322d30303500000000000000000000000000000000000000000000006044820152606401610355565b60006116db336006610937565b116117285760405162461bcd60e51b815260206004820152600960248201527f452d3030322d30303600000000000000000000000000000000000000000000006044820152606401610355565b6000611735336007610937565b116117825760405162461bcd60e51b815260206004820152600960248201527f452d3030322d30303700000000000000000000000000000000000000000000006044820152606401610355565b600061178f336008610937565b116117dc5760405162461bcd60e51b815260206004820152600960248201527f452d3030322d30303800000000000000000000000000000000000000000000006044820152606401610355565b6117e8336001806121e1565b6117f533600260016121e1565b61180233600360016121e1565b61180f33600460016121e1565b61181c33600560016121e1565b61182933600660016121e1565b61183633600760016121e1565b61184333600860016121e1565b61186c33600060016040518060400160405280600381526020016203078360ec1b815250612395565b6040513381527fb90f637c9ae38effeea06ad34c58331954898f0d0d4109d30b95e0426b291ff79060200160405180910390a16007805460ff1916600117905560068054600091829055604051909190339083908381818185875af1925050503d80600081146118f8576040519150601f19603f3d011682016040523d82523d6000602084013e6118fd565b606091505b505090508061193a5760405162461bcd60e51b8152602060048201526009602482015268114b4c0c0c8b4c0c4d60ba1b6044820152606401610355565b50506001600455565b60de606f60646032600a8061195b6003610457613126565b6119659190613126565b61196f9190613126565b6119799190613126565b6119839190613126565b61198d9190613126565b6119979190613126565b81565b600260045414156119ed5760405162461bcd60e51b815260206004820152601f60248201527f5265656e7472616e637947756172643a207265656e7472616e742063616c6c006044820152606401610355565b6002600455336000908152600a6020526040902054611a4e5760405162461bcd60e51b815260206004820152600960248201527f452d3030322d30313800000000000000000000000000000000000000000000006044820152606401610355565b60005b336000908152600a6020526040902054811015611aee57336000908152600a60205260408120805483908110611a8957611a896130c4565b90600052602060002090601091828204019190066002029054906101000a900461ffff1661ffff169050611adb338260016040518060400160405280600381526020016203078360ec1b815250612395565b5080611ae6816130a9565b915050611a51565b50336000908152600a60205260408120611b07916129eb565b6001600455565b611b16611d6f565b6113b482828080601f0160208091040260200160405190810160405280939291908181526020018383808284376000920191909152506124bc92505050565b606060088054611b649061301f565b80601f0160208091040260200160405190810160405280929190818152602001828054611b909061301f565b8015611bdd5780601f10611bb257610100808354040283529160200191611bdd565b820191906000526020600020905b815481529060010190602001808311611bc057829003601f168201915b5050505050905090565b6007546201000090046001600160a01b03163314611c335760405162461bcd60e51b8152602060048201526009602482015268452d3030322d30313560b81b6044820152606401610355565b6007805461ff001916610100179055565b6001600160a01b038516331480611c605750611c608533610815565b611cd25760405162461bcd60e51b815260206004820152602f60248201527f455243313135353a2063616c6c6572206973206e6f7420746f6b656e206f776e60448201527f6572206e6f7220617070726f76656400000000000000000000000000000000006064820152608401610355565b610e1085858585856124cf565b611ce7611d6f565b6001600160a01b038116611d635760405162461bcd60e51b815260206004820152602660248201527f4f776e61626c653a206e6577206f776e657220697320746865207a65726f206160448201527f64647265737300000000000000000000000000000000000000000000000000006064820152608401610355565b611d6c8161203c565b50565b6003546001600160a01b03163314610ff65760405162461bcd60e51b815260206004820181905260248201527f4f776e61626c653a2063616c6c6572206973206e6f7420746865206f776e65726044820152606401610355565b8151835114611e405760405162461bcd60e51b815260206004820152602860248201527f455243313135353a2069647320616e6420616d6f756e7473206c656e6774682060448201527f6d69736d617463680000000000000000000000000000000000000000000000006064820152608401610355565b6001600160a01b038416611ea45760405162461bcd60e51b815260206004820152602560248201527f455243313135353a207472616e7366657220746f20746865207a65726f206164604482015264647265737360d81b6064820152608401610355565b3360005b8451811015611fce576000858281518110611ec557611ec56130c4565b602002602001015190506000858381518110611ee357611ee36130c4565b602090810291909101810151600084815280835260408082206001600160a01b038e168352909352919091205490915081811015611f765760405162461bcd60e51b815260206004820152602a60248201527f455243313135353a20696e73756666696369656e742062616c616e636520666f60448201526939103a3930b739b332b960b11b6064820152608401610355565b6000838152602081815260408083206001600160a01b038e8116855292528083208585039055908b16825281208054849290611fb390849061310e565b9250508190555050505080611fc7906130a9565b9050611ea8565b50846001600160a01b0316866001600160a01b0316826001600160a01b03167f4a39dc06d4c0dbc64b70af90fd698a233a518aa5d07e595d983b8c0526c8f7fb878760405161201e929190613149565b60405180910390a461203481878787878761267a565b505050505050565b600380546001600160a01b0383811673ffffffffffffffffffffffffffffffffffffffff19831681179093556040519116919082907f8be0079c531659141344cd1fd0a4f28419497f9722a3daafe3b4186f6b6457e090600090a35050565b600080826120aa600143613070565b40336040516020016120be93929190613177565b60408051601f19818403018152919052805160209091012083549091506120e590826134d3565b9392505050565b816001600160a01b0316836001600160a01b031614156121745760405162461bcd60e51b815260206004820152602960248201527f455243313135353a2073657474696e6720617070726f76616c2073746174757360448201527f20666f722073656c6600000000000000000000000000000000000000000000006064820152608401610355565b6001600160a01b03838116600081815260016020908152604080832094871680845294825291829020805460ff191686151590811790915591519182527f17307eab39ab6107e8899845ad3d59bd9653f200f220920489ca2b5937696c31910160405180910390a3505050565b6001600160a01b03831661225d5760405162461bcd60e51b815260206004820152602360248201527f455243313135353a206275726e2066726f6d20746865207a65726f206164647260448201527f65737300000000000000000000000000000000000000000000000000000000006064820152608401610355565b33600061226984612820565b9050600061227684612820565b60408051602080820183526000918290528882528181528282206001600160a01b038b16835290522054909150848110156123185760405162461bcd60e51b8152602060048201526024808201527f455243313135353a206275726e20616d6f756e7420657863656564732062616c60448201527f616e6365000000000000000000000000000000000000000000000000000000006064820152608401610355565b6000868152602081815260408083206001600160a01b038b81168086529184528285208a8703905582518b81529384018a90529092908816917fc3d58168c5ae7397731d063d5bbf3d657854427343f4c083240f7aacaa2d0f62910160405180910390a46040805160208101909152600090525b50505050505050565b6001600160a01b0384166124115760405162461bcd60e51b815260206004820152602160248201527f455243313135353a206d696e7420746f20746865207a65726f2061646472657360448201527f73000000000000000000000000000000000000000000000000000000000000006064820152608401610355565b33600061241d85612820565b9050600061242a85612820565b90506000868152602081815260408083206001600160a01b038b1684529091528120805487929061245c90849061310e565b909155505060408051878152602081018790526001600160a01b03808a1692600092918716917fc3d58168c5ae7397731d063d5bbf3d657854427343f4c083240f7aacaa2d0f62910160405180910390a461238c8360008989898961286b565b80516113b4906002906020840190612a10565b6001600160a01b0384166125335760405162461bcd60e51b815260206004820152602560248201527f455243313135353a207472616e7366657220746f20746865207a65726f206164604482015264647265737360d81b6064820152608401610355565b33600061253f85612820565b9050600061254c85612820565b90506000868152602081815260408083206001600160a01b038c168452909152902054858110156125d25760405162461bcd60e51b815260206004820152602a60248201527f455243313135353a20696e73756666696369656e742062616c616e636520666f60448201526939103a3930b739b332b960b11b6064820152608401610355565b6000878152602081815260408083206001600160a01b038d8116855292528083208985039055908a1682528120805488929061260f90849061310e565b909155505060408051888152602081018890526001600160a01b03808b16928c821692918816917fc3d58168c5ae7397731d063d5bbf3d657854427343f4c083240f7aacaa2d0f62910160405180910390a461266f848a8a8a8a8a61286b565b505050505050505050565b6001600160a01b0384163b156120345760405163bc197c8160e01b81526001600160a01b0385169063bc197c81906126be90899089908890889088906004016134f5565b6020604051808303816000875af19250505080156126f9575060408051601f3d908101601f191682019092526126f691810190613553565b60015b6127af57612705613570565b806308c379a0141561273f575061271a61358c565b806127255750612741565b8060405162461bcd60e51b81526004016103559190612b78565b505b60405162461bcd60e51b815260206004820152603460248201527f455243313135353a207472616e7366657220746f206e6f6e204552433131353560448201527f526563656976657220696d706c656d656e7465720000000000000000000000006064820152608401610355565b6001600160e01b0319811663bc197c8160e01b1461238c5760405162461bcd60e51b815260206004820152602860248201527f455243313135353a204552433131353552656365697665722072656a656374656044820152676420746f6b656e7360c01b6064820152608401610355565b6040805160018082528183019092526060916000919060208083019080368337019050509050828160008151811061285a5761285a6130c4565b602090810291909101015292915050565b6001600160a01b0384163b156120345760405163f23a6e6160e01b81526001600160a01b0385169063f23a6e61906128af9089908990889088908890600401613616565b6020604051808303816000875af19250505080156128ea575060408051601f3d908101601f191682019092526128e791810190613553565b60015b6128f657612705613570565b6001600160e01b0319811663f23a6e6160e01b1461238c5760405162461bcd60e51b815260206004820152602860248201527f455243313135353a204552433131353552656365697665722072656a656374656044820152676420746f6b656e7360c01b6064820152608401610355565b8280546129739061301f565b90600052602060002090601f01602090048101928261299557600085556129db565b82601f106129ae5782800160ff198235161785556129db565b828001600101855582156129db579182015b828111156129db5782358255916020019190600101906129c0565b506129e7929150612a84565b5090565b50805460008255600f016010900490600052602060002090810190611d6c9190612a84565b828054612a1c9061301f565b90600052602060002090601f016020900481019282612a3e57600085556129db565b82601f10612a5757805160ff19168380011785556129db565b828001600101855582156129db579182015b828111156129db578251825591602001919060010190612a69565b5b808211156129e75760008155600101612a85565b80356001600160a01b0381168114612ab057600080fd5b919050565b60008060408385031215612ac857600080fd5b612ad183612a99565b946020939093013593505050565b6001600160e01b031981168114611d6c57600080fd5b600060208284031215612b0757600080fd5b81356120e581612adf565b600060208284031215612b2457600080fd5b5035919050565b6000815180845260005b81811015612b5157602081850181015186830182015201612b35565b81811115612b63576000602083870101525b50601f01601f19169290920160200192915050565b6020815260006120e56020830184612b2b565b600060208284031215612b9d57600080fd5b6120e582612a99565b634e487b7160e01b600052604160045260246000fd5b601f8201601f1916810167ffffffffffffffff81118282101715612be257612be2612ba6565b6040525050565b600067ffffffffffffffff821115612c0357612c03612ba6565b5060051b60200190565b600082601f830112612c1e57600080fd5b81356020612c2b82612be9565b604051612c388282612bbc565b83815260059390931b8501820192828101915086841115612c5857600080fd5b8286015b84811015612c735780358352918301918301612c5c565b509695505050505050565b600082601f830112612c8f57600080fd5b813567ffffffffffffffff811115612ca957612ca9612ba6565b604051612cc0601f8301601f191660200182612bbc565b818152846020838601011115612cd557600080fd5b816020850160208301376000918101602001919091529392505050565b600080600080600060a08688031215612d0a57600080fd5b612d1386612a99565b9450612d2160208701612a99565b9350604086013567ffffffffffffffff80821115612d3e57600080fd5b612d4a89838a01612c0d565b94506060880135915080821115612d6057600080fd5b612d6c89838a01612c0d565b93506080880135915080821115612d8257600080fd5b50612d8f88828901612c7e565b9150509295509295909350565b60008060408385031215612daf57600080fd5b823567ffffffffffffffff80821115612dc757600080fd5b818501915085601f830112612ddb57600080fd5b81356020612de882612be9565b604051612df58282612bbc565b83815260059390931b8501820192828101915089841115612e1557600080fd5b948201945b83861015612e3a57612e2b86612a99565b82529482019490820190612e1a565b96505086013592505080821115612e5057600080fd5b50612e5d85828601612c0d565b9150509250929050565b600081518084526020808501945080840160005b83811015612e9757815187529582019590820190600101612e7b565b509495945050505050565b6020815260006120e56020830184612e67565b600060208284031215612ec757600080fd5b813561ffff811681146120e557600080fd5b60008060208385031215612eec57600080fd5b823567ffffffffffffffff80821115612f0457600080fd5b818501915085601f830112612f1857600080fd5b813581811115612f2757600080fd5b866020828501011115612f3957600080fd5b60209290920196919550909350505050565b60008060408385031215612f5e57600080fd5b612f6783612a99565b915060208301358015158114612f7c57600080fd5b809150509250929050565b60008060408385031215612f9a57600080fd5b612fa383612a99565b9150612fb160208401612a99565b90509250929050565b600080600080600060a08688031215612fd257600080fd5b612fdb86612a99565b9450612fe960208701612a99565b93506040860135925060608601359150608086013567ffffffffffffffff81111561301357600080fd5b612d8f88828901612c7e565b600181811c9082168061303357607f821691505b6020821081141561305457634e487b7160e01b600052602260045260246000fd5b50919050565b634e487b7160e01b600052601160045260246000fd5b6000828210156130825761308261305a565b500390565b600061ffff8083168181141561309f5761309f61305a565b6001019392505050565b60006000198214156130bd576130bd61305a565b5060010190565b634e487b7160e01b600052603260045260246000fd5b600061ffff8216806130ee576130ee61305a565b6000190192915050565b634e487b7160e01b600052603160045260246000fd5b600082198211156131215761312161305a565b500190565b600061ffff838116908316818110156131415761314161305a565b039392505050565b60408152600061315c6040830185612e67565b828103602084015261316e8185612e67565b95945050505050565b83546000858152602081209091839160005b82600f820110156132da57815461ffff808216865260206131b4818801838560101c1661ffff169052565b60406131c98189018486851c1661ffff169052565b606091506131e1828901848660301c1661ffff169052565b60806131f6818a018587851c1661ffff169052565b60a0915061320e828a01858760501c1661ffff169052565b60c0613223818b018688871c1661ffff169052565b60e0935061323b848b01868860701c1661ffff169052565b61ffff86831c8616166101008b01526132606101208b01868860901c1661ffff169052565b61ffff86841c8616166101408b01526132856101608b01868860b01c1661ffff169052565b61ffff86821c8616166101808b01525050506132ad6101a08801838560d01c1661ffff169052565b82901c1661ffff166101c086015260f01c6101e08501526102009093019260019190910190601001613189565b905490828110156132f65761ffff821684526020909301926001015b828110156133135761ffff601083901c1684526020909301926001015b8281101561333157602082901c61ffff168452602093909301926001015b8281101561334e5761ffff603083901c1684526020909301926001015b8281101561336b5761ffff604083901c1684526020909301926001015b828110156133885761ffff605083901c1684526020909301926001015b828110156133a55761ffff606083901c1684526020909301926001015b828110156133c25761ffff607083901c1684526020909301926001015b828110156133df5761ffff608083901c1684526020909301926001015b828110156133fc5761ffff609083901c1684526020909301926001015b828110156134195761ffff60a083901c1684526020909301926001015b828110156134365761ffff60b083901c1684526020909301926001015b828110156134535761ffff60c083901c1684526020909301926001015b828110156134705761ffff60d083901c1684526020909301926001015b8281101561348d5761ffff60e083901c1684526020909301926001015b828110156134a35760f082901c84526020840193505b5050508481526134c7602082018560601b6bffffffffffffffffffffffff19169052565b60340195945050505050565b6000826134f057634e487b7160e01b600052601260045260246000fd5b500690565b60006001600160a01b03808816835280871660208401525060a0604083015261352160a0830186612e67565b82810360608401526135338186612e67565b905082810360808401526135478185612b2b565b98975050505050505050565b60006020828403121561356557600080fd5b81516120e581612adf565b600060033d11156135895760046000803e5060005160e01c5b90565b600060443d101561359a5790565b6040516003193d81016004833e81513d67ffffffffffffffff81602484011181841117156135ca57505050505090565b82850191508151818111156135e25750505050505090565b843d87010160208285010111156135fc5750505050505090565b61360b60208286010187612bbc565b509095945050505050565b60006001600160a01b03808816835280871660208401525084604083015283606083015260a0608083015261364e60a0830184612b2b565b97965050505050505056fea26469706673582212207478a292a4135d07973459100002edd55f5ad1211843610f8c85f19e7e4286ce64736f6c634300080a0033036b6384b5eca791c62761152d0c79bb0604c104a5fb6f4eb0703f3154bb3db068747470733a2f2f6170692e636f696e6c616e6465722e6f6e652f6d6574612f7661756c7468747470733a2f2f6170692e636f696e6c616e6465722e6f6e652f6d6574612f7661756c742f7b69647d",
  "linkReferences": {},
  "deployedLinkReferences": {}
}