{
  "_format": "hh-sol-artifact-1",
  "contractName": "Vault",
  "sourceName": "contracts/Vault.sol",
  "abi": [
    {
      "inputs": [],
      "stateMutability": "nonpayable",
      "type": "constructor"
    },
    {
      "anonymous": false,
      "inputs": [
        {
          "indexed": true,
          "internalType": "address",
          "name": "account",
          "type": "address"
        },
        {
          "indexed": true,
          "internalType": "address",
          "name": "operator",
          "type": "address"
        },
        {
          "indexed": false,
          "internalType": "bool",
          "name": "approved",
          "type": "bool"
        }
      ],
      "name": "ApprovalForAll",
      "type": "event"
    },
    {
      "anonymous": false,
      "inputs": [
        {
          "indexed": true,
          "internalType": "address",
          "name": "previousOwner",
          "type": "address"
        },
        {
          "indexed": true,
          "internalType": "address",
          "name": "newOwner",
          "type": "address"
        }
      ],
      "name": "OwnershipTransferred",
      "type": "event"
    },
    {
      "anonymous": false,
      "inputs": [
        {
          "indexed": true,
          "internalType": "address",
          "name": "operator",
          "type": "address"
        },
        {
          "indexed": true,
          "internalType": "address",
          "name": "from",
          "type": "address"
        },
        {
          "indexed": true,
          "internalType": "address",
          "name": "to",
          "type": "address"
        },
        {
          "indexed": false,
          "internalType": "uint256[]",
          "name": "ids",
          "type": "uint256[]"
        },
        {
          "indexed": false,
          "internalType": "uint256[]",
          "name": "values",
          "type": "uint256[]"
        }
      ],
      "name": "TransferBatch",
      "type": "event"
    },
    {
      "anonymous": false,
      "inputs": [
        {
          "indexed": true,
          "internalType": "address",
          "name": "operator",
          "type": "address"
        },
        {
          "indexed": true,
          "internalType": "address",
          "name": "from",
          "type": "address"
        },
        {
          "indexed": true,
          "internalType": "address",
          "name": "to",
          "type": "address"
        },
        {
          "indexed": false,
          "internalType": "uint256",
          "name": "id",
          "type": "uint256"
        },
        {
          "indexed": false,
          "internalType": "uint256",
          "name": "value",
          "type": "uint256"
        }
      ],
      "name": "TransferSingle",
      "type": "event"
    },
    {
      "anonymous": false,
      "inputs": [
        {
          "indexed": false,
          "internalType": "string",
          "name": "value",
          "type": "string"
        },
        {
          "indexed": true,
          "internalType": "uint256",
          "name": "id",
          "type": "uint256"
        }
      ],
      "name": "URI",
      "type": "event"
    },
    {
      "anonymous": false,
      "inputs": [
        {
          "indexed": false,
          "internalType": "address",
          "name": "winner",
          "type": "address"
        }
      ],
      "name": "VaultUnlocked",
      "type": "event"
    },
    {
      "inputs": [],
      "name": "FRAGMENT1",
      "outputs": [
        {
          "internalType": "uint256",
          "name": "",
          "type": "uint256"
        }
      ],
      "stateMutability": "view",
      "type": "function"
    },
    {
      "inputs": [],
      "name": "FRAGMENT2",
      "outputs": [
        {
          "internalType": "uint256",
          "name": "",
          "type": "uint256"
        }
      ],
      "stateMutability": "view",
      "type": "function"
    },
    {
      "inputs": [],
      "name": "FRAGMENT3",
      "outputs": [
        {
          "internalType": "uint256",
          "name": "",
          "type": "uint256"
        }
      ],
      "stateMutability": "view",
      "type": "function"
    },
    {
      "inputs": [],
      "name": "FRAGMENT4",
      "outputs": [
        {
          "internalType": "uint256",
          "name": "",
          "type": "uint256"
        }
      ],
      "stateMutability": "view",
      "type": "function"
    },
    {
      "inputs": [],
      "name": "FRAGMENT5",
      "outputs": [
        {
          "internalType": "uint256",
          "name": "",
          "type": "uint256"
        }
      ],
      "stateMutability": "view",
      "type": "function"
    },
    {
      "inputs": [],
      "name": "FRAGMENT6",
      "outputs": [
        {
          "internalType": "uint256",
          "name": "",
          "type": "uint256"
        }
      ],
      "stateMutability": "view",
      "type": "function"
    },
    {
      "inputs": [],
      "name": "FRAGMENT7",
      "outputs": [
        {
          "internalType": "uint256",
          "name": "",
          "type": "uint256"
        }
      ],
      "stateMutability": "view",
      "type": "function"
    },
    {
      "inputs": [],
      "name": "FRAGMENT8",
      "outputs": [
        {
          "internalType": "uint256",
          "name": "",
          "type": "uint256"
        }
      ],
      "stateMutability": "view",
      "type": "function"
    },
    {
      "inputs": [],
      "name": "KEY",
      "outputs": [
        {
          "internalType": "uint256",
          "name": "",
          "type": "uint256"
        }
      ],
      "stateMutability": "view",
      "type": "function"
    },
    {
      "inputs": [],
      "name": "MAXFRAGMENTS",
      "outputs": [
        {
          "internalType": "uint16",
          "name": "",
          "type": "uint16"
        }
      ],
      "stateMutability": "view",
      "type": "function"
    },
    {
      "inputs": [
        {
          "internalType": "address",
          "name": "account",
          "type": "address"
        },
        {
          "internalType": "uint256",
          "name": "id",
          "type": "uint256"
        }
      ],
      "name": "balanceOf",
      "outputs": [
        {
          "internalType": "uint256",
          "name": "",
          "type": "uint256"
        }
      ],
      "stateMutability": "view",
      "type": "function"
    },
    {
      "inputs": [
        {
          "internalType": "address[]",
          "name": "accounts",
          "type": "address[]"
        },
        {
          "internalType": "uint256[]",
          "name": "ids",
          "type": "uint256[]"
        }
      ],
      "name": "balanceOfBatch",
      "outputs": [
        {
          "internalType": "uint256[]",
          "name": "",
          "type": "uint256[]"
        }
      ],
      "stateMutability": "view",
      "type": "function"
    },
    {
      "inputs": [
        {
          "internalType": "string",
          "name": "_newURI",
          "type": "string"
        }
      ],
      "name": "changeURI",
      "outputs": [],
      "stateMutability": "nonpayable",
      "type": "function"
    },
    {
      "inputs": [],
      "name": "claimKeepersVault",
      "outputs": [],
      "stateMutability": "nonpayable",
      "type": "function"
    },
    {
      "inputs": [],
      "name": "contractURI",
      "outputs": [
        {
          "internalType": "string",
          "name": "",
          "type": "string"
        }
      ],
      "stateMutability": "view",
      "type": "function"
    },
    {
      "inputs": [],
      "name": "fundPrizePurse",
      "outputs": [],
      "stateMutability": "payable",
      "type": "function"
    },
    {
      "inputs": [],
      "name": "gameContract",
      "outputs": [
        {
          "internalType": "address",
          "name": "",
          "type": "address"
        }
      ],
      "stateMutability": "view",
      "type": "function"
    },
    {
      "inputs": [],
      "name": "gameWon",
      "outputs": [
        {
          "internalType": "bool",
          "name": "",
          "type": "bool"
        }
      ],
      "stateMutability": "view",
      "type": "function"
    },
    {
      "inputs": [
        {
          "internalType": "address",
          "name": "account",
          "type": "address"
        },
        {
          "internalType": "address",
          "name": "operator",
          "type": "address"
        }
      ],
      "name": "isApprovedForAll",
      "outputs": [
        {
          "internalType": "bool",
          "name": "",
          "type": "bool"
        }
      ],
      "stateMutability": "view",
      "type": "function"
    },
    {
      "inputs": [
        {
          "internalType": "address",
          "name": "_receiver",
          "type": "address"
        },
        {
          "internalType": "uint256",
          "name": "amount",
          "type": "uint256"
        }
      ],
      "name": "mintFragments",
      "outputs": [],
      "stateMutability": "nonpayable",
      "type": "function"
    },
    {
      "inputs": [],
      "name": "numT1",
      "outputs": [
        {
          "internalType": "uint16",
          "name": "",
          "type": "uint16"
        }
      ],
      "stateMutability": "view",
      "type": "function"
    },
    {
      "inputs": [],
      "name": "numT2",
      "outputs": [
        {
          "internalType": "uint16",
          "name": "",
          "type": "uint16"
        }
      ],
      "stateMutability": "view",
      "type": "function"
    },
    {
      "inputs": [],
      "name": "numT3",
      "outputs": [
        {
          "internalType": "uint16",
          "name": "",
          "type": "uint16"
        }
      ],
      "stateMutability": "view",
      "type": "function"
    },
    {
      "inputs": [],
      "name": "numT4",
      "outputs": [
        {
          "internalType": "uint16",
          "name": "",
          "type": "uint16"
        }
      ],
      "stateMutability": "view",
      "type": "function"
    },
    {
      "inputs": [],
      "name": "numT5",
      "outputs": [
        {
          "internalType": "uint16",
          "name": "",
          "type": "uint16"
        }
      ],
      "stateMutability": "view",
      "type": "function"
    },
    {
      "inputs": [],
      "name": "numT6",
      "outputs": [
        {
          "internalType": "uint16",
          "name": "",
          "type": "uint16"
        }
      ],
      "stateMutability": "view",
      "type": "function"
    },
    {
      "inputs": [],
      "name": "numT7",
      "outputs": [
        {
          "internalType": "uint16",
          "name": "",
          "type": "uint16"
        }
      ],
      "stateMutability": "view",
      "type": "function"
    },
    {
      "inputs": [],
      "name": "numT8",
      "outputs": [
        {
          "internalType": "uint16",
          "name": "",
          "type": "uint16"
        }
      ],
      "stateMutability": "view",
      "type": "function"
    },
    {
      "inputs": [],
      "name": "owner",
      "outputs": [
        {
          "internalType": "address",
          "name": "",
          "type": "address"
        }
      ],
      "stateMutability": "view",
      "type": "function"
    },
    {
      "inputs": [],
      "name": "prize",
      "outputs": [
        {
          "internalType": "uint256",
          "name": "",
          "type": "uint256"
        }
      ],
      "stateMutability": "view",
      "type": "function"
    },
    {
      "inputs": [],
      "name": "renounceOwnership",
      "outputs": [],
      "stateMutability": "nonpayable",
      "type": "function"
    },
    {
      "inputs": [
        {
          "internalType": "address",
          "name": "from",
          "type": "address"
        },
        {
          "internalType": "address",
          "name": "to",
          "type": "address"
        },
        {
          "internalType": "uint256[]",
          "name": "ids",
          "type": "uint256[]"
        },
        {
          "internalType": "uint256[]",
          "name": "amounts",
          "type": "uint256[]"
        },
        {
          "internalType": "bytes",
          "name": "data",
          "type": "bytes"
        }
      ],
      "name": "safeBatchTransferFrom",
      "outputs": [],
      "stateMutability": "nonpayable",
      "type": "function"
    },
    {
      "inputs": [
        {
          "internalType": "address",
          "name": "from",
          "type": "address"
        },
        {
          "internalType": "address",
          "name": "to",
          "type": "address"
        },
        {
          "internalType": "uint256",
          "name": "id",
          "type": "uint256"
        },
        {
          "internalType": "uint256",
          "name": "amount",
          "type": "uint256"
        },
        {
          "internalType": "bytes",
          "name": "data",
          "type": "bytes"
        }
      ],
      "name": "safeTransferFrom",
      "outputs": [],
      "stateMutability": "nonpayable",
      "type": "function"
    },
    {
      "inputs": [
        {
          "internalType": "address",
          "name": "operator",
          "type": "address"
        },
        {
          "internalType": "bool",
          "name": "approved",
          "type": "bool"
        }
      ],
      "name": "setApprovalForAll",
      "outputs": [],
      "stateMutability": "nonpayable",
      "type": "function"
    },
    {
      "inputs": [
        {
          "internalType": "string",
          "name": "newContractURI",
          "type": "string"
        }
      ],
      "name": "setContractURI",
      "outputs": [],
      "stateMutability": "nonpayable",
      "type": "function"
    },
    {
      "inputs": [
        {
          "internalType": "address",
          "name": "_gameContract",
          "type": "address"
        }
      ],
      "name": "setGameContract",
      "outputs": [],
      "stateMutability": "nonpayable",
      "type": "function"
    },
    {
      "inputs": [],
      "name": "setSweetRelease",
      "outputs": [],
      "stateMutability": "nonpayable",
      "type": "function"
    },
    {
      "inputs": [
        {
          "internalType": "bytes4",
          "name": "interfaceId",
          "type": "bytes4"
        }
      ],
      "name": "supportsInterface",
      "outputs": [
        {
          "internalType": "bool",
          "name": "",
          "type": "bool"
        }
      ],
      "stateMutability": "view",
      "type": "function"
    },
    {
      "inputs": [],
      "name": "sweetRelease",
      "outputs": [
        {
          "internalType": "bool",
          "name": "",
          "type": "bool"
        }
      ],
      "stateMutability": "view",
      "type": "function"
    },
    {
      "inputs": [
        {
          "internalType": "address",
          "name": "newOwner",
          "type": "address"
        }
      ],
      "name": "transferOwnership",
      "outputs": [],
      "stateMutability": "nonpayable",
      "type": "function"
    },
    {
      "inputs": [
        {
          "internalType": "uint256",
          "name": "",
          "type": "uint256"
        }
      ],
      "name": "uri",
      "outputs": [
        {
          "internalType": "string",
          "name": "",
          "type": "string"
        }
      ],
      "stateMutability": "view",
      "type": "function"
    },
    {
      "stateMutability": "payable",
      "type": "receive"
    }
  ],
  "bytecode": "0x60806040526000600655600780546001600160b01b03191690553480156200002657600080fd5b506040518060600160405280602a81526020016200323d602a91396200004c8162000456565b5062000058336200046f565b600160045560005b600361ffff82161015620000c457600580546001810182556000919091526000805160206200321d83398151915260108204018054600f9092166002026101000a61ffff810219909216909117905580620000bb816200057d565b91505062000060565b5060005b600a61ffff821610156200013157600580546001810182556000919091526000805160206200321d8339815191526010820401805461ffff6002600f90941684026101000a9081021990911692029190911790558062000128816200057d565b915050620000c8565b5060005b600a61ffff821610156200019e57600580546001810182556000919091526000805160206200321d8339815191526010820401805461ffff600f9093166002026101000a928302191660039092029190911790558062000195816200057d565b91505062000135565b5060005b603261ffff821610156200020b57600580546001810182556000919091526000805160206200321d8339815191526010820401805461ffff600f9093166002026101000a928302191660049092029190911790558062000202816200057d565b915050620001a2565b5060005b606461ffff8216101562000273576005805460018101825560008290526000805160206200321d8339815191526010820401805461ffff600f9093166002026101000a928302191691909202179055806200026a816200057d565b9150506200020f565b5060005b606f61ffff82161015620002e057600580546001810182556000919091526000805160206200321d8339815191526010820401805461ffff600f9093166002026101000a9283021916600690920291909117905580620002d7816200057d565b91505062000277565b5060005b60de61ffff821610156200034d57600580546001810182556000919091526000805160206200321d8339815191526010820401805461ffff600f9093166002026101000a928302191660079092029190911790558062000344816200057d565b915050620002e4565b5060005b60de606f60646032600a806200036b6003610457620005a2565b620003779190620005a2565b620003839190620005a2565b6200038f9190620005a2565b6200039b9190620005a2565b620003a79190620005a2565b620003b39190620005a2565b61ffff168161ffff1610156200041e57600580546001810182556000919091526000805160206200321d8339815191526010820401805461ffff600f9093166002026101000a928302191660089092029190911790558062000415816200057d565b91505062000351565b50604051806060016040528060258152602001620031f86025913980516200044f91600891602090910190620004c1565b5062000605565b80516200046b906002906020840190620004c1565b5050565b600380546001600160a01b038381166001600160a01b0319831681179093556040519116919082907f8be0079c531659141344cd1fd0a4f28419497f9722a3daafe3b4186f6b6457e090600090a35050565b828054620004cf90620005c8565b90600052602060002090601f016020900481019282620004f357600085556200053e565b82601f106200050e57805160ff19168380011785556200053e565b828001600101855582156200053e579182015b828111156200053e57825182559160200191906001019062000521565b506200054c92915062000550565b5090565b5b808211156200054c576000815560010162000551565b634e487b7160e01b600052601160045260246000fd5b600061ffff8083168181141562000598576200059862000567565b6001019392505050565b600061ffff83811690831681811015620005c057620005c062000567565b039392505050565b600181811c90821680620005dd57607f821691505b60208210811415620005ff57634e487b7160e01b600052602260045260246000fd5b50919050565b612be380620006156000396000f3fe6080604052600436106102495760003560e01c806397b578b111610139578063e04a4ea6116100b6578063edd47abf1161007a578063edd47abf1461067b578063ef3af27514610690578063f242432a146106a5578063f2fde38b146106c5578063f4689936146106e5578063ffd807d2146106fb57600080fd5b8063e04a4ea6146105d2578063e3ac5d26146105e7578063e5e01c11146105fd578063e8a3d4851461061d578063e985e9c51461063257600080fd5b8063b0538dae116100fd578063b0538dae1461054d578063b582aab014610562578063c306219d14610577578063ce16d1661461058c578063d3f33009146105ac57600080fd5b806397b578b1146104ee578063a22cb46514610503578063a6d24b6d1461035e578063ae3c159714610523578063aea876c01461053857600080fd5b80634e1273f4116101c75780638da5cb5b1161018b5780638da5cb5b1461046a5780638dd3503e1461049c5780638f9352ba146104b157806392f393f8146104c6578063938e3d7b146104ce57600080fd5b80634e1273f4146103df578063524a12241461040c5780635445941f146104215780636d00e23314610440578063715018a61461045557600080fd5b80631ceea7961161020e5780631ceea7961461035e5780632dc387b3146103735780632eb2c2d614610388578063405ebd4d146103aa5780634c1299c6146103ca57600080fd5b8062fdd58e1461028c57806301ffc9a7146102bf578063069a825c146102ef5780630e89341c146103095780631a20cef81461033657600080fd5b366102875760405162461bcd60e51b8152602060048201526009602482015268114b4c0c0c8b4c0c4d60ba1b60448201526064015b60405180910390fd5b600080fd5b34801561029857600080fd5b506102ac6102a7366004611f39565b610710565b6040519081526020015b60405180910390f35b3480156102cb57600080fd5b506102df6102da366004611f79565b6107a2565b60405190151581526020016102b6565b3480156102fb57600080fd5b506007546102df9060ff1681565b34801561031557600080fd5b50610329610324366004611f96565b6107f4565b6040516102b69190611ffc565b34801561034257600080fd5b5061034b600381565b60405161ffff90911681526020016102b6565b34801561036a57600080fd5b5061034b600a81565b34801561037f57600080fd5b506102ac600081565b34801561039457600080fd5b506103a86103a336600461215b565b610888565b005b3480156103b657600080fd5b506103a86103c5366004612205565b61091f565b3480156103d657600080fd5b5061034b603281565b3480156103eb57600080fd5b506103ff6103fa366004612220565b610973565b6040516102b69190612326565b34801561041857600080fd5b506102ac600281565b34801561042d57600080fd5b506007546102df90610100900460ff1681565b34801561044c57600080fd5b506102ac600781565b34801561046157600080fd5b506103a8610a9d565b34801561047657600080fd5b506003546001600160a01b03165b6040516001600160a01b0390911681526020016102b6565b3480156104a857600080fd5b506102ac600381565b3480156104bd57600080fd5b506102ac600581565b6103a8610ad3565b3480156104da57600080fd5b506103a86104e9366004612339565b610aec565b3480156104fa57600080fd5b5061034b60de81565b34801561050f57600080fd5b506103a861051e3660046123ab565b610b27565b34801561052f57600080fd5b506103a8610bfe565b34801561054457600080fd5b5061034b606481565b34801561055957600080fd5b506102ac600881565b34801561056e57600080fd5b5061034b6110ad565b34801561058357600080fd5b506102ac600681565b34801561059857600080fd5b506103a86105a7366004611f39565b611104565b3480156105b857600080fd5b50600754610484906201000090046001600160a01b031681565b3480156105de57600080fd5b506102ac600481565b3480156105f357600080fd5b506102ac60065481565b34801561060957600080fd5b506103a8610618366004612339565b6111e2565b34801561062957600080fd5b5061032961124f565b34801561063e57600080fd5b506102df61064d3660046123e7565b6001600160a01b03918216600090815260016020908152604080832093909416825291909152205460ff1690565b34801561068757600080fd5b506103a86112e1565b34801561069c57600080fd5b506102ac600181565b3480156106b157600080fd5b506103a86106c036600461241a565b61133e565b3480156106d157600080fd5b506103a86106e0366004612205565b6113c5565b3480156106f157600080fd5b5061034b61045781565b34801561070757600080fd5b5061034b606f81565b60006001600160a01b03831661077c5760405162461bcd60e51b815260206004820152602b60248201527f455243313135353a2062616c616e636520717565727920666f7220746865207a60448201526a65726f206164647265737360a81b606482015260840161027e565b506000908152602081815260408083206001600160a01b03949094168352929052205490565b60006001600160e01b03198216636cdb3d1360e11b14806107d357506001600160e01b031982166303a24d0760e21b145b806107ee57506301ffc9a760e01b6001600160e01b03198316145b92915050565b6060600280546108039061247f565b80601f016020809104026020016040519081016040528092919081815260200182805461082f9061247f565b801561087c5780601f106108515761010080835404028352916020019161087c565b820191906000526020600020905b81548152906001019060200180831161085f57829003601f168201915b50505050509050919050565b6001600160a01b0385163314806108a457506108a4853361064d565b61090b5760405162461bcd60e51b815260206004820152603260248201527f455243313135353a207472616e736665722063616c6c6572206973206e6f74206044820152711bdddb995c881b9bdc88185c1c1c9bdd995960721b606482015260840161027e565b6109188585858585611460565b5050505050565b6003546001600160a01b031633146109495760405162461bcd60e51b815260040161027e906124ba565b600780546001600160a01b03909216620100000262010000600160b01b0319909216919091179055565b606081518351146109d85760405162461bcd60e51b815260206004820152602960248201527f455243313135353a206163636f756e747320616e6420696473206c656e677468604482015268040dad2e6dac2e8c6d60bb1b606482015260840161027e565b6000835167ffffffffffffffff8111156109f4576109f461200f565b604051908082528060200260200182016040528015610a1d578160200160208202803683370190505b50905060005b8451811015610a9557610a68858281518110610a4157610a416124ef565b6020026020010151858381518110610a5b57610a5b6124ef565b6020026020010151610710565b828281518110610a7a57610a7a6124ef565b6020908102919091010152610a8e8161251b565b9050610a23565b509392505050565b6003546001600160a01b03163314610ac75760405162461bcd60e51b815260040161027e906124ba565b610ad1600061163d565b565b3460066000828254610ae59190612536565b9091555050565b6003546001600160a01b03163314610b165760405162461bcd60e51b815260040161027e906124ba565b610b2260088383611e10565b505050565b336001600160a01b0383161415610b925760405162461bcd60e51b815260206004820152602960248201527f455243313135353a2073657474696e6720617070726f76616c20737461747573604482015268103337b91039b2b63360b91b606482015260840161027e565b3360008181526001602090815260408083206001600160a01b03871680855290835292819020805460ff191686151590811790915590519081529192917f17307eab39ab6107e8899845ad3d59bd9653f200f220920489ca2b5937696c31910160405180910390a35050565b60026004541415610c515760405162461bcd60e51b815260206004820152601f60248201527f5265656e7472616e637947756172643a207265656e7472616e742063616c6c00604482015260640161027e565b6002600455600754610100900460ff16610c995760405162461bcd60e51b81526020600482015260096024820152680452d3030322d3031360bc1b604482015260640161027e565b60075460ff1615610cd85760405162461bcd60e51b8152602060048201526009602482015268452d3030322d30313160b81b604482015260640161027e565b600060065411610d165760405162461bcd60e51b815260206004820152600960248201526822969818191698189960b91b604482015260640161027e565b6000610d23336001610710565b11610d5c5760405162461bcd60e51b8152602060048201526009602482015268452d3030322d30303160b81b604482015260640161027e565b6000610d69336002610710565b11610da25760405162461bcd60e51b815260206004820152600960248201526822969818191698181960b91b604482015260640161027e565b6000610daf336003610710565b11610de85760405162461bcd60e51b8152602060048201526009602482015268452d3030322d30303360b81b604482015260640161027e565b6000610df5336004610710565b11610e2e5760405162461bcd60e51b8152602060048201526009602482015268114b4c0c0c8b4c0c0d60ba1b604482015260640161027e565b6000610e3b336005610710565b11610e745760405162461bcd60e51b8152602060048201526009602482015268452d3030322d30303560b81b604482015260640161027e565b6000610e81336006610710565b11610eba5760405162461bcd60e51b815260206004820152600960248201526822969818191698181b60b91b604482015260640161027e565b6000610ec7336007610710565b11610f005760405162461bcd60e51b8152602060048201526009602482015268452d3030322d30303760b81b604482015260640161027e565b6000610f0d336008610710565b11610f465760405162461bcd60e51b815260206004820152600960248201526808a5a6060645a6060760bb1b604482015260640161027e565b610f523360018061168f565b610f5f336002600161168f565b610f6c336003600161168f565b610f79336004600161168f565b610f86336005600161168f565b610f93336006600161168f565b610fa0336007600161168f565b610fad336008600161168f565b610fd633600060016040518060400160405280600381526020016203078360ec1b815250611809565b6040513381527fb90f637c9ae38effeea06ad34c58331954898f0d0d4109d30b95e0426b291ff79060200160405180910390a16007805460ff1916600117905560068054600091829055604051909190339083908381818185875af1925050503d8060008114611062576040519150601f19603f3d011682016040523d82523d6000602084013e611067565b606091505b50509050806110a45760405162461bcd60e51b8152602060048201526009602482015268114b4c0c0c8b4c0c4d60ba1b604482015260640161027e565b50506001600455565b60de606f60646032600a806110c5600361045761254e565b6110cf919061254e565b6110d9919061254e565b6110e3919061254e565b6110ed919061254e565b6110f7919061254e565b611101919061254e565b81565b6007546201000090046001600160a01b031633146111505760405162461bcd60e51b8152602060048201526009602482015268452d3030322d30313560b81b604482015260640161027e565b60055481111561118e5760405162461bcd60e51b8152602060048201526009602482015268452d3030322d30303960b81b604482015260640161027e565b60005b81811015610b225760006111a56005611913565b90506111cf848260016040518060400160405280600381526020016203078360ec1b815250611809565b50806111da8161251b565b915050611191565b6003546001600160a01b0316331461120c5760405162461bcd60e51b815260040161027e906124ba565b61124b82828080601f016020809104026020016040519081016040528093929190818152602001838380828437600092019190915250611a2992505050565b5050565b60606008805461125e9061247f565b80601f016020809104026020016040519081016040528092919081815260200182805461128a9061247f565b80156112d75780601f106112ac576101008083540402835291602001916112d7565b820191906000526020600020905b8154815290600101906020018083116112ba57829003601f168201915b5050505050905090565b6007546201000090046001600160a01b0316331461132d5760405162461bcd60e51b8152602060048201526009602482015268452d3030322d30313560b81b604482015260640161027e565b6007805461ff001916610100179055565b6001600160a01b03851633148061135a575061135a853361064d565b6113b85760405162461bcd60e51b815260206004820152602960248201527f455243313135353a2063616c6c6572206973206e6f74206f776e6572206e6f7260448201526808185c1c1c9bdd995960ba1b606482015260840161027e565b6109188585858585611a3c565b6003546001600160a01b031633146113ef5760405162461bcd60e51b815260040161027e906124ba565b6001600160a01b0381166114545760405162461bcd60e51b815260206004820152602660248201527f4f776e61626c653a206e6577206f776e657220697320746865207a65726f206160448201526564647265737360d01b606482015260840161027e565b61145d8161163d565b50565b81518351146114c25760405162461bcd60e51b815260206004820152602860248201527f455243313135353a2069647320616e6420616d6f756e7473206c656e677468206044820152670dad2e6dac2e8c6d60c31b606482015260840161027e565b6001600160a01b0384166114e85760405162461bcd60e51b815260040161027e90612571565b3360005b84518110156115cf576000858281518110611509576115096124ef565b602002602001015190506000858381518110611527576115276124ef565b602090810291909101810151600084815280835260408082206001600160a01b038e1683529093529190912054909150818110156115775760405162461bcd60e51b815260040161027e906125b6565b6000838152602081815260408083206001600160a01b038e8116855292528083208585039055908b168252812080548492906115b4908490612536565b92505081905550505050806115c89061251b565b90506114ec565b50846001600160a01b0316866001600160a01b0316826001600160a01b03167f4a39dc06d4c0dbc64b70af90fd698a233a518aa5d07e595d983b8c0526c8f7fb878760405161161f929190612600565b60405180910390a4611635818787878787611b59565b505050505050565b600380546001600160a01b038381166001600160a01b0319831681179093556040519116919082907f8be0079c531659141344cd1fd0a4f28419497f9722a3daafe3b4186f6b6457e090600090a35050565b6001600160a01b0383166116f15760405162461bcd60e51b815260206004820152602360248201527f455243313135353a206275726e2066726f6d20746865207a65726f206164647260448201526265737360e81b606482015260840161027e565b336117218185600061170287611cb5565b61170b87611cb5565b5050604080516020810190915260009052505050565b6000838152602081815260408083206001600160a01b03881684529091529020548281101561179e5760405162461bcd60e51b8152602060048201526024808201527f455243313135353a206275726e20616d6f756e7420657863656564732062616c604482015263616e636560e01b606482015260840161027e565b6000848152602081815260408083206001600160a01b03898116808652918452828520888703905582518981529384018890529092908616917fc3d58168c5ae7397731d063d5bbf3d657854427343f4c083240f7aacaa2d0f62910160405180910390a45050505050565b6001600160a01b0384166118695760405162461bcd60e51b815260206004820152602160248201527f455243313135353a206d696e7420746f20746865207a65726f206164647265736044820152607360f81b606482015260840161027e565b336118838160008761187a88611cb5565b61091888611cb5565b6000848152602081815260408083206001600160a01b0389168452909152812080548592906118b3908490612536565b909155505060408051858152602081018590526001600160a01b0380881692600092918516917fc3d58168c5ae7397731d063d5bbf3d657854427343f4c083240f7aacaa2d0f62910160405180910390a461091881600087878787611d00565b60008061191f83611dbb565b90506000838281548110611935576119356124ef565b90600052602060002090601091828204019190066002029054906101000a900461ffff1661ffff1690508360018580549050611971919061262e565b81548110611981576119816124ef565b90600052602060002090601091828204019190066002029054906101000a900461ffff168483815481106119b7576119b76124ef565b90600052602060002090601091828204019190066002026101000a81548161ffff021916908361ffff160217905550838054806119f6576119f6612645565b600082815260209020601060001990920191820401805461ffff6002600f8516026101000a021916905590559392505050565b805161124b906002906020840190611e94565b6001600160a01b038416611a625760405162461bcd60e51b815260040161027e90612571565b33611a7281878761187a88611cb5565b6000848152602081815260408083206001600160a01b038a16845290915290205483811015611ab35760405162461bcd60e51b815260040161027e906125b6565b6000858152602081815260408083206001600160a01b038b8116855292528083208785039055908816825281208054869290611af0908490612536565b909155505060408051868152602081018690526001600160a01b03808916928a821692918616917fc3d58168c5ae7397731d063d5bbf3d657854427343f4c083240f7aacaa2d0f62910160405180910390a4611b50828888888888611d00565b50505050505050565b6001600160a01b0384163b156116355760405163bc197c8160e01b81526001600160a01b0385169063bc197c8190611b9d908990899088908890889060040161265b565b6020604051808303816000875af1925050508015611bd8575060408051601f3d908101601f19168201909252611bd5918101906126b9565b60015b611c8557611be46126d6565b806308c379a01415611c1e5750611bf96126f2565b80611c045750611c20565b8060405162461bcd60e51b815260040161027e9190611ffc565b505b60405162461bcd60e51b815260206004820152603460248201527f455243313135353a207472616e7366657220746f206e6f6e20455243313135356044820152732932b1b2b4bb32b91034b6b83632b6b2b73a32b960611b606482015260840161027e565b6001600160e01b0319811663bc197c8160e01b14611b505760405162461bcd60e51b815260040161027e9061277c565b60408051600180825281830190925260609160009190602080830190803683370190505090508281600081518110611cef57611cef6124ef565b602090810291909101015292915050565b6001600160a01b0384163b156116355760405163f23a6e6160e01b81526001600160a01b0385169063f23a6e6190611d4490899089908890889088906004016127c4565b6020604051808303816000875af1925050508015611d7f575060408051601f3d908101601f19168201909252611d7c918101906126b9565b60015b611d8b57611be46126d6565b6001600160e01b0319811663f23a6e6160e01b14611b505760405162461bcd60e51b815260040161027e9061277c565b60008082611dca60014361262e565b40414433604051602001611de2959493929190612809565b60408051601f1981840301815291905280516020909101208354909150611e099082612b8b565b9392505050565b828054611e1c9061247f565b90600052602060002090601f016020900481019282611e3e5760008555611e84565b82601f10611e575782800160ff19823516178555611e84565b82800160010185558215611e84579182015b82811115611e84578235825591602001919060010190611e69565b50611e90929150611f08565b5090565b828054611ea09061247f565b90600052602060002090601f016020900481019282611ec25760008555611e84565b82601f10611edb57805160ff1916838001178555611e84565b82800160010185558215611e84579182015b82811115611e84578251825591602001919060010190611eed565b5b80821115611e905760008155600101611f09565b80356001600160a01b0381168114611f3457600080fd5b919050565b60008060408385031215611f4c57600080fd5b611f5583611f1d565b946020939093013593505050565b6001600160e01b03198116811461145d57600080fd5b600060208284031215611f8b57600080fd5b8135611e0981611f63565b600060208284031215611fa857600080fd5b5035919050565b6000815180845260005b81811015611fd557602081850181015186830182015201611fb9565b81811115611fe7576000602083870101525b50601f01601f19169290920160200192915050565b602081526000611e096020830184611faf565b634e487b7160e01b600052604160045260246000fd5b601f8201601f1916810167ffffffffffffffff8111828210171561204b5761204b61200f565b6040525050565b600067ffffffffffffffff82111561206c5761206c61200f565b5060051b60200190565b600082601f83011261208757600080fd5b8135602061209482612052565b6040516120a18282612025565b83815260059390931b85018201928281019150868411156120c157600080fd5b8286015b848110156120dc57803583529183019183016120c5565b509695505050505050565b600082601f8301126120f857600080fd5b813567ffffffffffffffff8111156121125761211261200f565b604051612129601f8301601f191660200182612025565b81815284602083860101111561213e57600080fd5b816020850160208301376000918101602001919091529392505050565b600080600080600060a0868803121561217357600080fd5b61217c86611f1d565b945061218a60208701611f1d565b9350604086013567ffffffffffffffff808211156121a757600080fd5b6121b389838a01612076565b945060608801359150808211156121c957600080fd5b6121d589838a01612076565b935060808801359150808211156121eb57600080fd5b506121f8888289016120e7565b9150509295509295909350565b60006020828403121561221757600080fd5b611e0982611f1d565b6000806040838503121561223357600080fd5b823567ffffffffffffffff8082111561224b57600080fd5b818501915085601f83011261225f57600080fd5b8135602061226c82612052565b6040516122798282612025565b83815260059390931b850182019282810191508984111561229957600080fd5b948201945b838610156122be576122af86611f1d565b8252948201949082019061229e565b965050860135925050808211156122d457600080fd5b506122e185828601612076565b9150509250929050565b600081518084526020808501945080840160005b8381101561231b578151875295820195908201906001016122ff565b509495945050505050565b602081526000611e0960208301846122eb565b6000806020838503121561234c57600080fd5b823567ffffffffffffffff8082111561236457600080fd5b818501915085601f83011261237857600080fd5b81358181111561238757600080fd5b86602082850101111561239957600080fd5b60209290920196919550909350505050565b600080604083850312156123be57600080fd5b6123c783611f1d565b9150602083013580151581146123dc57600080fd5b809150509250929050565b600080604083850312156123fa57600080fd5b61240383611f1d565b915061241160208401611f1d565b90509250929050565b600080600080600060a0868803121561243257600080fd5b61243b86611f1d565b945061244960208701611f1d565b93506040860135925060608601359150608086013567ffffffffffffffff81111561247357600080fd5b6121f8888289016120e7565b600181811c9082168061249357607f821691505b602082108114156124b457634e487b7160e01b600052602260045260246000fd5b50919050565b6020808252818101527f4f776e61626c653a2063616c6c6572206973206e6f7420746865206f776e6572604082015260600190565b634e487b7160e01b600052603260045260246000fd5b634e487b7160e01b600052601160045260246000fd5b600060001982141561252f5761252f612505565b5060010190565b6000821982111561254957612549612505565b500190565b600061ffff8381169083168181101561256957612569612505565b039392505050565b60208082526025908201527f455243313135353a207472616e7366657220746f20746865207a65726f206164604082015264647265737360d81b606082015260800190565b6020808252602a908201527f455243313135353a20696e73756666696369656e742062616c616e636520666f60408201526939103a3930b739b332b960b11b606082015260800190565b60408152600061261360408301856122eb565b828103602084015261262581856122eb565b95945050505050565b60008282101561264057612640612505565b500390565b634e487b7160e01b600052603160045260246000fd5b6001600160a01b0386811682528516602082015260a060408201819052600090612687908301866122eb565b828103606084015261269981866122eb565b905082810360808401526126ad8185611faf565b98975050505050505050565b6000602082840312156126cb57600080fd5b8151611e0981611f63565b600060033d11156126ef5760046000803e5060005160e01c5b90565b600060443d10156127005790565b6040516003193d81016004833e81513d67ffffffffffffffff816024840111818411171561273057505050505090565b82850191508151818111156127485750505050505090565b843d87010160208285010111156127625750505050505090565b61277160208286010187612025565b509095945050505050565b60208082526028908201527f455243313135353a204552433131353552656365697665722072656a656374656040820152676420746f6b656e7360c01b606082015260800190565b6001600160a01b03868116825285166020820152604081018490526060810183905260a0608082018190526000906127fe90830184611faf565b979650505050505050565b85546000878152602081209091839160005b82600f8201101561296c57815461ffff80821686526020612846818801838560101c1661ffff169052565b604061285b8189018486851c1661ffff169052565b60609150612873828901848660301c1661ffff169052565b6080612888818a018587851c1661ffff169052565b60a091506128a0828a01858760501c1661ffff169052565b60c06128b5818b018688871c1661ffff169052565b60e093506128cd848b01868860701c1661ffff169052565b61ffff86831c8616166101008b01526128f26101208b01868860901c1661ffff169052565b61ffff86841c8616166101408b01526129176101608b01868860b01c1661ffff169052565b61ffff86821c8616166101808b015250505061293f6101a08801838560d01c1661ffff169052565b82901c1661ffff166101c086015260f01c6101e0850152610200909301926001919091019060100161281b565b905490828110156129885761ffff821684526020909301926001015b828110156129a55761ffff601083901c1684526020909301926001015b828110156129c357602082901c61ffff168452602093909301926001015b828110156129e05761ffff603083901c1684526020909301926001015b828110156129fd5761ffff604083901c1684526020909301926001015b82811015612a1a5761ffff605083901c1684526020909301926001015b82811015612a375761ffff606083901c1684526020909301926001015b82811015612a545761ffff607083901c1684526020909301926001015b82811015612a715761ffff608083901c1684526020909301926001015b82811015612a8e5761ffff609083901c1684526020909301926001015b82811015612aab5761ffff60a083901c1684526020909301926001015b82811015612ac85761ffff60b083901c1684526020909301926001015b82811015612ae55761ffff60c083901c1684526020909301926001015b82811015612b025761ffff60d083901c1684526020909301926001015b82811015612b1f5761ffff60e083901c1684526020909301926001015b82811015612b355760f082901c84526020840193505b505050868152612b59602082018760601b6bffffffffffffffffffffffff19169052565b846034820152612b7d605482018560601b6bffffffffffffffffffffffff19169052565b606801979650505050505050565b600082612ba857634e487b7160e01b600052601260045260246000fd5b50069056fea26469706673582212201c00e7f7b879af0132c37675ccfe7cdfaed10b4e13f0b0b9c04029287c04efaa64736f6c634300080a003368747470733a2f2f6170692e636f696e6c616e6465722e6465762f6d6574612f7661756c74036b6384b5eca791c62761152d0c79bb0604c104a5fb6f4eb0703f3154bb3db068747470733a2f2f6170692e636f696e6c616e6465722e6465762f6d6574612f76616c75742f7b69647d",
  "linkReferences": {},
  "deployedLinkReferences": {}
}