{
  "_format": "hh-sol-artifact-1",
  "contractName": "Vault",
  "sourceName": "contracts/Vault.sol",
  "abi": [
    {
      "inputs": [],
      "stateMutability": "nonpayable",
      "type": "constructor"
    },
    {
      "anonymous": false,
      "inputs": [
        {
          "indexed": true,
          "internalType": "address",
          "name": "account",
          "type": "address"
        },
        {
          "indexed": true,
          "internalType": "address",
          "name": "operator",
          "type": "address"
        },
        {
          "indexed": false,
          "internalType": "bool",
          "name": "approved",
          "type": "bool"
        }
      ],
      "name": "ApprovalForAll",
      "type": "event"
    },
    {
      "anonymous": false,
      "inputs": [
        {
          "indexed": true,
          "internalType": "address",
          "name": "previousOwner",
          "type": "address"
        },
        {
          "indexed": true,
          "internalType": "address",
          "name": "newOwner",
          "type": "address"
        }
      ],
      "name": "OwnershipTransferred",
      "type": "event"
    },
    {
      "anonymous": false,
      "inputs": [
        {
          "indexed": true,
          "internalType": "address",
          "name": "operator",
          "type": "address"
        },
        {
          "indexed": true,
          "internalType": "address",
          "name": "from",
          "type": "address"
        },
        {
          "indexed": true,
          "internalType": "address",
          "name": "to",
          "type": "address"
        },
        {
          "indexed": false,
          "internalType": "uint256[]",
          "name": "ids",
          "type": "uint256[]"
        },
        {
          "indexed": false,
          "internalType": "uint256[]",
          "name": "values",
          "type": "uint256[]"
        }
      ],
      "name": "TransferBatch",
      "type": "event"
    },
    {
      "anonymous": false,
      "inputs": [
        {
          "indexed": true,
          "internalType": "address",
          "name": "operator",
          "type": "address"
        },
        {
          "indexed": true,
          "internalType": "address",
          "name": "from",
          "type": "address"
        },
        {
          "indexed": true,
          "internalType": "address",
          "name": "to",
          "type": "address"
        },
        {
          "indexed": false,
          "internalType": "uint256",
          "name": "id",
          "type": "uint256"
        },
        {
          "indexed": false,
          "internalType": "uint256",
          "name": "value",
          "type": "uint256"
        }
      ],
      "name": "TransferSingle",
      "type": "event"
    },
    {
      "anonymous": false,
      "inputs": [
        {
          "indexed": false,
          "internalType": "string",
          "name": "value",
          "type": "string"
        },
        {
          "indexed": true,
          "internalType": "uint256",
          "name": "id",
          "type": "uint256"
        }
      ],
      "name": "URI",
      "type": "event"
    },
    {
      "anonymous": false,
      "inputs": [
        {
          "indexed": false,
          "internalType": "address",
          "name": "winner",
          "type": "address"
        }
      ],
      "name": "VaultUnlocked",
      "type": "event"
    },
    {
      "inputs": [],
      "name": "FRAGMENT1",
      "outputs": [
        {
          "internalType": "uint256",
          "name": "",
          "type": "uint256"
        }
      ],
      "stateMutability": "view",
      "type": "function"
    },
    {
      "inputs": [],
      "name": "FRAGMENT2",
      "outputs": [
        {
          "internalType": "uint256",
          "name": "",
          "type": "uint256"
        }
      ],
      "stateMutability": "view",
      "type": "function"
    },
    {
      "inputs": [],
      "name": "FRAGMENT3",
      "outputs": [
        {
          "internalType": "uint256",
          "name": "",
          "type": "uint256"
        }
      ],
      "stateMutability": "view",
      "type": "function"
    },
    {
      "inputs": [],
      "name": "FRAGMENT4",
      "outputs": [
        {
          "internalType": "uint256",
          "name": "",
          "type": "uint256"
        }
      ],
      "stateMutability": "view",
      "type": "function"
    },
    {
      "inputs": [],
      "name": "FRAGMENT5",
      "outputs": [
        {
          "internalType": "uint256",
          "name": "",
          "type": "uint256"
        }
      ],
      "stateMutability": "view",
      "type": "function"
    },
    {
      "inputs": [],
      "name": "FRAGMENT6",
      "outputs": [
        {
          "internalType": "uint256",
          "name": "",
          "type": "uint256"
        }
      ],
      "stateMutability": "view",
      "type": "function"
    },
    {
      "inputs": [],
      "name": "FRAGMENT7",
      "outputs": [
        {
          "internalType": "uint256",
          "name": "",
          "type": "uint256"
        }
      ],
      "stateMutability": "view",
      "type": "function"
    },
    {
      "inputs": [],
      "name": "FRAGMENT8",
      "outputs": [
        {
          "internalType": "uint256",
          "name": "",
          "type": "uint256"
        }
      ],
      "stateMutability": "view",
      "type": "function"
    },
    {
      "inputs": [],
      "name": "KEY",
      "outputs": [
        {
          "internalType": "uint256",
          "name": "",
          "type": "uint256"
        }
      ],
      "stateMutability": "view",
      "type": "function"
    },
    {
      "inputs": [],
      "name": "MAXFRAGMENTS",
      "outputs": [
        {
          "internalType": "uint16",
          "name": "",
          "type": "uint16"
        }
      ],
      "stateMutability": "view",
      "type": "function"
    },
    {
      "inputs": [
        {
          "internalType": "address",
          "name": "account",
          "type": "address"
        },
        {
          "internalType": "uint256",
          "name": "id",
          "type": "uint256"
        }
      ],
      "name": "balanceOf",
      "outputs": [
        {
          "internalType": "uint256",
          "name": "",
          "type": "uint256"
        }
      ],
      "stateMutability": "view",
      "type": "function"
    },
    {
      "inputs": [
        {
          "internalType": "address[]",
          "name": "accounts",
          "type": "address[]"
        },
        {
          "internalType": "uint256[]",
          "name": "ids",
          "type": "uint256[]"
        }
      ],
      "name": "balanceOfBatch",
      "outputs": [
        {
          "internalType": "uint256[]",
          "name": "",
          "type": "uint256[]"
        }
      ],
      "stateMutability": "view",
      "type": "function"
    },
    {
      "inputs": [],
      "name": "claimKeepersVault",
      "outputs": [],
      "stateMutability": "nonpayable",
      "type": "function"
    },
    {
      "inputs": [],
      "name": "fundPrizePurse",
      "outputs": [],
      "stateMutability": "payable",
      "type": "function"
    },
    {
      "inputs": [],
      "name": "gameWon",
      "outputs": [
        {
          "internalType": "bool",
          "name": "",
          "type": "bool"
        }
      ],
      "stateMutability": "view",
      "type": "function"
    },
    {
      "inputs": [
        {
          "internalType": "address",
          "name": "account",
          "type": "address"
        },
        {
          "internalType": "address",
          "name": "operator",
          "type": "address"
        }
      ],
      "name": "isApprovedForAll",
      "outputs": [
        {
          "internalType": "bool",
          "name": "",
          "type": "bool"
        }
      ],
      "stateMutability": "view",
      "type": "function"
    },
    {
      "inputs": [
        {
          "internalType": "address",
          "name": "_receiver",
          "type": "address"
        },
        {
          "internalType": "uint256",
          "name": "amount",
          "type": "uint256"
        }
      ],
      "name": "mintFragments",
      "outputs": [],
      "stateMutability": "nonpayable",
      "type": "function"
    },
    {
      "inputs": [],
      "name": "numT1",
      "outputs": [
        {
          "internalType": "uint16",
          "name": "",
          "type": "uint16"
        }
      ],
      "stateMutability": "view",
      "type": "function"
    },
    {
      "inputs": [],
      "name": "numT2",
      "outputs": [
        {
          "internalType": "uint16",
          "name": "",
          "type": "uint16"
        }
      ],
      "stateMutability": "view",
      "type": "function"
    },
    {
      "inputs": [],
      "name": "numT3",
      "outputs": [
        {
          "internalType": "uint16",
          "name": "",
          "type": "uint16"
        }
      ],
      "stateMutability": "view",
      "type": "function"
    },
    {
      "inputs": [],
      "name": "numT4",
      "outputs": [
        {
          "internalType": "uint16",
          "name": "",
          "type": "uint16"
        }
      ],
      "stateMutability": "view",
      "type": "function"
    },
    {
      "inputs": [],
      "name": "numT5",
      "outputs": [
        {
          "internalType": "uint16",
          "name": "",
          "type": "uint16"
        }
      ],
      "stateMutability": "view",
      "type": "function"
    },
    {
      "inputs": [],
      "name": "numT6",
      "outputs": [
        {
          "internalType": "uint16",
          "name": "",
          "type": "uint16"
        }
      ],
      "stateMutability": "view",
      "type": "function"
    },
    {
      "inputs": [],
      "name": "numT7",
      "outputs": [
        {
          "internalType": "uint16",
          "name": "",
          "type": "uint16"
        }
      ],
      "stateMutability": "view",
      "type": "function"
    },
    {
      "inputs": [],
      "name": "numT8",
      "outputs": [
        {
          "internalType": "uint16",
          "name": "",
          "type": "uint16"
        }
      ],
      "stateMutability": "view",
      "type": "function"
    },
    {
      "inputs": [],
      "name": "owner",
      "outputs": [
        {
          "internalType": "address",
          "name": "",
          "type": "address"
        }
      ],
      "stateMutability": "view",
      "type": "function"
    },
    {
      "inputs": [],
      "name": "prize",
      "outputs": [
        {
          "internalType": "uint256",
          "name": "",
          "type": "uint256"
        }
      ],
      "stateMutability": "view",
      "type": "function"
    },
    {
      "inputs": [],
      "name": "renounceOwnership",
      "outputs": [],
      "stateMutability": "nonpayable",
      "type": "function"
    },
    {
      "inputs": [
        {
          "internalType": "address",
          "name": "from",
          "type": "address"
        },
        {
          "internalType": "address",
          "name": "to",
          "type": "address"
        },
        {
          "internalType": "uint256[]",
          "name": "ids",
          "type": "uint256[]"
        },
        {
          "internalType": "uint256[]",
          "name": "amounts",
          "type": "uint256[]"
        },
        {
          "internalType": "bytes",
          "name": "data",
          "type": "bytes"
        }
      ],
      "name": "safeBatchTransferFrom",
      "outputs": [],
      "stateMutability": "nonpayable",
      "type": "function"
    },
    {
      "inputs": [
        {
          "internalType": "address",
          "name": "from",
          "type": "address"
        },
        {
          "internalType": "address",
          "name": "to",
          "type": "address"
        },
        {
          "internalType": "uint256",
          "name": "id",
          "type": "uint256"
        },
        {
          "internalType": "uint256",
          "name": "amount",
          "type": "uint256"
        },
        {
          "internalType": "bytes",
          "name": "data",
          "type": "bytes"
        }
      ],
      "name": "safeTransferFrom",
      "outputs": [],
      "stateMutability": "nonpayable",
      "type": "function"
    },
    {
      "inputs": [
        {
          "internalType": "address",
          "name": "operator",
          "type": "address"
        },
        {
          "internalType": "bool",
          "name": "approved",
          "type": "bool"
        }
      ],
      "name": "setApprovalForAll",
      "outputs": [],
      "stateMutability": "nonpayable",
      "type": "function"
    },
    {
      "inputs": [],
      "name": "setSweetRelease",
      "outputs": [],
      "stateMutability": "nonpayable",
      "type": "function"
    },
    {
      "inputs": [
        {
          "internalType": "bytes4",
          "name": "interfaceId",
          "type": "bytes4"
        }
      ],
      "name": "supportsInterface",
      "outputs": [
        {
          "internalType": "bool",
          "name": "",
          "type": "bool"
        }
      ],
      "stateMutability": "view",
      "type": "function"
    },
    {
      "inputs": [],
      "name": "sweetRelease",
      "outputs": [
        {
          "internalType": "bool",
          "name": "",
          "type": "bool"
        }
      ],
      "stateMutability": "view",
      "type": "function"
    },
    {
      "inputs": [
        {
          "internalType": "address",
          "name": "newOwner",
          "type": "address"
        }
      ],
      "name": "transferOwnership",
      "outputs": [],
      "stateMutability": "nonpayable",
      "type": "function"
    },
    {
      "inputs": [
        {
          "internalType": "uint256",
          "name": "",
          "type": "uint256"
        }
      ],
      "name": "uri",
      "outputs": [
        {
          "internalType": "string",
          "name": "",
          "type": "string"
        }
      ],
      "stateMutability": "view",
      "type": "function"
    },
    {
      "stateMutability": "payable",
      "type": "receive"
    }
  ],
  "bytecode": "0x608060405260006006556000600760006101000a81548160ff0219169083151502179055506000600760016101000a81548160ff0219169083151502179055503480156200004c57600080fd5b5060405180606001604052806032815260200162005602603291396200007881620004bf60201b60201c565b50620000996200008d620004db60201b60201c565b620004e360201b60201c565b600160048190555060005b600361ffff168161ffff16101562000117576005600190806001815401808255809150506001900390600052602060002090601091828204019190066002029091909190916101000a81548161ffff021916908361ffff16021790555080806200010e9062000696565b915050620000a4565b5060005b600a61ffff168161ffff1610156200018e576005600290806001815401808255809150506001900390600052602060002090601091828204019190066002029091909190916101000a81548161ffff021916908361ffff1602179055508080620001859062000696565b9150506200011b565b5060005b600a61ffff168161ffff16101562000205576005600390806001815401808255809150506001900390600052602060002090601091828204019190066002029091909190916101000a81548161ffff021916908361ffff1602179055508080620001fc9062000696565b91505062000192565b5060005b603261ffff168161ffff1610156200027c576005600490806001815401808255809150506001900390600052602060002090601091828204019190066002029091909190916101000a81548161ffff021916908361ffff1602179055508080620002739062000696565b91505062000209565b5060005b606461ffff168161ffff161015620002f157600580806001815401808255809150506001900390600052602060002090601091828204019190066002029091909190916101000a81548161ffff021916908361ffff1602179055508080620002e89062000696565b91505062000280565b5060005b606f61ffff168161ffff16101562000368576005600690806001815401808255809150506001900390600052602060002090601091828204019190066002029091909190916101000a81548161ffff021916908361ffff16021790555080806200035f9062000696565b915050620002f5565b5060005b60de61ffff168161ffff161015620003df576005600790806001815401808255809150506001900390600052602060002090601091828204019190066002029091909190916101000a81548161ffff021916908361ffff1602179055508080620003d69062000696565b9150506200036c565b5060005b60de606f60646032600a806003610457620003ff9190620006c6565b6200040b9190620006c6565b620004179190620006c6565b620004239190620006c6565b6200042f9190620006c6565b6200043b9190620006c6565b620004479190620006c6565b61ffff168161ffff161015620004b8576005600890806001815401808255809150506001900390600052602060002090601091828204019190066002029091909190916101000a81548161ffff021916908361ffff1602179055508080620004af9062000696565b915050620003e3565b5062000766565b8060029080519060200190620004d7929190620005a9565b5050565b600033905090565b6000600360009054906101000a900473ffffffffffffffffffffffffffffffffffffffff16905081600360006101000a81548173ffffffffffffffffffffffffffffffffffffffff021916908373ffffffffffffffffffffffffffffffffffffffff1602179055508173ffffffffffffffffffffffffffffffffffffffff168173ffffffffffffffffffffffffffffffffffffffff167f8be0079c531659141344cd1fd0a4f28419497f9722a3daafe3b4186f6b6457e060405160405180910390a35050565b828054620005b79062000730565b90600052602060002090601f016020900481019282620005db576000855562000627565b82601f10620005f657805160ff191683800117855562000627565b8280016001018555821562000627579182015b828111156200062657825182559160200191906001019062000609565b5b5090506200063691906200063a565b5090565b5b80821115620006555760008160009055506001016200063b565b5090565b7f4e487b7100000000000000000000000000000000000000000000000000000000600052601160045260246000fd5b600061ffff82169050919050565b6000620006a38262000688565b915061ffff821415620006bb57620006ba62000659565b5b600182019050919050565b6000620006d38262000688565b9150620006e08362000688565b925082821015620006f657620006f562000659565b5b828203905092915050565b7f4e487b7100000000000000000000000000000000000000000000000000000000600052602260045260246000fd5b600060028204905060018216806200074957607f821691505b6020821081141562000760576200075f62000701565b5b50919050565b614e8c80620007766000396000f3fe6080604052600436106102525760003560e01c806397b578b111610138578063e04a4ea6116100b0578063ef3af2751161007f578063f2fde38b11610064578063f2fde38b14610817578063f468993614610840578063ffd807d21461086b57610292565b8063ef3af275146107c3578063f242432a146107ee57610292565b8063e04a4ea614610719578063e3ac5d2614610744578063e985e9c51461076f578063edd47abf146107ac57610292565b8063aea876c011610107578063b582aab0116100ec578063b582aab01461069a578063c306219d146106c5578063ce16d166146106f057610292565b8063aea876c014610644578063b0538dae1461066f57610292565b806397b578b1146105ae578063a22cb465146105d9578063a6d24b6d14610602578063ae3c15971461062d57610292565b80634e1273f4116101cb578063715018a61161019a5780638dd3503e1161017f5780638dd3503e1461054e5780638f9352ba1461057957806392f393f8146105a457610292565b8063715018a61461050c5780638da5cb5b1461052357610292565b80634e1273f41461044e578063524a12241461048b5780635445941f146104b65780636d00e233146104e157610292565b80631a20cef8116102225780632dc387b3116102075780632dc387b3146103cf5780632eb2c2d6146103fa5780634c1299c61461042357610292565b80631a20cef8146103795780631ceea796146103a457610292565b8062fdd58e1461029757806301ffc9a7146102d4578063069a825c146103115780630e89341c1461033c57610292565b36610292576040517f08c379a0000000000000000000000000000000000000000000000000000000008152600401610289906129b1565b60405180910390fd5b600080fd5b3480156102a357600080fd5b506102be60048036038101906102b99190612a79565b610896565b6040516102cb9190612ac8565b60405180910390f35b3480156102e057600080fd5b506102fb60048036038101906102f69190612b3b565b61095f565b6040516103089190612b83565b60405180910390f35b34801561031d57600080fd5b50610326610a41565b6040516103339190612b83565b60405180910390f35b34801561034857600080fd5b50610363600480360381019061035e9190612b9e565b610a54565b6040516103709190612c53565b60405180910390f35b34801561038557600080fd5b5061038e610ae8565b60405161039b9190612c92565b60405180910390f35b3480156103b057600080fd5b506103b9610aed565b6040516103c69190612c92565b60405180910390f35b3480156103db57600080fd5b506103e4610af2565b6040516103f19190612ac8565b60405180910390f35b34801561040657600080fd5b50610421600480360381019061041c9190612eaa565b610af7565b005b34801561042f57600080fd5b50610438610b98565b6040516104459190612c92565b60405180910390f35b34801561045a57600080fd5b506104756004803603810190610470919061303c565b610b9d565b6040516104829190613172565b60405180910390f35b34801561049757600080fd5b506104a0610cb6565b6040516104ad9190612ac8565b60405180910390f35b3480156104c257600080fd5b506104cb610cbb565b6040516104d89190612b83565b60405180910390f35b3480156104ed57600080fd5b506104f6610cce565b6040516105039190612ac8565b60405180910390f35b34801561051857600080fd5b50610521610cd3565b005b34801561052f57600080fd5b50610538610d5b565b60405161054591906131a3565b60405180910390f35b34801561055a57600080fd5b50610563610d85565b6040516105709190612ac8565b60405180910390f35b34801561058557600080fd5b5061058e610d8a565b60405161059b9190612ac8565b60405180910390f35b6105ac610d8f565b005b3480156105ba57600080fd5b506105c3610daa565b6040516105d09190612c92565b60405180910390f35b3480156105e557600080fd5b5061060060048036038101906105fb91906131ea565b610daf565b005b34801561060e57600080fd5b50610617610f30565b6040516106249190612c92565b60405180910390f35b34801561063957600080fd5b50610642610f35565b005b34801561065057600080fd5b50610659611492565b6040516106669190612c92565b60405180910390f35b34801561067b57600080fd5b50610684611497565b6040516106919190612ac8565b60405180910390f35b3480156106a657600080fd5b506106af61149c565b6040516106bc9190612c92565b60405180910390f35b3480156106d157600080fd5b506106da6114f5565b6040516106e79190612ac8565b60405180910390f35b3480156106fc57600080fd5b5061071760048036038101906107129190612a79565b6114fa565b005b34801561072557600080fd5b5061072e611632565b60405161073b9190612ac8565b60405180910390f35b34801561075057600080fd5b50610759611637565b6040516107669190612ac8565b60405180910390f35b34801561077b57600080fd5b506107966004803603810190610791919061322a565b61163d565b6040516107a39190612b83565b60405180910390f35b3480156107b857600080fd5b506107c16116d1565b005b3480156107cf57600080fd5b506107d861176a565b6040516107e59190612ac8565b60405180910390f35b3480156107fa57600080fd5b506108156004803603810190610810919061326a565b61176f565b005b34801561082357600080fd5b5061083e60048036038101906108399190613301565b611810565b005b34801561084c57600080fd5b50610855611908565b6040516108629190612c92565b60405180910390f35b34801561087757600080fd5b5061088061190e565b60405161088d9190612c92565b60405180910390f35b60008073ffffffffffffffffffffffffffffffffffffffff168373ffffffffffffffffffffffffffffffffffffffff161415610907576040517f08c379a00000000000000000000000000000000000000000000000000000000081526004016108fe906133a0565b60405180910390fd5b60008083815260200190815260200160002060008473ffffffffffffffffffffffffffffffffffffffff1673ffffffffffffffffffffffffffffffffffffffff16815260200190815260200160002054905092915050565b60007fd9b67a26000000000000000000000000000000000000000000000000000000007bffffffffffffffffffffffffffffffffffffffffffffffffffffffff1916827bffffffffffffffffffffffffffffffffffffffffffffffffffffffff19161480610a2a57507f0e89341c000000000000000000000000000000000000000000000000000000007bffffffffffffffffffffffffffffffffffffffffffffffffffffffff1916827bffffffffffffffffffffffffffffffffffffffffffffffffffffffff1916145b80610a3a5750610a3982611913565b5b9050919050565b600760009054906101000a900460ff1681565b606060028054610a63906133ef565b80601f0160208091040260200160405190810160405280929190818152602001828054610a8f906133ef565b8015610adc5780601f10610ab157610100808354040283529160200191610adc565b820191906000526020600020905b815481529060010190602001808311610abf57829003601f168201915b50505050509050919050565b600381565b600a81565b600081565b610aff61197d565b73ffffffffffffffffffffffffffffffffffffffff168573ffffffffffffffffffffffffffffffffffffffff161480610b455750610b4485610b3f61197d565b61163d565b5b610b84576040517f08c379a0000000000000000000000000000000000000000000000000000000008152600401610b7b90613493565b60405180910390fd5b610b918585858585611985565b5050505050565b603281565b60608151835114610be3576040517f08c379a0000000000000000000000000000000000000000000000000000000008152600401610bda90613525565b60405180910390fd5b6000835167ffffffffffffffff811115610c0057610bff612cb2565b5b604051908082528060200260200182016040528015610c2e5781602001602082028036833780820191505090505b50905060005b8451811015610cab57610c7b858281518110610c5357610c52613545565b5b6020026020010151858381518110610c6e57610c6d613545565b5b6020026020010151610896565b828281518110610c8e57610c8d613545565b5b60200260200101818152505080610ca4906135a3565b9050610c34565b508091505092915050565b600281565b600760019054906101000a900460ff1681565b600781565b610cdb61197d565b73ffffffffffffffffffffffffffffffffffffffff16610cf9610d5b565b73ffffffffffffffffffffffffffffffffffffffff1614610d4f576040517f08c379a0000000000000000000000000000000000000000000000000000000008152600401610d4690613638565b60405180910390fd5b610d596000611c99565b565b6000600360009054906101000a900473ffffffffffffffffffffffffffffffffffffffff16905090565b600381565b600581565b3460066000828254610da19190613658565b92505081905550565b60de81565b8173ffffffffffffffffffffffffffffffffffffffff16610dce61197d565b73ffffffffffffffffffffffffffffffffffffffff161415610e25576040517f08c379a0000000000000000000000000000000000000000000000000000000008152600401610e1c90613720565b60405180910390fd5b8060016000610e3261197d565b73ffffffffffffffffffffffffffffffffffffffff1673ffffffffffffffffffffffffffffffffffffffff16815260200190815260200160002060008473ffffffffffffffffffffffffffffffffffffffff1673ffffffffffffffffffffffffffffffffffffffff16815260200190815260200160002060006101000a81548160ff0219169083151502179055508173ffffffffffffffffffffffffffffffffffffffff16610edf61197d565b73ffffffffffffffffffffffffffffffffffffffff167f17307eab39ab6107e8899845ad3d59bd9653f200f220920489ca2b5937696c3183604051610f249190612b83565b60405180910390a35050565b600a81565b60026004541415610f7b576040517f08c379a0000000000000000000000000000000000000000000000000000000008152600401610f729061378c565b60405180910390fd5b6002600481905550600760019054906101000a900460ff16610fd2576040517f08c379a0000000000000000000000000000000000000000000000000000000008152600401610fc9906137f8565b60405180910390fd5b600760009054906101000a900460ff1615611022576040517f08c379a000000000000000000000000000000000000000000000000000000000815260040161101990613864565b60405180910390fd5b600060065411611067576040517f08c379a000000000000000000000000000000000000000000000000000000000815260040161105e906138d0565b60405180910390fd5b6000611074336001610896565b116110b4576040517f08c379a00000000000000000000000000000000000000000000000000000000081526004016110ab9061393c565b60405180910390fd5b60006110c1336002610896565b11611101576040517f08c379a00000000000000000000000000000000000000000000000000000000081526004016110f8906139a8565b60405180910390fd5b600061110e336003610896565b1161114e576040517f08c379a000000000000000000000000000000000000000000000000000000000815260040161114590613a14565b60405180910390fd5b600061115b336004610896565b1161119b576040517f08c379a000000000000000000000000000000000000000000000000000000000815260040161119290613a80565b60405180910390fd5b60006111a8336005610896565b116111e8576040517f08c379a00000000000000000000000000000000000000000000000000000000081526004016111df90613aec565b60405180910390fd5b60006111f5336006610896565b11611235576040517f08c379a000000000000000000000000000000000000000000000000000000000815260040161122c90613b58565b60405180910390fd5b6000611242336007610896565b11611282576040517f08c379a000000000000000000000000000000000000000000000000000000000815260040161127990613bc4565b60405180910390fd5b600061128f336008610896565b116112cf576040517f08c379a00000000000000000000000000000000000000000000000000000000081526004016112c690613c30565b60405180910390fd5b6112db33600180611d5f565b6112e83360026001611d5f565b6112f53360036001611d5f565b6113023360046001611d5f565b61130f3360056001611d5f565b61131c3360066001611d5f565b6113293360076001611d5f565b6113363360086001611d5f565b61137933600060016040518060400160405280600381526020017f3078300000000000000000000000000000000000000000000000000000000000815250611f7c565b7fb90f637c9ae38effeea06ad34c58331954898f0d0d4109d30b95e0426b291ff7336040516113a891906131a3565b60405180910390a16001600760006101000a81548160ff02191690831515021790555060006006549050600060068190555060003373ffffffffffffffffffffffffffffffffffffffff168260405161140090613c81565b60006040518083038185875af1925050503d806000811461143d576040519150601f19603f3d011682016040523d82523d6000602084013e611442565b606091505b5050905080611486576040517f08c379a000000000000000000000000000000000000000000000000000000000815260040161147d906129b1565b60405180910390fd5b50506001600481905550565b606481565b600881565b60de606f60646032600a8060036104576114b69190613c96565b6114c09190613c96565b6114ca9190613c96565b6114d49190613c96565b6114de9190613c96565b6114e89190613c96565b6114f29190613c96565b81565b600681565b61150261197d565b73ffffffffffffffffffffffffffffffffffffffff16611520610d5b565b73ffffffffffffffffffffffffffffffffffffffff1614611576576040517f08c379a000000000000000000000000000000000000000000000000000000000815260040161156d90613638565b60405180910390fd5b8060058054905010156115be576040517f08c379a00000000000000000000000000000000000000000000000000000000081526004016115b590613d16565b60405180910390fd5b60005b8181101561162d5760006115d56005612112565b9050611619848260016040518060400160405280600381526020017f3078300000000000000000000000000000000000000000000000000000000000815250611f7c565b508080611625906135a3565b9150506115c1565b505050565b600481565b60065481565b6000600160008473ffffffffffffffffffffffffffffffffffffffff1673ffffffffffffffffffffffffffffffffffffffff16815260200190815260200160002060008373ffffffffffffffffffffffffffffffffffffffff1673ffffffffffffffffffffffffffffffffffffffff16815260200190815260200160002060009054906101000a900460ff16905092915050565b6116d961197d565b73ffffffffffffffffffffffffffffffffffffffff166116f7610d5b565b73ffffffffffffffffffffffffffffffffffffffff161461174d576040517f08c379a000000000000000000000000000000000000000000000000000000000815260040161174490613638565b60405180910390fd5b6001600760016101000a81548160ff021916908315150217905550565b600181565b61177761197d565b73ffffffffffffffffffffffffffffffffffffffff168573ffffffffffffffffffffffffffffffffffffffff1614806117bd57506117bc856117b761197d565b61163d565b5b6117fc576040517f08c379a00000000000000000000000000000000000000000000000000000000081526004016117f390613da8565b60405180910390fd5b6118098585858585612231565b5050505050565b61181861197d565b73ffffffffffffffffffffffffffffffffffffffff16611836610d5b565b73ffffffffffffffffffffffffffffffffffffffff161461188c576040517f08c379a000000000000000000000000000000000000000000000000000000000815260040161188390613638565b60405180910390fd5b600073ffffffffffffffffffffffffffffffffffffffff168173ffffffffffffffffffffffffffffffffffffffff1614156118fc576040517f08c379a00000000000000000000000000000000000000000000000000000000081526004016118f390613e3a565b60405180910390fd5b61190581611c99565b50565b61045781565b606f81565b60007f01ffc9a7000000000000000000000000000000000000000000000000000000007bffffffffffffffffffffffffffffffffffffffffffffffffffffffff1916827bffffffffffffffffffffffffffffffffffffffffffffffffffffffff1916149050919050565b600033905090565b81518351146119c9576040517f08c379a00000000000000000000000000000000000000000000000000000000081526004016119c090613ecc565b60405180910390fd5b600073ffffffffffffffffffffffffffffffffffffffff168473ffffffffffffffffffffffffffffffffffffffff161415611a39576040517f08c379a0000000000000000000000000000000000000000000000000000000008152600401611a3090613f5e565b60405180910390fd5b6000611a4361197d565b9050611a538187878787876124b3565b60005b8451811015611c04576000858281518110611a7457611a73613545565b5b602002602001015190506000858381518110611a9357611a92613545565b5b60200260200101519050600080600084815260200190815260200160002060008b73ffffffffffffffffffffffffffffffffffffffff1673ffffffffffffffffffffffffffffffffffffffff16815260200190815260200160002054905081811015611b34576040517f08c379a0000000000000000000000000000000000000000000000000000000008152600401611b2b90613ff0565b60405180910390fd5b81810360008085815260200190815260200160002060008c73ffffffffffffffffffffffffffffffffffffffff1673ffffffffffffffffffffffffffffffffffffffff168152602001908152602001600020819055508160008085815260200190815260200160002060008b73ffffffffffffffffffffffffffffffffffffffff1673ffffffffffffffffffffffffffffffffffffffff1681526020019081526020016000206000828254611be99190613658565b9250508190555050505080611bfd906135a3565b9050611a56565b508473ffffffffffffffffffffffffffffffffffffffff168673ffffffffffffffffffffffffffffffffffffffff168273ffffffffffffffffffffffffffffffffffffffff167f4a39dc06d4c0dbc64b70af90fd698a233a518aa5d07e595d983b8c0526c8f7fb8787604051611c7b929190614010565b60405180910390a4611c918187878787876124bb565b505050505050565b6000600360009054906101000a900473ffffffffffffffffffffffffffffffffffffffff16905081600360006101000a81548173ffffffffffffffffffffffffffffffffffffffff021916908373ffffffffffffffffffffffffffffffffffffffff1602179055508173ffffffffffffffffffffffffffffffffffffffff168173ffffffffffffffffffffffffffffffffffffffff167f8be0079c531659141344cd1fd0a4f28419497f9722a3daafe3b4186f6b6457e060405160405180910390a35050565b600073ffffffffffffffffffffffffffffffffffffffff168373ffffffffffffffffffffffffffffffffffffffff161415611dcf576040517f08c379a0000000000000000000000000000000000000000000000000000000008152600401611dc6906140b9565b60405180910390fd5b6000611dd961197d565b9050611e0981856000611deb87612693565b611df487612693565b604051806020016040528060008152506124b3565b600080600085815260200190815260200160002060008673ffffffffffffffffffffffffffffffffffffffff1673ffffffffffffffffffffffffffffffffffffffff16815260200190815260200160002054905082811015611ea0576040517f08c379a0000000000000000000000000000000000000000000000000000000008152600401611e979061414b565b60405180910390fd5b82810360008086815260200190815260200160002060008773ffffffffffffffffffffffffffffffffffffffff1673ffffffffffffffffffffffffffffffffffffffff16815260200190815260200160002081905550600073ffffffffffffffffffffffffffffffffffffffff168573ffffffffffffffffffffffffffffffffffffffff168373ffffffffffffffffffffffffffffffffffffffff167fc3d58168c5ae7397731d063d5bbf3d657854427343f4c083240f7aacaa2d0f628787604051611f6d92919061416b565b60405180910390a45050505050565b600073ffffffffffffffffffffffffffffffffffffffff168473ffffffffffffffffffffffffffffffffffffffff161415611fec576040517f08c379a0000000000000000000000000000000000000000000000000000000008152600401611fe390614206565b60405180910390fd5b6000611ff661197d565b90506120178160008761200888612693565b61201188612693565b876124b3565b8260008086815260200190815260200160002060008773ffffffffffffffffffffffffffffffffffffffff1673ffffffffffffffffffffffffffffffffffffffff16815260200190815260200160002060008282546120769190613658565b925050819055508473ffffffffffffffffffffffffffffffffffffffff16600073ffffffffffffffffffffffffffffffffffffffff168273ffffffffffffffffffffffffffffffffffffffff167fc3d58168c5ae7397731d063d5bbf3d657854427343f4c083240f7aacaa2d0f6287876040516120f492919061416b565b60405180910390a461210b8160008787878761270d565b5050505050565b60008061211e836128e5565b9050600083828154811061213557612134613545565b5b90600052602060002090601091828204019190066002029054906101000a900461ffff1661ffff16905083600185805490506121719190614226565b8154811061218257612181613545565b5b90600052602060002090601091828204019190066002029054906101000a900461ffff168483815481106121b9576121b8613545565b5b90600052602060002090601091828204019190066002026101000a81548161ffff021916908361ffff160217905550838054806121f9576121f861425a565b5b60019003818190600052602060002090601091828204019190066002026101000a81549061ffff021916905590558092505050919050565b600073ffffffffffffffffffffffffffffffffffffffff168473ffffffffffffffffffffffffffffffffffffffff1614156122a1576040517f08c379a000000000000000000000000000000000000000000000000000000000815260040161229890613f5e565b60405180910390fd5b60006122ab61197d565b90506122cb8187876122bc88612693565b6122c588612693565b876124b3565b600080600086815260200190815260200160002060008873ffffffffffffffffffffffffffffffffffffffff1673ffffffffffffffffffffffffffffffffffffffff16815260200190815260200160002054905083811015612362576040517f08c379a000000000000000000000000000000000000000000000000000000000815260040161235990613ff0565b60405180910390fd5b83810360008087815260200190815260200160002060008973ffffffffffffffffffffffffffffffffffffffff1673ffffffffffffffffffffffffffffffffffffffff168152602001908152602001600020819055508360008087815260200190815260200160002060008873ffffffffffffffffffffffffffffffffffffffff1673ffffffffffffffffffffffffffffffffffffffff16815260200190815260200160002060008282546124179190613658565b925050819055508573ffffffffffffffffffffffffffffffffffffffff168773ffffffffffffffffffffffffffffffffffffffff168373ffffffffffffffffffffffffffffffffffffffff167fc3d58168c5ae7397731d063d5bbf3d657854427343f4c083240f7aacaa2d0f62888860405161249492919061416b565b60405180910390a46124aa82888888888861270d565b50505050505050565b505050505050565b6124da8473ffffffffffffffffffffffffffffffffffffffff16612941565b1561268b578373ffffffffffffffffffffffffffffffffffffffff1663bc197c8187878686866040518663ffffffff1660e01b81526004016125209594939291906142de565b6020604051808303816000875af192505050801561255c57506040513d601f19601f82011682018060405250810190612559919061435b565b60015b61260257612568614395565b806308c379a014156125c5575061257d6143b7565b8061258857506125c7565b806040517f08c379a00000000000000000000000000000000000000000000000000000000081526004016125bc9190612c53565b60405180910390fd5b505b6040517f08c379a00000000000000000000000000000000000000000000000000000000081526004016125f9906144bf565b60405180910390fd5b63bc197c8160e01b7bffffffffffffffffffffffffffffffffffffffffffffffffffffffff1916817bffffffffffffffffffffffffffffffffffffffffffffffffffffffff191614612689576040517f08c379a000000000000000000000000000000000000000000000000000000000815260040161268090614551565b60405180910390fd5b505b505050505050565b60606000600167ffffffffffffffff8111156126b2576126b1612cb2565b5b6040519080825280602002602001820160405280156126e05781602001602082028036833780820191505090505b50905082816000815181106126f8576126f7613545565b5b60200260200101818152505080915050919050565b61272c8473ffffffffffffffffffffffffffffffffffffffff16612941565b156128dd578373ffffffffffffffffffffffffffffffffffffffff1663f23a6e6187878686866040518663ffffffff1660e01b8152600401612772959493929190614571565b6020604051808303816000875af19250505080156127ae57506040513d601f19601f820116820180604052508101906127ab919061435b565b60015b612854576127ba614395565b806308c379a0141561281757506127cf6143b7565b806127da5750612819565b806040517f08c379a000000000000000000000000000000000000000000000000000000000815260040161280e9190612c53565b60405180910390fd5b505b6040517f08c379a000000000000000000000000000000000000000000000000000000000815260040161284b906144bf565b60405180910390fd5b63f23a6e6160e01b7bffffffffffffffffffffffffffffffffffffffffffffffffffffffff1916817bffffffffffffffffffffffffffffffffffffffffffffffffffffffff1916146128db576040517f08c379a00000000000000000000000000000000000000000000000000000000081526004016128d290614551565b60405180910390fd5b505b505050505050565b600080826001436128f69190614226565b4041443360405160200161290e959493929190614d9b565b6040516020818303038152906040528051906020012060001c90508280549050816129399190614e25565b915050919050565b600080823b905060008111915050919050565b600082825260208201905092915050565b7f452d3030322d3031340000000000000000000000000000000000000000000000600082015250565b600061299b600983612954565b91506129a682612965565b602082019050919050565b600060208201905081810360008301526129ca8161298e565b9050919050565b6000604051905090565b600080fd5b600080fd5b600073ffffffffffffffffffffffffffffffffffffffff82169050919050565b6000612a10826129e5565b9050919050565b612a2081612a05565b8114612a2b57600080fd5b50565b600081359050612a3d81612a17565b92915050565b6000819050919050565b612a5681612a43565b8114612a6157600080fd5b50565b600081359050612a7381612a4d565b92915050565b60008060408385031215612a9057612a8f6129db565b5b6000612a9e85828601612a2e565b9250506020612aaf85828601612a64565b9150509250929050565b612ac281612a43565b82525050565b6000602082019050612add6000830184612ab9565b92915050565b60007fffffffff0000000000000000000000000000000000000000000000000000000082169050919050565b612b1881612ae3565b8114612b2357600080fd5b50565b600081359050612b3581612b0f565b92915050565b600060208284031215612b5157612b506129db565b5b6000612b5f84828501612b26565b91505092915050565b60008115159050919050565b612b7d81612b68565b82525050565b6000602082019050612b986000830184612b74565b92915050565b600060208284031215612bb457612bb36129db565b5b6000612bc284828501612a64565b91505092915050565b600081519050919050565b60005b83811015612bf4578082015181840152602081019050612bd9565b83811115612c03576000848401525b50505050565b6000601f19601f8301169050919050565b6000612c2582612bcb565b612c2f8185612954565b9350612c3f818560208601612bd6565b612c4881612c09565b840191505092915050565b60006020820190508181036000830152612c6d8184612c1a565b905092915050565b600061ffff82169050919050565b612c8c81612c75565b82525050565b6000602082019050612ca76000830184612c83565b92915050565b600080fd5b7f4e487b7100000000000000000000000000000000000000000000000000000000600052604160045260246000fd5b612cea82612c09565b810181811067ffffffffffffffff82111715612d0957612d08612cb2565b5b80604052505050565b6000612d1c6129d1565b9050612d288282612ce1565b919050565b600067ffffffffffffffff821115612d4857612d47612cb2565b5b602082029050602081019050919050565b600080fd5b6000612d71612d6c84612d2d565b612d12565b90508083825260208201905060208402830185811115612d9457612d93612d59565b5b835b81811015612dbd5780612da98882612a64565b845260208401935050602081019050612d96565b5050509392505050565b600082601f830112612ddc57612ddb612cad565b5b8135612dec848260208601612d5e565b91505092915050565b600080fd5b600067ffffffffffffffff821115612e1557612e14612cb2565b5b612e1e82612c09565b9050602081019050919050565b82818337600083830152505050565b6000612e4d612e4884612dfa565b612d12565b905082815260208101848484011115612e6957612e68612df5565b5b612e74848285612e2b565b509392505050565b600082601f830112612e9157612e90612cad565b5b8135612ea1848260208601612e3a565b91505092915050565b600080600080600060a08688031215612ec657612ec56129db565b5b6000612ed488828901612a2e565b9550506020612ee588828901612a2e565b945050604086013567ffffffffffffffff811115612f0657612f056129e0565b5b612f1288828901612dc7565b935050606086013567ffffffffffffffff811115612f3357612f326129e0565b5b612f3f88828901612dc7565b925050608086013567ffffffffffffffff811115612f6057612f5f6129e0565b5b612f6c88828901612e7c565b9150509295509295909350565b600067ffffffffffffffff821115612f9457612f93612cb2565b5b602082029050602081019050919050565b6000612fb8612fb384612f79565b612d12565b90508083825260208201905060208402830185811115612fdb57612fda612d59565b5b835b818110156130045780612ff08882612a2e565b845260208401935050602081019050612fdd565b5050509392505050565b600082601f83011261302357613022612cad565b5b8135613033848260208601612fa5565b91505092915050565b60008060408385031215613053576130526129db565b5b600083013567ffffffffffffffff811115613071576130706129e0565b5b61307d8582860161300e565b925050602083013567ffffffffffffffff81111561309e5761309d6129e0565b5b6130aa85828601612dc7565b9150509250929050565b600081519050919050565b600082825260208201905092915050565b6000819050602082019050919050565b6130e981612a43565b82525050565b60006130fb83836130e0565b60208301905092915050565b6000602082019050919050565b600061311f826130b4565b61312981856130bf565b9350613134836130d0565b8060005b8381101561316557815161314c88826130ef565b975061315783613107565b925050600181019050613138565b5085935050505092915050565b6000602082019050818103600083015261318c8184613114565b905092915050565b61319d81612a05565b82525050565b60006020820190506131b86000830184613194565b92915050565b6131c781612b68565b81146131d257600080fd5b50565b6000813590506131e4816131be565b92915050565b60008060408385031215613201576132006129db565b5b600061320f85828601612a2e565b9250506020613220858286016131d5565b9150509250929050565b60008060408385031215613241576132406129db565b5b600061324f85828601612a2e565b925050602061326085828601612a2e565b9150509250929050565b600080600080600060a08688031215613286576132856129db565b5b600061329488828901612a2e565b95505060206132a588828901612a2e565b94505060406132b688828901612a64565b93505060606132c788828901612a64565b925050608086013567ffffffffffffffff8111156132e8576132e76129e0565b5b6132f488828901612e7c565b9150509295509295909350565b600060208284031215613317576133166129db565b5b600061332584828501612a2e565b91505092915050565b7f455243313135353a2062616c616e636520717565727920666f7220746865207a60008201527f65726f2061646472657373000000000000000000000000000000000000000000602082015250565b600061338a602b83612954565b91506133958261332e565b604082019050919050565b600060208201905081810360008301526133b98161337d565b9050919050565b7f4e487b7100000000000000000000000000000000000000000000000000000000600052602260045260246000fd5b6000600282049050600182168061340757607f821691505b6020821081141561341b5761341a6133c0565b5b50919050565b7f455243313135353a207472616e736665722063616c6c6572206973206e6f742060008201527f6f776e6572206e6f7220617070726f7665640000000000000000000000000000602082015250565b600061347d603283612954565b915061348882613421565b604082019050919050565b600060208201905081810360008301526134ac81613470565b9050919050565b7f455243313135353a206163636f756e747320616e6420696473206c656e67746860008201527f206d69736d617463680000000000000000000000000000000000000000000000602082015250565b600061350f602983612954565b915061351a826134b3565b604082019050919050565b6000602082019050818103600083015261353e81613502565b9050919050565b7f4e487b7100000000000000000000000000000000000000000000000000000000600052603260045260246000fd5b7f4e487b7100000000000000000000000000000000000000000000000000000000600052601160045260246000fd5b60006135ae82612a43565b91507fffffffffffffffffffffffffffffffffffffffffffffffffffffffffffffffff8214156135e1576135e0613574565b5b600182019050919050565b7f4f776e61626c653a2063616c6c6572206973206e6f7420746865206f776e6572600082015250565b6000613622602083612954565b915061362d826135ec565b602082019050919050565b6000602082019050818103600083015261365181613615565b9050919050565b600061366382612a43565b915061366e83612a43565b9250827fffffffffffffffffffffffffffffffffffffffffffffffffffffffffffffffff038211156136a3576136a2613574565b5b828201905092915050565b7f455243313135353a2073657474696e6720617070726f76616c2073746174757360008201527f20666f722073656c660000000000000000000000000000000000000000000000602082015250565b600061370a602983612954565b9150613715826136ae565b604082019050919050565b60006020820190508181036000830152613739816136fd565b9050919050565b7f5265656e7472616e637947756172643a207265656e7472616e742063616c6c00600082015250565b6000613776601f83612954565b915061378182613740565b602082019050919050565b600060208201905081810360008301526137a581613769565b9050919050565b7f452d3030322d3031300000000000000000000000000000000000000000000000600082015250565b60006137e2600983612954565b91506137ed826137ac565b602082019050919050565b60006020820190508181036000830152613811816137d5565b9050919050565b7f452d3030322d3031310000000000000000000000000000000000000000000000600082015250565b600061384e600983612954565b915061385982613818565b602082019050919050565b6000602082019050818103600083015261387d81613841565b9050919050565b7f452d3030322d3031320000000000000000000000000000000000000000000000600082015250565b60006138ba600983612954565b91506138c582613884565b602082019050919050565b600060208201905081810360008301526138e9816138ad565b9050919050565b7f452d3030322d3030310000000000000000000000000000000000000000000000600082015250565b6000613926600983612954565b9150613931826138f0565b602082019050919050565b6000602082019050818103600083015261395581613919565b9050919050565b7f452d3030322d3030320000000000000000000000000000000000000000000000600082015250565b6000613992600983612954565b915061399d8261395c565b602082019050919050565b600060208201905081810360008301526139c181613985565b9050919050565b7f452d3030322d3030330000000000000000000000000000000000000000000000600082015250565b60006139fe600983612954565b9150613a09826139c8565b602082019050919050565b60006020820190508181036000830152613a2d816139f1565b9050919050565b7f452d3030322d3030340000000000000000000000000000000000000000000000600082015250565b6000613a6a600983612954565b9150613a7582613a34565b602082019050919050565b60006020820190508181036000830152613a9981613a5d565b9050919050565b7f452d3030322d3030350000000000000000000000000000000000000000000000600082015250565b6000613ad6600983612954565b9150613ae182613aa0565b602082019050919050565b60006020820190508181036000830152613b0581613ac9565b9050919050565b7f452d3030322d3030360000000000000000000000000000000000000000000000600082015250565b6000613b42600983612954565b9150613b4d82613b0c565b602082019050919050565b60006020820190508181036000830152613b7181613b35565b9050919050565b7f452d3030322d3030370000000000000000000000000000000000000000000000600082015250565b6000613bae600983612954565b9150613bb982613b78565b602082019050919050565b60006020820190508181036000830152613bdd81613ba1565b9050919050565b7f452d3030322d3030380000000000000000000000000000000000000000000000600082015250565b6000613c1a600983612954565b9150613c2582613be4565b602082019050919050565b60006020820190508181036000830152613c4981613c0d565b9050919050565b600081905092915050565b50565b6000613c6b600083613c50565b9150613c7682613c5b565b600082019050919050565b6000613c8c82613c5e565b9150819050919050565b6000613ca182612c75565b9150613cac83612c75565b925082821015613cbf57613cbe613574565b5b828203905092915050565b7f452d3030322d3030390000000000000000000000000000000000000000000000600082015250565b6000613d00600983612954565b9150613d0b82613cca565b602082019050919050565b60006020820190508181036000830152613d2f81613cf3565b9050919050565b7f455243313135353a2063616c6c6572206973206e6f74206f776e6572206e6f7260008201527f20617070726f7665640000000000000000000000000000000000000000000000602082015250565b6000613d92602983612954565b9150613d9d82613d36565b604082019050919050565b60006020820190508181036000830152613dc181613d85565b9050919050565b7f4f776e61626c653a206e6577206f776e657220697320746865207a65726f206160008201527f6464726573730000000000000000000000000000000000000000000000000000602082015250565b6000613e24602683612954565b9150613e2f82613dc8565b604082019050919050565b60006020820190508181036000830152613e5381613e17565b9050919050565b7f455243313135353a2069647320616e6420616d6f756e7473206c656e6774682060008201527f6d69736d61746368000000000000000000000000000000000000000000000000602082015250565b6000613eb6602883612954565b9150613ec182613e5a565b604082019050919050565b60006020820190508181036000830152613ee581613ea9565b9050919050565b7f455243313135353a207472616e7366657220746f20746865207a65726f20616460008201527f6472657373000000000000000000000000000000000000000000000000000000602082015250565b6000613f48602583612954565b9150613f5382613eec565b604082019050919050565b60006020820190508181036000830152613f7781613f3b565b9050919050565b7f455243313135353a20696e73756666696369656e742062616c616e636520666f60008201527f72207472616e7366657200000000000000000000000000000000000000000000602082015250565b6000613fda602a83612954565b9150613fe582613f7e565b604082019050919050565b6000602082019050818103600083015261400981613fcd565b9050919050565b6000604082019050818103600083015261402a8185613114565b9050818103602083015261403e8184613114565b90509392505050565b7f455243313135353a206275726e2066726f6d20746865207a65726f206164647260008201527f6573730000000000000000000000000000000000000000000000000000000000602082015250565b60006140a3602383612954565b91506140ae82614047565b604082019050919050565b600060208201905081810360008301526140d281614096565b9050919050565b7f455243313135353a206275726e20616d6f756e7420657863656564732062616c60008201527f616e636500000000000000000000000000000000000000000000000000000000602082015250565b6000614135602483612954565b9150614140826140d9565b604082019050919050565b6000602082019050818103600083015261416481614128565b9050919050565b60006040820190506141806000830185612ab9565b61418d6020830184612ab9565b9392505050565b7f455243313135353a206d696e7420746f20746865207a65726f2061646472657360008201527f7300000000000000000000000000000000000000000000000000000000000000602082015250565b60006141f0602183612954565b91506141fb82614194565b604082019050919050565b6000602082019050818103600083015261421f816141e3565b9050919050565b600061423182612a43565b915061423c83612a43565b92508282101561424f5761424e613574565b5b828203905092915050565b7f4e487b7100000000000000000000000000000000000000000000000000000000600052603160045260246000fd5b600081519050919050565b600082825260208201905092915050565b60006142b082614289565b6142ba8185614294565b93506142ca818560208601612bd6565b6142d381612c09565b840191505092915050565b600060a0820190506142f36000830188613194565b6143006020830187613194565b81810360408301526143128186613114565b905081810360608301526143268185613114565b9050818103608083015261433a81846142a5565b90509695505050505050565b60008151905061435581612b0f565b92915050565b600060208284031215614371576143706129db565b5b600061437f84828501614346565b91505092915050565b60008160e01c9050919050565b600060033d11156143b45760046000803e6143b1600051614388565b90505b90565b600060443d10156143c75761444a565b6143cf6129d1565b60043d036004823e80513d602482011167ffffffffffffffff821117156143f757505061444a565b808201805167ffffffffffffffff811115614415575050505061444a565b80602083010160043d03850181111561443257505050505061444a565b61444182602001850186612ce1565b82955050505050505b90565b7f455243313135353a207472616e7366657220746f206e6f6e204552433131353560008201527f526563656976657220696d706c656d656e746572000000000000000000000000602082015250565b60006144a9603483612954565b91506144b48261444d565b604082019050919050565b600060208201905081810360008301526144d88161449c565b9050919050565b7f455243313135353a204552433131353552656365697665722072656a6563746560008201527f6420746f6b656e73000000000000000000000000000000000000000000000000602082015250565b600061453b602883612954565b9150614546826144df565b604082019050919050565b6000602082019050818103600083015261456a8161452e565b9050919050565b600060a0820190506145866000830188613194565b6145936020830187613194565b6145a06040830186612ab9565b6145ad6060830185612ab9565b81810360808301526145bf81846142a5565b90509695505050505050565b600081549050919050565b600081905092915050565b60008190508160005260206000209050919050565b6145ff81612c75565b82525050565b60008160001c9050919050565b600061ffff82169050919050565b600061463361462e83614605565b614612565b9050919050565b60008160101c9050919050565b600061465a6146558361463a565b614612565b9050919050565b60008160201c9050919050565b600061468161467c83614661565b614612565b9050919050565b60008160301c9050919050565b60006146a86146a383614688565b614612565b9050919050565b60008160401c9050919050565b60006146cf6146ca836146af565b614612565b9050919050565b60008160501c9050919050565b60006146f66146f1836146d6565b614612565b9050919050565b60008160601c9050919050565b600061471d614718836146fd565b614612565b9050919050565b60008160701c9050919050565b600061474461473f83614724565b614612565b9050919050565b60008160801c9050919050565b600061476b6147668361474b565b614612565b9050919050565b60008160901c9050919050565b600061479261478d83614772565b614612565b9050919050565b60008160a01c9050919050565b60006147b96147b483614799565b614612565b9050919050565b60008160b01c9050919050565b60006147e06147db836147c0565b614612565b9050919050565b60008160c01c9050919050565b6000614807614802836147e7565b614612565b9050919050565b60008160d01c9050919050565b600061482e6148298361480e565b614612565b9050919050565b600061484861484383614388565b614612565b9050919050565b60008160f01c9050919050565b600061486f61486a8361484f565b614612565b9050919050565b6000614881826145cb565b61488b81856145d6565b935083614897846145e1565b6000600115614a44575b83600160100382011015614a435781546148c3886148be83614620565b6145f6565b6020880197506148db886148d683614647565b6145f6565b6020880197506148f3886148ee8361466e565b6145f6565b60208801975061490b8861490683614695565b6145f6565b6020880197506149238861491e836146bc565b6145f6565b60208801975061493b88614936836146e3565b6145f6565b6020880197506149538861494e8361470a565b6145f6565b60208801975061496b8861496683614731565b6145f6565b6020880197506149838861497e83614758565b6145f6565b60208801975061499b886149968361477f565b6145f6565b6020880197506149b3886149ae836147a6565b6145f6565b6020880197506149cb886149c6836147cd565b6145f6565b6020880197506149e3886149de836147f4565b6145f6565b6020880197506149fb886149f68361481b565b6145f6565b602088019750614a1388614a0e83614835565b6145f6565b602088019750614a2b88614a268361485c565b6145f6565b602088019750600183019250506010810190506148a1565b5b600115614cbf57815484821015614a7457614a6788614a6283614620565b6145f6565b6020880197506001820191505b84821015614a9b57614a8e88614a8983614647565b6145f6565b6020880197506001820191505b84821015614ac257614ab588614ab08361466e565b6145f6565b6020880197506001820191505b84821015614ae957614adc88614ad783614695565b6145f6565b6020880197506001820191505b84821015614b1057614b0388614afe836146bc565b6145f6565b6020880197506001820191505b84821015614b3757614b2a88614b25836146e3565b6145f6565b6020880197506001820191505b84821015614b5e57614b5188614b4c8361470a565b6145f6565b6020880197506001820191505b84821015614b8557614b7888614b7383614731565b6145f6565b6020880197506001820191505b84821015614bac57614b9f88614b9a83614758565b6145f6565b6020880197506001820191505b84821015614bd357614bc688614bc18361477f565b6145f6565b6020880197506001820191505b84821015614bfa57614bed88614be8836147a6565b6145f6565b6020880197506001820191505b84821015614c2157614c1488614c0f836147cd565b6145f6565b6020880197506001820191505b84821015614c4857614c3b88614c36836147f4565b6145f6565b6020880197506001820191505b84821015614c6f57614c6288614c5d8361481b565b6145f6565b6020880197506001820191505b84821015614c9657614c8988614c8483614835565b6145f6565b6020880197506001820191505b84821015614cbd57614cb088614cab8361485c565b6145f6565b6020880197506001820191505b505b8694505050505092915050565b6000819050919050565b6000819050919050565b614cf1614cec82614ccc565b614cd6565b82525050565b6000614d02826129e5565b9050919050565b60008160601b9050919050565b6000614d2182614d09565b9050919050565b6000614d3382614d16565b9050919050565b614d4b614d4682614cf7565b614d28565b82525050565b6000819050919050565b614d6c614d6782612a43565b614d51565b82525050565b6000614d7d82614d16565b9050919050565b614d95614d9082612a05565b614d72565b82525050565b6000614da78288614876565b9150614db38287614ce0565b602082019150614dc38286614d3a565b601482019150614dd38285614d5b565b602082019150614de38284614d84565b6014820191508190509695505050505050565b7f4e487b7100000000000000000000000000000000000000000000000000000000600052601260045260246000fd5b6000614e3082612a43565b9150614e3b83612a43565b925082614e4b57614e4a614df6565b5b82820690509291505056fea2646970667358221220ab53519b61ef8dc840d71a7e7c486a1d2fb0c1515013a885370fded2bb938fa264736f6c634300080a003368747470733a2f2f6d6574612e636f696e6c616e6465722e6f6e652f6b6565706572735661756c742f7b69647d2e6a736f6e",
  "linkReferences": {},
  "deployedLinkReferences": {}
}