{
  "_format": "hh-sol-artifact-1",
  "contractName": "Vault",
  "sourceName": "contracts/Vault.sol",
  "abi": [
    {
      "inputs": [
        {
          "internalType": "address",
          "name": "_randomnessOracle",
          "type": "address"
        }
      ],
      "stateMutability": "nonpayable",
      "type": "constructor"
    },
    {
      "anonymous": false,
      "inputs": [
        {
          "indexed": true,
          "internalType": "address",
          "name": "account",
          "type": "address"
        },
        {
          "indexed": true,
          "internalType": "address",
          "name": "operator",
          "type": "address"
        },
        {
          "indexed": false,
          "internalType": "bool",
          "name": "approved",
          "type": "bool"
        }
      ],
      "name": "ApprovalForAll",
      "type": "event"
    },
    {
      "anonymous": false,
      "inputs": [
        {
          "indexed": true,
          "internalType": "address",
          "name": "previousOwner",
          "type": "address"
        },
        {
          "indexed": true,
          "internalType": "address",
          "name": "newOwner",
          "type": "address"
        }
      ],
      "name": "OwnershipTransferred",
      "type": "event"
    },
    {
      "anonymous": false,
      "inputs": [
        {
          "indexed": false,
          "internalType": "uint16",
          "name": "requestId",
          "type": "uint16"
        },
        {
          "indexed": false,
          "internalType": "uint16",
          "name": "result",
          "type": "uint16"
        }
      ],
      "name": "RandomnessFulfilled",
      "type": "event"
    },
    {
      "anonymous": false,
      "inputs": [
        {
          "indexed": false,
          "internalType": "address",
          "name": "currentOracle",
          "type": "address"
        },
        {
          "indexed": false,
          "internalType": "address",
          "name": "newOracle",
          "type": "address"
        }
      ],
      "name": "RandomnessOracleChanged",
      "type": "event"
    },
    {
      "anonymous": false,
      "inputs": [
        {
          "indexed": false,
          "internalType": "address",
          "name": "requester",
          "type": "address"
        },
        {
          "indexed": false,
          "internalType": "uint16",
          "name": "requestId",
          "type": "uint16"
        }
      ],
      "name": "RandomnessRequested",
      "type": "event"
    },
    {
      "anonymous": false,
      "inputs": [
        {
          "indexed": true,
          "internalType": "address",
          "name": "operator",
          "type": "address"
        },
        {
          "indexed": true,
          "internalType": "address",
          "name": "from",
          "type": "address"
        },
        {
          "indexed": true,
          "internalType": "address",
          "name": "to",
          "type": "address"
        },
        {
          "indexed": false,
          "internalType": "uint256[]",
          "name": "ids",
          "type": "uint256[]"
        },
        {
          "indexed": false,
          "internalType": "uint256[]",
          "name": "values",
          "type": "uint256[]"
        }
      ],
      "name": "TransferBatch",
      "type": "event"
    },
    {
      "anonymous": false,
      "inputs": [
        {
          "indexed": true,
          "internalType": "address",
          "name": "operator",
          "type": "address"
        },
        {
          "indexed": true,
          "internalType": "address",
          "name": "from",
          "type": "address"
        },
        {
          "indexed": true,
          "internalType": "address",
          "name": "to",
          "type": "address"
        },
        {
          "indexed": false,
          "internalType": "uint256",
          "name": "id",
          "type": "uint256"
        },
        {
          "indexed": false,
          "internalType": "uint256",
          "name": "value",
          "type": "uint256"
        }
      ],
      "name": "TransferSingle",
      "type": "event"
    },
    {
      "anonymous": false,
      "inputs": [
        {
          "indexed": false,
          "internalType": "string",
          "name": "value",
          "type": "string"
        },
        {
          "indexed": true,
          "internalType": "uint256",
          "name": "id",
          "type": "uint256"
        }
      ],
      "name": "URI",
      "type": "event"
    },
    {
      "anonymous": false,
      "inputs": [
        {
          "indexed": false,
          "internalType": "address",
          "name": "winner",
          "type": "address"
        }
      ],
      "name": "VaultUnlocked",
      "type": "event"
    },
    {
      "inputs": [],
      "name": "FRAGMENT1",
      "outputs": [
        {
          "internalType": "uint256",
          "name": "",
          "type": "uint256"
        }
      ],
      "stateMutability": "view",
      "type": "function"
    },
    {
      "inputs": [],
      "name": "FRAGMENT2",
      "outputs": [
        {
          "internalType": "uint256",
          "name": "",
          "type": "uint256"
        }
      ],
      "stateMutability": "view",
      "type": "function"
    },
    {
      "inputs": [],
      "name": "FRAGMENT3",
      "outputs": [
        {
          "internalType": "uint256",
          "name": "",
          "type": "uint256"
        }
      ],
      "stateMutability": "view",
      "type": "function"
    },
    {
      "inputs": [],
      "name": "FRAGMENT4",
      "outputs": [
        {
          "internalType": "uint256",
          "name": "",
          "type": "uint256"
        }
      ],
      "stateMutability": "view",
      "type": "function"
    },
    {
      "inputs": [],
      "name": "FRAGMENT5",
      "outputs": [
        {
          "internalType": "uint256",
          "name": "",
          "type": "uint256"
        }
      ],
      "stateMutability": "view",
      "type": "function"
    },
    {
      "inputs": [],
      "name": "FRAGMENT6",
      "outputs": [
        {
          "internalType": "uint256",
          "name": "",
          "type": "uint256"
        }
      ],
      "stateMutability": "view",
      "type": "function"
    },
    {
      "inputs": [],
      "name": "FRAGMENT7",
      "outputs": [
        {
          "internalType": "uint256",
          "name": "",
          "type": "uint256"
        }
      ],
      "stateMutability": "view",
      "type": "function"
    },
    {
      "inputs": [],
      "name": "FRAGMENT8",
      "outputs": [
        {
          "internalType": "uint256",
          "name": "",
          "type": "uint256"
        }
      ],
      "stateMutability": "view",
      "type": "function"
    },
    {
      "inputs": [],
      "name": "KEY",
      "outputs": [
        {
          "internalType": "uint256",
          "name": "",
          "type": "uint256"
        }
      ],
      "stateMutability": "view",
      "type": "function"
    },
    {
      "inputs": [],
      "name": "MAXFRAGMENTS",
      "outputs": [
        {
          "internalType": "uint16",
          "name": "",
          "type": "uint16"
        }
      ],
      "stateMutability": "view",
      "type": "function"
    },
    {
      "inputs": [
        {
          "internalType": "address",
          "name": "account",
          "type": "address"
        },
        {
          "internalType": "uint256",
          "name": "id",
          "type": "uint256"
        }
      ],
      "name": "balanceOf",
      "outputs": [
        {
          "internalType": "uint256",
          "name": "",
          "type": "uint256"
        }
      ],
      "stateMutability": "view",
      "type": "function"
    },
    {
      "inputs": [
        {
          "internalType": "address[]",
          "name": "accounts",
          "type": "address[]"
        },
        {
          "internalType": "uint256[]",
          "name": "ids",
          "type": "uint256[]"
        }
      ],
      "name": "balanceOfBatch",
      "outputs": [
        {
          "internalType": "uint256[]",
          "name": "",
          "type": "uint256[]"
        }
      ],
      "stateMutability": "view",
      "type": "function"
    },
    {
      "inputs": [
        {
          "internalType": "string",
          "name": "_newURI",
          "type": "string"
        }
      ],
      "name": "changeURI",
      "outputs": [],
      "stateMutability": "nonpayable",
      "type": "function"
    },
    {
      "inputs": [],
      "name": "claimFragments",
      "outputs": [],
      "stateMutability": "nonpayable",
      "type": "function"
    },
    {
      "inputs": [],
      "name": "claimKeepersVault",
      "outputs": [],
      "stateMutability": "nonpayable",
      "type": "function"
    },
    {
      "inputs": [
        {
          "internalType": "address",
          "name": "",
          "type": "address"
        },
        {
          "internalType": "uint256",
          "name": "",
          "type": "uint256"
        }
      ],
      "name": "claimables",
      "outputs": [
        {
          "internalType": "uint16",
          "name": "",
          "type": "uint16"
        }
      ],
      "stateMutability": "view",
      "type": "function"
    },
    {
      "inputs": [],
      "name": "contractURI",
      "outputs": [
        {
          "internalType": "string",
          "name": "",
          "type": "string"
        }
      ],
      "stateMutability": "view",
      "type": "function"
    },
    {
      "inputs": [
        {
          "internalType": "uint16",
          "name": "_requestId",
          "type": "uint16"
        }
      ],
      "name": "fulfillRequest",
      "outputs": [],
      "stateMutability": "nonpayable",
      "type": "function"
    },
    {
      "inputs": [],
      "name": "fundPrizePurse",
      "outputs": [],
      "stateMutability": "payable",
      "type": "function"
    },
    {
      "inputs": [],
      "name": "gameContract",
      "outputs": [
        {
          "internalType": "address",
          "name": "",
          "type": "address"
        }
      ],
      "stateMutability": "view",
      "type": "function"
    },
    {
      "inputs": [],
      "name": "gameWon",
      "outputs": [
        {
          "internalType": "bool",
          "name": "",
          "type": "bool"
        }
      ],
      "stateMutability": "view",
      "type": "function"
    },
    {
      "inputs": [
        {
          "internalType": "address",
          "name": "account",
          "type": "address"
        },
        {
          "internalType": "address",
          "name": "operator",
          "type": "address"
        }
      ],
      "name": "isApprovedForAll",
      "outputs": [
        {
          "internalType": "bool",
          "name": "",
          "type": "bool"
        }
      ],
      "stateMutability": "view",
      "type": "function"
    },
    {
      "inputs": [],
      "name": "numT1",
      "outputs": [
        {
          "internalType": "uint16",
          "name": "",
          "type": "uint16"
        }
      ],
      "stateMutability": "view",
      "type": "function"
    },
    {
      "inputs": [],
      "name": "numT2",
      "outputs": [
        {
          "internalType": "uint16",
          "name": "",
          "type": "uint16"
        }
      ],
      "stateMutability": "view",
      "type": "function"
    },
    {
      "inputs": [],
      "name": "numT3",
      "outputs": [
        {
          "internalType": "uint16",
          "name": "",
          "type": "uint16"
        }
      ],
      "stateMutability": "view",
      "type": "function"
    },
    {
      "inputs": [],
      "name": "numT4",
      "outputs": [
        {
          "internalType": "uint16",
          "name": "",
          "type": "uint16"
        }
      ],
      "stateMutability": "view",
      "type": "function"
    },
    {
      "inputs": [],
      "name": "numT5",
      "outputs": [
        {
          "internalType": "uint16",
          "name": "",
          "type": "uint16"
        }
      ],
      "stateMutability": "view",
      "type": "function"
    },
    {
      "inputs": [],
      "name": "numT6",
      "outputs": [
        {
          "internalType": "uint16",
          "name": "",
          "type": "uint16"
        }
      ],
      "stateMutability": "view",
      "type": "function"
    },
    {
      "inputs": [],
      "name": "numT7",
      "outputs": [
        {
          "internalType": "uint16",
          "name": "",
          "type": "uint16"
        }
      ],
      "stateMutability": "view",
      "type": "function"
    },
    {
      "inputs": [],
      "name": "numT8",
      "outputs": [
        {
          "internalType": "uint16",
          "name": "",
          "type": "uint16"
        }
      ],
      "stateMutability": "view",
      "type": "function"
    },
    {
      "inputs": [],
      "name": "owner",
      "outputs": [
        {
          "internalType": "address",
          "name": "",
          "type": "address"
        }
      ],
      "stateMutability": "view",
      "type": "function"
    },
    {
      "inputs": [],
      "name": "prize",
      "outputs": [
        {
          "internalType": "uint256",
          "name": "",
          "type": "uint256"
        }
      ],
      "stateMutability": "view",
      "type": "function"
    },
    {
      "inputs": [],
      "name": "randomnessOracle",
      "outputs": [
        {
          "internalType": "address",
          "name": "",
          "type": "address"
        }
      ],
      "stateMutability": "view",
      "type": "function"
    },
    {
      "inputs": [],
      "name": "renounceOwnership",
      "outputs": [],
      "stateMutability": "nonpayable",
      "type": "function"
    },
    {
      "inputs": [
        {
          "internalType": "address",
          "name": "_requester",
          "type": "address"
        },
        {
          "internalType": "uint256",
          "name": "amount",
          "type": "uint256"
        }
      ],
      "name": "requestFragments",
      "outputs": [],
      "stateMutability": "nonpayable",
      "type": "function"
    },
    {
      "inputs": [
        {
          "internalType": "uint16",
          "name": "",
          "type": "uint16"
        }
      ],
      "name": "requestFulfillments",
      "outputs": [
        {
          "internalType": "bool",
          "name": "fulfilled",
          "type": "bool"
        },
        {
          "internalType": "address",
          "name": "requester",
          "type": "address"
        }
      ],
      "stateMutability": "view",
      "type": "function"
    },
    {
      "inputs": [],
      "name": "requestId",
      "outputs": [
        {
          "internalType": "uint16",
          "name": "",
          "type": "uint16"
        }
      ],
      "stateMutability": "view",
      "type": "function"
    },
    {
      "inputs": [
        {
          "internalType": "address",
          "name": "from",
          "type": "address"
        },
        {
          "internalType": "address",
          "name": "to",
          "type": "address"
        },
        {
          "internalType": "uint256[]",
          "name": "ids",
          "type": "uint256[]"
        },
        {
          "internalType": "uint256[]",
          "name": "amounts",
          "type": "uint256[]"
        },
        {
          "internalType": "bytes",
          "name": "data",
          "type": "bytes"
        }
      ],
      "name": "safeBatchTransferFrom",
      "outputs": [],
      "stateMutability": "nonpayable",
      "type": "function"
    },
    {
      "inputs": [
        {
          "internalType": "address",
          "name": "from",
          "type": "address"
        },
        {
          "internalType": "address",
          "name": "to",
          "type": "address"
        },
        {
          "internalType": "uint256",
          "name": "id",
          "type": "uint256"
        },
        {
          "internalType": "uint256",
          "name": "amount",
          "type": "uint256"
        },
        {
          "internalType": "bytes",
          "name": "data",
          "type": "bytes"
        }
      ],
      "name": "safeTransferFrom",
      "outputs": [],
      "stateMutability": "nonpayable",
      "type": "function"
    },
    {
      "inputs": [
        {
          "internalType": "address",
          "name": "operator",
          "type": "address"
        },
        {
          "internalType": "bool",
          "name": "approved",
          "type": "bool"
        }
      ],
      "name": "setApprovalForAll",
      "outputs": [],
      "stateMutability": "nonpayable",
      "type": "function"
    },
    {
      "inputs": [
        {
          "internalType": "string",
          "name": "newContractURI",
          "type": "string"
        }
      ],
      "name": "setContractURI",
      "outputs": [],
      "stateMutability": "nonpayable",
      "type": "function"
    },
    {
      "inputs": [
        {
          "internalType": "address",
          "name": "_gameContract",
          "type": "address"
        }
      ],
      "name": "setGameContract",
      "outputs": [],
      "stateMutability": "nonpayable",
      "type": "function"
    },
    {
      "inputs": [
        {
          "internalType": "address",
          "name": "newOracle",
          "type": "address"
        }
      ],
      "name": "setRandomnessOracle",
      "outputs": [],
      "stateMutability": "nonpayable",
      "type": "function"
    },
    {
      "inputs": [],
      "name": "setSweetRelease",
      "outputs": [],
      "stateMutability": "nonpayable",
      "type": "function"
    },
    {
      "inputs": [
        {
          "internalType": "bytes4",
          "name": "interfaceId",
          "type": "bytes4"
        }
      ],
      "name": "supportsInterface",
      "outputs": [
        {
          "internalType": "bool",
          "name": "",
          "type": "bool"
        }
      ],
      "stateMutability": "view",
      "type": "function"
    },
    {
      "inputs": [],
      "name": "sweetRelease",
      "outputs": [
        {
          "internalType": "bool",
          "name": "",
          "type": "bool"
        }
      ],
      "stateMutability": "view",
      "type": "function"
    },
    {
      "inputs": [
        {
          "internalType": "address",
          "name": "newOwner",
          "type": "address"
        }
      ],
      "name": "transferOwnership",
      "outputs": [],
      "stateMutability": "nonpayable",
      "type": "function"
    },
    {
      "inputs": [
        {
          "internalType": "uint256",
          "name": "",
          "type": "uint256"
        }
      ],
      "name": "uri",
      "outputs": [
        {
          "internalType": "string",
          "name": "",
          "type": "string"
        }
      ],
      "stateMutability": "view",
      "type": "function"
    },
    {
      "stateMutability": "payable",
      "type": "receive"
    }
  ],
  "bytecode": "0x60806040526000600655600780546001600160b01b03191690553480156200002657600080fd5b5060405162003eae38038062003eae8339810160408190526200004991620005a9565b6040518060600160405280602a815260200162003e84602a91396200006e8162000498565b506200007a33620004b1565b600160045560005b600361ffff82161015620000e6576005805460018101825560009190915260008051602062003e6483398151915260108204018054600f9092166002026101000a61ffff810219909216909117905580620000dd81620005f1565b91505062000082565b5060005b600a61ffff8216101562000153576005805460018101825560009190915260008051602062003e648339815191526010820401805461ffff6002600f90941684026101000a908102199091169202919091179055806200014a81620005f1565b915050620000ea565b5060005b600a61ffff82161015620001c0576005805460018101825560009190915260008051602062003e648339815191526010820401805461ffff600f9093166002026101000a9283021916600390920291909117905580620001b781620005f1565b91505062000157565b5060005b603261ffff821610156200022d576005805460018101825560009190915260008051602062003e648339815191526010820401805461ffff600f9093166002026101000a92830219166004909202919091179055806200022481620005f1565b915050620001c4565b5060005b606461ffff82161015620002955760058054600181018255600082905260008051602062003e648339815191526010820401805461ffff600f9093166002026101000a928302191691909202179055806200028c81620005f1565b91505062000231565b5060005b606f61ffff8216101562000302576005805460018101825560009190915260008051602062003e648339815191526010820401805461ffff600f9093166002026101000a9283021916600690920291909117905580620002f981620005f1565b91505062000299565b5060005b60de61ffff821610156200036f576005805460018101825560009190915260008051602062003e648339815191526010820401805461ffff600f9093166002026101000a92830219166007909202919091179055806200036681620005f1565b91505062000306565b5060005b60de606f60646032600a806200038d600361045762000616565b62000399919062000616565b620003a5919062000616565b620003b1919062000616565b620003bd919062000616565b620003c9919062000616565b620003d5919062000616565b61ffff168161ffff16101562000440576005805460018101825560009190915260008051602062003e648339815191526010820401805461ffff600f9093166002026101000a92830219166008909202919091179055806200043781620005f1565b91505062000373565b5060405180606001604052806025815260200162003e3f602591398051620004719160089160209091019062000503565b50600980546001600160a01b0319166001600160a01b039290921691909117905562000679565b8051620004ad90600290602084019062000503565b5050565b600380546001600160a01b038381166001600160a01b0319831681179093556040519116919082907f8be0079c531659141344cd1fd0a4f28419497f9722a3daafe3b4186f6b6457e090600090a35050565b82805462000511906200063c565b90600052602060002090601f01602090048101928262000535576000855562000580565b82601f106200055057805160ff191683800117855562000580565b8280016001018555821562000580579182015b828111156200058057825182559160200191906001019062000563565b506200058e92915062000592565b5090565b5b808211156200058e576000815560010162000593565b600060208284031215620005bc57600080fd5b81516001600160a01b0381168114620005d457600080fd5b9392505050565b634e487b7160e01b600052601160045260246000fd5b600061ffff808316818114156200060c576200060c620005db565b6001019392505050565b600061ffff83811690831681811015620006345762000634620005db565b039392505050565b600181811c908216806200065157607f821691505b602082108114156200067357634e487b7160e01b600052602260045260246000fd5b50919050565b6137b680620006896000396000f3fe6080604052600436106103155760003560e01c806392f393f81161019a578063e04a4ea6116100e1578063ef3af2751161008a578063f468993611610064578063f46899361461086c578063ffd807d214610882578063fff1f8921461089757600080fd5b8063ef3af27514610817578063f242432a1461082c578063f2fde38b1461084c57600080fd5b8063e8a3d485116100bb578063e8a3d485146107a4578063e985e9c5146107b9578063edd47abf1461080257600080fd5b8063e04a4ea614610759578063e3ac5d261461076e578063e5e01c111461078457600080fd5b8063aea876c011610143578063c306219d1161011d578063c306219d14610709578063d3f330091461071e578063d92e93c81461074457600080fd5b8063aea876c0146106ca578063b0538dae146106df578063b582aab0146106f457600080fd5b8063a22cb46511610174578063a22cb46514610695578063a6d24b6d1461044c578063ae3c1597146106b557600080fd5b806392f393f814610658578063938e3d7b1461066057806397b578b11461068057600080fd5b8063405ebd4d1161025e578063715018a6116102075780638da5cb5b116101e15780638da5cb5b146106105780638dd3503e1461062e5780638f9352ba1461064357600080fd5b8063715018a6146105a35780637280ef69146105b857806382283600146105f057600080fd5b8063524a122411610238578063524a12241461055a5780635445941f1461056f5780636d00e2331461058e57600080fd5b8063405ebd4d146104f85780634c1299c6146105185780634e1273f41461052d57600080fd5b80631ceea796116102c05780632dc387b31161029a5780632dc387b3146104a35780632eb2c2d6146104b8578063335f35a7146104d857600080fd5b80631ceea7961461044c57806327ddc9c1146104615780632d2184061461048357600080fd5b8063069a825c116102f1578063069a825c146103f05780630e89341c1461040a5780631a20cef81461043757600080fd5b80626d6cae14610358578062fdd58e1461039257806301ffc9a7146103c057600080fd5b366103535760405162461bcd60e51b8152602060048201526009602482015268114b4c0c0c8b4c0c4d60ba1b60448201526064015b60405180910390fd5b600080fd5b34801561036457600080fd5b5060095461037a90600160a01b900461ffff1681565b60405161ffff90911681526020015b60405180910390f35b34801561039e57600080fd5b506103b26103ad366004612bdc565b6108f6565b604051908152602001610389565b3480156103cc57600080fd5b506103e06103db366004612c1c565b61099a565b6040519015158152602001610389565b3480156103fc57600080fd5b506007546103e09060ff1681565b34801561041657600080fd5b5061042a610425366004612c39565b610a37565b6040516103899190612c9f565b34801561044357600080fd5b5061037a600381565b34801561045857600080fd5b5061037a600a81565b34801561046d57600080fd5b5061048161047c366004612cb2565b610acb565b005b34801561048f57600080fd5b5061048161049e366004612bdc565b610b9b565b3480156104af57600080fd5b506103b2600081565b3480156104c457600080fd5b506104816104d3366004612e19565b610d86565b3480156104e457600080fd5b5061037a6104f3366004612bdc565b610e28565b34801561050457600080fd5b50610481610513366004612cb2565b610e6f565b34801561052457600080fd5b5061037a603281565b34801561053957600080fd5b5061054d610548366004612ec3565b610f09565b6040516103899190612fc9565b34801561056657600080fd5b506103b2600281565b34801561057b57600080fd5b506007546103e090610100900460ff1681565b34801561059a57600080fd5b506103b2600781565b3480156105af57600080fd5b50610481611047565b3480156105c457600080fd5b506009546105d8906001600160a01b031681565b6040516001600160a01b039091168152602001610389565b3480156105fc57600080fd5b5061048161060b366004612fdc565b6110ad565b34801561061c57600080fd5b506003546001600160a01b03166105d8565b34801561063a57600080fd5b506103b2600381565b34801561064f57600080fd5b506103b2600581565b610481611431565b34801561066c57600080fd5b5061048161067b366004613000565b61144a565b34801561068c57600080fd5b5061037a60de81565b3480156106a157600080fd5b506104816106b0366004613072565b6114b0565b3480156106c157600080fd5b5061048161159b565b3480156106d657600080fd5b5061037a606481565b3480156106eb57600080fd5b506103b2600881565b34801561070057600080fd5b5061037a611b26565b34801561071557600080fd5b506103b2600681565b34801561072a57600080fd5b506007546105d8906201000090046001600160a01b031681565b34801561075057600080fd5b50610481611b7d565b34801561076557600080fd5b506103b2600481565b34801561077a57600080fd5b506103b260065481565b34801561079057600080fd5b5061048161079f366004613000565b611cf1565b3480156107b057600080fd5b5061042a611d8e565b3480156107c557600080fd5b506103e06107d43660046130ae565b6001600160a01b03918216600090815260016020908152604080832093909416825291909152205460ff1690565b34801561080e57600080fd5b50610481611e20565b34801561082357600080fd5b506103b2600181565b34801561083857600080fd5b506104816108473660046130e1565b611e7d565b34801561085857600080fd5b50610481610867366004612cb2565b611f18565b34801561087857600080fd5b5061037a61045781565b34801561088e57600080fd5b5061037a606f81565b3480156108a357600080fd5b506108d76108b2366004612fdc565b600b6020526000908152604090205460ff81169061010090046001600160a01b031682565b6040805192151583526001600160a01b03909116602083015201610389565b60006001600160a01b0383166109745760405162461bcd60e51b815260206004820152602b60248201527f455243313135353a2062616c616e636520717565727920666f7220746865207a60448201527f65726f2061646472657373000000000000000000000000000000000000000000606482015260840161034a565b506000908152602081815260408083206001600160a01b03949094168352929052205490565b60006001600160e01b031982167fd9b67a260000000000000000000000000000000000000000000000000000000014806109fd57506001600160e01b031982167f0e89341c00000000000000000000000000000000000000000000000000000000145b80610a3157507f01ffc9a7000000000000000000000000000000000000000000000000000000006001600160e01b03198316145b92915050565b606060028054610a4690613146565b80601f0160208091040260200160405190810160405280929190818152602001828054610a7290613146565b8015610abf5780601f10610a9457610100808354040283529160200191610abf565b820191906000526020600020905b815481529060010190602001808311610aa257829003601f168201915b50505050509050919050565b6003546001600160a01b03163314610b255760405162461bcd60e51b815260206004820181905260248201527f4f776e61626c653a2063616c6c6572206973206e6f7420746865206f776e6572604482015260640161034a565b600954604080516001600160a01b03928316815291831660208301527fe7e90c05da58ad509b126f5c5ce8c90551c45f8d998679deb7154a66092c12b3910160405180910390a16009805473ffffffffffffffffffffffffffffffffffffffff19166001600160a01b0392909216919091179055565b6007546201000090046001600160a01b03163314610be75760405162461bcd60e51b8152602060048201526009602482015268452d3030322d30313560b81b604482015260640161034a565b6009546005548291610c0591600160b01b90910461ffff1690613197565b1015610c535760405162461bcd60e51b815260206004820152600960248201527f452d3030322d3030390000000000000000000000000000000000000000000000604482015260640161034a565b60005b81811015610d815760098054600160a01b900461ffff16906014610c79836131ae565b91906101000a81548161ffff021916908361ffff160217905550506009601681819054906101000a900461ffff1680929190610cb4906131ae565b82546101009290920a61ffff818102199093169183160217909155600954604080516001600160a01b0388168152600160a01b90920490921660208201527f792116194a9c99a8e97047b42c4fbee03694bcb41a0d0b4b4ab5c7352577812d92500160405180910390a1600954600160a01b900461ffff166000908152600b6020526040902080547fffffffffffffffffffffff0000000000000000000000000000000000000000ff166101006001600160a01b0386160217905580610d79816131d0565b915050610c56565b505050565b6001600160a01b038516331480610da25750610da285336107d4565b610e145760405162461bcd60e51b815260206004820152603260248201527f455243313135353a207472616e736665722063616c6c6572206973206e6f742060448201527f6f776e6572206e6f7220617070726f7665640000000000000000000000000000606482015260840161034a565b610e218585858585611ffa565b5050505050565b600a6020528160005260406000208181548110610e4457600080fd5b9060005260206000209060109182820401919006600202915091509054906101000a900461ffff1681565b6003546001600160a01b03163314610ec95760405162461bcd60e51b815260206004820181905260248201527f4f776e61626c653a2063616c6c6572206973206e6f7420746865206f776e6572604482015260640161034a565b600780546001600160a01b0390921662010000027fffffffffffffffffffff0000000000000000000000000000000000000000ffff909216919091179055565b60608151835114610f825760405162461bcd60e51b815260206004820152602960248201527f455243313135353a206163636f756e747320616e6420696473206c656e67746860448201527f206d69736d617463680000000000000000000000000000000000000000000000606482015260840161034a565b6000835167ffffffffffffffff811115610f9e57610f9e612ccd565b604051908082528060200260200182016040528015610fc7578160200160208202803683370190505b50905060005b845181101561103f57611012858281518110610feb57610feb6131eb565b6020026020010151858381518110611005576110056131eb565b60200260200101516108f6565b828281518110611024576110246131eb565b6020908102919091010152611038816131d0565b9050610fcd565b509392505050565b6003546001600160a01b031633146110a15760405162461bcd60e51b815260206004820181905260248201527f4f776e61626c653a2063616c6c6572206973206e6f7420746865206f776e6572604482015260640161034a565b6110ab600061226d565b565b6009546001600160a01b031633146111075760405162461bcd60e51b815260206004820152600a60248201527f452d3030322d3030313600000000000000000000000000000000000000000000604482015260640161034a565b61ffff81166000908152600b602052604090205460ff161561116b5760405162461bcd60e51b815260206004820152600960248201527f452d3030322d3031370000000000000000000000000000000000000000000000604482015260640161034a565b600954600160b01b900461ffff166111c55760405162461bcd60e51b815260206004820152600960248201527f452d3030322d3031390000000000000000000000000000000000000000000000604482015260640161034a565b60095461ffff600160a01b909104811690821611156112265760405162461bcd60e51b815260206004820152600960248201527f452d3030322d3032300000000000000000000000000000000000000000000000604482015260640161034a565b61ffff8082166000908152600b60205260409020805460ff1916600117905560098054600160b01b900490911690601661125f83613201565b91906101000a81548161ffff021916908361ffff16021790555050600061128660056122cc565b905060006005828154811061129d5761129d6131eb565b90600052602060002090601091828204019190066002029054906101000a900461ffff169050600560016005805490506112d79190613197565b815481106112e7576112e76131eb565b90600052602060002090601091828204019190066002029054906101000a900461ffff166005838154811061131e5761131e6131eb565b90600052602060002090601091828204019190066002026101000a81548161ffff021916908361ffff160217905550600580548061135e5761135e61321f565b600082815260208082206010600019949094018481049091018054600f808416600290810261010090810a61ffff9081021990941690945593909755898116808652600b85526040808720548490046001600160a01b0316808852600a875281882080546001810182559089529787902098880490980180549790991690940290920a808202199095169088169485021790955580519485529084019190915290917ff9ec374d5a34014dc78cce0e6df87a0f5c55ba84e7432ccab2a5493111080184910160405180910390a150505050565b34600660008282546114439190613235565b9091555050565b6003546001600160a01b031633146114a45760405162461bcd60e51b815260206004820181905260248201527f4f776e61626c653a2063616c6c6572206973206e6f7420746865206f776e6572604482015260640161034a565b610d8160088383612a8e565b336001600160a01b038316141561152f5760405162461bcd60e51b815260206004820152602960248201527f455243313135353a2073657474696e6720617070726f76616c2073746174757360448201527f20666f722073656c660000000000000000000000000000000000000000000000606482015260840161034a565b3360008181526001602090815260408083206001600160a01b03871680855290835292819020805460ff191686151590811790915590519081529192917f17307eab39ab6107e8899845ad3d59bd9653f200f220920489ca2b5937696c31910160405180910390a35050565b600260045414156115ee5760405162461bcd60e51b815260206004820152601f60248201527f5265656e7472616e637947756172643a207265656e7472616e742063616c6c00604482015260640161034a565b6002600455600754610100900460ff1661164a5760405162461bcd60e51b815260206004820152600960248201527f452d3030322d3031300000000000000000000000000000000000000000000000604482015260640161034a565b60075460ff161561169d5760405162461bcd60e51b815260206004820152600960248201527f452d3030322d3031310000000000000000000000000000000000000000000000604482015260640161034a565b6000600654116116ef5760405162461bcd60e51b815260206004820152600960248201527f452d3030322d3031320000000000000000000000000000000000000000000000604482015260640161034a565b60006116fc3360016108f6565b116117495760405162461bcd60e51b815260206004820152600960248201527f452d3030322d3030310000000000000000000000000000000000000000000000604482015260640161034a565b60006117563360026108f6565b116117a35760405162461bcd60e51b815260206004820152600960248201527f452d3030322d3030320000000000000000000000000000000000000000000000604482015260640161034a565b60006117b03360036108f6565b116117fd5760405162461bcd60e51b815260206004820152600960248201527f452d3030322d3030330000000000000000000000000000000000000000000000604482015260640161034a565b600061180a3360046108f6565b116118575760405162461bcd60e51b815260206004820152600960248201527f452d3030322d3030340000000000000000000000000000000000000000000000604482015260640161034a565b60006118643360056108f6565b116118b15760405162461bcd60e51b815260206004820152600960248201527f452d3030322d3030350000000000000000000000000000000000000000000000604482015260640161034a565b60006118be3360066108f6565b1161190b5760405162461bcd60e51b815260206004820152600960248201527f452d3030322d3030360000000000000000000000000000000000000000000000604482015260640161034a565b60006119183360076108f6565b116119655760405162461bcd60e51b815260206004820152600960248201527f452d3030322d3030370000000000000000000000000000000000000000000000604482015260640161034a565b60006119723360086108f6565b116119bf5760405162461bcd60e51b815260206004820152600960248201527f452d3030322d3030380000000000000000000000000000000000000000000000604482015260640161034a565b6119cb3360018061231d565b6119d8336002600161231d565b6119e5336003600161231d565b6119f2336004600161231d565b6119ff336005600161231d565b611a0c336006600161231d565b611a19336007600161231d565b611a26336008600161231d565b611a4f33600060016040518060400160405280600381526020016203078360ec1b8152506124ca565b6040513381527fb90f637c9ae38effeea06ad34c58331954898f0d0d4109d30b95e0426b291ff79060200160405180910390a16007805460ff1916600117905560068054600091829055604051909190339083908381818185875af1925050503d8060008114611adb576040519150601f19603f3d011682016040523d82523d6000602084013e611ae0565b606091505b5050905080611b1d5760405162461bcd60e51b8152602060048201526009602482015268114b4c0c0c8b4c0c4d60ba1b604482015260640161034a565b50506001600455565b60de606f60646032600a80611b3e600361045761324d565b611b48919061324d565b611b52919061324d565b611b5c919061324d565b611b66919061324d565b611b70919061324d565b611b7a919061324d565b81565b60026004541415611bd05760405162461bcd60e51b815260206004820152601f60248201527f5265656e7472616e637947756172643a207265656e7472616e742063616c6c00604482015260640161034a565b6002600455336000908152600a6020526040902054611c315760405162461bcd60e51b815260206004820152600960248201527f452d3030322d3031380000000000000000000000000000000000000000000000604482015260640161034a565b60005b336000908152600a6020526040902054811015611cd157336000908152600a60205260408120805483908110611c6c57611c6c6131eb565b90600052602060002090601091828204019190066002029054906101000a900461ffff1661ffff169050611cbe338260016040518060400160405280600381526020016203078360ec1b8152506124ca565b5080611cc9816131d0565b915050611c34565b50336000908152600a60205260408120611cea91612b12565b6001600455565b6003546001600160a01b03163314611d4b5760405162461bcd60e51b815260206004820181905260248201527f4f776e61626c653a2063616c6c6572206973206e6f7420746865206f776e6572604482015260640161034a565b611d8a82828080601f0160208091040260200160405190810160405280939291908181526020018383808284376000920191909152506125f092505050565b5050565b606060088054611d9d90613146565b80601f0160208091040260200160405190810160405280929190818152602001828054611dc990613146565b8015611e165780601f10611deb57610100808354040283529160200191611e16565b820191906000526020600020905b815481529060010190602001808311611df957829003601f168201915b5050505050905090565b6007546201000090046001600160a01b03163314611e6c5760405162461bcd60e51b8152602060048201526009602482015268452d3030322d30313560b81b604482015260640161034a565b6007805461ff001916610100179055565b6001600160a01b038516331480611e995750611e9985336107d4565b611f0b5760405162461bcd60e51b815260206004820152602960248201527f455243313135353a2063616c6c6572206973206e6f74206f776e6572206e6f7260448201527f20617070726f7665640000000000000000000000000000000000000000000000606482015260840161034a565b610e218585858585612603565b6003546001600160a01b03163314611f725760405162461bcd60e51b815260206004820181905260248201527f4f776e61626c653a2063616c6c6572206973206e6f7420746865206f776e6572604482015260640161034a565b6001600160a01b038116611fee5760405162461bcd60e51b815260206004820152602660248201527f4f776e61626c653a206e6577206f776e657220697320746865207a65726f206160448201527f6464726573730000000000000000000000000000000000000000000000000000606482015260840161034a565b611ff78161226d565b50565b81518351146120715760405162461bcd60e51b815260206004820152602860248201527f455243313135353a2069647320616e6420616d6f756e7473206c656e6774682060448201527f6d69736d61746368000000000000000000000000000000000000000000000000606482015260840161034a565b6001600160a01b0384166120d55760405162461bcd60e51b815260206004820152602560248201527f455243313135353a207472616e7366657220746f20746865207a65726f206164604482015264647265737360d81b606482015260840161034a565b3360005b84518110156121ff5760008582815181106120f6576120f66131eb565b602002602001015190506000858381518110612114576121146131eb565b602090810291909101810151600084815280835260408082206001600160a01b038e1683529093529190912054909150818110156121a75760405162461bcd60e51b815260206004820152602a60248201527f455243313135353a20696e73756666696369656e742062616c616e636520666f60448201526939103a3930b739b332b960b11b606482015260840161034a565b6000838152602081815260408083206001600160a01b038e8116855292528083208585039055908b168252812080548492906121e4908490613235565b92505081905550505050806121f8906131d0565b90506120d9565b50846001600160a01b0316866001600160a01b0316826001600160a01b03167f4a39dc06d4c0dbc64b70af90fd698a233a518aa5d07e595d983b8c0526c8f7fb878760405161224f929190613270565b60405180910390a46122658187878787876127a1565b505050505050565b600380546001600160a01b0383811673ffffffffffffffffffffffffffffffffffffffff19831681179093556040519116919082907f8be0079c531659141344cd1fd0a4f28419497f9722a3daafe3b4186f6b6457e090600090a35050565b600080826122db600143613197565b40336040516020016122ef9392919061329e565b60408051601f198184030181529190528051602090910120835490915061231690826135fa565b9392505050565b6001600160a01b0383166123995760405162461bcd60e51b815260206004820152602360248201527f455243313135353a206275726e2066726f6d20746865207a65726f206164647260448201527f6573730000000000000000000000000000000000000000000000000000000000606482015260840161034a565b336123c9818560006123aa87612947565b6123b387612947565b5050604080516020810190915260009052505050565b6000838152602081815260408083206001600160a01b03881684529091529020548281101561245f5760405162461bcd60e51b8152602060048201526024808201527f455243313135353a206275726e20616d6f756e7420657863656564732062616c60448201527f616e636500000000000000000000000000000000000000000000000000000000606482015260840161034a565b6000848152602081815260408083206001600160a01b03898116808652918452828520888703905582518981529384018890529092908616917fc3d58168c5ae7397731d063d5bbf3d657854427343f4c083240f7aacaa2d0f62910160405180910390a45050505050565b6001600160a01b0384166125465760405162461bcd60e51b815260206004820152602160248201527f455243313135353a206d696e7420746f20746865207a65726f2061646472657360448201527f7300000000000000000000000000000000000000000000000000000000000000606482015260840161034a565b336125608160008761255788612947565b610e2188612947565b6000848152602081815260408083206001600160a01b038916845290915281208054859290612590908490613235565b909155505060408051858152602081018590526001600160a01b0380881692600092918516917fc3d58168c5ae7397731d063d5bbf3d657854427343f4c083240f7aacaa2d0f62910160405180910390a4610e2181600087878787612992565b8051611d8a906002906020840190612b37565b6001600160a01b0384166126675760405162461bcd60e51b815260206004820152602560248201527f455243313135353a207472616e7366657220746f20746865207a65726f206164604482015264647265737360d81b606482015260840161034a565b3361267781878761255788612947565b6000848152602081815260408083206001600160a01b038a168452909152902054838110156126fb5760405162461bcd60e51b815260206004820152602a60248201527f455243313135353a20696e73756666696369656e742062616c616e636520666f60448201526939103a3930b739b332b960b11b606482015260840161034a565b6000858152602081815260408083206001600160a01b038b8116855292528083208785039055908816825281208054869290612738908490613235565b909155505060408051868152602081018690526001600160a01b03808916928a821692918616917fc3d58168c5ae7397731d063d5bbf3d657854427343f4c083240f7aacaa2d0f62910160405180910390a4612798828888888888612992565b50505050505050565b6001600160a01b0384163b156122655760405163bc197c8160e01b81526001600160a01b0385169063bc197c81906127e5908990899088908890889060040161361c565b6020604051808303816000875af1925050508015612820575060408051601f3d908101601f1916820190925261281d9181019061367a565b60015b6128d65761282c613697565b806308c379a0141561286657506128416136b3565b8061284c5750612868565b8060405162461bcd60e51b815260040161034a9190612c9f565b505b60405162461bcd60e51b815260206004820152603460248201527f455243313135353a207472616e7366657220746f206e6f6e204552433131353560448201527f526563656976657220696d706c656d656e746572000000000000000000000000606482015260840161034a565b6001600160e01b0319811663bc197c8160e01b146127985760405162461bcd60e51b815260206004820152602860248201527f455243313135353a204552433131353552656365697665722072656a656374656044820152676420746f6b656e7360c01b606482015260840161034a565b60408051600180825281830190925260609160009190602080830190803683370190505090508281600081518110612981576129816131eb565b602090810291909101015292915050565b6001600160a01b0384163b156122655760405163f23a6e6160e01b81526001600160a01b0385169063f23a6e61906129d6908990899088908890889060040161373d565b6020604051808303816000875af1925050508015612a11575060408051601f3d908101601f19168201909252612a0e9181019061367a565b60015b612a1d5761282c613697565b6001600160e01b0319811663f23a6e6160e01b146127985760405162461bcd60e51b815260206004820152602860248201527f455243313135353a204552433131353552656365697665722072656a656374656044820152676420746f6b656e7360c01b606482015260840161034a565b828054612a9a90613146565b90600052602060002090601f016020900481019282612abc5760008555612b02565b82601f10612ad55782800160ff19823516178555612b02565b82800160010185558215612b02579182015b82811115612b02578235825591602001919060010190612ae7565b50612b0e929150612bab565b5090565b50805460008255600f016010900490600052602060002090810190611ff79190612bab565b828054612b4390613146565b90600052602060002090601f016020900481019282612b655760008555612b02565b82601f10612b7e57805160ff1916838001178555612b02565b82800160010185558215612b02579182015b82811115612b02578251825591602001919060010190612b90565b5b80821115612b0e5760008155600101612bac565b80356001600160a01b0381168114612bd757600080fd5b919050565b60008060408385031215612bef57600080fd5b612bf883612bc0565b946020939093013593505050565b6001600160e01b031981168114611ff757600080fd5b600060208284031215612c2e57600080fd5b813561231681612c06565b600060208284031215612c4b57600080fd5b5035919050565b6000815180845260005b81811015612c7857602081850181015186830182015201612c5c565b81811115612c8a576000602083870101525b50601f01601f19169290920160200192915050565b6020815260006123166020830184612c52565b600060208284031215612cc457600080fd5b61231682612bc0565b634e487b7160e01b600052604160045260246000fd5b601f8201601f1916810167ffffffffffffffff81118282101715612d0957612d09612ccd565b6040525050565b600067ffffffffffffffff821115612d2a57612d2a612ccd565b5060051b60200190565b600082601f830112612d4557600080fd5b81356020612d5282612d10565b604051612d5f8282612ce3565b83815260059390931b8501820192828101915086841115612d7f57600080fd5b8286015b84811015612d9a5780358352918301918301612d83565b509695505050505050565b600082601f830112612db657600080fd5b813567ffffffffffffffff811115612dd057612dd0612ccd565b604051612de7601f8301601f191660200182612ce3565b818152846020838601011115612dfc57600080fd5b816020850160208301376000918101602001919091529392505050565b600080600080600060a08688031215612e3157600080fd5b612e3a86612bc0565b9450612e4860208701612bc0565b9350604086013567ffffffffffffffff80821115612e6557600080fd5b612e7189838a01612d34565b94506060880135915080821115612e8757600080fd5b612e9389838a01612d34565b93506080880135915080821115612ea957600080fd5b50612eb688828901612da5565b9150509295509295909350565b60008060408385031215612ed657600080fd5b823567ffffffffffffffff80821115612eee57600080fd5b818501915085601f830112612f0257600080fd5b81356020612f0f82612d10565b604051612f1c8282612ce3565b83815260059390931b8501820192828101915089841115612f3c57600080fd5b948201945b83861015612f6157612f5286612bc0565b82529482019490820190612f41565b96505086013592505080821115612f7757600080fd5b50612f8485828601612d34565b9150509250929050565b600081518084526020808501945080840160005b83811015612fbe57815187529582019590820190600101612fa2565b509495945050505050565b6020815260006123166020830184612f8e565b600060208284031215612fee57600080fd5b813561ffff8116811461231657600080fd5b6000806020838503121561301357600080fd5b823567ffffffffffffffff8082111561302b57600080fd5b818501915085601f83011261303f57600080fd5b81358181111561304e57600080fd5b86602082850101111561306057600080fd5b60209290920196919550909350505050565b6000806040838503121561308557600080fd5b61308e83612bc0565b9150602083013580151581146130a357600080fd5b809150509250929050565b600080604083850312156130c157600080fd5b6130ca83612bc0565b91506130d860208401612bc0565b90509250929050565b600080600080600060a086880312156130f957600080fd5b61310286612bc0565b945061311060208701612bc0565b93506040860135925060608601359150608086013567ffffffffffffffff81111561313a57600080fd5b612eb688828901612da5565b600181811c9082168061315a57607f821691505b6020821081141561317b57634e487b7160e01b600052602260045260246000fd5b50919050565b634e487b7160e01b600052601160045260246000fd5b6000828210156131a9576131a9613181565b500390565b600061ffff808316818114156131c6576131c6613181565b6001019392505050565b60006000198214156131e4576131e4613181565b5060010190565b634e487b7160e01b600052603260045260246000fd5b600061ffff82168061321557613215613181565b6000190192915050565b634e487b7160e01b600052603160045260246000fd5b6000821982111561324857613248613181565b500190565b600061ffff8381169083168181101561326857613268613181565b039392505050565b6040815260006132836040830185612f8e565b82810360208401526132958185612f8e565b95945050505050565b83546000858152602081209091839160005b82600f8201101561340157815461ffff808216865260206132db818801838560101c1661ffff169052565b60406132f08189018486851c1661ffff169052565b60609150613308828901848660301c1661ffff169052565b608061331d818a018587851c1661ffff169052565b60a09150613335828a01858760501c1661ffff169052565b60c061334a818b018688871c1661ffff169052565b60e09350613362848b01868860701c1661ffff169052565b61ffff86831c8616166101008b01526133876101208b01868860901c1661ffff169052565b61ffff86841c8616166101408b01526133ac6101608b01868860b01c1661ffff169052565b61ffff86821c8616166101808b01525050506133d46101a08801838560d01c1661ffff169052565b82901c1661ffff166101c086015260f01c6101e085015261020090930192600191909101906010016132b0565b9054908281101561341d5761ffff821684526020909301926001015b8281101561343a5761ffff601083901c1684526020909301926001015b8281101561345857602082901c61ffff168452602093909301926001015b828110156134755761ffff603083901c1684526020909301926001015b828110156134925761ffff604083901c1684526020909301926001015b828110156134af5761ffff605083901c1684526020909301926001015b828110156134cc5761ffff606083901c1684526020909301926001015b828110156134e95761ffff607083901c1684526020909301926001015b828110156135065761ffff608083901c1684526020909301926001015b828110156135235761ffff609083901c1684526020909301926001015b828110156135405761ffff60a083901c1684526020909301926001015b8281101561355d5761ffff60b083901c1684526020909301926001015b8281101561357a5761ffff60c083901c1684526020909301926001015b828110156135975761ffff60d083901c1684526020909301926001015b828110156135b45761ffff60e083901c1684526020909301926001015b828110156135ca5760f082901c84526020840193505b5050508481526135ee602082018560601b6bffffffffffffffffffffffff19169052565b60340195945050505050565b60008261361757634e487b7160e01b600052601260045260246000fd5b500690565b60006001600160a01b03808816835280871660208401525060a0604083015261364860a0830186612f8e565b828103606084015261365a8186612f8e565b9050828103608084015261366e8185612c52565b98975050505050505050565b60006020828403121561368c57600080fd5b815161231681612c06565b600060033d11156136b05760046000803e5060005160e01c5b90565b600060443d10156136c15790565b6040516003193d81016004833e81513d67ffffffffffffffff81602484011181841117156136f157505050505090565b82850191508151818111156137095750505050505090565b843d87010160208285010111156137235750505050505090565b61373260208286010187612ce3565b509095945050505050565b60006001600160a01b03808816835280871660208401525084604083015283606083015260a0608083015261377560a0830184612c52565b97965050505050505056fea2646970667358221220f300a1c214c1dcfeb3a8f1cfac4beafda7caa4460b45b452a3153b43ed391a0064736f6c634300080a003368747470733a2f2f6170692e636f696e6c616e6465722e6465762f6d6574612f7661756c74036b6384b5eca791c62761152d0c79bb0604c104a5fb6f4eb0703f3154bb3db068747470733a2f2f6170692e636f696e6c616e6465722e6465762f6d6574612f76616c75742f7b69647d",
  "linkReferences": {},
  "deployedLinkReferences": {}
}