{
  "_format": "hh-sol-artifact-1",
  "contractName": "Vault",
  "sourceName": "contracts/Vault.sol",
  "abi": [
    {
      "inputs": [
        {
          "internalType": "address",
          "name": "seekersContract",
          "type": "address"
        }
      ],
      "stateMutability": "nonpayable",
      "type": "constructor"
    },
    {
      "anonymous": false,
      "inputs": [
        {
          "indexed": true,
          "internalType": "address",
          "name": "account",
          "type": "address"
        },
        {
          "indexed": true,
          "internalType": "address",
          "name": "operator",
          "type": "address"
        },
        {
          "indexed": false,
          "internalType": "bool",
          "name": "approved",
          "type": "bool"
        }
      ],
      "name": "ApprovalForAll",
      "type": "event"
    },
    {
      "anonymous": false,
      "inputs": [
        {
          "indexed": true,
          "internalType": "address",
          "name": "previousOwner",
          "type": "address"
        },
        {
          "indexed": true,
          "internalType": "address",
          "name": "newOwner",
          "type": "address"
        }
      ],
      "name": "OwnershipTransferred",
      "type": "event"
    },
    {
      "anonymous": false,
      "inputs": [
        {
          "indexed": true,
          "internalType": "address",
          "name": "operator",
          "type": "address"
        },
        {
          "indexed": true,
          "internalType": "address",
          "name": "from",
          "type": "address"
        },
        {
          "indexed": true,
          "internalType": "address",
          "name": "to",
          "type": "address"
        },
        {
          "indexed": false,
          "internalType": "uint256[]",
          "name": "ids",
          "type": "uint256[]"
        },
        {
          "indexed": false,
          "internalType": "uint256[]",
          "name": "values",
          "type": "uint256[]"
        }
      ],
      "name": "TransferBatch",
      "type": "event"
    },
    {
      "anonymous": false,
      "inputs": [
        {
          "indexed": true,
          "internalType": "address",
          "name": "operator",
          "type": "address"
        },
        {
          "indexed": true,
          "internalType": "address",
          "name": "from",
          "type": "address"
        },
        {
          "indexed": true,
          "internalType": "address",
          "name": "to",
          "type": "address"
        },
        {
          "indexed": false,
          "internalType": "uint256",
          "name": "id",
          "type": "uint256"
        },
        {
          "indexed": false,
          "internalType": "uint256",
          "name": "value",
          "type": "uint256"
        }
      ],
      "name": "TransferSingle",
      "type": "event"
    },
    {
      "anonymous": false,
      "inputs": [
        {
          "indexed": false,
          "internalType": "string",
          "name": "value",
          "type": "string"
        },
        {
          "indexed": true,
          "internalType": "uint256",
          "name": "id",
          "type": "uint256"
        }
      ],
      "name": "URI",
      "type": "event"
    },
    {
      "anonymous": false,
      "inputs": [
        {
          "indexed": false,
          "internalType": "address",
          "name": "winner",
          "type": "address"
        }
      ],
      "name": "VaultUnlocked",
      "type": "event"
    },
    {
      "inputs": [],
      "name": "FRAGMENT1",
      "outputs": [
        {
          "internalType": "uint256",
          "name": "",
          "type": "uint256"
        }
      ],
      "stateMutability": "view",
      "type": "function"
    },
    {
      "inputs": [],
      "name": "FRAGMENT2",
      "outputs": [
        {
          "internalType": "uint256",
          "name": "",
          "type": "uint256"
        }
      ],
      "stateMutability": "view",
      "type": "function"
    },
    {
      "inputs": [],
      "name": "FRAGMENT3",
      "outputs": [
        {
          "internalType": "uint256",
          "name": "",
          "type": "uint256"
        }
      ],
      "stateMutability": "view",
      "type": "function"
    },
    {
      "inputs": [],
      "name": "FRAGMENT4",
      "outputs": [
        {
          "internalType": "uint256",
          "name": "",
          "type": "uint256"
        }
      ],
      "stateMutability": "view",
      "type": "function"
    },
    {
      "inputs": [],
      "name": "FRAGMENT5",
      "outputs": [
        {
          "internalType": "uint256",
          "name": "",
          "type": "uint256"
        }
      ],
      "stateMutability": "view",
      "type": "function"
    },
    {
      "inputs": [],
      "name": "FRAGMENT6",
      "outputs": [
        {
          "internalType": "uint256",
          "name": "",
          "type": "uint256"
        }
      ],
      "stateMutability": "view",
      "type": "function"
    },
    {
      "inputs": [],
      "name": "FRAGMENT7",
      "outputs": [
        {
          "internalType": "uint256",
          "name": "",
          "type": "uint256"
        }
      ],
      "stateMutability": "view",
      "type": "function"
    },
    {
      "inputs": [],
      "name": "FRAGMENT8",
      "outputs": [
        {
          "internalType": "uint256",
          "name": "",
          "type": "uint256"
        }
      ],
      "stateMutability": "view",
      "type": "function"
    },
    {
      "inputs": [],
      "name": "KEY",
      "outputs": [
        {
          "internalType": "uint256",
          "name": "",
          "type": "uint256"
        }
      ],
      "stateMutability": "view",
      "type": "function"
    },
    {
      "inputs": [],
      "name": "MAXFRAGMENTS",
      "outputs": [
        {
          "internalType": "uint16",
          "name": "",
          "type": "uint16"
        }
      ],
      "stateMutability": "view",
      "type": "function"
    },
    {
      "inputs": [
        {
          "internalType": "address",
          "name": "account",
          "type": "address"
        },
        {
          "internalType": "uint256",
          "name": "id",
          "type": "uint256"
        }
      ],
      "name": "balanceOf",
      "outputs": [
        {
          "internalType": "uint256",
          "name": "",
          "type": "uint256"
        }
      ],
      "stateMutability": "view",
      "type": "function"
    },
    {
      "inputs": [
        {
          "internalType": "address[]",
          "name": "accounts",
          "type": "address[]"
        },
        {
          "internalType": "uint256[]",
          "name": "ids",
          "type": "uint256[]"
        }
      ],
      "name": "balanceOfBatch",
      "outputs": [
        {
          "internalType": "uint256[]",
          "name": "",
          "type": "uint256[]"
        }
      ],
      "stateMutability": "view",
      "type": "function"
    },
    {
      "inputs": [],
      "name": "claimKeepersVault",
      "outputs": [],
      "stateMutability": "nonpayable",
      "type": "function"
    },
    {
      "inputs": [],
      "name": "fundPrizePurse",
      "outputs": [],
      "stateMutability": "payable",
      "type": "function"
    },
    {
      "inputs": [],
      "name": "gameWon",
      "outputs": [
        {
          "internalType": "bool",
          "name": "",
          "type": "bool"
        }
      ],
      "stateMutability": "view",
      "type": "function"
    },
    {
      "inputs": [
        {
          "internalType": "address",
          "name": "account",
          "type": "address"
        },
        {
          "internalType": "address",
          "name": "operator",
          "type": "address"
        }
      ],
      "name": "isApprovedForAll",
      "outputs": [
        {
          "internalType": "bool",
          "name": "",
          "type": "bool"
        }
      ],
      "stateMutability": "view",
      "type": "function"
    },
    {
      "inputs": [
        {
          "internalType": "address",
          "name": "_receiver",
          "type": "address"
        },
        {
          "internalType": "uint256",
          "name": "amount",
          "type": "uint256"
        }
      ],
      "name": "mintFragments",
      "outputs": [],
      "stateMutability": "nonpayable",
      "type": "function"
    },
    {
      "inputs": [],
      "name": "numT1",
      "outputs": [
        {
          "internalType": "uint16",
          "name": "",
          "type": "uint16"
        }
      ],
      "stateMutability": "view",
      "type": "function"
    },
    {
      "inputs": [],
      "name": "numT2",
      "outputs": [
        {
          "internalType": "uint16",
          "name": "",
          "type": "uint16"
        }
      ],
      "stateMutability": "view",
      "type": "function"
    },
    {
      "inputs": [],
      "name": "numT3",
      "outputs": [
        {
          "internalType": "uint16",
          "name": "",
          "type": "uint16"
        }
      ],
      "stateMutability": "view",
      "type": "function"
    },
    {
      "inputs": [],
      "name": "numT4",
      "outputs": [
        {
          "internalType": "uint16",
          "name": "",
          "type": "uint16"
        }
      ],
      "stateMutability": "view",
      "type": "function"
    },
    {
      "inputs": [],
      "name": "numT5",
      "outputs": [
        {
          "internalType": "uint16",
          "name": "",
          "type": "uint16"
        }
      ],
      "stateMutability": "view",
      "type": "function"
    },
    {
      "inputs": [],
      "name": "numT6",
      "outputs": [
        {
          "internalType": "uint16",
          "name": "",
          "type": "uint16"
        }
      ],
      "stateMutability": "view",
      "type": "function"
    },
    {
      "inputs": [],
      "name": "numT7",
      "outputs": [
        {
          "internalType": "uint16",
          "name": "",
          "type": "uint16"
        }
      ],
      "stateMutability": "view",
      "type": "function"
    },
    {
      "inputs": [],
      "name": "numT8",
      "outputs": [
        {
          "internalType": "uint16",
          "name": "",
          "type": "uint16"
        }
      ],
      "stateMutability": "view",
      "type": "function"
    },
    {
      "inputs": [],
      "name": "owner",
      "outputs": [
        {
          "internalType": "address",
          "name": "",
          "type": "address"
        }
      ],
      "stateMutability": "view",
      "type": "function"
    },
    {
      "inputs": [],
      "name": "prize",
      "outputs": [
        {
          "internalType": "uint256",
          "name": "",
          "type": "uint256"
        }
      ],
      "stateMutability": "view",
      "type": "function"
    },
    {
      "inputs": [],
      "name": "renounceOwnership",
      "outputs": [],
      "stateMutability": "nonpayable",
      "type": "function"
    },
    {
      "inputs": [
        {
          "internalType": "address",
          "name": "from",
          "type": "address"
        },
        {
          "internalType": "address",
          "name": "to",
          "type": "address"
        },
        {
          "internalType": "uint256[]",
          "name": "ids",
          "type": "uint256[]"
        },
        {
          "internalType": "uint256[]",
          "name": "amounts",
          "type": "uint256[]"
        },
        {
          "internalType": "bytes",
          "name": "data",
          "type": "bytes"
        }
      ],
      "name": "safeBatchTransferFrom",
      "outputs": [],
      "stateMutability": "nonpayable",
      "type": "function"
    },
    {
      "inputs": [
        {
          "internalType": "address",
          "name": "from",
          "type": "address"
        },
        {
          "internalType": "address",
          "name": "to",
          "type": "address"
        },
        {
          "internalType": "uint256",
          "name": "id",
          "type": "uint256"
        },
        {
          "internalType": "uint256",
          "name": "amount",
          "type": "uint256"
        },
        {
          "internalType": "bytes",
          "name": "data",
          "type": "bytes"
        }
      ],
      "name": "safeTransferFrom",
      "outputs": [],
      "stateMutability": "nonpayable",
      "type": "function"
    },
    {
      "inputs": [],
      "name": "seekers",
      "outputs": [
        {
          "internalType": "contract iSeekers",
          "name": "",
          "type": "address"
        }
      ],
      "stateMutability": "view",
      "type": "function"
    },
    {
      "inputs": [
        {
          "internalType": "address",
          "name": "operator",
          "type": "address"
        },
        {
          "internalType": "bool",
          "name": "approved",
          "type": "bool"
        }
      ],
      "name": "setApprovalForAll",
      "outputs": [],
      "stateMutability": "nonpayable",
      "type": "function"
    },
    {
      "inputs": [],
      "name": "setSweetRelease",
      "outputs": [],
      "stateMutability": "nonpayable",
      "type": "function"
    },
    {
      "inputs": [
        {
          "internalType": "bytes4",
          "name": "interfaceId",
          "type": "bytes4"
        }
      ],
      "name": "supportsInterface",
      "outputs": [
        {
          "internalType": "bool",
          "name": "",
          "type": "bool"
        }
      ],
      "stateMutability": "view",
      "type": "function"
    },
    {
      "inputs": [],
      "name": "sweetRelease",
      "outputs": [
        {
          "internalType": "bool",
          "name": "",
          "type": "bool"
        }
      ],
      "stateMutability": "view",
      "type": "function"
    },
    {
      "inputs": [
        {
          "internalType": "address",
          "name": "newOwner",
          "type": "address"
        }
      ],
      "name": "transferOwnership",
      "outputs": [],
      "stateMutability": "nonpayable",
      "type": "function"
    },
    {
      "inputs": [
        {
          "internalType": "uint256",
          "name": "",
          "type": "uint256"
        }
      ],
      "name": "uri",
      "outputs": [
        {
          "internalType": "string",
          "name": "",
          "type": "string"
        }
      ],
      "stateMutability": "view",
      "type": "function"
    },
    {
      "stateMutability": "payable",
      "type": "receive"
    }
  ],
  "bytecode": "0x608060405260006007556008805461ffff191690553480156200002157600080fd5b506040516200333c3803806200333c83398101604081905262000044916200056f565b6040518060600160405280603281526020016200330a6032913962000069816200045e565b50620000753362000477565b6001600455600680546001600160a01b0319166001600160a01b03831617905560005b600361ffff82161015620000fc5760058054600181018255600091909152600080516020620032ea83398151915260108204018054600f9092166002026101000a61ffff810219909216909117905580620000f381620005b7565b91505062000098565b5060005b600a61ffff82161015620001695760058054600181018255600091909152600080516020620032ea8339815191526010820401805461ffff6002600f90941684026101000a908102199091169202919091179055806200016081620005b7565b91505062000100565b5060005b600a61ffff82161015620001d65760058054600181018255600091909152600080516020620032ea8339815191526010820401805461ffff600f9093166002026101000a9283021916600390920291909117905580620001cd81620005b7565b9150506200016d565b5060005b603261ffff82161015620002435760058054600181018255600091909152600080516020620032ea8339815191526010820401805461ffff600f9093166002026101000a92830219166004909202919091179055806200023a81620005b7565b915050620001da565b5060005b606461ffff82161015620002ab57600580546001810182556000829052600080516020620032ea8339815191526010820401805461ffff600f9093166002026101000a92830219169190920217905580620002a281620005b7565b91505062000247565b5060005b606f61ffff82161015620003185760058054600181018255600091909152600080516020620032ea8339815191526010820401805461ffff600f9093166002026101000a92830219166006909202919091179055806200030f81620005b7565b915050620002af565b5060005b60de61ffff82161015620003855760058054600181018255600091909152600080516020620032ea8339815191526010820401805461ffff600f9093166002026101000a92830219166007909202919091179055806200037c81620005b7565b9150506200031c565b5060005b60de606f60646032600a80620003a36003610457620005dc565b620003af9190620005dc565b620003bb9190620005dc565b620003c79190620005dc565b620003d39190620005dc565b620003df9190620005dc565b620003eb9190620005dc565b61ffff168161ffff161015620004565760058054600181018255600091909152600080516020620032ea8339815191526010820401805461ffff600f9093166002026101000a92830219166008909202919091179055806200044d81620005b7565b91505062000389565b50506200063f565b805162000473906002906020840190620004c9565b5050565b600380546001600160a01b038381166001600160a01b0319831681179093556040519116919082907f8be0079c531659141344cd1fd0a4f28419497f9722a3daafe3b4186f6b6457e090600090a35050565b828054620004d79062000602565b90600052602060002090601f016020900481019282620004fb576000855562000546565b82601f106200051657805160ff191683800117855562000546565b8280016001018555821562000546579182015b828111156200054657825182559160200191906001019062000529565b506200055492915062000558565b5090565b5b8082111562000554576000815560010162000559565b6000602082840312156200058257600080fd5b81516001600160a01b03811681146200059a57600080fd5b9392505050565b634e487b7160e01b600052601160045260246000fd5b600061ffff80831681811415620005d257620005d2620005a1565b6001019392505050565b600061ffff83811690831681811015620005fa57620005fa620005a1565b039392505050565b600181811c908216806200061757607f821691505b602082108114156200063957634e487b7160e01b600052602260045260246000fd5b50919050565b612c9b806200064f6000396000f3fe60806040526004361061026d5760003560e01c806392f393f811610153578063ce16d166116100cb578063ef3af2751161007f578063f2fde38b11610064578063f2fde38b14610673578063f468993614610693578063ffd807d2146106a957600080fd5b8063ef3af2751461063e578063f242432a1461065357600080fd5b8063e3ac5d26116100b0578063e3ac5d26146105ca578063e985e9c5146105e0578063edd47abf1461062957600080fd5b8063ce16d16614610595578063e04a4ea6146105b557600080fd5b8063ae3c159711610122578063b0538dae11610107578063b0538dae14610556578063b582aab01461056b578063c306219d1461058057600080fd5b8063ae3c15971461052c578063aea876c01461054157600080fd5b806392f393f8146104ef57806397b578b1146104f7578063a22cb4651461050c578063a6d24b6d1461038357600080fd5b80634c1299c6116101e65780636d00e233116101b55780638da5cb5b1161019a5780638da5cb5b146104a75780638dd3503e146104c55780638f9352ba146104da57600080fd5b80636d00e2331461047d578063715018a61461049257600080fd5b80634c1299c6146104075780634e1273f41461041c578063524a1224146104495780635445941f1461045e57600080fd5b80631a20cef81161023d5780632285fcba116102225780632285fcba146103985780632dc387b3146103d05780632eb2c2d6146103e557600080fd5b80631a20cef81461035b5780631ceea7961461038357600080fd5b8062fdd58e146102b157806301ffc9a7146102e4578063069a825c146103145780630e89341c1461032e57600080fd5b366102ac5760405162461bcd60e51b81526004016102a390602080825260049082015263114c0c4d60e21b604082015260600190565b60405180910390fd5b600080fd5b3480156102bd57600080fd5b506102d16102cc366004612158565b6106be565b6040519081526020015b60405180910390f35b3480156102f057600080fd5b506103046102ff366004612198565b610762565b60405190151581526020016102db565b34801561032057600080fd5b506008546103049060ff1681565b34801561033a57600080fd5b5061034e6103493660046121b5565b6107ff565b6040516102db919061221b565b34801561036757600080fd5b50610370600381565b60405161ffff90911681526020016102db565b34801561038f57600080fd5b50610370600a81565b3480156103a457600080fd5b506006546103b8906001600160a01b031681565b6040516001600160a01b0390911681526020016102db565b3480156103dc57600080fd5b506102d1600081565b3480156103f157600080fd5b5061040561040036600461237a565b610893565b005b34801561041357600080fd5b50610370603281565b34801561042857600080fd5b5061043c610437366004612424565b610935565b6040516102db919061252a565b34801561045557600080fd5b506102d1600281565b34801561046a57600080fd5b5060085461030490610100900460ff1681565b34801561048957600080fd5b506102d1600781565b34801561049e57600080fd5b50610405610a73565b3480156104b357600080fd5b506003546001600160a01b03166103b8565b3480156104d157600080fd5b506102d1600381565b3480156104e657600080fd5b506102d1600581565b610405610ad9565b34801561050357600080fd5b5061037060de81565b34801561051857600080fd5b5061040561052736600461253d565b610af2565b34801561053857600080fd5b50610405610bdd565b34801561054d57600080fd5b50610370606481565b34801561056257600080fd5b506102d1600881565b34801561057757600080fd5b50610370611250565b34801561058c57600080fd5b506102d1600681565b3480156105a157600080fd5b506104056105b0366004612158565b6112a7565b3480156105c157600080fd5b506102d1600481565b3480156105d657600080fd5b506102d160075481565b3480156105ec57600080fd5b506103046105fb366004612579565b6001600160a01b03918216600090815260016020908152604080832093909416825291909152205460ff1690565b34801561063557600080fd5b506104056113ae565b34801561064a57600080fd5b506102d1600181565b34801561065f57600080fd5b5061040561066e3660046125ac565b611419565b34801561067f57600080fd5b5061040561068e366004612611565b6114b4565b34801561069f57600080fd5b5061037061045781565b3480156106b557600080fd5b50610370606f81565b60006001600160a01b03831661073c5760405162461bcd60e51b815260206004820152602b60248201527f455243313135353a2062616c616e636520717565727920666f7220746865207a60448201527f65726f206164647265737300000000000000000000000000000000000000000060648201526084016102a3565b506000908152602081815260408083206001600160a01b03949094168352929052205490565b60006001600160e01b031982167fd9b67a260000000000000000000000000000000000000000000000000000000014806107c557506001600160e01b031982167f0e89341c00000000000000000000000000000000000000000000000000000000145b806107f957507f01ffc9a7000000000000000000000000000000000000000000000000000000006001600160e01b03198316145b92915050565b60606002805461080e9061262c565b80601f016020809104026020016040519081016040528092919081815260200182805461083a9061262c565b80156108875780601f1061085c57610100808354040283529160200191610887565b820191906000526020600020905b81548152906001019060200180831161086a57829003601f168201915b50505050509050919050565b6001600160a01b0385163314806108af57506108af85336105fb565b6109215760405162461bcd60e51b815260206004820152603260248201527f455243313135353a207472616e736665722063616c6c6572206973206e6f742060448201527f6f776e6572206e6f7220617070726f766564000000000000000000000000000060648201526084016102a3565b61092e8585858585611596565b5050505050565b606081518351146109ae5760405162461bcd60e51b815260206004820152602960248201527f455243313135353a206163636f756e747320616e6420696473206c656e67746860448201527f206d69736d61746368000000000000000000000000000000000000000000000060648201526084016102a3565b6000835167ffffffffffffffff8111156109ca576109ca61222e565b6040519080825280602002602001820160405280156109f3578160200160208202803683370190505b50905060005b8451811015610a6b57610a3e858281518110610a1757610a17612667565b6020026020010151858381518110610a3157610a31612667565b60200260200101516106be565b828281518110610a5057610a50612667565b6020908102919091010152610a6481612693565b90506109f9565b509392505050565b6003546001600160a01b03163314610acd5760405162461bcd60e51b815260206004820181905260248201527f4f776e61626c653a2063616c6c6572206973206e6f7420746865206f776e657260448201526064016102a3565b610ad76000611809565b565b3460076000828254610aeb91906126ae565b9091555050565b336001600160a01b0383161415610b715760405162461bcd60e51b815260206004820152602960248201527f455243313135353a2073657474696e6720617070726f76616c2073746174757360448201527f20666f722073656c66000000000000000000000000000000000000000000000060648201526084016102a3565b3360008181526001602090815260408083206001600160a01b03871680855290835292819020805460ff191686151590811790915590519081529192917f17307eab39ab6107e8899845ad3d59bd9653f200f220920489ca2b5937696c31910160405180910390a35050565b60026004541415610c305760405162461bcd60e51b815260206004820152601f60248201527f5265656e7472616e637947756172643a207265656e7472616e742063616c6c0060448201526064016102a3565b6002600455600854610100900460ff16610c8e5760405162461bcd60e51b81526004016102a39060208082526004908201527f4530313000000000000000000000000000000000000000000000000000000000604082015260600190565b60085460ff1615610ce35760405162461bcd60e51b81526004016102a39060208082526004908201527f4530313100000000000000000000000000000000000000000000000000000000604082015260600190565b600060075411610d375760405162461bcd60e51b81526004016102a39060208082526004908201527f4530313200000000000000000000000000000000000000000000000000000000604082015260600190565b6006546040517f70a082310000000000000000000000000000000000000000000000000000000081523360048201526000916001600160a01b0316906370a0823190602401602060405180830381865afa158015610d99573d6000803e3d6000fd5b505050506040513d601f19601f82011682018060405250810190610dbd91906126c6565b11610e0c5760405162461bcd60e51b81526004016102a39060208082526004908201527f4530313300000000000000000000000000000000000000000000000000000000604082015260600190565b6000610e193360016106be565b11610e685760405162461bcd60e51b81526004016102a39060208082526004908201527f4530303100000000000000000000000000000000000000000000000000000000604082015260600190565b6000610e753360026106be565b11610ec45760405162461bcd60e51b81526004016102a39060208082526004908201527f4530303200000000000000000000000000000000000000000000000000000000604082015260600190565b6000610ed13360036106be565b11610f205760405162461bcd60e51b81526004016102a39060208082526004908201527f4530303300000000000000000000000000000000000000000000000000000000604082015260600190565b6000610f2d3360046106be565b11610f7c5760405162461bcd60e51b81526004016102a39060208082526004908201527f4530303400000000000000000000000000000000000000000000000000000000604082015260600190565b6000610f893360056106be565b11610fd85760405162461bcd60e51b81526004016102a39060208082526004908201527f4530303500000000000000000000000000000000000000000000000000000000604082015260600190565b6000610fe53360066106be565b116110345760405162461bcd60e51b81526004016102a39060208082526004908201527f4530303600000000000000000000000000000000000000000000000000000000604082015260600190565b60006110413360076106be565b116110905760405162461bcd60e51b81526004016102a39060208082526004908201527f4530303700000000000000000000000000000000000000000000000000000000604082015260600190565b600061109d3360086106be565b116110ec5760405162461bcd60e51b81526004016102a39060208082526004908201527f4530303800000000000000000000000000000000000000000000000000000000604082015260600190565b6110f833600180611873565b6111053360026001611873565b6111123360036001611873565b61111f3360046001611873565b61112c3360056001611873565b6111393360066001611873565b6111463360076001611873565b6111533360086001611873565b61117c33600060016040518060400160405280600381526020016203078360ec1b815250611a20565b6040513381527fb90f637c9ae38effeea06ad34c58331954898f0d0d4109d30b95e0426b291ff79060200160405180910390a16008805460ff1916600117905560078054600091829055604051909190339083908381818185875af1925050503d8060008114611208576040519150601f19603f3d011682016040523d82523d6000602084013e61120d565b606091505b50509050806112475760405162461bcd60e51b81526004016102a390602080825260049082015263114c0c4d60e21b604082015260600190565b50506001600455565b60de606f60646032600a8061126860036104576126df565b61127291906126df565b61127c91906126df565b61128691906126df565b61129091906126df565b61129a91906126df565b6112a491906126df565b81565b6003546001600160a01b031633146113015760405162461bcd60e51b815260206004820181905260248201527f4f776e61626c653a2063616c6c6572206973206e6f7420746865206f776e657260448201526064016102a3565b6005548111156113555760405162461bcd60e51b81526004016102a39060208082526004908201527f4530303900000000000000000000000000000000000000000000000000000000604082015260600190565b60005b818110156113a957600061136c6005611b46565b9050611396848260016040518060400160405280600381526020016203078360ec1b815250611a20565b50806113a181612693565b915050611358565b505050565b6003546001600160a01b031633146114085760405162461bcd60e51b815260206004820181905260248201527f4f776e61626c653a2063616c6c6572206973206e6f7420746865206f776e657260448201526064016102a3565b6008805461ff001916610100179055565b6001600160a01b038516331480611435575061143585336105fb565b6114a75760405162461bcd60e51b815260206004820152602960248201527f455243313135353a2063616c6c6572206973206e6f74206f776e6572206e6f7260448201527f20617070726f766564000000000000000000000000000000000000000000000060648201526084016102a3565b61092e8585858585611c5c565b6003546001600160a01b0316331461150e5760405162461bcd60e51b815260206004820181905260248201527f4f776e61626c653a2063616c6c6572206973206e6f7420746865206f776e657260448201526064016102a3565b6001600160a01b03811661158a5760405162461bcd60e51b815260206004820152602660248201527f4f776e61626c653a206e6577206f776e657220697320746865207a65726f206160448201527f646472657373000000000000000000000000000000000000000000000000000060648201526084016102a3565b61159381611809565b50565b815183511461160d5760405162461bcd60e51b815260206004820152602860248201527f455243313135353a2069647320616e6420616d6f756e7473206c656e6774682060448201527f6d69736d6174636800000000000000000000000000000000000000000000000060648201526084016102a3565b6001600160a01b0384166116715760405162461bcd60e51b815260206004820152602560248201527f455243313135353a207472616e7366657220746f20746865207a65726f206164604482015264647265737360d81b60648201526084016102a3565b3360005b845181101561179b57600085828151811061169257611692612667565b6020026020010151905060008583815181106116b0576116b0612667565b602090810291909101810151600084815280835260408082206001600160a01b038e1683529093529190912054909150818110156117435760405162461bcd60e51b815260206004820152602a60248201527f455243313135353a20696e73756666696369656e742062616c616e636520666f60448201526939103a3930b739b332b960b11b60648201526084016102a3565b6000838152602081815260408083206001600160a01b038e8116855292528083208585039055908b168252812080548492906117809084906126ae565b925050819055505050508061179490612693565b9050611675565b50846001600160a01b0316866001600160a01b0316826001600160a01b03167f4a39dc06d4c0dbc64b70af90fd698a233a518aa5d07e595d983b8c0526c8f7fb87876040516117eb929190612702565b60405180910390a4611801818787878787611dfa565b505050505050565b600380546001600160a01b038381167fffffffffffffffffffffffff0000000000000000000000000000000000000000831681179093556040519116919082907f8be0079c531659141344cd1fd0a4f28419497f9722a3daafe3b4186f6b6457e090600090a35050565b6001600160a01b0383166118ef5760405162461bcd60e51b815260206004820152602360248201527f455243313135353a206275726e2066726f6d20746865207a65726f206164647260448201527f657373000000000000000000000000000000000000000000000000000000000060648201526084016102a3565b3361191f8185600061190087611fa0565b61190987611fa0565b5050604080516020810190915260009052505050565b6000838152602081815260408083206001600160a01b0388168452909152902054828110156119b55760405162461bcd60e51b8152602060048201526024808201527f455243313135353a206275726e20616d6f756e7420657863656564732062616c60448201527f616e63650000000000000000000000000000000000000000000000000000000060648201526084016102a3565b6000848152602081815260408083206001600160a01b03898116808652918452828520888703905582518981529384018890529092908616917fc3d58168c5ae7397731d063d5bbf3d657854427343f4c083240f7aacaa2d0f62910160405180910390a45050505050565b6001600160a01b038416611a9c5760405162461bcd60e51b815260206004820152602160248201527f455243313135353a206d696e7420746f20746865207a65726f2061646472657360448201527f730000000000000000000000000000000000000000000000000000000000000060648201526084016102a3565b33611ab681600087611aad88611fa0565b61092e88611fa0565b6000848152602081815260408083206001600160a01b038916845290915281208054859290611ae69084906126ae565b909155505060408051858152602081018590526001600160a01b0380881692600092918516917fc3d58168c5ae7397731d063d5bbf3d657854427343f4c083240f7aacaa2d0f62910160405180910390a461092e81600087878787611feb565b600080611b52836120e7565b90506000838281548110611b6857611b68612667565b90600052602060002090601091828204019190066002029054906101000a900461ffff1661ffff1690508360018580549050611ba49190612730565b81548110611bb457611bb4612667565b90600052602060002090601091828204019190066002029054906101000a900461ffff16848381548110611bea57611bea612667565b90600052602060002090601091828204019190066002026101000a81548161ffff021916908361ffff16021790555083805480611c2957611c29612747565b600082815260209020601060001990920191820401805461ffff6002600f8516026101000a021916905590559392505050565b6001600160a01b038416611cc05760405162461bcd60e51b815260206004820152602560248201527f455243313135353a207472616e7366657220746f20746865207a65726f206164604482015264647265737360d81b60648201526084016102a3565b33611cd0818787611aad88611fa0565b6000848152602081815260408083206001600160a01b038a16845290915290205483811015611d545760405162461bcd60e51b815260206004820152602a60248201527f455243313135353a20696e73756666696369656e742062616c616e636520666f60448201526939103a3930b739b332b960b11b60648201526084016102a3565b6000858152602081815260408083206001600160a01b038b8116855292528083208785039055908816825281208054869290611d919084906126ae565b909155505060408051868152602081018690526001600160a01b03808916928a821692918616917fc3d58168c5ae7397731d063d5bbf3d657854427343f4c083240f7aacaa2d0f62910160405180910390a4611df1828888888888611feb565b50505050505050565b6001600160a01b0384163b156118015760405163bc197c8160e01b81526001600160a01b0385169063bc197c8190611e3e908990899088908890889060040161275d565b6020604051808303816000875af1925050508015611e79575060408051601f3d908101601f19168201909252611e76918101906127bb565b60015b611f2f57611e856127d8565b806308c379a01415611ebf5750611e9a6127f4565b80611ea55750611ec1565b8060405162461bcd60e51b81526004016102a3919061221b565b505b60405162461bcd60e51b815260206004820152603460248201527f455243313135353a207472616e7366657220746f206e6f6e204552433131353560448201527f526563656976657220696d706c656d656e74657200000000000000000000000060648201526084016102a3565b6001600160e01b0319811663bc197c8160e01b14611df15760405162461bcd60e51b815260206004820152602860248201527f455243313135353a204552433131353552656365697665722072656a656374656044820152676420746f6b656e7360c01b60648201526084016102a3565b60408051600180825281830190925260609160009190602080830190803683370190505090508281600081518110611fda57611fda612667565b602090810291909101015292915050565b6001600160a01b0384163b156118015760405163f23a6e6160e01b81526001600160a01b0385169063f23a6e619061202f908990899088908890889060040161287e565b6020604051808303816000875af192505050801561206a575060408051601f3d908101601f19168201909252612067918101906127bb565b60015b61207657611e856127d8565b6001600160e01b0319811663f23a6e6160e01b14611df15760405162461bcd60e51b815260206004820152602860248201527f455243313135353a204552433131353552656365697665722072656a656374656044820152676420746f6b656e7360c01b60648201526084016102a3565b600080826120f6600143612730565b4041443360405160200161210e9594939291906128c1565b60408051601f19818403018152919052805160209091012083549091506121359082612c43565b9392505050565b80356001600160a01b038116811461215357600080fd5b919050565b6000806040838503121561216b57600080fd5b6121748361213c565b946020939093013593505050565b6001600160e01b03198116811461159357600080fd5b6000602082840312156121aa57600080fd5b813561213581612182565b6000602082840312156121c757600080fd5b5035919050565b6000815180845260005b818110156121f4576020818501810151868301820152016121d8565b81811115612206576000602083870101525b50601f01601f19169290920160200192915050565b60208152600061213560208301846121ce565b634e487b7160e01b600052604160045260246000fd5b601f8201601f1916810167ffffffffffffffff8111828210171561226a5761226a61222e565b6040525050565b600067ffffffffffffffff82111561228b5761228b61222e565b5060051b60200190565b600082601f8301126122a657600080fd5b813560206122b382612271565b6040516122c08282612244565b83815260059390931b85018201928281019150868411156122e057600080fd5b8286015b848110156122fb57803583529183019183016122e4565b509695505050505050565b600082601f83011261231757600080fd5b813567ffffffffffffffff8111156123315761233161222e565b604051612348601f8301601f191660200182612244565b81815284602083860101111561235d57600080fd5b816020850160208301376000918101602001919091529392505050565b600080600080600060a0868803121561239257600080fd5b61239b8661213c565b94506123a96020870161213c565b9350604086013567ffffffffffffffff808211156123c657600080fd5b6123d289838a01612295565b945060608801359150808211156123e857600080fd5b6123f489838a01612295565b9350608088013591508082111561240a57600080fd5b5061241788828901612306565b9150509295509295909350565b6000806040838503121561243757600080fd5b823567ffffffffffffffff8082111561244f57600080fd5b818501915085601f83011261246357600080fd5b8135602061247082612271565b60405161247d8282612244565b83815260059390931b850182019282810191508984111561249d57600080fd5b948201945b838610156124c2576124b38661213c565b825294820194908201906124a2565b965050860135925050808211156124d857600080fd5b506124e585828601612295565b9150509250929050565b600081518084526020808501945080840160005b8381101561251f57815187529582019590820190600101612503565b509495945050505050565b60208152600061213560208301846124ef565b6000806040838503121561255057600080fd5b6125598361213c565b91506020830135801515811461256e57600080fd5b809150509250929050565b6000806040838503121561258c57600080fd5b6125958361213c565b91506125a36020840161213c565b90509250929050565b600080600080600060a086880312156125c457600080fd5b6125cd8661213c565b94506125db6020870161213c565b93506040860135925060608601359150608086013567ffffffffffffffff81111561260557600080fd5b61241788828901612306565b60006020828403121561262357600080fd5b6121358261213c565b600181811c9082168061264057607f821691505b6020821081141561266157634e487b7160e01b600052602260045260246000fd5b50919050565b634e487b7160e01b600052603260045260246000fd5b634e487b7160e01b600052601160045260246000fd5b60006000198214156126a7576126a761267d565b5060010190565b600082198211156126c1576126c161267d565b500190565b6000602082840312156126d857600080fd5b5051919050565b600061ffff838116908316818110156126fa576126fa61267d565b039392505050565b60408152600061271560408301856124ef565b828103602084015261272781856124ef565b95945050505050565b6000828210156127425761274261267d565b500390565b634e487b7160e01b600052603160045260246000fd5b60006001600160a01b03808816835280871660208401525060a0604083015261278960a08301866124ef565b828103606084015261279b81866124ef565b905082810360808401526127af81856121ce565b98975050505050505050565b6000602082840312156127cd57600080fd5b815161213581612182565b600060033d11156127f15760046000803e5060005160e01c5b90565b600060443d10156128025790565b6040516003193d81016004833e81513d67ffffffffffffffff816024840111818411171561283257505050505090565b828501915081518181111561284a5750505050505090565b843d87010160208285010111156128645750505050505090565b61287360208286010187612244565b509095945050505050565b60006001600160a01b03808816835280871660208401525084604083015283606083015260a060808301526128b660a08301846121ce565b979650505050505050565b85546000878152602081209091839160005b82600f82011015612a2457815461ffff808216865260206128fe818801838560101c1661ffff169052565b60406129138189018486851c1661ffff169052565b6060915061292b828901848660301c1661ffff169052565b6080612940818a018587851c1661ffff169052565b60a09150612958828a01858760501c1661ffff169052565b60c061296d818b018688871c1661ffff169052565b60e09350612985848b01868860701c1661ffff169052565b61ffff86831c8616166101008b01526129aa6101208b01868860901c1661ffff169052565b61ffff86841c8616166101408b01526129cf6101608b01868860b01c1661ffff169052565b61ffff86821c8616166101808b01525050506129f76101a08801838560d01c1661ffff169052565b82901c1661ffff166101c086015260f01c6101e085015261020090930192600191909101906010016128d3565b90549082811015612a405761ffff821684526020909301926001015b82811015612a5d5761ffff601083901c1684526020909301926001015b82811015612a7b57602082901c61ffff168452602093909301926001015b82811015612a985761ffff603083901c1684526020909301926001015b82811015612ab55761ffff604083901c1684526020909301926001015b82811015612ad25761ffff605083901c1684526020909301926001015b82811015612aef5761ffff606083901c1684526020909301926001015b82811015612b0c5761ffff607083901c1684526020909301926001015b82811015612b295761ffff608083901c1684526020909301926001015b82811015612b465761ffff609083901c1684526020909301926001015b82811015612b635761ffff60a083901c1684526020909301926001015b82811015612b805761ffff60b083901c1684526020909301926001015b82811015612b9d5761ffff60c083901c1684526020909301926001015b82811015612bba5761ffff60d083901c1684526020909301926001015b82811015612bd75761ffff60e083901c1684526020909301926001015b82811015612bed5760f082901c84526020840193505b505050868152612c11602082018760601b6bffffffffffffffffffffffff19169052565b846034820152612c35605482018560601b6bffffffffffffffffffffffff19169052565b606801979650505050505050565b600082612c6057634e487b7160e01b600052601260045260246000fd5b50069056fea264697066735822122092b490203b4cfd2dcfcf9ed567d796a2d4b1fc4886e2008d98f8937f969fb9cb64736f6c634300080a0033036b6384b5eca791c62761152d0c79bb0604c104a5fb6f4eb0703f3154bb3db068747470733a2f2f6d6574612e636f696e6c616e6465722e6f6e652f6b6565706572735661756c742f7b69647d2e6a736f6e",
  "linkReferences": {},
  "deployedLinkReferences": {}
}