{
  "_format": "hh-sol-artifact-1",
  "contractName": "Vault",
  "sourceName": "contracts/Vault.sol",
  "abi": [
    {
      "inputs": [
        {
          "internalType": "address",
          "name": "_randomnessOracle",
          "type": "address"
        }
      ],
      "stateMutability": "nonpayable",
      "type": "constructor"
    },
    {
      "anonymous": false,
      "inputs": [
        {
          "indexed": true,
          "internalType": "address",
          "name": "account",
          "type": "address"
        },
        {
          "indexed": true,
          "internalType": "address",
          "name": "operator",
          "type": "address"
        },
        {
          "indexed": false,
          "internalType": "bool",
          "name": "approved",
          "type": "bool"
        }
      ],
      "name": "ApprovalForAll",
      "type": "event"
    },
    {
      "anonymous": false,
      "inputs": [
        {
          "indexed": true,
          "internalType": "address",
          "name": "previousOwner",
          "type": "address"
        },
        {
          "indexed": true,
          "internalType": "address",
          "name": "newOwner",
          "type": "address"
        }
      ],
      "name": "OwnershipTransferred",
      "type": "event"
    },
    {
      "anonymous": false,
      "inputs": [
        {
          "indexed": false,
          "internalType": "uint16",
          "name": "requestId",
          "type": "uint16"
        },
        {
          "indexed": false,
          "internalType": "uint16",
          "name": "result",
          "type": "uint16"
        }
      ],
      "name": "RandomnessFulfilled",
      "type": "event"
    },
    {
      "anonymous": false,
      "inputs": [
        {
          "indexed": false,
          "internalType": "address",
          "name": "currentOracle",
          "type": "address"
        },
        {
          "indexed": false,
          "internalType": "address",
          "name": "newOracle",
          "type": "address"
        }
      ],
      "name": "RandomnessOracleChanged",
      "type": "event"
    },
    {
      "anonymous": false,
      "inputs": [
        {
          "indexed": false,
          "internalType": "address",
          "name": "requester",
          "type": "address"
        },
        {
          "indexed": false,
          "internalType": "uint16",
          "name": "requestId",
          "type": "uint16"
        }
      ],
      "name": "RandomnessRequested",
      "type": "event"
    },
    {
      "anonymous": false,
      "inputs": [
        {
          "indexed": true,
          "internalType": "address",
          "name": "operator",
          "type": "address"
        },
        {
          "indexed": true,
          "internalType": "address",
          "name": "from",
          "type": "address"
        },
        {
          "indexed": true,
          "internalType": "address",
          "name": "to",
          "type": "address"
        },
        {
          "indexed": false,
          "internalType": "uint256[]",
          "name": "ids",
          "type": "uint256[]"
        },
        {
          "indexed": false,
          "internalType": "uint256[]",
          "name": "values",
          "type": "uint256[]"
        }
      ],
      "name": "TransferBatch",
      "type": "event"
    },
    {
      "anonymous": false,
      "inputs": [
        {
          "indexed": true,
          "internalType": "address",
          "name": "operator",
          "type": "address"
        },
        {
          "indexed": true,
          "internalType": "address",
          "name": "from",
          "type": "address"
        },
        {
          "indexed": true,
          "internalType": "address",
          "name": "to",
          "type": "address"
        },
        {
          "indexed": false,
          "internalType": "uint256",
          "name": "id",
          "type": "uint256"
        },
        {
          "indexed": false,
          "internalType": "uint256",
          "name": "value",
          "type": "uint256"
        }
      ],
      "name": "TransferSingle",
      "type": "event"
    },
    {
      "anonymous": false,
      "inputs": [
        {
          "indexed": false,
          "internalType": "string",
          "name": "value",
          "type": "string"
        },
        {
          "indexed": true,
          "internalType": "uint256",
          "name": "id",
          "type": "uint256"
        }
      ],
      "name": "URI",
      "type": "event"
    },
    {
      "anonymous": false,
      "inputs": [
        {
          "indexed": false,
          "internalType": "address",
          "name": "winner",
          "type": "address"
        }
      ],
      "name": "VaultUnlocked",
      "type": "event"
    },
    {
      "inputs": [],
      "name": "FRAGMENT1",
      "outputs": [
        {
          "internalType": "uint256",
          "name": "",
          "type": "uint256"
        }
      ],
      "stateMutability": "view",
      "type": "function"
    },
    {
      "inputs": [],
      "name": "FRAGMENT2",
      "outputs": [
        {
          "internalType": "uint256",
          "name": "",
          "type": "uint256"
        }
      ],
      "stateMutability": "view",
      "type": "function"
    },
    {
      "inputs": [],
      "name": "FRAGMENT3",
      "outputs": [
        {
          "internalType": "uint256",
          "name": "",
          "type": "uint256"
        }
      ],
      "stateMutability": "view",
      "type": "function"
    },
    {
      "inputs": [],
      "name": "FRAGMENT4",
      "outputs": [
        {
          "internalType": "uint256",
          "name": "",
          "type": "uint256"
        }
      ],
      "stateMutability": "view",
      "type": "function"
    },
    {
      "inputs": [],
      "name": "FRAGMENT5",
      "outputs": [
        {
          "internalType": "uint256",
          "name": "",
          "type": "uint256"
        }
      ],
      "stateMutability": "view",
      "type": "function"
    },
    {
      "inputs": [],
      "name": "FRAGMENT6",
      "outputs": [
        {
          "internalType": "uint256",
          "name": "",
          "type": "uint256"
        }
      ],
      "stateMutability": "view",
      "type": "function"
    },
    {
      "inputs": [],
      "name": "FRAGMENT7",
      "outputs": [
        {
          "internalType": "uint256",
          "name": "",
          "type": "uint256"
        }
      ],
      "stateMutability": "view",
      "type": "function"
    },
    {
      "inputs": [],
      "name": "FRAGMENT8",
      "outputs": [
        {
          "internalType": "uint256",
          "name": "",
          "type": "uint256"
        }
      ],
      "stateMutability": "view",
      "type": "function"
    },
    {
      "inputs": [],
      "name": "KEY",
      "outputs": [
        {
          "internalType": "uint256",
          "name": "",
          "type": "uint256"
        }
      ],
      "stateMutability": "view",
      "type": "function"
    },
    {
      "inputs": [],
      "name": "MAXFRAGMENTS",
      "outputs": [
        {
          "internalType": "uint16",
          "name": "",
          "type": "uint16"
        }
      ],
      "stateMutability": "view",
      "type": "function"
    },
    {
      "inputs": [
        {
          "internalType": "address",
          "name": "account",
          "type": "address"
        },
        {
          "internalType": "uint256",
          "name": "id",
          "type": "uint256"
        }
      ],
      "name": "balanceOf",
      "outputs": [
        {
          "internalType": "uint256",
          "name": "",
          "type": "uint256"
        }
      ],
      "stateMutability": "view",
      "type": "function"
    },
    {
      "inputs": [
        {
          "internalType": "address[]",
          "name": "accounts",
          "type": "address[]"
        },
        {
          "internalType": "uint256[]",
          "name": "ids",
          "type": "uint256[]"
        }
      ],
      "name": "balanceOfBatch",
      "outputs": [
        {
          "internalType": "uint256[]",
          "name": "",
          "type": "uint256[]"
        }
      ],
      "stateMutability": "view",
      "type": "function"
    },
    {
      "inputs": [
        {
          "internalType": "string",
          "name": "_newURI",
          "type": "string"
        }
      ],
      "name": "changeURI",
      "outputs": [],
      "stateMutability": "nonpayable",
      "type": "function"
    },
    {
      "inputs": [],
      "name": "claimFragments",
      "outputs": [],
      "stateMutability": "nonpayable",
      "type": "function"
    },
    {
      "inputs": [],
      "name": "claimKeepersVault",
      "outputs": [],
      "stateMutability": "nonpayable",
      "type": "function"
    },
    {
      "inputs": [
        {
          "internalType": "address",
          "name": "",
          "type": "address"
        },
        {
          "internalType": "uint256",
          "name": "",
          "type": "uint256"
        }
      ],
      "name": "claimables",
      "outputs": [
        {
          "internalType": "uint16",
          "name": "",
          "type": "uint16"
        }
      ],
      "stateMutability": "view",
      "type": "function"
    },
    {
      "inputs": [],
      "name": "contractURI",
      "outputs": [
        {
          "internalType": "string",
          "name": "",
          "type": "string"
        }
      ],
      "stateMutability": "view",
      "type": "function"
    },
    {
      "inputs": [
        {
          "internalType": "uint16",
          "name": "_requestId",
          "type": "uint16"
        }
      ],
      "name": "fulfillRequest",
      "outputs": [],
      "stateMutability": "nonpayable",
      "type": "function"
    },
    {
      "inputs": [],
      "name": "fundPrizePurse",
      "outputs": [],
      "stateMutability": "payable",
      "type": "function"
    },
    {
      "inputs": [],
      "name": "gameContract",
      "outputs": [
        {
          "internalType": "address",
          "name": "",
          "type": "address"
        }
      ],
      "stateMutability": "view",
      "type": "function"
    },
    {
      "inputs": [],
      "name": "gameWon",
      "outputs": [
        {
          "internalType": "bool",
          "name": "",
          "type": "bool"
        }
      ],
      "stateMutability": "view",
      "type": "function"
    },
    {
      "inputs": [
        {
          "internalType": "address",
          "name": "user",
          "type": "address"
        }
      ],
      "name": "getClaimablesByAddress",
      "outputs": [
        {
          "internalType": "uint256",
          "name": "",
          "type": "uint256"
        }
      ],
      "stateMutability": "view",
      "type": "function"
    },
    {
      "inputs": [
        {
          "internalType": "address",
          "name": "account",
          "type": "address"
        },
        {
          "internalType": "address",
          "name": "operator",
          "type": "address"
        }
      ],
      "name": "isApprovedForAll",
      "outputs": [
        {
          "internalType": "bool",
          "name": "",
          "type": "bool"
        }
      ],
      "stateMutability": "view",
      "type": "function"
    },
    {
      "inputs": [],
      "name": "numT1",
      "outputs": [
        {
          "internalType": "uint16",
          "name": "",
          "type": "uint16"
        }
      ],
      "stateMutability": "view",
      "type": "function"
    },
    {
      "inputs": [],
      "name": "numT2",
      "outputs": [
        {
          "internalType": "uint16",
          "name": "",
          "type": "uint16"
        }
      ],
      "stateMutability": "view",
      "type": "function"
    },
    {
      "inputs": [],
      "name": "numT3",
      "outputs": [
        {
          "internalType": "uint16",
          "name": "",
          "type": "uint16"
        }
      ],
      "stateMutability": "view",
      "type": "function"
    },
    {
      "inputs": [],
      "name": "numT4",
      "outputs": [
        {
          "internalType": "uint16",
          "name": "",
          "type": "uint16"
        }
      ],
      "stateMutability": "view",
      "type": "function"
    },
    {
      "inputs": [],
      "name": "numT5",
      "outputs": [
        {
          "internalType": "uint16",
          "name": "",
          "type": "uint16"
        }
      ],
      "stateMutability": "view",
      "type": "function"
    },
    {
      "inputs": [],
      "name": "numT6",
      "outputs": [
        {
          "internalType": "uint16",
          "name": "",
          "type": "uint16"
        }
      ],
      "stateMutability": "view",
      "type": "function"
    },
    {
      "inputs": [],
      "name": "numT7",
      "outputs": [
        {
          "internalType": "uint16",
          "name": "",
          "type": "uint16"
        }
      ],
      "stateMutability": "view",
      "type": "function"
    },
    {
      "inputs": [],
      "name": "numT8",
      "outputs": [
        {
          "internalType": "uint16",
          "name": "",
          "type": "uint16"
        }
      ],
      "stateMutability": "view",
      "type": "function"
    },
    {
      "inputs": [],
      "name": "owner",
      "outputs": [
        {
          "internalType": "address",
          "name": "",
          "type": "address"
        }
      ],
      "stateMutability": "view",
      "type": "function"
    },
    {
      "inputs": [],
      "name": "prize",
      "outputs": [
        {
          "internalType": "uint256",
          "name": "",
          "type": "uint256"
        }
      ],
      "stateMutability": "view",
      "type": "function"
    },
    {
      "inputs": [],
      "name": "randomnessOracle",
      "outputs": [
        {
          "internalType": "address",
          "name": "",
          "type": "address"
        }
      ],
      "stateMutability": "view",
      "type": "function"
    },
    {
      "inputs": [],
      "name": "renounceOwnership",
      "outputs": [],
      "stateMutability": "nonpayable",
      "type": "function"
    },
    {
      "inputs": [
        {
          "internalType": "address",
          "name": "_requester",
          "type": "address"
        },
        {
          "internalType": "uint256",
          "name": "amount",
          "type": "uint256"
        }
      ],
      "name": "requestFragments",
      "outputs": [],
      "stateMutability": "nonpayable",
      "type": "function"
    },
    {
      "inputs": [
        {
          "internalType": "uint16",
          "name": "",
          "type": "uint16"
        }
      ],
      "name": "requestFulfillments",
      "outputs": [
        {
          "internalType": "bool",
          "name": "fulfilled",
          "type": "bool"
        },
        {
          "internalType": "address",
          "name": "requester",
          "type": "address"
        }
      ],
      "stateMutability": "view",
      "type": "function"
    },
    {
      "inputs": [],
      "name": "requestId",
      "outputs": [
        {
          "internalType": "uint16",
          "name": "",
          "type": "uint16"
        }
      ],
      "stateMutability": "view",
      "type": "function"
    },
    {
      "inputs": [
        {
          "internalType": "address",
          "name": "from",
          "type": "address"
        },
        {
          "internalType": "address",
          "name": "to",
          "type": "address"
        },
        {
          "internalType": "uint256[]",
          "name": "ids",
          "type": "uint256[]"
        },
        {
          "internalType": "uint256[]",
          "name": "amounts",
          "type": "uint256[]"
        },
        {
          "internalType": "bytes",
          "name": "data",
          "type": "bytes"
        }
      ],
      "name": "safeBatchTransferFrom",
      "outputs": [],
      "stateMutability": "nonpayable",
      "type": "function"
    },
    {
      "inputs": [
        {
          "internalType": "address",
          "name": "from",
          "type": "address"
        },
        {
          "internalType": "address",
          "name": "to",
          "type": "address"
        },
        {
          "internalType": "uint256",
          "name": "id",
          "type": "uint256"
        },
        {
          "internalType": "uint256",
          "name": "amount",
          "type": "uint256"
        },
        {
          "internalType": "bytes",
          "name": "data",
          "type": "bytes"
        }
      ],
      "name": "safeTransferFrom",
      "outputs": [],
      "stateMutability": "nonpayable",
      "type": "function"
    },
    {
      "inputs": [
        {
          "internalType": "address",
          "name": "operator",
          "type": "address"
        },
        {
          "internalType": "bool",
          "name": "approved",
          "type": "bool"
        }
      ],
      "name": "setApprovalForAll",
      "outputs": [],
      "stateMutability": "nonpayable",
      "type": "function"
    },
    {
      "inputs": [
        {
          "internalType": "string",
          "name": "newContractURI",
          "type": "string"
        }
      ],
      "name": "setContractURI",
      "outputs": [],
      "stateMutability": "nonpayable",
      "type": "function"
    },
    {
      "inputs": [
        {
          "internalType": "address",
          "name": "_gameContract",
          "type": "address"
        }
      ],
      "name": "setGameContract",
      "outputs": [],
      "stateMutability": "nonpayable",
      "type": "function"
    },
    {
      "inputs": [
        {
          "internalType": "address",
          "name": "newOracle",
          "type": "address"
        }
      ],
      "name": "setRandomnessOracle",
      "outputs": [],
      "stateMutability": "nonpayable",
      "type": "function"
    },
    {
      "inputs": [],
      "name": "setSweetRelease",
      "outputs": [],
      "stateMutability": "nonpayable",
      "type": "function"
    },
    {
      "inputs": [
        {
          "internalType": "bytes4",
          "name": "interfaceId",
          "type": "bytes4"
        }
      ],
      "name": "supportsInterface",
      "outputs": [
        {
          "internalType": "bool",
          "name": "",
          "type": "bool"
        }
      ],
      "stateMutability": "view",
      "type": "function"
    },
    {
      "inputs": [],
      "name": "sweetRelease",
      "outputs": [
        {
          "internalType": "bool",
          "name": "",
          "type": "bool"
        }
      ],
      "stateMutability": "view",
      "type": "function"
    },
    {
      "inputs": [
        {
          "internalType": "address",
          "name": "newOwner",
          "type": "address"
        }
      ],
      "name": "transferOwnership",
      "outputs": [],
      "stateMutability": "nonpayable",
      "type": "function"
    },
    {
      "inputs": [
        {
          "internalType": "uint256",
          "name": "",
          "type": "uint256"
        }
      ],
      "name": "uri",
      "outputs": [
        {
          "internalType": "string",
          "name": "",
          "type": "string"
        }
      ],
      "stateMutability": "view",
      "type": "function"
    },
    {
      "stateMutability": "payable",
      "type": "receive"
    }
  ],
  "bytecode": "0x60806040526000600655600780546001600160b01b03191690553480156200002657600080fd5b5060405162003eef38038062003eef8339810160408190526200004991620005a9565b6040518060600160405280602a815260200162003ec5602a91396200006e8162000498565b506200007a33620004b1565b600160045560005b600361ffff82161015620000e6576005805460018101825560009190915260008051602062003e8083398151915260108204018054600f9092166002026101000a61ffff810219909216909117905580620000dd81620005f1565b91505062000082565b5060005b600a61ffff8216101562000153576005805460018101825560009190915260008051602062003e808339815191526010820401805461ffff6002600f90941684026101000a908102199091169202919091179055806200014a81620005f1565b915050620000ea565b5060005b600a61ffff82161015620001c0576005805460018101825560009190915260008051602062003e808339815191526010820401805461ffff600f9093166002026101000a9283021916600390920291909117905580620001b781620005f1565b91505062000157565b5060005b603261ffff821610156200022d576005805460018101825560009190915260008051602062003e808339815191526010820401805461ffff600f9093166002026101000a92830219166004909202919091179055806200022481620005f1565b915050620001c4565b5060005b606461ffff82161015620002955760058054600181018255600082905260008051602062003e808339815191526010820401805461ffff600f9093166002026101000a928302191691909202179055806200028c81620005f1565b91505062000231565b5060005b606f61ffff8216101562000302576005805460018101825560009190915260008051602062003e808339815191526010820401805461ffff600f9093166002026101000a9283021916600690920291909117905580620002f981620005f1565b91505062000299565b5060005b60de61ffff821610156200036f576005805460018101825560009190915260008051602062003e808339815191526010820401805461ffff600f9093166002026101000a92830219166007909202919091179055806200036681620005f1565b91505062000306565b5060005b60de606f60646032600a806200038d600361045762000616565b62000399919062000616565b620003a5919062000616565b620003b1919062000616565b620003bd919062000616565b620003c9919062000616565b620003d5919062000616565b61ffff168161ffff16101562000440576005805460018101825560009190915260008051602062003e808339815191526010820401805461ffff600f9093166002026101000a92830219166008909202919091179055806200043781620005f1565b91505062000373565b5060405180606001604052806025815260200162003ea0602591398051620004719160089160209091019062000503565b50600980546001600160a01b0319166001600160a01b039290921691909117905562000679565b8051620004ad90600290602084019062000503565b5050565b600380546001600160a01b038381166001600160a01b0319831681179093556040519116919082907f8be0079c531659141344cd1fd0a4f28419497f9722a3daafe3b4186f6b6457e090600090a35050565b82805462000511906200063c565b90600052602060002090601f01602090048101928262000535576000855562000580565b82601f106200055057805160ff191683800117855562000580565b8280016001018555821562000580579182015b828111156200058057825182559160200191906001019062000563565b506200058e92915062000592565b5090565b5b808211156200058e576000815560010162000593565b600060208284031215620005bc57600080fd5b81516001600160a01b0381168114620005d457600080fd5b9392505050565b634e487b7160e01b600052601160045260246000fd5b600061ffff808316818114156200060c576200060c620005db565b6001019392505050565b600061ffff83811690831681811015620006345762000634620005db565b039392505050565b600181811c908216806200065157607f821691505b602082108114156200067357634e487b7160e01b600052602260045260246000fd5b50919050565b6137f780620006896000396000f3fe6080604052600436106103205760003560e01c80638f9352ba116101a5578063d92e93c8116100ec578063edd47abf11610095578063f2fde38b1161006f578063f2fde38b1461088d578063f4689936146108ad578063ffd807d2146108c3578063fff1f892146108d857600080fd5b8063edd47abf14610843578063ef3af27514610858578063f242432a1461086d57600080fd5b8063e5e01c11116100c6578063e5e01c11146107c5578063e8a3d485146107e5578063e985e9c5146107fa57600080fd5b8063d92e93c814610785578063e04a4ea61461079a578063e3ac5d26146107af57600080fd5b8063ae3c15971161014e578063b582aab011610128578063b582aab014610735578063c306219d1461074a578063d3f330091461075f57600080fd5b8063ae3c1597146106f6578063aea876c01461070b578063b0538dae1461072057600080fd5b806397b578b11161017f57806397b578b1146106c1578063a22cb465146106d6578063a6d24b6d1461048d57600080fd5b80638f9352ba1461068457806392f393f814610699578063938e3d7b146106a157600080fd5b8063335f35a7116102695780636d00e2331161021257806382283600116101ec57806382283600146106315780638da5cb5b146106515780638dd3503e1461066f57600080fd5b80636d00e233146105cf578063715018a6146105e45780637280ef69146105f957600080fd5b80634e1273f4116102435780634e1273f41461056e578063524a12241461059b5780635445941f146105b057600080fd5b8063335f35a714610519578063405ebd4d146105395780634c1299c61461055957600080fd5b80631a20cef8116102cb5780632d218406116102a55780632d218406146104c45780632dc387b3146104e45780632eb2c2d6146104f957600080fd5b80631a20cef8146104785780631ceea7961461048d57806327ddc9c1146104a257600080fd5b8063069a825c116102fc578063069a825c146103fb5780630e89341c146104155780631694c1481461044257600080fd5b80626d6cae14610363578062fdd58e1461039d57806301ffc9a7146103cb57600080fd5b3661035e5760405162461bcd60e51b8152602060048201526009602482015268114b4c0c0c8b4c0c4d60ba1b60448201526064015b60405180910390fd5b600080fd5b34801561036f57600080fd5b5060095461038590600160a01b900461ffff1681565b60405161ffff90911681526020015b60405180910390f35b3480156103a957600080fd5b506103bd6103b8366004612c1d565b610937565b604051908152602001610394565b3480156103d757600080fd5b506103eb6103e6366004612c5d565b6109db565b6040519015158152602001610394565b34801561040757600080fd5b506007546103eb9060ff1681565b34801561042157600080fd5b50610435610430366004612c7a565b610a78565b6040516103949190612ce0565b34801561044e57600080fd5b506103bd61045d366004612cf3565b6001600160a01b03166000908152600a602052604090205490565b34801561048457600080fd5b50610385600381565b34801561049957600080fd5b50610385600a81565b3480156104ae57600080fd5b506104c26104bd366004612cf3565b610b0c565b005b3480156104d057600080fd5b506104c26104df366004612c1d565b610bdc565b3480156104f057600080fd5b506103bd600081565b34801561050557600080fd5b506104c2610514366004612e5a565b610dc7565b34801561052557600080fd5b50610385610534366004612c1d565b610e69565b34801561054557600080fd5b506104c2610554366004612cf3565b610eb0565b34801561056557600080fd5b50610385603281565b34801561057a57600080fd5b5061058e610589366004612f04565b610f4a565b604051610394919061300a565b3480156105a757600080fd5b506103bd600281565b3480156105bc57600080fd5b506007546103eb90610100900460ff1681565b3480156105db57600080fd5b506103bd600781565b3480156105f057600080fd5b506104c2611088565b34801561060557600080fd5b50600954610619906001600160a01b031681565b6040516001600160a01b039091168152602001610394565b34801561063d57600080fd5b506104c261064c36600461301d565b6110ee565b34801561065d57600080fd5b506003546001600160a01b0316610619565b34801561067b57600080fd5b506103bd600381565b34801561069057600080fd5b506103bd600581565b6104c2611472565b3480156106ad57600080fd5b506104c26106bc366004613041565b61148b565b3480156106cd57600080fd5b5061038560de81565b3480156106e257600080fd5b506104c26106f13660046130b3565b6114f1565b34801561070257600080fd5b506104c26115dc565b34801561071757600080fd5b50610385606481565b34801561072c57600080fd5b506103bd600881565b34801561074157600080fd5b50610385611b67565b34801561075657600080fd5b506103bd600681565b34801561076b57600080fd5b50600754610619906201000090046001600160a01b031681565b34801561079157600080fd5b506104c2611bbe565b3480156107a657600080fd5b506103bd600481565b3480156107bb57600080fd5b506103bd60065481565b3480156107d157600080fd5b506104c26107e0366004613041565b611d32565b3480156107f157600080fd5b50610435611dcf565b34801561080657600080fd5b506103eb6108153660046130ef565b6001600160a01b03918216600090815260016020908152604080832093909416825291909152205460ff1690565b34801561084f57600080fd5b506104c2611e61565b34801561086457600080fd5b506103bd600181565b34801561087957600080fd5b506104c2610888366004613122565b611ebe565b34801561089957600080fd5b506104c26108a8366004612cf3565b611f59565b3480156108b957600080fd5b5061038561045781565b3480156108cf57600080fd5b50610385606f81565b3480156108e457600080fd5b506109186108f336600461301d565b600b6020526000908152604090205460ff81169061010090046001600160a01b031682565b6040805192151583526001600160a01b03909116602083015201610394565b60006001600160a01b0383166109b55760405162461bcd60e51b815260206004820152602b60248201527f455243313135353a2062616c616e636520717565727920666f7220746865207a60448201527f65726f20616464726573730000000000000000000000000000000000000000006064820152608401610355565b506000908152602081815260408083206001600160a01b03949094168352929052205490565b60006001600160e01b031982167fd9b67a26000000000000000000000000000000000000000000000000000000001480610a3e57506001600160e01b031982167f0e89341c00000000000000000000000000000000000000000000000000000000145b80610a7257507f01ffc9a7000000000000000000000000000000000000000000000000000000006001600160e01b03198316145b92915050565b606060028054610a8790613187565b80601f0160208091040260200160405190810160405280929190818152602001828054610ab390613187565b8015610b005780601f10610ad557610100808354040283529160200191610b00565b820191906000526020600020905b815481529060010190602001808311610ae357829003601f168201915b50505050509050919050565b6003546001600160a01b03163314610b665760405162461bcd60e51b815260206004820181905260248201527f4f776e61626c653a2063616c6c6572206973206e6f7420746865206f776e65726044820152606401610355565b600954604080516001600160a01b03928316815291831660208301527fe7e90c05da58ad509b126f5c5ce8c90551c45f8d998679deb7154a66092c12b3910160405180910390a16009805473ffffffffffffffffffffffffffffffffffffffff19166001600160a01b0392909216919091179055565b6007546201000090046001600160a01b03163314610c285760405162461bcd60e51b8152602060048201526009602482015268452d3030322d30313560b81b6044820152606401610355565b6009546005548291610c4691600160b01b90910461ffff16906131d8565b1015610c945760405162461bcd60e51b815260206004820152600960248201527f452d3030322d30303900000000000000000000000000000000000000000000006044820152606401610355565b60005b81811015610dc25760098054600160a01b900461ffff16906014610cba836131ef565b91906101000a81548161ffff021916908361ffff160217905550506009601681819054906101000a900461ffff1680929190610cf5906131ef565b82546101009290920a61ffff818102199093169183160217909155600954604080516001600160a01b0388168152600160a01b90920490921660208201527f792116194a9c99a8e97047b42c4fbee03694bcb41a0d0b4b4ab5c7352577812d92500160405180910390a1600954600160a01b900461ffff166000908152600b6020526040902080547fffffffffffffffffffffff0000000000000000000000000000000000000000ff166101006001600160a01b0386160217905580610dba81613211565b915050610c97565b505050565b6001600160a01b038516331480610de35750610de38533610815565b610e555760405162461bcd60e51b815260206004820152603260248201527f455243313135353a207472616e736665722063616c6c6572206973206e6f742060448201527f6f776e6572206e6f7220617070726f76656400000000000000000000000000006064820152608401610355565b610e62858585858561203b565b5050505050565b600a6020528160005260406000208181548110610e8557600080fd5b9060005260206000209060109182820401919006600202915091509054906101000a900461ffff1681565b6003546001600160a01b03163314610f0a5760405162461bcd60e51b815260206004820181905260248201527f4f776e61626c653a2063616c6c6572206973206e6f7420746865206f776e65726044820152606401610355565b600780546001600160a01b0390921662010000027fffffffffffffffffffff0000000000000000000000000000000000000000ffff909216919091179055565b60608151835114610fc35760405162461bcd60e51b815260206004820152602960248201527f455243313135353a206163636f756e747320616e6420696473206c656e67746860448201527f206d69736d6174636800000000000000000000000000000000000000000000006064820152608401610355565b6000835167ffffffffffffffff811115610fdf57610fdf612d0e565b604051908082528060200260200182016040528015611008578160200160208202803683370190505b50905060005b84518110156110805761105385828151811061102c5761102c61322c565b60200260200101518583815181106110465761104661322c565b6020026020010151610937565b8282815181106110655761106561322c565b602090810291909101015261107981613211565b905061100e565b509392505050565b6003546001600160a01b031633146110e25760405162461bcd60e51b815260206004820181905260248201527f4f776e61626c653a2063616c6c6572206973206e6f7420746865206f776e65726044820152606401610355565b6110ec60006122ae565b565b6009546001600160a01b031633146111485760405162461bcd60e51b815260206004820152600a60248201527f452d3030322d30303136000000000000000000000000000000000000000000006044820152606401610355565b61ffff81166000908152600b602052604090205460ff16156111ac5760405162461bcd60e51b815260206004820152600960248201527f452d3030322d30313700000000000000000000000000000000000000000000006044820152606401610355565b600954600160b01b900461ffff166112065760405162461bcd60e51b815260206004820152600960248201527f452d3030322d30313900000000000000000000000000000000000000000000006044820152606401610355565b60095461ffff600160a01b909104811690821611156112675760405162461bcd60e51b815260206004820152600960248201527f452d3030322d30323000000000000000000000000000000000000000000000006044820152606401610355565b61ffff8082166000908152600b60205260409020805460ff1916600117905560098054600160b01b90049091169060166112a083613242565b91906101000a81548161ffff021916908361ffff1602179055505060006112c7600561230d565b90506000600582815481106112de576112de61322c565b90600052602060002090601091828204019190066002029054906101000a900461ffff1690506005600160058054905061131891906131d8565b815481106113285761132861322c565b90600052602060002090601091828204019190066002029054906101000a900461ffff166005838154811061135f5761135f61322c565b90600052602060002090601091828204019190066002026101000a81548161ffff021916908361ffff160217905550600580548061139f5761139f613260565b600082815260208082206010600019949094018481049091018054600f808416600290810261010090810a61ffff9081021990941690945593909755898116808652600b85526040808720548490046001600160a01b0316808852600a875281882080546001810182559089529787902098880490980180549790991690940290920a808202199095169088169485021790955580519485529084019190915290917ff9ec374d5a34014dc78cce0e6df87a0f5c55ba84e7432ccab2a5493111080184910160405180910390a150505050565b34600660008282546114849190613276565b9091555050565b6003546001600160a01b031633146114e55760405162461bcd60e51b815260206004820181905260248201527f4f776e61626c653a2063616c6c6572206973206e6f7420746865206f776e65726044820152606401610355565b610dc260088383612acf565b336001600160a01b03831614156115705760405162461bcd60e51b815260206004820152602960248201527f455243313135353a2073657474696e6720617070726f76616c2073746174757360448201527f20666f722073656c6600000000000000000000000000000000000000000000006064820152608401610355565b3360008181526001602090815260408083206001600160a01b03871680855290835292819020805460ff191686151590811790915590519081529192917f17307eab39ab6107e8899845ad3d59bd9653f200f220920489ca2b5937696c31910160405180910390a35050565b6002600454141561162f5760405162461bcd60e51b815260206004820152601f60248201527f5265656e7472616e637947756172643a207265656e7472616e742063616c6c006044820152606401610355565b6002600455600754610100900460ff1661168b5760405162461bcd60e51b815260206004820152600960248201527f452d3030322d30313000000000000000000000000000000000000000000000006044820152606401610355565b60075460ff16156116de5760405162461bcd60e51b815260206004820152600960248201527f452d3030322d30313100000000000000000000000000000000000000000000006044820152606401610355565b6000600654116117305760405162461bcd60e51b815260206004820152600960248201527f452d3030322d30313200000000000000000000000000000000000000000000006044820152606401610355565b600061173d336001610937565b1161178a5760405162461bcd60e51b815260206004820152600960248201527f452d3030322d30303100000000000000000000000000000000000000000000006044820152606401610355565b6000611797336002610937565b116117e45760405162461bcd60e51b815260206004820152600960248201527f452d3030322d30303200000000000000000000000000000000000000000000006044820152606401610355565b60006117f1336003610937565b1161183e5760405162461bcd60e51b815260206004820152600960248201527f452d3030322d30303300000000000000000000000000000000000000000000006044820152606401610355565b600061184b336004610937565b116118985760405162461bcd60e51b815260206004820152600960248201527f452d3030322d30303400000000000000000000000000000000000000000000006044820152606401610355565b60006118a5336005610937565b116118f25760405162461bcd60e51b815260206004820152600960248201527f452d3030322d30303500000000000000000000000000000000000000000000006044820152606401610355565b60006118ff336006610937565b1161194c5760405162461bcd60e51b815260206004820152600960248201527f452d3030322d30303600000000000000000000000000000000000000000000006044820152606401610355565b6000611959336007610937565b116119a65760405162461bcd60e51b815260206004820152600960248201527f452d3030322d30303700000000000000000000000000000000000000000000006044820152606401610355565b60006119b3336008610937565b11611a005760405162461bcd60e51b815260206004820152600960248201527f452d3030322d30303800000000000000000000000000000000000000000000006044820152606401610355565b611a0c3360018061235e565b611a19336002600161235e565b611a26336003600161235e565b611a33336004600161235e565b611a40336005600161235e565b611a4d336006600161235e565b611a5a336007600161235e565b611a67336008600161235e565b611a9033600060016040518060400160405280600381526020016203078360ec1b81525061250b565b6040513381527fb90f637c9ae38effeea06ad34c58331954898f0d0d4109d30b95e0426b291ff79060200160405180910390a16007805460ff1916600117905560068054600091829055604051909190339083908381818185875af1925050503d8060008114611b1c576040519150601f19603f3d011682016040523d82523d6000602084013e611b21565b606091505b5050905080611b5e5760405162461bcd60e51b8152602060048201526009602482015268114b4c0c0c8b4c0c4d60ba1b6044820152606401610355565b50506001600455565b60de606f60646032600a80611b7f600361045761328e565b611b89919061328e565b611b93919061328e565b611b9d919061328e565b611ba7919061328e565b611bb1919061328e565b611bbb919061328e565b81565b60026004541415611c115760405162461bcd60e51b815260206004820152601f60248201527f5265656e7472616e637947756172643a207265656e7472616e742063616c6c006044820152606401610355565b6002600455336000908152600a6020526040902054611c725760405162461bcd60e51b815260206004820152600960248201527f452d3030322d30313800000000000000000000000000000000000000000000006044820152606401610355565b60005b336000908152600a6020526040902054811015611d1257336000908152600a60205260408120805483908110611cad57611cad61322c565b90600052602060002090601091828204019190066002029054906101000a900461ffff1661ffff169050611cff338260016040518060400160405280600381526020016203078360ec1b81525061250b565b5080611d0a81613211565b915050611c75565b50336000908152600a60205260408120611d2b91612b53565b6001600455565b6003546001600160a01b03163314611d8c5760405162461bcd60e51b815260206004820181905260248201527f4f776e61626c653a2063616c6c6572206973206e6f7420746865206f776e65726044820152606401610355565b611dcb82828080601f01602080910402602001604051908101604052809392919081815260200183838082843760009201919091525061263192505050565b5050565b606060088054611dde90613187565b80601f0160208091040260200160405190810160405280929190818152602001828054611e0a90613187565b8015611e575780601f10611e2c57610100808354040283529160200191611e57565b820191906000526020600020905b815481529060010190602001808311611e3a57829003601f168201915b5050505050905090565b6007546201000090046001600160a01b03163314611ead5760405162461bcd60e51b8152602060048201526009602482015268452d3030322d30313560b81b6044820152606401610355565b6007805461ff001916610100179055565b6001600160a01b038516331480611eda5750611eda8533610815565b611f4c5760405162461bcd60e51b815260206004820152602960248201527f455243313135353a2063616c6c6572206973206e6f74206f776e6572206e6f7260448201527f20617070726f76656400000000000000000000000000000000000000000000006064820152608401610355565b610e628585858585612644565b6003546001600160a01b03163314611fb35760405162461bcd60e51b815260206004820181905260248201527f4f776e61626c653a2063616c6c6572206973206e6f7420746865206f776e65726044820152606401610355565b6001600160a01b03811661202f5760405162461bcd60e51b815260206004820152602660248201527f4f776e61626c653a206e6577206f776e657220697320746865207a65726f206160448201527f64647265737300000000000000000000000000000000000000000000000000006064820152608401610355565b612038816122ae565b50565b81518351146120b25760405162461bcd60e51b815260206004820152602860248201527f455243313135353a2069647320616e6420616d6f756e7473206c656e6774682060448201527f6d69736d617463680000000000000000000000000000000000000000000000006064820152608401610355565b6001600160a01b0384166121165760405162461bcd60e51b815260206004820152602560248201527f455243313135353a207472616e7366657220746f20746865207a65726f206164604482015264647265737360d81b6064820152608401610355565b3360005b84518110156122405760008582815181106121375761213761322c565b6020026020010151905060008583815181106121555761215561322c565b602090810291909101810151600084815280835260408082206001600160a01b038e1683529093529190912054909150818110156121e85760405162461bcd60e51b815260206004820152602a60248201527f455243313135353a20696e73756666696369656e742062616c616e636520666f60448201526939103a3930b739b332b960b11b6064820152608401610355565b6000838152602081815260408083206001600160a01b038e8116855292528083208585039055908b16825281208054849290612225908490613276565b925050819055505050508061223990613211565b905061211a565b50846001600160a01b0316866001600160a01b0316826001600160a01b03167f4a39dc06d4c0dbc64b70af90fd698a233a518aa5d07e595d983b8c0526c8f7fb87876040516122909291906132b1565b60405180910390a46122a68187878787876127e2565b505050505050565b600380546001600160a01b0383811673ffffffffffffffffffffffffffffffffffffffff19831681179093556040519116919082907f8be0079c531659141344cd1fd0a4f28419497f9722a3daafe3b4186f6b6457e090600090a35050565b6000808261231c6001436131d8565b4033604051602001612330939291906132df565b60408051601f1981840301815291905280516020909101208354909150612357908261363b565b9392505050565b6001600160a01b0383166123da5760405162461bcd60e51b815260206004820152602360248201527f455243313135353a206275726e2066726f6d20746865207a65726f206164647260448201527f65737300000000000000000000000000000000000000000000000000000000006064820152608401610355565b3361240a818560006123eb87612988565b6123f487612988565b5050604080516020810190915260009052505050565b6000838152602081815260408083206001600160a01b0388168452909152902054828110156124a05760405162461bcd60e51b8152602060048201526024808201527f455243313135353a206275726e20616d6f756e7420657863656564732062616c60448201527f616e6365000000000000000000000000000000000000000000000000000000006064820152608401610355565b6000848152602081815260408083206001600160a01b03898116808652918452828520888703905582518981529384018890529092908616917fc3d58168c5ae7397731d063d5bbf3d657854427343f4c083240f7aacaa2d0f62910160405180910390a45050505050565b6001600160a01b0384166125875760405162461bcd60e51b815260206004820152602160248201527f455243313135353a206d696e7420746f20746865207a65726f2061646472657360448201527f73000000000000000000000000000000000000000000000000000000000000006064820152608401610355565b336125a18160008761259888612988565b610e6288612988565b6000848152602081815260408083206001600160a01b0389168452909152812080548592906125d1908490613276565b909155505060408051858152602081018590526001600160a01b0380881692600092918516917fc3d58168c5ae7397731d063d5bbf3d657854427343f4c083240f7aacaa2d0f62910160405180910390a4610e62816000878787876129d3565b8051611dcb906002906020840190612b78565b6001600160a01b0384166126a85760405162461bcd60e51b815260206004820152602560248201527f455243313135353a207472616e7366657220746f20746865207a65726f206164604482015264647265737360d81b6064820152608401610355565b336126b881878761259888612988565b6000848152602081815260408083206001600160a01b038a1684529091529020548381101561273c5760405162461bcd60e51b815260206004820152602a60248201527f455243313135353a20696e73756666696369656e742062616c616e636520666f60448201526939103a3930b739b332b960b11b6064820152608401610355565b6000858152602081815260408083206001600160a01b038b8116855292528083208785039055908816825281208054869290612779908490613276565b909155505060408051868152602081018690526001600160a01b03808916928a821692918616917fc3d58168c5ae7397731d063d5bbf3d657854427343f4c083240f7aacaa2d0f62910160405180910390a46127d98288888888886129d3565b50505050505050565b6001600160a01b0384163b156122a65760405163bc197c8160e01b81526001600160a01b0385169063bc197c8190612826908990899088908890889060040161365d565b6020604051808303816000875af1925050508015612861575060408051601f3d908101601f1916820190925261285e918101906136bb565b60015b6129175761286d6136d8565b806308c379a014156128a757506128826136f4565b8061288d57506128a9565b8060405162461bcd60e51b81526004016103559190612ce0565b505b60405162461bcd60e51b815260206004820152603460248201527f455243313135353a207472616e7366657220746f206e6f6e204552433131353560448201527f526563656976657220696d706c656d656e7465720000000000000000000000006064820152608401610355565b6001600160e01b0319811663bc197c8160e01b146127d95760405162461bcd60e51b815260206004820152602860248201527f455243313135353a204552433131353552656365697665722072656a656374656044820152676420746f6b656e7360c01b6064820152608401610355565b604080516001808252818301909252606091600091906020808301908036833701905050905082816000815181106129c2576129c261322c565b602090810291909101015292915050565b6001600160a01b0384163b156122a65760405163f23a6e6160e01b81526001600160a01b0385169063f23a6e6190612a17908990899088908890889060040161377e565b6020604051808303816000875af1925050508015612a52575060408051601f3d908101601f19168201909252612a4f918101906136bb565b60015b612a5e5761286d6136d8565b6001600160e01b0319811663f23a6e6160e01b146127d95760405162461bcd60e51b815260206004820152602860248201527f455243313135353a204552433131353552656365697665722072656a656374656044820152676420746f6b656e7360c01b6064820152608401610355565b828054612adb90613187565b90600052602060002090601f016020900481019282612afd5760008555612b43565b82601f10612b165782800160ff19823516178555612b43565b82800160010185558215612b43579182015b82811115612b43578235825591602001919060010190612b28565b50612b4f929150612bec565b5090565b50805460008255600f0160109004906000526020600020908101906120389190612bec565b828054612b8490613187565b90600052602060002090601f016020900481019282612ba65760008555612b43565b82601f10612bbf57805160ff1916838001178555612b43565b82800160010185558215612b43579182015b82811115612b43578251825591602001919060010190612bd1565b5b80821115612b4f5760008155600101612bed565b80356001600160a01b0381168114612c1857600080fd5b919050565b60008060408385031215612c3057600080fd5b612c3983612c01565b946020939093013593505050565b6001600160e01b03198116811461203857600080fd5b600060208284031215612c6f57600080fd5b813561235781612c47565b600060208284031215612c8c57600080fd5b5035919050565b6000815180845260005b81811015612cb957602081850181015186830182015201612c9d565b81811115612ccb576000602083870101525b50601f01601f19169290920160200192915050565b6020815260006123576020830184612c93565b600060208284031215612d0557600080fd5b61235782612c01565b634e487b7160e01b600052604160045260246000fd5b601f8201601f1916810167ffffffffffffffff81118282101715612d4a57612d4a612d0e565b6040525050565b600067ffffffffffffffff821115612d6b57612d6b612d0e565b5060051b60200190565b600082601f830112612d8657600080fd5b81356020612d9382612d51565b604051612da08282612d24565b83815260059390931b8501820192828101915086841115612dc057600080fd5b8286015b84811015612ddb5780358352918301918301612dc4565b509695505050505050565b600082601f830112612df757600080fd5b813567ffffffffffffffff811115612e1157612e11612d0e565b604051612e28601f8301601f191660200182612d24565b818152846020838601011115612e3d57600080fd5b816020850160208301376000918101602001919091529392505050565b600080600080600060a08688031215612e7257600080fd5b612e7b86612c01565b9450612e8960208701612c01565b9350604086013567ffffffffffffffff80821115612ea657600080fd5b612eb289838a01612d75565b94506060880135915080821115612ec857600080fd5b612ed489838a01612d75565b93506080880135915080821115612eea57600080fd5b50612ef788828901612de6565b9150509295509295909350565b60008060408385031215612f1757600080fd5b823567ffffffffffffffff80821115612f2f57600080fd5b818501915085601f830112612f4357600080fd5b81356020612f5082612d51565b604051612f5d8282612d24565b83815260059390931b8501820192828101915089841115612f7d57600080fd5b948201945b83861015612fa257612f9386612c01565b82529482019490820190612f82565b96505086013592505080821115612fb857600080fd5b50612fc585828601612d75565b9150509250929050565b600081518084526020808501945080840160005b83811015612fff57815187529582019590820190600101612fe3565b509495945050505050565b6020815260006123576020830184612fcf565b60006020828403121561302f57600080fd5b813561ffff8116811461235757600080fd5b6000806020838503121561305457600080fd5b823567ffffffffffffffff8082111561306c57600080fd5b818501915085601f83011261308057600080fd5b81358181111561308f57600080fd5b8660208285010111156130a157600080fd5b60209290920196919550909350505050565b600080604083850312156130c657600080fd5b6130cf83612c01565b9150602083013580151581146130e457600080fd5b809150509250929050565b6000806040838503121561310257600080fd5b61310b83612c01565b915061311960208401612c01565b90509250929050565b600080600080600060a0868803121561313a57600080fd5b61314386612c01565b945061315160208701612c01565b93506040860135925060608601359150608086013567ffffffffffffffff81111561317b57600080fd5b612ef788828901612de6565b600181811c9082168061319b57607f821691505b602082108114156131bc57634e487b7160e01b600052602260045260246000fd5b50919050565b634e487b7160e01b600052601160045260246000fd5b6000828210156131ea576131ea6131c2565b500390565b600061ffff80831681811415613207576132076131c2565b6001019392505050565b6000600019821415613225576132256131c2565b5060010190565b634e487b7160e01b600052603260045260246000fd5b600061ffff821680613256576132566131c2565b6000190192915050565b634e487b7160e01b600052603160045260246000fd5b60008219821115613289576132896131c2565b500190565b600061ffff838116908316818110156132a9576132a96131c2565b039392505050565b6040815260006132c46040830185612fcf565b82810360208401526132d68185612fcf565b95945050505050565b83546000858152602081209091839160005b82600f8201101561344257815461ffff8082168652602061331c818801838560101c1661ffff169052565b60406133318189018486851c1661ffff169052565b60609150613349828901848660301c1661ffff169052565b608061335e818a018587851c1661ffff169052565b60a09150613376828a01858760501c1661ffff169052565b60c061338b818b018688871c1661ffff169052565b60e093506133a3848b01868860701c1661ffff169052565b61ffff86831c8616166101008b01526133c86101208b01868860901c1661ffff169052565b61ffff86841c8616166101408b01526133ed6101608b01868860b01c1661ffff169052565b61ffff86821c8616166101808b01525050506134156101a08801838560d01c1661ffff169052565b82901c1661ffff166101c086015260f01c6101e085015261020090930192600191909101906010016132f1565b9054908281101561345e5761ffff821684526020909301926001015b8281101561347b5761ffff601083901c1684526020909301926001015b8281101561349957602082901c61ffff168452602093909301926001015b828110156134b65761ffff603083901c1684526020909301926001015b828110156134d35761ffff604083901c1684526020909301926001015b828110156134f05761ffff605083901c1684526020909301926001015b8281101561350d5761ffff606083901c1684526020909301926001015b8281101561352a5761ffff607083901c1684526020909301926001015b828110156135475761ffff608083901c1684526020909301926001015b828110156135645761ffff609083901c1684526020909301926001015b828110156135815761ffff60a083901c1684526020909301926001015b8281101561359e5761ffff60b083901c1684526020909301926001015b828110156135bb5761ffff60c083901c1684526020909301926001015b828110156135d85761ffff60d083901c1684526020909301926001015b828110156135f55761ffff60e083901c1684526020909301926001015b8281101561360b5760f082901c84526020840193505b50505084815261362f602082018560601b6bffffffffffffffffffffffff19169052565b60340195945050505050565b60008261365857634e487b7160e01b600052601260045260246000fd5b500690565b60006001600160a01b03808816835280871660208401525060a0604083015261368960a0830186612fcf565b828103606084015261369b8186612fcf565b905082810360808401526136af8185612c93565b98975050505050505050565b6000602082840312156136cd57600080fd5b815161235781612c47565b600060033d11156136f15760046000803e5060005160e01c5b90565b600060443d10156137025790565b6040516003193d81016004833e81513d67ffffffffffffffff816024840111818411171561373257505050505090565b828501915081518181111561374a5750505050505090565b843d87010160208285010111156137645750505050505090565b61377360208286010187612d24565b509095945050505050565b60006001600160a01b03808816835280871660208401525084604083015283606083015260a060808301526137b660a0830184612c93565b97965050505050505056fea2646970667358221220ea911e0fc116230195d0f594700eb1c21317440b74c3c279a9da771177c7bd9064736f6c634300080a0033036b6384b5eca791c62761152d0c79bb0604c104a5fb6f4eb0703f3154bb3db068747470733a2f2f6170692e636f696e6c616e6465722e6f6e652f6d6574612f7661756c7468747470733a2f2f6170692e636f696e6c616e6465722e6f6e652f6d6574612f7661756c742f7b69647d",
  "linkReferences": {},
  "deployedLinkReferences": {}
}