{
  "_format": "hh-sol-artifact-1",
  "contractName": "ERC721Marketplace",
  "sourceName": "contracts/ERC721Marketplace.sol",
  "abi": [
    {
      "inputs": [],
      "stateMutability": "nonpayable",
      "type": "constructor"
    },
    {
      "anonymous": false,
      "inputs": [
        {
          "indexed": false,
          "internalType": "address",
          "name": "nftContractAddress",
          "type": "address"
        },
        {
          "indexed": false,
          "internalType": "uint256",
          "name": "tokenId",
          "type": "uint256"
        },
        {
          "indexed": false,
          "internalType": "uint64",
          "name": "auctionEndPeriod",
          "type": "uint64"
        }
      ],
      "name": "AuctionPeriodUpdated",
      "type": "event"
    },
    {
      "anonymous": false,
      "inputs": [
        {
          "indexed": false,
          "internalType": "address",
          "name": "nftContractAddress",
          "type": "address"
        },
        {
          "indexed": false,
          "internalType": "uint256",
          "name": "tokenId",
          "type": "uint256"
        },
        {
          "indexed": false,
          "internalType": "address",
          "name": "auctionSettler",
          "type": "address"
        }
      ],
      "name": "AuctionSettled",
      "type": "event"
    },
    {
      "anonymous": false,
      "inputs": [
        {
          "indexed": false,
          "internalType": "address",
          "name": "nftContractAddress",
          "type": "address"
        },
        {
          "indexed": false,
          "internalType": "uint256",
          "name": "tokenId",
          "type": "uint256"
        },
        {
          "indexed": false,
          "internalType": "address",
          "name": "nftOwner",
          "type": "address"
        }
      ],
      "name": "AuctionWithdrawn",
      "type": "event"
    },
    {
      "anonymous": false,
      "inputs": [
        {
          "indexed": false,
          "internalType": "address",
          "name": "nftContractAddress",
          "type": "address"
        },
        {
          "indexed": false,
          "internalType": "uint256",
          "name": "tokenId",
          "type": "uint256"
        },
        {
          "indexed": false,
          "internalType": "address",
          "name": "bidder",
          "type": "address"
        },
        {
          "indexed": false,
          "internalType": "uint256",
          "name": "ethAmount",
          "type": "uint256"
        }
      ],
      "name": "BidMade",
      "type": "event"
    },
    {
      "anonymous": false,
      "inputs": [
        {
          "indexed": false,
          "internalType": "address",
          "name": "nftContractAddress",
          "type": "address"
        },
        {
          "indexed": false,
          "internalType": "uint256",
          "name": "tokenId",
          "type": "uint256"
        },
        {
          "indexed": false,
          "internalType": "address",
          "name": "highestBidder",
          "type": "address"
        }
      ],
      "name": "BidWithdrawn",
      "type": "event"
    },
    {
      "anonymous": false,
      "inputs": [
        {
          "indexed": false,
          "internalType": "address",
          "name": "nftContractAddress",
          "type": "address"
        },
        {
          "indexed": false,
          "internalType": "uint256",
          "name": "tokenId",
          "type": "uint256"
        },
        {
          "indexed": false,
          "internalType": "uint128",
          "name": "newBuyNowPrice",
          "type": "uint128"
        }
      ],
      "name": "BuyNowPriceUpdated",
      "type": "event"
    },
    {
      "anonymous": false,
      "inputs": [
        {
          "indexed": false,
          "internalType": "address",
          "name": "nftContractAddress",
          "type": "address"
        },
        {
          "indexed": false,
          "internalType": "uint256",
          "name": "tokenId",
          "type": "uint256"
        }
      ],
      "name": "HighestBidTaken",
      "type": "event"
    },
    {
      "anonymous": false,
      "inputs": [
        {
          "indexed": false,
          "internalType": "address",
          "name": "nftContractAddress",
          "type": "address"
        },
        {
          "indexed": false,
          "internalType": "uint256",
          "name": "tokenId",
          "type": "uint256"
        },
        {
          "indexed": false,
          "internalType": "uint256",
          "name": "newMinPrice",
          "type": "uint256"
        }
      ],
      "name": "MinimumPriceUpdated",
      "type": "event"
    },
    {
      "anonymous": false,
      "inputs": [
        {
          "indexed": false,
          "internalType": "address",
          "name": "nftContractAddress",
          "type": "address"
        },
        {
          "indexed": false,
          "internalType": "uint256",
          "name": "tokenId",
          "type": "uint256"
        },
        {
          "indexed": false,
          "internalType": "address",
          "name": "nftSeller",
          "type": "address"
        },
        {
          "indexed": false,
          "internalType": "uint128",
          "name": "nftHighestBid",
          "type": "uint128"
        },
        {
          "indexed": false,
          "internalType": "address",
          "name": "nftHighestBidder",
          "type": "address"
        },
        {
          "indexed": false,
          "internalType": "address",
          "name": "nftRecipient",
          "type": "address"
        }
      ],
      "name": "NFTTransferredAndSellerPaid",
      "type": "event"
    },
    {
      "anonymous": false,
      "inputs": [
        {
          "indexed": false,
          "internalType": "address",
          "name": "nftContractAddress",
          "type": "address"
        },
        {
          "indexed": false,
          "internalType": "uint256",
          "name": "tokenId",
          "type": "uint256"
        },
        {
          "indexed": false,
          "internalType": "address",
          "name": "nftSeller",
          "type": "address"
        },
        {
          "indexed": false,
          "internalType": "uint128",
          "name": "minPrice",
          "type": "uint128"
        },
        {
          "indexed": false,
          "internalType": "uint128",
          "name": "buyNowPrice",
          "type": "uint128"
        },
        {
          "indexed": false,
          "internalType": "uint32",
          "name": "auctionBidPeriod",
          "type": "uint32"
        },
        {
          "indexed": false,
          "internalType": "uint32",
          "name": "bidIncreasePercentage",
          "type": "uint32"
        },
        {
          "indexed": false,
          "internalType": "address",
          "name": "feeRecipient",
          "type": "address"
        },
        {
          "indexed": false,
          "internalType": "uint32",
          "name": "feePercentage",
          "type": "uint32"
        }
      ],
      "name": "NftAuctionCreated",
      "type": "event"
    },
    {
      "anonymous": false,
      "inputs": [
        {
          "indexed": true,
          "internalType": "address",
          "name": "previousOwner",
          "type": "address"
        },
        {
          "indexed": true,
          "internalType": "address",
          "name": "newOwner",
          "type": "address"
        }
      ],
      "name": "OwnershipTransferred",
      "type": "event"
    },
    {
      "anonymous": false,
      "inputs": [
        {
          "indexed": false,
          "internalType": "address",
          "name": "nftContractAddress",
          "type": "address"
        },
        {
          "indexed": false,
          "internalType": "uint256",
          "name": "tokenId",
          "type": "uint256"
        },
        {
          "indexed": false,
          "internalType": "address",
          "name": "nftSeller",
          "type": "address"
        },
        {
          "indexed": false,
          "internalType": "uint128",
          "name": "buyNowPrice",
          "type": "uint128"
        },
        {
          "indexed": false,
          "internalType": "address",
          "name": "whitelistedBuyer",
          "type": "address"
        },
        {
          "indexed": false,
          "internalType": "address",
          "name": "feeRecipient",
          "type": "address"
        },
        {
          "indexed": false,
          "internalType": "uint32",
          "name": "feePercentage",
          "type": "uint32"
        }
      ],
      "name": "SaleCreated",
      "type": "event"
    },
    {
      "anonymous": false,
      "inputs": [
        {
          "indexed": false,
          "internalType": "address",
          "name": "nftContractAddress",
          "type": "address"
        },
        {
          "indexed": false,
          "internalType": "uint256",
          "name": "tokenId",
          "type": "uint256"
        },
        {
          "indexed": false,
          "internalType": "address",
          "name": "newWhitelistedBuyer",
          "type": "address"
        }
      ],
      "name": "WhitelistedBuyerUpdated",
      "type": "event"
    },
    {
      "inputs": [
        {
          "internalType": "address",
          "name": "_nftContractAddress",
          "type": "address"
        },
        {
          "internalType": "uint256",
          "name": "_tokenId",
          "type": "uint256"
        },
        {
          "internalType": "uint128",
          "name": "_minPrice",
          "type": "uint128"
        },
        {
          "internalType": "uint128",
          "name": "_buyNowPrice",
          "type": "uint128"
        },
        {
          "internalType": "uint32",
          "name": "_auctionBidPeriod",
          "type": "uint32"
        },
        {
          "internalType": "uint32",
          "name": "_bidIncreasePercentage",
          "type": "uint32"
        }
      ],
      "name": "createNewNftAuction",
      "outputs": [],
      "stateMutability": "nonpayable",
      "type": "function"
    },
    {
      "inputs": [
        {
          "internalType": "address",
          "name": "_nftContractAddress",
          "type": "address"
        },
        {
          "internalType": "uint256",
          "name": "_tokenId",
          "type": "uint256"
        },
        {
          "internalType": "uint128",
          "name": "_buyNowPrice",
          "type": "uint128"
        },
        {
          "internalType": "address",
          "name": "_whitelistedBuyer",
          "type": "address"
        }
      ],
      "name": "createSale",
      "outputs": [],
      "stateMutability": "nonpayable",
      "type": "function"
    },
    {
      "inputs": [],
      "name": "defaultAuctionBidPeriod",
      "outputs": [
        {
          "internalType": "uint32",
          "name": "",
          "type": "uint32"
        }
      ],
      "stateMutability": "view",
      "type": "function"
    },
    {
      "inputs": [],
      "name": "defaultBidIncreasePercentage",
      "outputs": [
        {
          "internalType": "uint32",
          "name": "",
          "type": "uint32"
        }
      ],
      "stateMutability": "view",
      "type": "function"
    },
    {
      "inputs": [],
      "name": "defaultFeeCollector",
      "outputs": [
        {
          "internalType": "address",
          "name": "",
          "type": "address"
        }
      ],
      "stateMutability": "view",
      "type": "function"
    },
    {
      "inputs": [],
      "name": "defaultFeePercentage",
      "outputs": [
        {
          "internalType": "uint32",
          "name": "",
          "type": "uint32"
        }
      ],
      "stateMutability": "view",
      "type": "function"
    },
    {
      "inputs": [
        {
          "internalType": "address",
          "name": "_nftContractAddress",
          "type": "address"
        },
        {
          "internalType": "uint256",
          "name": "_tokenId",
          "type": "uint256"
        }
      ],
      "name": "makeBid",
      "outputs": [],
      "stateMutability": "payable",
      "type": "function"
    },
    {
      "inputs": [
        {
          "internalType": "address",
          "name": "_nftContractAddress",
          "type": "address"
        },
        {
          "internalType": "uint256",
          "name": "_tokenId",
          "type": "uint256"
        },
        {
          "internalType": "address",
          "name": "_nftRecipient",
          "type": "address"
        }
      ],
      "name": "makeCustomBid",
      "outputs": [],
      "stateMutability": "payable",
      "type": "function"
    },
    {
      "inputs": [],
      "name": "maximumMinPricePercentage",
      "outputs": [
        {
          "internalType": "uint32",
          "name": "",
          "type": "uint32"
        }
      ],
      "stateMutability": "view",
      "type": "function"
    },
    {
      "inputs": [],
      "name": "minimumSettableIncreasePercentage",
      "outputs": [
        {
          "internalType": "uint32",
          "name": "",
          "type": "uint32"
        }
      ],
      "stateMutability": "view",
      "type": "function"
    },
    {
      "inputs": [
        {
          "internalType": "address",
          "name": "",
          "type": "address"
        },
        {
          "internalType": "uint256",
          "name": "",
          "type": "uint256"
        }
      ],
      "name": "nftContractAuctions",
      "outputs": [
        {
          "internalType": "uint32",
          "name": "bidIncreasePercentage",
          "type": "uint32"
        },
        {
          "internalType": "uint32",
          "name": "auctionBidPeriod",
          "type": "uint32"
        },
        {
          "internalType": "uint64",
          "name": "auctionEnd",
          "type": "uint64"
        },
        {
          "internalType": "uint128",
          "name": "minPrice",
          "type": "uint128"
        },
        {
          "internalType": "uint128",
          "name": "buyNowPrice",
          "type": "uint128"
        },
        {
          "internalType": "uint128",
          "name": "nftHighestBid",
          "type": "uint128"
        },
        {
          "internalType": "address",
          "name": "nftHighestBidder",
          "type": "address"
        },
        {
          "internalType": "address",
          "name": "nftSeller",
          "type": "address"
        },
        {
          "internalType": "address",
          "name": "whitelistedBuyer",
          "type": "address"
        },
        {
          "internalType": "address",
          "name": "nftRecipient",
          "type": "address"
        },
        {
          "internalType": "address",
          "name": "feeRecipient",
          "type": "address"
        },
        {
          "internalType": "uint32",
          "name": "feePercentage",
          "type": "uint32"
        }
      ],
      "stateMutability": "view",
      "type": "function"
    },
    {
      "inputs": [],
      "name": "owner",
      "outputs": [
        {
          "internalType": "address",
          "name": "",
          "type": "address"
        }
      ],
      "stateMutability": "view",
      "type": "function"
    },
    {
      "inputs": [
        {
          "internalType": "address",
          "name": "_nftContractAddress",
          "type": "address"
        },
        {
          "internalType": "uint256",
          "name": "_tokenId",
          "type": "uint256"
        }
      ],
      "name": "ownerOfNFT",
      "outputs": [
        {
          "internalType": "address",
          "name": "",
          "type": "address"
        }
      ],
      "stateMutability": "view",
      "type": "function"
    },
    {
      "inputs": [],
      "name": "renounceOwnership",
      "outputs": [],
      "stateMutability": "nonpayable",
      "type": "function"
    },
    {
      "inputs": [
        {
          "internalType": "address",
          "name": "_feeCollector",
          "type": "address"
        }
      ],
      "name": "setDefaultFeeCollector",
      "outputs": [],
      "stateMutability": "nonpayable",
      "type": "function"
    },
    {
      "inputs": [
        {
          "internalType": "uint32",
          "name": "_feePercentage",
          "type": "uint32"
        }
      ],
      "name": "setDefaultFeePercentage",
      "outputs": [],
      "stateMutability": "nonpayable",
      "type": "function"
    },
    {
      "inputs": [
        {
          "internalType": "address",
          "name": "_nftContractAddress",
          "type": "address"
        },
        {
          "internalType": "uint256",
          "name": "_tokenId",
          "type": "uint256"
        }
      ],
      "name": "settleAuction",
      "outputs": [],
      "stateMutability": "nonpayable",
      "type": "function"
    },
    {
      "inputs": [
        {
          "internalType": "address",
          "name": "_nftContractAddress",
          "type": "address"
        },
        {
          "internalType": "uint256",
          "name": "_tokenId",
          "type": "uint256"
        }
      ],
      "name": "takeHighestBid",
      "outputs": [],
      "stateMutability": "nonpayable",
      "type": "function"
    },
    {
      "inputs": [
        {
          "internalType": "address",
          "name": "newOwner",
          "type": "address"
        }
      ],
      "name": "transferOwnership",
      "outputs": [],
      "stateMutability": "nonpayable",
      "type": "function"
    },
    {
      "inputs": [
        {
          "internalType": "address",
          "name": "_nftContractAddress",
          "type": "address"
        },
        {
          "internalType": "uint256",
          "name": "_tokenId",
          "type": "uint256"
        },
        {
          "internalType": "uint128",
          "name": "_newBuyNowPrice",
          "type": "uint128"
        }
      ],
      "name": "updateBuyNowPrice",
      "outputs": [],
      "stateMutability": "nonpayable",
      "type": "function"
    },
    {
      "inputs": [
        {
          "internalType": "address",
          "name": "_nftContractAddress",
          "type": "address"
        },
        {
          "internalType": "uint256",
          "name": "_tokenId",
          "type": "uint256"
        },
        {
          "internalType": "uint128",
          "name": "_newMinPrice",
          "type": "uint128"
        }
      ],
      "name": "updateMinimumPrice",
      "outputs": [],
      "stateMutability": "nonpayable",
      "type": "function"
    },
    {
      "inputs": [
        {
          "internalType": "address",
          "name": "_nftContractAddress",
          "type": "address"
        },
        {
          "internalType": "uint256",
          "name": "_tokenId",
          "type": "uint256"
        },
        {
          "internalType": "address",
          "name": "_newWhitelistedBuyer",
          "type": "address"
        }
      ],
      "name": "updateWhitelistedBuyer",
      "outputs": [],
      "stateMutability": "nonpayable",
      "type": "function"
    },
    {
      "inputs": [],
      "name": "withdrawAllFailedCredits",
      "outputs": [],
      "stateMutability": "nonpayable",
      "type": "function"
    },
    {
      "inputs": [
        {
          "internalType": "address",
          "name": "_nftContractAddress",
          "type": "address"
        },
        {
          "internalType": "uint256",
          "name": "_tokenId",
          "type": "uint256"
        }
      ],
      "name": "withdrawAuction",
      "outputs": [],
      "stateMutability": "nonpayable",
      "type": "function"
    },
    {
      "inputs": [
        {
          "internalType": "address",
          "name": "_nftContractAddress",
          "type": "address"
        },
        {
          "internalType": "uint256",
          "name": "_tokenId",
          "type": "uint256"
        }
      ],
      "name": "withdrawBid",
      "outputs": [],
      "stateMutability": "nonpayable",
      "type": "function"
    }
  ],
  "bytecode": "0x608060405234801561001057600080fd5b5061001a33610050565b6003805470c80001518000001f4000000064000000646001600160a01b03199182161790915560048054909116331790556100a0565b600080546001600160a01b038381166001600160a01b0319831681178455604051919092169283917f8be0079c531659141344cd1fd0a4f28419497f9722a3daafe3b4186f6b6457e09190a35050565b6131ec80620000b06000396000f3fe6080604052600436106101965760003560e01c806375926137116100e1578063b6ad69141161008a578063cd4eda1c11610064578063cd4eda1c1461057b578063ebea60251461059f578063f2fde38b146105bf578063f7f829a4146105df57600080fd5b8063b6ad691414610533578063bc24555a14610548578063ccceb7cd1461055b57600080fd5b806397759efc116100bb57806397759efc146104d25780639c0b9966146104f2578063b48240341461050f57600080fd5b80637592613714610474578063848e5c77146104945780638da5cb5b146104b457600080fd5b80632f9c9576116101435780635138b08c1161011d5780635138b08c1461041f578063715018a61461043f57806371c968eb1461045457600080fd5b80632f9c9576146103ba5780633d87d5fb146103da5780634cb8ef5b146103ff57600080fd5b8063186779d511610174578063186779d51461032057806320950fc61461036257806328981aef1461039a57600080fd5b8063041fa0b81461019b578063076b73ac146102eb578063128a48dd1461030d575b600080fd5b3480156101a757600080fd5b5061025a6101b6366004612e97565b60016020818152600093845260408085209091529183529120805491810154600282015460038301546004840154600585015460069095015463ffffffff80881697640100000000810482169767ffffffffffffffff600160401b830416976001600160801b03600160801b93849004811698828216989490920416956001600160a01b039182169593821694908216939282169291821691600160a01b9004168c565b6040805163ffffffff9d8e1681529b8d1660208d015267ffffffffffffffff9a909a16998b01999099526001600160801b0397881660608b015295871660808a01529390951660a08801526001600160a01b0391821660c0880152811660e0870152928316610100860152821661012085015216610140830152909116610160820152610180015b60405180910390f35b3480156102f757600080fd5b5061030b610306366004612ec3565b6105ff565b005b61030b61031b366004612ec3565b6107fc565b34801561032c57600080fd5b5060035461034d906c01000000000000000000000000900463ffffffff1681565b60405163ffffffff90911681526020016102e2565b34801561036e57600080fd5b5061038261037d366004612e97565b6109ae565b6040516001600160a01b0390911681526020016102e2565b3480156103a657600080fd5b5061030b6103b5366004612f35565b610a2f565b3480156103c657600080fd5b5061030b6103d5366004612fa4565b610d35565b3480156103e657600080fd5b5060035461034d90640100000000900463ffffffff1681565b34801561040b57600080fd5b5061030b61041a366004612e97565b61101e565b34801561042b57600080fd5b5061030b61043a366004612e97565b6111b0565b34801561044b57600080fd5b5061030b611266565b34801561046057600080fd5b5061030b61046f366004612fe2565b61127a565b34801561048057600080fd5b50600454610382906001600160a01b031681565b3480156104a057600080fd5b5061030b6104af366004612e97565b6115ca565b3480156104c057600080fd5b506000546001600160a01b0316610382565b3480156104de57600080fd5b5061030b6104ed366004613033565b61170c565b3480156104fe57600080fd5b5060035461034d9063ffffffff1681565b34801561051b57600080fd5b5060035461034d90600160801b900463ffffffff1681565b34801561053f57600080fd5b5061030b611752565b61030b610556366004612e97565b61185f565b34801561056757600080fd5b5061030b61057636600461304e565b61197c565b34801561058757600080fd5b5060035461034d90600160401b900463ffffffff1681565b3480156105ab57600080fd5b5061030b6105ba366004612e97565b6119a6565b3480156105cb57600080fd5b5061030b6105da36600461304e565b611b01565b3480156105eb57600080fd5b5061030b6105fa366004612fa4565b611b91565b6001600160a01b038381166000908152600160209081526040808320868452909152902060030154849184911633146106715760405162461bcd60e51b815260206004820152600f60248201526e27b7363c9037333a1039b2b63632b960891b60448201526064015b60405180910390fd5b61067b8585611da7565b6106c75760405162461bcd60e51b815260206004820152600a60248201527f4e6f7420612073616c65000000000000000000000000000000000000000000006044820152606401610668565b6001600160a01b0385811660009081526001602081815260408084208985529091529091206004810180546001600160a01b0319168785161790556002810154910154911690600160801b90046001600160801b0316801580159061073e5750846001600160a01b0316826001600160a01b031614155b156107a9576001600160a01b03871660009081526001602081815260408084208a85529091529091206002810180546001600160a01b031990811690915591810180546001600160801b03169055600501805490911690556107a982826001600160801b0316611e18565b604080516001600160a01b0389811682526020820189905287168183015290517f7502912f483c1fb3f89bf8664bea10db517c2093040d379e78e169e0675236469181900360600190a150505050505050565b82826108088282611eb6565b6108545760405162461bcd60e51b815260206004820152601160248201527f41756374696f6e2068617320656e6465640000000000000000000000000000006044820152606401610668565b826001600160a01b0381166108ab5760405162461bcd60e51b815260206004820152601860248201527f43616e6e6f7420737065636966792030206164647265737300000000000000006044820152606401610668565b85856108df82826001600160a01b039182166000908152600160209081526040808320938352929052206004015416151590565b158061091257506001600160a01b0382811660009081526001602090815260408083208584529091529020600401541633145b61095e5760405162461bcd60e51b815260206004820152601a60248201527f4f6e6c79207468652077686974656c69737465642062757965720000000000006044820152606401610668565b6001600160a01b0388811660009081526001602090815260408083208b8452909152902060050180546001600160a01b0319169188169190911790556109a48888611f09565b5050505050505050565b6001600160a01b03808316600090815260016020908152604080832085845290915281206003015490911680610a265760405162461bcd60e51b815260206004820152601160248201527f4e4654206e6f74206465706f73697465640000000000000000000000000000006044820152606401610668565b90505b92915050565b6001600160a01b0380871660009081526001602090815260408083208984529091529020600301548791879116331415610aab5760405162461bcd60e51b815260206004820181905260248201527f41756374696f6e20616c72656164792073746172746564206279206f776e65726044820152606401610668565b6001600160a01b0382811660009081526001602090815260408083208584529091529020600301541615610bfb576040516331a9108f60e11b8152600481018290526001600160a01b03831690636352211e90602401602060405180830381865afa158015610b1e573d6000803e3d6000fd5b505050506040513d601f19601f82011682018060405250810190610b42919061306b565b6001600160a01b0316336001600160a01b031614610ba25760405162461bcd60e51b815260206004820152601660248201527f53656e64657220646f65736e2774206f776e204e4654000000000000000000006044820152606401610668565b6001600160a01b0382166000908152600160208181526040808420858552909152822090810180546001600160801b03191690559081556003810180546001600160a01b03199081169091556004909101805490911690555b856001600160801b031660008111610c495760405162461bcd60e51b8152602060048201526011602482015270050726963652063616e6e6f74206265203607c1b6044820152606401610668565b600354849063ffffffff64010000000090910481169082161015610caf5760405162461bcd60e51b815260206004820152601f60248201527f42696420696e6372656173652070657263656e7461676520746f6f206c6f77006044820152606401610668565b6001600160a01b038a811660009081526001602090815260408083208d84529091529020805467ffffffffffffffff191664010000000063ffffffff8a81169190910263ffffffff19169190911788821617909155600454600354610d29938e938e938e938e939190911691600160801b9091041661204e565b50505050505050505050565b6001600160a01b03838116600090815260016020908152604080832086845290915290206003015484918491163314610da25760405162461bcd60e51b815260206004820152600f60248201526e27b7363c9037333a1039b2b63632b960891b6044820152606401610668565b8484610dae82826120ff565b15610dfb5760405162461bcd60e51b815260206004820181905260248201527f5468652061756374696f6e2068617320612076616c696420626964206d6164656044820152606401610668565b8686610e078282611da7565b15610e545760405162461bcd60e51b815260206004820152601960248201527f4e6f74206170706c696361626c6520666f7220612073616c65000000000000006044820152606401610668565b866001600160801b031660008111610ea25760405162461bcd60e51b8152602060048201526011602482015270050726963652063616e6e6f74206265203607c1b6044820152606401610668565b6001600160a01b038a1660009081526001602081815260408084208d855290915290912001546001600160801b031688811580610f0557506003546001600160801b0382811691610f0291851690600160401b900463ffffffff16612182565b10155b610f515760405162461bcd60e51b815260206004820152601d60248201527f4d696e5072696365203e20383025206f66206275794e6f7750726963650000006044820152606401610668565b6001600160a01b038c1660009081526001602090815260408083208e84529091529081902080546001600160801b03808e16600160801b029116179055517fdcf27af4c564afa0c536dd1fa48e5fef0d9833378a1bddacc95922b902ebfc3290610fe5908e908e908e906001600160a01b0393909316835260208301919091526001600160801b0316604082015260600190565b60405180910390a1610ff78c8c6120ff565b15611010576110068c8c61219b565b6110108c8c612421565b505050505050505050505050565b818161102a82826120ff565b156110775760405162461bcd60e51b815260206004820181905260248201527f5468652061756374696f6e2068617320612076616c696420626964206d6164656044820152606401610668565b6001600160a01b038085166000908152600160209081526040808320878452909152902060020154163381146110ef5760405162461bcd60e51b815260206004820152601560248201527f43616e6e6f742077697468647261772066756e647300000000000000000000006044820152606401610668565b6001600160a01b038516600090815260016020818152604080842088855290915290912090810180546002830180546001600160a01b03199081169091556001600160801b0380831690935560059093018054909316909255600160801b9091041661115b8282611e18565b604080516001600160a01b03881681526020810187905233918101919091527f10d9bddf66f639dd3c5a6ad2db5ae3102c2b468dfb90a4b0da219435f24a970d906060015b60405180910390a1505050505050565b81816111bc8282611eb6565b156112095760405162461bcd60e51b815260206004820152601760248201527f41756374696f6e206973206e6f7420796574206f7665720000000000000000006044820152606401610668565b61121384846124df565b604080516001600160a01b03861681526020810185905233918101919091527fe6b94748c5d6e0d188a0fcb9b7f2973b01fc0095627f1ec5accdcd9d2e65ca36906060015b60405180910390a150505050565b61126e6126aa565b6112786000612704565b565b6001600160a01b03808516600090815260016020908152604080832087845290915290206003015485918591163314156112f65760405162461bcd60e51b815260206004820181905260248201527f41756374696f6e20616c72656164792073746172746564206279206f776e65726044820152606401610668565b6001600160a01b0382811660009081526001602090815260408083208584529091529020600301541615611446576040516331a9108f60e11b8152600481018290526001600160a01b03831690636352211e90602401602060405180830381865afa158015611369573d6000803e3d6000fd5b505050506040513d601f19601f8201168201806040525081019061138d919061306b565b6001600160a01b0316336001600160a01b0316146113ed5760405162461bcd60e51b815260206004820152601660248201527f53656e64657220646f65736e2774206f776e204e4654000000000000000000006044820152606401610668565b6001600160a01b0382166000908152600160208181526040808420858552909152822090810180546001600160801b03191690559081556003810180546001600160a01b03199081169091556004909101805490911690555b836001600160801b0316600081116114945760405162461bcd60e51b8152602060048201526011602482015270050726963652063616e6e6f74206265203607c1b6044820152606401610668565b6004546003546114c29189918991899189916001600160a01b031690600160801b900463ffffffff16612754565b600454600354604080516001600160a01b03808c168252602082018b905233928201929092526001600160801b03891660608201528188166080820152921660a0830152600160801b900463ffffffff1660c08201527fd3da7e9fc506387bc87dcee4cdc7543594b0c757550e917422bc9537eb8d5f5e9060e00160405180910390a16001600160a01b03871660009081526001602081815260408084208a85529091529091200154600160801b90046001600160801b0316156115c15761158a878761286b565b156115b75761159987876128d6565b156115b2576115a8878761219b565b6115b287876124df565b6115c1565b6115c18787612953565b50505050505050565b6001600160a01b038281166000908152600160209081526040808320858452909152902060030154839183911633146116375760405162461bcd60e51b815260206004820152600f60248201526e27b7363c9037333a1039b2b63632b960891b6044820152606401610668565b6001600160a01b03841660009081526001602081815260408084208785529091529091200154600160801b90046001600160801b03166116b95760405162461bcd60e51b815260206004820152601360248201527f63616e6e6f74207061796f7574203020626964000000000000000000000000006044820152606401610668565b6116c3848461219b565b6116cd84846124df565b604080516001600160a01b0386168152602081018590527f711f4eae05533b90c24ff0ae762d6e9e1ef1b2c85d4c484a2913c5201bcbb7c99101611258565b6117146126aa565b6003805463ffffffff909216600160801b027fffffffffffffffffffffffff00000000ffffffffffffffffffffffffffffffff909216919091179055565b33600090815260026020526040902054806117af5760405162461bcd60e51b815260206004820152601660248201527f6e6f206372656469747320746f207769746864726177000000000000000000006044820152606401610668565b3360008181526002602052604080822082905551909190614e2090849084818181858888f193505050503d8060008114611805576040519150601f19603f3d011682016040523d82523d6000602084013e61180a565b606091505b505090508061185b5760405162461bcd60e51b815260206004820152600f60248201527f7769746864726177206661696c656400000000000000000000000000000000006044820152606401610668565b5050565b818161186b8282611eb6565b6118b75760405162461bcd60e51b815260206004820152601160248201527f41756374696f6e2068617320656e6465640000000000000000000000000000006044820152606401610668565b83836118eb82826001600160a01b039182166000908152600160209081526040808320938352929052206004015416151590565b158061191e57506001600160a01b0382811660009081526001602090815260408083208584529091529020600401541633145b61196a5760405162461bcd60e51b815260206004820152601a60248201527f4f6e6c79207468652077686974656c69737465642062757965720000000000006044820152606401610668565b6119748686611f09565b505050505050565b6119846126aa565b600480546001600160a01b0319166001600160a01b0392909216919091179055565b6040516331a9108f60e11b81526004810182905233906001600160a01b03841690636352211e90602401602060405180830381865afa1580156119ed573d6000803e3d6000fd5b505050506040513d601f19601f82011682018060405250810190611a11919061306b565b6001600160a01b031614611a675760405162461bcd60e51b815260206004820152600d60248201527f4e6f74204e4654206f776e6572000000000000000000000000000000000000006044820152606401610668565b6001600160a01b0382166000818152600160208181526040808420868552825280842092830180546001600160801b03191690559282556003820180546001600160a01b0319908116909155600490920180549092169091558151928352820183905233908201527fec19f84af4aad6523d37faa19e243c77717842cca9bf492dc5379830cac958d0906060015b60405180910390a15050565b611b096126aa565b6001600160a01b038116611b855760405162461bcd60e51b815260206004820152602660248201527f4f776e61626c653a206e6577206f776e657220697320746865207a65726f206160448201527f64647265737300000000000000000000000000000000000000000000000000006064820152608401610668565b611b8e81612704565b50565b6001600160a01b03838116600090815260016020908152604080832086845290915290206003015484918491163314611bfe5760405162461bcd60e51b815260206004820152600f60248201526e27b7363c9037333a1039b2b63632b960891b6044820152606401610668565b826001600160801b031660008111611c4c5760405162461bcd60e51b8152602060048201526011602482015270050726963652063616e6e6f74206265203607c1b6044820152606401610668565b6001600160a01b038616600090815260016020908152604080832088845290915290205484906001600160801b03600160801b90910481169082161580611cb957506003546001600160801b0382811691611cb691851690600160401b900463ffffffff16612182565b10155b611d055760405162461bcd60e51b815260206004820152601d60248201527f4d696e5072696365203e20383025206f66206275794e6f7750726963650000006044820152606401610668565b6001600160a01b03881660008181526001602081815260408084208c855282529283902090910180546001600160801b0319166001600160801b038b1690811790915582519384529083018a9052908201527fcc66420416a999e685e3938d2c6252ed709db214d0435f13da0b1e5339bcac769060600160405180910390a1611d8e88886128d6565b156109a457611d9d888861219b565b6109a488886124df565b6001600160a01b0382166000908152600160208181526040808420858552909152822001546001600160801b031615801590610a265750506001600160a01b039190911660009081526001602090815260408083209383529290522054600160801b90046001600160801b03161590565b6000826001600160a01b03168260405160006040518083038185875af1925050503d8060008114611e65576040519150601f19603f3d011682016040523d82523d6000602084013e611e6a565b606091505b5050905080611eb1576001600160a01b038316600090815260026020526040902054611e9790839061309e565b6001600160a01b0384166000908152600260205260409020555b505050565b6001600160a01b0382166000908152600160209081526040808320848452909152812054600160401b900467ffffffffffffffff16801580611f0157508067ffffffffffffffff1642105b949350505050565b6001600160a01b0382811660009081526001602090815260408083208584529091529020600301548391839116331415611f855760405162461bcd60e51b815260206004820152601b60248201527f4f776e65722063616e6e6f7420626964206f6e206f776e204e465400000000006044820152606401610668565b34611f8f57600080fd5b8383611f9b82826129ca565b611fe75760405162461bcd60e51b815260206004820152601e60248201527f4e6f7420656e6f7567682066756e647320746f20626964206f6e204e465400006044820152606401610668565b611ff18686612a9f565b604080516001600160a01b03881681526020810187905233918101919091523460608201527fedaf6d9c1d6c948b723fe76f06024d095fe2026b77ed16e2ec4987432cddeec4906080015b60405180910390a16119748686612b1c565b61205c868686868686612b62565b7f4e345485ad40041b9a1d443dbac0515657a2699c30a4a7fa04ed681541bc38d3868633878761208c8c8c612cf6565b6120968d8d612d54565b604080516001600160a01b0398891681526020810197909752948716948601949094526001600160801b0392831660608601529116608084015263ffffffff90811660a084015290811660c083015291851660e08201529083166101008201526101200161203c565b6001600160a01b0382166000908152600160209081526040808320848452909152812054600160801b90046001600160801b03168015801590611f0157506001600160a01b038416600090815260016020818152604080842087855290915290912001546001600160801b03808316600160801b90920416101591505092915050565b600061271061219183856130b6565b610a2691906130eb565b6001600160a01b038281166000818152600160209081526040808320868452909152908190206003015490516331a9108f60e11b815260048101859052921691829190636352211e90602401602060405180830381865afa158015612204573d6000803e3d6000fd5b505050506040513d601f19601f82011682018060405250810190612228919061306b565b6001600160a01b03161415612360576040516323b872dd60e01b81526001600160a01b038281166004830152306024830152604482018490528416906323b872dd90606401600060405180830381600087803b15801561228757600080fd5b505af115801561229b573d6000803e3d6000fd5b50506040516331a9108f60e11b8152600481018590523092506001600160a01b0386169150636352211e90602401602060405180830381865afa1580156122e6573d6000803e3d6000fd5b505050506040513d601f19601f8201168201806040525081019061230a919061306b565b6001600160a01b031614611eb15760405162461bcd60e51b815260206004820152601360248201527f6e6674207472616e73666572206661696c6564000000000000000000000000006044820152606401610668565b6040516331a9108f60e11b81526004810183905230906001600160a01b03851690636352211e90602401602060405180830381865afa1580156123a7573d6000803e3d6000fd5b505050506040513d601f19601f820116820180604052508101906123cb919061306b565b6001600160a01b031614611eb15760405162461bcd60e51b815260206004820152601660248201527f53656c6c657220646f65736e2774206f776e204e4654000000000000000000006044820152606401610668565b4261242c8383612cf6565b63ffffffff1661243c91906130ff565b6001600160a01b038316600081815260016020908152604080832086845282529182902080547fffffffffffffffffffffffffffffffff0000000000000000ffffffffffffffff16600160401b67ffffffffffffffff96871681029190911791829055835194855291840186905204909216918101919091527fc1ce6cc1337b95ed3c849e00bffc0d93e89e5e80cc5d198db838140827ac759490606001611af5565b6001600160a01b0382811660009081526001602090815260408083208584529091528120600381015460029091015490831692169061251e8585612d93565b6001600160a01b038616600090815260016020818152604080842089855290915290912090810180546002830180546001600160a01b03199081169091556001600160801b0380831690935560059093018054909316909255919250600160801b90041661258e86868684612df3565b6040516323b872dd60e01b81523060048201526001600160a01b038381166024830152604482018790528716906323b872dd90606401600060405180830381600087803b1580156125de57600080fd5b505af11580156125f2573d6000803e3d6000fd5b505050506001600160a01b0386811660008181526001602081815260408084208b8552825280842092830180546001600160801b03191690559282556003820180546001600160a01b03199081169091556004909201805490921690915581519283528201889052868316908201526001600160801b0383166060820152848216608082015290831660a08201527f8df77c988c9550e96e43a66277f716818a74ed2188cdacb49d790623e6f225719060c0016111a0565b6000546001600160a01b031633146112785760405162461bcd60e51b815260206004820181905260248201527f4f776e61626c653a2063616c6c6572206973206e6f7420746865206f776e65726044820152606401610668565b600080546001600160a01b038381166001600160a01b0319831681178455604051919092169283917f8be0079c531659141344cd1fd0a4f28419497f9722a3daafe3b4186f6b6457e09190a35050565b806127108163ffffffff1611156127ad5760405162461bcd60e51b815260206004820152601b60248201527f4665652070657263656e746167652065786365656473203130302500000000006044820152606401610668565b506001600160a01b03958616600090815260016020818152604080842089855280835290842060068101805463ffffffff909716600160a01b027fffffffffffffffff000000000000000000000000000000000000000000000000909716978c16979097179590951790955590830180546001600160801b039097166001600160801b031990971696909617909555600482018054949097166001600160a01b03199485161790965593909452929052600301805490911633179055565b6001600160a01b0382811660009081526001602090815260408083208584529091528120600401549091161580610a2657506001600160a01b038084166000908152600160209081526040808320868452909152902060048101546002909101548216911614610a26565b6001600160a01b0382166000908152600160208181526040808420858552909152822001546001600160801b03168015801590611f0157506001600160a01b038416600090815260016020818152604080842087855290915290912001546001600160801b03808316600160801b90920416101591505092915050565b6001600160a01b03828116600090815260016020818152604080842086855290915290912060028101805492820180546001600160a01b03198086169093556001600160801b03808216909255600590930180549092169091559190921691600160801b9004166129c48282611e18565b50505050565b6001600160a01b0382166000908152600160208181526040808420858552909152822001546001600160801b03168015801590612a105750806001600160801b03163410155b15612a1f576001915050610a29565b6000612710612a2e8686612d54565b612a3a9061271061312b565b6001600160a01b03871660009081526001602081815260408084208a85529091529091200154612a809163ffffffff1690600160801b90046001600160801b031661314a565b612a8a9190613179565b6001600160801b031634101595945050505050565b6001600160a01b038281166000908152600160208181526040808420868552909152909120600281018054919092018054600160801b346001600160801b039081168202818416179093556001600160a01b0319841633179094559190931692919004166001600160a01b038216156129c4576129c48282611e18565b612b2682826128d6565b15612b3f57612b35828261219b565b61185b82826124df565b612b4982826120ff565b1561185b57612b58828261219b565b61185b8282612421565b82846001600160801b0382161580612ba057506003546001600160801b0382811691612b9d91851690600160401b900463ffffffff16612182565b10155b612bec5760405162461bcd60e51b815260206004820152601d60248201527f4d696e5072696365203e20383025206f66206275794e6f7750726963650000006044820152606401610668565b826127108163ffffffff161115612c455760405162461bcd60e51b815260206004820152601b60248201527f4665652070657263656e746167652065786365656473203130302500000000006044820152606401610668565b5050506001600160a01b03958616600090815260016020818152604080842098845297905295902060068101805463ffffffff93909316600160a01b027fffffffffffffffff00000000000000000000000000000000000000000000000090931693909716929092171790945591830180546001600160801b039384166001600160801b03199091161790558254908216600160801b02911617815560030180546001600160a01b03191633179055565b6001600160a01b0382166000908152600160209081526040808320848452909152812054640100000000900463ffffffff1680612d4d5750506003546c01000000000000000000000000900463ffffffff16610a29565b9050610a29565b6001600160a01b038216600090815260016020908152604080832084845290915281205463ffffffff1680612d4d57505060035463ffffffff16610a29565b6001600160a01b03808316600090815260016020908152604080832085845290915281206005015490911680612d4d5750506001600160a01b03808316600090815260016020908152604080832085845290915290206002015416610a29565b6001600160a01b0384166000908152600160209081526040808320868452909152812060060154612e32908390600160a01b900463ffffffff16612182565b6001600160a01b038087166000908152600160209081526040808320898452909152902060060154919250612e68911682611e18565b612e7b83612e76838561319f565b611e18565b5050505050565b6001600160a01b0381168114611b8e57600080fd5b60008060408385031215612eaa57600080fd5b8235612eb581612e82565b946020939093013593505050565b600080600060608486031215612ed857600080fd5b8335612ee381612e82565b9250602084013591506040840135612efa81612e82565b809150509250925092565b80356001600160801b0381168114612f1c57600080fd5b919050565b803563ffffffff81168114612f1c57600080fd5b60008060008060008060c08789031215612f4e57600080fd5b8635612f5981612e82565b955060208701359450612f6e60408801612f05565b9350612f7c60608801612f05565b9250612f8a60808801612f21565b9150612f9860a08801612f21565b90509295509295509295565b600080600060608486031215612fb957600080fd5b8335612fc481612e82565b925060208401359150612fd960408501612f05565b90509250925092565b60008060008060808587031215612ff857600080fd5b843561300381612e82565b93506020850135925061301860408601612f05565b9150606085013561302881612e82565b939692955090935050565b60006020828403121561304557600080fd5b610a2682612f21565b60006020828403121561306057600080fd5b8135610a2681612e82565b60006020828403121561307d57600080fd5b8151610a2681612e82565b634e487b7160e01b600052601160045260246000fd5b600082198211156130b1576130b1613088565b500190565b60008160001904831182151516156130d0576130d0613088565b500290565b634e487b7160e01b600052601260045260246000fd5b6000826130fa576130fa6130d5565b500490565b600067ffffffffffffffff80831681851680830382111561312257613122613088565b01949350505050565b600063ffffffff80831681851680830382111561312257613122613088565b60006001600160801b038083168185168183048111821515161561317057613170613088565b02949350505050565b60006001600160801b0380841680613193576131936130d5565b92169190910492915050565b6000828210156131b1576131b1613088565b50039056fea26469706673582212207b63cd8a50fa7ba1d5aca58fa2fda55d81a2231ed4265a7f49073ecb4e63b9b264736f6c634300080a0033",
  "linkReferences": {},
  "deployedLinkReferences": {}
}