{
  "_format": "hh-sol-artifact-1",
  "contractName": "ERC721Marketplace",
  "sourceName": "contracts/ERC721Marketplace.sol",
  "abi": [
    {
      "inputs": [],
      "stateMutability": "nonpayable",
      "type": "constructor"
    },
    {
      "anonymous": false,
      "inputs": [
        {
          "indexed": false,
          "internalType": "address",
          "name": "nftContractAddress",
          "type": "address"
        },
        {
          "indexed": false,
          "internalType": "uint256",
          "name": "tokenId",
          "type": "uint256"
        },
        {
          "indexed": false,
          "internalType": "uint64",
          "name": "auctionEndPeriod",
          "type": "uint64"
        }
      ],
      "name": "AuctionPeriodUpdated",
      "type": "event"
    },
    {
      "anonymous": false,
      "inputs": [
        {
          "indexed": false,
          "internalType": "address",
          "name": "nftContractAddress",
          "type": "address"
        },
        {
          "indexed": false,
          "internalType": "uint256",
          "name": "tokenId",
          "type": "uint256"
        },
        {
          "indexed": false,
          "internalType": "address",
          "name": "auctionSettler",
          "type": "address"
        }
      ],
      "name": "AuctionSettled",
      "type": "event"
    },
    {
      "anonymous": false,
      "inputs": [
        {
          "indexed": false,
          "internalType": "address",
          "name": "nftContractAddress",
          "type": "address"
        },
        {
          "indexed": false,
          "internalType": "uint256",
          "name": "tokenId",
          "type": "uint256"
        },
        {
          "indexed": false,
          "internalType": "address",
          "name": "nftOwner",
          "type": "address"
        }
      ],
      "name": "AuctionWithdrawn",
      "type": "event"
    },
    {
      "anonymous": false,
      "inputs": [
        {
          "indexed": false,
          "internalType": "address",
          "name": "nftContractAddress",
          "type": "address"
        },
        {
          "indexed": false,
          "internalType": "uint256",
          "name": "tokenId",
          "type": "uint256"
        },
        {
          "indexed": false,
          "internalType": "address",
          "name": "bidder",
          "type": "address"
        },
        {
          "indexed": false,
          "internalType": "uint256",
          "name": "ethAmount",
          "type": "uint256"
        }
      ],
      "name": "BidMade",
      "type": "event"
    },
    {
      "anonymous": false,
      "inputs": [
        {
          "indexed": false,
          "internalType": "address",
          "name": "nftContractAddress",
          "type": "address"
        },
        {
          "indexed": false,
          "internalType": "uint256",
          "name": "tokenId",
          "type": "uint256"
        },
        {
          "indexed": false,
          "internalType": "address",
          "name": "highestBidder",
          "type": "address"
        }
      ],
      "name": "BidWithdrawn",
      "type": "event"
    },
    {
      "anonymous": false,
      "inputs": [
        {
          "indexed": false,
          "internalType": "address",
          "name": "nftContractAddress",
          "type": "address"
        },
        {
          "indexed": false,
          "internalType": "uint256",
          "name": "tokenId",
          "type": "uint256"
        },
        {
          "indexed": false,
          "internalType": "uint128",
          "name": "newBuyNowPrice",
          "type": "uint128"
        }
      ],
      "name": "BuyNowPriceUpdated",
      "type": "event"
    },
    {
      "anonymous": false,
      "inputs": [
        {
          "indexed": false,
          "internalType": "address",
          "name": "nftContractAddress",
          "type": "address"
        },
        {
          "indexed": false,
          "internalType": "uint256",
          "name": "tokenId",
          "type": "uint256"
        }
      ],
      "name": "HighestBidTaken",
      "type": "event"
    },
    {
      "anonymous": false,
      "inputs": [
        {
          "indexed": false,
          "internalType": "address",
          "name": "nftContractAddress",
          "type": "address"
        },
        {
          "indexed": false,
          "internalType": "uint256",
          "name": "tokenId",
          "type": "uint256"
        },
        {
          "indexed": false,
          "internalType": "uint256",
          "name": "newMinPrice",
          "type": "uint256"
        }
      ],
      "name": "MinimumPriceUpdated",
      "type": "event"
    },
    {
      "anonymous": false,
      "inputs": [
        {
          "indexed": false,
          "internalType": "address",
          "name": "nftContractAddress",
          "type": "address"
        },
        {
          "indexed": false,
          "internalType": "uint256",
          "name": "tokenId",
          "type": "uint256"
        },
        {
          "indexed": false,
          "internalType": "address",
          "name": "nftSeller",
          "type": "address"
        },
        {
          "indexed": false,
          "internalType": "uint128",
          "name": "nftHighestBid",
          "type": "uint128"
        },
        {
          "indexed": false,
          "internalType": "address",
          "name": "nftHighestBidder",
          "type": "address"
        },
        {
          "indexed": false,
          "internalType": "address",
          "name": "nftRecipient",
          "type": "address"
        }
      ],
      "name": "NFTTransferredAndSellerPaid",
      "type": "event"
    },
    {
      "anonymous": false,
      "inputs": [
        {
          "indexed": false,
          "internalType": "address",
          "name": "nftContractAddress",
          "type": "address"
        },
        {
          "indexed": false,
          "internalType": "uint256",
          "name": "tokenId",
          "type": "uint256"
        },
        {
          "indexed": false,
          "internalType": "address",
          "name": "nftSeller",
          "type": "address"
        },
        {
          "indexed": false,
          "internalType": "uint128",
          "name": "minPrice",
          "type": "uint128"
        },
        {
          "indexed": false,
          "internalType": "uint128",
          "name": "buyNowPrice",
          "type": "uint128"
        },
        {
          "indexed": false,
          "internalType": "uint32",
          "name": "auctionBidPeriod",
          "type": "uint32"
        },
        {
          "indexed": false,
          "internalType": "uint32",
          "name": "bidIncreasePercentage",
          "type": "uint32"
        },
        {
          "indexed": false,
          "internalType": "address",
          "name": "feeRecipient",
          "type": "address"
        },
        {
          "indexed": false,
          "internalType": "uint32",
          "name": "feePercentage",
          "type": "uint32"
        }
      ],
      "name": "NftAuctionCreated",
      "type": "event"
    },
    {
      "anonymous": false,
      "inputs": [
        {
          "indexed": true,
          "internalType": "address",
          "name": "previousOwner",
          "type": "address"
        },
        {
          "indexed": true,
          "internalType": "address",
          "name": "newOwner",
          "type": "address"
        }
      ],
      "name": "OwnershipTransferred",
      "type": "event"
    },
    {
      "anonymous": false,
      "inputs": [
        {
          "indexed": false,
          "internalType": "address",
          "name": "nftContractAddress",
          "type": "address"
        },
        {
          "indexed": false,
          "internalType": "uint256",
          "name": "tokenId",
          "type": "uint256"
        },
        {
          "indexed": false,
          "internalType": "address",
          "name": "nftSeller",
          "type": "address"
        },
        {
          "indexed": false,
          "internalType": "uint128",
          "name": "buyNowPrice",
          "type": "uint128"
        },
        {
          "indexed": false,
          "internalType": "address",
          "name": "whitelistedBuyer",
          "type": "address"
        },
        {
          "indexed": false,
          "internalType": "address",
          "name": "feeRecipient",
          "type": "address"
        },
        {
          "indexed": false,
          "internalType": "uint32",
          "name": "feePercentage",
          "type": "uint32"
        }
      ],
      "name": "SaleCreated",
      "type": "event"
    },
    {
      "anonymous": false,
      "inputs": [
        {
          "indexed": false,
          "internalType": "address",
          "name": "nftContractAddress",
          "type": "address"
        },
        {
          "indexed": false,
          "internalType": "uint256",
          "name": "tokenId",
          "type": "uint256"
        },
        {
          "indexed": false,
          "internalType": "address",
          "name": "newWhitelistedBuyer",
          "type": "address"
        }
      ],
      "name": "WhitelistedBuyerUpdated",
      "type": "event"
    },
    {
      "inputs": [
        {
          "internalType": "address",
          "name": "_nftContractAddress",
          "type": "address"
        },
        {
          "internalType": "uint256",
          "name": "_tokenId",
          "type": "uint256"
        },
        {
          "internalType": "uint128",
          "name": "_minPrice",
          "type": "uint128"
        },
        {
          "internalType": "uint128",
          "name": "_buyNowPrice",
          "type": "uint128"
        }
      ],
      "name": "createDefaultNftAuction",
      "outputs": [],
      "stateMutability": "nonpayable",
      "type": "function"
    },
    {
      "inputs": [
        {
          "internalType": "address",
          "name": "_nftContractAddress",
          "type": "address"
        },
        {
          "internalType": "uint256",
          "name": "_tokenId",
          "type": "uint256"
        },
        {
          "internalType": "uint128",
          "name": "_minPrice",
          "type": "uint128"
        },
        {
          "internalType": "uint128",
          "name": "_buyNowPrice",
          "type": "uint128"
        },
        {
          "internalType": "uint32",
          "name": "_auctionBidPeriod",
          "type": "uint32"
        },
        {
          "internalType": "uint32",
          "name": "_bidIncreasePercentage",
          "type": "uint32"
        }
      ],
      "name": "createNewNftAuction",
      "outputs": [],
      "stateMutability": "nonpayable",
      "type": "function"
    },
    {
      "inputs": [
        {
          "internalType": "address",
          "name": "_nftContractAddress",
          "type": "address"
        },
        {
          "internalType": "uint256",
          "name": "_tokenId",
          "type": "uint256"
        },
        {
          "internalType": "uint128",
          "name": "_buyNowPrice",
          "type": "uint128"
        },
        {
          "internalType": "address",
          "name": "_whitelistedBuyer",
          "type": "address"
        },
        {
          "internalType": "address",
          "name": "_feeRecipient",
          "type": "address"
        },
        {
          "internalType": "uint32",
          "name": "_feePercentage",
          "type": "uint32"
        }
      ],
      "name": "createSale",
      "outputs": [],
      "stateMutability": "nonpayable",
      "type": "function"
    },
    {
      "inputs": [],
      "name": "defaultAuctionBidPeriod",
      "outputs": [
        {
          "internalType": "uint32",
          "name": "",
          "type": "uint32"
        }
      ],
      "stateMutability": "view",
      "type": "function"
    },
    {
      "inputs": [],
      "name": "defaultBidIncreasePercentage",
      "outputs": [
        {
          "internalType": "uint32",
          "name": "",
          "type": "uint32"
        }
      ],
      "stateMutability": "view",
      "type": "function"
    },
    {
      "inputs": [],
      "name": "defaultFeeCollector",
      "outputs": [
        {
          "internalType": "address",
          "name": "",
          "type": "address"
        }
      ],
      "stateMutability": "view",
      "type": "function"
    },
    {
      "inputs": [],
      "name": "defaultFeePercentage",
      "outputs": [
        {
          "internalType": "uint32",
          "name": "",
          "type": "uint32"
        }
      ],
      "stateMutability": "view",
      "type": "function"
    },
    {
      "inputs": [
        {
          "internalType": "address",
          "name": "_nftContractAddress",
          "type": "address"
        },
        {
          "internalType": "uint256",
          "name": "_tokenId",
          "type": "uint256"
        }
      ],
      "name": "makeBid",
      "outputs": [],
      "stateMutability": "payable",
      "type": "function"
    },
    {
      "inputs": [
        {
          "internalType": "address",
          "name": "_nftContractAddress",
          "type": "address"
        },
        {
          "internalType": "uint256",
          "name": "_tokenId",
          "type": "uint256"
        },
        {
          "internalType": "address",
          "name": "_nftRecipient",
          "type": "address"
        }
      ],
      "name": "makeCustomBid",
      "outputs": [],
      "stateMutability": "payable",
      "type": "function"
    },
    {
      "inputs": [],
      "name": "maximumMinPricePercentage",
      "outputs": [
        {
          "internalType": "uint32",
          "name": "",
          "type": "uint32"
        }
      ],
      "stateMutability": "view",
      "type": "function"
    },
    {
      "inputs": [],
      "name": "minimumSettableIncreasePercentage",
      "outputs": [
        {
          "internalType": "uint32",
          "name": "",
          "type": "uint32"
        }
      ],
      "stateMutability": "view",
      "type": "function"
    },
    {
      "inputs": [
        {
          "internalType": "address",
          "name": "",
          "type": "address"
        },
        {
          "internalType": "uint256",
          "name": "",
          "type": "uint256"
        }
      ],
      "name": "nftContractAuctions",
      "outputs": [
        {
          "internalType": "uint32",
          "name": "bidIncreasePercentage",
          "type": "uint32"
        },
        {
          "internalType": "uint32",
          "name": "auctionBidPeriod",
          "type": "uint32"
        },
        {
          "internalType": "uint64",
          "name": "auctionEnd",
          "type": "uint64"
        },
        {
          "internalType": "uint128",
          "name": "minPrice",
          "type": "uint128"
        },
        {
          "internalType": "uint128",
          "name": "buyNowPrice",
          "type": "uint128"
        },
        {
          "internalType": "uint128",
          "name": "nftHighestBid",
          "type": "uint128"
        },
        {
          "internalType": "address",
          "name": "nftHighestBidder",
          "type": "address"
        },
        {
          "internalType": "address",
          "name": "nftSeller",
          "type": "address"
        },
        {
          "internalType": "address",
          "name": "whitelistedBuyer",
          "type": "address"
        },
        {
          "internalType": "address",
          "name": "nftRecipient",
          "type": "address"
        },
        {
          "internalType": "address",
          "name": "feeRecipient",
          "type": "address"
        },
        {
          "internalType": "uint32",
          "name": "feePercentage",
          "type": "uint32"
        }
      ],
      "stateMutability": "view",
      "type": "function"
    },
    {
      "inputs": [],
      "name": "owner",
      "outputs": [
        {
          "internalType": "address",
          "name": "",
          "type": "address"
        }
      ],
      "stateMutability": "view",
      "type": "function"
    },
    {
      "inputs": [
        {
          "internalType": "address",
          "name": "_nftContractAddress",
          "type": "address"
        },
        {
          "internalType": "uint256",
          "name": "_tokenId",
          "type": "uint256"
        }
      ],
      "name": "ownerOfNFT",
      "outputs": [
        {
          "internalType": "address",
          "name": "",
          "type": "address"
        }
      ],
      "stateMutability": "view",
      "type": "function"
    },
    {
      "inputs": [],
      "name": "renounceOwnership",
      "outputs": [],
      "stateMutability": "nonpayable",
      "type": "function"
    },
    {
      "inputs": [
        {
          "internalType": "address",
          "name": "_feeCollector",
          "type": "address"
        }
      ],
      "name": "setDefaultFeeCollector",
      "outputs": [],
      "stateMutability": "nonpayable",
      "type": "function"
    },
    {
      "inputs": [
        {
          "internalType": "uint32",
          "name": "_feePercentage",
          "type": "uint32"
        }
      ],
      "name": "setDefaultFeePercentage",
      "outputs": [],
      "stateMutability": "nonpayable",
      "type": "function"
    },
    {
      "inputs": [
        {
          "internalType": "address",
          "name": "_nftContractAddress",
          "type": "address"
        },
        {
          "internalType": "uint256",
          "name": "_tokenId",
          "type": "uint256"
        }
      ],
      "name": "settleAuction",
      "outputs": [],
      "stateMutability": "nonpayable",
      "type": "function"
    },
    {
      "inputs": [
        {
          "internalType": "address",
          "name": "_nftContractAddress",
          "type": "address"
        },
        {
          "internalType": "uint256",
          "name": "_tokenId",
          "type": "uint256"
        }
      ],
      "name": "takeHighestBid",
      "outputs": [],
      "stateMutability": "nonpayable",
      "type": "function"
    },
    {
      "inputs": [
        {
          "internalType": "address",
          "name": "newOwner",
          "type": "address"
        }
      ],
      "name": "transferOwnership",
      "outputs": [],
      "stateMutability": "nonpayable",
      "type": "function"
    },
    {
      "inputs": [
        {
          "internalType": "address",
          "name": "_nftContractAddress",
          "type": "address"
        },
        {
          "internalType": "uint256",
          "name": "_tokenId",
          "type": "uint256"
        },
        {
          "internalType": "uint128",
          "name": "_newBuyNowPrice",
          "type": "uint128"
        }
      ],
      "name": "updateBuyNowPrice",
      "outputs": [],
      "stateMutability": "nonpayable",
      "type": "function"
    },
    {
      "inputs": [
        {
          "internalType": "address",
          "name": "_nftContractAddress",
          "type": "address"
        },
        {
          "internalType": "uint256",
          "name": "_tokenId",
          "type": "uint256"
        },
        {
          "internalType": "uint128",
          "name": "_newMinPrice",
          "type": "uint128"
        }
      ],
      "name": "updateMinimumPrice",
      "outputs": [],
      "stateMutability": "nonpayable",
      "type": "function"
    },
    {
      "inputs": [
        {
          "internalType": "address",
          "name": "_nftContractAddress",
          "type": "address"
        },
        {
          "internalType": "uint256",
          "name": "_tokenId",
          "type": "uint256"
        },
        {
          "internalType": "address",
          "name": "_newWhitelistedBuyer",
          "type": "address"
        }
      ],
      "name": "updateWhitelistedBuyer",
      "outputs": [],
      "stateMutability": "nonpayable",
      "type": "function"
    },
    {
      "inputs": [],
      "name": "withdrawAllFailedCredits",
      "outputs": [],
      "stateMutability": "nonpayable",
      "type": "function"
    },
    {
      "inputs": [
        {
          "internalType": "address",
          "name": "_nftContractAddress",
          "type": "address"
        },
        {
          "internalType": "uint256",
          "name": "_tokenId",
          "type": "uint256"
        }
      ],
      "name": "withdrawAuction",
      "outputs": [],
      "stateMutability": "nonpayable",
      "type": "function"
    },
    {
      "inputs": [
        {
          "internalType": "address",
          "name": "_nftContractAddress",
          "type": "address"
        },
        {
          "internalType": "uint256",
          "name": "_tokenId",
          "type": "uint256"
        }
      ],
      "name": "withdrawBid",
      "outputs": [],
      "stateMutability": "nonpayable",
      "type": "function"
    }
  ],
  "bytecode": "0x60806040523480156200001157600080fd5b5062000032620000266200012660201b60201c565b6200012e60201b60201c565b6064600360006101000a81548163ffffffff021916908363ffffffff160217905550620151806003600c6101000a81548163ffffffff021916908363ffffffff1602179055506064600360046101000a81548163ffffffff021916908363ffffffff160217905550611f40600360086101000a81548163ffffffff021916908363ffffffff16021790555060c8600360106101000a81548163ffffffff021916908363ffffffff16021790555033600460006101000a81548173ffffffffffffffffffffffffffffffffffffffff021916908373ffffffffffffffffffffffffffffffffffffffff160217905550620001f2565b600033905090565b60008060009054906101000a900473ffffffffffffffffffffffffffffffffffffffff169050816000806101000a81548173ffffffffffffffffffffffffffffffffffffffff021916908373ffffffffffffffffffffffffffffffffffffffff1602179055508173ffffffffffffffffffffffffffffffffffffffff168173ffffffffffffffffffffffffffffffffffffffff167f8be0079c531659141344cd1fd0a4f28419497f9722a3daafe3b4186f6b6457e060405160405180910390a35050565b61699580620002026000396000f3fe6080604052600436106101815760003560e01c806375926137116100d1578063b6ad69141161008a578063cd4eda1c11610064578063cd4eda1c1461050d578063ebea602514610538578063f2fde38b14610561578063f7f829a41461058a57610181565b8063b6ad6914146104b1578063bc24555a146104c8578063ccceb7cd146104e457610181565b806375926137146103b3578063848e5c77146103de5780638da5cb5b1461040757806397759efc146104325780639c0b99661461045b578063b48240341461048657610181565b80632f9c95761161013e5780635138b08c116101185780635138b08c146103215780635aafc1061461034a5780636eb721b814610373578063715018a61461039c57610181565b80632f9c9576146102a45780633d87d5fb146102cd5780634cb8ef5b146102f857610181565b8063041fa0b814610186578063076b73ac146101ce578063128a48dd146101f7578063186779d51461021357806320950fc61461023e57806328981aef1461027b575b600080fd5b34801561019257600080fd5b506101ad60048036038101906101a8919061537a565b6105b3565b6040516101c59c9b9a99989796959493929190615436565b60405180910390f35b3480156101da57600080fd5b506101f560048036038101906101f091906154f0565b610758565b005b610211600480360381019061020c91906154f0565b610ac0565b005b34801561021f57600080fd5b50610228610d17565b6040516102359190615543565b60405180910390f35b34801561024a57600080fd5b506102656004803603810190610260919061537a565b610d2d565b604051610272919061555e565b60405180910390f35b34801561028757600080fd5b506102a2600480360381019061029d91906155d1565b610e20565b005b3480156102b057600080fd5b506102cb60048036038101906102c6919061565e565b611296565b005b3480156102d957600080fd5b506102e2611674565b6040516102ef9190615543565b60405180910390f35b34801561030457600080fd5b5061031f600480360381019061031a919061537a565b61168a565b005b34801561032d57600080fd5b506103486004803603810190610343919061537a565b611899565b005b34801561035657600080fd5b50610371600480360381019061036c91906156b1565b611930565b005b34801561037f57600080fd5b5061039a6004803603810190610395919061573e565b611cc1565b005b3480156103a857600080fd5b506103b1611fee565b005b3480156103bf57600080fd5b506103c8612076565b6040516103d5919061555e565b60405180910390f35b3480156103ea57600080fd5b506104056004803603810190610400919061537a565b61209c565b005b34801561041357600080fd5b5061041c61221b565b604051610429919061555e565b60405180910390f35b34801561043e57600080fd5b50610459600480360381019061045491906157a5565b612244565b005b34801561046757600080fd5b506104706122e4565b60405161047d9190615543565b60405180910390f35b34801561049257600080fd5b5061049b6122fa565b6040516104a89190615543565b60405180910390f35b3480156104bd57600080fd5b506104c6612310565b005b6104e260048036038101906104dd919061537a565b612492565b005b3480156104f057600080fd5b5061050b600480360381019061050691906157d2565b6125e4565b005b34801561051957600080fd5b506105226126a4565b60405161052f9190615543565b60405180910390f35b34801561054457600080fd5b5061055f600480360381019061055a919061537a565b6126ba565b005b34801561056d57600080fd5b50610588600480360381019061058391906157d2565b6127f9565b005b34801561059657600080fd5b506105b160048036038101906105ac919061565e565b6128f1565b005b6001602052816000526040600020602052806000526040600020600091509150508060000160009054906101000a900463ffffffff16908060000160049054906101000a900463ffffffff16908060000160089054906101000a900467ffffffffffffffff16908060000160109054906101000a90046fffffffffffffffffffffffffffffffff16908060010160009054906101000a90046fffffffffffffffffffffffffffffffff16908060010160109054906101000a90046fffffffffffffffffffffffffffffffff16908060020160009054906101000a900473ffffffffffffffffffffffffffffffffffffffff16908060030160009054906101000a900473ffffffffffffffffffffffffffffffffffffffff16908060040160009054906101000a900473ffffffffffffffffffffffffffffffffffffffff16908060050160009054906101000a900473ffffffffffffffffffffffffffffffffffffffff16908060060160009054906101000a900473ffffffffffffffffffffffffffffffffffffffff16908060060160149054906101000a900463ffffffff1690508c565b8282600160008373ffffffffffffffffffffffffffffffffffffffff1673ffffffffffffffffffffffffffffffffffffffff168152602001908152602001600020600082815260200190815260200160002060030160009054906101000a900473ffffffffffffffffffffffffffffffffffffffff1673ffffffffffffffffffffffffffffffffffffffff163373ffffffffffffffffffffffffffffffffffffffff161461083b576040517f08c379a00000000000000000000000000000000000000000000000000000000081526004016108329061585c565b60405180910390fd5b6108458585612c33565b610884576040517f08c379a000000000000000000000000000000000000000000000000000000000815260040161087b906158c8565b60405180910390fd5b82600160008773ffffffffffffffffffffffffffffffffffffffff1673ffffffffffffffffffffffffffffffffffffffff168152602001908152602001600020600086815260200190815260200160002060040160006101000a81548173ffffffffffffffffffffffffffffffffffffffff021916908373ffffffffffffffffffffffffffffffffffffffff1602179055506000600160008773ffffffffffffffffffffffffffffffffffffffff1673ffffffffffffffffffffffffffffffffffffffff168152602001908152602001600020600086815260200190815260200160002060020160009054906101000a900473ffffffffffffffffffffffffffffffffffffffff1690506000600160008873ffffffffffffffffffffffffffffffffffffffff1673ffffffffffffffffffffffffffffffffffffffff168152602001908152602001600020600087815260200190815260200160002060010160109054906101000a90046fffffffffffffffffffffffffffffffff1690506000816fffffffffffffffffffffffffffffffff16118015610a5057508473ffffffffffffffffffffffffffffffffffffffff168273ffffffffffffffffffffffffffffffffffffffff1614155b15610a7c57610a5f8787612d4e565b610a7b82826fffffffffffffffffffffffffffffffff16612f03565b5b7f7502912f483c1fb3f89bf8664bea10db517c2093040d379e78e169e067523646878787604051610aaf939291906158f7565b60405180910390a150505050505050565b8282610acc828261300d565b610b0b576040517f08c379a0000000000000000000000000000000000000000000000000000000008152600401610b029061597a565b60405180910390fd5b82600073ffffffffffffffffffffffffffffffffffffffff168173ffffffffffffffffffffffffffffffffffffffff161415610b7c576040517f08c379a0000000000000000000000000000000000000000000000000000000008152600401610b73906159e6565b60405180910390fd5b8585610b8882826130a5565b1580610c3257503373ffffffffffffffffffffffffffffffffffffffff16600160008473ffffffffffffffffffffffffffffffffffffffff1673ffffffffffffffffffffffffffffffffffffffff168152602001908152602001600020600083815260200190815260200160002060040160009054906101000a900473ffffffffffffffffffffffffffffffffffffffff1673ffffffffffffffffffffffffffffffffffffffff16145b610c71576040517f08c379a0000000000000000000000000000000000000000000000000000000008152600401610c6890615a52565b60405180910390fd5b85600160008a73ffffffffffffffffffffffffffffffffffffffff1673ffffffffffffffffffffffffffffffffffffffff168152602001908152602001600020600089815260200190815260200160002060050160006101000a81548173ffffffffffffffffffffffffffffffffffffffff021916908373ffffffffffffffffffffffffffffffffffffffff160217905550610d0d8888613152565b5050505050505050565b6003600c9054906101000a900463ffffffff1681565b600080600160008573ffffffffffffffffffffffffffffffffffffffff1673ffffffffffffffffffffffffffffffffffffffff168152602001908152602001600020600084815260200190815260200160002060030160009054906101000a900473ffffffffffffffffffffffffffffffffffffffff169050600073ffffffffffffffffffffffffffffffffffffffff168173ffffffffffffffffffffffffffffffffffffffff161415610e16576040517f08c379a0000000000000000000000000000000000000000000000000000000008152600401610e0d90615abe565b60405180910390fd5b8091505092915050565b85853373ffffffffffffffffffffffffffffffffffffffff16600160008473ffffffffffffffffffffffffffffffffffffffff1673ffffffffffffffffffffffffffffffffffffffff168152602001908152602001600020600083815260200190815260200160002060030160009054906101000a900473ffffffffffffffffffffffffffffffffffffffff1673ffffffffffffffffffffffffffffffffffffffff161415610f04576040517f08c379a0000000000000000000000000000000000000000000000000000000008152600401610efb90615b2a565b60405180910390fd5b600073ffffffffffffffffffffffffffffffffffffffff16600160008473ffffffffffffffffffffffffffffffffffffffff1673ffffffffffffffffffffffffffffffffffffffff168152602001908152602001600020600083815260200190815260200160002060030160009054906101000a900473ffffffffffffffffffffffffffffffffffffffff1673ffffffffffffffffffffffffffffffffffffffff16146110ac578173ffffffffffffffffffffffffffffffffffffffff16636352211e826040518263ffffffff1660e01b8152600401610fe49190615b4a565b60206040518083038186803b158015610ffc57600080fd5b505afa158015611010573d6000803e3d6000fd5b505050506040513d601f19601f820116820180604052508101906110349190615b7a565b73ffffffffffffffffffffffffffffffffffffffff163373ffffffffffffffffffffffffffffffffffffffff16146110a1576040517f08c379a000000000000000000000000000000000000000000000000000000000815260040161109890615bf3565b60405180910390fd5b6110ab82826132e8565b5b856fffffffffffffffffffffffffffffffff1660008111611102576040517f08c379a00000000000000000000000000000000000000000000000000000000081526004016110f990615c5f565b60405180910390fd5b83600360049054906101000a900463ffffffff1663ffffffff168163ffffffff161015611164576040517f08c379a000000000000000000000000000000000000000000000000000000000815260040161115b90615ccb565b60405180910390fd5b85600160008c73ffffffffffffffffffffffffffffffffffffffff1673ffffffffffffffffffffffffffffffffffffffff16815260200190815260200160002060008b815260200190815260200160002060000160046101000a81548163ffffffff021916908363ffffffff16021790555084600160008c73ffffffffffffffffffffffffffffffffffffffff1673ffffffffffffffffffffffffffffffffffffffff16815260200190815260200160002060008b815260200190815260200160002060000160006101000a81548163ffffffff021916908363ffffffff16021790555061128a8a8a8a8a600460009054906101000a900473ffffffffffffffffffffffffffffffffffffffff16600360109054906101000a900463ffffffff16613689565b50505050505050505050565b8282600160008373ffffffffffffffffffffffffffffffffffffffff1673ffffffffffffffffffffffffffffffffffffffff168152602001908152602001600020600082815260200190815260200160002060030160009054906101000a900473ffffffffffffffffffffffffffffffffffffffff1673ffffffffffffffffffffffffffffffffffffffff163373ffffffffffffffffffffffffffffffffffffffff1614611379576040517f08c379a00000000000000000000000000000000000000000000000000000000081526004016113709061585c565b60405180910390fd5b84846113858282613702565b156113c5576040517f08c379a00000000000000000000000000000000000000000000000000000000081526004016113bc90615d37565b60405180910390fd5b86866113d18282612c33565b15611411576040517f08c379a000000000000000000000000000000000000000000000000000000000815260040161140890615da3565b60405180910390fd5b866fffffffffffffffffffffffffffffffff1660008111611467576040517f08c379a000000000000000000000000000000000000000000000000000000000815260040161145e90615c5f565b60405180910390fd5b600160008b73ffffffffffffffffffffffffffffffffffffffff1673ffffffffffffffffffffffffffffffffffffffff16815260200190815260200160002060008a815260200190815260200160002060010160009054906101000a90046fffffffffffffffffffffffffffffffff16886000826fffffffffffffffffffffffffffffffff16148061153e5750806fffffffffffffffffffffffffffffffff1661153b836fffffffffffffffffffffffffffffffff16600360089054906101000a900463ffffffff1663ffffffff16613835565b10155b61157d576040517f08c379a000000000000000000000000000000000000000000000000000000000815260040161157490615e0f565b60405180910390fd5b89600160008e73ffffffffffffffffffffffffffffffffffffffff1673ffffffffffffffffffffffffffffffffffffffff16815260200190815260200160002060008d815260200190815260200160002060000160106101000a8154816fffffffffffffffffffffffffffffffff02191690836fffffffffffffffffffffffffffffffff1602179055507fdcf27af4c564afa0c536dd1fa48e5fef0d9833378a1bddacc95922b902ebfc328c8c8c60405161163a93929190615e6a565b60405180910390a161164c8c8c613702565b156116665761165b8c8c613858565b6116658c8c613bf2565b5b505050505050505050505050565b600360049054906101000a900463ffffffff1681565b81816116968282613702565b156116d6576040517f08c379a00000000000000000000000000000000000000000000000000000000081526004016116cd90615d37565b60405180910390fd5b6000600160008673ffffffffffffffffffffffffffffffffffffffff1673ffffffffffffffffffffffffffffffffffffffff168152602001908152602001600020600085815260200190815260200160002060020160009054906101000a900473ffffffffffffffffffffffffffffffffffffffff1690508073ffffffffffffffffffffffffffffffffffffffff163373ffffffffffffffffffffffffffffffffffffffff16146117bc576040517f08c379a00000000000000000000000000000000000000000000000000000000081526004016117b390615eed565b60405180910390fd5b6000600160008773ffffffffffffffffffffffffffffffffffffffff1673ffffffffffffffffffffffffffffffffffffffff168152602001908152602001600020600086815260200190815260200160002060010160109054906101000a90046fffffffffffffffffffffffffffffffff16905061183a8686612d4e565b61185682826fffffffffffffffffffffffffffffffff16612f03565b7f10d9bddf66f639dd3c5a6ad2db5ae3102c2b468dfb90a4b0da219435f24a970d868633604051611889939291906158f7565b60405180910390a1505050505050565b81816118a5828261300d565b156118e5576040517f08c379a00000000000000000000000000000000000000000000000000000000081526004016118dc90615f59565b60405180910390fd5b6118ef8484613d2c565b7fe6b94748c5d6e0d188a0fcb9b7f2973b01fc0095627f1ec5accdcd9d2e65ca36848433604051611922939291906158f7565b60405180910390a150505050565b85853373ffffffffffffffffffffffffffffffffffffffff16600160008473ffffffffffffffffffffffffffffffffffffffff1673ffffffffffffffffffffffffffffffffffffffff168152602001908152602001600020600083815260200190815260200160002060030160009054906101000a900473ffffffffffffffffffffffffffffffffffffffff1673ffffffffffffffffffffffffffffffffffffffff161415611a14576040517f08c379a0000000000000000000000000000000000000000000000000000000008152600401611a0b90615b2a565b60405180910390fd5b600073ffffffffffffffffffffffffffffffffffffffff16600160008473ffffffffffffffffffffffffffffffffffffffff1673ffffffffffffffffffffffffffffffffffffffff168152602001908152602001600020600083815260200190815260200160002060030160009054906101000a900473ffffffffffffffffffffffffffffffffffffffff1673ffffffffffffffffffffffffffffffffffffffff1614611bbc578173ffffffffffffffffffffffffffffffffffffffff16636352211e826040518263ffffffff1660e01b8152600401611af49190615b4a565b60206040518083038186803b158015611b0c57600080fd5b505afa158015611b20573d6000803e3d6000fd5b505050506040513d601f19601f82011682018060405250810190611b449190615b7a565b73ffffffffffffffffffffffffffffffffffffffff163373ffffffffffffffffffffffffffffffffffffffff1614611bb1576040517f08c379a0000000000000000000000000000000000000000000000000000000008152600401611ba890615bf3565b60405180910390fd5b611bbb82826132e8565b5b856fffffffffffffffffffffffffffffffff1660008111611c12576040517f08c379a0000000000000000000000000000000000000000000000000000000008152600401611c0990615c5f565b60405180910390fd5b611c20898989898989613f88565b7fd3da7e9fc506387bc87dcee4cdc7543594b0c757550e917422bc9537eb8d5f5e8989338a8a8a8a604051611c5b9796959493929190615f79565b60405180910390a1611c6d898961428f565b15611cb657611c7c898961431d565b15611caa57611c8b8989614343565b15611ca557611c9a8989613858565b611ca48989613d2c565b5b611cb5565b611cb48989614476565b5b5b505050505050505050565b83833373ffffffffffffffffffffffffffffffffffffffff16600160008473ffffffffffffffffffffffffffffffffffffffff1673ffffffffffffffffffffffffffffffffffffffff168152602001908152602001600020600083815260200190815260200160002060030160009054906101000a900473ffffffffffffffffffffffffffffffffffffffff1673ffffffffffffffffffffffffffffffffffffffff161415611da5576040517f08c379a0000000000000000000000000000000000000000000000000000000008152600401611d9c90615b2a565b60405180910390fd5b600073ffffffffffffffffffffffffffffffffffffffff16600160008473ffffffffffffffffffffffffffffffffffffffff1673ffffffffffffffffffffffffffffffffffffffff168152602001908152602001600020600083815260200190815260200160002060030160009054906101000a900473ffffffffffffffffffffffffffffffffffffffff1673ffffffffffffffffffffffffffffffffffffffff1614611f4d578173ffffffffffffffffffffffffffffffffffffffff16636352211e826040518263ffffffff1660e01b8152600401611e859190615b4a565b60206040518083038186803b158015611e9d57600080fd5b505afa158015611eb1573d6000803e3d6000fd5b505050506040513d601f19601f82011682018060405250810190611ed59190615b7a565b73ffffffffffffffffffffffffffffffffffffffff163373ffffffffffffffffffffffffffffffffffffffff1614611f42576040517f08c379a0000000000000000000000000000000000000000000000000000000008152600401611f3990615bf3565b60405180910390fd5b611f4c82826132e8565b5b836fffffffffffffffffffffffffffffffff1660008111611fa3576040517f08c379a0000000000000000000000000000000000000000000000000000000008152600401611f9a90615c5f565b60405180910390fd5b611fe587878787600460009054906101000a900473ffffffffffffffffffffffffffffffffffffffff16600360109054906101000a900463ffffffff16613689565b50505050505050565b611ff661458e565b73ffffffffffffffffffffffffffffffffffffffff1661201461221b565b73ffffffffffffffffffffffffffffffffffffffff161461206a576040517f08c379a000000000000000000000000000000000000000000000000000000000815260040161206190616034565b60405180910390fd5b6120746000614596565b565b600460009054906101000a900473ffffffffffffffffffffffffffffffffffffffff1681565b8181600160008373ffffffffffffffffffffffffffffffffffffffff1673ffffffffffffffffffffffffffffffffffffffff168152602001908152602001600020600082815260200190815260200160002060030160009054906101000a900473ffffffffffffffffffffffffffffffffffffffff1673ffffffffffffffffffffffffffffffffffffffff163373ffffffffffffffffffffffffffffffffffffffff161461217f576040517f08c379a00000000000000000000000000000000000000000000000000000000081526004016121769061585c565b60405180910390fd5b612189848461428f565b6121c8576040517f08c379a00000000000000000000000000000000000000000000000000000000081526004016121bf906160a0565b60405180910390fd5b6121d28484613858565b6121dc8484613d2c565b7f711f4eae05533b90c24ff0ae762d6e9e1ef1b2c85d4c484a2913c5201bcbb7c9848460405161220d9291906160c0565b60405180910390a150505050565b60008060009054906101000a900473ffffffffffffffffffffffffffffffffffffffff16905090565b61224c61458e565b73ffffffffffffffffffffffffffffffffffffffff1661226a61221b565b73ffffffffffffffffffffffffffffffffffffffff16146122c0576040517f08c379a00000000000000000000000000000000000000000000000000000000081526004016122b790616034565b60405180910390fd5b80600360106101000a81548163ffffffff021916908363ffffffff16021790555050565b600360009054906101000a900463ffffffff1681565b600360109054906101000a900463ffffffff1681565b6000600260003373ffffffffffffffffffffffffffffffffffffffff1673ffffffffffffffffffffffffffffffffffffffff1681526020019081526020016000205490506000811415612398576040517f08c379a000000000000000000000000000000000000000000000000000000000815260040161238f90616135565b60405180910390fd5b6000600260003373ffffffffffffffffffffffffffffffffffffffff1673ffffffffffffffffffffffffffffffffffffffff1681526020019081526020016000208190555060003373ffffffffffffffffffffffffffffffffffffffff1682614e209060405161240790616186565b600060405180830381858888f193505050503d8060008114612445576040519150601f19603f3d011682016040523d82523d6000602084013e61244a565b606091505b505090508061248e576040517f08c379a0000000000000000000000000000000000000000000000000000000008152600401612485906161e7565b60405180910390fd5b5050565b818161249e828261300d565b6124dd576040517f08c379a00000000000000000000000000000000000000000000000000000000081526004016124d49061597a565b60405180910390fd5b83836124e982826130a5565b158061259357503373ffffffffffffffffffffffffffffffffffffffff16600160008473ffffffffffffffffffffffffffffffffffffffff1673ffffffffffffffffffffffffffffffffffffffff168152602001908152602001600020600083815260200190815260200160002060040160009054906101000a900473ffffffffffffffffffffffffffffffffffffffff1673ffffffffffffffffffffffffffffffffffffffff16145b6125d2576040517f08c379a00000000000000000000000000000000000000000000000000000000081526004016125c990615a52565b60405180910390fd5b6125dc8686613152565b505050505050565b6125ec61458e565b73ffffffffffffffffffffffffffffffffffffffff1661260a61221b565b73ffffffffffffffffffffffffffffffffffffffff1614612660576040517f08c379a000000000000000000000000000000000000000000000000000000000815260040161265790616034565b60405180910390fd5b80600460006101000a81548173ffffffffffffffffffffffffffffffffffffffff021916908373ffffffffffffffffffffffffffffffffffffffff16021790555050565b600360089054906101000a900463ffffffff1681565b3373ffffffffffffffffffffffffffffffffffffffff168273ffffffffffffffffffffffffffffffffffffffff16636352211e836040518263ffffffff1660e01b815260040161270a9190615b4a565b60206040518083038186803b15801561272257600080fd5b505afa158015612736573d6000803e3d6000fd5b505050506040513d601f19601f8201168201806040525081019061275a9190615b7a565b73ffffffffffffffffffffffffffffffffffffffff16146127b0576040517f08c379a00000000000000000000000000000000000000000000000000000000081526004016127a790616253565b60405180910390fd5b6127ba82826132e8565b7fec19f84af4aad6523d37faa19e243c77717842cca9bf492dc5379830cac958d08282336040516127ed939291906158f7565b60405180910390a15050565b61280161458e565b73ffffffffffffffffffffffffffffffffffffffff1661281f61221b565b73ffffffffffffffffffffffffffffffffffffffff1614612875576040517f08c379a000000000000000000000000000000000000000000000000000000000815260040161286c90616034565b60405180910390fd5b600073ffffffffffffffffffffffffffffffffffffffff168173ffffffffffffffffffffffffffffffffffffffff1614156128e5576040517f08c379a00000000000000000000000000000000000000000000000000000000081526004016128dc906162e5565b60405180910390fd5b6128ee81614596565b50565b8282600160008373ffffffffffffffffffffffffffffffffffffffff1673ffffffffffffffffffffffffffffffffffffffff168152602001908152602001600020600082815260200190815260200160002060030160009054906101000a900473ffffffffffffffffffffffffffffffffffffffff1673ffffffffffffffffffffffffffffffffffffffff163373ffffffffffffffffffffffffffffffffffffffff16146129d4576040517f08c379a00000000000000000000000000000000000000000000000000000000081526004016129cb9061585c565b60405180910390fd5b826fffffffffffffffffffffffffffffffff1660008111612a2a576040517f08c379a0000000000000000000000000000000000000000000000000000000008152600401612a2190615c5f565b60405180910390fd5b83600160008873ffffffffffffffffffffffffffffffffffffffff1673ffffffffffffffffffffffffffffffffffffffff168152602001908152602001600020600087815260200190815260200160002060000160109054906101000a90046fffffffffffffffffffffffffffffffff166000826fffffffffffffffffffffffffffffffff161480612b015750806fffffffffffffffffffffffffffffffff16612afe836fffffffffffffffffffffffffffffffff16600360089054906101000a900463ffffffff1663ffffffff16613835565b10155b612b40576040517f08c379a0000000000000000000000000000000000000000000000000000000008152600401612b3790615e0f565b60405180910390fd5b85600160008a73ffffffffffffffffffffffffffffffffffffffff1673ffffffffffffffffffffffffffffffffffffffff168152602001908152602001600020600089815260200190815260200160002060010160006101000a8154816fffffffffffffffffffffffffffffffff02191690836fffffffffffffffffffffffffffffffff1602179055507fcc66420416a999e685e3938d2c6252ed709db214d0435f13da0b1e5339bcac76888888604051612bfd93929190616305565b60405180910390a1612c0f8888614343565b15612c2957612c1e8888613858565b612c288888613d2c565b5b5050505050505050565b600080600160008573ffffffffffffffffffffffffffffffffffffffff1673ffffffffffffffffffffffffffffffffffffffff168152602001908152602001600020600084815260200190815260200160002060010160009054906101000a90046fffffffffffffffffffffffffffffffff166fffffffffffffffffffffffffffffffff16118015612d4657506000600160008573ffffffffffffffffffffffffffffffffffffffff1673ffffffffffffffffffffffffffffffffffffffff168152602001908152602001600020600084815260200190815260200160002060000160109054906101000a90046fffffffffffffffffffffffffffffffff166fffffffffffffffffffffffffffffffff16145b905092915050565b6000600160008473ffffffffffffffffffffffffffffffffffffffff1673ffffffffffffffffffffffffffffffffffffffff168152602001908152602001600020600083815260200190815260200160002060020160006101000a81548173ffffffffffffffffffffffffffffffffffffffff021916908373ffffffffffffffffffffffffffffffffffffffff1602179055506000600160008473ffffffffffffffffffffffffffffffffffffffff1673ffffffffffffffffffffffffffffffffffffffff168152602001908152602001600020600083815260200190815260200160002060010160106101000a8154816fffffffffffffffffffffffffffffffff02191690836fffffffffffffffffffffffffffffffff1602179055506000600160008473ffffffffffffffffffffffffffffffffffffffff1673ffffffffffffffffffffffffffffffffffffffff168152602001908152602001600020600083815260200190815260200160002060050160006101000a81548173ffffffffffffffffffffffffffffffffffffffff021916908373ffffffffffffffffffffffffffffffffffffffff1602179055505050565b60008273ffffffffffffffffffffffffffffffffffffffff1682614e2090604051612f2d90616186565b600060405180830381858888f193505050503d8060008114612f6b576040519150601f19603f3d011682016040523d82523d6000602084013e612f70565b606091505b50509050806130085781600260008573ffffffffffffffffffffffffffffffffffffffff1673ffffffffffffffffffffffffffffffffffffffff16815260200190815260200160002054612fc4919061636b565b600260008573ffffffffffffffffffffffffffffffffffffffff1673ffffffffffffffffffffffffffffffffffffffff168152602001908152602001600020819055505b505050565b600080600160008573ffffffffffffffffffffffffffffffffffffffff1673ffffffffffffffffffffffffffffffffffffffff168152602001908152602001600020600084815260200190815260200160002060000160089054906101000a900467ffffffffffffffff16905060008167ffffffffffffffff16148061309c57508067ffffffffffffffff1642105b91505092915050565b60008073ffffffffffffffffffffffffffffffffffffffff16600160008573ffffffffffffffffffffffffffffffffffffffff1673ffffffffffffffffffffffffffffffffffffffff168152602001908152602001600020600084815260200190815260200160002060040160009054906101000a900473ffffffffffffffffffffffffffffffffffffffff1673ffffffffffffffffffffffffffffffffffffffff161415905092915050565b8181600160008373ffffffffffffffffffffffffffffffffffffffff1673ffffffffffffffffffffffffffffffffffffffff168152602001908152602001600020600082815260200190815260200160002060030160009054906101000a900473ffffffffffffffffffffffffffffffffffffffff1673ffffffffffffffffffffffffffffffffffffffff163373ffffffffffffffffffffffffffffffffffffffff161415613236576040517f08c379a000000000000000000000000000000000000000000000000000000000815260040161322d9061640d565b60405180910390fd5b600034141561324457600080fd5b8383613250828261465a565b61328f576040517f08c379a000000000000000000000000000000000000000000000000000000000815260040161328690616479565b60405180910390fd5b61329986866147db565b7fedaf6d9c1d6c948b723fe76f06024d095fe2026b77ed16e2ec4987432cddeec4868633346040516132ce9493929190616499565b60405180910390a16132e08686614928565b505050505050565b6000600160008473ffffffffffffffffffffffffffffffffffffffff1673ffffffffffffffffffffffffffffffffffffffff168152602001908152602001600020600083815260200190815260200160002060000160106101000a8154816fffffffffffffffffffffffffffffffff02191690836fffffffffffffffffffffffffffffffff1602179055506000600160008473ffffffffffffffffffffffffffffffffffffffff1673ffffffffffffffffffffffffffffffffffffffff168152602001908152602001600020600083815260200190815260200160002060010160006101000a8154816fffffffffffffffffffffffffffffffff02191690836fffffffffffffffffffffffffffffffff1602179055506000600160008473ffffffffffffffffffffffffffffffffffffffff1673ffffffffffffffffffffffffffffffffffffffff168152602001908152602001600020600083815260200190815260200160002060000160086101000a81548167ffffffffffffffff021916908367ffffffffffffffff1602179055506000600160008473ffffffffffffffffffffffffffffffffffffffff1673ffffffffffffffffffffffffffffffffffffffff168152602001908152602001600020600083815260200190815260200160002060000160046101000a81548163ffffffff021916908363ffffffff1602179055506000600160008473ffffffffffffffffffffffffffffffffffffffff1673ffffffffffffffffffffffffffffffffffffffff168152602001908152602001600020600083815260200190815260200160002060000160006101000a81548163ffffffff021916908363ffffffff1602179055506000600160008473ffffffffffffffffffffffffffffffffffffffff1673ffffffffffffffffffffffffffffffffffffffff168152602001908152602001600020600083815260200190815260200160002060030160006101000a81548173ffffffffffffffffffffffffffffffffffffffff021916908373ffffffffffffffffffffffffffffffffffffffff1602179055506000600160008473ffffffffffffffffffffffffffffffffffffffff1673ffffffffffffffffffffffffffffffffffffffff168152602001908152602001600020600083815260200190815260200160002060040160006101000a81548173ffffffffffffffffffffffffffffffffffffffff021916908373ffffffffffffffffffffffffffffffffffffffff1602179055505050565b613697868686868686614979565b7f4e345485ad40041b9a1d443dbac0515657a2699c30a4a7fa04ed681541bc38d386863387876136c78c8c614d21565b6136d18d8d614dbf565b89896040516136e8999897969594939291906164de565b60405180910390a16136fa8686614928565b505050505050565b600080600160008573ffffffffffffffffffffffffffffffffffffffff1673ffffffffffffffffffffffffffffffffffffffff168152602001908152602001600020600084815260200190815260200160002060000160109054906101000a90046fffffffffffffffffffffffffffffffff1690506000816fffffffffffffffffffffffffffffffff1611801561382c5750806fffffffffffffffffffffffffffffffff16600160008673ffffffffffffffffffffffffffffffffffffffff1673ffffffffffffffffffffffffffffffffffffffff168152602001908152602001600020600085815260200190815260200160002060010160109054906101000a90046fffffffffffffffffffffffffffffffff166fffffffffffffffffffffffffffffffff1610155b91505092915050565b60006127108284613846919061656b565b61385091906165f4565b905092915050565b6000600160008473ffffffffffffffffffffffffffffffffffffffff1673ffffffffffffffffffffffffffffffffffffffff168152602001908152602001600020600083815260200190815260200160002060030160009054906101000a900473ffffffffffffffffffffffffffffffffffffffff1690508073ffffffffffffffffffffffffffffffffffffffff168373ffffffffffffffffffffffffffffffffffffffff16636352211e846040518263ffffffff1660e01b81526004016139209190615b4a565b60206040518083038186803b15801561393857600080fd5b505afa15801561394c573d6000803e3d6000fd5b505050506040513d601f19601f820116820180604052508101906139709190615b7a565b73ffffffffffffffffffffffffffffffffffffffff161415613af6578273ffffffffffffffffffffffffffffffffffffffff166323b872dd8230856040518463ffffffff1660e01b81526004016139c993929190616625565b600060405180830381600087803b1580156139e357600080fd5b505af11580156139f7573d6000803e3d6000fd5b505050503073ffffffffffffffffffffffffffffffffffffffff168373ffffffffffffffffffffffffffffffffffffffff16636352211e846040518263ffffffff1660e01b8152600401613a4b9190615b4a565b60206040518083038186803b158015613a6357600080fd5b505afa158015613a77573d6000803e3d6000fd5b505050506040513d601f19601f82011682018060405250810190613a9b9190615b7a565b73ffffffffffffffffffffffffffffffffffffffff1614613af1576040517f08c379a0000000000000000000000000000000000000000000000000000000008152600401613ae8906166a8565b60405180910390fd5b613bed565b3073ffffffffffffffffffffffffffffffffffffffff168373ffffffffffffffffffffffffffffffffffffffff16636352211e846040518263ffffffff1660e01b8152600401613b469190615b4a565b60206040518083038186803b158015613b5e57600080fd5b505afa158015613b72573d6000803e3d6000fd5b505050506040513d601f19601f82011682018060405250810190613b969190615b7a565b73ffffffffffffffffffffffffffffffffffffffff1614613bec576040517f08c379a0000000000000000000000000000000000000000000000000000000008152600401613be390616714565b60405180910390fd5b5b505050565b42613bfd8383614d21565b63ffffffff16613c0d9190616734565b600160008473ffffffffffffffffffffffffffffffffffffffff1673ffffffffffffffffffffffffffffffffffffffff168152602001908152602001600020600083815260200190815260200160002060000160086101000a81548167ffffffffffffffff021916908367ffffffffffffffff1602179055507fc1ce6cc1337b95ed3c849e00bffc0d93e89e5e80cc5d198db838140827ac75948282600160008673ffffffffffffffffffffffffffffffffffffffff1673ffffffffffffffffffffffffffffffffffffffff168152602001908152602001600020600085815260200190815260200160002060000160089054906101000a900467ffffffffffffffff16604051613d2093929190616772565b60405180910390a15050565b6000600160008473ffffffffffffffffffffffffffffffffffffffff1673ffffffffffffffffffffffffffffffffffffffff168152602001908152602001600020600083815260200190815260200160002060030160009054906101000a900473ffffffffffffffffffffffffffffffffffffffff1690506000600160008573ffffffffffffffffffffffffffffffffffffffff1673ffffffffffffffffffffffffffffffffffffffff168152602001908152602001600020600084815260200190815260200160002060020160009054906101000a900473ffffffffffffffffffffffffffffffffffffffff1690506000613e288585614e5d565b90506000600160008773ffffffffffffffffffffffffffffffffffffffff1673ffffffffffffffffffffffffffffffffffffffff168152602001908152602001600020600086815260200190815260200160002060010160109054906101000a90046fffffffffffffffffffffffffffffffff169050613ea88686612d4e565b613ec6868686846fffffffffffffffffffffffffffffffff16614f92565b8573ffffffffffffffffffffffffffffffffffffffff166323b872dd3084886040518463ffffffff1660e01b8152600401613f0393929190616625565b600060405180830381600087803b158015613f1d57600080fd5b505af1158015613f31573d6000803e3d6000fd5b50505050613f3f86866132e8565b7f8df77c988c9550e96e43a66277f716818a74ed2188cdacb49d790623e6f22571868686848787604051613f78969594939291906167a9565b60405180910390a1505050505050565b806127108163ffffffff161115613fd4576040517f08c379a0000000000000000000000000000000000000000000000000000000008152600401613fcb90616856565b60405180910390fd5b82600160008973ffffffffffffffffffffffffffffffffffffffff1673ffffffffffffffffffffffffffffffffffffffff168152602001908152602001600020600088815260200190815260200160002060060160006101000a81548173ffffffffffffffffffffffffffffffffffffffff021916908373ffffffffffffffffffffffffffffffffffffffff16021790555081600160008973ffffffffffffffffffffffffffffffffffffffff1673ffffffffffffffffffffffffffffffffffffffff168152602001908152602001600020600088815260200190815260200160002060060160146101000a81548163ffffffff021916908363ffffffff16021790555084600160008973ffffffffffffffffffffffffffffffffffffffff1673ffffffffffffffffffffffffffffffffffffffff168152602001908152602001600020600088815260200190815260200160002060010160006101000a8154816fffffffffffffffffffffffffffffffff02191690836fffffffffffffffffffffffffffffffff16021790555083600160008973ffffffffffffffffffffffffffffffffffffffff1673ffffffffffffffffffffffffffffffffffffffff168152602001908152602001600020600088815260200190815260200160002060040160006101000a81548173ffffffffffffffffffffffffffffffffffffffff021916908373ffffffffffffffffffffffffffffffffffffffff16021790555033600160008973ffffffffffffffffffffffffffffffffffffffff1673ffffffffffffffffffffffffffffffffffffffff168152602001908152602001600020600088815260200190815260200160002060030160006101000a81548173ffffffffffffffffffffffffffffffffffffffff021916908373ffffffffffffffffffffffffffffffffffffffff16021790555050505050505050565b600080600160008573ffffffffffffffffffffffffffffffffffffffff1673ffffffffffffffffffffffffffffffffffffffff168152602001908152602001600020600084815260200190815260200160002060010160109054906101000a90046fffffffffffffffffffffffffffffffff166fffffffffffffffffffffffffffffffff1611905092915050565b600061432983836130a5565b158061433b575061433a83836150a2565b5b905092915050565b600080600160008573ffffffffffffffffffffffffffffffffffffffff1673ffffffffffffffffffffffffffffffffffffffff168152602001908152602001600020600084815260200190815260200160002060010160009054906101000a90046fffffffffffffffffffffffffffffffff1690506000816fffffffffffffffffffffffffffffffff1611801561446d5750806fffffffffffffffffffffffffffffffff16600160008673ffffffffffffffffffffffffffffffffffffffff1673ffffffffffffffffffffffffffffffffffffffff168152602001908152602001600020600085815260200190815260200160002060010160109054906101000a90046fffffffffffffffffffffffffffffffff166fffffffffffffffffffffffffffffffff1610155b91505092915050565b6000600160008473ffffffffffffffffffffffffffffffffffffffff1673ffffffffffffffffffffffffffffffffffffffff168152602001908152602001600020600083815260200190815260200160002060020160009054906101000a900473ffffffffffffffffffffffffffffffffffffffff1690506000600160008573ffffffffffffffffffffffffffffffffffffffff1673ffffffffffffffffffffffffffffffffffffffff168152602001908152602001600020600084815260200190815260200160002060010160109054906101000a90046fffffffffffffffffffffffffffffffff16905061456c8484612d4e565b61458882826fffffffffffffffffffffffffffffffff16612f03565b50505050565b600033905090565b60008060009054906101000a900473ffffffffffffffffffffffffffffffffffffffff169050816000806101000a81548173ffffffffffffffffffffffffffffffffffffffff021916908373ffffffffffffffffffffffffffffffffffffffff1602179055508173ffffffffffffffffffffffffffffffffffffffff168173ffffffffffffffffffffffffffffffffffffffff167f8be0079c531659141344cd1fd0a4f28419497f9722a3daafe3b4186f6b6457e060405160405180910390a35050565b600080600160008573ffffffffffffffffffffffffffffffffffffffff1673ffffffffffffffffffffffffffffffffffffffff168152602001908152602001600020600084815260200190815260200160002060010160009054906101000a90046fffffffffffffffffffffffffffffffff1690506000816fffffffffffffffffffffffffffffffff161180156147035750806fffffffffffffffffffffffffffffffff163410155b156147125760019150506147d5565b60006127106147218686614dbf565b61271061472e9190616876565b63ffffffff16600160008873ffffffffffffffffffffffffffffffffffffffff1673ffffffffffffffffffffffffffffffffffffffff168152602001908152602001600020600087815260200190815260200160002060010160109054906101000a90046fffffffffffffffffffffffffffffffff166147ae91906168b0565b6147b891906168fa565b6fffffffffffffffffffffffffffffffff16905080341015925050505b92915050565b6000600160008473ffffffffffffffffffffffffffffffffffffffff1673ffffffffffffffffffffffffffffffffffffffff168152602001908152602001600020600083815260200190815260200160002060020160009054906101000a900473ffffffffffffffffffffffffffffffffffffffff1690506000600160008573ffffffffffffffffffffffffffffffffffffffff1673ffffffffffffffffffffffffffffffffffffffff168152602001908152602001600020600084815260200190815260200160002060010160109054906101000a90046fffffffffffffffffffffffffffffffff166fffffffffffffffffffffffffffffffff1690506148e384846151c1565b600073ffffffffffffffffffffffffffffffffffffffff168273ffffffffffffffffffffffffffffffffffffffff1614614922576149218282612f03565b5b50505050565b6149328282614343565b15614950576149418282613858565b61494b8282613d2c565b614975565b61495a8282613702565b15614974576149698282613858565b6149738282613bf2565b5b5b5050565b82846000826fffffffffffffffffffffffffffffffff1614806149e15750806fffffffffffffffffffffffffffffffff166149de836fffffffffffffffffffffffffffffffff16600360089054906101000a900463ffffffff1663ffffffff16613835565b10155b614a20576040517f08c379a0000000000000000000000000000000000000000000000000000000008152600401614a1790615e0f565b60405180910390fd5b826127108163ffffffff161115614a6c576040517f08c379a0000000000000000000000000000000000000000000000000000000008152600401614a6390616856565b60405180910390fd5b84600160008b73ffffffffffffffffffffffffffffffffffffffff1673ffffffffffffffffffffffffffffffffffffffff16815260200190815260200160002060008a815260200190815260200160002060060160006101000a81548173ffffffffffffffffffffffffffffffffffffffff021916908373ffffffffffffffffffffffffffffffffffffffff16021790555083600160008b73ffffffffffffffffffffffffffffffffffffffff1673ffffffffffffffffffffffffffffffffffffffff16815260200190815260200160002060008a815260200190815260200160002060060160146101000a81548163ffffffff021916908363ffffffff16021790555085600160008b73ffffffffffffffffffffffffffffffffffffffff1673ffffffffffffffffffffffffffffffffffffffff16815260200190815260200160002060008a815260200190815260200160002060010160006101000a8154816fffffffffffffffffffffffffffffffff02191690836fffffffffffffffffffffffffffffffff16021790555086600160008b73ffffffffffffffffffffffffffffffffffffffff1673ffffffffffffffffffffffffffffffffffffffff16815260200190815260200160002060008a815260200190815260200160002060000160106101000a8154816fffffffffffffffffffffffffffffffff02191690836fffffffffffffffffffffffffffffffff16021790555033600160008b73ffffffffffffffffffffffffffffffffffffffff1673ffffffffffffffffffffffffffffffffffffffff16815260200190815260200160002060008a815260200190815260200160002060030160006101000a81548173ffffffffffffffffffffffffffffffffffffffff021916908373ffffffffffffffffffffffffffffffffffffffff160217905550505050505050505050565b600080600160008573ffffffffffffffffffffffffffffffffffffffff1673ffffffffffffffffffffffffffffffffffffffff168152602001908152602001600020600084815260200190815260200160002060000160049054906101000a900463ffffffff16905060008163ffffffff161415614db4576003600c9054906101000a900463ffffffff16915050614db9565b809150505b92915050565b600080600160008573ffffffffffffffffffffffffffffffffffffffff1673ffffffffffffffffffffffffffffffffffffffff168152602001908152602001600020600084815260200190815260200160002060000160009054906101000a900463ffffffff16905060008163ffffffff161415614e5257600360009054906101000a900463ffffffff16915050614e57565b809150505b92915050565b600080600160008573ffffffffffffffffffffffffffffffffffffffff1673ffffffffffffffffffffffffffffffffffffffff168152602001908152602001600020600084815260200190815260200160002060050160009054906101000a900473ffffffffffffffffffffffffffffffffffffffff169050600073ffffffffffffffffffffffffffffffffffffffff168173ffffffffffffffffffffffffffffffffffffffff161415614f8757600160008573ffffffffffffffffffffffffffffffffffffffff1673ffffffffffffffffffffffffffffffffffffffff168152602001908152602001600020600084815260200190815260200160002060020160009054906101000a900473ffffffffffffffffffffffffffffffffffffffff16915050614f8c565b809150505b92915050565b600061500782600160008873ffffffffffffffffffffffffffffffffffffffff1673ffffffffffffffffffffffffffffffffffffffff168152602001908152602001600020600087815260200190815260200160002060060160149054906101000a900463ffffffff1663ffffffff16613835565b9050615086600160008773ffffffffffffffffffffffffffffffffffffffff1673ffffffffffffffffffffffffffffffffffffffff168152602001908152602001600020600086815260200190815260200160002060060160009054906101000a900473ffffffffffffffffffffffffffffffffffffffff1682612f03565b61509b838284615096919061692b565b612f03565b5050505050565b6000600160008473ffffffffffffffffffffffffffffffffffffffff1673ffffffffffffffffffffffffffffffffffffffff168152602001908152602001600020600083815260200190815260200160002060040160009054906101000a900473ffffffffffffffffffffffffffffffffffffffff1673ffffffffffffffffffffffffffffffffffffffff16600160008573ffffffffffffffffffffffffffffffffffffffff1673ffffffffffffffffffffffffffffffffffffffff168152602001908152602001600020600084815260200190815260200160002060020160009054906101000a900473ffffffffffffffffffffffffffffffffffffffff1673ffffffffffffffffffffffffffffffffffffffff1614905092915050565b34600160008473ffffffffffffffffffffffffffffffffffffffff1673ffffffffffffffffffffffffffffffffffffffff168152602001908152602001600020600083815260200190815260200160002060010160106101000a8154816fffffffffffffffffffffffffffffffff02191690836fffffffffffffffffffffffffffffffff16021790555033600160008473ffffffffffffffffffffffffffffffffffffffff1673ffffffffffffffffffffffffffffffffffffffff168152602001908152602001600020600083815260200190815260200160002060020160006101000a81548173ffffffffffffffffffffffffffffffffffffffff021916908373ffffffffffffffffffffffffffffffffffffffff1602179055505050565b600080fd5b600073ffffffffffffffffffffffffffffffffffffffff82169050919050565b6000615311826152e6565b9050919050565b61532181615306565b811461532c57600080fd5b50565b60008135905061533e81615318565b92915050565b6000819050919050565b61535781615344565b811461536257600080fd5b50565b6000813590506153748161534e565b92915050565b60008060408385031215615391576153906152e1565b5b600061539f8582860161532f565b92505060206153b085828601615365565b9150509250929050565b600063ffffffff82169050919050565b6153d3816153ba565b82525050565b600067ffffffffffffffff82169050919050565b6153f6816153d9565b82525050565b60006fffffffffffffffffffffffffffffffff82169050919050565b615421816153fc565b82525050565b61543081615306565b82525050565b60006101808201905061544c600083018f6153ca565b615459602083018e6153ca565b615466604083018d6153ed565b615473606083018c615418565b615480608083018b615418565b61548d60a083018a615418565b61549a60c0830189615427565b6154a760e0830188615427565b6154b5610100830187615427565b6154c3610120830186615427565b6154d1610140830185615427565b6154df6101608301846153ca565b9d9c50505050505050505050505050565b600080600060608486031215615509576155086152e1565b5b60006155178682870161532f565b935050602061552886828701615365565b92505060406155398682870161532f565b9150509250925092565b600060208201905061555860008301846153ca565b92915050565b60006020820190506155736000830184615427565b92915050565b615582816153fc565b811461558d57600080fd5b50565b60008135905061559f81615579565b92915050565b6155ae816153ba565b81146155b957600080fd5b50565b6000813590506155cb816155a5565b92915050565b60008060008060008060c087890312156155ee576155ed6152e1565b5b60006155fc89828a0161532f565b965050602061560d89828a01615365565b955050604061561e89828a01615590565b945050606061562f89828a01615590565b935050608061564089828a016155bc565b92505060a061565189828a016155bc565b9150509295509295509295565b600080600060608486031215615677576156766152e1565b5b60006156858682870161532f565b935050602061569686828701615365565b92505060406156a786828701615590565b9150509250925092565b60008060008060008060c087890312156156ce576156cd6152e1565b5b60006156dc89828a0161532f565b96505060206156ed89828a01615365565b95505060406156fe89828a01615590565b945050606061570f89828a0161532f565b935050608061572089828a0161532f565b92505060a061573189828a016155bc565b9150509295509295509295565b60008060008060808587031215615758576157576152e1565b5b60006157668782880161532f565b945050602061577787828801615365565b935050604061578887828801615590565b925050606061579987828801615590565b91505092959194509250565b6000602082840312156157bb576157ba6152e1565b5b60006157c9848285016155bc565b91505092915050565b6000602082840312156157e8576157e76152e1565b5b60006157f68482850161532f565b91505092915050565b600082825260208201905092915050565b7f4f6e6c79206e66742073656c6c65720000000000000000000000000000000000600082015250565b6000615846600f836157ff565b915061585182615810565b602082019050919050565b6000602082019050818103600083015261587581615839565b9050919050565b7f4e6f7420612073616c6500000000000000000000000000000000000000000000600082015250565b60006158b2600a836157ff565b91506158bd8261587c565b602082019050919050565b600060208201905081810360008301526158e1816158a5565b9050919050565b6158f181615344565b82525050565b600060608201905061590c6000830186615427565b61591960208301856158e8565b6159266040830184615427565b949350505050565b7f41756374696f6e2068617320656e646564000000000000000000000000000000600082015250565b60006159646011836157ff565b915061596f8261592e565b602082019050919050565b6000602082019050818103600083015261599381615957565b9050919050565b7f43616e6e6f742073706563696679203020616464726573730000000000000000600082015250565b60006159d06018836157ff565b91506159db8261599a565b602082019050919050565b600060208201905081810360008301526159ff816159c3565b9050919050565b7f4f6e6c79207468652077686974656c6973746564206275796572000000000000600082015250565b6000615a3c601a836157ff565b9150615a4782615a06565b602082019050919050565b60006020820190508181036000830152615a6b81615a2f565b9050919050565b7f4e4654206e6f74206465706f7369746564000000000000000000000000000000600082015250565b6000615aa86011836157ff565b9150615ab382615a72565b602082019050919050565b60006020820190508181036000830152615ad781615a9b565b9050919050565b7f41756374696f6e20616c72656164792073746172746564206279206f776e6572600082015250565b6000615b146020836157ff565b9150615b1f82615ade565b602082019050919050565b60006020820190508181036000830152615b4381615b07565b9050919050565b6000602082019050615b5f60008301846158e8565b92915050565b600081519050615b7481615318565b92915050565b600060208284031215615b9057615b8f6152e1565b5b6000615b9e84828501615b65565b91505092915050565b7f53656e64657220646f65736e2774206f776e204e465400000000000000000000600082015250565b6000615bdd6016836157ff565b9150615be882615ba7565b602082019050919050565b60006020820190508181036000830152615c0c81615bd0565b9050919050565b7f50726963652063616e6e6f742062652030000000000000000000000000000000600082015250565b6000615c496011836157ff565b9150615c5482615c13565b602082019050919050565b60006020820190508181036000830152615c7881615c3c565b9050919050565b7f42696420696e6372656173652070657263656e7461676520746f6f206c6f7700600082015250565b6000615cb5601f836157ff565b9150615cc082615c7f565b602082019050919050565b60006020820190508181036000830152615ce481615ca8565b9050919050565b7f5468652061756374696f6e2068617320612076616c696420626964206d616465600082015250565b6000615d216020836157ff565b9150615d2c82615ceb565b602082019050919050565b60006020820190508181036000830152615d5081615d14565b9050919050565b7f4e6f74206170706c696361626c6520666f7220612073616c6500000000000000600082015250565b6000615d8d6019836157ff565b9150615d9882615d57565b602082019050919050565b60006020820190508181036000830152615dbc81615d80565b9050919050565b7f4d696e5072696365203e20383025206f66206275794e6f775072696365000000600082015250565b6000615df9601d836157ff565b9150615e0482615dc3565b602082019050919050565b60006020820190508181036000830152615e2881615dec565b9050919050565b6000819050919050565b6000615e54615e4f615e4a846153fc565b615e2f565b615344565b9050919050565b615e6481615e39565b82525050565b6000606082019050615e7f6000830186615427565b615e8c60208301856158e8565b615e996040830184615e5b565b949350505050565b7f43616e6e6f742077697468647261772066756e64730000000000000000000000600082015250565b6000615ed76015836157ff565b9150615ee282615ea1565b602082019050919050565b60006020820190508181036000830152615f0681615eca565b9050919050565b7f41756374696f6e206973206e6f7420796574206f766572000000000000000000600082015250565b6000615f436017836157ff565b9150615f4e82615f0d565b602082019050919050565b60006020820190508181036000830152615f7281615f36565b9050919050565b600060e082019050615f8e600083018a615427565b615f9b60208301896158e8565b615fa86040830188615427565b615fb56060830187615418565b615fc26080830186615427565b615fcf60a0830185615427565b615fdc60c08301846153ca565b98975050505050505050565b7f4f776e61626c653a2063616c6c6572206973206e6f7420746865206f776e6572600082015250565b600061601e6020836157ff565b915061602982615fe8565b602082019050919050565b6000602082019050818103600083015261604d81616011565b9050919050565b7f63616e6e6f74207061796f757420302062696400000000000000000000000000600082015250565b600061608a6013836157ff565b915061609582616054565b602082019050919050565b600060208201905081810360008301526160b98161607d565b9050919050565b60006040820190506160d56000830185615427565b6160e260208301846158e8565b9392505050565b7f6e6f206372656469747320746f20776974686472617700000000000000000000600082015250565b600061611f6016836157ff565b915061612a826160e9565b602082019050919050565b6000602082019050818103600083015261614e81616112565b9050919050565b600081905092915050565b50565b6000616170600083616155565b915061617b82616160565b600082019050919050565b600061619182616163565b9150819050919050565b7f7769746864726177206661696c65640000000000000000000000000000000000600082015250565b60006161d1600f836157ff565b91506161dc8261619b565b602082019050919050565b60006020820190508181036000830152616200816161c4565b9050919050565b7f4e6f74204e4654206f776e657200000000000000000000000000000000000000600082015250565b600061623d600d836157ff565b915061624882616207565b602082019050919050565b6000602082019050818103600083015261626c81616230565b9050919050565b7f4f776e61626c653a206e6577206f776e657220697320746865207a65726f206160008201527f6464726573730000000000000000000000000000000000000000000000000000602082015250565b60006162cf6026836157ff565b91506162da82616273565b604082019050919050565b600060208201905081810360008301526162fe816162c2565b9050919050565b600060608201905061631a6000830186615427565b61632760208301856158e8565b6163346040830184615418565b949350505050565b7f4e487b7100000000000000000000000000000000000000000000000000000000600052601160045260246000fd5b600061637682615344565b915061638183615344565b9250827fffffffffffffffffffffffffffffffffffffffffffffffffffffffffffffffff038211156163b6576163b561633c565b5b828201905092915050565b7f4f776e65722063616e6e6f7420626964206f6e206f776e204e46540000000000600082015250565b60006163f7601b836157ff565b9150616402826163c1565b602082019050919050565b60006020820190508181036000830152616426816163ea565b9050919050565b7f4e6f7420656e6f7567682066756e647320746f20626964206f6e204e46540000600082015250565b6000616463601e836157ff565b915061646e8261642d565b602082019050919050565b6000602082019050818103600083015261649281616456565b9050919050565b60006080820190506164ae6000830187615427565b6164bb60208301866158e8565b6164c86040830185615427565b6164d560608301846158e8565b95945050505050565b6000610120820190506164f4600083018c615427565b616501602083018b6158e8565b61650e604083018a615427565b61651b6060830189615418565b6165286080830188615418565b61653560a08301876153ca565b61654260c08301866153ca565b61654f60e0830185615427565b61655d6101008301846153ca565b9a9950505050505050505050565b600061657682615344565b915061658183615344565b9250817fffffffffffffffffffffffffffffffffffffffffffffffffffffffffffffffff04831182151516156165ba576165b961633c565b5b828202905092915050565b7f4e487b7100000000000000000000000000000000000000000000000000000000600052601260045260246000fd5b60006165ff82615344565b915061660a83615344565b92508261661a576166196165c5565b5b828204905092915050565b600060608201905061663a6000830186615427565b6166476020830185615427565b61665460408301846158e8565b949350505050565b7f6e6674207472616e73666572206661696c656400000000000000000000000000600082015250565b60006166926013836157ff565b915061669d8261665c565b602082019050919050565b600060208201905081810360008301526166c181616685565b9050919050565b7f53656c6c657220646f65736e2774206f776e204e465400000000000000000000600082015250565b60006166fe6016836157ff565b9150616709826166c8565b602082019050919050565b6000602082019050818103600083015261672d816166f1565b9050919050565b600061673f826153d9565b915061674a836153d9565b92508267ffffffffffffffff038211156167675761676661633c565b5b828201905092915050565b60006060820190506167876000830186615427565b61679460208301856158e8565b6167a160408301846153ed565b949350505050565b600060c0820190506167be6000830189615427565b6167cb60208301886158e8565b6167d86040830187615427565b6167e56060830186615418565b6167f26080830185615427565b6167ff60a0830184615427565b979650505050505050565b7f4665652070657263656e74616765206578636565647320313030250000000000600082015250565b6000616840601b836157ff565b915061684b8261680a565b602082019050919050565b6000602082019050818103600083015261686f81616833565b9050919050565b6000616881826153ba565b915061688c836153ba565b92508263ffffffff038211156168a5576168a461633c565b5b828201905092915050565b60006168bb826153fc565b91506168c6836153fc565b9250816fffffffffffffffffffffffffffffffff04831182151516156168ef576168ee61633c565b5b828202905092915050565b6000616905826153fc565b9150616910836153fc565b9250826169205761691f6165c5565b5b828204905092915050565b600061693682615344565b915061694183615344565b9250828210156169545761695361633c565b5b82820390509291505056fea2646970667358221220f8deb58c3afed2e8dbf1dd80fb7e2f6eb4fe0f1b506f53f5e8037b33bf8b46ec64736f6c63430008080033",
  "linkReferences": {},
  "deployedLinkReferences": {}
}