{
  "_format": "hh-sol-artifact-1",
  "contractName": "ERC721Marketplace",
  "sourceName": "contracts/ERC721Marketplace.sol",
  "abi": [
    {
      "inputs": [],
      "stateMutability": "nonpayable",
      "type": "constructor"
    },
    {
      "anonymous": false,
      "inputs": [
        {
          "indexed": false,
          "internalType": "address",
          "name": "nftContractAddress",
          "type": "address"
        },
        {
          "indexed": false,
          "internalType": "uint256",
          "name": "tokenId",
          "type": "uint256"
        },
        {
          "indexed": false,
          "internalType": "uint64",
          "name": "auctionEndPeriod",
          "type": "uint64"
        }
      ],
      "name": "AuctionPeriodUpdated",
      "type": "event"
    },
    {
      "anonymous": false,
      "inputs": [
        {
          "indexed": false,
          "internalType": "address",
          "name": "nftContractAddress",
          "type": "address"
        },
        {
          "indexed": false,
          "internalType": "uint256",
          "name": "tokenId",
          "type": "uint256"
        },
        {
          "indexed": false,
          "internalType": "address",
          "name": "auctionSettler",
          "type": "address"
        }
      ],
      "name": "AuctionSettled",
      "type": "event"
    },
    {
      "anonymous": false,
      "inputs": [
        {
          "indexed": false,
          "internalType": "address",
          "name": "nftContractAddress",
          "type": "address"
        },
        {
          "indexed": false,
          "internalType": "uint256",
          "name": "tokenId",
          "type": "uint256"
        },
        {
          "indexed": false,
          "internalType": "address",
          "name": "nftOwner",
          "type": "address"
        }
      ],
      "name": "AuctionWithdrawn",
      "type": "event"
    },
    {
      "anonymous": false,
      "inputs": [
        {
          "indexed": false,
          "internalType": "address",
          "name": "nftContractAddress",
          "type": "address"
        },
        {
          "indexed": false,
          "internalType": "uint256",
          "name": "tokenId",
          "type": "uint256"
        },
        {
          "indexed": false,
          "internalType": "address",
          "name": "bidder",
          "type": "address"
        },
        {
          "indexed": false,
          "internalType": "uint256",
          "name": "ethAmount",
          "type": "uint256"
        }
      ],
      "name": "BidMade",
      "type": "event"
    },
    {
      "anonymous": false,
      "inputs": [
        {
          "indexed": false,
          "internalType": "address",
          "name": "nftContractAddress",
          "type": "address"
        },
        {
          "indexed": false,
          "internalType": "uint256",
          "name": "tokenId",
          "type": "uint256"
        },
        {
          "indexed": false,
          "internalType": "address",
          "name": "highestBidder",
          "type": "address"
        }
      ],
      "name": "BidWithdrawn",
      "type": "event"
    },
    {
      "anonymous": false,
      "inputs": [
        {
          "indexed": false,
          "internalType": "address",
          "name": "nftContractAddress",
          "type": "address"
        },
        {
          "indexed": false,
          "internalType": "uint256",
          "name": "tokenId",
          "type": "uint256"
        },
        {
          "indexed": false,
          "internalType": "uint128",
          "name": "newBuyNowPrice",
          "type": "uint128"
        }
      ],
      "name": "BuyNowPriceUpdated",
      "type": "event"
    },
    {
      "anonymous": false,
      "inputs": [
        {
          "indexed": false,
          "internalType": "address",
          "name": "nftContractAddress",
          "type": "address"
        },
        {
          "indexed": false,
          "internalType": "uint256",
          "name": "tokenId",
          "type": "uint256"
        }
      ],
      "name": "HighestBidTaken",
      "type": "event"
    },
    {
      "anonymous": false,
      "inputs": [
        {
          "indexed": false,
          "internalType": "address",
          "name": "nftContractAddress",
          "type": "address"
        },
        {
          "indexed": false,
          "internalType": "uint256",
          "name": "tokenId",
          "type": "uint256"
        },
        {
          "indexed": false,
          "internalType": "uint256",
          "name": "newMinPrice",
          "type": "uint256"
        }
      ],
      "name": "MinimumPriceUpdated",
      "type": "event"
    },
    {
      "anonymous": false,
      "inputs": [
        {
          "indexed": false,
          "internalType": "address",
          "name": "nftContractAddress",
          "type": "address"
        },
        {
          "indexed": false,
          "internalType": "uint256",
          "name": "tokenId",
          "type": "uint256"
        },
        {
          "indexed": false,
          "internalType": "address",
          "name": "nftSeller",
          "type": "address"
        },
        {
          "indexed": false,
          "internalType": "uint128",
          "name": "nftHighestBid",
          "type": "uint128"
        },
        {
          "indexed": false,
          "internalType": "address",
          "name": "nftHighestBidder",
          "type": "address"
        },
        {
          "indexed": false,
          "internalType": "address",
          "name": "nftRecipient",
          "type": "address"
        }
      ],
      "name": "NFTTransferredAndSellerPaid",
      "type": "event"
    },
    {
      "anonymous": false,
      "inputs": [
        {
          "indexed": false,
          "internalType": "address",
          "name": "nftContractAddress",
          "type": "address"
        },
        {
          "indexed": false,
          "internalType": "uint256",
          "name": "tokenId",
          "type": "uint256"
        },
        {
          "indexed": false,
          "internalType": "address",
          "name": "nftSeller",
          "type": "address"
        },
        {
          "indexed": false,
          "internalType": "uint128",
          "name": "minPrice",
          "type": "uint128"
        },
        {
          "indexed": false,
          "internalType": "uint128",
          "name": "buyNowPrice",
          "type": "uint128"
        },
        {
          "indexed": false,
          "internalType": "uint32",
          "name": "auctionBidPeriod",
          "type": "uint32"
        },
        {
          "indexed": false,
          "internalType": "uint32",
          "name": "bidIncreasePercentage",
          "type": "uint32"
        },
        {
          "indexed": false,
          "internalType": "address",
          "name": "feeRecipient",
          "type": "address"
        },
        {
          "indexed": false,
          "internalType": "uint32",
          "name": "feePercentage",
          "type": "uint32"
        }
      ],
      "name": "NftAuctionCreated",
      "type": "event"
    },
    {
      "anonymous": false,
      "inputs": [
        {
          "indexed": true,
          "internalType": "address",
          "name": "previousOwner",
          "type": "address"
        },
        {
          "indexed": true,
          "internalType": "address",
          "name": "newOwner",
          "type": "address"
        }
      ],
      "name": "OwnershipTransferred",
      "type": "event"
    },
    {
      "anonymous": false,
      "inputs": [
        {
          "indexed": false,
          "internalType": "address",
          "name": "nftContractAddress",
          "type": "address"
        },
        {
          "indexed": false,
          "internalType": "uint256",
          "name": "tokenId",
          "type": "uint256"
        },
        {
          "indexed": false,
          "internalType": "address",
          "name": "nftSeller",
          "type": "address"
        },
        {
          "indexed": false,
          "internalType": "uint128",
          "name": "buyNowPrice",
          "type": "uint128"
        },
        {
          "indexed": false,
          "internalType": "address",
          "name": "whitelistedBuyer",
          "type": "address"
        },
        {
          "indexed": false,
          "internalType": "address",
          "name": "feeRecipient",
          "type": "address"
        },
        {
          "indexed": false,
          "internalType": "uint32",
          "name": "feePercentage",
          "type": "uint32"
        }
      ],
      "name": "SaleCreated",
      "type": "event"
    },
    {
      "anonymous": false,
      "inputs": [
        {
          "indexed": false,
          "internalType": "address",
          "name": "nftContractAddress",
          "type": "address"
        },
        {
          "indexed": false,
          "internalType": "uint256",
          "name": "tokenId",
          "type": "uint256"
        },
        {
          "indexed": false,
          "internalType": "address",
          "name": "newWhitelistedBuyer",
          "type": "address"
        }
      ],
      "name": "WhitelistedBuyerUpdated",
      "type": "event"
    },
    {
      "inputs": [
        {
          "internalType": "address",
          "name": "_nftContractAddress",
          "type": "address"
        },
        {
          "internalType": "uint256",
          "name": "_tokenId",
          "type": "uint256"
        },
        {
          "internalType": "uint128",
          "name": "_minPrice",
          "type": "uint128"
        },
        {
          "internalType": "uint128",
          "name": "_buyNowPrice",
          "type": "uint128"
        },
        {
          "internalType": "uint32",
          "name": "_auctionBidPeriod",
          "type": "uint32"
        },
        {
          "internalType": "uint32",
          "name": "_bidIncreasePercentage",
          "type": "uint32"
        }
      ],
      "name": "createNewNftAuction",
      "outputs": [],
      "stateMutability": "nonpayable",
      "type": "function"
    },
    {
      "inputs": [
        {
          "internalType": "address",
          "name": "_nftContractAddress",
          "type": "address"
        },
        {
          "internalType": "uint256",
          "name": "_tokenId",
          "type": "uint256"
        },
        {
          "internalType": "uint128",
          "name": "_buyNowPrice",
          "type": "uint128"
        },
        {
          "internalType": "address",
          "name": "_whitelistedBuyer",
          "type": "address"
        }
      ],
      "name": "createSale",
      "outputs": [],
      "stateMutability": "nonpayable",
      "type": "function"
    },
    {
      "inputs": [],
      "name": "defaultAuctionBidPeriod",
      "outputs": [
        {
          "internalType": "uint32",
          "name": "",
          "type": "uint32"
        }
      ],
      "stateMutability": "view",
      "type": "function"
    },
    {
      "inputs": [],
      "name": "defaultBidIncreasePercentage",
      "outputs": [
        {
          "internalType": "uint32",
          "name": "",
          "type": "uint32"
        }
      ],
      "stateMutability": "view",
      "type": "function"
    },
    {
      "inputs": [],
      "name": "defaultFeeCollector",
      "outputs": [
        {
          "internalType": "address",
          "name": "",
          "type": "address"
        }
      ],
      "stateMutability": "view",
      "type": "function"
    },
    {
      "inputs": [],
      "name": "defaultFeePercentage",
      "outputs": [
        {
          "internalType": "uint32",
          "name": "",
          "type": "uint32"
        }
      ],
      "stateMutability": "view",
      "type": "function"
    },
    {
      "inputs": [
        {
          "internalType": "address",
          "name": "_nftContractAddress",
          "type": "address"
        },
        {
          "internalType": "uint256",
          "name": "_tokenId",
          "type": "uint256"
        }
      ],
      "name": "makeBid",
      "outputs": [],
      "stateMutability": "payable",
      "type": "function"
    },
    {
      "inputs": [
        {
          "internalType": "address",
          "name": "_nftContractAddress",
          "type": "address"
        },
        {
          "internalType": "uint256",
          "name": "_tokenId",
          "type": "uint256"
        },
        {
          "internalType": "address",
          "name": "_nftRecipient",
          "type": "address"
        }
      ],
      "name": "makeCustomBid",
      "outputs": [],
      "stateMutability": "payable",
      "type": "function"
    },
    {
      "inputs": [],
      "name": "maximumMinPricePercentage",
      "outputs": [
        {
          "internalType": "uint32",
          "name": "",
          "type": "uint32"
        }
      ],
      "stateMutability": "view",
      "type": "function"
    },
    {
      "inputs": [],
      "name": "minimumSettableIncreasePercentage",
      "outputs": [
        {
          "internalType": "uint32",
          "name": "",
          "type": "uint32"
        }
      ],
      "stateMutability": "view",
      "type": "function"
    },
    {
      "inputs": [
        {
          "internalType": "address",
          "name": "",
          "type": "address"
        },
        {
          "internalType": "uint256",
          "name": "",
          "type": "uint256"
        }
      ],
      "name": "nftContractAuctions",
      "outputs": [
        {
          "internalType": "uint32",
          "name": "bidIncreasePercentage",
          "type": "uint32"
        },
        {
          "internalType": "uint32",
          "name": "auctionBidPeriod",
          "type": "uint32"
        },
        {
          "internalType": "uint64",
          "name": "auctionEnd",
          "type": "uint64"
        },
        {
          "internalType": "uint128",
          "name": "minPrice",
          "type": "uint128"
        },
        {
          "internalType": "uint128",
          "name": "buyNowPrice",
          "type": "uint128"
        },
        {
          "internalType": "uint128",
          "name": "nftHighestBid",
          "type": "uint128"
        },
        {
          "internalType": "address",
          "name": "nftHighestBidder",
          "type": "address"
        },
        {
          "internalType": "address",
          "name": "nftSeller",
          "type": "address"
        },
        {
          "internalType": "address",
          "name": "whitelistedBuyer",
          "type": "address"
        },
        {
          "internalType": "address",
          "name": "nftRecipient",
          "type": "address"
        },
        {
          "internalType": "address",
          "name": "feeRecipient",
          "type": "address"
        },
        {
          "internalType": "uint32",
          "name": "feePercentage",
          "type": "uint32"
        }
      ],
      "stateMutability": "view",
      "type": "function"
    },
    {
      "inputs": [],
      "name": "owner",
      "outputs": [
        {
          "internalType": "address",
          "name": "",
          "type": "address"
        }
      ],
      "stateMutability": "view",
      "type": "function"
    },
    {
      "inputs": [
        {
          "internalType": "address",
          "name": "_nftContractAddress",
          "type": "address"
        },
        {
          "internalType": "uint256",
          "name": "_tokenId",
          "type": "uint256"
        }
      ],
      "name": "ownerOfNFT",
      "outputs": [
        {
          "internalType": "address",
          "name": "",
          "type": "address"
        }
      ],
      "stateMutability": "view",
      "type": "function"
    },
    {
      "inputs": [],
      "name": "renounceOwnership",
      "outputs": [],
      "stateMutability": "nonpayable",
      "type": "function"
    },
    {
      "inputs": [
        {
          "internalType": "address",
          "name": "_feeCollector",
          "type": "address"
        }
      ],
      "name": "setDefaultFeeCollector",
      "outputs": [],
      "stateMutability": "nonpayable",
      "type": "function"
    },
    {
      "inputs": [
        {
          "internalType": "uint32",
          "name": "_feePercentage",
          "type": "uint32"
        }
      ],
      "name": "setDefaultFeePercentage",
      "outputs": [],
      "stateMutability": "nonpayable",
      "type": "function"
    },
    {
      "inputs": [
        {
          "internalType": "address",
          "name": "_nftContractAddress",
          "type": "address"
        },
        {
          "internalType": "uint256",
          "name": "_tokenId",
          "type": "uint256"
        }
      ],
      "name": "settleAuction",
      "outputs": [],
      "stateMutability": "nonpayable",
      "type": "function"
    },
    {
      "inputs": [
        {
          "internalType": "address",
          "name": "_nftContractAddress",
          "type": "address"
        },
        {
          "internalType": "uint256",
          "name": "_tokenId",
          "type": "uint256"
        }
      ],
      "name": "takeHighestBid",
      "outputs": [],
      "stateMutability": "nonpayable",
      "type": "function"
    },
    {
      "inputs": [
        {
          "internalType": "address",
          "name": "newOwner",
          "type": "address"
        }
      ],
      "name": "transferOwnership",
      "outputs": [],
      "stateMutability": "nonpayable",
      "type": "function"
    },
    {
      "inputs": [
        {
          "internalType": "address",
          "name": "_nftContractAddress",
          "type": "address"
        },
        {
          "internalType": "uint256",
          "name": "_tokenId",
          "type": "uint256"
        },
        {
          "internalType": "uint128",
          "name": "_newBuyNowPrice",
          "type": "uint128"
        }
      ],
      "name": "updateBuyNowPrice",
      "outputs": [],
      "stateMutability": "nonpayable",
      "type": "function"
    },
    {
      "inputs": [
        {
          "internalType": "address",
          "name": "_nftContractAddress",
          "type": "address"
        },
        {
          "internalType": "uint256",
          "name": "_tokenId",
          "type": "uint256"
        },
        {
          "internalType": "uint128",
          "name": "_newMinPrice",
          "type": "uint128"
        }
      ],
      "name": "updateMinimumPrice",
      "outputs": [],
      "stateMutability": "nonpayable",
      "type": "function"
    },
    {
      "inputs": [
        {
          "internalType": "address",
          "name": "_nftContractAddress",
          "type": "address"
        },
        {
          "internalType": "uint256",
          "name": "_tokenId",
          "type": "uint256"
        },
        {
          "internalType": "address",
          "name": "_newWhitelistedBuyer",
          "type": "address"
        }
      ],
      "name": "updateWhitelistedBuyer",
      "outputs": [],
      "stateMutability": "nonpayable",
      "type": "function"
    },
    {
      "inputs": [],
      "name": "withdrawAllFailedCredits",
      "outputs": [],
      "stateMutability": "nonpayable",
      "type": "function"
    },
    {
      "inputs": [
        {
          "internalType": "address",
          "name": "_nftContractAddress",
          "type": "address"
        },
        {
          "internalType": "uint256",
          "name": "_tokenId",
          "type": "uint256"
        }
      ],
      "name": "withdrawAuction",
      "outputs": [],
      "stateMutability": "nonpayable",
      "type": "function"
    },
    {
      "inputs": [
        {
          "internalType": "address",
          "name": "_nftContractAddress",
          "type": "address"
        },
        {
          "internalType": "uint256",
          "name": "_tokenId",
          "type": "uint256"
        }
      ],
      "name": "withdrawBid",
      "outputs": [],
      "stateMutability": "nonpayable",
      "type": "function"
    }
  ],
  "bytecode": "0x60806040523480156200001157600080fd5b5062000032620000266200012660201b60201c565b6200012e60201b60201c565b6064600360006101000a81548163ffffffff021916908363ffffffff160217905550620151806003600c6101000a81548163ffffffff021916908363ffffffff1602179055506064600360046101000a81548163ffffffff021916908363ffffffff160217905550611f40600360086101000a81548163ffffffff021916908363ffffffff16021790555060c8600360106101000a81548163ffffffff021916908363ffffffff16021790555033600460006101000a81548173ffffffffffffffffffffffffffffffffffffffff021916908373ffffffffffffffffffffffffffffffffffffffff160217905550620001f2565b600033905090565b60008060009054906101000a900473ffffffffffffffffffffffffffffffffffffffff169050816000806101000a81548173ffffffffffffffffffffffffffffffffffffffff021916908373ffffffffffffffffffffffffffffffffffffffff1602179055508173ffffffffffffffffffffffffffffffffffffffff168173ffffffffffffffffffffffffffffffffffffffff167f8be0079c531659141344cd1fd0a4f28419497f9722a3daafe3b4186f6b6457e060405160405180910390a35050565b6165ce80620002026000396000f3fe6080604052600436106101965760003560e01c806375926137116100e1578063b6ad69141161008a578063cd4eda1c11610064578063cd4eda1c146104f9578063ebea602514610524578063f2fde38b1461054d578063f7f829a41461057657610196565b8063b6ad69141461049d578063bc24555a146104b4578063ccceb7cd146104d057610196565b806397759efc116100bb57806397759efc1461041e5780639c0b996614610447578063b48240341461047257610196565b8063759261371461039f578063848e5c77146103ca5780638da5cb5b146103f357610196565b80632f9c9576116101435780635138b08c1161011d5780635138b08c14610336578063715018a61461035f57806371c968eb1461037657610196565b80632f9c9576146102b95780633d87d5fb146102e25780634cb8ef5b1461030d57610196565b8063186779d511610174578063186779d51461022857806320950fc61461025357806328981aef1461029057610196565b8063041fa0b81461019b578063076b73ac146101e3578063128a48dd1461020c575b600080fd5b3480156101a757600080fd5b506101c260048036038101906101bd9190615040565b61059f565b6040516101da9c9b9a999897969594939291906150fc565b60405180910390f35b3480156101ef57600080fd5b5061020a600480360381019061020591906151b6565b610744565b005b610226600480360381019061022191906151b6565b610aac565b005b34801561023457600080fd5b5061023d610d03565b60405161024a9190615209565b60405180910390f35b34801561025f57600080fd5b5061027a60048036038101906102759190615040565b610d19565b6040516102879190615224565b60405180910390f35b34801561029c57600080fd5b506102b760048036038101906102b29190615297565b610e0c565b005b3480156102c557600080fd5b506102e060048036038101906102db9190615324565b611273565b005b3480156102ee57600080fd5b506102f7611651565b6040516103049190615209565b60405180910390f35b34801561031957600080fd5b50610334600480360381019061032f9190615040565b611667565b005b34801561034257600080fd5b5061035d60048036038101906103589190615040565b611876565b005b34801561036b57600080fd5b5061037461190d565b005b34801561038257600080fd5b5061039d60048036038101906103989190615377565b611995565b005b3480156103ab57600080fd5b506103b4611d7d565b6040516103c19190615224565b60405180910390f35b3480156103d657600080fd5b506103f160048036038101906103ec9190615040565b611da3565b005b3480156103ff57600080fd5b50610408611f22565b6040516104159190615224565b60405180910390f35b34801561042a57600080fd5b50610445600480360381019061044091906153de565b611f4b565b005b34801561045357600080fd5b5061045c611feb565b6040516104699190615209565b60405180910390f35b34801561047e57600080fd5b50610487612001565b6040516104949190615209565b60405180910390f35b3480156104a957600080fd5b506104b2612017565b005b6104ce60048036038101906104c99190615040565b612199565b005b3480156104dc57600080fd5b506104f760048036038101906104f2919061540b565b6122eb565b005b34801561050557600080fd5b5061050e6123ab565b60405161051b9190615209565b60405180910390f35b34801561053057600080fd5b5061054b60048036038101906105469190615040565b6123c1565b005b34801561055957600080fd5b50610574600480360381019061056f919061540b565b6124f1565b005b34801561058257600080fd5b5061059d60048036038101906105989190615324565b6125e9565b005b6001602052816000526040600020602052806000526040600020600091509150508060000160009054906101000a900463ffffffff16908060000160049054906101000a900463ffffffff16908060000160089054906101000a900467ffffffffffffffff16908060000160109054906101000a90046fffffffffffffffffffffffffffffffff16908060010160009054906101000a90046fffffffffffffffffffffffffffffffff16908060010160109054906101000a90046fffffffffffffffffffffffffffffffff16908060020160009054906101000a900473ffffffffffffffffffffffffffffffffffffffff16908060030160009054906101000a900473ffffffffffffffffffffffffffffffffffffffff16908060040160009054906101000a900473ffffffffffffffffffffffffffffffffffffffff16908060050160009054906101000a900473ffffffffffffffffffffffffffffffffffffffff16908060060160009054906101000a900473ffffffffffffffffffffffffffffffffffffffff16908060060160149054906101000a900463ffffffff1690508c565b8282600160008373ffffffffffffffffffffffffffffffffffffffff1673ffffffffffffffffffffffffffffffffffffffff168152602001908152602001600020600082815260200190815260200160002060030160009054906101000a900473ffffffffffffffffffffffffffffffffffffffff1673ffffffffffffffffffffffffffffffffffffffff163373ffffffffffffffffffffffffffffffffffffffff1614610827576040517f08c379a000000000000000000000000000000000000000000000000000000000815260040161081e90615495565b60405180910390fd5b610831858561292b565b610870576040517f08c379a000000000000000000000000000000000000000000000000000000000815260040161086790615501565b60405180910390fd5b82600160008773ffffffffffffffffffffffffffffffffffffffff1673ffffffffffffffffffffffffffffffffffffffff168152602001908152602001600020600086815260200190815260200160002060040160006101000a81548173ffffffffffffffffffffffffffffffffffffffff021916908373ffffffffffffffffffffffffffffffffffffffff1602179055506000600160008773ffffffffffffffffffffffffffffffffffffffff1673ffffffffffffffffffffffffffffffffffffffff168152602001908152602001600020600086815260200190815260200160002060020160009054906101000a900473ffffffffffffffffffffffffffffffffffffffff1690506000600160008873ffffffffffffffffffffffffffffffffffffffff1673ffffffffffffffffffffffffffffffffffffffff168152602001908152602001600020600087815260200190815260200160002060010160109054906101000a90046fffffffffffffffffffffffffffffffff1690506000816fffffffffffffffffffffffffffffffff16118015610a3c57508473ffffffffffffffffffffffffffffffffffffffff168273ffffffffffffffffffffffffffffffffffffffff1614155b15610a6857610a4b8787612a46565b610a6782826fffffffffffffffffffffffffffffffff16612bfb565b5b7f7502912f483c1fb3f89bf8664bea10db517c2093040d379e78e169e067523646878787604051610a9b93929190615530565b60405180910390a150505050505050565b8282610ab88282612d00565b610af7576040517f08c379a0000000000000000000000000000000000000000000000000000000008152600401610aee906155b3565b60405180910390fd5b82600073ffffffffffffffffffffffffffffffffffffffff168173ffffffffffffffffffffffffffffffffffffffff161415610b68576040517f08c379a0000000000000000000000000000000000000000000000000000000008152600401610b5f9061561f565b60405180910390fd5b8585610b748282612d98565b1580610c1e57503373ffffffffffffffffffffffffffffffffffffffff16600160008473ffffffffffffffffffffffffffffffffffffffff1673ffffffffffffffffffffffffffffffffffffffff168152602001908152602001600020600083815260200190815260200160002060040160009054906101000a900473ffffffffffffffffffffffffffffffffffffffff1673ffffffffffffffffffffffffffffffffffffffff16145b610c5d576040517f08c379a0000000000000000000000000000000000000000000000000000000008152600401610c549061568b565b60405180910390fd5b85600160008a73ffffffffffffffffffffffffffffffffffffffff1673ffffffffffffffffffffffffffffffffffffffff168152602001908152602001600020600089815260200190815260200160002060050160006101000a81548173ffffffffffffffffffffffffffffffffffffffff021916908373ffffffffffffffffffffffffffffffffffffffff160217905550610cf98888612e45565b5050505050505050565b6003600c9054906101000a900463ffffffff1681565b600080600160008573ffffffffffffffffffffffffffffffffffffffff1673ffffffffffffffffffffffffffffffffffffffff168152602001908152602001600020600084815260200190815260200160002060030160009054906101000a900473ffffffffffffffffffffffffffffffffffffffff169050600073ffffffffffffffffffffffffffffffffffffffff168173ffffffffffffffffffffffffffffffffffffffff161415610e02576040517f08c379a0000000000000000000000000000000000000000000000000000000008152600401610df9906156f7565b60405180910390fd5b8091505092915050565b85853373ffffffffffffffffffffffffffffffffffffffff16600160008473ffffffffffffffffffffffffffffffffffffffff1673ffffffffffffffffffffffffffffffffffffffff168152602001908152602001600020600083815260200190815260200160002060030160009054906101000a900473ffffffffffffffffffffffffffffffffffffffff1673ffffffffffffffffffffffffffffffffffffffff161415610ef0576040517f08c379a0000000000000000000000000000000000000000000000000000000008152600401610ee790615763565b60405180910390fd5b600073ffffffffffffffffffffffffffffffffffffffff16600160008473ffffffffffffffffffffffffffffffffffffffff1673ffffffffffffffffffffffffffffffffffffffff168152602001908152602001600020600083815260200190815260200160002060030160009054906101000a900473ffffffffffffffffffffffffffffffffffffffff1673ffffffffffffffffffffffffffffffffffffffff1614611089578173ffffffffffffffffffffffffffffffffffffffff16636352211e826040518263ffffffff1660e01b8152600401610fd09190615783565b602060405180830381865afa158015610fed573d6000803e3d6000fd5b505050506040513d601f19601f8201168201806040525081019061101191906157b3565b73ffffffffffffffffffffffffffffffffffffffff163373ffffffffffffffffffffffffffffffffffffffff161461107e576040517f08c379a00000000000000000000000000000000000000000000000000000000081526004016110759061582c565b60405180910390fd5b6110888282612fdb565b5b856fffffffffffffffffffffffffffffffff16600081116110df576040517f08c379a00000000000000000000000000000000000000000000000000000000081526004016110d690615898565b60405180910390fd5b83600360049054906101000a900463ffffffff1663ffffffff168163ffffffff161015611141576040517f08c379a000000000000000000000000000000000000000000000000000000000815260040161113890615904565b60405180910390fd5b85600160008c73ffffffffffffffffffffffffffffffffffffffff1673ffffffffffffffffffffffffffffffffffffffff16815260200190815260200160002060008b815260200190815260200160002060000160046101000a81548163ffffffff021916908363ffffffff16021790555084600160008c73ffffffffffffffffffffffffffffffffffffffff1673ffffffffffffffffffffffffffffffffffffffff16815260200190815260200160002060008b815260200190815260200160002060000160006101000a81548163ffffffff021916908363ffffffff1602179055506112678a8a8a8a600460009054906101000a900473ffffffffffffffffffffffffffffffffffffffff16600360109054906101000a900463ffffffff1661337c565b50505050505050505050565b8282600160008373ffffffffffffffffffffffffffffffffffffffff1673ffffffffffffffffffffffffffffffffffffffff168152602001908152602001600020600082815260200190815260200160002060030160009054906101000a900473ffffffffffffffffffffffffffffffffffffffff1673ffffffffffffffffffffffffffffffffffffffff163373ffffffffffffffffffffffffffffffffffffffff1614611356576040517f08c379a000000000000000000000000000000000000000000000000000000000815260040161134d90615495565b60405180910390fd5b848461136282826133f5565b156113a2576040517f08c379a000000000000000000000000000000000000000000000000000000000815260040161139990615970565b60405180910390fd5b86866113ae828261292b565b156113ee576040517f08c379a00000000000000000000000000000000000000000000000000000000081526004016113e5906159dc565b60405180910390fd5b866fffffffffffffffffffffffffffffffff1660008111611444576040517f08c379a000000000000000000000000000000000000000000000000000000000815260040161143b90615898565b60405180910390fd5b600160008b73ffffffffffffffffffffffffffffffffffffffff1673ffffffffffffffffffffffffffffffffffffffff16815260200190815260200160002060008a815260200190815260200160002060010160009054906101000a90046fffffffffffffffffffffffffffffffff16886000826fffffffffffffffffffffffffffffffff16148061151b5750806fffffffffffffffffffffffffffffffff16611518836fffffffffffffffffffffffffffffffff16600360089054906101000a900463ffffffff1663ffffffff16613528565b10155b61155a576040517f08c379a000000000000000000000000000000000000000000000000000000000815260040161155190615a48565b60405180910390fd5b89600160008e73ffffffffffffffffffffffffffffffffffffffff1673ffffffffffffffffffffffffffffffffffffffff16815260200190815260200160002060008d815260200190815260200160002060000160106101000a8154816fffffffffffffffffffffffffffffffff02191690836fffffffffffffffffffffffffffffffff1602179055507fdcf27af4c564afa0c536dd1fa48e5fef0d9833378a1bddacc95922b902ebfc328c8c8c60405161161793929190615aa3565b60405180910390a16116298c8c6133f5565b15611643576116388c8c61354b565b6116428c8c6138b8565b5b505050505050505050505050565b600360049054906101000a900463ffffffff1681565b818161167382826133f5565b156116b3576040517f08c379a00000000000000000000000000000000000000000000000000000000081526004016116aa90615970565b60405180910390fd5b6000600160008673ffffffffffffffffffffffffffffffffffffffff1673ffffffffffffffffffffffffffffffffffffffff168152602001908152602001600020600085815260200190815260200160002060020160009054906101000a900473ffffffffffffffffffffffffffffffffffffffff1690508073ffffffffffffffffffffffffffffffffffffffff163373ffffffffffffffffffffffffffffffffffffffff1614611799576040517f08c379a000000000000000000000000000000000000000000000000000000000815260040161179090615b26565b60405180910390fd5b6000600160008773ffffffffffffffffffffffffffffffffffffffff1673ffffffffffffffffffffffffffffffffffffffff168152602001908152602001600020600086815260200190815260200160002060010160109054906101000a90046fffffffffffffffffffffffffffffffff1690506118178686612a46565b61183382826fffffffffffffffffffffffffffffffff16612bfb565b7f10d9bddf66f639dd3c5a6ad2db5ae3102c2b468dfb90a4b0da219435f24a970d86863360405161186693929190615530565b60405180910390a1505050505050565b81816118828282612d00565b156118c2576040517f08c379a00000000000000000000000000000000000000000000000000000000081526004016118b990615b92565b60405180910390fd5b6118cc84846139f2565b7fe6b94748c5d6e0d188a0fcb9b7f2973b01fc0095627f1ec5accdcd9d2e65ca368484336040516118ff93929190615530565b60405180910390a150505050565b611915613c4e565b73ffffffffffffffffffffffffffffffffffffffff16611933611f22565b73ffffffffffffffffffffffffffffffffffffffff1614611989576040517f08c379a000000000000000000000000000000000000000000000000000000000815260040161198090615bfe565b60405180910390fd5b6119936000613c56565b565b83833373ffffffffffffffffffffffffffffffffffffffff16600160008473ffffffffffffffffffffffffffffffffffffffff1673ffffffffffffffffffffffffffffffffffffffff168152602001908152602001600020600083815260200190815260200160002060030160009054906101000a900473ffffffffffffffffffffffffffffffffffffffff1673ffffffffffffffffffffffffffffffffffffffff161415611a79576040517f08c379a0000000000000000000000000000000000000000000000000000000008152600401611a7090615763565b60405180910390fd5b600073ffffffffffffffffffffffffffffffffffffffff16600160008473ffffffffffffffffffffffffffffffffffffffff1673ffffffffffffffffffffffffffffffffffffffff168152602001908152602001600020600083815260200190815260200160002060030160009054906101000a900473ffffffffffffffffffffffffffffffffffffffff1673ffffffffffffffffffffffffffffffffffffffff1614611c12578173ffffffffffffffffffffffffffffffffffffffff16636352211e826040518263ffffffff1660e01b8152600401611b599190615783565b602060405180830381865afa158015611b76573d6000803e3d6000fd5b505050506040513d601f19601f82011682018060405250810190611b9a91906157b3565b73ffffffffffffffffffffffffffffffffffffffff163373ffffffffffffffffffffffffffffffffffffffff1614611c07576040517f08c379a0000000000000000000000000000000000000000000000000000000008152600401611bfe9061582c565b60405180910390fd5b611c118282612fdb565b5b836fffffffffffffffffffffffffffffffff1660008111611c68576040517f08c379a0000000000000000000000000000000000000000000000000000000008152600401611c5f90615898565b60405180910390fd5b611caa87878787600460009054906101000a900473ffffffffffffffffffffffffffffffffffffffff16600360109054906101000a900463ffffffff16613d1a565b7fd3da7e9fc506387bc87dcee4cdc7543594b0c757550e917422bc9537eb8d5f5e8787338888600460009054906101000a900473ffffffffffffffffffffffffffffffffffffffff16600360109054906101000a900463ffffffff16604051611d199796959493929190615c1e565b60405180910390a1611d2b8787614021565b15611d7457611d3a87876140af565b15611d6857611d4987876140d5565b15611d6357611d58878761354b565b611d6287876139f2565b5b611d73565b611d728787614208565b5b5b50505050505050565b600460009054906101000a900473ffffffffffffffffffffffffffffffffffffffff1681565b8181600160008373ffffffffffffffffffffffffffffffffffffffff1673ffffffffffffffffffffffffffffffffffffffff168152602001908152602001600020600082815260200190815260200160002060030160009054906101000a900473ffffffffffffffffffffffffffffffffffffffff1673ffffffffffffffffffffffffffffffffffffffff163373ffffffffffffffffffffffffffffffffffffffff1614611e86576040517f08c379a0000000000000000000000000000000000000000000000000000000008152600401611e7d90615495565b60405180910390fd5b611e908484614021565b611ecf576040517f08c379a0000000000000000000000000000000000000000000000000000000008152600401611ec690615cd9565b60405180910390fd5b611ed9848461354b565b611ee384846139f2565b7f711f4eae05533b90c24ff0ae762d6e9e1ef1b2c85d4c484a2913c5201bcbb7c98484604051611f14929190615cf9565b60405180910390a150505050565b60008060009054906101000a900473ffffffffffffffffffffffffffffffffffffffff16905090565b611f53613c4e565b73ffffffffffffffffffffffffffffffffffffffff16611f71611f22565b73ffffffffffffffffffffffffffffffffffffffff1614611fc7576040517f08c379a0000000000000000000000000000000000000000000000000000000008152600401611fbe90615bfe565b60405180910390fd5b80600360106101000a81548163ffffffff021916908363ffffffff16021790555050565b600360009054906101000a900463ffffffff1681565b600360109054906101000a900463ffffffff1681565b6000600260003373ffffffffffffffffffffffffffffffffffffffff1673ffffffffffffffffffffffffffffffffffffffff168152602001908152602001600020549050600081141561209f576040517f08c379a000000000000000000000000000000000000000000000000000000000815260040161209690615d6e565b60405180910390fd5b6000600260003373ffffffffffffffffffffffffffffffffffffffff1673ffffffffffffffffffffffffffffffffffffffff1681526020019081526020016000208190555060003373ffffffffffffffffffffffffffffffffffffffff1682614e209060405161210e90615dbf565b600060405180830381858888f193505050503d806000811461214c576040519150601f19603f3d011682016040523d82523d6000602084013e612151565b606091505b5050905080612195576040517f08c379a000000000000000000000000000000000000000000000000000000000815260040161218c90615e20565b60405180910390fd5b5050565b81816121a58282612d00565b6121e4576040517f08c379a00000000000000000000000000000000000000000000000000000000081526004016121db906155b3565b60405180910390fd5b83836121f08282612d98565b158061229a57503373ffffffffffffffffffffffffffffffffffffffff16600160008473ffffffffffffffffffffffffffffffffffffffff1673ffffffffffffffffffffffffffffffffffffffff168152602001908152602001600020600083815260200190815260200160002060040160009054906101000a900473ffffffffffffffffffffffffffffffffffffffff1673ffffffffffffffffffffffffffffffffffffffff16145b6122d9576040517f08c379a00000000000000000000000000000000000000000000000000000000081526004016122d09061568b565b60405180910390fd5b6122e38686612e45565b505050505050565b6122f3613c4e565b73ffffffffffffffffffffffffffffffffffffffff16612311611f22565b73ffffffffffffffffffffffffffffffffffffffff1614612367576040517f08c379a000000000000000000000000000000000000000000000000000000000815260040161235e90615bfe565b60405180910390fd5b80600460006101000a81548173ffffffffffffffffffffffffffffffffffffffff021916908373ffffffffffffffffffffffffffffffffffffffff16021790555050565b600360089054906101000a900463ffffffff1681565b3373ffffffffffffffffffffffffffffffffffffffff168273ffffffffffffffffffffffffffffffffffffffff16636352211e836040518263ffffffff1660e01b81526004016124119190615783565b602060405180830381865afa15801561242e573d6000803e3d6000fd5b505050506040513d601f19601f8201168201806040525081019061245291906157b3565b73ffffffffffffffffffffffffffffffffffffffff16146124a8576040517f08c379a000000000000000000000000000000000000000000000000000000000815260040161249f90615e8c565b60405180910390fd5b6124b28282612fdb565b7fec19f84af4aad6523d37faa19e243c77717842cca9bf492dc5379830cac958d08282336040516124e593929190615530565b60405180910390a15050565b6124f9613c4e565b73ffffffffffffffffffffffffffffffffffffffff16612517611f22565b73ffffffffffffffffffffffffffffffffffffffff161461256d576040517f08c379a000000000000000000000000000000000000000000000000000000000815260040161256490615bfe565b60405180910390fd5b600073ffffffffffffffffffffffffffffffffffffffff168173ffffffffffffffffffffffffffffffffffffffff1614156125dd576040517f08c379a00000000000000000000000000000000000000000000000000000000081526004016125d490615f1e565b60405180910390fd5b6125e681613c56565b50565b8282600160008373ffffffffffffffffffffffffffffffffffffffff1673ffffffffffffffffffffffffffffffffffffffff168152602001908152602001600020600082815260200190815260200160002060030160009054906101000a900473ffffffffffffffffffffffffffffffffffffffff1673ffffffffffffffffffffffffffffffffffffffff163373ffffffffffffffffffffffffffffffffffffffff16146126cc576040517f08c379a00000000000000000000000000000000000000000000000000000000081526004016126c390615495565b60405180910390fd5b826fffffffffffffffffffffffffffffffff1660008111612722576040517f08c379a000000000000000000000000000000000000000000000000000000000815260040161271990615898565b60405180910390fd5b83600160008873ffffffffffffffffffffffffffffffffffffffff1673ffffffffffffffffffffffffffffffffffffffff168152602001908152602001600020600087815260200190815260200160002060000160109054906101000a90046fffffffffffffffffffffffffffffffff166000826fffffffffffffffffffffffffffffffff1614806127f95750806fffffffffffffffffffffffffffffffff166127f6836fffffffffffffffffffffffffffffffff16600360089054906101000a900463ffffffff1663ffffffff16613528565b10155b612838576040517f08c379a000000000000000000000000000000000000000000000000000000000815260040161282f90615a48565b60405180910390fd5b85600160008a73ffffffffffffffffffffffffffffffffffffffff1673ffffffffffffffffffffffffffffffffffffffff168152602001908152602001600020600089815260200190815260200160002060010160006101000a8154816fffffffffffffffffffffffffffffffff02191690836fffffffffffffffffffffffffffffffff1602179055507fcc66420416a999e685e3938d2c6252ed709db214d0435f13da0b1e5339bcac768888886040516128f593929190615f3e565b60405180910390a161290788886140d5565b1561292157612916888861354b565b61292088886139f2565b5b5050505050505050565b600080600160008573ffffffffffffffffffffffffffffffffffffffff1673ffffffffffffffffffffffffffffffffffffffff168152602001908152602001600020600084815260200190815260200160002060010160009054906101000a90046fffffffffffffffffffffffffffffffff166fffffffffffffffffffffffffffffffff16118015612a3e57506000600160008573ffffffffffffffffffffffffffffffffffffffff1673ffffffffffffffffffffffffffffffffffffffff168152602001908152602001600020600084815260200190815260200160002060000160109054906101000a90046fffffffffffffffffffffffffffffffff166fffffffffffffffffffffffffffffffff16145b905092915050565b6000600160008473ffffffffffffffffffffffffffffffffffffffff1673ffffffffffffffffffffffffffffffffffffffff168152602001908152602001600020600083815260200190815260200160002060020160006101000a81548173ffffffffffffffffffffffffffffffffffffffff021916908373ffffffffffffffffffffffffffffffffffffffff1602179055506000600160008473ffffffffffffffffffffffffffffffffffffffff1673ffffffffffffffffffffffffffffffffffffffff168152602001908152602001600020600083815260200190815260200160002060010160106101000a8154816fffffffffffffffffffffffffffffffff02191690836fffffffffffffffffffffffffffffffff1602179055506000600160008473ffffffffffffffffffffffffffffffffffffffff1673ffffffffffffffffffffffffffffffffffffffff168152602001908152602001600020600083815260200190815260200160002060050160006101000a81548173ffffffffffffffffffffffffffffffffffffffff021916908373ffffffffffffffffffffffffffffffffffffffff1602179055505050565b60008273ffffffffffffffffffffffffffffffffffffffff1682604051612c2190615dbf565b60006040518083038185875af1925050503d8060008114612c5e576040519150601f19603f3d011682016040523d82523d6000602084013e612c63565b606091505b5050905080612cfb5781600260008573ffffffffffffffffffffffffffffffffffffffff1673ffffffffffffffffffffffffffffffffffffffff16815260200190815260200160002054612cb79190615fa4565b600260008573ffffffffffffffffffffffffffffffffffffffff1673ffffffffffffffffffffffffffffffffffffffff168152602001908152602001600020819055505b505050565b600080600160008573ffffffffffffffffffffffffffffffffffffffff1673ffffffffffffffffffffffffffffffffffffffff168152602001908152602001600020600084815260200190815260200160002060000160089054906101000a900467ffffffffffffffff16905060008167ffffffffffffffff161480612d8f57508067ffffffffffffffff1642105b91505092915050565b60008073ffffffffffffffffffffffffffffffffffffffff16600160008573ffffffffffffffffffffffffffffffffffffffff1673ffffffffffffffffffffffffffffffffffffffff168152602001908152602001600020600084815260200190815260200160002060040160009054906101000a900473ffffffffffffffffffffffffffffffffffffffff1673ffffffffffffffffffffffffffffffffffffffff161415905092915050565b8181600160008373ffffffffffffffffffffffffffffffffffffffff1673ffffffffffffffffffffffffffffffffffffffff168152602001908152602001600020600082815260200190815260200160002060030160009054906101000a900473ffffffffffffffffffffffffffffffffffffffff1673ffffffffffffffffffffffffffffffffffffffff163373ffffffffffffffffffffffffffffffffffffffff161415612f29576040517f08c379a0000000000000000000000000000000000000000000000000000000008152600401612f2090616046565b60405180910390fd5b6000341415612f3757600080fd5b8383612f438282614320565b612f82576040517f08c379a0000000000000000000000000000000000000000000000000000000008152600401612f79906160b2565b60405180910390fd5b612f8c86866144a1565b7fedaf6d9c1d6c948b723fe76f06024d095fe2026b77ed16e2ec4987432cddeec486863334604051612fc194939291906160d2565b60405180910390a1612fd386866145ee565b505050505050565b6000600160008473ffffffffffffffffffffffffffffffffffffffff1673ffffffffffffffffffffffffffffffffffffffff168152602001908152602001600020600083815260200190815260200160002060000160106101000a8154816fffffffffffffffffffffffffffffffff02191690836fffffffffffffffffffffffffffffffff1602179055506000600160008473ffffffffffffffffffffffffffffffffffffffff1673ffffffffffffffffffffffffffffffffffffffff168152602001908152602001600020600083815260200190815260200160002060010160006101000a8154816fffffffffffffffffffffffffffffffff02191690836fffffffffffffffffffffffffffffffff1602179055506000600160008473ffffffffffffffffffffffffffffffffffffffff1673ffffffffffffffffffffffffffffffffffffffff168152602001908152602001600020600083815260200190815260200160002060000160086101000a81548167ffffffffffffffff021916908367ffffffffffffffff1602179055506000600160008473ffffffffffffffffffffffffffffffffffffffff1673ffffffffffffffffffffffffffffffffffffffff168152602001908152602001600020600083815260200190815260200160002060000160046101000a81548163ffffffff021916908363ffffffff1602179055506000600160008473ffffffffffffffffffffffffffffffffffffffff1673ffffffffffffffffffffffffffffffffffffffff168152602001908152602001600020600083815260200190815260200160002060000160006101000a81548163ffffffff021916908363ffffffff1602179055506000600160008473ffffffffffffffffffffffffffffffffffffffff1673ffffffffffffffffffffffffffffffffffffffff168152602001908152602001600020600083815260200190815260200160002060030160006101000a81548173ffffffffffffffffffffffffffffffffffffffff021916908373ffffffffffffffffffffffffffffffffffffffff1602179055506000600160008473ffffffffffffffffffffffffffffffffffffffff1673ffffffffffffffffffffffffffffffffffffffff168152602001908152602001600020600083815260200190815260200160002060040160006101000a81548173ffffffffffffffffffffffffffffffffffffffff021916908373ffffffffffffffffffffffffffffffffffffffff1602179055505050565b61338a86868686868661463f565b7f4e345485ad40041b9a1d443dbac0515657a2699c30a4a7fa04ed681541bc38d386863387876133ba8c8c6149e7565b6133c48d8d614a85565b89896040516133db99989796959493929190616117565b60405180910390a16133ed86866145ee565b505050505050565b600080600160008573ffffffffffffffffffffffffffffffffffffffff1673ffffffffffffffffffffffffffffffffffffffff168152602001908152602001600020600084815260200190815260200160002060000160109054906101000a90046fffffffffffffffffffffffffffffffff1690506000816fffffffffffffffffffffffffffffffff1611801561351f5750806fffffffffffffffffffffffffffffffff16600160008673ffffffffffffffffffffffffffffffffffffffff1673ffffffffffffffffffffffffffffffffffffffff168152602001908152602001600020600085815260200190815260200160002060010160109054906101000a90046fffffffffffffffffffffffffffffffff166fffffffffffffffffffffffffffffffff1610155b91505092915050565b6000612710828461353991906161a4565b613543919061622d565b905092915050565b6000600160008473ffffffffffffffffffffffffffffffffffffffff1673ffffffffffffffffffffffffffffffffffffffff168152602001908152602001600020600083815260200190815260200160002060030160009054906101000a900473ffffffffffffffffffffffffffffffffffffffff1690508073ffffffffffffffffffffffffffffffffffffffff168373ffffffffffffffffffffffffffffffffffffffff16636352211e846040518263ffffffff1660e01b81526004016136139190615783565b602060405180830381865afa158015613630573d6000803e3d6000fd5b505050506040513d601f19601f8201168201806040525081019061365491906157b3565b73ffffffffffffffffffffffffffffffffffffffff1614156137cb578273ffffffffffffffffffffffffffffffffffffffff166323b872dd8230856040518463ffffffff1660e01b81526004016136ad9392919061625e565b600060405180830381600087803b1580156136c757600080fd5b505af11580156136db573d6000803e3d6000fd5b505050503073ffffffffffffffffffffffffffffffffffffffff168373ffffffffffffffffffffffffffffffffffffffff16636352211e846040518263ffffffff1660e01b815260040161372f9190615783565b602060405180830381865afa15801561374c573d6000803e3d6000fd5b505050506040513d601f19601f8201168201806040525081019061377091906157b3565b73ffffffffffffffffffffffffffffffffffffffff16146137c6576040517f08c379a00000000000000000000000000000000000000000000000000000000081526004016137bd906162e1565b60405180910390fd5b6138b3565b3073ffffffffffffffffffffffffffffffffffffffff168373ffffffffffffffffffffffffffffffffffffffff16636352211e846040518263ffffffff1660e01b815260040161381b9190615783565b602060405180830381865afa158015613838573d6000803e3d6000fd5b505050506040513d601f19601f8201168201806040525081019061385c91906157b3565b73ffffffffffffffffffffffffffffffffffffffff16146138b2576040517f08c379a00000000000000000000000000000000000000000000000000000000081526004016138a99061634d565b60405180910390fd5b5b505050565b426138c383836149e7565b63ffffffff166138d3919061636d565b600160008473ffffffffffffffffffffffffffffffffffffffff1673ffffffffffffffffffffffffffffffffffffffff168152602001908152602001600020600083815260200190815260200160002060000160086101000a81548167ffffffffffffffff021916908367ffffffffffffffff1602179055507fc1ce6cc1337b95ed3c849e00bffc0d93e89e5e80cc5d198db838140827ac75948282600160008673ffffffffffffffffffffffffffffffffffffffff1673ffffffffffffffffffffffffffffffffffffffff168152602001908152602001600020600085815260200190815260200160002060000160089054906101000a900467ffffffffffffffff166040516139e6939291906163ab565b60405180910390a15050565b6000600160008473ffffffffffffffffffffffffffffffffffffffff1673ffffffffffffffffffffffffffffffffffffffff168152602001908152602001600020600083815260200190815260200160002060030160009054906101000a900473ffffffffffffffffffffffffffffffffffffffff1690506000600160008573ffffffffffffffffffffffffffffffffffffffff1673ffffffffffffffffffffffffffffffffffffffff168152602001908152602001600020600084815260200190815260200160002060020160009054906101000a900473ffffffffffffffffffffffffffffffffffffffff1690506000613aee8585614b23565b90506000600160008773ffffffffffffffffffffffffffffffffffffffff1673ffffffffffffffffffffffffffffffffffffffff168152602001908152602001600020600086815260200190815260200160002060010160109054906101000a90046fffffffffffffffffffffffffffffffff169050613b6e8686612a46565b613b8c868686846fffffffffffffffffffffffffffffffff16614c58565b8573ffffffffffffffffffffffffffffffffffffffff166323b872dd3084886040518463ffffffff1660e01b8152600401613bc99392919061625e565b600060405180830381600087803b158015613be357600080fd5b505af1158015613bf7573d6000803e3d6000fd5b50505050613c058686612fdb565b7f8df77c988c9550e96e43a66277f716818a74ed2188cdacb49d790623e6f22571868686848787604051613c3e969594939291906163e2565b60405180910390a1505050505050565b600033905090565b60008060009054906101000a900473ffffffffffffffffffffffffffffffffffffffff169050816000806101000a81548173ffffffffffffffffffffffffffffffffffffffff021916908373ffffffffffffffffffffffffffffffffffffffff1602179055508173ffffffffffffffffffffffffffffffffffffffff168173ffffffffffffffffffffffffffffffffffffffff167f8be0079c531659141344cd1fd0a4f28419497f9722a3daafe3b4186f6b6457e060405160405180910390a35050565b806127108163ffffffff161115613d66576040517f08c379a0000000000000000000000000000000000000000000000000000000008152600401613d5d9061648f565b60405180910390fd5b82600160008973ffffffffffffffffffffffffffffffffffffffff1673ffffffffffffffffffffffffffffffffffffffff168152602001908152602001600020600088815260200190815260200160002060060160006101000a81548173ffffffffffffffffffffffffffffffffffffffff021916908373ffffffffffffffffffffffffffffffffffffffff16021790555081600160008973ffffffffffffffffffffffffffffffffffffffff1673ffffffffffffffffffffffffffffffffffffffff168152602001908152602001600020600088815260200190815260200160002060060160146101000a81548163ffffffff021916908363ffffffff16021790555084600160008973ffffffffffffffffffffffffffffffffffffffff1673ffffffffffffffffffffffffffffffffffffffff168152602001908152602001600020600088815260200190815260200160002060010160006101000a8154816fffffffffffffffffffffffffffffffff02191690836fffffffffffffffffffffffffffffffff16021790555083600160008973ffffffffffffffffffffffffffffffffffffffff1673ffffffffffffffffffffffffffffffffffffffff168152602001908152602001600020600088815260200190815260200160002060040160006101000a81548173ffffffffffffffffffffffffffffffffffffffff021916908373ffffffffffffffffffffffffffffffffffffffff16021790555033600160008973ffffffffffffffffffffffffffffffffffffffff1673ffffffffffffffffffffffffffffffffffffffff168152602001908152602001600020600088815260200190815260200160002060030160006101000a81548173ffffffffffffffffffffffffffffffffffffffff021916908373ffffffffffffffffffffffffffffffffffffffff16021790555050505050505050565b600080600160008573ffffffffffffffffffffffffffffffffffffffff1673ffffffffffffffffffffffffffffffffffffffff168152602001908152602001600020600084815260200190815260200160002060010160109054906101000a90046fffffffffffffffffffffffffffffffff166fffffffffffffffffffffffffffffffff1611905092915050565b60006140bb8383612d98565b15806140cd57506140cc8383614d68565b5b905092915050565b600080600160008573ffffffffffffffffffffffffffffffffffffffff1673ffffffffffffffffffffffffffffffffffffffff168152602001908152602001600020600084815260200190815260200160002060010160009054906101000a90046fffffffffffffffffffffffffffffffff1690506000816fffffffffffffffffffffffffffffffff161180156141ff5750806fffffffffffffffffffffffffffffffff16600160008673ffffffffffffffffffffffffffffffffffffffff1673ffffffffffffffffffffffffffffffffffffffff168152602001908152602001600020600085815260200190815260200160002060010160109054906101000a90046fffffffffffffffffffffffffffffffff166fffffffffffffffffffffffffffffffff1610155b91505092915050565b6000600160008473ffffffffffffffffffffffffffffffffffffffff1673ffffffffffffffffffffffffffffffffffffffff168152602001908152602001600020600083815260200190815260200160002060020160009054906101000a900473ffffffffffffffffffffffffffffffffffffffff1690506000600160008573ffffffffffffffffffffffffffffffffffffffff1673ffffffffffffffffffffffffffffffffffffffff168152602001908152602001600020600084815260200190815260200160002060010160109054906101000a90046fffffffffffffffffffffffffffffffff1690506142fe8484612a46565b61431a82826fffffffffffffffffffffffffffffffff16612bfb565b50505050565b600080600160008573ffffffffffffffffffffffffffffffffffffffff1673ffffffffffffffffffffffffffffffffffffffff168152602001908152602001600020600084815260200190815260200160002060010160009054906101000a90046fffffffffffffffffffffffffffffffff1690506000816fffffffffffffffffffffffffffffffff161180156143c95750806fffffffffffffffffffffffffffffffff163410155b156143d857600191505061449b565b60006127106143e78686614a85565b6127106143f491906164af565b63ffffffff16600160008873ffffffffffffffffffffffffffffffffffffffff1673ffffffffffffffffffffffffffffffffffffffff168152602001908152602001600020600087815260200190815260200160002060010160109054906101000a90046fffffffffffffffffffffffffffffffff1661447491906164e9565b61447e9190616533565b6fffffffffffffffffffffffffffffffff16905080341015925050505b92915050565b6000600160008473ffffffffffffffffffffffffffffffffffffffff1673ffffffffffffffffffffffffffffffffffffffff168152602001908152602001600020600083815260200190815260200160002060020160009054906101000a900473ffffffffffffffffffffffffffffffffffffffff1690506000600160008573ffffffffffffffffffffffffffffffffffffffff1673ffffffffffffffffffffffffffffffffffffffff168152602001908152602001600020600084815260200190815260200160002060010160109054906101000a90046fffffffffffffffffffffffffffffffff166fffffffffffffffffffffffffffffffff1690506145a98484614e87565b600073ffffffffffffffffffffffffffffffffffffffff168273ffffffffffffffffffffffffffffffffffffffff16146145e8576145e78282612bfb565b5b50505050565b6145f882826140d5565b1561461657614607828261354b565b61461182826139f2565b61463b565b61462082826133f5565b1561463a5761462f828261354b565b61463982826138b8565b5b5b5050565b82846000826fffffffffffffffffffffffffffffffff1614806146a75750806fffffffffffffffffffffffffffffffff166146a4836fffffffffffffffffffffffffffffffff16600360089054906101000a900463ffffffff1663ffffffff16613528565b10155b6146e6576040517f08c379a00000000000000000000000000000000000000000000000000000000081526004016146dd90615a48565b60405180910390fd5b826127108163ffffffff161115614732576040517f08c379a00000000000000000000000000000000000000000000000000000000081526004016147299061648f565b60405180910390fd5b84600160008b73ffffffffffffffffffffffffffffffffffffffff1673ffffffffffffffffffffffffffffffffffffffff16815260200190815260200160002060008a815260200190815260200160002060060160006101000a81548173ffffffffffffffffffffffffffffffffffffffff021916908373ffffffffffffffffffffffffffffffffffffffff16021790555083600160008b73ffffffffffffffffffffffffffffffffffffffff1673ffffffffffffffffffffffffffffffffffffffff16815260200190815260200160002060008a815260200190815260200160002060060160146101000a81548163ffffffff021916908363ffffffff16021790555085600160008b73ffffffffffffffffffffffffffffffffffffffff1673ffffffffffffffffffffffffffffffffffffffff16815260200190815260200160002060008a815260200190815260200160002060010160006101000a8154816fffffffffffffffffffffffffffffffff02191690836fffffffffffffffffffffffffffffffff16021790555086600160008b73ffffffffffffffffffffffffffffffffffffffff1673ffffffffffffffffffffffffffffffffffffffff16815260200190815260200160002060008a815260200190815260200160002060000160106101000a8154816fffffffffffffffffffffffffffffffff02191690836fffffffffffffffffffffffffffffffff16021790555033600160008b73ffffffffffffffffffffffffffffffffffffffff1673ffffffffffffffffffffffffffffffffffffffff16815260200190815260200160002060008a815260200190815260200160002060030160006101000a81548173ffffffffffffffffffffffffffffffffffffffff021916908373ffffffffffffffffffffffffffffffffffffffff160217905550505050505050505050565b600080600160008573ffffffffffffffffffffffffffffffffffffffff1673ffffffffffffffffffffffffffffffffffffffff168152602001908152602001600020600084815260200190815260200160002060000160049054906101000a900463ffffffff16905060008163ffffffff161415614a7a576003600c9054906101000a900463ffffffff16915050614a7f565b809150505b92915050565b600080600160008573ffffffffffffffffffffffffffffffffffffffff1673ffffffffffffffffffffffffffffffffffffffff168152602001908152602001600020600084815260200190815260200160002060000160009054906101000a900463ffffffff16905060008163ffffffff161415614b1857600360009054906101000a900463ffffffff16915050614b1d565b809150505b92915050565b600080600160008573ffffffffffffffffffffffffffffffffffffffff1673ffffffffffffffffffffffffffffffffffffffff168152602001908152602001600020600084815260200190815260200160002060050160009054906101000a900473ffffffffffffffffffffffffffffffffffffffff169050600073ffffffffffffffffffffffffffffffffffffffff168173ffffffffffffffffffffffffffffffffffffffff161415614c4d57600160008573ffffffffffffffffffffffffffffffffffffffff1673ffffffffffffffffffffffffffffffffffffffff168152602001908152602001600020600084815260200190815260200160002060020160009054906101000a900473ffffffffffffffffffffffffffffffffffffffff16915050614c52565b809150505b92915050565b6000614ccd82600160008873ffffffffffffffffffffffffffffffffffffffff1673ffffffffffffffffffffffffffffffffffffffff168152602001908152602001600020600087815260200190815260200160002060060160149054906101000a900463ffffffff1663ffffffff16613528565b9050614d4c600160008773ffffffffffffffffffffffffffffffffffffffff1673ffffffffffffffffffffffffffffffffffffffff168152602001908152602001600020600086815260200190815260200160002060060160009054906101000a900473ffffffffffffffffffffffffffffffffffffffff1682612bfb565b614d61838284614d5c9190616564565b612bfb565b5050505050565b6000600160008473ffffffffffffffffffffffffffffffffffffffff1673ffffffffffffffffffffffffffffffffffffffff168152602001908152602001600020600083815260200190815260200160002060040160009054906101000a900473ffffffffffffffffffffffffffffffffffffffff1673ffffffffffffffffffffffffffffffffffffffff16600160008573ffffffffffffffffffffffffffffffffffffffff1673ffffffffffffffffffffffffffffffffffffffff168152602001908152602001600020600084815260200190815260200160002060020160009054906101000a900473ffffffffffffffffffffffffffffffffffffffff1673ffffffffffffffffffffffffffffffffffffffff1614905092915050565b34600160008473ffffffffffffffffffffffffffffffffffffffff1673ffffffffffffffffffffffffffffffffffffffff168152602001908152602001600020600083815260200190815260200160002060010160106101000a8154816fffffffffffffffffffffffffffffffff02191690836fffffffffffffffffffffffffffffffff16021790555033600160008473ffffffffffffffffffffffffffffffffffffffff1673ffffffffffffffffffffffffffffffffffffffff168152602001908152602001600020600083815260200190815260200160002060020160006101000a81548173ffffffffffffffffffffffffffffffffffffffff021916908373ffffffffffffffffffffffffffffffffffffffff1602179055505050565b600080fd5b600073ffffffffffffffffffffffffffffffffffffffff82169050919050565b6000614fd782614fac565b9050919050565b614fe781614fcc565b8114614ff257600080fd5b50565b60008135905061500481614fde565b92915050565b6000819050919050565b61501d8161500a565b811461502857600080fd5b50565b60008135905061503a81615014565b92915050565b6000806040838503121561505757615056614fa7565b5b600061506585828601614ff5565b92505060206150768582860161502b565b9150509250929050565b600063ffffffff82169050919050565b61509981615080565b82525050565b600067ffffffffffffffff82169050919050565b6150bc8161509f565b82525050565b60006fffffffffffffffffffffffffffffffff82169050919050565b6150e7816150c2565b82525050565b6150f681614fcc565b82525050565b600061018082019050615112600083018f615090565b61511f602083018e615090565b61512c604083018d6150b3565b615139606083018c6150de565b615146608083018b6150de565b61515360a083018a6150de565b61516060c08301896150ed565b61516d60e08301886150ed565b61517b6101008301876150ed565b6151896101208301866150ed565b6151976101408301856150ed565b6151a5610160830184615090565b9d9c50505050505050505050505050565b6000806000606084860312156151cf576151ce614fa7565b5b60006151dd86828701614ff5565b93505060206151ee8682870161502b565b92505060406151ff86828701614ff5565b9150509250925092565b600060208201905061521e6000830184615090565b92915050565b600060208201905061523960008301846150ed565b92915050565b615248816150c2565b811461525357600080fd5b50565b6000813590506152658161523f565b92915050565b61527481615080565b811461527f57600080fd5b50565b6000813590506152918161526b565b92915050565b60008060008060008060c087890312156152b4576152b3614fa7565b5b60006152c289828a01614ff5565b96505060206152d389828a0161502b565b95505060406152e489828a01615256565b94505060606152f589828a01615256565b935050608061530689828a01615282565b92505060a061531789828a01615282565b9150509295509295509295565b60008060006060848603121561533d5761533c614fa7565b5b600061534b86828701614ff5565b935050602061535c8682870161502b565b925050604061536d86828701615256565b9150509250925092565b6000806000806080858703121561539157615390614fa7565b5b600061539f87828801614ff5565b94505060206153b08782880161502b565b93505060406153c187828801615256565b92505060606153d287828801614ff5565b91505092959194509250565b6000602082840312156153f4576153f3614fa7565b5b600061540284828501615282565b91505092915050565b60006020828403121561542157615420614fa7565b5b600061542f84828501614ff5565b91505092915050565b600082825260208201905092915050565b7f4f6e6c79206e66742073656c6c65720000000000000000000000000000000000600082015250565b600061547f600f83615438565b915061548a82615449565b602082019050919050565b600060208201905081810360008301526154ae81615472565b9050919050565b7f4e6f7420612073616c6500000000000000000000000000000000000000000000600082015250565b60006154eb600a83615438565b91506154f6826154b5565b602082019050919050565b6000602082019050818103600083015261551a816154de565b9050919050565b61552a8161500a565b82525050565b600060608201905061554560008301866150ed565b6155526020830185615521565b61555f60408301846150ed565b949350505050565b7f41756374696f6e2068617320656e646564000000000000000000000000000000600082015250565b600061559d601183615438565b91506155a882615567565b602082019050919050565b600060208201905081810360008301526155cc81615590565b9050919050565b7f43616e6e6f742073706563696679203020616464726573730000000000000000600082015250565b6000615609601883615438565b9150615614826155d3565b602082019050919050565b60006020820190508181036000830152615638816155fc565b9050919050565b7f4f6e6c79207468652077686974656c6973746564206275796572000000000000600082015250565b6000615675601a83615438565b91506156808261563f565b602082019050919050565b600060208201905081810360008301526156a481615668565b9050919050565b7f4e4654206e6f74206465706f7369746564000000000000000000000000000000600082015250565b60006156e1601183615438565b91506156ec826156ab565b602082019050919050565b60006020820190508181036000830152615710816156d4565b9050919050565b7f41756374696f6e20616c72656164792073746172746564206279206f776e6572600082015250565b600061574d602083615438565b915061575882615717565b602082019050919050565b6000602082019050818103600083015261577c81615740565b9050919050565b60006020820190506157986000830184615521565b92915050565b6000815190506157ad81614fde565b92915050565b6000602082840312156157c9576157c8614fa7565b5b60006157d78482850161579e565b91505092915050565b7f53656e64657220646f65736e2774206f776e204e465400000000000000000000600082015250565b6000615816601683615438565b9150615821826157e0565b602082019050919050565b6000602082019050818103600083015261584581615809565b9050919050565b7f50726963652063616e6e6f742062652030000000000000000000000000000000600082015250565b6000615882601183615438565b915061588d8261584c565b602082019050919050565b600060208201905081810360008301526158b181615875565b9050919050565b7f42696420696e6372656173652070657263656e7461676520746f6f206c6f7700600082015250565b60006158ee601f83615438565b91506158f9826158b8565b602082019050919050565b6000602082019050818103600083015261591d816158e1565b9050919050565b7f5468652061756374696f6e2068617320612076616c696420626964206d616465600082015250565b600061595a602083615438565b915061596582615924565b602082019050919050565b600060208201905081810360008301526159898161594d565b9050919050565b7f4e6f74206170706c696361626c6520666f7220612073616c6500000000000000600082015250565b60006159c6601983615438565b91506159d182615990565b602082019050919050565b600060208201905081810360008301526159f5816159b9565b9050919050565b7f4d696e5072696365203e20383025206f66206275794e6f775072696365000000600082015250565b6000615a32601d83615438565b9150615a3d826159fc565b602082019050919050565b60006020820190508181036000830152615a6181615a25565b9050919050565b6000819050919050565b6000615a8d615a88615a83846150c2565b615a68565b61500a565b9050919050565b615a9d81615a72565b82525050565b6000606082019050615ab860008301866150ed565b615ac56020830185615521565b615ad26040830184615a94565b949350505050565b7f43616e6e6f742077697468647261772066756e64730000000000000000000000600082015250565b6000615b10601583615438565b9150615b1b82615ada565b602082019050919050565b60006020820190508181036000830152615b3f81615b03565b9050919050565b7f41756374696f6e206973206e6f7420796574206f766572000000000000000000600082015250565b6000615b7c601783615438565b9150615b8782615b46565b602082019050919050565b60006020820190508181036000830152615bab81615b6f565b9050919050565b7f4f776e61626c653a2063616c6c6572206973206e6f7420746865206f776e6572600082015250565b6000615be8602083615438565b9150615bf382615bb2565b602082019050919050565b60006020820190508181036000830152615c1781615bdb565b9050919050565b600060e082019050615c33600083018a6150ed565b615c406020830189615521565b615c4d60408301886150ed565b615c5a60608301876150de565b615c6760808301866150ed565b615c7460a08301856150ed565b615c8160c0830184615090565b98975050505050505050565b7f63616e6e6f74207061796f757420302062696400000000000000000000000000600082015250565b6000615cc3601383615438565b9150615cce82615c8d565b602082019050919050565b60006020820190508181036000830152615cf281615cb6565b9050919050565b6000604082019050615d0e60008301856150ed565b615d1b6020830184615521565b9392505050565b7f6e6f206372656469747320746f20776974686472617700000000000000000000600082015250565b6000615d58601683615438565b9150615d6382615d22565b602082019050919050565b60006020820190508181036000830152615d8781615d4b565b9050919050565b600081905092915050565b50565b6000615da9600083615d8e565b9150615db482615d99565b600082019050919050565b6000615dca82615d9c565b9150819050919050565b7f7769746864726177206661696c65640000000000000000000000000000000000600082015250565b6000615e0a600f83615438565b9150615e1582615dd4565b602082019050919050565b60006020820190508181036000830152615e3981615dfd565b9050919050565b7f4e6f74204e4654206f776e657200000000000000000000000000000000000000600082015250565b6000615e76600d83615438565b9150615e8182615e40565b602082019050919050565b60006020820190508181036000830152615ea581615e69565b9050919050565b7f4f776e61626c653a206e6577206f776e657220697320746865207a65726f206160008201527f6464726573730000000000000000000000000000000000000000000000000000602082015250565b6000615f08602683615438565b9150615f1382615eac565b604082019050919050565b60006020820190508181036000830152615f3781615efb565b9050919050565b6000606082019050615f5360008301866150ed565b615f606020830185615521565b615f6d60408301846150de565b949350505050565b7f4e487b7100000000000000000000000000000000000000000000000000000000600052601160045260246000fd5b6000615faf8261500a565b9150615fba8361500a565b9250827fffffffffffffffffffffffffffffffffffffffffffffffffffffffffffffffff03821115615fef57615fee615f75565b5b828201905092915050565b7f4f776e65722063616e6e6f7420626964206f6e206f776e204e46540000000000600082015250565b6000616030601b83615438565b915061603b82615ffa565b602082019050919050565b6000602082019050818103600083015261605f81616023565b9050919050565b7f4e6f7420656e6f7567682066756e647320746f20626964206f6e204e46540000600082015250565b600061609c601e83615438565b91506160a782616066565b602082019050919050565b600060208201905081810360008301526160cb8161608f565b9050919050565b60006080820190506160e760008301876150ed565b6160f46020830186615521565b61610160408301856150ed565b61610e6060830184615521565b95945050505050565b60006101208201905061612d600083018c6150ed565b61613a602083018b615521565b616147604083018a6150ed565b61615460608301896150de565b61616160808301886150de565b61616e60a0830187615090565b61617b60c0830186615090565b61618860e08301856150ed565b616196610100830184615090565b9a9950505050505050505050565b60006161af8261500a565b91506161ba8361500a565b9250817fffffffffffffffffffffffffffffffffffffffffffffffffffffffffffffffff04831182151516156161f3576161f2615f75565b5b828202905092915050565b7f4e487b7100000000000000000000000000000000000000000000000000000000600052601260045260246000fd5b60006162388261500a565b91506162438361500a565b925082616253576162526161fe565b5b828204905092915050565b600060608201905061627360008301866150ed565b61628060208301856150ed565b61628d6040830184615521565b949350505050565b7f6e6674207472616e73666572206661696c656400000000000000000000000000600082015250565b60006162cb601383615438565b91506162d682616295565b602082019050919050565b600060208201905081810360008301526162fa816162be565b9050919050565b7f53656c6c657220646f65736e2774206f776e204e465400000000000000000000600082015250565b6000616337601683615438565b915061634282616301565b602082019050919050565b600060208201905081810360008301526163668161632a565b9050919050565b60006163788261509f565b91506163838361509f565b92508267ffffffffffffffff038211156163a05761639f615f75565b5b828201905092915050565b60006060820190506163c060008301866150ed565b6163cd6020830185615521565b6163da60408301846150b3565b949350505050565b600060c0820190506163f760008301896150ed565b6164046020830188615521565b61641160408301876150ed565b61641e60608301866150de565b61642b60808301856150ed565b61643860a08301846150ed565b979650505050505050565b7f4665652070657263656e74616765206578636565647320313030250000000000600082015250565b6000616479601b83615438565b915061648482616443565b602082019050919050565b600060208201905081810360008301526164a88161646c565b9050919050565b60006164ba82615080565b91506164c583615080565b92508263ffffffff038211156164de576164dd615f75565b5b828201905092915050565b60006164f4826150c2565b91506164ff836150c2565b9250816fffffffffffffffffffffffffffffffff048311821515161561652857616527615f75565b5b828202905092915050565b600061653e826150c2565b9150616549836150c2565b925082616559576165586161fe565b5b828204905092915050565b600061656f8261500a565b915061657a8361500a565b92508282101561658d5761658c615f75565b5b82820390509291505056fea264697066735822122070949509f10bb4786693c0a6430ecae24cbd5fc7d98bcb766ea8816695794ffc64736f6c634300080a0033",
  "linkReferences": {},
  "deployedLinkReferences": {}
}