{
  "_format": "hh-sol-artifact-1",
  "contractName": "SeasonOne",
  "sourceName": "contracts/SeasonOne.sol",
  "abi": [
    {
      "inputs": [
        {
          "internalType": "address",
          "name": "seekersContract",
          "type": "address"
        },
        {
          "internalType": "address",
          "name": "keepeersVault",
          "type": "address"
        }
      ],
      "stateMutability": "nonpayable",
      "type": "constructor"
    },
    {
      "anonymous": false,
      "inputs": [
        {
          "indexed": false,
          "internalType": "uint256",
          "name": "id",
          "type": "uint256"
        }
      ],
      "name": "AirdropClaim",
      "type": "event"
    },
    {
      "anonymous": false,
      "inputs": [
        {
          "indexed": true,
          "internalType": "address",
          "name": "account",
          "type": "address"
        },
        {
          "indexed": true,
          "internalType": "address",
          "name": "operator",
          "type": "address"
        },
        {
          "indexed": false,
          "internalType": "bool",
          "name": "approved",
          "type": "bool"
        }
      ],
      "name": "ApprovalForAll",
      "type": "event"
    },
    {
      "anonymous": false,
      "inputs": [
        {
          "indexed": false,
          "internalType": "address",
          "name": "claimer",
          "type": "address"
        }
      ],
      "name": "ClaimedAll",
      "type": "event"
    },
    {
      "anonymous": false,
      "inputs": [
        {
          "indexed": false,
          "internalType": "address",
          "name": "depositor",
          "type": "address"
        },
        {
          "indexed": false,
          "internalType": "uint16",
          "name": "amount",
          "type": "uint16"
        },
        {
          "indexed": false,
          "internalType": "uint256",
          "name": "depositIdx",
          "type": "uint256"
        }
      ],
      "name": "NewCloinDeposit",
      "type": "event"
    },
    {
      "anonymous": false,
      "inputs": [
        {
          "indexed": true,
          "internalType": "address",
          "name": "previousOwner",
          "type": "address"
        },
        {
          "indexed": true,
          "internalType": "address",
          "name": "newOwner",
          "type": "address"
        }
      ],
      "name": "OwnershipTransferred",
      "type": "event"
    },
    {
      "anonymous": false,
      "inputs": [
        {
          "indexed": false,
          "internalType": "address",
          "name": "previousOwner",
          "type": "address"
        },
        {
          "indexed": false,
          "internalType": "address",
          "name": "newOwner",
          "type": "address"
        },
        {
          "indexed": false,
          "internalType": "uint256",
          "name": "seizurePrice",
          "type": "uint256"
        },
        {
          "indexed": false,
          "internalType": "uint256",
          "name": "nextSeizurePrice",
          "type": "uint256"
        },
        {
          "indexed": false,
          "internalType": "uint256",
          "name": "currentPrize",
          "type": "uint256"
        },
        {
          "indexed": false,
          "internalType": "uint256",
          "name": "seizureNumber",
          "type": "uint256"
        }
      ],
      "name": "Seized",
      "type": "event"
    },
    {
      "anonymous": false,
      "inputs": [],
      "name": "ShardSpendable",
      "type": "event"
    },
    {
      "anonymous": false,
      "inputs": [
        {
          "indexed": false,
          "internalType": "address",
          "name": "winner",
          "type": "address"
        }
      ],
      "name": "SweetRelease",
      "type": "event"
    },
    {
      "anonymous": false,
      "inputs": [
        {
          "indexed": true,
          "internalType": "address",
          "name": "operator",
          "type": "address"
        },
        {
          "indexed": true,
          "internalType": "address",
          "name": "from",
          "type": "address"
        },
        {
          "indexed": true,
          "internalType": "address",
          "name": "to",
          "type": "address"
        },
        {
          "indexed": false,
          "internalType": "uint256[]",
          "name": "ids",
          "type": "uint256[]"
        },
        {
          "indexed": false,
          "internalType": "uint256[]",
          "name": "values",
          "type": "uint256[]"
        }
      ],
      "name": "TransferBatch",
      "type": "event"
    },
    {
      "anonymous": false,
      "inputs": [
        {
          "indexed": true,
          "internalType": "address",
          "name": "operator",
          "type": "address"
        },
        {
          "indexed": true,
          "internalType": "address",
          "name": "from",
          "type": "address"
        },
        {
          "indexed": true,
          "internalType": "address",
          "name": "to",
          "type": "address"
        },
        {
          "indexed": false,
          "internalType": "uint256",
          "name": "id",
          "type": "uint256"
        },
        {
          "indexed": false,
          "internalType": "uint256",
          "name": "value",
          "type": "uint256"
        }
      ],
      "name": "TransferSingle",
      "type": "event"
    },
    {
      "anonymous": false,
      "inputs": [
        {
          "indexed": false,
          "internalType": "string",
          "name": "value",
          "type": "string"
        },
        {
          "indexed": true,
          "internalType": "uint256",
          "name": "id",
          "type": "uint256"
        }
      ],
      "name": "URI",
      "type": "event"
    },
    {
      "inputs": [],
      "name": "CLOAKINGTHRESH",
      "outputs": [
        {
          "internalType": "uint256",
          "name": "",
          "type": "uint256"
        }
      ],
      "stateMutability": "view",
      "type": "function"
    },
    {
      "inputs": [],
      "name": "CLOINRELEASE",
      "outputs": [
        {
          "internalType": "uint256",
          "name": "",
          "type": "uint256"
        }
      ],
      "stateMutability": "view",
      "type": "function"
    },
    {
      "inputs": [],
      "name": "COINLANDER",
      "outputs": [
        {
          "internalType": "address",
          "name": "",
          "type": "address"
        }
      ],
      "stateMutability": "view",
      "type": "function"
    },
    {
      "inputs": [],
      "name": "FIRSTCOMMUNITYSOFTLOCK",
      "outputs": [
        {
          "internalType": "uint256",
          "name": "",
          "type": "uint256"
        }
      ],
      "stateMutability": "view",
      "type": "function"
    },
    {
      "inputs": [],
      "name": "FIRSTSEEKERMINTTHRESH",
      "outputs": [
        {
          "internalType": "uint256",
          "name": "",
          "type": "uint256"
        }
      ],
      "stateMutability": "view",
      "type": "function"
    },
    {
      "inputs": [],
      "name": "GOODSONLYEND",
      "outputs": [
        {
          "internalType": "uint256",
          "name": "",
          "type": "uint256"
        }
      ],
      "stateMutability": "view",
      "type": "function"
    },
    {
      "inputs": [],
      "name": "ONECOIN",
      "outputs": [
        {
          "internalType": "uint256",
          "name": "",
          "type": "uint256"
        }
      ],
      "stateMutability": "view",
      "type": "function"
    },
    {
      "inputs": [],
      "name": "PERCENTPRIZE",
      "outputs": [
        {
          "internalType": "uint256",
          "name": "",
          "type": "uint256"
        }
      ],
      "stateMutability": "view",
      "type": "function"
    },
    {
      "inputs": [],
      "name": "PERCENTRATEINCREASE",
      "outputs": [
        {
          "internalType": "uint256",
          "name": "",
          "type": "uint256"
        }
      ],
      "stateMutability": "view",
      "type": "function"
    },
    {
      "inputs": [],
      "name": "SECONDCOMMUNITYSOFTLOCK",
      "outputs": [
        {
          "internalType": "uint256",
          "name": "",
          "type": "uint256"
        }
      ],
      "stateMutability": "view",
      "type": "function"
    },
    {
      "inputs": [],
      "name": "SECONDSEEKERMINTTHRESH",
      "outputs": [
        {
          "internalType": "uint256",
          "name": "",
          "type": "uint256"
        }
      ],
      "stateMutability": "view",
      "type": "function"
    },
    {
      "inputs": [],
      "name": "SHARD",
      "outputs": [
        {
          "internalType": "uint256",
          "name": "",
          "type": "uint256"
        }
      ],
      "stateMutability": "view",
      "type": "function"
    },
    {
      "inputs": [],
      "name": "SHARDSPENDABLE",
      "outputs": [
        {
          "internalType": "uint256",
          "name": "",
          "type": "uint256"
        }
      ],
      "stateMutability": "view",
      "type": "function"
    },
    {
      "inputs": [],
      "name": "SHARDTOFRAGMENTMULTIPLIER",
      "outputs": [
        {
          "internalType": "uint256",
          "name": "",
          "type": "uint256"
        }
      ],
      "stateMutability": "view",
      "type": "function"
    },
    {
      "inputs": [],
      "name": "SWEETRELEASE",
      "outputs": [
        {
          "internalType": "uint256",
          "name": "",
          "type": "uint256"
        }
      ],
      "stateMutability": "view",
      "type": "function"
    },
    {
      "inputs": [],
      "name": "THIRDSEEKERMINTTHRESH",
      "outputs": [
        {
          "internalType": "uint256",
          "name": "",
          "type": "uint256"
        }
      ],
      "stateMutability": "view",
      "type": "function"
    },
    {
      "inputs": [
        {
          "internalType": "uint256",
          "name": "id",
          "type": "uint256"
        }
      ],
      "name": "airdropClaimBySeekerId",
      "outputs": [],
      "stateMutability": "nonpayable",
      "type": "function"
    },
    {
      "inputs": [
        {
          "internalType": "address",
          "name": "account",
          "type": "address"
        },
        {
          "internalType": "uint256",
          "name": "id",
          "type": "uint256"
        }
      ],
      "name": "balanceOf",
      "outputs": [
        {
          "internalType": "uint256",
          "name": "",
          "type": "uint256"
        }
      ],
      "stateMutability": "view",
      "type": "function"
    },
    {
      "inputs": [
        {
          "internalType": "address[]",
          "name": "accounts",
          "type": "address[]"
        },
        {
          "internalType": "uint256[]",
          "name": "ids",
          "type": "uint256[]"
        }
      ],
      "name": "balanceOfBatch",
      "outputs": [
        {
          "internalType": "uint256[]",
          "name": "",
          "type": "uint256[]"
        }
      ],
      "stateMutability": "view",
      "type": "function"
    },
    {
      "inputs": [
        {
          "internalType": "uint256",
          "name": "amount",
          "type": "uint256"
        }
      ],
      "name": "burnShardForFragments",
      "outputs": [],
      "stateMutability": "nonpayable",
      "type": "function"
    },
    {
      "inputs": [
        {
          "internalType": "uint256",
          "name": "seekerId",
          "type": "uint256"
        },
        {
          "internalType": "uint256",
          "name": "amount",
          "type": "uint256"
        }
      ],
      "name": "burnShardForPower",
      "outputs": [],
      "stateMutability": "nonpayable",
      "type": "function"
    },
    {
      "inputs": [
        {
          "internalType": "string",
          "name": "_newURI",
          "type": "string"
        }
      ],
      "name": "changeURI",
      "outputs": [],
      "stateMutability": "nonpayable",
      "type": "function"
    },
    {
      "inputs": [],
      "name": "claimAll",
      "outputs": [],
      "stateMutability": "nonpayable",
      "type": "function"
    },
    {
      "inputs": [],
      "name": "claimSingleSeeker",
      "outputs": [],
      "stateMutability": "nonpayable",
      "type": "function"
    },
    {
      "inputs": [
        {
          "internalType": "uint256",
          "name": "",
          "type": "uint256"
        }
      ],
      "name": "claimedAirdropBySeekerId",
      "outputs": [
        {
          "internalType": "bool",
          "name": "",
          "type": "bool"
        }
      ],
      "stateMutability": "view",
      "type": "function"
    },
    {
      "inputs": [
        {
          "internalType": "uint256",
          "name": "",
          "type": "uint256"
        }
      ],
      "name": "cloinDeposits",
      "outputs": [
        {
          "internalType": "address",
          "name": "depositor",
          "type": "address"
        },
        {
          "internalType": "uint16",
          "name": "amount",
          "type": "uint16"
        },
        {
          "internalType": "uint80",
          "name": "blockNumber",
          "type": "uint80"
        }
      ],
      "stateMutability": "view",
      "type": "function"
    },
    {
      "inputs": [],
      "name": "contractURI",
      "outputs": [
        {
          "internalType": "string",
          "name": "",
          "type": "string"
        }
      ],
      "stateMutability": "view",
      "type": "function"
    },
    {
      "inputs": [],
      "name": "disableFirstCommunitySoftLock",
      "outputs": [],
      "stateMutability": "nonpayable",
      "type": "function"
    },
    {
      "inputs": [],
      "name": "disableSecondCommunitySoftLock",
      "outputs": [],
      "stateMutability": "nonpayable",
      "type": "function"
    },
    {
      "inputs": [],
      "name": "firstCommunitySoftLock",
      "outputs": [
        {
          "internalType": "bool",
          "name": "",
          "type": "bool"
        }
      ],
      "stateMutability": "view",
      "type": "function"
    },
    {
      "inputs": [],
      "name": "gameStarted",
      "outputs": [
        {
          "internalType": "bool",
          "name": "",
          "type": "bool"
        }
      ],
      "stateMutability": "view",
      "type": "function"
    },
    {
      "inputs": [
        {
          "internalType": "uint256",
          "name": "_id",
          "type": "uint256"
        }
      ],
      "name": "getAirdropStatus",
      "outputs": [
        {
          "internalType": "bool",
          "name": "",
          "type": "bool"
        }
      ],
      "stateMutability": "view",
      "type": "function"
    },
    {
      "inputs": [
        {
          "internalType": "address",
          "name": "_user",
          "type": "address"
        }
      ],
      "name": "getPendingWithdrawal",
      "outputs": [
        {
          "internalType": "uint256[3]",
          "name": "",
          "type": "uint256[3]"
        }
      ],
      "stateMutability": "view",
      "type": "function"
    },
    {
      "inputs": [],
      "name": "getSeizureCount",
      "outputs": [
        {
          "internalType": "uint256",
          "name": "",
          "type": "uint256"
        }
      ],
      "stateMutability": "view",
      "type": "function"
    },
    {
      "inputs": [
        {
          "internalType": "address",
          "name": "",
          "type": "address"
        }
      ],
      "name": "hasBeenCoinlander",
      "outputs": [
        {
          "internalType": "bool",
          "name": "",
          "type": "bool"
        }
      ],
      "stateMutability": "view",
      "type": "function"
    },
    {
      "inputs": [
        {
          "internalType": "address",
          "name": "account",
          "type": "address"
        },
        {
          "internalType": "address",
          "name": "operator",
          "type": "address"
        }
      ],
      "name": "isApprovedForAll",
      "outputs": [
        {
          "internalType": "bool",
          "name": "",
          "type": "bool"
        }
      ],
      "stateMutability": "view",
      "type": "function"
    },
    {
      "inputs": [
        {
          "internalType": "uint256",
          "name": "amount",
          "type": "uint256"
        }
      ],
      "name": "keeperShardMint",
      "outputs": [],
      "stateMutability": "nonpayable",
      "type": "function"
    },
    {
      "inputs": [],
      "name": "lastSeizureTime",
      "outputs": [
        {
          "internalType": "uint32",
          "name": "",
          "type": "uint32"
        }
      ],
      "stateMutability": "view",
      "type": "function"
    },
    {
      "inputs": [],
      "name": "owner",
      "outputs": [
        {
          "internalType": "address",
          "name": "",
          "type": "address"
        }
      ],
      "stateMutability": "view",
      "type": "function"
    },
    {
      "inputs": [
        {
          "internalType": "address",
          "name": "",
          "type": "address"
        }
      ],
      "name": "pendingWithdrawals",
      "outputs": [
        {
          "internalType": "uint120",
          "name": "_withdrawValue",
          "type": "uint120"
        },
        {
          "internalType": "uint16",
          "name": "_shardOwed",
          "type": "uint16"
        }
      ],
      "stateMutability": "view",
      "type": "function"
    },
    {
      "inputs": [],
      "name": "prize",
      "outputs": [
        {
          "internalType": "uint256",
          "name": "",
          "type": "uint256"
        }
      ],
      "stateMutability": "view",
      "type": "function"
    },
    {
      "inputs": [],
      "name": "released",
      "outputs": [
        {
          "internalType": "bool",
          "name": "",
          "type": "bool"
        }
      ],
      "stateMutability": "view",
      "type": "function"
    },
    {
      "inputs": [],
      "name": "renounceOwnership",
      "outputs": [],
      "stateMutability": "nonpayable",
      "type": "function"
    },
    {
      "inputs": [
        {
          "internalType": "address",
          "name": "from",
          "type": "address"
        },
        {
          "internalType": "address",
          "name": "to",
          "type": "address"
        },
        {
          "internalType": "uint256[]",
          "name": "ids",
          "type": "uint256[]"
        },
        {
          "internalType": "uint256[]",
          "name": "amounts",
          "type": "uint256[]"
        },
        {
          "internalType": "bytes",
          "name": "data",
          "type": "bytes"
        }
      ],
      "name": "safeBatchTransferFrom",
      "outputs": [],
      "stateMutability": "nonpayable",
      "type": "function"
    },
    {
      "inputs": [
        {
          "internalType": "address",
          "name": "from",
          "type": "address"
        },
        {
          "internalType": "address",
          "name": "to",
          "type": "address"
        },
        {
          "internalType": "uint256",
          "name": "id",
          "type": "uint256"
        },
        {
          "internalType": "uint256",
          "name": "amount",
          "type": "uint256"
        },
        {
          "internalType": "bytes",
          "name": "data",
          "type": "bytes"
        }
      ],
      "name": "safeTransferFrom",
      "outputs": [],
      "stateMutability": "nonpayable",
      "type": "function"
    },
    {
      "inputs": [],
      "name": "secondCommunitySoftLock",
      "outputs": [
        {
          "internalType": "bool",
          "name": "",
          "type": "bool"
        }
      ],
      "stateMutability": "view",
      "type": "function"
    },
    {
      "inputs": [],
      "name": "seekers",
      "outputs": [
        {
          "internalType": "contract ISeekers",
          "name": "",
          "type": "address"
        }
      ],
      "stateMutability": "view",
      "type": "function"
    },
    {
      "inputs": [],
      "name": "seize",
      "outputs": [],
      "stateMutability": "payable",
      "type": "function"
    },
    {
      "inputs": [],
      "name": "seizureCount",
      "outputs": [
        {
          "internalType": "uint256",
          "name": "_value",
          "type": "uint256"
        }
      ],
      "stateMutability": "view",
      "type": "function"
    },
    {
      "inputs": [],
      "name": "seizureStake",
      "outputs": [
        {
          "internalType": "uint256",
          "name": "",
          "type": "uint256"
        }
      ],
      "stateMutability": "view",
      "type": "function"
    },
    {
      "inputs": [
        {
          "internalType": "address",
          "name": "operator",
          "type": "address"
        },
        {
          "internalType": "bool",
          "name": "approved",
          "type": "bool"
        }
      ],
      "name": "setApprovalForAll",
      "outputs": [],
      "stateMutability": "nonpayable",
      "type": "function"
    },
    {
      "inputs": [
        {
          "internalType": "string",
          "name": "newContractURI",
          "type": "string"
        }
      ],
      "name": "setContractURI",
      "outputs": [],
      "stateMutability": "nonpayable",
      "type": "function"
    },
    {
      "inputs": [],
      "name": "shardSpendable",
      "outputs": [
        {
          "internalType": "bool",
          "name": "",
          "type": "bool"
        }
      ],
      "stateMutability": "view",
      "type": "function"
    },
    {
      "inputs": [
        {
          "internalType": "uint256",
          "name": "amount",
          "type": "uint256"
        }
      ],
      "name": "stakeShardForCloin",
      "outputs": [],
      "stateMutability": "nonpayable",
      "type": "function"
    },
    {
      "inputs": [],
      "name": "startGame",
      "outputs": [],
      "stateMutability": "nonpayable",
      "type": "function"
    },
    {
      "inputs": [
        {
          "internalType": "bytes4",
          "name": "interfaceId",
          "type": "bytes4"
        }
      ],
      "name": "supportsInterface",
      "outputs": [
        {
          "internalType": "bool",
          "name": "",
          "type": "bool"
        }
      ],
      "stateMutability": "view",
      "type": "function"
    },
    {
      "inputs": [
        {
          "internalType": "address",
          "name": "newOwner",
          "type": "address"
        }
      ],
      "name": "transferOwnership",
      "outputs": [],
      "stateMutability": "nonpayable",
      "type": "function"
    },
    {
      "inputs": [
        {
          "internalType": "uint256",
          "name": "",
          "type": "uint256"
        }
      ],
      "name": "uri",
      "outputs": [
        {
          "internalType": "string",
          "name": "",
          "type": "string"
        }
      ],
      "stateMutability": "view",
      "type": "function"
    },
    {
      "stateMutability": "payable",
      "type": "receive"
    }
  ],
  "bytecode": "0x608060405260068054600160a01b600160f01b03191661010160c01b17905565048c2739500060085560006009819055600a819055600b553480156200004457600080fd5b5060405162004e7538038062004e7583398101604081905262000067916200069f565b6040518060600160405280602f815260200162004e46602f91396200008c8162000143565b5062000098336200015c565b6001600481905550620000d133600060016040518060400160405280600381526020016203078360ec1b815250620001ae60201b60201c565b60068054336001600160a01b0319918216179091556010805482166001600160a01b0385811691909117909155601180549092169083161790556040805160608101909152602a80825262004e1c602083013980516200013a91600591602090910190620005dc565b5050506200093f565b805162000158906002906020840190620005dc565b5050565b600380546001600160a01b038381166001600160a01b0319831681179093556040519116919082907f8be0079c531659141344cd1fd0a4f28419497f9722a3daafe3b4186f6b6457e090600090a35050565b6001600160a01b038416620002145760405162461bcd60e51b815260206004820152602160248201527f455243313135353a206d696e7420746f20746865207a65726f206164647265736044820152607360f81b60648201526084015b60405180910390fd5b336200023a816000876200022888620002d5565b6200023388620002d5565b8762000323565b6000848152602081815260408083206001600160a01b0389168452909152812080548592906200026c908490620006ed565b909155505060408051858152602081018590526001600160a01b0380881692600092918516917fc3d58168c5ae7397731d063d5bbf3d657854427343f4c083240f7aacaa2d0f62910160405180910390a4620002ce8160008787878762000400565b5050505050565b6040805160018082528183019092526060916000919060208083019080368337019050509050828160008151811062000312576200031262000708565b602090810291909101015292915050565b600654600160a01b900460ff16620003dd5760005b8351811015620003db57600084828151811062000359576200035962000708565b60200260200101511415620003c6576001600160a01b038616158015906200038b5750600654600160b01b900460ff16155b15620003c65760405162461bcd60e51b8152602060048201526009602482015268114b4c0c0c0b4c0c0d60ba1b60448201526064016200020b565b80620003d2816200071e565b91505062000338565b505b620003f8868686868686620003f860201b620026871760201c565b505050505050565b6200041f846001600160a01b0316620005d660201b6200268f1760201c565b15620003f85760405163f23a6e6160e01b81526001600160a01b0385169063f23a6e61906200045b90899089908890889088906004016200078c565b6020604051808303816000875af192505050801562000499575060408051601f3d908101601f191682019092526200049691810190620007d3565b60015b6200055a57620004a862000806565b806308c379a01415620004e95750620004c06200085e565b80620004cd5750620004eb565b8060405162461bcd60e51b81526004016200020b9190620008ed565b505b60405162461bcd60e51b815260206004820152603460248201527f455243313135353a207472616e7366657220746f206e6f6e204552433131353560448201527f526563656976657220696d706c656d656e74657200000000000000000000000060648201526084016200020b565b6001600160e01b0319811663f23a6e6160e01b14620005cd5760405162461bcd60e51b815260206004820152602860248201527f455243313135353a204552433131353552656365697665722072656a656374656044820152676420746f6b656e7360c01b60648201526084016200020b565b50505050505050565b3b151590565b828054620005ea9062000902565b90600052602060002090601f0160209004810192826200060e576000855562000659565b82601f106200062957805160ff191683800117855562000659565b8280016001018555821562000659579182015b82811115620006595782518255916020019190600101906200063c565b50620006679291506200066b565b5090565b5b808211156200066757600081556001016200066c565b80516001600160a01b03811681146200069a57600080fd5b919050565b60008060408385031215620006b357600080fd5b620006be8362000682565b9150620006ce6020840162000682565b90509250929050565b634e487b7160e01b600052601160045260246000fd5b60008219821115620007035762000703620006d7565b500190565b634e487b7160e01b600052603260045260246000fd5b6000600019821415620007355762000735620006d7565b5060010190565b6000815180845260005b81811015620007645760208185018101518683018201520162000746565b8181111562000777576000602083870101525b50601f01601f19169290920160200192915050565b6001600160a01b03868116825285166020820152604081018490526060810183905260a060808201819052600090620007c8908301846200073c565b979650505050505050565b600060208284031215620007e657600080fd5b81516001600160e01b031981168114620007ff57600080fd5b9392505050565b600060033d1115620008205760046000803e5060005160e01c5b90565b601f8201601f191681016001600160401b03811182821017156200085757634e487b7160e01b600052604160045260246000fd5b6040525050565b600060443d10156200086d5790565b6040516003193d81016004833e81513d6001600160401b0380831160248401831017156200089d57505050505090565b8285019150815181811115620008b65750505050505090565b843d8701016020828501011115620008d15750505050505090565b620008e26020828601018762000823565b509095945050505050565b602081526000620007ff60208301846200073c565b600181811c908216806200091757607f821691505b602082108114156200093957634e487b7160e01b600052602260045260246000fd5b50919050565b6144cd806200094f6000396000f3fe6080604052600436106103845760003560e01c80637fb0ba58116101d1578063bbdf79b011610102578063e8a3d485116100a0578063f242432a1161006f578063f242432a14610a6a578063f2e3a6d014610a8a578063f2fde38b14610aaa578063f3f4370314610aca57600080fd5b8063e8a3d485146109e1578063e985e9c5146109f6578063ef025fbc14610a3f578063f0b0e8b114610a5457600080fd5b8063d65ab5f2116100dc578063d65ab5f214610976578063dd6d8a151461098b578063e3ac5d26146109ab578063e5e01c11146109c157600080fd5b8063bbdf79b014610937578063c331b8c81461094c578063d1058e591461096157600080fd5b8063988c3fd91161016f578063a8b7af1611610149578063a8b7af16146108d6578063b3c8a8a9146108eb578063b5ebfdc31461090c578063b5f4362e1461092257600080fd5b8063988c3fd914610880578063a22cb465146108a1578063a4ba6919146108c157600080fd5b80638da5cb5b116101ab5780638da5cb5b1461080b578063938e3d7b146108295780639613252114610849578063986099291461086a57600080fd5b80637fb0ba581461077f578063824be390146107965780638a58ca1a146107ea57600080fd5b806340ebe5bc116102b65780635e123ce4116102545780637701ada6116102235780637701ada6146107085780637b0ba284146107285780637c8618ab1461073d5780637ee8b2f81461075257600080fd5b80635e123ce4146106b4578063605297e1146106d55780636b487a1e146106dd578063715018a6146106f357600080fd5b806353a9fd611161029057806353a9fd611461063857806354a142011461064e578063559990831461066e5780635a5bce221461069e57600080fd5b806340ebe5bc146105e15780634e1273f4146105f6578063536363fe1461062357600080fd5b8063244b21f21161032357806333e64522116102fd57806333e645221461055657806336b36c6c146105865780633a5d36ab1461059b5780633e709c70146105cb57600080fd5b8063244b21f2146104e757806326b47ba6146104fd5780632eb2c2d61461053657600080fd5b80630b99c5481161035f5780630b99c548146104405780630c3dedff146104625780630e89341c146104825780632285fcba146104af57600080fd5b8062fdd58e146103c757806301ffc9a7146103fa57806303ca64a61461042a57600080fd5b366103c25760405162461bcd60e51b8152602060048201526009602482015268452d3030302d30303960b81b60448201526064015b60405180910390fd5b600080fd5b3480156103d357600080fd5b506103e76103e2366004613b9a565b610b2f565b6040519081526020015b60405180910390f35b34801561040657600080fd5b5061041a610415366004613bdc565b610bd3565b60405190151581526020016103f1565b34801561043657600080fd5b506103e761045781565b34801561044c57600080fd5b5061046061045b366004613bf9565b610c70565b005b34801561046e57600080fd5b5061046061047d366004613bf9565b610e8f565b34801561048e57600080fd5b506104a261049d366004613bf9565b611126565b6040516103f19190613c5f565b3480156104bb57600080fd5b506010546104cf906001600160a01b031681565b6040516001600160a01b0390911681526020016103f1565b3480156104f357600080fd5b506103e761030981565b34801561050957600080fd5b5060065461052190600160d01b900463ffffffff1681565b60405163ffffffff90911681526020016103f1565b34801561054257600080fd5b50610460610551366004613dbe565b6111ba565b34801561056257600080fd5b5061041a610571366004613bf9565b6000908152600d602052604090205460ff1690565b34801561059257600080fd5b5061046061125c565b3480156105a757600080fd5b5061041a6105b6366004613e6c565b600e6020526000908152604090205460ff1681565b3480156105d757600080fd5b506103e761022b81565b3480156105ed57600080fd5b506103e7600181565b34801561060257600080fd5b50610616610611366004613e89565b6112e0565b6040516103f19190613f91565b34801561062f57600080fd5b506103e761141e565b34801561064457600080fd5b506103e761029a81565b34801561065a57600080fd5b506006546104cf906001600160a01b031681565b34801561067a57600080fd5b5061041a610689366004613bf9565b600d6020526000908152604090205460ff1681565b3480156106aa57600080fd5b506103e761014d81565b3480156106c057600080fd5b5060065461041a90600160b81b900460ff1681565b61046061142e565b3480156106e957600080fd5b506103e761037881565b3480156106ff57600080fd5b506104606116b1565b34801561071457600080fd5b50610460610723366004613bf9565b611717565b34801561073457600080fd5b506103e7603c81565b34801561074957600080fd5b506104606117dd565b34801561075e57600080fd5b5061077261076d366004613e6c565b6119ae565b6040516103f19190613fa4565b34801561078b57600080fd5b506007546103e79081565b3480156107a257600080fd5b506107b66107b1366004613bf9565b611a0a565b604080516001600160a01b03909416845261ffff909216602084015269ffffffffffffffffffff16908201526060016103f1565b3480156107f657600080fd5b5060065461041a90600160c81b900460ff1681565b34801561081757600080fd5b506003546001600160a01b03166104cf565b34801561083557600080fd5b50610460610844366004613fd5565b611a54565b34801561085557600080fd5b5060065461041a90600160a01b900460ff1681565b34801561087657600080fd5b506103e76103e781565b34801561088c57600080fd5b5060065461041a90600160a81b900460ff1681565b3480156108ad57600080fd5b506104606108bc366004614047565b611abf565b3480156108cd57600080fd5b506103e7600581565b3480156108e257600080fd5b50610460611baa565b3480156108f757600080fd5b5060065461041a90600160c01b900460ff1681565b34801561091857600080fd5b506103e760085481565b34801561092e57600080fd5b506103e760de81565b34801561094357600080fd5b506103e7600081565b34801561095857600080fd5b506103e7606481565b34801561096d57600080fd5b50610460611c2e565b34801561098257600080fd5b50610460611f5a565b34801561099757600080fd5b506104606109a6366004614085565b611fc9565b3480156109b757600080fd5b506103e7600a5481565b3480156109cd57600080fd5b506104606109dc366004613fd5565b612191565b3480156109ed57600080fd5b506104a261222e565b348015610a0257600080fd5b5061041a610a113660046140a7565b6001600160a01b03918216600090815260016020908152604080832093909416825291909152205460ff1690565b348015610a4b57600080fd5b506103e7606f81565b348015610a6057600080fd5b506103e76101bc81565b348015610a7657600080fd5b50610460610a853660046140d5565b6122c0565b348015610a9657600080fd5b50610460610aa5366004613bf9565b61235b565b348015610ab657600080fd5b50610460610ac5366004613e6c565b6125a8565b348015610ad657600080fd5b50610b0d610ae5366004613e6c565b600c602052600090815260409020546001600160781b03811690600160781b900461ffff1682565b604080516001600160781b03909316835261ffff9091166020830152016103f1565b60006001600160a01b038316610bad5760405162461bcd60e51b815260206004820152602b60248201527f455243313135353a2062616c616e636520717565727920666f7220746865207a60448201527f65726f206164647265737300000000000000000000000000000000000000000060648201526084016103b9565b506000908152602081815260408083206001600160a01b03949094168352929052205490565b60006001600160e01b031982167fd9b67a26000000000000000000000000000000000000000000000000000000001480610c3657506001600160e01b031982167f0e89341c00000000000000000000000000000000000000000000000000000000145b80610c6a57507f01ffc9a7000000000000000000000000000000000000000000000000000000006001600160e01b03198316145b92915050565b60026004541415610cc35760405162461bcd60e51b815260206004820152601f60248201527f5265656e7472616e637947756172643a207265656e7472616e742063616c6c0060448201526064016103b9565b6002600455600654600160a81b900460ff161515600114610d125760405162461bcd60e51b8152602060048201526009602482015268452d3030302d30303560b81b60448201526064016103b9565b8060008111610d4f5760405162461bcd60e51b815260206004820152600960248201526822969818181698181b60b91b60448201526064016103b9565b80610d5b336001610b2f565b1015610d955760405162461bcd60e51b8152602060048201526009602482015268452d3030302d30303760b81b60448201526064016103b9565b610da0600583614154565b15610ded5760405162461bcd60e51b815260206004820152600960248201527f452d3030302d303038000000000000000000000000000000000000000000000060448201526064016103b9565b6000610dfa60058461417e565b9050610e0833600185612695565b6011546040517f2d218406000000000000000000000000000000000000000000000000000000008152336004820152602481018390526001600160a01b0390911690632d21840690604401600060405180830381600087803b158015610e6d57600080fd5b505af1158015610e81573d6000803e3d6000fd5b505060016004555050505050565b60026004541415610ee25760405162461bcd60e51b815260206004820152601f60248201527f5265656e7472616e637947756172643a207265656e7472616e742063616c6c0060448201526064016103b9565b6002600455600654600160a01b900460ff161515600114610f315760405162461bcd60e51b8152602060048201526009602482015268114b4c0c0c0b4c0c0d60ba1b60448201526064016103b9565b6010546040517f6352211e0000000000000000000000000000000000000000000000000000000081526004810183905233916001600160a01b031690636352211e90602401602060405180830381865afa158015610f93573d6000803e3d6000fd5b505050506040513d601f19601f82011682018060405250810190610fb79190614192565b6001600160a01b03161461100d5760405162461bcd60e51b815260206004820152600960248201527f452d3030302d303131000000000000000000000000000000000000000000000060448201526064016103b9565b6000818152600d602052604090205460ff161561106c5760405162461bcd60e51b815260206004820152600960248201527f452d3030302d303132000000000000000000000000000000000000000000000060448201526064016103b9565b6000818152600d60205260408120805460ff1916600117905580611091600484612841565b905060006110a0600483612841565b9050806110ae8360016141af565b6110b891906141af565b92507f574d48e4ee52f43b5e22c7df8072b47c861cf56c56d7b13812310531f4ffc6fb846040516110eb91815260200190565b60405180910390a161111b336001856040518060400160405280600381526020016203078360ec1b8152506128c2565b505060016004555050565b606060028054611135906141c7565b80601f0160208091040260200160405190810160405280929190818152602001828054611161906141c7565b80156111ae5780601f10611183576101008083540402835291602001916111ae565b820191906000526020600020905b81548152906001019060200180831161119157829003601f168201915b50505050509050919050565b6001600160a01b0385163314806111d657506111d68533610a11565b6112485760405162461bcd60e51b815260206004820152603260248201527f455243313135353a207472616e736665722063616c6c6572206973206e6f742060448201527f6f776e6572206e6f7220617070726f766564000000000000000000000000000060648201526084016103b9565b61125585858585856129ee565b5050505050565b6003546001600160a01b031633146112b65760405162461bcd60e51b815260206004820181905260248201527f4f776e61626c653a2063616c6c6572206973206e6f7420746865206f776e657260448201526064016103b9565b600680547fffffffffffff00ffffffffffffffffffffffffffffffffffffffffffffffffff169055565b606081518351146113595760405162461bcd60e51b815260206004820152602960248201527f455243313135353a206163636f756e747320616e6420696473206c656e67746860448201527f206d69736d61746368000000000000000000000000000000000000000000000060648201526084016103b9565b6000835167ffffffffffffffff81111561137557611375613c72565b60405190808252806020026020018201604052801561139e578160200160208202803683370190505b50905060005b8451811015611416576113e98582815181106113c2576113c2614202565b60200260200101518583815181106113dc576113dc614202565b6020026020010151610b2f565b8282815181106113fb576113fb614202565b602090810291909101015261140f81614218565b90506113a4565b509392505050565b600061142960075490565b905090565b600260045414156114815760405162461bcd60e51b815260206004820152601f60248201527f5265656e7472616e637947756172643a207265656e7472616e742063616c6c0060448201526064016103b9565b6002600455600654600160b81b900460ff166114df5760405162461bcd60e51b815260206004820152600960248201527f452d3030302d303133000000000000000000000000000000000000000000000060448201526064016103b9565b600654600160a01b900460ff16156115395760405162461bcd60e51b815260206004820152600960248201527f452d3030302d303031000000000000000000000000000000000000000000000060448201526064016103b9565b600854341461158a5760405162461bcd60e51b815260206004820152600960248201527f452d3030302d303032000000000000000000000000000000000000000000000060448201526064016103b9565b6006546001600160a01b03163314156115e55760405162461bcd60e51b815260206004820152600960248201527f452d3030302d303033000000000000000000000000000000000000000000000060448201526064016103b9565b600654336000818152600e60205260409020805460ff191660011790556001600160a01b039091169061161c600780546001019055565b6116268282612c67565b61163282600954612cf2565b7fcbe7cd1556c10b870bde340c9b25b4ea2d3709a1da0e63de8a9a1a18a28894a8828234600854600a5461166560075490565b604080516001600160a01b039788168152969095166020870152938501929092526060840152608083015260a082015260c00160405180910390a16116a8612eec565b50506001600455565b6003546001600160a01b0316331461170b5760405162461bcd60e51b815260206004820181905260248201527f4f776e61626c653a2063616c6c6572206973206e6f7420746865206f776e657260448201526064016103b9565b6117156000613271565b565b6003546001600160a01b031633146117715760405162461bcd60e51b815260206004820181905260248201527f4f776e61626c653a2063616c6c6572206973206e6f7420746865206f776e657260448201526064016103b9565b606f81600b5461178191906141af565b111561178c57600080fd5b6000811161179957600080fd5b80600b60008282546117ab91906141af565b925050819055506117da336001836040518060400160405280600381526020016203078360ec1b8152506128c2565b50565b600260045414156118305760405162461bcd60e51b815260206004820152601f60248201527f5265656e7472616e637947756172643a207265656e7472616e742063616c6c0060448201526064016103b9565b6002600455336000908152600c6020526040902060010154806118815760405162461bcd60e51b81526020600482015260096024820152680452d3030302d3031360bc1b60448201526064016103b9565b336000908152600c602052604081206001908101906118a09084614233565b815481106118b0576118b0614202565b60009182526020808320600883040154338452600c9091526040909220600101805460079092166004026101000a90920463ffffffff169250806118f6576118f661424a565b6000828152602090206008600019929092019182040180546007831660049081026101000a63ffffffff908102199092169092559190925560105460405163825b0da760e01b8152339381019390935290831660248301526001600160a01b03169063825b0da7906044016020604051808303816000875af1158015611980573d6000803e3d6000fd5b505050506040513d601f19601f820116820180604052508101906119a49190614260565b5050600160045550565b6119b6613a35565b50604080516060810182526001600160a01b039092166000818152600c602081815284832080546001600160781b038116885261ffff600160781b9091041682880152939092529052600101549082015290565b600f8181548110611a1a57600080fd5b6000918252602090912001546001600160a01b0381169150600160a01b810461ffff1690600160b01b900469ffffffffffffffffffff1683565b6003546001600160a01b03163314611aae5760405162461bcd60e51b815260206004820181905260248201527f4f776e61626c653a2063616c6c6572206973206e6f7420746865206f776e657260448201526064016103b9565b611aba60058383613a53565b505050565b336001600160a01b0383161415611b3e5760405162461bcd60e51b815260206004820152602960248201527f455243313135353a2073657474696e6720617070726f76616c2073746174757360448201527f20666f722073656c66000000000000000000000000000000000000000000000060648201526084016103b9565b3360008181526001602090815260408083206001600160a01b03871680855290835292819020805460ff191686151590811790915590519081529192917f17307eab39ab6107e8899845ad3d59bd9653f200f220920489ca2b5937696c31910160405180910390a35050565b6003546001600160a01b03163314611c045760405162461bcd60e51b815260206004820181905260248201527f4f776e61626c653a2063616c6c6572206973206e6f7420746865206f776e657260448201526064016103b9565b600680547fffffffffffffff00ffffffffffffffffffffffffffffffffffffffffffffffff169055565b60026004541415611c815760405162461bcd60e51b815260206004820152601f60248201527f5265656e7472616e637947756172643a207265656e7472616e742063616c6c0060448201526064016103b9565b6002600455336000908152600c6020526040902080546001909101546001600160781b03821691600160781b900461ffff169082158015611cc0575081155b8015611cca575080155b15611d035760405162461bcd60e51b81526020600482015260096024820152680452d3030302d3031360bc1b60448201526064016103b9565b8215611db157336000818152600c602052604080822080546effffffffffffffffffffffffffffff191690555190919085908381818185875af1925050503d8060008114611d6d576040519150601f19603f3d011682016040523d82523d6000602084013e611d72565b606091505b5050905080611daf5760405162461bcd60e51b8152602060048201526009602482015268452d3030302d30303960b81b60448201526064016103b9565b505b8115611e1657336000818152600c602090815260409182902080547fffffffffffffffffffffffffffffff0000ffffffffffffffffffffffffffffff1690558151808301909252600382526203078360ec1b90820152611e16919060019085906128c2565b8015611f1d5760005b81811015611efe57336000908152600c60205260408120600101805483908110611e4b57611e4b614202565b6000918252602090912060088204015460105460405163825b0da760e01b81523360048083019190915260079094169093026101000a90910463ffffffff166024830181905292506001600160a01b03169063825b0da7906044016020604051808303816000875af1158015611ec5573d6000803e3d6000fd5b505050506040513d601f19601f82011682018060405250810190611ee99190614260565b50508080611ef690614218565b915050611e1f565b50336000908152600c60205260408120611f1d91600190910190613ad7565b6040513381527fa81402d20429b2b3224cce54a32d277a0c31233c545221acf4e01cce7824d8e59060200160405180910390a15050600160045550565b6003546001600160a01b03163314611fb45760405162461bcd60e51b815260206004820181905260248201527f4f776e61626c653a2063616c6c6572206973206e6f7420746865206f776e657260448201526064016103b9565b6006805460ff60b81b1916600160b81b179055565b6002600454141561201c5760405162461bcd60e51b815260206004820152601f60248201527f5265656e7472616e637947756172643a207265656e7472616e742063616c6c0060448201526064016103b9565b6002600455600654600160a81b900460ff16151560011461206b5760405162461bcd60e51b8152602060048201526009602482015268452d3030302d30303560b81b60448201526064016103b9565b80600081116120a85760405162461bcd60e51b815260206004820152600960248201526822969818181698181b60b91b60448201526064016103b9565b806120b4336001610b2f565b10156120ee5760405162461bcd60e51b8152602060048201526009602482015268452d3030302d30303760b81b60448201526064016103b9565b6120fa33600184612695565b6000612107600884614279565b6010546040517f02368a2c00000000000000000000000000000000000000000000000000000000815260048101879052602481018390529192506001600160a01b0316906302368a2c90604401600060405180830381600087803b15801561216e57600080fd5b505af1158015612182573d6000803e3d6000fd5b50506001600455505050505050565b6003546001600160a01b031633146121eb5760405162461bcd60e51b815260206004820181905260248201527f4f776e61626c653a2063616c6c6572206973206e6f7420746865206f776e657260448201526064016103b9565b61222a82828080601f0160208091040260200160405190810160405280939291908181526020018383808284376000920191909152506132d092505050565b5050565b60606005805461223d906141c7565b80601f0160208091040260200160405190810160405280929190818152602001828054612269906141c7565b80156122b65780601f1061228b576101008083540402835291602001916122b6565b820191906000526020600020905b81548152906001019060200180831161229957829003601f168201915b5050505050905090565b6001600160a01b0385163314806122dc57506122dc8533610a11565b61234e5760405162461bcd60e51b815260206004820152602960248201527f455243313135353a2063616c6c6572206973206e6f74206f776e6572206e6f7260448201527f20617070726f766564000000000000000000000000000000000000000000000060648201526084016103b9565b61125585858585856132e3565b600260045414156123ae5760405162461bcd60e51b815260206004820152601f60248201527f5265656e7472616e637947756172643a207265656e7472616e742063616c6c0060448201526064016103b9565b6002600455600654600160a81b900460ff1615156001146123fd5760405162461bcd60e51b8152602060048201526009602482015268452d3030302d30303560b81b60448201526064016103b9565b806000811161243a5760405162461bcd60e51b815260206004820152600960248201526822969818181698181b60b91b60448201526064016103b9565b80612446336001610b2f565b10156124805760405162461bcd60e51b8152602060048201526009602482015268452d3030302d30303760b81b60448201526064016103b9565b61248c33600184612695565b60408051606080820183523380835261ffff868116602080860182815269ffffffffffffffffffff438116888a01908152600f805460018101825560008290528a517f8d1108e10bcb7c27dddfc02ed9d693a074039d026cf4ea4240b40f7d581ac802909101805495519351909416600160b01b0275ffffffffffffffffffffffffffffffffffffffffffff93909816600160a01b027fffffffffffffffffffff000000000000000000000000000000000000000000009095166001600160a01b039091161793909317169490941790935591548651938452918301529381018490529192917fb84ac8250b1ecd425f9dcd8f82dfbd7ea45a1d2f3c97abc502c7baa929781ac1910160405180910390a1505060016004555050565b6003546001600160a01b031633146126025760405162461bcd60e51b815260206004820181905260248201527f4f776e61626c653a2063616c6c6572206973206e6f7420746865206f776e657260448201526064016103b9565b6001600160a01b03811661267e5760405162461bcd60e51b815260206004820152602660248201527f4f776e61626c653a206e6577206f776e657220697320746865207a65726f206160448201527f646472657373000000000000000000000000000000000000000000000000000060648201526084016103b9565b6117da81613271565b505050505050565b3b151590565b6001600160a01b0383166127115760405162461bcd60e51b815260206004820152602360248201527f455243313135353a206275726e2066726f6d20746865207a65726f206164647260448201527f657373000000000000000000000000000000000000000000000000000000000060648201526084016103b9565b336127408185600061272287613481565b61272b87613481565b604051806020016040528060008152506134cc565b6000838152602081815260408083206001600160a01b0388168452909152902054828110156127d65760405162461bcd60e51b8152602060048201526024808201527f455243313135353a206275726e20616d6f756e7420657863656564732062616c60448201527f616e63650000000000000000000000000000000000000000000000000000000060648201526084016103b9565b6000848152602081815260408083206001600160a01b03898116808652918452828520888703905582518981529384018890529092908616917fc3d58168c5ae7397731d063d5bbf3d657854427343f4c083240f7aacaa2d0f62910160405180910390a45050505050565b6000808383612851600143614233565b405a60408051602081019590955284019290925260608084019190915260808301919091524260a083015233901b6bffffffffffffffffffffffff191660c082015260d40160408051601f19818403018152919052805160209091012090506128ba8482614154565b949350505050565b6001600160a01b03841661293e5760405162461bcd60e51b815260206004820152602160248201527f455243313135353a206d696e7420746f20746865207a65726f2061646472657360448201527f730000000000000000000000000000000000000000000000000000000000000060648201526084016103b9565b3361295e8160008761294f88613481565b61295888613481565b876134cc565b6000848152602081815260408083206001600160a01b03891684529091528120805485929061298e9084906141af565b909155505060408051858152602081018590526001600160a01b0380881692600092918516917fc3d58168c5ae7397731d063d5bbf3d657854427343f4c083240f7aacaa2d0f62910160405180910390a46112558160008787878761357f565b8151835114612a655760405162461bcd60e51b815260206004820152602860248201527f455243313135353a2069647320616e6420616d6f756e7473206c656e6774682060448201527f6d69736d6174636800000000000000000000000000000000000000000000000060648201526084016103b9565b6001600160a01b038416612ac95760405162461bcd60e51b815260206004820152602560248201527f455243313135353a207472616e7366657220746f20746865207a65726f206164604482015264647265737360d81b60648201526084016103b9565b33612ad88187878787876134cc565b60005b8451811015612c01576000858281518110612af857612af8614202565b602002602001015190506000858381518110612b1657612b16614202565b602090810291909101810151600084815280835260408082206001600160a01b038e168352909352919091205490915081811015612ba95760405162461bcd60e51b815260206004820152602a60248201527f455243313135353a20696e73756666696369656e742062616c616e636520666f60448201526939103a3930b739b332b960b11b60648201526084016103b9565b6000838152602081815260408083206001600160a01b038e8116855292528083208585039055908b16825281208054849290612be69084906141af565b9250508190555050505080612bfa90614218565b9050612adb565b50846001600160a01b0316866001600160a01b0316826001600160a01b03167f4a39dc06d4c0dbc64b70af90fd698a233a518aa5d07e595d983b8c0526c8f7fb8787604051612c51929190614298565b60405180910390a4612687818787878787613725565b6006805460ff60b01b1916600160b01b17905560408051808201909152600381526203078360ec1b6020820152612ca790839083906000906001906132e3565b6006805460ff60b01b191690819055600160a01b900460ff1661222a57600680546001600160a01b03831673ffffffffffffffffffffffffffffffffffffffff199091161790555050565b600654600090612d0f90600160d01b900463ffffffff16426142c6565b600680547fffff00000000ffffffffffffffffffffffffffffffffffffffffffffffffffff16600160d01b4263ffffffff1602179055600754909150600114612e4f576000612710612d62606485614279565b612d6c919061417e565b905080600a6000828254612d8091906141af565b9091555060009050612d928285614233565b6001600160a01b0386166000908152600c6020526040812080549293508392909190612dc89084906001600160781b03166142eb565b92506101000a8154816001600160781b0302191690836001600160781b031602179055506000612df9600954613821565b6001600160a01b0387166000908152600c6020526040902080549192508291600f90612e31908490600160781b900461ffff16614316565b92506101000a81548161ffff021916908361ffff1602179055505050505b600654600160a01b900460ff16611aba576001600160a01b0383166000908152600c602090815260408220600190810180549182018155835291206008808304909101805460079093166004026101000a63ffffffff81810219909416938516029290921790915554600981905561271090612ecd90603c90614279565b612ed7919061417e565b600854612ee491906141af565b600855505050565b6000612ef760075490565b9050606f811415612f2257600654600160c01b900460ff1615612f22576006805460ff60b81b191690555b60de811415612f4b57600654600160c81b900460ff1615612f4b576006805460ff60b81b191690555b61014d811415612fbe57601060009054906101000a90046001600160a01b03166001600160a01b03166310b127096040518163ffffffff1660e01b8152600401600060405180830381600087803b158015612fa557600080fd5b505af1158015612fb9573d6000803e3d6000fd5b505050505b61029a81141561303157601060009054906101000a90046001600160a01b03166001600160a01b031663dec3a74c6040518163ffffffff1660e01b8152600401600060405180830381600087803b15801561301857600080fd5b505af115801561302c573d6000803e3d6000fd5b505050505b6103098114156130a457601060009054906101000a90046001600160a01b03166001600160a01b0316636e39a3456040518163ffffffff1660e01b8152600401600060405180830381600087803b15801561308b57600080fd5b505af115801561309f573d6000803e3d6000fd5b505050505b61037881141561311757601060009054906101000a90046001600160a01b03166001600160a01b031663fe0194626040518163ffffffff1660e01b8152600401600060405180830381600087803b1580156130fe57600080fd5b505af1158015613112573d6000803e3d6000fd5b505050505b61030981111561318a57601060009054906101000a90046001600160a01b03166001600160a01b031663b085a3f76040518163ffffffff1660e01b8152600401600060405180830381600087803b15801561317157600080fd5b505af1158015613185573d6000803e3d6000fd5b505050505b6101bc8114156131fd57601060009054906101000a90046001600160a01b03166001600160a01b03166302a1b9e96040518163ffffffff1660e01b8152600401600060405180830381600087803b1580156131e457600080fd5b505af11580156131f8573d6000803e3d6000fd5b505050505b61022b81141561325f57600680547fffffffffffffffffffff00ffffffffffffffffffffffffffffffffffffffffff16600160a81b1790556040517f4edc15228784eebfc5aeba6b9908179c0dfd601a62756f6d3e2d3bb1c52c3c0d90600090a15b6104578114156117da576117da61386d565b600380546001600160a01b0383811673ffffffffffffffffffffffffffffffffffffffff19831681179093556040519116919082907f8be0079c531659141344cd1fd0a4f28419497f9722a3daafe3b4186f6b6457e090600090a35050565b805161222a906002906020840190613afc565b6001600160a01b0384166133475760405162461bcd60e51b815260206004820152602560248201527f455243313135353a207472616e7366657220746f20746865207a65726f206164604482015264647265737360d81b60648201526084016103b9565b3361335781878761294f88613481565b6000848152602081815260408083206001600160a01b038a168452909152902054838110156133db5760405162461bcd60e51b815260206004820152602a60248201527f455243313135353a20696e73756666696369656e742062616c616e636520666f60448201526939103a3930b739b332b960b11b60648201526084016103b9565b6000858152602081815260408083206001600160a01b038b81168552925280832087850390559088168252812080548692906134189084906141af565b909155505060408051868152602081018690526001600160a01b03808916928a821692918616917fc3d58168c5ae7397731d063d5bbf3d657854427343f4c083240f7aacaa2d0f62910160405180910390a461347882888888888861357f565b50505050505050565b604080516001808252818301909252606091600091906020808301908036833701905050905082816000815181106134bb576134bb614202565b602090810291909101015292915050565b600654600160a01b900460ff1661357a5760005b83518110156135785760008482815181106134fd576134fd614202565b60200260200101511415613566576001600160a01b0386161580159061352d5750600654600160b01b900460ff16155b156135665760405162461bcd60e51b8152602060048201526009602482015268114b4c0c0c0b4c0c0d60ba1b60448201526064016103b9565b8061357081614218565b9150506134e0565b505b612687565b6001600160a01b0384163b156126875760405163f23a6e6160e01b81526001600160a01b0385169063f23a6e61906135c39089908990889088908890600401614333565b6020604051808303816000875af19250505080156135fe575060408051601f3d908101601f191682019092526135fb91810190614376565b60015b6136b45761360a614393565b806308c379a01415613644575061361f6143af565b8061362a5750613646565b8060405162461bcd60e51b81526004016103b99190613c5f565b505b60405162461bcd60e51b815260206004820152603460248201527f455243313135353a207472616e7366657220746f206e6f6e204552433131353560448201527f526563656976657220696d706c656d656e74657200000000000000000000000060648201526084016103b9565b6001600160e01b0319811663f23a6e6160e01b146134785760405162461bcd60e51b815260206004820152602860248201527f455243313135353a204552433131353552656365697665722072656a656374656044820152676420746f6b656e7360c01b60648201526084016103b9565b6001600160a01b0384163b156126875760405163bc197c8160e01b81526001600160a01b0385169063bc197c81906137699089908990889088908890600401614439565b6020604051808303816000875af19250505080156137a4575060408051601f3d908101601f191682019092526137a191810190614376565b60015b6137b05761360a614393565b6001600160e01b0319811663bc197c8160e01b146134785760405162461bcd60e51b815260206004820152602860248201527f455243313135353a204552433131353552656365697665722072656a656374656044820152676420746f6b656e7360c01b60648201526084016103b9565b600060016005600a670de0b6b3a764000061383e86612710614279565b613848919061417e565b6138529190614279565b61385c919061417e565b61386690826141af565b9392505050565b600680547fffffffffffffffffffffff00ffffffffffffffffffffffffffffffffffffffff16600160a01b1790556040513381527f20b865e8d27b91be16817d18895036215de0fd433d4f964b1c86257cc52587df9060200160405180910390a16138d83334612cf2565b601160009054906101000a90046001600160a01b03166001600160a01b03166392f393f8600a546040518263ffffffff1660e01b81526004016000604051808303818588803b15801561392a57600080fd5b505af115801561393e573d6000803e3d6000fd5b5050601154604080517fedd47abf00000000000000000000000000000000000000000000000000000000815290516001600160a01b03909216945063edd47abf9350600480820193506000929182900301818387803b1580156139a057600080fd5b505af11580156139b4573d6000803e3d6000fd5b50506000600a5550506010546040517fff25b2b20000000000000000000000000000000000000000000000000000000081523360048201526001600160a01b039091169063ff25b2b290602401600060405180830381600087803b158015613a1b57600080fd5b505af1158015613a2f573d6000803e3d6000fd5b50505050565b60405180606001604052806003906020820280368337509192915050565b828054613a5f906141c7565b90600052602060002090601f016020900481019282613a815760008555613ac7565b82601f10613a9a5782800160ff19823516178555613ac7565b82800160010185558215613ac7579182015b82811115613ac7578235825591602001919060010190613aac565b50613ad3929150613b70565b5090565b5080546000825560070160089004906000526020600020908101906117da9190613b70565b828054613b08906141c7565b90600052602060002090601f016020900481019282613b2a5760008555613ac7565b82601f10613b4357805160ff1916838001178555613ac7565b82800160010185558215613ac7579182015b82811115613ac7578251825591602001919060010190613b55565b5b80821115613ad35760008155600101613b71565b6001600160a01b03811681146117da57600080fd5b60008060408385031215613bad57600080fd5b8235613bb881613b85565b946020939093013593505050565b6001600160e01b0319811681146117da57600080fd5b600060208284031215613bee57600080fd5b813561386681613bc6565b600060208284031215613c0b57600080fd5b5035919050565b6000815180845260005b81811015613c3857602081850181015186830182015201613c1c565b81811115613c4a576000602083870101525b50601f01601f19169290920160200192915050565b6020815260006138666020830184613c12565b634e487b7160e01b600052604160045260246000fd5b601f8201601f1916810167ffffffffffffffff81118282101715613cae57613cae613c72565b6040525050565b600067ffffffffffffffff821115613ccf57613ccf613c72565b5060051b60200190565b600082601f830112613cea57600080fd5b81356020613cf782613cb5565b604051613d048282613c88565b83815260059390931b8501820192828101915086841115613d2457600080fd5b8286015b84811015613d3f5780358352918301918301613d28565b509695505050505050565b600082601f830112613d5b57600080fd5b813567ffffffffffffffff811115613d7557613d75613c72565b604051613d8c601f8301601f191660200182613c88565b818152846020838601011115613da157600080fd5b816020850160208301376000918101602001919091529392505050565b600080600080600060a08688031215613dd657600080fd5b8535613de181613b85565b94506020860135613df181613b85565b9350604086013567ffffffffffffffff80821115613e0e57600080fd5b613e1a89838a01613cd9565b94506060880135915080821115613e3057600080fd5b613e3c89838a01613cd9565b93506080880135915080821115613e5257600080fd5b50613e5f88828901613d4a565b9150509295509295909350565b600060208284031215613e7e57600080fd5b813561386681613b85565b60008060408385031215613e9c57600080fd5b823567ffffffffffffffff80821115613eb457600080fd5b818501915085601f830112613ec857600080fd5b81356020613ed582613cb5565b604051613ee28282613c88565b83815260059390931b8501820192828101915089841115613f0257600080fd5b948201945b83861015613f29578535613f1a81613b85565b82529482019490820190613f07565b96505086013592505080821115613f3f57600080fd5b50613f4c85828601613cd9565b9150509250929050565b600081518084526020808501945080840160005b83811015613f8657815187529582019590820190600101613f6a565b509495945050505050565b6020815260006138666020830184613f56565b60608101818360005b6003811015613fcc578151835260209283019290910190600101613fad565b50505092915050565b60008060208385031215613fe857600080fd5b823567ffffffffffffffff8082111561400057600080fd5b818501915085601f83011261401457600080fd5b81358181111561402357600080fd5b86602082850101111561403557600080fd5b60209290920196919550909350505050565b6000806040838503121561405a57600080fd5b823561406581613b85565b91506020830135801515811461407a57600080fd5b809150509250929050565b6000806040838503121561409857600080fd5b50508035926020909101359150565b600080604083850312156140ba57600080fd5b82356140c581613b85565b9150602083013561407a81613b85565b600080600080600060a086880312156140ed57600080fd5b85356140f881613b85565b9450602086013561410881613b85565b93506040860135925060608601359150608086013567ffffffffffffffff81111561413257600080fd5b613e5f88828901613d4a565b634e487b7160e01b600052601260045260246000fd5b6000826141635761416361413e565b500690565b634e487b7160e01b600052601160045260246000fd5b60008261418d5761418d61413e565b500490565b6000602082840312156141a457600080fd5b815161386681613b85565b600082198211156141c2576141c2614168565b500190565b600181811c908216806141db57607f821691505b602082108114156141fc57634e487b7160e01b600052602260045260246000fd5b50919050565b634e487b7160e01b600052603260045260246000fd5b600060001982141561422c5761422c614168565b5060010190565b60008282101561424557614245614168565b500390565b634e487b7160e01b600052603160045260246000fd5b60006020828403121561427257600080fd5b5051919050565b600081600019048311821515161561429357614293614168565b500290565b6040815260006142ab6040830185613f56565b82810360208401526142bd8185613f56565b95945050505050565b600063ffffffff838116908316818110156142e3576142e3614168565b039392505050565b60006001600160781b0380831681851680830382111561430d5761430d614168565b01949350505050565b600061ffff80831681851680830382111561430d5761430d614168565b60006001600160a01b03808816835280871660208401525084604083015283606083015260a0608083015261436b60a0830184613c12565b979650505050505050565b60006020828403121561438857600080fd5b815161386681613bc6565b600060033d11156143ac5760046000803e5060005160e01c5b90565b600060443d10156143bd5790565b6040516003193d81016004833e81513d67ffffffffffffffff81602484011181841117156143ed57505050505090565b82850191508151818111156144055750505050505090565b843d870101602082850101111561441f5750505050505090565b61442e60208286010187613c88565b509095945050505050565b60006001600160a01b03808816835280871660208401525060a0604083015261446560a0830186613f56565b82810360608401526144778186613f56565b9050828103608084015261448b8185613c12565b9897505050505050505056fea2646970667358221220f1bf701d7dcd65de53df2062163b0326e7d6ab697e5065c2785431d979e0267864736f6c634300080a003368747470733a2f2f6170692e636f696e6c616e6465722e6465762f6d6574612f736561736f6e2d6f6e6568747470733a2f2f6170692e636f696e6c616e6465722e6465762f6d6574612f736561736f6e2d6f6e652f7b69647d",
  "linkReferences": {},
  "deployedLinkReferences": {}
}