{
  "_format": "hh-sol-artifact-1",
  "contractName": "SeasonOne",
  "sourceName": "contracts/SeasonOne.sol",
  "abi": [
    {
      "inputs": [
        {
          "internalType": "address",
          "name": "seekersContract",
          "type": "address"
        },
        {
          "internalType": "address",
          "name": "keepeersVault",
          "type": "address"
        }
      ],
      "stateMutability": "nonpayable",
      "type": "constructor"
    },
    {
      "anonymous": false,
      "inputs": [
        {
          "indexed": false,
          "internalType": "uint256",
          "name": "id",
          "type": "uint256"
        }
      ],
      "name": "AirdropClaim",
      "type": "event"
    },
    {
      "anonymous": false,
      "inputs": [
        {
          "indexed": true,
          "internalType": "address",
          "name": "account",
          "type": "address"
        },
        {
          "indexed": true,
          "internalType": "address",
          "name": "operator",
          "type": "address"
        },
        {
          "indexed": false,
          "internalType": "bool",
          "name": "approved",
          "type": "bool"
        }
      ],
      "name": "ApprovalForAll",
      "type": "event"
    },
    {
      "anonymous": false,
      "inputs": [
        {
          "indexed": false,
          "internalType": "address",
          "name": "claimer",
          "type": "address"
        }
      ],
      "name": "ClaimedAll",
      "type": "event"
    },
    {
      "anonymous": false,
      "inputs": [
        {
          "indexed": false,
          "internalType": "address",
          "name": "depositor",
          "type": "address"
        },
        {
          "indexed": false,
          "internalType": "uint16",
          "name": "amount",
          "type": "uint16"
        },
        {
          "indexed": false,
          "internalType": "uint256",
          "name": "depositIdx",
          "type": "uint256"
        }
      ],
      "name": "NewCloinDeposit",
      "type": "event"
    },
    {
      "anonymous": false,
      "inputs": [
        {
          "indexed": true,
          "internalType": "address",
          "name": "previousOwner",
          "type": "address"
        },
        {
          "indexed": true,
          "internalType": "address",
          "name": "newOwner",
          "type": "address"
        }
      ],
      "name": "OwnershipTransferred",
      "type": "event"
    },
    {
      "anonymous": false,
      "inputs": [
        {
          "indexed": false,
          "internalType": "address",
          "name": "previousOwner",
          "type": "address"
        },
        {
          "indexed": false,
          "internalType": "address",
          "name": "newOwner",
          "type": "address"
        },
        {
          "indexed": false,
          "internalType": "uint256",
          "name": "seizurePrice",
          "type": "uint256"
        },
        {
          "indexed": false,
          "internalType": "uint256",
          "name": "nextSeizurePrice",
          "type": "uint256"
        },
        {
          "indexed": false,
          "internalType": "uint256",
          "name": "currentPrize",
          "type": "uint256"
        },
        {
          "indexed": false,
          "internalType": "uint256",
          "name": "seizureNumber",
          "type": "uint256"
        }
      ],
      "name": "Seized",
      "type": "event"
    },
    {
      "anonymous": false,
      "inputs": [],
      "name": "ShardSpendable",
      "type": "event"
    },
    {
      "anonymous": false,
      "inputs": [
        {
          "indexed": false,
          "internalType": "address",
          "name": "winner",
          "type": "address"
        }
      ],
      "name": "SweetRelease",
      "type": "event"
    },
    {
      "anonymous": false,
      "inputs": [
        {
          "indexed": true,
          "internalType": "address",
          "name": "operator",
          "type": "address"
        },
        {
          "indexed": true,
          "internalType": "address",
          "name": "from",
          "type": "address"
        },
        {
          "indexed": true,
          "internalType": "address",
          "name": "to",
          "type": "address"
        },
        {
          "indexed": false,
          "internalType": "uint256[]",
          "name": "ids",
          "type": "uint256[]"
        },
        {
          "indexed": false,
          "internalType": "uint256[]",
          "name": "values",
          "type": "uint256[]"
        }
      ],
      "name": "TransferBatch",
      "type": "event"
    },
    {
      "anonymous": false,
      "inputs": [
        {
          "indexed": true,
          "internalType": "address",
          "name": "operator",
          "type": "address"
        },
        {
          "indexed": true,
          "internalType": "address",
          "name": "from",
          "type": "address"
        },
        {
          "indexed": true,
          "internalType": "address",
          "name": "to",
          "type": "address"
        },
        {
          "indexed": false,
          "internalType": "uint256",
          "name": "id",
          "type": "uint256"
        },
        {
          "indexed": false,
          "internalType": "uint256",
          "name": "value",
          "type": "uint256"
        }
      ],
      "name": "TransferSingle",
      "type": "event"
    },
    {
      "anonymous": false,
      "inputs": [
        {
          "indexed": false,
          "internalType": "string",
          "name": "value",
          "type": "string"
        },
        {
          "indexed": true,
          "internalType": "uint256",
          "name": "id",
          "type": "uint256"
        }
      ],
      "name": "URI",
      "type": "event"
    },
    {
      "inputs": [],
      "name": "CLOAKINGTHRESH",
      "outputs": [
        {
          "internalType": "uint256",
          "name": "",
          "type": "uint256"
        }
      ],
      "stateMutability": "view",
      "type": "function"
    },
    {
      "inputs": [],
      "name": "COINLANDER",
      "outputs": [
        {
          "internalType": "address",
          "name": "",
          "type": "address"
        }
      ],
      "stateMutability": "view",
      "type": "function"
    },
    {
      "inputs": [],
      "name": "FIRSTSEEKERMINTTHRESH",
      "outputs": [
        {
          "internalType": "uint256",
          "name": "",
          "type": "uint256"
        }
      ],
      "stateMutability": "view",
      "type": "function"
    },
    {
      "inputs": [],
      "name": "GOODSONLYEND",
      "outputs": [
        {
          "internalType": "uint256",
          "name": "",
          "type": "uint256"
        }
      ],
      "stateMutability": "view",
      "type": "function"
    },
    {
      "inputs": [],
      "name": "ONECOIN",
      "outputs": [
        {
          "internalType": "uint256",
          "name": "",
          "type": "uint256"
        }
      ],
      "stateMutability": "view",
      "type": "function"
    },
    {
      "inputs": [],
      "name": "PERCENTPRIZE",
      "outputs": [
        {
          "internalType": "uint256",
          "name": "",
          "type": "uint256"
        }
      ],
      "stateMutability": "view",
      "type": "function"
    },
    {
      "inputs": [],
      "name": "PERCENTRATEINCREASE",
      "outputs": [
        {
          "internalType": "uint256",
          "name": "",
          "type": "uint256"
        }
      ],
      "stateMutability": "view",
      "type": "function"
    },
    {
      "inputs": [],
      "name": "SECONDSEEKERMINTTHRESH",
      "outputs": [
        {
          "internalType": "uint256",
          "name": "",
          "type": "uint256"
        }
      ],
      "stateMutability": "view",
      "type": "function"
    },
    {
      "inputs": [],
      "name": "SHARD",
      "outputs": [
        {
          "internalType": "uint256",
          "name": "",
          "type": "uint256"
        }
      ],
      "stateMutability": "view",
      "type": "function"
    },
    {
      "inputs": [],
      "name": "SHARDSPENDABLE",
      "outputs": [
        {
          "internalType": "uint256",
          "name": "",
          "type": "uint256"
        }
      ],
      "stateMutability": "view",
      "type": "function"
    },
    {
      "inputs": [],
      "name": "SHARDTOFRAGMENTMULTIPLIER",
      "outputs": [
        {
          "internalType": "uint256",
          "name": "",
          "type": "uint256"
        }
      ],
      "stateMutability": "view",
      "type": "function"
    },
    {
      "inputs": [],
      "name": "SWEETRELEASE",
      "outputs": [
        {
          "internalType": "uint256",
          "name": "",
          "type": "uint256"
        }
      ],
      "stateMutability": "view",
      "type": "function"
    },
    {
      "inputs": [],
      "name": "THIRDSEEKERMINTTHRESH",
      "outputs": [
        {
          "internalType": "uint256",
          "name": "",
          "type": "uint256"
        }
      ],
      "stateMutability": "view",
      "type": "function"
    },
    {
      "inputs": [
        {
          "internalType": "uint256",
          "name": "id",
          "type": "uint256"
        }
      ],
      "name": "airdropClaimBySeekerId",
      "outputs": [],
      "stateMutability": "nonpayable",
      "type": "function"
    },
    {
      "inputs": [
        {
          "internalType": "address",
          "name": "account",
          "type": "address"
        },
        {
          "internalType": "uint256",
          "name": "id",
          "type": "uint256"
        }
      ],
      "name": "balanceOf",
      "outputs": [
        {
          "internalType": "uint256",
          "name": "",
          "type": "uint256"
        }
      ],
      "stateMutability": "view",
      "type": "function"
    },
    {
      "inputs": [
        {
          "internalType": "address[]",
          "name": "accounts",
          "type": "address[]"
        },
        {
          "internalType": "uint256[]",
          "name": "ids",
          "type": "uint256[]"
        }
      ],
      "name": "balanceOfBatch",
      "outputs": [
        {
          "internalType": "uint256[]",
          "name": "",
          "type": "uint256[]"
        }
      ],
      "stateMutability": "view",
      "type": "function"
    },
    {
      "inputs": [
        {
          "internalType": "uint256",
          "name": "amount",
          "type": "uint256"
        }
      ],
      "name": "burnShardForFragments",
      "outputs": [],
      "stateMutability": "nonpayable",
      "type": "function"
    },
    {
      "inputs": [
        {
          "internalType": "uint256",
          "name": "seekerId",
          "type": "uint256"
        },
        {
          "internalType": "uint256",
          "name": "amount",
          "type": "uint256"
        }
      ],
      "name": "burnShardForPower",
      "outputs": [],
      "stateMutability": "nonpayable",
      "type": "function"
    },
    {
      "inputs": [
        {
          "internalType": "string",
          "name": "_newURI",
          "type": "string"
        }
      ],
      "name": "changeURI",
      "outputs": [],
      "stateMutability": "nonpayable",
      "type": "function"
    },
    {
      "inputs": [],
      "name": "claimAll",
      "outputs": [],
      "stateMutability": "nonpayable",
      "type": "function"
    },
    {
      "inputs": [
        {
          "internalType": "uint256",
          "name": "",
          "type": "uint256"
        }
      ],
      "name": "claimedAirdropBySeekerId",
      "outputs": [
        {
          "internalType": "bool",
          "name": "",
          "type": "bool"
        }
      ],
      "stateMutability": "view",
      "type": "function"
    },
    {
      "inputs": [
        {
          "internalType": "uint256",
          "name": "",
          "type": "uint256"
        }
      ],
      "name": "cloinDeposits",
      "outputs": [
        {
          "internalType": "address",
          "name": "depositor",
          "type": "address"
        },
        {
          "internalType": "uint16",
          "name": "amount",
          "type": "uint16"
        },
        {
          "internalType": "uint80",
          "name": "blockNumber",
          "type": "uint80"
        }
      ],
      "stateMutability": "view",
      "type": "function"
    },
    {
      "inputs": [],
      "name": "contractURI",
      "outputs": [
        {
          "internalType": "string",
          "name": "",
          "type": "string"
        }
      ],
      "stateMutability": "view",
      "type": "function"
    },
    {
      "inputs": [],
      "name": "gameStarted",
      "outputs": [
        {
          "internalType": "bool",
          "name": "",
          "type": "bool"
        }
      ],
      "stateMutability": "view",
      "type": "function"
    },
    {
      "inputs": [
        {
          "internalType": "uint256",
          "name": "_id",
          "type": "uint256"
        }
      ],
      "name": "getAirdropStatus",
      "outputs": [
        {
          "internalType": "bool",
          "name": "",
          "type": "bool"
        }
      ],
      "stateMutability": "view",
      "type": "function"
    },
    {
      "inputs": [
        {
          "internalType": "address",
          "name": "_user",
          "type": "address"
        }
      ],
      "name": "getPendingWithdrawal",
      "outputs": [
        {
          "internalType": "uint256[3]",
          "name": "",
          "type": "uint256[3]"
        }
      ],
      "stateMutability": "view",
      "type": "function"
    },
    {
      "inputs": [],
      "name": "getSeizureCount",
      "outputs": [
        {
          "internalType": "uint256",
          "name": "",
          "type": "uint256"
        }
      ],
      "stateMutability": "view",
      "type": "function"
    },
    {
      "inputs": [
        {
          "internalType": "address",
          "name": "account",
          "type": "address"
        },
        {
          "internalType": "address",
          "name": "operator",
          "type": "address"
        }
      ],
      "name": "isApprovedForAll",
      "outputs": [
        {
          "internalType": "bool",
          "name": "",
          "type": "bool"
        }
      ],
      "stateMutability": "view",
      "type": "function"
    },
    {
      "inputs": [
        {
          "internalType": "uint256",
          "name": "amount",
          "type": "uint256"
        }
      ],
      "name": "keeperShardMint",
      "outputs": [],
      "stateMutability": "nonpayable",
      "type": "function"
    },
    {
      "inputs": [],
      "name": "owner",
      "outputs": [
        {
          "internalType": "address",
          "name": "",
          "type": "address"
        }
      ],
      "stateMutability": "view",
      "type": "function"
    },
    {
      "inputs": [
        {
          "internalType": "address",
          "name": "",
          "type": "address"
        }
      ],
      "name": "pendingWithdrawals",
      "outputs": [
        {
          "internalType": "uint224",
          "name": "_withdrawValue",
          "type": "uint224"
        },
        {
          "internalType": "uint16",
          "name": "_shardOwed",
          "type": "uint16"
        },
        {
          "internalType": "uint16",
          "name": "_seekersOwed",
          "type": "uint16"
        }
      ],
      "stateMutability": "view",
      "type": "function"
    },
    {
      "inputs": [],
      "name": "prize",
      "outputs": [
        {
          "internalType": "uint256",
          "name": "",
          "type": "uint256"
        }
      ],
      "stateMutability": "view",
      "type": "function"
    },
    {
      "inputs": [],
      "name": "released",
      "outputs": [
        {
          "internalType": "bool",
          "name": "",
          "type": "bool"
        }
      ],
      "stateMutability": "view",
      "type": "function"
    },
    {
      "inputs": [],
      "name": "renounceOwnership",
      "outputs": [],
      "stateMutability": "nonpayable",
      "type": "function"
    },
    {
      "inputs": [
        {
          "internalType": "address",
          "name": "from",
          "type": "address"
        },
        {
          "internalType": "address",
          "name": "to",
          "type": "address"
        },
        {
          "internalType": "uint256[]",
          "name": "ids",
          "type": "uint256[]"
        },
        {
          "internalType": "uint256[]",
          "name": "amounts",
          "type": "uint256[]"
        },
        {
          "internalType": "bytes",
          "name": "data",
          "type": "bytes"
        }
      ],
      "name": "safeBatchTransferFrom",
      "outputs": [],
      "stateMutability": "nonpayable",
      "type": "function"
    },
    {
      "inputs": [
        {
          "internalType": "address",
          "name": "from",
          "type": "address"
        },
        {
          "internalType": "address",
          "name": "to",
          "type": "address"
        },
        {
          "internalType": "uint256",
          "name": "id",
          "type": "uint256"
        },
        {
          "internalType": "uint256",
          "name": "amount",
          "type": "uint256"
        },
        {
          "internalType": "bytes",
          "name": "data",
          "type": "bytes"
        }
      ],
      "name": "safeTransferFrom",
      "outputs": [],
      "stateMutability": "nonpayable",
      "type": "function"
    },
    {
      "inputs": [],
      "name": "seekers",
      "outputs": [
        {
          "internalType": "contract ISeekers",
          "name": "",
          "type": "address"
        }
      ],
      "stateMutability": "view",
      "type": "function"
    },
    {
      "inputs": [],
      "name": "seize",
      "outputs": [],
      "stateMutability": "payable",
      "type": "function"
    },
    {
      "inputs": [],
      "name": "seizureCount",
      "outputs": [
        {
          "internalType": "uint256",
          "name": "_value",
          "type": "uint256"
        }
      ],
      "stateMutability": "view",
      "type": "function"
    },
    {
      "inputs": [],
      "name": "seizureStake",
      "outputs": [
        {
          "internalType": "uint256",
          "name": "",
          "type": "uint256"
        }
      ],
      "stateMutability": "view",
      "type": "function"
    },
    {
      "inputs": [
        {
          "internalType": "address",
          "name": "operator",
          "type": "address"
        },
        {
          "internalType": "bool",
          "name": "approved",
          "type": "bool"
        }
      ],
      "name": "setApprovalForAll",
      "outputs": [],
      "stateMutability": "nonpayable",
      "type": "function"
    },
    {
      "inputs": [
        {
          "internalType": "string",
          "name": "newContractURI",
          "type": "string"
        }
      ],
      "name": "setContractURI",
      "outputs": [],
      "stateMutability": "nonpayable",
      "type": "function"
    },
    {
      "inputs": [],
      "name": "shardSpendable",
      "outputs": [
        {
          "internalType": "bool",
          "name": "",
          "type": "bool"
        }
      ],
      "stateMutability": "view",
      "type": "function"
    },
    {
      "inputs": [
        {
          "internalType": "uint256",
          "name": "amount",
          "type": "uint256"
        }
      ],
      "name": "stakeShardForCloin",
      "outputs": [],
      "stateMutability": "nonpayable",
      "type": "function"
    },
    {
      "inputs": [],
      "name": "startGame",
      "outputs": [],
      "stateMutability": "nonpayable",
      "type": "function"
    },
    {
      "inputs": [
        {
          "internalType": "bytes4",
          "name": "interfaceId",
          "type": "bytes4"
        }
      ],
      "name": "supportsInterface",
      "outputs": [
        {
          "internalType": "bool",
          "name": "",
          "type": "bool"
        }
      ],
      "stateMutability": "view",
      "type": "function"
    },
    {
      "inputs": [
        {
          "internalType": "address",
          "name": "newOwner",
          "type": "address"
        }
      ],
      "name": "transferOwnership",
      "outputs": [],
      "stateMutability": "nonpayable",
      "type": "function"
    },
    {
      "inputs": [
        {
          "internalType": "uint256",
          "name": "",
          "type": "uint256"
        }
      ],
      "name": "uri",
      "outputs": [
        {
          "internalType": "string",
          "name": "",
          "type": "string"
        }
      ],
      "stateMutability": "view",
      "type": "function"
    },
    {
      "stateMutability": "payable",
      "type": "receive"
    }
  ],
  "bytecode": "0x60806040526006805463ffffffff60a01b1916905565048c2739500060085560006009819055600a819055600b553480156200003a57600080fd5b5060405162004226380380620042268339810160408190526200005d9162000695565b6040518060600160405280602e8152602001620041f8602e9139620000828162000139565b506200008e3362000152565b6001600481905550620000c733600060016040518060400160405280600381526020016203078360ec1b815250620001a460201b60201c565b60068054336001600160a01b031991821617909155600f805482166001600160a01b0385811691909117909155601080549092169083161790556040805160608101909152602a808252620041ce602083013980516200013091600591602090910190620005d2565b50505062000935565b80516200014e906002906020840190620005d2565b5050565b600380546001600160a01b038381166001600160a01b0319831681179093556040519116919082907f8be0079c531659141344cd1fd0a4f28419497f9722a3daafe3b4186f6b6457e090600090a35050565b6001600160a01b0384166200020a5760405162461bcd60e51b815260206004820152602160248201527f455243313135353a206d696e7420746f20746865207a65726f206164647265736044820152607360f81b60648201526084015b60405180910390fd5b3362000230816000876200021e88620002cb565b6200022988620002cb565b8762000319565b6000848152602081815260408083206001600160a01b03891684529091528120805485929062000262908490620006e3565b909155505060408051858152602081018590526001600160a01b0380881692600092918516917fc3d58168c5ae7397731d063d5bbf3d657854427343f4c083240f7aacaa2d0f62910160405180910390a4620002c481600087878787620003f6565b5050505050565b60408051600180825281830190925260609160009190602080830190803683370190505090508281600081518110620003085762000308620006fe565b602090810291909101015292915050565b600654600160a01b900460ff16620003d35760005b8351811015620003d15760008482815181106200034f576200034f620006fe565b60200260200101511415620003bc576001600160a01b03861615801590620003815750600654600160b01b900460ff16155b15620003bc5760405162461bcd60e51b8152602060048201526009602482015268114b4c0c0c0b4c0c0d60ba1b604482015260640162000201565b80620003c88162000714565b9150506200032e565b505b620003ee868686868686620003ee60201b62001c0d1760201c565b505050505050565b62000415846001600160a01b0316620005cc60201b62001c151760201c565b15620003ee5760405163f23a6e6160e01b81526001600160a01b0385169063f23a6e619062000451908990899088908890889060040162000782565b6020604051808303816000875af19250505080156200048f575060408051601f3d908101601f191682019092526200048c91810190620007c9565b60015b62000550576200049e620007fc565b806308c379a01415620004df5750620004b662000854565b80620004c35750620004e1565b8060405162461bcd60e51b8152600401620002019190620008e3565b505b60405162461bcd60e51b815260206004820152603460248201527f455243313135353a207472616e7366657220746f206e6f6e204552433131353560448201527f526563656976657220696d706c656d656e746572000000000000000000000000606482015260840162000201565b6001600160e01b0319811663f23a6e6160e01b14620005c35760405162461bcd60e51b815260206004820152602860248201527f455243313135353a204552433131353552656365697665722072656a656374656044820152676420746f6b656e7360c01b606482015260840162000201565b50505050505050565b3b151590565b828054620005e090620008f8565b90600052602060002090601f0160209004810192826200060457600085556200064f565b82601f106200061f57805160ff19168380011785556200064f565b828001600101855582156200064f579182015b828111156200064f57825182559160200191906001019062000632565b506200065d92915062000661565b5090565b5b808211156200065d576000815560010162000662565b80516001600160a01b03811681146200069057600080fd5b919050565b60008060408385031215620006a957600080fd5b620006b48362000678565b9150620006c46020840162000678565b90509250929050565b634e487b7160e01b600052601160045260246000fd5b60008219821115620006f957620006f9620006cd565b500190565b634e487b7160e01b600052603260045260246000fd5b60006000198214156200072b576200072b620006cd565b5060010190565b6000815180845260005b818110156200075a576020818501810151868301820152016200073c565b818111156200076d576000602083870101525b50601f01601f19169290920160200192915050565b6001600160a01b03868116825285166020820152604081018490526060810183905260a060808201819052600090620007be9083018462000732565b979650505050505050565b600060208284031215620007dc57600080fd5b81516001600160e01b031981168114620007f557600080fd5b9392505050565b600060033d1115620008165760046000803e5060005160e01c5b90565b601f8201601f191681016001600160401b03811182821017156200084d57634e487b7160e01b600052604160045260246000fd5b6040525050565b600060443d1015620008635790565b6040516003193d81016004833e81513d6001600160401b0380831160248401831017156200089357505050505090565b8285019150815181811115620008ac5750505050505090565b843d8701016020828501011115620008c75750505050505090565b620008d86020828601018762000819565b509095945050505050565b602081526000620007f5602083018462000732565b600181811c908216806200090d57607f821691505b602082108114156200092f57634e487b7160e01b600052602260045260246000fd5b50919050565b61388980620009456000396000f3fe6080604052600436106102965760003560e01c80637ee8b2f81161015a578063d1058e59116100c1578063e985e9c51161007a578063e985e9c5146107f3578063f0b0e8b11461083c578063f242432a14610852578063f2e3a6d014610872578063f2fde38b14610892578063f3f43703146108b257600080fd5b8063d1058e591461075e578063d65ab5f214610773578063dd6d8a1514610788578063e3ac5d26146107a8578063e5e01c11146107be578063e8a3d485146107de57600080fd5b8063988c3fd911610113578063988c3fd9146106c8578063a22cb465146106e9578063a4ba691914610709578063b5ebfdc31461071e578063bbdf79b014610734578063c331b8c81461074957600080fd5b80637ee8b2f8146105d15780637fb0ba58146105fe578063824be390146106155780638da5cb5b14610669578063938e3d7b1461068757806396132521146106a757600080fd5b80634e1273f4116101fe5780635e123ce4116101b75780635e123ce414610548578063605297e1146105695780636b487a1e14610571578063715018a6146105875780637701ada61461059c5780637b0ba284146105bc57600080fd5b80634e1273f41461048a578063536363fe146104b757806353a9fd61146104cc57806354a14201146104e257806355999083146105025780635a5bce221461053257600080fd5b80632285fcba116102505780632285fcba146103c1578063244b21f2146103f95780632eb2c2d61461040f57806333e645221461042f5780633e709c701461045f57806340ebe5bc1461047557600080fd5b8062fdd58e146102d957806301ffc9a71461030c57806303ca64a61461033c5780630b99c548146103525780630c3dedff146103745780630e89341c1461039457600080fd5b366102d45760405162461bcd60e51b8152602060048201526009602482015268452d3030302d30303960b81b60448201526064015b60405180910390fd5b600080fd5b3480156102e557600080fd5b506102f96102f4366004612de3565b610929565b6040519081526020015b60405180910390f35b34801561031857600080fd5b5061032c610327366004612e25565b6109bb565b6040519015158152602001610303565b34801561034857600080fd5b506102f961045781565b34801561035e57600080fd5b5061037261036d366004612e42565b610a0d565b005b34801561038057600080fd5b5061037261038f366004612e42565b610b79565b3480156103a057600080fd5b506103b46103af366004612e42565b610d9f565b6040516103039190612ea8565b3480156103cd57600080fd5b50600f546103e1906001600160a01b031681565b6040516001600160a01b039091168152602001610303565b34801561040557600080fd5b506102f961030981565b34801561041b57600080fd5b5061037261042a366004613007565b610e33565b34801561043b57600080fd5b5061032c61044a366004612e42565b6000908152600d602052604090205460ff1690565b34801561046b57600080fd5b506102f961022b81565b34801561048157600080fd5b506102f9600181565b34801561049657600080fd5b506104aa6104a53660046130b5565b610eca565b60405161030391906131bd565b3480156104c357600080fd5b506102f9610ff4565b3480156104d857600080fd5b506102f961029a81565b3480156104ee57600080fd5b506006546103e1906001600160a01b031681565b34801561050e57600080fd5b5061032c61051d366004612e42565b600d6020526000908152604090205460ff1681565b34801561053e57600080fd5b506102f961014d81565b34801561055457600080fd5b5060065461032c90600160b81b900460ff1681565b610372611004565b34801561057d57600080fd5b506102f961037881565b34801561059357600080fd5b506103726111eb565b3480156105a857600080fd5b506103726105b7366004612e42565b611221565b3480156105c857600080fd5b506102f9603c81565b3480156105dd57600080fd5b506105f16105ec3660046131d0565b6112b7565b60405161030391906131ed565b34801561060a57600080fd5b506007546102f99081565b34801561062157600080fd5b50610635610630366004612e42565b611315565b604080516001600160a01b03909416845261ffff909216602084015269ffffffffffffffffffff1690820152606001610303565b34801561067557600080fd5b506003546001600160a01b03166103e1565b34801561069357600080fd5b506103726106a236600461321e565b61135f565b3480156106b357600080fd5b5060065461032c90600160a01b900460ff1681565b3480156106d457600080fd5b5060065461032c90600160a81b900460ff1681565b3480156106f557600080fd5b50610372610704366004613290565b61139a565b34801561071557600080fd5b506102f9600581565b34801561072a57600080fd5b506102f960085481565b34801561074057600080fd5b506102f9600081565b34801561075557600080fd5b506102f9606481565b34801561076a57600080fd5b50610372611471565b34801561077f57600080fd5b506103726116f5565b34801561079457600080fd5b506103726107a33660046132ce565b611734565b3480156107b457600080fd5b506102f9600a5481565b3480156107ca57600080fd5b506103726107d936600461321e565b61185c565b3480156107ea57600080fd5b506103b46118c9565b3480156107ff57600080fd5b5061032c61080e3660046132f0565b6001600160a01b03918216600090815260016020908152604080832093909416825291909152205460ff1690565b34801561084857600080fd5b506102f96101bc81565b34801561085e57600080fd5b5061037261086d36600461331e565b61195b565b34801561087e57600080fd5b5061037261088d366004612e42565b6119e2565b34801561089e57600080fd5b506103726108ad3660046131d0565b611b75565b3480156108be57600080fd5b506108ff6108cd3660046131d0565b600c602052600090815260409020546001600160e01b0381169061ffff600160e01b8204811691600160f01b90041683565b604080516001600160e01b03909416845261ffff9283166020850152911690820152606001610303565b60006001600160a01b0383166109955760405162461bcd60e51b815260206004820152602b60248201527f455243313135353a2062616c616e636520717565727920666f7220746865207a60448201526a65726f206164647265737360a81b60648201526084016102cb565b506000908152602081815260408083206001600160a01b03949094168352929052205490565b60006001600160e01b03198216636cdb3d1360e11b14806109ec57506001600160e01b031982166303a24d0760e21b145b80610a0757506301ffc9a760e01b6001600160e01b03198316145b92915050565b60026004541415610a305760405162461bcd60e51b81526004016102cb90613387565b6002600455600654600160a81b900460ff161515600114610a635760405162461bcd60e51b81526004016102cb906133be565b60008111610a835760405162461bcd60e51b81526004016102cb906133e1565b80610a8f336001610929565b1015610aad5760405162461bcd60e51b81526004016102cb90613404565b610ab860058261343d565b15610af15760405162461bcd60e51b815260206004820152600960248201526808a5a6060605a6060760bb1b60448201526064016102cb565b6000610afe600583613467565b9050610b0c33600184611c1b565b60105460405163670b68b360e11b8152336004820152602481018390526001600160a01b039091169063ce16d16690604401600060405180830381600087803b158015610b5857600080fd5b505af1158015610b6c573d6000803e3d6000fd5b5050600160045550505050565b60026004541415610b9c5760405162461bcd60e51b81526004016102cb90613387565b6002600455600654600160a01b900460ff161515600114610beb5760405162461bcd60e51b8152602060048201526009602482015268114b4c0c0c0b4c0c0d60ba1b60448201526064016102cb565b600f546040516331a9108f60e11b81526004810183905233916001600160a01b031690636352211e90602401602060405180830381865afa158015610c34573d6000803e3d6000fd5b505050506040513d601f19601f82011682018060405250810190610c58919061347b565b6001600160a01b031614610c9a5760405162461bcd60e51b8152602060048201526009602482015268452d3030302d30313160b81b60448201526064016102cb565b6000818152600d602052604090205460ff1615610ce55760405162461bcd60e51b815260206004820152600960248201526822969818181698189960b91b60448201526064016102cb565b6000818152600d60205260408120805460ff1916600117905580610d0a600484611d94565b90506000610d19600483611d94565b905080610d27836001613498565b610d319190613498565b92507f574d48e4ee52f43b5e22c7df8072b47c861cf56c56d7b13812310531f4ffc6fb84604051610d6491815260200190565b60405180910390a1610d94336001856040518060400160405280600381526020016203078360ec1b815250611e17565b505060016004555050565b606060028054610dae906134b0565b80601f0160208091040260200160405190810160405280929190818152602001828054610dda906134b0565b8015610e275780601f10610dfc57610100808354040283529160200191610e27565b820191906000526020600020905b815481529060010190602001808311610e0a57829003601f168201915b50505050509050919050565b6001600160a01b038516331480610e4f5750610e4f853361080e565b610eb65760405162461bcd60e51b815260206004820152603260248201527f455243313135353a207472616e736665722063616c6c6572206973206e6f74206044820152711bdddb995c881b9bdc88185c1c1c9bdd995960721b60648201526084016102cb565b610ec38585858585611f27565b5050505050565b60608151835114610f2f5760405162461bcd60e51b815260206004820152602960248201527f455243313135353a206163636f756e747320616e6420696473206c656e677468604482015268040dad2e6dac2e8c6d60bb1b60648201526084016102cb565b6000835167ffffffffffffffff811115610f4b57610f4b612ebb565b604051908082528060200260200182016040528015610f74578160200160208202803683370190505b50905060005b8451811015610fec57610fbf858281518110610f9857610f986134eb565b6020026020010151858381518110610fb257610fb26134eb565b6020026020010151610929565b828281518110610fd157610fd16134eb565b6020908102919091010152610fe581613501565b9050610f7a565b509392505050565b6000610fff60075490565b905090565b600260045414156110275760405162461bcd60e51b81526004016102cb90613387565b6002600455600654600160b81b900460ff166110715760405162461bcd60e51b8152602060048201526009602482015268452d3030302d30313360b81b60448201526064016102cb565b600654600160a01b900460ff16156110b75760405162461bcd60e51b8152602060048201526009602482015268452d3030302d30303160b81b60448201526064016102cb565b60085434146110f45760405162461bcd60e51b815260206004820152600960248201526822969818181698181960b91b60448201526064016102cb565b6006546001600160a01b031633141561113b5760405162461bcd60e51b8152602060048201526009602482015268452d3030302d30303360b81b60448201526064016102cb565b6006546001600160a01b031633611156600780546001019055565b611160828261210a565b61116c82600954612188565b7fcbe7cd1556c10b870bde340c9b25b4ea2d3709a1da0e63de8a9a1a18a28894a8828234600854600a5461119f60075490565b604080516001600160a01b039788168152969095166020870152938501929092526060840152608083015260a082015260c00160405180910390a16111e261232a565b50506001600455565b6003546001600160a01b031633146112155760405162461bcd60e51b81526004016102cb9061351c565b61121f6000612642565b565b6003546001600160a01b0316331461124b5760405162461bcd60e51b81526004016102cb9061351c565b606f81600b5461125b9190613498565b111561126657600080fd5b6000811161127357600080fd5b80600b60008282546112859190613498565b925050819055506112b4336001836040518060400160405280600381526020016203078360ec1b815250611e17565b50565b6112bf612ca3565b50604080516060810182526001600160a01b039092166000818152600c6020818152848320546001600160e01b038116875261ffff600160e01b82048116838901529490935252600160f01b9004169082015290565b600e818154811061132557600080fd5b6000918252602090912001546001600160a01b0381169150600160a01b810461ffff1690600160b01b900469ffffffffffffffffffff1683565b6003546001600160a01b031633146113895760405162461bcd60e51b81526004016102cb9061351c565b61139560058383612cc1565b505050565b336001600160a01b03831614156114055760405162461bcd60e51b815260206004820152602960248201527f455243313135353a2073657474696e6720617070726f76616c20737461747573604482015268103337b91039b2b63360b91b60648201526084016102cb565b3360008181526001602090815260408083206001600160a01b03871680855290835292819020805460ff191686151590811790915590519081529192917f17307eab39ab6107e8899845ad3d59bd9653f200f220920489ca2b5937696c31910160405180910390a35050565b600260045414156114945760405162461bcd60e51b81526004016102cb90613387565b6002600455336000908152600c60205260409020546001600160e01b0381169061ffff600160e01b8204811691600160f01b900416821580156114d5575081155b80156114df575080155b156115185760405162461bcd60e51b81526020600482015260096024820152680452d3030302d3031360bc1b60448201526064016102cb565b82156115be57336000818152600c602052604080822080546001600160e01b03191690555190919085908381818185875af1925050503d806000811461157a576040519150601f19603f3d011682016040523d82523d6000602084013e61157f565b606091505b50509050806115bc5760405162461bcd60e51b8152602060048201526009602482015268452d3030302d30303960b81b60448201526064016102cb565b505b811561160957336000818152600c6020908152604091829020805461ffff60e01b191690558151808301909252600382526203078360ec1b9082015261160991906001908590611e17565b80156116b757336000908152600c6020526040812080546001600160f01b031690555b818110156116b557600f546040516394a3b4d960e01b81523360048201526001600160a01b03909116906394a3b4d9906024016020604051808303816000875af115801561167e573d6000803e3d6000fd5b505050506040513d601f19601f820116820180604052508101906116a29190613551565b50806116ad81613501565b91505061162c565b505b6040513381527fa81402d20429b2b3224cce54a32d277a0c31233c545221acf4e01cce7824d8e5906020015b60405180910390a15050600160045550565b6003546001600160a01b0316331461171f5760405162461bcd60e51b81526004016102cb9061351c565b6006805460ff60b81b1916600160b81b179055565b600260045414156117575760405162461bcd60e51b81526004016102cb90613387565b6002600455600654600160a81b900460ff16151560011461178a5760405162461bcd60e51b81526004016102cb906133be565b600081116117aa5760405162461bcd60e51b81526004016102cb906133e1565b806117b6336001610929565b10156117d45760405162461bcd60e51b81526004016102cb90613404565b6117e033600183611c1b565b60006117ed60088361356a565b600f54604051628da28b60e21b815260048101869052602481018390529192506001600160a01b0316906302368a2c90604401600060405180830381600087803b15801561183a57600080fd5b505af115801561184e573d6000803e3d6000fd5b505060016004555050505050565b6003546001600160a01b031633146118865760405162461bcd60e51b81526004016102cb9061351c565b6118c582828080601f01602080910402602001604051908101604052809392919081815260200183838082843760009201919091525061269492505050565b5050565b6060600580546118d8906134b0565b80601f0160208091040260200160405190810160405280929190818152602001828054611904906134b0565b80156119515780601f1061192657610100808354040283529160200191611951565b820191906000526020600020905b81548152906001019060200180831161193457829003601f168201915b5050505050905090565b6001600160a01b0385163314806119775750611977853361080e565b6119d55760405162461bcd60e51b815260206004820152602960248201527f455243313135353a2063616c6c6572206973206e6f74206f776e6572206e6f7260448201526808185c1c1c9bdd995960ba1b60648201526084016102cb565b610ec385858585856126a7565b60026004541415611a055760405162461bcd60e51b81526004016102cb90613387565b6002600455600654600160a81b900460ff161515600114611a385760405162461bcd60e51b81526004016102cb906133be565b60008111611a585760405162461bcd60e51b81526004016102cb906133e1565b80611a64336001610929565b1015611a825760405162461bcd60e51b81526004016102cb90613404565b611a8e33600183611c1b565b60408051606080820183523380835261ffff858116602080860182815269ffffffffffffffffffff438116888a01908152600e805460018101825560008290528a517fbb7b4a454dc3493923482f07822329ed19e8244eff582cc204f8554c3620c3fd909101805495519351909416600160b01b026001600160b01b0393909816600160a01b026001600160b01b03199095166001600160a01b039091161793909317169490941790935591548651938452918301529381018490529192917fb84ac8250b1ecd425f9dcd8f82dfbd7ea45a1d2f3c97abc502c7baa929781ac191016116e3565b6003546001600160a01b03163314611b9f5760405162461bcd60e51b81526004016102cb9061351c565b6001600160a01b038116611c045760405162461bcd60e51b815260206004820152602660248201527f4f776e61626c653a206e6577206f776e657220697320746865207a65726f206160448201526564647265737360d01b60648201526084016102cb565b6112b481612642565b505050505050565b3b151590565b6001600160a01b038316611c7d5760405162461bcd60e51b815260206004820152602360248201527f455243313135353a206275726e2066726f6d20746865207a65726f206164647260448201526265737360e81b60648201526084016102cb565b33611cac81856000611c8e876127c4565b611c97876127c4565b6040518060200160405280600081525061280f565b6000838152602081815260408083206001600160a01b038816845290915290205482811015611d295760405162461bcd60e51b8152602060048201526024808201527f455243313135353a206275726e20616d6f756e7420657863656564732062616c604482015263616e636560e01b60648201526084016102cb565b6000848152602081815260408083206001600160a01b03898116808652918452828520888703905582518981529384018890529092908616917fc3d58168c5ae7397731d063d5bbf3d657854427343f4c083240f7aacaa2d0f62910160405180910390a45050505050565b6000808383611da4600143613589565b604080516020810194909452830191909152406060808301919091526bffffffffffffffffffffffff1941821b811660808401524460948401523390911b1660b482015260c80160408051601f1981840301815291905280516020909101209050611e0f848261343d565b949350505050565b6001600160a01b038416611e775760405162461bcd60e51b815260206004820152602160248201527f455243313135353a206d696e7420746f20746865207a65726f206164647265736044820152607360f81b60648201526084016102cb565b33611e9781600087611e88886127c4565b611e91886127c4565b8761280f565b6000848152602081815260408083206001600160a01b038916845290915281208054859290611ec7908490613498565b909155505060408051858152602081018590526001600160a01b0380881692600092918516917fc3d58168c5ae7397731d063d5bbf3d657854427343f4c083240f7aacaa2d0f62910160405180910390a4610ec3816000878787876128c2565b8151835114611f895760405162461bcd60e51b815260206004820152602860248201527f455243313135353a2069647320616e6420616d6f756e7473206c656e677468206044820152670dad2e6dac2e8c6d60c31b60648201526084016102cb565b6001600160a01b038416611faf5760405162461bcd60e51b81526004016102cb906135a0565b33611fbe81878787878761280f565b60005b84518110156120a4576000858281518110611fde57611fde6134eb565b602002602001015190506000858381518110611ffc57611ffc6134eb565b602090810291909101810151600084815280835260408082206001600160a01b038e16835290935291909120549091508181101561204c5760405162461bcd60e51b81526004016102cb906135e5565b6000838152602081815260408083206001600160a01b038e8116855292528083208585039055908b16825281208054849290612089908490613498565b925050819055505050508061209d90613501565b9050611fc1565b50846001600160a01b0316866001600160a01b0316826001600160a01b03167f4a39dc06d4c0dbc64b70af90fd698a233a518aa5d07e595d983b8c0526c8f7fb87876040516120f492919061362f565b60405180910390a4611c0d818787878787612a1e565b6006805460ff60b01b1916600160b01b17905560408051808201909152600381526203078360ec1b602082015261214a90839083906000906001906126a7565b6006805460ff60b01b191690819055600160a01b900460ff166118c557600680546001600160a01b0383166001600160a01b03199091161790555050565b60075460011461228f5760006127106121a260648461356a565b6121ac9190613467565b905080600a60008282546121c09190613498565b90915550600090506121d28284613589565b6001600160a01b0385166000908152600c60205260408120805492935083929091906122089084906001600160e01b031661365d565b92506101000a8154816001600160e01b0302191690836001600160e01b031602179055506000612239600954612ad9565b6001600160a01b0386166000908152600c6020526040902080549192508291601c90612271908490600160e01b900461ffff16613688565b92506101000a81548161ffff021916908361ffff1602179055505050505b600654600160a01b900460ff166118c5576001600160a01b0382166000908152600c60205260409020805460019190601e906122d7908490600160f01b900461ffff16613688565b92506101000a81548161ffff021916908361ffff160217905550600854600981905550612710603c60085461230c919061356a565b6123169190613467565b6008546123239190613498565b6008555050565b600061233560075490565b905061014d8114156123aa57600f60009054906101000a90046001600160a01b03166001600160a01b03166310b127096040518163ffffffff1660e01b8152600401600060405180830381600087803b15801561239157600080fd5b505af11580156123a5573d6000803e3d6000fd5b505050505b61029a81141561241d57600f60009054906101000a90046001600160a01b03166001600160a01b031663dec3a74c6040518163ffffffff1660e01b8152600401600060405180830381600087803b15801561240457600080fd5b505af1158015612418573d6000803e3d6000fd5b505050505b61030981141561249057600f60009054906101000a90046001600160a01b03166001600160a01b0316636e39a3456040518163ffffffff1660e01b8152600401600060405180830381600087803b15801561247757600080fd5b505af115801561248b573d6000803e3d6000fd5b505050505b61037881141561250357600f60009054906101000a90046001600160a01b03166001600160a01b031663fe0194626040518163ffffffff1660e01b8152600401600060405180830381600087803b1580156124ea57600080fd5b505af11580156124fe573d6000803e3d6000fd5b505050505b61030981111561257657600f60009054906101000a90046001600160a01b03166001600160a01b031663b085a3f76040518163ffffffff1660e01b8152600401600060405180830381600087803b15801561255d57600080fd5b505af1158015612571573d6000803e3d6000fd5b505050505b6101bc8114156125e957600f60009054906101000a90046001600160a01b03166001600160a01b03166302a1b9e96040518163ffffffff1660e01b8152600401600060405180830381600087803b1580156125d057600080fd5b505af11580156125e4573d6000803e3d6000fd5b505050505b61022b811415612630576006805460ff60a81b1916600160a81b1790556040517f4edc15228784eebfc5aeba6b9908179c0dfd601a62756f6d3e2d3bb1c52c3c0d90600090a15b6104578114156112b4576112b4612b25565b600380546001600160a01b038381166001600160a01b0319831681179093556040519116919082907f8be0079c531659141344cd1fd0a4f28419497f9722a3daafe3b4186f6b6457e090600090a35050565b80516118c5906002906020840190612d45565b6001600160a01b0384166126cd5760405162461bcd60e51b81526004016102cb906135a0565b336126dd818787611e88886127c4565b6000848152602081815260408083206001600160a01b038a1684529091529020548381101561271e5760405162461bcd60e51b81526004016102cb906135e5565b6000858152602081815260408083206001600160a01b038b811685529252808320878503905590881682528120805486929061275b908490613498565b909155505060408051868152602081018690526001600160a01b03808916928a821692918616917fc3d58168c5ae7397731d063d5bbf3d657854427343f4c083240f7aacaa2d0f62910160405180910390a46127bb8288888888886128c2565b50505050505050565b604080516001808252818301909252606091600091906020808301908036833701905050905082816000815181106127fe576127fe6134eb565b602090810291909101015292915050565b600654600160a01b900460ff166128bd5760005b83518110156128bb576000848281518110612840576128406134eb565b602002602001015114156128a9576001600160a01b038616158015906128705750600654600160b01b900460ff16155b156128a95760405162461bcd60e51b8152602060048201526009602482015268114b4c0c0c0b4c0c0d60ba1b60448201526064016102cb565b806128b381613501565b915050612823565b505b611c0d565b6001600160a01b0384163b15611c0d5760405163f23a6e6160e01b81526001600160a01b0385169063f23a6e619061290690899089908890889088906004016136a5565b6020604051808303816000875af1925050508015612941575060408051601f3d908101601f1916820190925261293e918101906136ea565b60015b6129ee5761294d613707565b806308c379a014156129875750612962613723565b8061296d5750612989565b8060405162461bcd60e51b81526004016102cb9190612ea8565b505b60405162461bcd60e51b815260206004820152603460248201527f455243313135353a207472616e7366657220746f206e6f6e20455243313135356044820152732932b1b2b4bb32b91034b6b83632b6b2b73a32b960611b60648201526084016102cb565b6001600160e01b0319811663f23a6e6160e01b146127bb5760405162461bcd60e51b81526004016102cb906137ad565b6001600160a01b0384163b15611c0d5760405163bc197c8160e01b81526001600160a01b0385169063bc197c8190612a6290899089908890889088906004016137f5565b6020604051808303816000875af1925050508015612a9d575060408051601f3d908101601f19168201909252612a9a918101906136ea565b60015b612aa95761294d613707565b6001600160e01b0319811663bc197c8160e01b146127bb5760405162461bcd60e51b81526004016102cb906137ad565b600060016005600a670de0b6b3a7640000612af68661271061356a565b612b009190613467565b612b0a919061356a565b612b149190613467565b612b1e9082613498565b9392505050565b6006805460ff60a01b1916600160a01b1790556040513381527f20b865e8d27b91be16817d18895036215de0fd433d4f964b1c86257cc52587df9060200160405180910390a1612b753334612188565b601060009054906101000a90046001600160a01b03166001600160a01b03166392f393f8600a546040518263ffffffff1660e01b81526004016000604051808303818588803b158015612bc757600080fd5b505af1158015612bdb573d6000803e3d6000fd5b50506010546040805163edd47abf60e01b815290516001600160a01b03909216945063edd47abf9350600480820193506000929182900301818387803b158015612c2457600080fd5b505af1158015612c38573d6000803e3d6000fd5b50506000600a555050600f546040516001626d26a760e11b031981523360048201526001600160a01b039091169063ff25b2b290602401600060405180830381600087803b158015612c8957600080fd5b505af1158015612c9d573d6000803e3d6000fd5b50505050565b60405180606001604052806003906020820280368337509192915050565b828054612ccd906134b0565b90600052602060002090601f016020900481019282612cef5760008555612d35565b82601f10612d085782800160ff19823516178555612d35565b82800160010185558215612d35579182015b82811115612d35578235825591602001919060010190612d1a565b50612d41929150612db9565b5090565b828054612d51906134b0565b90600052602060002090601f016020900481019282612d735760008555612d35565b82601f10612d8c57805160ff1916838001178555612d35565b82800160010185558215612d35579182015b82811115612d35578251825591602001919060010190612d9e565b5b80821115612d415760008155600101612dba565b6001600160a01b03811681146112b457600080fd5b60008060408385031215612df657600080fd5b8235612e0181612dce565b946020939093013593505050565b6001600160e01b0319811681146112b457600080fd5b600060208284031215612e3757600080fd5b8135612b1e81612e0f565b600060208284031215612e5457600080fd5b5035919050565b6000815180845260005b81811015612e8157602081850181015186830182015201612e65565b81811115612e93576000602083870101525b50601f01601f19169290920160200192915050565b602081526000612b1e6020830184612e5b565b634e487b7160e01b600052604160045260246000fd5b601f8201601f1916810167ffffffffffffffff81118282101715612ef757612ef7612ebb565b6040525050565b600067ffffffffffffffff821115612f1857612f18612ebb565b5060051b60200190565b600082601f830112612f3357600080fd5b81356020612f4082612efe565b604051612f4d8282612ed1565b83815260059390931b8501820192828101915086841115612f6d57600080fd5b8286015b84811015612f885780358352918301918301612f71565b509695505050505050565b600082601f830112612fa457600080fd5b813567ffffffffffffffff811115612fbe57612fbe612ebb565b604051612fd5601f8301601f191660200182612ed1565b818152846020838601011115612fea57600080fd5b816020850160208301376000918101602001919091529392505050565b600080600080600060a0868803121561301f57600080fd5b853561302a81612dce565b9450602086013561303a81612dce565b9350604086013567ffffffffffffffff8082111561305757600080fd5b61306389838a01612f22565b9450606088013591508082111561307957600080fd5b61308589838a01612f22565b9350608088013591508082111561309b57600080fd5b506130a888828901612f93565b9150509295509295909350565b600080604083850312156130c857600080fd5b823567ffffffffffffffff808211156130e057600080fd5b818501915085601f8301126130f457600080fd5b8135602061310182612efe565b60405161310e8282612ed1565b83815260059390931b850182019282810191508984111561312e57600080fd5b948201945b8386101561315557853561314681612dce565b82529482019490820190613133565b9650508601359250508082111561316b57600080fd5b5061317885828601612f22565b9150509250929050565b600081518084526020808501945080840160005b838110156131b257815187529582019590820190600101613196565b509495945050505050565b602081526000612b1e6020830184613182565b6000602082840312156131e257600080fd5b8135612b1e81612dce565b60608101818360005b60038110156132155781518352602092830192909101906001016131f6565b50505092915050565b6000806020838503121561323157600080fd5b823567ffffffffffffffff8082111561324957600080fd5b818501915085601f83011261325d57600080fd5b81358181111561326c57600080fd5b86602082850101111561327e57600080fd5b60209290920196919550909350505050565b600080604083850312156132a357600080fd5b82356132ae81612dce565b9150602083013580151581146132c357600080fd5b809150509250929050565b600080604083850312156132e157600080fd5b50508035926020909101359150565b6000806040838503121561330357600080fd5b823561330e81612dce565b915060208301356132c381612dce565b600080600080600060a0868803121561333657600080fd5b853561334181612dce565b9450602086013561335181612dce565b93506040860135925060608601359150608086013567ffffffffffffffff81111561337b57600080fd5b6130a888828901612f93565b6020808252601f908201527f5265656e7472616e637947756172643a207265656e7472616e742063616c6c00604082015260600190565b602080825260099082015268452d3030302d30303560b81b604082015260600190565b60208082526009908201526822969818181698181b60b91b604082015260600190565b602080825260099082015268452d3030302d30303760b81b604082015260600190565b634e487b7160e01b600052601260045260246000fd5b60008261344c5761344c613427565b500690565b634e487b7160e01b600052601160045260246000fd5b60008261347657613476613427565b500490565b60006020828403121561348d57600080fd5b8151612b1e81612dce565b600082198211156134ab576134ab613451565b500190565b600181811c908216806134c457607f821691505b602082108114156134e557634e487b7160e01b600052602260045260246000fd5b50919050565b634e487b7160e01b600052603260045260246000fd5b600060001982141561351557613515613451565b5060010190565b6020808252818101527f4f776e61626c653a2063616c6c6572206973206e6f7420746865206f776e6572604082015260600190565b60006020828403121561356357600080fd5b5051919050565b600081600019048311821515161561358457613584613451565b500290565b60008282101561359b5761359b613451565b500390565b60208082526025908201527f455243313135353a207472616e7366657220746f20746865207a65726f206164604082015264647265737360d81b606082015260800190565b6020808252602a908201527f455243313135353a20696e73756666696369656e742062616c616e636520666f60408201526939103a3930b739b332b960b11b606082015260800190565b6040815260006136426040830185613182565b82810360208401526136548185613182565b95945050505050565b60006001600160e01b0382811684821680830382111561367f5761367f613451565b01949350505050565b600061ffff80831681851680830382111561367f5761367f613451565b6001600160a01b03868116825285166020820152604081018490526060810183905260a0608082018190526000906136df90830184612e5b565b979650505050505050565b6000602082840312156136fc57600080fd5b8151612b1e81612e0f565b600060033d11156137205760046000803e5060005160e01c5b90565b600060443d10156137315790565b6040516003193d81016004833e81513d67ffffffffffffffff816024840111818411171561376157505050505090565b82850191508151818111156137795750505050505090565b843d87010160208285010111156137935750505050505090565b6137a260208286010187612ed1565b509095945050505050565b60208082526028908201527f455243313135353a204552433131353552656365697665722072656a656374656040820152676420746f6b656e7360c01b606082015260800190565b6001600160a01b0386811682528516602082015260a06040820181905260009061382190830186613182565b82810360608401526138338186613182565b905082810360808401526138478185612e5b565b9897505050505050505056fea264697066735822122079ecc1c51880b0466c5805ca68e4b7be73aa6e7b172595a7fcbb38e7fbaba42f64736f6c634300080a003368747470733a2f2f6170692e636f696e6c616e6465722e6465762f6d6574612f736561736f6e2d6f6e6568747470733a2f2f6170692e636f696e6c616e6465722e6465762f6d6574612f736561736f6e6f6e652f7b69647d",
  "linkReferences": {},
  "deployedLinkReferences": {}
}