{
  "_format": "hh-sol-artifact-1",
  "contractName": "SeasonOne",
  "sourceName": "contracts/SeasonOne.sol",
  "abi": [
    {
      "inputs": [
        {
          "internalType": "address",
          "name": "seekersContract",
          "type": "address"
        },
        {
          "internalType": "address",
          "name": "keepeersVault",
          "type": "address"
        }
      ],
      "stateMutability": "nonpayable",
      "type": "constructor"
    },
    {
      "anonymous": false,
      "inputs": [
        {
          "indexed": false,
          "internalType": "uint256",
          "name": "id",
          "type": "uint256"
        }
      ],
      "name": "AirdropClaim",
      "type": "event"
    },
    {
      "anonymous": false,
      "inputs": [
        {
          "indexed": true,
          "internalType": "address",
          "name": "account",
          "type": "address"
        },
        {
          "indexed": true,
          "internalType": "address",
          "name": "operator",
          "type": "address"
        },
        {
          "indexed": false,
          "internalType": "bool",
          "name": "approved",
          "type": "bool"
        }
      ],
      "name": "ApprovalForAll",
      "type": "event"
    },
    {
      "anonymous": false,
      "inputs": [
        {
          "indexed": false,
          "internalType": "address",
          "name": "claimer",
          "type": "address"
        }
      ],
      "name": "ClaimedAll",
      "type": "event"
    },
    {
      "anonymous": false,
      "inputs": [
        {
          "indexed": false,
          "internalType": "address",
          "name": "depositor",
          "type": "address"
        },
        {
          "indexed": false,
          "internalType": "uint16",
          "name": "amount",
          "type": "uint16"
        },
        {
          "indexed": false,
          "internalType": "uint256",
          "name": "depositIdx",
          "type": "uint256"
        }
      ],
      "name": "NewCloinDeposit",
      "type": "event"
    },
    {
      "anonymous": false,
      "inputs": [
        {
          "indexed": true,
          "internalType": "address",
          "name": "previousOwner",
          "type": "address"
        },
        {
          "indexed": true,
          "internalType": "address",
          "name": "newOwner",
          "type": "address"
        }
      ],
      "name": "OwnershipTransferred",
      "type": "event"
    },
    {
      "anonymous": false,
      "inputs": [
        {
          "indexed": false,
          "internalType": "address",
          "name": "previousOwner",
          "type": "address"
        },
        {
          "indexed": false,
          "internalType": "address",
          "name": "newOwner",
          "type": "address"
        },
        {
          "indexed": false,
          "internalType": "uint256",
          "name": "seizurePrice",
          "type": "uint256"
        },
        {
          "indexed": false,
          "internalType": "uint256",
          "name": "nextSeizurePrice",
          "type": "uint256"
        },
        {
          "indexed": false,
          "internalType": "uint256",
          "name": "currentPrize",
          "type": "uint256"
        },
        {
          "indexed": false,
          "internalType": "uint256",
          "name": "seizureNumber",
          "type": "uint256"
        }
      ],
      "name": "Seized",
      "type": "event"
    },
    {
      "anonymous": false,
      "inputs": [],
      "name": "ShardSpendable",
      "type": "event"
    },
    {
      "anonymous": false,
      "inputs": [
        {
          "indexed": false,
          "internalType": "address",
          "name": "winner",
          "type": "address"
        }
      ],
      "name": "SweetRelease",
      "type": "event"
    },
    {
      "anonymous": false,
      "inputs": [
        {
          "indexed": true,
          "internalType": "address",
          "name": "operator",
          "type": "address"
        },
        {
          "indexed": true,
          "internalType": "address",
          "name": "from",
          "type": "address"
        },
        {
          "indexed": true,
          "internalType": "address",
          "name": "to",
          "type": "address"
        },
        {
          "indexed": false,
          "internalType": "uint256[]",
          "name": "ids",
          "type": "uint256[]"
        },
        {
          "indexed": false,
          "internalType": "uint256[]",
          "name": "values",
          "type": "uint256[]"
        }
      ],
      "name": "TransferBatch",
      "type": "event"
    },
    {
      "anonymous": false,
      "inputs": [
        {
          "indexed": true,
          "internalType": "address",
          "name": "operator",
          "type": "address"
        },
        {
          "indexed": true,
          "internalType": "address",
          "name": "from",
          "type": "address"
        },
        {
          "indexed": true,
          "internalType": "address",
          "name": "to",
          "type": "address"
        },
        {
          "indexed": false,
          "internalType": "uint256",
          "name": "id",
          "type": "uint256"
        },
        {
          "indexed": false,
          "internalType": "uint256",
          "name": "value",
          "type": "uint256"
        }
      ],
      "name": "TransferSingle",
      "type": "event"
    },
    {
      "anonymous": false,
      "inputs": [
        {
          "indexed": false,
          "internalType": "string",
          "name": "value",
          "type": "string"
        },
        {
          "indexed": true,
          "internalType": "uint256",
          "name": "id",
          "type": "uint256"
        }
      ],
      "name": "URI",
      "type": "event"
    },
    {
      "inputs": [],
      "name": "CLOAKINGTHRESH",
      "outputs": [
        {
          "internalType": "uint256",
          "name": "",
          "type": "uint256"
        }
      ],
      "stateMutability": "view",
      "type": "function"
    },
    {
      "inputs": [],
      "name": "CLOINRELEASE",
      "outputs": [
        {
          "internalType": "uint256",
          "name": "",
          "type": "uint256"
        }
      ],
      "stateMutability": "view",
      "type": "function"
    },
    {
      "inputs": [],
      "name": "COINLANDER",
      "outputs": [
        {
          "internalType": "address",
          "name": "",
          "type": "address"
        }
      ],
      "stateMutability": "view",
      "type": "function"
    },
    {
      "inputs": [],
      "name": "FIRSTSEEKERMINTTHRESH",
      "outputs": [
        {
          "internalType": "uint256",
          "name": "",
          "type": "uint256"
        }
      ],
      "stateMutability": "view",
      "type": "function"
    },
    {
      "inputs": [],
      "name": "GOODSONLYEND",
      "outputs": [
        {
          "internalType": "uint256",
          "name": "",
          "type": "uint256"
        }
      ],
      "stateMutability": "view",
      "type": "function"
    },
    {
      "inputs": [],
      "name": "ONECOIN",
      "outputs": [
        {
          "internalType": "uint256",
          "name": "",
          "type": "uint256"
        }
      ],
      "stateMutability": "view",
      "type": "function"
    },
    {
      "inputs": [],
      "name": "PERCENTPRIZE",
      "outputs": [
        {
          "internalType": "uint256",
          "name": "",
          "type": "uint256"
        }
      ],
      "stateMutability": "view",
      "type": "function"
    },
    {
      "inputs": [],
      "name": "PERCENTRATEINCREASE",
      "outputs": [
        {
          "internalType": "uint256",
          "name": "",
          "type": "uint256"
        }
      ],
      "stateMutability": "view",
      "type": "function"
    },
    {
      "inputs": [],
      "name": "SECONDSEEKERMINTTHRESH",
      "outputs": [
        {
          "internalType": "uint256",
          "name": "",
          "type": "uint256"
        }
      ],
      "stateMutability": "view",
      "type": "function"
    },
    {
      "inputs": [],
      "name": "SHARD",
      "outputs": [
        {
          "internalType": "uint256",
          "name": "",
          "type": "uint256"
        }
      ],
      "stateMutability": "view",
      "type": "function"
    },
    {
      "inputs": [],
      "name": "SHARDSPENDABLE",
      "outputs": [
        {
          "internalType": "uint256",
          "name": "",
          "type": "uint256"
        }
      ],
      "stateMutability": "view",
      "type": "function"
    },
    {
      "inputs": [],
      "name": "SHARDTOFRAGMENTMULTIPLIER",
      "outputs": [
        {
          "internalType": "uint256",
          "name": "",
          "type": "uint256"
        }
      ],
      "stateMutability": "view",
      "type": "function"
    },
    {
      "inputs": [],
      "name": "SWEETRELEASE",
      "outputs": [
        {
          "internalType": "uint256",
          "name": "",
          "type": "uint256"
        }
      ],
      "stateMutability": "view",
      "type": "function"
    },
    {
      "inputs": [],
      "name": "THIRDSEEKERMINTTHRESH",
      "outputs": [
        {
          "internalType": "uint256",
          "name": "",
          "type": "uint256"
        }
      ],
      "stateMutability": "view",
      "type": "function"
    },
    {
      "inputs": [
        {
          "internalType": "uint256",
          "name": "id",
          "type": "uint256"
        }
      ],
      "name": "airdropClaimBySeekerId",
      "outputs": [],
      "stateMutability": "nonpayable",
      "type": "function"
    },
    {
      "inputs": [
        {
          "internalType": "address",
          "name": "account",
          "type": "address"
        },
        {
          "internalType": "uint256",
          "name": "id",
          "type": "uint256"
        }
      ],
      "name": "balanceOf",
      "outputs": [
        {
          "internalType": "uint256",
          "name": "",
          "type": "uint256"
        }
      ],
      "stateMutability": "view",
      "type": "function"
    },
    {
      "inputs": [
        {
          "internalType": "address[]",
          "name": "accounts",
          "type": "address[]"
        },
        {
          "internalType": "uint256[]",
          "name": "ids",
          "type": "uint256[]"
        }
      ],
      "name": "balanceOfBatch",
      "outputs": [
        {
          "internalType": "uint256[]",
          "name": "",
          "type": "uint256[]"
        }
      ],
      "stateMutability": "view",
      "type": "function"
    },
    {
      "inputs": [
        {
          "internalType": "uint256",
          "name": "amount",
          "type": "uint256"
        }
      ],
      "name": "burnShardForFragments",
      "outputs": [],
      "stateMutability": "nonpayable",
      "type": "function"
    },
    {
      "inputs": [
        {
          "internalType": "uint256",
          "name": "seekerId",
          "type": "uint256"
        },
        {
          "internalType": "uint256",
          "name": "amount",
          "type": "uint256"
        }
      ],
      "name": "burnShardForPower",
      "outputs": [],
      "stateMutability": "nonpayable",
      "type": "function"
    },
    {
      "inputs": [
        {
          "internalType": "string",
          "name": "_newURI",
          "type": "string"
        }
      ],
      "name": "changeURI",
      "outputs": [],
      "stateMutability": "nonpayable",
      "type": "function"
    },
    {
      "inputs": [],
      "name": "claimAll",
      "outputs": [],
      "stateMutability": "nonpayable",
      "type": "function"
    },
    {
      "inputs": [],
      "name": "claimSingleSeeker",
      "outputs": [],
      "stateMutability": "nonpayable",
      "type": "function"
    },
    {
      "inputs": [
        {
          "internalType": "uint256",
          "name": "",
          "type": "uint256"
        }
      ],
      "name": "claimedAirdropBySeekerId",
      "outputs": [
        {
          "internalType": "bool",
          "name": "",
          "type": "bool"
        }
      ],
      "stateMutability": "view",
      "type": "function"
    },
    {
      "inputs": [
        {
          "internalType": "uint256",
          "name": "",
          "type": "uint256"
        }
      ],
      "name": "cloinDeposits",
      "outputs": [
        {
          "internalType": "address",
          "name": "depositor",
          "type": "address"
        },
        {
          "internalType": "uint16",
          "name": "amount",
          "type": "uint16"
        },
        {
          "internalType": "uint80",
          "name": "blockNumber",
          "type": "uint80"
        }
      ],
      "stateMutability": "view",
      "type": "function"
    },
    {
      "inputs": [],
      "name": "contractURI",
      "outputs": [
        {
          "internalType": "string",
          "name": "",
          "type": "string"
        }
      ],
      "stateMutability": "view",
      "type": "function"
    },
    {
      "inputs": [],
      "name": "firstCommunitySoftLock",
      "outputs": [
        {
          "internalType": "bool",
          "name": "",
          "type": "bool"
        }
      ],
      "stateMutability": "view",
      "type": "function"
    },
    {
      "inputs": [],
      "name": "gameStarted",
      "outputs": [
        {
          "internalType": "bool",
          "name": "",
          "type": "bool"
        }
      ],
      "stateMutability": "view",
      "type": "function"
    },
    {
      "inputs": [
        {
          "internalType": "uint256",
          "name": "_id",
          "type": "uint256"
        }
      ],
      "name": "getAirdropStatus",
      "outputs": [
        {
          "internalType": "bool",
          "name": "",
          "type": "bool"
        }
      ],
      "stateMutability": "view",
      "type": "function"
    },
    {
      "inputs": [
        {
          "internalType": "address",
          "name": "_user",
          "type": "address"
        }
      ],
      "name": "getPendingWithdrawal",
      "outputs": [
        {
          "internalType": "uint256[3]",
          "name": "",
          "type": "uint256[3]"
        }
      ],
      "stateMutability": "view",
      "type": "function"
    },
    {
      "inputs": [],
      "name": "getSeizureCount",
      "outputs": [
        {
          "internalType": "uint256",
          "name": "",
          "type": "uint256"
        }
      ],
      "stateMutability": "view",
      "type": "function"
    },
    {
      "inputs": [
        {
          "internalType": "address",
          "name": "account",
          "type": "address"
        },
        {
          "internalType": "address",
          "name": "operator",
          "type": "address"
        }
      ],
      "name": "isApprovedForAll",
      "outputs": [
        {
          "internalType": "bool",
          "name": "",
          "type": "bool"
        }
      ],
      "stateMutability": "view",
      "type": "function"
    },
    {
      "inputs": [
        {
          "internalType": "uint256",
          "name": "amount",
          "type": "uint256"
        }
      ],
      "name": "keeperShardMint",
      "outputs": [],
      "stateMutability": "nonpayable",
      "type": "function"
    },
    {
      "inputs": [],
      "name": "lastSeizureTime",
      "outputs": [
        {
          "internalType": "uint32",
          "name": "",
          "type": "uint32"
        }
      ],
      "stateMutability": "view",
      "type": "function"
    },
    {
      "inputs": [],
      "name": "owner",
      "outputs": [
        {
          "internalType": "address",
          "name": "",
          "type": "address"
        }
      ],
      "stateMutability": "view",
      "type": "function"
    },
    {
      "inputs": [
        {
          "internalType": "address",
          "name": "",
          "type": "address"
        }
      ],
      "name": "pendingWithdrawals",
      "outputs": [
        {
          "internalType": "uint120",
          "name": "_withdrawValue",
          "type": "uint120"
        },
        {
          "internalType": "uint16",
          "name": "_shardOwed",
          "type": "uint16"
        }
      ],
      "stateMutability": "view",
      "type": "function"
    },
    {
      "inputs": [],
      "name": "prize",
      "outputs": [
        {
          "internalType": "uint256",
          "name": "",
          "type": "uint256"
        }
      ],
      "stateMutability": "view",
      "type": "function"
    },
    {
      "inputs": [],
      "name": "released",
      "outputs": [
        {
          "internalType": "bool",
          "name": "",
          "type": "bool"
        }
      ],
      "stateMutability": "view",
      "type": "function"
    },
    {
      "inputs": [],
      "name": "renounceOwnership",
      "outputs": [],
      "stateMutability": "nonpayable",
      "type": "function"
    },
    {
      "inputs": [
        {
          "internalType": "address",
          "name": "from",
          "type": "address"
        },
        {
          "internalType": "address",
          "name": "to",
          "type": "address"
        },
        {
          "internalType": "uint256[]",
          "name": "ids",
          "type": "uint256[]"
        },
        {
          "internalType": "uint256[]",
          "name": "amounts",
          "type": "uint256[]"
        },
        {
          "internalType": "bytes",
          "name": "data",
          "type": "bytes"
        }
      ],
      "name": "safeBatchTransferFrom",
      "outputs": [],
      "stateMutability": "nonpayable",
      "type": "function"
    },
    {
      "inputs": [
        {
          "internalType": "address",
          "name": "from",
          "type": "address"
        },
        {
          "internalType": "address",
          "name": "to",
          "type": "address"
        },
        {
          "internalType": "uint256",
          "name": "id",
          "type": "uint256"
        },
        {
          "internalType": "uint256",
          "name": "amount",
          "type": "uint256"
        },
        {
          "internalType": "bytes",
          "name": "data",
          "type": "bytes"
        }
      ],
      "name": "safeTransferFrom",
      "outputs": [],
      "stateMutability": "nonpayable",
      "type": "function"
    },
    {
      "inputs": [],
      "name": "secondCommunitySoftLock",
      "outputs": [
        {
          "internalType": "bool",
          "name": "",
          "type": "bool"
        }
      ],
      "stateMutability": "view",
      "type": "function"
    },
    {
      "inputs": [],
      "name": "seekers",
      "outputs": [
        {
          "internalType": "contract ISeekers",
          "name": "",
          "type": "address"
        }
      ],
      "stateMutability": "view",
      "type": "function"
    },
    {
      "inputs": [],
      "name": "seize",
      "outputs": [],
      "stateMutability": "payable",
      "type": "function"
    },
    {
      "inputs": [],
      "name": "seizureCount",
      "outputs": [
        {
          "internalType": "uint256",
          "name": "_value",
          "type": "uint256"
        }
      ],
      "stateMutability": "view",
      "type": "function"
    },
    {
      "inputs": [],
      "name": "seizureStake",
      "outputs": [
        {
          "internalType": "uint256",
          "name": "",
          "type": "uint256"
        }
      ],
      "stateMutability": "view",
      "type": "function"
    },
    {
      "inputs": [
        {
          "internalType": "address",
          "name": "operator",
          "type": "address"
        },
        {
          "internalType": "bool",
          "name": "approved",
          "type": "bool"
        }
      ],
      "name": "setApprovalForAll",
      "outputs": [],
      "stateMutability": "nonpayable",
      "type": "function"
    },
    {
      "inputs": [
        {
          "internalType": "string",
          "name": "newContractURI",
          "type": "string"
        }
      ],
      "name": "setContractURI",
      "outputs": [],
      "stateMutability": "nonpayable",
      "type": "function"
    },
    {
      "inputs": [],
      "name": "shardSpendable",
      "outputs": [
        {
          "internalType": "bool",
          "name": "",
          "type": "bool"
        }
      ],
      "stateMutability": "view",
      "type": "function"
    },
    {
      "inputs": [
        {
          "internalType": "uint256",
          "name": "amount",
          "type": "uint256"
        }
      ],
      "name": "stakeShardForCloin",
      "outputs": [],
      "stateMutability": "nonpayable",
      "type": "function"
    },
    {
      "inputs": [],
      "name": "startGame",
      "outputs": [],
      "stateMutability": "nonpayable",
      "type": "function"
    },
    {
      "inputs": [
        {
          "internalType": "bytes4",
          "name": "interfaceId",
          "type": "bytes4"
        }
      ],
      "name": "supportsInterface",
      "outputs": [
        {
          "internalType": "bool",
          "name": "",
          "type": "bool"
        }
      ],
      "stateMutability": "view",
      "type": "function"
    },
    {
      "inputs": [
        {
          "internalType": "address",
          "name": "newOwner",
          "type": "address"
        }
      ],
      "name": "transferOwnership",
      "outputs": [],
      "stateMutability": "nonpayable",
      "type": "function"
    },
    {
      "inputs": [
        {
          "internalType": "uint256",
          "name": "",
          "type": "uint256"
        }
      ],
      "name": "uri",
      "outputs": [
        {
          "internalType": "string",
          "name": "",
          "type": "string"
        }
      ],
      "stateMutability": "view",
      "type": "function"
    },
    {
      "stateMutability": "payable",
      "type": "receive"
    }
  ],
  "bytecode": "0x608060405260068054600160a01b600160f01b03191661010160c01b17905565048c2739500060085560006009819055600a819055600b553480156200004457600080fd5b5060405162004c7438038062004c7483398101604081905262000067916200069f565b6040518060600160405280602f815260200162004c45602f91396200008c8162000143565b5062000098336200015c565b6001600481905550620000d133600060016040518060400160405280600381526020016203078360ec1b815250620001ae60201b60201c565b60068054336001600160a01b031991821617909155600f805482166001600160a01b0385811691909117909155601080549092169083161790556040805160608101909152602a80825262004c1b602083013980516200013a91600591602090910190620005dc565b5050506200093f565b805162000158906002906020840190620005dc565b5050565b600380546001600160a01b038381166001600160a01b0319831681179093556040519116919082907f8be0079c531659141344cd1fd0a4f28419497f9722a3daafe3b4186f6b6457e090600090a35050565b6001600160a01b038416620002145760405162461bcd60e51b815260206004820152602160248201527f455243313135353a206d696e7420746f20746865207a65726f206164647265736044820152607360f81b60648201526084015b60405180910390fd5b336200023a816000876200022888620002d5565b6200023388620002d5565b8762000323565b6000848152602081815260408083206001600160a01b0389168452909152812080548592906200026c908490620006ed565b909155505060408051858152602081018590526001600160a01b0380881692600092918516917fc3d58168c5ae7397731d063d5bbf3d657854427343f4c083240f7aacaa2d0f62910160405180910390a4620002ce8160008787878762000400565b5050505050565b6040805160018082528183019092526060916000919060208083019080368337019050509050828160008151811062000312576200031262000708565b602090810291909101015292915050565b600654600160a01b900460ff16620003dd5760005b8351811015620003db57600084828151811062000359576200035962000708565b60200260200101511415620003c6576001600160a01b038616158015906200038b5750600654600160b01b900460ff16155b15620003c65760405162461bcd60e51b8152602060048201526009602482015268114b4c0c0c0b4c0c0d60ba1b60448201526064016200020b565b80620003d2816200071e565b91505062000338565b505b620003f8868686868686620003f860201b620024ee1760201c565b505050505050565b6200041f846001600160a01b0316620005d660201b620024f61760201c565b15620003f85760405163f23a6e6160e01b81526001600160a01b0385169063f23a6e61906200045b90899089908890889088906004016200078c565b6020604051808303816000875af192505050801562000499575060408051601f3d908101601f191682019092526200049691810190620007d3565b60015b6200055a57620004a862000806565b806308c379a01415620004e95750620004c06200085e565b80620004cd5750620004eb565b8060405162461bcd60e51b81526004016200020b9190620008ed565b505b60405162461bcd60e51b815260206004820152603460248201527f455243313135353a207472616e7366657220746f206e6f6e204552433131353560448201527f526563656976657220696d706c656d656e74657200000000000000000000000060648201526084016200020b565b6001600160e01b0319811663f23a6e6160e01b14620005cd5760405162461bcd60e51b815260206004820152602860248201527f455243313135353a204552433131353552656365697665722072656a656374656044820152676420746f6b656e7360c01b60648201526084016200020b565b50505050505050565b3b151590565b828054620005ea9062000902565b90600052602060002090601f0160209004810192826200060e576000855562000659565b82601f106200062957805160ff191683800117855562000659565b8280016001018555821562000659579182015b82811115620006595782518255916020019190600101906200063c565b50620006679291506200066b565b5090565b5b808211156200066757600081556001016200066c565b80516001600160a01b03811681146200069a57600080fd5b919050565b60008060408385031215620006b357600080fd5b620006be8362000682565b9150620006ce6020840162000682565b90509250929050565b634e487b7160e01b600052601160045260246000fd5b60008219821115620007035762000703620006d7565b500190565b634e487b7160e01b600052603260045260246000fd5b6000600019821415620007355762000735620006d7565b5060010190565b6000815180845260005b81811015620007645760208185018101518683018201520162000746565b8181111562000777576000602083870101525b50601f01601f19169290920160200192915050565b6001600160a01b03868116825285166020820152604081018490526060810183905260a060808201819052600090620007c8908301846200073c565b979650505050505050565b600060208284031215620007e657600080fd5b81516001600160e01b031981168114620007ff57600080fd5b9392505050565b600060033d1115620008205760046000803e5060005160e01c5b90565b601f8201601f191681016001600160401b03811182821017156200085757634e487b7160e01b600052604160045260246000fd5b6040525050565b600060443d10156200086d5790565b6040516003193d81016004833e81513d6001600160401b0380831160248401831017156200089d57505050505090565b8285019150815181811115620008b65750505050505090565b843d8701016020828501011115620008d15750505050505090565b620008e26020828601018762000823565b509095945050505050565b602081526000620007ff60208301846200073c565b600181811c908216806200091757607f821691505b602082108114156200093957634e487b7160e01b600052602260045260246000fd5b50919050565b6142cc806200094f6000396000f3fe60806040526004361061034d5760003560e01c80637ee8b2f8116101bb578063bbdf79b0116100f7578063e8a3d48511610095578063f242432a1161006f578063f242432a146109da578063f2e3a6d0146109fa578063f2fde38b14610a1a578063f3f4370314610a3a57600080fd5b8063e8a3d48514610966578063e985e9c51461097b578063f0b0e8b1146109c457600080fd5b8063d65ab5f2116100d1578063d65ab5f2146108fb578063dd6d8a1514610910578063e3ac5d2614610930578063e5e01c111461094657600080fd5b8063bbdf79b0146108bc578063c331b8c8146108d1578063d1058e59146108e657600080fd5b80639613252111610164578063a22cb4651161013e578063a22cb4651461083b578063a4ba69191461085b578063b3c8a8a914610870578063b5ebfdc3146108a657600080fd5b806396132521146107e35780639860992914610804578063988c3fd91461081a57600080fd5b80638a58ca1a116101955780638a58ca1a1461076e5780638da5cb5b146107a5578063938e3d7b146107c357600080fd5b80637ee8b2f8146106d65780637fb0ba5814610703578063824be3901461071a57600080fd5b80634e1273f41161028a5780635e123ce411610233578063715018a61161020d578063715018a6146106775780637701ada61461068c5780637b0ba284146106ac5780637c8618ab146106c157600080fd5b80635e123ce414610638578063605297e1146106595780636b487a1e1461066157600080fd5b806354a142011161026457806354a14201146105d257806355999083146105f25780635a5bce221461062257600080fd5b80634e1273f41461057a578063536363fe146105a757806353a9fd61146105bc57600080fd5b80632285fcba116102f75780632eb2c2d6116102d15780632eb2c2d6146104ff57806333e645221461051f5780633e709c701461054f57806340ebe5bc1461056557600080fd5b80632285fcba14610478578063244b21f2146104b057806326b47ba6146104c657600080fd5b80630b99c548116103285780630b99c548146104095780630c3dedff1461042b5780630e89341c1461044b57600080fd5b8062fdd58e1461039057806301ffc9a7146103c357806303ca64a6146103f357600080fd5b3661038b5760405162461bcd60e51b8152602060048201526009602482015268452d3030302d30303960b81b60448201526064015b60405180910390fd5b600080fd5b34801561039c57600080fd5b506103b06103ab366004613999565b610a9f565b6040519081526020015b60405180910390f35b3480156103cf57600080fd5b506103e36103de3660046139db565b610b43565b60405190151581526020016103ba565b3480156103ff57600080fd5b506103b061045781565b34801561041557600080fd5b506104296104243660046139f8565b610be0565b005b34801561043757600080fd5b506104296104463660046139f8565b610dff565b34801561045757600080fd5b5061046b6104663660046139f8565b611096565b6040516103ba9190613a5e565b34801561048457600080fd5b50600f54610498906001600160a01b031681565b6040516001600160a01b0390911681526020016103ba565b3480156104bc57600080fd5b506103b061030981565b3480156104d257600080fd5b506006546104ea90600160d01b900463ffffffff1681565b60405163ffffffff90911681526020016103ba565b34801561050b57600080fd5b5061042961051a366004613bbd565b61112a565b34801561052b57600080fd5b506103e361053a3660046139f8565b6000908152600d602052604090205460ff1690565b34801561055b57600080fd5b506103b061022b81565b34801561057157600080fd5b506103b0600181565b34801561058657600080fd5b5061059a610595366004613c6b565b6111cc565b6040516103ba9190613d73565b3480156105b357600080fd5b506103b061130a565b3480156105c857600080fd5b506103b061029a81565b3480156105de57600080fd5b50600654610498906001600160a01b031681565b3480156105fe57600080fd5b506103e361060d3660046139f8565b600d6020526000908152604090205460ff1681565b34801561062e57600080fd5b506103b061014d81565b34801561064457600080fd5b506006546103e390600160b81b900460ff1681565b61042961131a565b34801561066d57600080fd5b506103b061037881565b34801561068357600080fd5b50610429611581565b34801561069857600080fd5b506104296106a73660046139f8565b6115e7565b3480156106b857600080fd5b506103b0603c81565b3480156106cd57600080fd5b506104296116ad565b3480156106e257600080fd5b506106f66106f1366004613d86565b61187e565b6040516103ba9190613da3565b34801561070f57600080fd5b506007546103b09081565b34801561072657600080fd5b5061073a6107353660046139f8565b6118da565b604080516001600160a01b03909416845261ffff909216602084015269ffffffffffffffffffff16908201526060016103ba565b34801561077a57600080fd5b506006546103e390790100000000000000000000000000000000000000000000000000900460ff1681565b3480156107b157600080fd5b506003546001600160a01b0316610498565b3480156107cf57600080fd5b506104296107de366004613dd4565b611924565b3480156107ef57600080fd5b506006546103e390600160a01b900460ff1681565b34801561081057600080fd5b506103b06103e781565b34801561082657600080fd5b506006546103e390600160a81b900460ff1681565b34801561084757600080fd5b50610429610856366004613e46565b61198f565b34801561086757600080fd5b506103b0600581565b34801561087c57600080fd5b506006546103e3907801000000000000000000000000000000000000000000000000900460ff1681565b3480156108b257600080fd5b506103b060085481565b3480156108c857600080fd5b506103b0600081565b3480156108dd57600080fd5b506103b0606481565b3480156108f257600080fd5b50610429611a7a565b34801561090757600080fd5b50610429611da6565b34801561091c57600080fd5b5061042961092b366004613e84565b611e30565b34801561093c57600080fd5b506103b0600a5481565b34801561095257600080fd5b50610429610961366004613dd4565b611ff8565b34801561097257600080fd5b5061046b612095565b34801561098757600080fd5b506103e3610996366004613ea6565b6001600160a01b03918216600090815260016020908152604080832093909416825291909152205460ff1690565b3480156109d057600080fd5b506103b06101bc81565b3480156109e657600080fd5b506104296109f5366004613ed4565b612127565b348015610a0657600080fd5b50610429610a153660046139f8565b6121c2565b348015610a2657600080fd5b50610429610a35366004613d86565b61240f565b348015610a4657600080fd5b50610a7d610a55366004613d86565b600c602052600090815260409020546001600160781b03811690600160781b900461ffff1682565b604080516001600160781b03909316835261ffff9091166020830152016103ba565b60006001600160a01b038316610b1d5760405162461bcd60e51b815260206004820152602b60248201527f455243313135353a2062616c616e636520717565727920666f7220746865207a60448201527f65726f20616464726573730000000000000000000000000000000000000000006064820152608401610382565b506000908152602081815260408083206001600160a01b03949094168352929052205490565b60006001600160e01b031982167fd9b67a26000000000000000000000000000000000000000000000000000000001480610ba657506001600160e01b031982167f0e89341c00000000000000000000000000000000000000000000000000000000145b80610bda57507f01ffc9a7000000000000000000000000000000000000000000000000000000006001600160e01b03198316145b92915050565b60026004541415610c335760405162461bcd60e51b815260206004820152601f60248201527f5265656e7472616e637947756172643a207265656e7472616e742063616c6c006044820152606401610382565b6002600455600654600160a81b900460ff161515600114610c825760405162461bcd60e51b8152602060048201526009602482015268452d3030302d30303560b81b6044820152606401610382565b8060008111610cbf5760405162461bcd60e51b815260206004820152600960248201526822969818181698181b60b91b6044820152606401610382565b80610ccb336001610a9f565b1015610d055760405162461bcd60e51b8152602060048201526009602482015268452d3030302d30303760b81b6044820152606401610382565b610d10600583613f53565b15610d5d5760405162461bcd60e51b815260206004820152600960248201527f452d3030302d30303800000000000000000000000000000000000000000000006044820152606401610382565b6000610d6a600584613f7d565b9050610d78336001856124fc565b6010546040517f2d218406000000000000000000000000000000000000000000000000000000008152336004820152602481018390526001600160a01b0390911690632d21840690604401600060405180830381600087803b158015610ddd57600080fd5b505af1158015610df1573d6000803e3d6000fd5b505060016004555050505050565b60026004541415610e525760405162461bcd60e51b815260206004820152601f60248201527f5265656e7472616e637947756172643a207265656e7472616e742063616c6c006044820152606401610382565b6002600455600654600160a01b900460ff161515600114610ea15760405162461bcd60e51b8152602060048201526009602482015268114b4c0c0c0b4c0c0d60ba1b6044820152606401610382565b600f546040517f6352211e0000000000000000000000000000000000000000000000000000000081526004810183905233916001600160a01b031690636352211e90602401602060405180830381865afa158015610f03573d6000803e3d6000fd5b505050506040513d601f19601f82011682018060405250810190610f279190613f91565b6001600160a01b031614610f7d5760405162461bcd60e51b815260206004820152600960248201527f452d3030302d30313100000000000000000000000000000000000000000000006044820152606401610382565b6000818152600d602052604090205460ff1615610fdc5760405162461bcd60e51b815260206004820152600960248201527f452d3030302d30313200000000000000000000000000000000000000000000006044820152606401610382565b6000818152600d60205260408120805460ff19166001179055806110016004846126a8565b905060006110106004836126a8565b90508061101e836001613fae565b6110289190613fae565b92507f574d48e4ee52f43b5e22c7df8072b47c861cf56c56d7b13812310531f4ffc6fb8460405161105b91815260200190565b60405180910390a161108b336001856040518060400160405280600381526020016203078360ec1b815250612720565b505060016004555050565b6060600280546110a590613fc6565b80601f01602080910402602001604051908101604052809291908181526020018280546110d190613fc6565b801561111e5780601f106110f35761010080835404028352916020019161111e565b820191906000526020600020905b81548152906001019060200180831161110157829003601f168201915b50505050509050919050565b6001600160a01b03851633148061114657506111468533610996565b6111b85760405162461bcd60e51b815260206004820152603260248201527f455243313135353a207472616e736665722063616c6c6572206973206e6f742060448201527f6f776e6572206e6f7220617070726f76656400000000000000000000000000006064820152608401610382565b6111c5858585858561284c565b5050505050565b606081518351146112455760405162461bcd60e51b815260206004820152602960248201527f455243313135353a206163636f756e747320616e6420696473206c656e67746860448201527f206d69736d6174636800000000000000000000000000000000000000000000006064820152608401610382565b6000835167ffffffffffffffff81111561126157611261613a71565b60405190808252806020026020018201604052801561128a578160200160208202803683370190505b50905060005b8451811015611302576112d58582815181106112ae576112ae614001565b60200260200101518583815181106112c8576112c8614001565b6020026020010151610a9f565b8282815181106112e7576112e7614001565b60209081029190910101526112fb81614017565b9050611290565b509392505050565b600061131560075490565b905090565b6002600454141561136d5760405162461bcd60e51b815260206004820152601f60248201527f5265656e7472616e637947756172643a207265656e7472616e742063616c6c006044820152606401610382565b6002600455600654600160b81b900460ff166113cb5760405162461bcd60e51b815260206004820152600960248201527f452d3030302d30313300000000000000000000000000000000000000000000006044820152606401610382565b600654600160a01b900460ff16156114255760405162461bcd60e51b815260206004820152600960248201527f452d3030302d30303100000000000000000000000000000000000000000000006044820152606401610382565b60085434146114765760405162461bcd60e51b815260206004820152600960248201527f452d3030302d30303200000000000000000000000000000000000000000000006044820152606401610382565b6006546001600160a01b03163314156114d15760405162461bcd60e51b815260206004820152600960248201527f452d3030302d30303300000000000000000000000000000000000000000000006044820152606401610382565b6006546001600160a01b0316336114ec600780546001019055565b6114f68282612ac5565b61150282600954612b50565b7fcbe7cd1556c10b870bde340c9b25b4ea2d3709a1da0e63de8a9a1a18a28894a8828234600854600a5461153560075490565b604080516001600160a01b039788168152969095166020870152938501929092526060840152608083015260a082015260c00160405180910390a1611578612d4a565b50506001600455565b6003546001600160a01b031633146115db5760405162461bcd60e51b815260206004820181905260248201527f4f776e61626c653a2063616c6c6572206973206e6f7420746865206f776e65726044820152606401610382565b6115e5600061307d565b565b6003546001600160a01b031633146116415760405162461bcd60e51b815260206004820181905260248201527f4f776e61626c653a2063616c6c6572206973206e6f7420746865206f776e65726044820152606401610382565b606f81600b546116519190613fae565b111561165c57600080fd5b6000811161166957600080fd5b80600b600082825461167b9190613fae565b925050819055506116aa336001836040518060400160405280600381526020016203078360ec1b815250612720565b50565b600260045414156117005760405162461bcd60e51b815260206004820152601f60248201527f5265656e7472616e637947756172643a207265656e7472616e742063616c6c006044820152606401610382565b6002600455336000908152600c6020526040902060010154806117515760405162461bcd60e51b81526020600482015260096024820152680452d3030302d3031360bc1b6044820152606401610382565b336000908152600c602052604081206001908101906117709084614032565b8154811061178057611780614001565b60009182526020808320600883040154338452600c9091526040909220600101805460079092166004026101000a90920463ffffffff169250806117c6576117c6614049565b6000828152602090206008600019929092019182040180546007831660049081026101000a63ffffffff9081021990921690925591909255600f5460405163825b0da760e01b8152339381019390935290831660248301526001600160a01b03169063825b0da7906044016020604051808303816000875af1158015611850573d6000803e3d6000fd5b505050506040513d601f19601f82011682018060405250810190611874919061405f565b5050600160045550565b611886613834565b50604080516060810182526001600160a01b039092166000818152600c602081815284832080546001600160781b038116885261ffff600160781b9091041682880152939092529052600101549082015290565b600e81815481106118ea57600080fd5b6000918252602090912001546001600160a01b0381169150600160a01b810461ffff1690600160b01b900469ffffffffffffffffffff1683565b6003546001600160a01b0316331461197e5760405162461bcd60e51b815260206004820181905260248201527f4f776e61626c653a2063616c6c6572206973206e6f7420746865206f776e65726044820152606401610382565b61198a60058383613852565b505050565b336001600160a01b0383161415611a0e5760405162461bcd60e51b815260206004820152602960248201527f455243313135353a2073657474696e6720617070726f76616c2073746174757360448201527f20666f722073656c6600000000000000000000000000000000000000000000006064820152608401610382565b3360008181526001602090815260408083206001600160a01b03871680855290835292819020805460ff191686151590811790915590519081529192917f17307eab39ab6107e8899845ad3d59bd9653f200f220920489ca2b5937696c31910160405180910390a35050565b60026004541415611acd5760405162461bcd60e51b815260206004820152601f60248201527f5265656e7472616e637947756172643a207265656e7472616e742063616c6c006044820152606401610382565b6002600455336000908152600c6020526040902080546001909101546001600160781b03821691600160781b900461ffff169082158015611b0c575081155b8015611b16575080155b15611b4f5760405162461bcd60e51b81526020600482015260096024820152680452d3030302d3031360bc1b6044820152606401610382565b8215611bfd57336000818152600c602052604080822080546effffffffffffffffffffffffffffff191690555190919085908381818185875af1925050503d8060008114611bb9576040519150601f19603f3d011682016040523d82523d6000602084013e611bbe565b606091505b5050905080611bfb5760405162461bcd60e51b8152602060048201526009602482015268452d3030302d30303960b81b6044820152606401610382565b505b8115611c6257336000818152600c602090815260409182902080547fffffffffffffffffffffffffffffff0000ffffffffffffffffffffffffffffff1690558151808301909252600382526203078360ec1b90820152611c6291906001908590612720565b8015611d695760005b81811015611d4a57336000908152600c60205260408120600101805483908110611c9757611c97614001565b60009182526020909120600882040154600f5460405163825b0da760e01b81523360048083019190915260079094169093026101000a90910463ffffffff166024830181905292506001600160a01b03169063825b0da7906044016020604051808303816000875af1158015611d11573d6000803e3d6000fd5b505050506040513d601f19601f82011682018060405250810190611d35919061405f565b50508080611d4290614017565b915050611c6b565b50336000908152600c60205260408120611d69916001909101906138d6565b6040513381527fa81402d20429b2b3224cce54a32d277a0c31233c545221acf4e01cce7824d8e59060200160405180910390a15050600160045550565b6003546001600160a01b03163314611e005760405162461bcd60e51b815260206004820181905260248201527f4f776e61626c653a2063616c6c6572206973206e6f7420746865206f776e65726044820152606401610382565b600680547fffffffffffffffff00ffffffffffffffffffffffffffffffffffffffffffffff16600160b81b179055565b60026004541415611e835760405162461bcd60e51b815260206004820152601f60248201527f5265656e7472616e637947756172643a207265656e7472616e742063616c6c006044820152606401610382565b6002600455600654600160a81b900460ff161515600114611ed25760405162461bcd60e51b8152602060048201526009602482015268452d3030302d30303560b81b6044820152606401610382565b8060008111611f0f5760405162461bcd60e51b815260206004820152600960248201526822969818181698181b60b91b6044820152606401610382565b80611f1b336001610a9f565b1015611f555760405162461bcd60e51b8152602060048201526009602482015268452d3030302d30303760b81b6044820152606401610382565b611f61336001846124fc565b6000611f6e600884614078565b600f546040517f02368a2c00000000000000000000000000000000000000000000000000000000815260048101879052602481018390529192506001600160a01b0316906302368a2c90604401600060405180830381600087803b158015611fd557600080fd5b505af1158015611fe9573d6000803e3d6000fd5b50506001600455505050505050565b6003546001600160a01b031633146120525760405162461bcd60e51b815260206004820181905260248201527f4f776e61626c653a2063616c6c6572206973206e6f7420746865206f776e65726044820152606401610382565b61209182828080601f0160208091040260200160405190810160405280939291908181526020018383808284376000920191909152506130dc92505050565b5050565b6060600580546120a490613fc6565b80601f01602080910402602001604051908101604052809291908181526020018280546120d090613fc6565b801561211d5780601f106120f25761010080835404028352916020019161211d565b820191906000526020600020905b81548152906001019060200180831161210057829003601f168201915b5050505050905090565b6001600160a01b03851633148061214357506121438533610996565b6121b55760405162461bcd60e51b815260206004820152602960248201527f455243313135353a2063616c6c6572206973206e6f74206f776e6572206e6f7260448201527f20617070726f76656400000000000000000000000000000000000000000000006064820152608401610382565b6111c585858585856130ef565b600260045414156122155760405162461bcd60e51b815260206004820152601f60248201527f5265656e7472616e637947756172643a207265656e7472616e742063616c6c006044820152606401610382565b6002600455600654600160a81b900460ff1615156001146122645760405162461bcd60e51b8152602060048201526009602482015268452d3030302d30303560b81b6044820152606401610382565b80600081116122a15760405162461bcd60e51b815260206004820152600960248201526822969818181698181b60b91b6044820152606401610382565b806122ad336001610a9f565b10156122e75760405162461bcd60e51b8152602060048201526009602482015268452d3030302d30303760b81b6044820152606401610382565b6122f3336001846124fc565b60408051606080820183523380835261ffff868116602080860182815269ffffffffffffffffffff438116888a01908152600e805460018101825560008290528a517fbb7b4a454dc3493923482f07822329ed19e8244eff582cc204f8554c3620c3fd909101805495519351909416600160b01b0275ffffffffffffffffffffffffffffffffffffffffffff93909816600160a01b027fffffffffffffffffffff000000000000000000000000000000000000000000009095166001600160a01b039091161793909317169490941790935591548651938452918301529381018490529192917fb84ac8250b1ecd425f9dcd8f82dfbd7ea45a1d2f3c97abc502c7baa929781ac1910160405180910390a1505060016004555050565b6003546001600160a01b031633146124695760405162461bcd60e51b815260206004820181905260248201527f4f776e61626c653a2063616c6c6572206973206e6f7420746865206f776e65726044820152606401610382565b6001600160a01b0381166124e55760405162461bcd60e51b815260206004820152602660248201527f4f776e61626c653a206e6577206f776e657220697320746865207a65726f206160448201527f64647265737300000000000000000000000000000000000000000000000000006064820152608401610382565b6116aa8161307d565b505050505050565b3b151590565b6001600160a01b0383166125785760405162461bcd60e51b815260206004820152602360248201527f455243313135353a206275726e2066726f6d20746865207a65726f206164647260448201527f65737300000000000000000000000000000000000000000000000000000000006064820152608401610382565b336125a7818560006125898761328d565b6125928761328d565b604051806020016040528060008152506132d8565b6000838152602081815260408083206001600160a01b03881684529091529020548281101561263d5760405162461bcd60e51b8152602060048201526024808201527f455243313135353a206275726e20616d6f756e7420657863656564732062616c60448201527f616e6365000000000000000000000000000000000000000000000000000000006064820152608401610382565b6000848152602081815260408083206001600160a01b03898116808652918452828520888703905582518981529384018890529092908616917fc3d58168c5ae7397731d063d5bbf3d657854427343f4c083240f7aacaa2d0f62910160405180910390a45050505050565b60008083836126b8600143614032565b6040805160208101949094528301919091524060608083019190915242608083015233901b6bffffffffffffffffffffffff191660a082015260b40160408051601f19818403018152919052805160209091012090506127188482613f53565b949350505050565b6001600160a01b03841661279c5760405162461bcd60e51b815260206004820152602160248201527f455243313135353a206d696e7420746f20746865207a65726f2061646472657360448201527f73000000000000000000000000000000000000000000000000000000000000006064820152608401610382565b336127bc816000876127ad8861328d565b6127b68861328d565b876132d8565b6000848152602081815260408083206001600160a01b0389168452909152812080548592906127ec908490613fae565b909155505060408051858152602081018590526001600160a01b0380881692600092918516917fc3d58168c5ae7397731d063d5bbf3d657854427343f4c083240f7aacaa2d0f62910160405180910390a46111c58160008787878761338b565b81518351146128c35760405162461bcd60e51b815260206004820152602860248201527f455243313135353a2069647320616e6420616d6f756e7473206c656e6774682060448201527f6d69736d617463680000000000000000000000000000000000000000000000006064820152608401610382565b6001600160a01b0384166129275760405162461bcd60e51b815260206004820152602560248201527f455243313135353a207472616e7366657220746f20746865207a65726f206164604482015264647265737360d81b6064820152608401610382565b336129368187878787876132d8565b60005b8451811015612a5f57600085828151811061295657612956614001565b60200260200101519050600085838151811061297457612974614001565b602090810291909101810151600084815280835260408082206001600160a01b038e168352909352919091205490915081811015612a075760405162461bcd60e51b815260206004820152602a60248201527f455243313135353a20696e73756666696369656e742062616c616e636520666f60448201526939103a3930b739b332b960b11b6064820152608401610382565b6000838152602081815260408083206001600160a01b038e8116855292528083208585039055908b16825281208054849290612a44908490613fae565b9250508190555050505080612a5890614017565b9050612939565b50846001600160a01b0316866001600160a01b0316826001600160a01b03167f4a39dc06d4c0dbc64b70af90fd698a233a518aa5d07e595d983b8c0526c8f7fb8787604051612aaf929190614097565b60405180910390a46124ee818787878787613531565b6006805460ff60b01b1916600160b01b17905560408051808201909152600381526203078360ec1b6020820152612b0590839083906000906001906130ef565b6006805460ff60b01b191690819055600160a01b900460ff1661209157600680546001600160a01b03831673ffffffffffffffffffffffffffffffffffffffff199091161790555050565b600654600090612b6d90600160d01b900463ffffffff16426140c5565b600680547fffff00000000ffffffffffffffffffffffffffffffffffffffffffffffffffff16600160d01b4263ffffffff1602179055600754909150600114612cad576000612710612bc0606485614078565b612bca9190613f7d565b905080600a6000828254612bde9190613fae565b9091555060009050612bf08285614032565b6001600160a01b0386166000908152600c6020526040812080549293508392909190612c269084906001600160781b03166140ea565b92506101000a8154816001600160781b0302191690836001600160781b031602179055506000612c5760095461362d565b6001600160a01b0387166000908152600c6020526040902080549192508291600f90612c8f908490600160781b900461ffff16614115565b92506101000a81548161ffff021916908361ffff1602179055505050505b600654600160a01b900460ff1661198a576001600160a01b0383166000908152600c602090815260408220600190810180549182018155835291206008808304909101805460079093166004026101000a63ffffffff81810219909416938516029290921790915554600981905561271090612d2b90603c90614078565b612d359190613f7d565b600854612d429190613fae565b600855505050565b6000612d5560075490565b905061014d811415612dca57600f60009054906101000a90046001600160a01b03166001600160a01b03166310b127096040518163ffffffff1660e01b8152600401600060405180830381600087803b158015612db157600080fd5b505af1158015612dc5573d6000803e3d6000fd5b505050505b61029a811415612e3d57600f60009054906101000a90046001600160a01b03166001600160a01b031663dec3a74c6040518163ffffffff1660e01b8152600401600060405180830381600087803b158015612e2457600080fd5b505af1158015612e38573d6000803e3d6000fd5b505050505b610309811415612eb057600f60009054906101000a90046001600160a01b03166001600160a01b0316636e39a3456040518163ffffffff1660e01b8152600401600060405180830381600087803b158015612e9757600080fd5b505af1158015612eab573d6000803e3d6000fd5b505050505b610378811415612f2357600f60009054906101000a90046001600160a01b03166001600160a01b031663fe0194626040518163ffffffff1660e01b8152600401600060405180830381600087803b158015612f0a57600080fd5b505af1158015612f1e573d6000803e3d6000fd5b505050505b610309811115612f9657600f60009054906101000a90046001600160a01b03166001600160a01b031663b085a3f76040518163ffffffff1660e01b8152600401600060405180830381600087803b158015612f7d57600080fd5b505af1158015612f91573d6000803e3d6000fd5b505050505b6101bc81141561300957600f60009054906101000a90046001600160a01b03166001600160a01b03166302a1b9e96040518163ffffffff1660e01b8152600401600060405180830381600087803b158015612ff057600080fd5b505af1158015613004573d6000803e3d6000fd5b505050505b61022b81141561306b57600680547fffffffffffffffffffff00ffffffffffffffffffffffffffffffffffffffffff16600160a81b1790556040517f4edc15228784eebfc5aeba6b9908179c0dfd601a62756f6d3e2d3bb1c52c3c0d90600090a15b6104578114156116aa576116aa61366c565b600380546001600160a01b0383811673ffffffffffffffffffffffffffffffffffffffff19831681179093556040519116919082907f8be0079c531659141344cd1fd0a4f28419497f9722a3daafe3b4186f6b6457e090600090a35050565b80516120919060029060208401906138fb565b6001600160a01b0384166131535760405162461bcd60e51b815260206004820152602560248201527f455243313135353a207472616e7366657220746f20746865207a65726f206164604482015264647265737360d81b6064820152608401610382565b336131638187876127ad8861328d565b6000848152602081815260408083206001600160a01b038a168452909152902054838110156131e75760405162461bcd60e51b815260206004820152602a60248201527f455243313135353a20696e73756666696369656e742062616c616e636520666f60448201526939103a3930b739b332b960b11b6064820152608401610382565b6000858152602081815260408083206001600160a01b038b8116855292528083208785039055908816825281208054869290613224908490613fae565b909155505060408051868152602081018690526001600160a01b03808916928a821692918616917fc3d58168c5ae7397731d063d5bbf3d657854427343f4c083240f7aacaa2d0f62910160405180910390a461328482888888888861338b565b50505050505050565b604080516001808252818301909252606091600091906020808301908036833701905050905082816000815181106132c7576132c7614001565b602090810291909101015292915050565b600654600160a01b900460ff166133865760005b835181101561338457600084828151811061330957613309614001565b60200260200101511415613372576001600160a01b038616158015906133395750600654600160b01b900460ff16155b156133725760405162461bcd60e51b8152602060048201526009602482015268114b4c0c0c0b4c0c0d60ba1b6044820152606401610382565b8061337c81614017565b9150506132ec565b505b6124ee565b6001600160a01b0384163b156124ee5760405163f23a6e6160e01b81526001600160a01b0385169063f23a6e61906133cf9089908990889088908890600401614132565b6020604051808303816000875af192505050801561340a575060408051601f3d908101601f1916820190925261340791810190614175565b60015b6134c057613416614192565b806308c379a01415613450575061342b6141ae565b806134365750613452565b8060405162461bcd60e51b81526004016103829190613a5e565b505b60405162461bcd60e51b815260206004820152603460248201527f455243313135353a207472616e7366657220746f206e6f6e204552433131353560448201527f526563656976657220696d706c656d656e7465720000000000000000000000006064820152608401610382565b6001600160e01b0319811663f23a6e6160e01b146132845760405162461bcd60e51b815260206004820152602860248201527f455243313135353a204552433131353552656365697665722072656a656374656044820152676420746f6b656e7360c01b6064820152608401610382565b6001600160a01b0384163b156124ee5760405163bc197c8160e01b81526001600160a01b0385169063bc197c81906135759089908990889088908890600401614238565b6020604051808303816000875af19250505080156135b0575060408051601f3d908101601f191682019092526135ad91810190614175565b60015b6135bc57613416614192565b6001600160e01b0319811663bc197c8160e01b146132845760405162461bcd60e51b815260206004820152602860248201527f455243313135353a204552433131353552656365697665722072656a656374656044820152676420746f6b656e7360c01b6064820152608401610382565b600060016005600a613647670de0b6b3a764000086613f7d565b6136519190614078565b61365b9190613f7d565b6136659082613fae565b9392505050565b600680547fffffffffffffffffffffff00ffffffffffffffffffffffffffffffffffffffff16600160a01b1790556040513381527f20b865e8d27b91be16817d18895036215de0fd433d4f964b1c86257cc52587df9060200160405180910390a16136d73334612b50565b601060009054906101000a90046001600160a01b03166001600160a01b03166392f393f8600a546040518263ffffffff1660e01b81526004016000604051808303818588803b15801561372957600080fd5b505af115801561373d573d6000803e3d6000fd5b5050601054604080517fedd47abf00000000000000000000000000000000000000000000000000000000815290516001600160a01b03909216945063edd47abf9350600480820193506000929182900301818387803b15801561379f57600080fd5b505af11580156137b3573d6000803e3d6000fd5b50506000600a555050600f546040517fff25b2b20000000000000000000000000000000000000000000000000000000081523360048201526001600160a01b039091169063ff25b2b290602401600060405180830381600087803b15801561381a57600080fd5b505af115801561382e573d6000803e3d6000fd5b50505050565b60405180606001604052806003906020820280368337509192915050565b82805461385e90613fc6565b90600052602060002090601f01602090048101928261388057600085556138c6565b82601f106138995782800160ff198235161785556138c6565b828001600101855582156138c6579182015b828111156138c65782358255916020019190600101906138ab565b506138d292915061396f565b5090565b5080546000825560070160089004906000526020600020908101906116aa919061396f565b82805461390790613fc6565b90600052602060002090601f01602090048101928261392957600085556138c6565b82601f1061394257805160ff19168380011785556138c6565b828001600101855582156138c6579182015b828111156138c6578251825591602001919060010190613954565b5b808211156138d25760008155600101613970565b6001600160a01b03811681146116aa57600080fd5b600080604083850312156139ac57600080fd5b82356139b781613984565b946020939093013593505050565b6001600160e01b0319811681146116aa57600080fd5b6000602082840312156139ed57600080fd5b8135613665816139c5565b600060208284031215613a0a57600080fd5b5035919050565b6000815180845260005b81811015613a3757602081850181015186830182015201613a1b565b81811115613a49576000602083870101525b50601f01601f19169290920160200192915050565b6020815260006136656020830184613a11565b634e487b7160e01b600052604160045260246000fd5b601f8201601f1916810167ffffffffffffffff81118282101715613aad57613aad613a71565b6040525050565b600067ffffffffffffffff821115613ace57613ace613a71565b5060051b60200190565b600082601f830112613ae957600080fd5b81356020613af682613ab4565b604051613b038282613a87565b83815260059390931b8501820192828101915086841115613b2357600080fd5b8286015b84811015613b3e5780358352918301918301613b27565b509695505050505050565b600082601f830112613b5a57600080fd5b813567ffffffffffffffff811115613b7457613b74613a71565b604051613b8b601f8301601f191660200182613a87565b818152846020838601011115613ba057600080fd5b816020850160208301376000918101602001919091529392505050565b600080600080600060a08688031215613bd557600080fd5b8535613be081613984565b94506020860135613bf081613984565b9350604086013567ffffffffffffffff80821115613c0d57600080fd5b613c1989838a01613ad8565b94506060880135915080821115613c2f57600080fd5b613c3b89838a01613ad8565b93506080880135915080821115613c5157600080fd5b50613c5e88828901613b49565b9150509295509295909350565b60008060408385031215613c7e57600080fd5b823567ffffffffffffffff80821115613c9657600080fd5b818501915085601f830112613caa57600080fd5b81356020613cb782613ab4565b604051613cc48282613a87565b83815260059390931b8501820192828101915089841115613ce457600080fd5b948201945b83861015613d0b578535613cfc81613984565b82529482019490820190613ce9565b96505086013592505080821115613d2157600080fd5b50613d2e85828601613ad8565b9150509250929050565b600081518084526020808501945080840160005b83811015613d6857815187529582019590820190600101613d4c565b509495945050505050565b6020815260006136656020830184613d38565b600060208284031215613d9857600080fd5b813561366581613984565b60608101818360005b6003811015613dcb578151835260209283019290910190600101613dac565b50505092915050565b60008060208385031215613de757600080fd5b823567ffffffffffffffff80821115613dff57600080fd5b818501915085601f830112613e1357600080fd5b813581811115613e2257600080fd5b866020828501011115613e3457600080fd5b60209290920196919550909350505050565b60008060408385031215613e5957600080fd5b8235613e6481613984565b915060208301358015158114613e7957600080fd5b809150509250929050565b60008060408385031215613e9757600080fd5b50508035926020909101359150565b60008060408385031215613eb957600080fd5b8235613ec481613984565b91506020830135613e7981613984565b600080600080600060a08688031215613eec57600080fd5b8535613ef781613984565b94506020860135613f0781613984565b93506040860135925060608601359150608086013567ffffffffffffffff811115613f3157600080fd5b613c5e88828901613b49565b634e487b7160e01b600052601260045260246000fd5b600082613f6257613f62613f3d565b500690565b634e487b7160e01b600052601160045260246000fd5b600082613f8c57613f8c613f3d565b500490565b600060208284031215613fa357600080fd5b815161366581613984565b60008219821115613fc157613fc1613f67565b500190565b600181811c90821680613fda57607f821691505b60208210811415613ffb57634e487b7160e01b600052602260045260246000fd5b50919050565b634e487b7160e01b600052603260045260246000fd5b600060001982141561402b5761402b613f67565b5060010190565b60008282101561404457614044613f67565b500390565b634e487b7160e01b600052603160045260246000fd5b60006020828403121561407157600080fd5b5051919050565b600081600019048311821515161561409257614092613f67565b500290565b6040815260006140aa6040830185613d38565b82810360208401526140bc8185613d38565b95945050505050565b600063ffffffff838116908316818110156140e2576140e2613f67565b039392505050565b60006001600160781b0380831681851680830382111561410c5761410c613f67565b01949350505050565b600061ffff80831681851680830382111561410c5761410c613f67565b60006001600160a01b03808816835280871660208401525084604083015283606083015260a0608083015261416a60a0830184613a11565b979650505050505050565b60006020828403121561418757600080fd5b8151613665816139c5565b600060033d11156141ab5760046000803e5060005160e01c5b90565b600060443d10156141bc5790565b6040516003193d81016004833e81513d67ffffffffffffffff81602484011181841117156141ec57505050505090565b82850191508151818111156142045750505050505090565b843d870101602082850101111561421e5750505050505090565b61422d60208286010187613a87565b509095945050505050565b60006001600160a01b03808816835280871660208401525060a0604083015261426460a0830186613d38565b82810360608401526142768186613d38565b9050828103608084015261428a8185613a11565b9897505050505050505056fea2646970667358221220ca4ba2b0995abd6228b8dcdfcefc56a028abd8a9738d14676abfecfd141adb0164736f6c634300080a003368747470733a2f2f6170692e636f696e6c616e6465722e6f6e652f6d6574612f736561736f6e2d6f6e6568747470733a2f2f6170692e636f696e6c616e6465722e6f6e652f6d6574612f736561736f6e2d6f6e652f7b69647d",
  "linkReferences": {},
  "deployedLinkReferences": {}
}