{
  "_format": "hh-sol-artifact-1",
  "contractName": "SeasonOne",
  "sourceName": "contracts/SeasonOne.sol",
  "abi": [
    {
      "inputs": [
        {
          "internalType": "address",
          "name": "seekersContract",
          "type": "address"
        },
        {
          "internalType": "address",
          "name": "keepeersVault",
          "type": "address"
        }
      ],
      "stateMutability": "nonpayable",
      "type": "constructor"
    },
    {
      "anonymous": false,
      "inputs": [
        {
          "indexed": false,
          "internalType": "uint256",
          "name": "id",
          "type": "uint256"
        }
      ],
      "name": "AirdropClaim",
      "type": "event"
    },
    {
      "anonymous": false,
      "inputs": [
        {
          "indexed": true,
          "internalType": "address",
          "name": "account",
          "type": "address"
        },
        {
          "indexed": true,
          "internalType": "address",
          "name": "operator",
          "type": "address"
        },
        {
          "indexed": false,
          "internalType": "bool",
          "name": "approved",
          "type": "bool"
        }
      ],
      "name": "ApprovalForAll",
      "type": "event"
    },
    {
      "anonymous": false,
      "inputs": [
        {
          "indexed": false,
          "internalType": "address",
          "name": "claimer",
          "type": "address"
        }
      ],
      "name": "ClaimedAll",
      "type": "event"
    },
    {
      "anonymous": false,
      "inputs": [
        {
          "indexed": false,
          "internalType": "address",
          "name": "depositor",
          "type": "address"
        },
        {
          "indexed": false,
          "internalType": "uint256",
          "name": "amount",
          "type": "uint256"
        }
      ],
      "name": "NewCloinDeposit",
      "type": "event"
    },
    {
      "anonymous": false,
      "inputs": [
        {
          "indexed": true,
          "internalType": "address",
          "name": "previousOwner",
          "type": "address"
        },
        {
          "indexed": true,
          "internalType": "address",
          "name": "newOwner",
          "type": "address"
        }
      ],
      "name": "OwnershipTransferred",
      "type": "event"
    },
    {
      "anonymous": false,
      "inputs": [
        {
          "indexed": false,
          "internalType": "address",
          "name": "previousOwner",
          "type": "address"
        },
        {
          "indexed": false,
          "internalType": "address",
          "name": "newOwner",
          "type": "address"
        },
        {
          "indexed": false,
          "internalType": "uint256",
          "name": "seizurePrice",
          "type": "uint256"
        },
        {
          "indexed": false,
          "internalType": "uint256",
          "name": "nextSeizurePrice",
          "type": "uint256"
        },
        {
          "indexed": false,
          "internalType": "uint256",
          "name": "currentPrize",
          "type": "uint256"
        },
        {
          "indexed": false,
          "internalType": "uint256",
          "name": "seizureNumber",
          "type": "uint256"
        }
      ],
      "name": "Seized",
      "type": "event"
    },
    {
      "anonymous": false,
      "inputs": [],
      "name": "ShardSpendable",
      "type": "event"
    },
    {
      "anonymous": false,
      "inputs": [
        {
          "indexed": false,
          "internalType": "address",
          "name": "winner",
          "type": "address"
        }
      ],
      "name": "SweetRelease",
      "type": "event"
    },
    {
      "anonymous": false,
      "inputs": [
        {
          "indexed": true,
          "internalType": "address",
          "name": "operator",
          "type": "address"
        },
        {
          "indexed": true,
          "internalType": "address",
          "name": "from",
          "type": "address"
        },
        {
          "indexed": true,
          "internalType": "address",
          "name": "to",
          "type": "address"
        },
        {
          "indexed": false,
          "internalType": "uint256[]",
          "name": "ids",
          "type": "uint256[]"
        },
        {
          "indexed": false,
          "internalType": "uint256[]",
          "name": "values",
          "type": "uint256[]"
        }
      ],
      "name": "TransferBatch",
      "type": "event"
    },
    {
      "anonymous": false,
      "inputs": [
        {
          "indexed": true,
          "internalType": "address",
          "name": "operator",
          "type": "address"
        },
        {
          "indexed": true,
          "internalType": "address",
          "name": "from",
          "type": "address"
        },
        {
          "indexed": true,
          "internalType": "address",
          "name": "to",
          "type": "address"
        },
        {
          "indexed": false,
          "internalType": "uint256",
          "name": "id",
          "type": "uint256"
        },
        {
          "indexed": false,
          "internalType": "uint256",
          "name": "value",
          "type": "uint256"
        }
      ],
      "name": "TransferSingle",
      "type": "event"
    },
    {
      "anonymous": false,
      "inputs": [
        {
          "indexed": false,
          "internalType": "string",
          "name": "value",
          "type": "string"
        },
        {
          "indexed": true,
          "internalType": "uint256",
          "name": "id",
          "type": "uint256"
        }
      ],
      "name": "URI",
      "type": "event"
    },
    {
      "inputs": [],
      "name": "COINLANDER",
      "outputs": [
        {
          "internalType": "address",
          "name": "",
          "type": "address"
        }
      ],
      "stateMutability": "view",
      "type": "function"
    },
    {
      "inputs": [],
      "name": "FIRSTSEEKERMINTTHRESH",
      "outputs": [
        {
          "internalType": "uint256",
          "name": "",
          "type": "uint256"
        }
      ],
      "stateMutability": "view",
      "type": "function"
    },
    {
      "inputs": [],
      "name": "GOODSONLYEND",
      "outputs": [
        {
          "internalType": "uint256",
          "name": "",
          "type": "uint256"
        }
      ],
      "stateMutability": "view",
      "type": "function"
    },
    {
      "inputs": [],
      "name": "ONECOIN",
      "outputs": [
        {
          "internalType": "uint256",
          "name": "",
          "type": "uint256"
        }
      ],
      "stateMutability": "view",
      "type": "function"
    },
    {
      "inputs": [],
      "name": "PERCENTRATEINCREASE",
      "outputs": [
        {
          "internalType": "uint256",
          "name": "",
          "type": "uint256"
        }
      ],
      "stateMutability": "view",
      "type": "function"
    },
    {
      "inputs": [],
      "name": "PERCENTTAKE",
      "outputs": [
        {
          "internalType": "uint256",
          "name": "",
          "type": "uint256"
        }
      ],
      "stateMutability": "view",
      "type": "function"
    },
    {
      "inputs": [],
      "name": "SECONDSEEKERMINTTHRESH",
      "outputs": [
        {
          "internalType": "uint256",
          "name": "",
          "type": "uint256"
        }
      ],
      "stateMutability": "view",
      "type": "function"
    },
    {
      "inputs": [],
      "name": "SHARD",
      "outputs": [
        {
          "internalType": "uint256",
          "name": "",
          "type": "uint256"
        }
      ],
      "stateMutability": "view",
      "type": "function"
    },
    {
      "inputs": [],
      "name": "SHARDSPENDABLE",
      "outputs": [
        {
          "internalType": "uint256",
          "name": "",
          "type": "uint256"
        }
      ],
      "stateMutability": "view",
      "type": "function"
    },
    {
      "inputs": [],
      "name": "SHARDTOFRAGMENTMULTIPLIER",
      "outputs": [
        {
          "internalType": "uint256",
          "name": "",
          "type": "uint256"
        }
      ],
      "stateMutability": "view",
      "type": "function"
    },
    {
      "inputs": [],
      "name": "SWEETRELEASE",
      "outputs": [
        {
          "internalType": "uint256",
          "name": "",
          "type": "uint256"
        }
      ],
      "stateMutability": "view",
      "type": "function"
    },
    {
      "inputs": [],
      "name": "THIRDSEEKERMINTTHRESH",
      "outputs": [
        {
          "internalType": "uint256",
          "name": "",
          "type": "uint256"
        }
      ],
      "stateMutability": "view",
      "type": "function"
    },
    {
      "inputs": [],
      "name": "UNCLOAKINGTHRESH",
      "outputs": [
        {
          "internalType": "uint256",
          "name": "",
          "type": "uint256"
        }
      ],
      "stateMutability": "view",
      "type": "function"
    },
    {
      "inputs": [
        {
          "internalType": "uint256",
          "name": "id",
          "type": "uint256"
        }
      ],
      "name": "airdropClaimBySeekerId",
      "outputs": [],
      "stateMutability": "nonpayable",
      "type": "function"
    },
    {
      "inputs": [
        {
          "internalType": "address",
          "name": "account",
          "type": "address"
        },
        {
          "internalType": "uint256",
          "name": "id",
          "type": "uint256"
        }
      ],
      "name": "balanceOf",
      "outputs": [
        {
          "internalType": "uint256",
          "name": "",
          "type": "uint256"
        }
      ],
      "stateMutability": "view",
      "type": "function"
    },
    {
      "inputs": [
        {
          "internalType": "address[]",
          "name": "accounts",
          "type": "address[]"
        },
        {
          "internalType": "uint256[]",
          "name": "ids",
          "type": "uint256[]"
        }
      ],
      "name": "balanceOfBatch",
      "outputs": [
        {
          "internalType": "uint256[]",
          "name": "",
          "type": "uint256[]"
        }
      ],
      "stateMutability": "view",
      "type": "function"
    },
    {
      "inputs": [
        {
          "internalType": "uint256",
          "name": "amount",
          "type": "uint256"
        }
      ],
      "name": "burnShardForFragments",
      "outputs": [],
      "stateMutability": "nonpayable",
      "type": "function"
    },
    {
      "inputs": [
        {
          "internalType": "uint256",
          "name": "seekerId",
          "type": "uint256"
        },
        {
          "internalType": "uint256",
          "name": "amount",
          "type": "uint256"
        }
      ],
      "name": "burnShardForScale",
      "outputs": [],
      "stateMutability": "nonpayable",
      "type": "function"
    },
    {
      "inputs": [],
      "name": "claimAll",
      "outputs": [],
      "stateMutability": "nonpayable",
      "type": "function"
    },
    {
      "inputs": [
        {
          "internalType": "uint256",
          "name": "",
          "type": "uint256"
        }
      ],
      "name": "claimedAirdropBySeekerId",
      "outputs": [
        {
          "internalType": "bool",
          "name": "",
          "type": "bool"
        }
      ],
      "stateMutability": "view",
      "type": "function"
    },
    {
      "inputs": [
        {
          "internalType": "uint256",
          "name": "",
          "type": "uint256"
        }
      ],
      "name": "cloinDeposits",
      "outputs": [
        {
          "internalType": "address",
          "name": "depositor",
          "type": "address"
        },
        {
          "internalType": "uint256",
          "name": "amount",
          "type": "uint256"
        },
        {
          "internalType": "uint256",
          "name": "blockNumber",
          "type": "uint256"
        }
      ],
      "stateMutability": "view",
      "type": "function"
    },
    {
      "inputs": [
        {
          "internalType": "uint256",
          "name": "_id",
          "type": "uint256"
        }
      ],
      "name": "getAirdropStatus",
      "outputs": [
        {
          "internalType": "bool",
          "name": "",
          "type": "bool"
        }
      ],
      "stateMutability": "view",
      "type": "function"
    },
    {
      "inputs": [
        {
          "internalType": "address",
          "name": "_user",
          "type": "address"
        }
      ],
      "name": "getPendingWithdrawl",
      "outputs": [
        {
          "internalType": "uint256[3]",
          "name": "",
          "type": "uint256[3]"
        }
      ],
      "stateMutability": "view",
      "type": "function"
    },
    {
      "inputs": [],
      "name": "getSeizureCount",
      "outputs": [
        {
          "internalType": "uint256",
          "name": "",
          "type": "uint256"
        }
      ],
      "stateMutability": "view",
      "type": "function"
    },
    {
      "inputs": [
        {
          "internalType": "address",
          "name": "account",
          "type": "address"
        },
        {
          "internalType": "address",
          "name": "operator",
          "type": "address"
        }
      ],
      "name": "isApprovedForAll",
      "outputs": [
        {
          "internalType": "bool",
          "name": "",
          "type": "bool"
        }
      ],
      "stateMutability": "view",
      "type": "function"
    },
    {
      "inputs": [
        {
          "internalType": "uint256",
          "name": "amount",
          "type": "uint256"
        }
      ],
      "name": "keeperShardMint",
      "outputs": [],
      "stateMutability": "nonpayable",
      "type": "function"
    },
    {
      "inputs": [],
      "name": "owner",
      "outputs": [
        {
          "internalType": "address",
          "name": "",
          "type": "address"
        }
      ],
      "stateMutability": "view",
      "type": "function"
    },
    {
      "inputs": [],
      "name": "ownerWithdraw",
      "outputs": [],
      "stateMutability": "payable",
      "type": "function"
    },
    {
      "inputs": [
        {
          "internalType": "address",
          "name": "",
          "type": "address"
        }
      ],
      "name": "pendingWithdrawals",
      "outputs": [
        {
          "internalType": "uint256",
          "name": "_withdrawValue",
          "type": "uint256"
        },
        {
          "internalType": "uint256",
          "name": "_shardOwed",
          "type": "uint256"
        },
        {
          "internalType": "uint256",
          "name": "_seekersOwed",
          "type": "uint256"
        }
      ],
      "stateMutability": "view",
      "type": "function"
    },
    {
      "inputs": [],
      "name": "prize",
      "outputs": [
        {
          "internalType": "uint256",
          "name": "",
          "type": "uint256"
        }
      ],
      "stateMutability": "view",
      "type": "function"
    },
    {
      "inputs": [],
      "name": "released",
      "outputs": [
        {
          "internalType": "bool",
          "name": "",
          "type": "bool"
        }
      ],
      "stateMutability": "view",
      "type": "function"
    },
    {
      "inputs": [],
      "name": "renounceOwnership",
      "outputs": [],
      "stateMutability": "nonpayable",
      "type": "function"
    },
    {
      "inputs": [
        {
          "internalType": "address",
          "name": "from",
          "type": "address"
        },
        {
          "internalType": "address",
          "name": "to",
          "type": "address"
        },
        {
          "internalType": "uint256[]",
          "name": "ids",
          "type": "uint256[]"
        },
        {
          "internalType": "uint256[]",
          "name": "amounts",
          "type": "uint256[]"
        },
        {
          "internalType": "bytes",
          "name": "data",
          "type": "bytes"
        }
      ],
      "name": "safeBatchTransferFrom",
      "outputs": [],
      "stateMutability": "nonpayable",
      "type": "function"
    },
    {
      "inputs": [
        {
          "internalType": "address",
          "name": "from",
          "type": "address"
        },
        {
          "internalType": "address",
          "name": "to",
          "type": "address"
        },
        {
          "internalType": "uint256",
          "name": "id",
          "type": "uint256"
        },
        {
          "internalType": "uint256",
          "name": "amount",
          "type": "uint256"
        },
        {
          "internalType": "bytes",
          "name": "data",
          "type": "bytes"
        }
      ],
      "name": "safeTransferFrom",
      "outputs": [],
      "stateMutability": "nonpayable",
      "type": "function"
    },
    {
      "inputs": [],
      "name": "seekers",
      "outputs": [
        {
          "internalType": "contract iSeekers",
          "name": "",
          "type": "address"
        }
      ],
      "stateMutability": "view",
      "type": "function"
    },
    {
      "inputs": [],
      "name": "seize",
      "outputs": [],
      "stateMutability": "payable",
      "type": "function"
    },
    {
      "inputs": [],
      "name": "seizureCount",
      "outputs": [
        {
          "internalType": "uint256",
          "name": "_value",
          "type": "uint256"
        }
      ],
      "stateMutability": "view",
      "type": "function"
    },
    {
      "inputs": [],
      "name": "seizureStake",
      "outputs": [
        {
          "internalType": "uint256",
          "name": "",
          "type": "uint256"
        }
      ],
      "stateMutability": "view",
      "type": "function"
    },
    {
      "inputs": [
        {
          "internalType": "address",
          "name": "operator",
          "type": "address"
        },
        {
          "internalType": "bool",
          "name": "approved",
          "type": "bool"
        }
      ],
      "name": "setApprovalForAll",
      "outputs": [],
      "stateMutability": "nonpayable",
      "type": "function"
    },
    {
      "inputs": [],
      "name": "shardSpendable",
      "outputs": [
        {
          "internalType": "bool",
          "name": "",
          "type": "bool"
        }
      ],
      "stateMutability": "view",
      "type": "function"
    },
    {
      "inputs": [
        {
          "internalType": "uint256",
          "name": "amount",
          "type": "uint256"
        }
      ],
      "name": "stakeShardForCloin",
      "outputs": [],
      "stateMutability": "nonpayable",
      "type": "function"
    },
    {
      "inputs": [
        {
          "internalType": "bytes4",
          "name": "interfaceId",
          "type": "bytes4"
        }
      ],
      "name": "supportsInterface",
      "outputs": [
        {
          "internalType": "bool",
          "name": "",
          "type": "bool"
        }
      ],
      "stateMutability": "view",
      "type": "function"
    },
    {
      "inputs": [
        {
          "internalType": "address",
          "name": "newOwner",
          "type": "address"
        }
      ],
      "name": "transferOwnership",
      "outputs": [],
      "stateMutability": "nonpayable",
      "type": "function"
    },
    {
      "inputs": [
        {
          "internalType": "uint256",
          "name": "",
          "type": "uint256"
        }
      ],
      "name": "uri",
      "outputs": [
        {
          "internalType": "string",
          "name": "",
          "type": "string"
        }
      ],
      "stateMutability": "view",
      "type": "function"
    },
    {
      "stateMutability": "payable",
      "type": "receive"
    }
  ],
  "bytecode": "0x60806040526000600560146101000a81548160ff0219169083151502179055506000600560156101000a81548160ff0219169083151502179055506000600560166101000a81548160ff02191690831515021790555065048c27395000600755600060085560006009556000600a556000600b553480156200008057600080fd5b5060405162006ad838038062006ad88339818101604052810190620000a6919062000964565b6040518060600160405280602a815260200162006aae602a9139620000d1816200021060201b60201c565b50620000f2620000e66200022c60201b60201c565b6200023460201b60201c565b60016004819055506200014533600060016040518060400160405280600381526020017f3078300000000000000000000000000000000000000000000000000000000000815250620002fa60201b60201c565b33600560006101000a81548173ffffffffffffffffffffffffffffffffffffffff021916908373ffffffffffffffffffffffffffffffffffffffff16021790555081600f60006101000a81548173ffffffffffffffffffffffffffffffffffffffff021916908373ffffffffffffffffffffffffffffffffffffffff16021790555080601060006101000a81548173ffffffffffffffffffffffffffffffffffffffff021916908373ffffffffffffffffffffffffffffffffffffffff16021790555050506200108b565b80600290805190602001906200022892919062000840565b5050565b600033905090565b6000600360009054906101000a900473ffffffffffffffffffffffffffffffffffffffff16905081600360006101000a81548173ffffffffffffffffffffffffffffffffffffffff021916908373ffffffffffffffffffffffffffffffffffffffff1602179055508173ffffffffffffffffffffffffffffffffffffffff168173ffffffffffffffffffffffffffffffffffffffff167f8be0079c531659141344cd1fd0a4f28419497f9722a3daafe3b4186f6b6457e060405160405180910390a35050565b600073ffffffffffffffffffffffffffffffffffffffff168473ffffffffffffffffffffffffffffffffffffffff1614156200036d576040517f08c379a0000000000000000000000000000000000000000000000000000000008152600401620003649062000a32565b60405180910390fd5b60006200037f6200022c60201b60201c565b9050620003b8816000876200039a88620004bf60201b60201c565b620003ab88620004bf60201b60201c565b876200054060201b60201c565b8260008086815260200190815260200160002060008773ffffffffffffffffffffffffffffffffffffffff1673ffffffffffffffffffffffffffffffffffffffff168152602001908152602001600020600082825462000419919062000a8d565b925050819055508473ffffffffffffffffffffffffffffffffffffffff16600073ffffffffffffffffffffffffffffffffffffffff168273ffffffffffffffffffffffffffffffffffffffff167fc3d58168c5ae7397731d063d5bbf3d657854427343f4c083240f7aacaa2d0f6287876040516200049992919062000afb565b60405180910390a4620004b8816000878787876200061b60201b60201c565b5050505050565b60606000600167ffffffffffffffff811115620004e157620004e062000b28565b5b604051908082528060200260200182016040528015620005105781602001602082028036833780820191505090505b50905082816000815181106200052b576200052a62000b57565b5b60200260200101818152505080915050919050565b600560149054906101000a900460ff16620005f85760005b8351811015620005f65760008482815181106200057a576200057962000b57565b5b60200260200101511415620005e057600073ffffffffffffffffffffffffffffffffffffffff168673ffffffffffffffffffffffffffffffffffffffff1614158015620005d45750600560169054906101000a900460ff16155b15620005df57600080fd5b5b8080620005ed9062000b86565b91505062000558565b505b620006138686868686866200082560201b620023dc1760201c565b505050505050565b620006478473ffffffffffffffffffffffffffffffffffffffff166200082d60201b620023e41760201c565b156200081d578373ffffffffffffffffffffffffffffffffffffffff1663f23a6e6187878686866040518663ffffffff1660e01b81526004016200069095949392919062000c89565b602060405180830381600087803b158015620006ab57600080fd5b505af1925050508015620006df57506040513d601f19601f82011682018060405250810190620006dc919062000d4a565b60015b6200079157620006ee62000d89565b806308c379a014156200075257506200070662000de4565b8062000713575062000754565b806040517f08c379a000000000000000000000000000000000000000000000000000000000815260040162000749919062000ed2565b60405180910390fd5b505b6040517f08c379a0000000000000000000000000000000000000000000000000000000008152600401620007889062000f6c565b60405180910390fd5b63f23a6e6160e01b7bffffffffffffffffffffffffffffffffffffffffffffffffffffffff1916817bffffffffffffffffffffffffffffffffffffffffffffffffffffffff1916146200081b576040517f08c379a0000000000000000000000000000000000000000000000000000000008152600401620008129062001004565b60405180910390fd5b505b505050505050565b505050505050565b600080823b905060008111915050919050565b8280546200084e9062001055565b90600052602060002090601f016020900481019282620008725760008555620008be565b82601f106200088d57805160ff1916838001178555620008be565b82800160010185558215620008be579182015b82811115620008bd578251825591602001919060010190620008a0565b5b509050620008cd9190620008d1565b5090565b5b80821115620008ec576000816000905550600101620008d2565b5090565b6000604051905090565b600080fd5b600073ffffffffffffffffffffffffffffffffffffffff82169050919050565b60006200092c82620008ff565b9050919050565b6200093e816200091f565b81146200094a57600080fd5b50565b6000815190506200095e8162000933565b92915050565b600080604083850312156200097e576200097d620008fa565b5b60006200098e858286016200094d565b9250506020620009a1858286016200094d565b9150509250929050565b600082825260208201905092915050565b7f455243313135353a206d696e7420746f20746865207a65726f2061646472657360008201527f7300000000000000000000000000000000000000000000000000000000000000602082015250565b600062000a1a602183620009ab565b915062000a2782620009bc565b604082019050919050565b6000602082019050818103600083015262000a4d8162000a0b565b9050919050565b6000819050919050565b7f4e487b7100000000000000000000000000000000000000000000000000000000600052601160045260246000fd5b600062000a9a8262000a54565b915062000aa78362000a54565b9250827fffffffffffffffffffffffffffffffffffffffffffffffffffffffffffffffff0382111562000adf5762000ade62000a5e565b5b828201905092915050565b62000af58162000a54565b82525050565b600060408201905062000b12600083018562000aea565b62000b21602083018462000aea565b9392505050565b7f4e487b7100000000000000000000000000000000000000000000000000000000600052604160045260246000fd5b7f4e487b7100000000000000000000000000000000000000000000000000000000600052603260045260246000fd5b600062000b938262000a54565b91507fffffffffffffffffffffffffffffffffffffffffffffffffffffffffffffffff82141562000bc95762000bc862000a5e565b5b600182019050919050565b62000bdf816200091f565b82525050565b600081519050919050565b600082825260208201905092915050565b60005b8381101562000c2157808201518184015260208101905062000c04565b8381111562000c31576000848401525b50505050565b6000601f19601f8301169050919050565b600062000c558262000be5565b62000c61818562000bf0565b935062000c7381856020860162000c01565b62000c7e8162000c37565b840191505092915050565b600060a08201905062000ca0600083018862000bd4565b62000caf602083018762000bd4565b62000cbe604083018662000aea565b62000ccd606083018562000aea565b818103608083015262000ce1818462000c48565b90509695505050505050565b60007fffffffff0000000000000000000000000000000000000000000000000000000082169050919050565b62000d248162000ced565b811462000d3057600080fd5b50565b60008151905062000d448162000d19565b92915050565b60006020828403121562000d635762000d62620008fa565b5b600062000d738482850162000d33565b91505092915050565b60008160e01c9050919050565b600060033d111562000dab5760046000803e62000da860005162000d7c565b90505b90565b62000db98262000c37565b810181811067ffffffffffffffff8211171562000ddb5762000dda62000b28565b5b80604052505050565b600060443d101562000df65762000e83565b62000e00620008f0565b60043d036004823e80513d602482011167ffffffffffffffff8211171562000e2a57505062000e83565b808201805167ffffffffffffffff81111562000e4a575050505062000e83565b80602083010160043d03850181111562000e6957505050505062000e83565b62000e7a8260200185018662000dae565b82955050505050505b90565b600081519050919050565b600062000e9e8262000e86565b62000eaa8185620009ab565b935062000ebc81856020860162000c01565b62000ec78162000c37565b840191505092915050565b6000602082019050818103600083015262000eee818462000e91565b905092915050565b7f455243313135353a207472616e7366657220746f206e6f6e204552433131353560008201527f526563656976657220696d706c656d656e746572000000000000000000000000602082015250565b600062000f54603483620009ab565b915062000f618262000ef6565b604082019050919050565b6000602082019050818103600083015262000f878162000f45565b9050919050565b7f455243313135353a204552433131353552656365697665722072656a6563746560008201527f6420746f6b656e73000000000000000000000000000000000000000000000000602082015250565b600062000fec602883620009ab565b915062000ff98262000f8e565b604082019050919050565b600060208201905081810360008301526200101f8162000fdd565b9050919050565b7f4e487b7100000000000000000000000000000000000000000000000000000000600052602260045260246000fd5b600060028204905060018216806200106e57607f821691505b6020821081141562001085576200108462001026565b5b50919050565b615a13806200109b6000396000f3fe60806040526004361061026a5760003560e01c80637701ada611610144578063b5ebfdc3116100b6578063e3ac5d261161007a578063e3ac5d26146108f7578063e985e9c514610922578063f242432a1461095f578063f2e3a6d014610988578063f2fde38b146109b1578063f3f43703146109da57610274565b8063b5ebfdc314610822578063bbdf79b01461084d578063d1058e5914610878578063d431d5841461088f578063d66d4a67146108ba57610274565b80638da5cb5b116101085780638da5cb5b14610722578063961325211461074d578063988c3fd914610778578063a22cb465146107a3578063a4ba6919146107cc578063a61b1a53146107f757610274565b80637701ada61461063b5780637b0ba284146106645780637fb0ba581461068f578063824be390146106ba5780638477bfab146106f957610274565b806340ebe5bc116101dd57806354a14201116101a157806354a142011461055c57806355999083146105875780635a5bce22146105c4578063605297e1146105ef5780636b487a1e146105f9578063715018a61461062457610274565b806340ebe5bc146104945780634311de8f146104bf5780634e1273f4146104c9578063536363fe1461050657806353a9fd611461053157610274565b80630e89341c1161022f5780630e89341c146103705780632285fcba146103ad578063244b21f2146103d85780632eb2c2d61461040357806333e645221461042c5780633e709c701461046957610274565b8062fdd58e1461027957806301ffc9a7146102b657806303ca64a6146102f35780630b99c5481461031e5780630c3dedff1461034757610274565b3661027457600080fd5b600080fd5b34801561028557600080fd5b506102a0600480360381019061029b9190613de2565b610a19565b6040516102ad9190613e31565b60405180910390f35b3480156102c257600080fd5b506102dd60048036038101906102d89190613ea4565b610ae2565b6040516102ea9190613eec565b60405180910390f35b3480156102ff57600080fd5b50610308610bc4565b6040516103159190613e31565b60405180910390f35b34801561032a57600080fd5b5061034560048036038101906103409190613f07565b610bca565b005b34801561035357600080fd5b5061036e60048036038101906103699190613f07565b610d2d565b005b34801561037c57600080fd5b5061039760048036038101906103929190613f07565b610f94565b6040516103a49190613fcd565b60405180910390f35b3480156103b957600080fd5b506103c2611028565b6040516103cf919061404e565b60405180910390f35b3480156103e457600080fd5b506103ed61104e565b6040516103fa9190613e31565b60405180910390f35b34801561040f57600080fd5b5061042a60048036038101906104259190614266565b611054565b005b34801561043857600080fd5b50610453600480360381019061044e9190613f07565b6110f5565b6040516104609190613eec565b60405180910390f35b34801561047557600080fd5b5061047e61111f565b60405161048b9190613e31565b60405180910390f35b3480156104a057600080fd5b506104a9611125565b6040516104b69190613e31565b60405180910390f35b6104c761112a565b005b3480156104d557600080fd5b506104f060048036038101906104eb91906143f8565b61120e565b6040516104fd919061452e565b60405180910390f35b34801561051257600080fd5b5061051b611327565b6040516105289190613e31565b60405180910390f35b34801561053d57600080fd5b50610546611338565b6040516105539190613e31565b60405180910390f35b34801561056857600080fd5b5061057161133e565b60405161057e919061455f565b60405180910390f35b34801561059357600080fd5b506105ae60048036038101906105a99190613f07565b611364565b6040516105bb9190613eec565b60405180910390f35b3480156105d057600080fd5b506105d9611384565b6040516105e69190613e31565b60405180910390f35b6105f761138a565b005b34801561060557600080fd5b5061060e6115b1565b60405161061b9190613e31565b60405180910390f35b34801561063057600080fd5b506106396115b7565b005b34801561064757600080fd5b50610662600480360381019061065d9190613f07565b61163f565b005b34801561067057600080fd5b50610679611741565b6040516106869190613e31565b60405180910390f35b34801561069b57600080fd5b506106a4611746565b6040516106b19190613e31565b60405180910390f35b3480156106c657600080fd5b506106e160048036038101906106dc9190613f07565b611752565b6040516106f09392919061457a565b60405180910390f35b34801561070557600080fd5b50610720600480360381019061071b91906145b1565b6117ac565b005b34801561072e57600080fd5b506107376118f7565b604051610744919061455f565b60405180910390f35b34801561075957600080fd5b50610762611921565b60405161076f9190613eec565b60405180910390f35b34801561078457600080fd5b5061078d611934565b60405161079a9190613eec565b60405180910390f35b3480156107af57600080fd5b506107ca60048036038101906107c5919061461d565b611947565b005b3480156107d857600080fd5b506107e1611ac8565b6040516107ee9190613e31565b60405180910390f35b34801561080357600080fd5b5061080c611acd565b6040516108199190613e31565b60405180910390f35b34801561082e57600080fd5b50610837611ad2565b6040516108449190613e31565b60405180910390f35b34801561085957600080fd5b50610862611ad8565b60405161086f9190613e31565b60405180910390f35b34801561088457600080fd5b5061088d611add565b005b34801561089b57600080fd5b506108a4611ec9565b6040516108b19190613e31565b60405180910390f35b3480156108c657600080fd5b506108e160048036038101906108dc919061465d565b611ecf565b6040516108ee919061470e565b60405180910390f35b34801561090357600080fd5b5061090c611fbf565b6040516109199190613e31565b60405180910390f35b34801561092e57600080fd5b5061094960048036038101906109449190614729565b611fc5565b6040516109569190613eec565b60405180910390f35b34801561096b57600080fd5b5061098660048036038101906109819190614769565b612059565b005b34801561099457600080fd5b506109af60048036038101906109aa9190613f07565b6120fa565b005b3480156109bd57600080fd5b506109d860048036038101906109d3919061465d565b6122ba565b005b3480156109e657600080fd5b50610a0160048036038101906109fc919061465d565b6123b2565b604051610a1093929190614800565b60405180910390f35b60008073ffffffffffffffffffffffffffffffffffffffff168373ffffffffffffffffffffffffffffffffffffffff161415610a8a576040517f08c379a0000000000000000000000000000000000000000000000000000000008152600401610a81906148a9565b60405180910390fd5b60008083815260200190815260200160002060008473ffffffffffffffffffffffffffffffffffffffff1673ffffffffffffffffffffffffffffffffffffffff16815260200190815260200160002054905092915050565b60007fd9b67a26000000000000000000000000000000000000000000000000000000007bffffffffffffffffffffffffffffffffffffffffffffffffffffffff1916827bffffffffffffffffffffffffffffffffffffffffffffffffffffffff19161480610bad57507f0e89341c000000000000000000000000000000000000000000000000000000007bffffffffffffffffffffffffffffffffffffffffffffffffffffffff1916827bffffffffffffffffffffffffffffffffffffffffffffffffffffffff1916145b80610bbd5750610bbc826123f7565b5b9050919050565b61045781565b60026004541415610c10576040517f08c379a0000000000000000000000000000000000000000000000000000000008152600401610c0790614915565b60405180910390fd5b600260048190555060011515600560159054906101000a900460ff16151514610c3857600080fd5b60008111610c4557600080fd5b6000600582610c549190614964565b14610c5e57600080fd5b80610c6a336001610a19565b1015610c7557600080fd5b6000600582610c8491906149c4565b9050610c9233600184612461565b601060009054906101000a900473ffffffffffffffffffffffffffffffffffffffff1673ffffffffffffffffffffffffffffffffffffffff1663ce16d16633836040518363ffffffff1660e01b8152600401610cef9291906149f5565b600060405180830381600087803b158015610d0957600080fd5b505af1158015610d1d573d6000803e3d6000fd5b5050505050600160048190555050565b60026004541415610d73576040517f08c379a0000000000000000000000000000000000000000000000000000000008152600401610d6a90614915565b60405180910390fd5b600260048190555060011515600560149054906101000a900460ff16151514610d9b57600080fd5b3373ffffffffffffffffffffffffffffffffffffffff16600f60009054906101000a900473ffffffffffffffffffffffffffffffffffffffff1673ffffffffffffffffffffffffffffffffffffffff16636352211e836040518263ffffffff1660e01b8152600401610e0d9190613e31565b60206040518083038186803b158015610e2557600080fd5b505afa158015610e39573d6000803e3d6000fd5b505050506040513d601f19601f82011682018060405250810190610e5d9190614a33565b73ffffffffffffffffffffffffffffffffffffffff1614610e7d57600080fd5b600d600082815260200190815260200160002060009054906101000a900460ff1615610ea857600080fd5b6001600d600083815260200190815260200160002060006101000a81548160ff021916908315150217905550600080610ee260038461267e565b90506000610ef160038361267e565b905080826001610f019190614a60565b610f0b9190614a60565b92507f574d48e4ee52f43b5e22c7df8072b47c861cf56c56d7b13812310531f4ffc6fb84604051610f3c9190613e31565b60405180910390a1610f86336001856040518060400160405280600381526020017f30783000000000000000000000000000000000000000000000000000000000008152506126d9565b505050600160048190555050565b606060028054610fa390614ae5565b80601f0160208091040260200160405190810160405280929190818152602001828054610fcf90614ae5565b801561101c5780601f10610ff15761010080835404028352916020019161101c565b820191906000526020600020905b815481529060010190602001808311610fff57829003601f168201915b50505050509050919050565b600f60009054906101000a900473ffffffffffffffffffffffffffffffffffffffff1681565b61030981565b61105c61286f565b73ffffffffffffffffffffffffffffffffffffffff168573ffffffffffffffffffffffffffffffffffffffff1614806110a257506110a18561109c61286f565b611fc5565b5b6110e1576040517f08c379a00000000000000000000000000000000000000000000000000000000081526004016110d890614b89565b60405180910390fd5b6110ee8585858585612877565b5050505050565b6000600d600083815260200190815260200160002060009054906101000a900460ff169050919050565b61022b81565b600181565b61113261286f565b73ffffffffffffffffffffffffffffffffffffffff166111506118f7565b73ffffffffffffffffffffffffffffffffffffffff16146111a6576040517f08c379a000000000000000000000000000000000000000000000000000000000815260040161119d90614bf5565b60405180910390fd5b6000600a54116111b557600080fd5b6000600a5490506000600a819055503373ffffffffffffffffffffffffffffffffffffffff166108fc829081150290604051600060405180830381858888f1935050505015801561120a573d6000803e3d6000fd5b5050565b60608151835114611254576040517f08c379a000000000000000000000000000000000000000000000000000000000815260040161124b90614c87565b60405180910390fd5b6000835167ffffffffffffffff8111156112715761127061406e565b5b60405190808252806020026020018201604052801561129f5781602001602082028036833780820191505090505b50905060005b845181101561131c576112ec8582815181106112c4576112c3614ca7565b5b60200260200101518583815181106112df576112de614ca7565b5b6020026020010151610a19565b8282815181106112ff576112fe614ca7565b5b6020026020010181815250508061131590614cd6565b90506112a5565b508091505092915050565b60006113336006612b8b565b905090565b61029a81565b600560009054906101000a900473ffffffffffffffffffffffffffffffffffffffff1681565b600d6020528060005260406000206000915054906101000a900460ff1681565b61014d81565b600260045414156113d0576040517f08c379a00000000000000000000000000000000000000000000000000000000081526004016113c790614915565b60405180910390fd5b600260048190555060001515600560149054906101000a900460ff1615151461142e576040517f08c379a000000000000000000000000000000000000000000000000000000000815260040161142590614d6b565b60405180910390fd5b6007543414611472576040517f08c379a000000000000000000000000000000000000000000000000000000000815260040161146990614dd7565b60405180910390fd5b600560009054906101000a900473ffffffffffffffffffffffffffffffffffffffff1673ffffffffffffffffffffffffffffffffffffffff163373ffffffffffffffffffffffffffffffffffffffff161415611503576040517f08c379a00000000000000000000000000000000000000000000000000000000081526004016114fa90614e43565b60405180910390fd5b6000600560009054906101000a900473ffffffffffffffffffffffffffffffffffffffff16905060003390506115396006612b99565b6115438282612baf565b61154f82600854612c83565b7fcbe7cd1556c10b870bde340c9b25b4ea2d3709a1da0e63de8a9a1a18a28894a88282346007546009546115836006612b8b565b60405161159596959493929190614e63565b60405180910390a16115a5612e8f565b50506001600481905550565b61037881565b6115bf61286f565b73ffffffffffffffffffffffffffffffffffffffff166115dd6118f7565b73ffffffffffffffffffffffffffffffffffffffff1614611633576040517f08c379a000000000000000000000000000000000000000000000000000000000815260040161162a90614bf5565b60405180910390fd5b61163d6000613253565b565b61164761286f565b73ffffffffffffffffffffffffffffffffffffffff166116656118f7565b73ffffffffffffffffffffffffffffffffffffffff16146116bb576040517f08c379a00000000000000000000000000000000000000000000000000000000081526004016116b290614bf5565b60405180910390fd5b606f81600b546116cb9190614a60565b11156116d657600080fd5b600081116116e357600080fd5b80600b60008282546116f59190614a60565b9250508190555061173e336001836040518060400160405280600381526020017f30783000000000000000000000000000000000000000000000000000000000008152506126d9565b50565b605081565b60068060000154905081565b600e818154811061176257600080fd5b90600052602060002090600302016000915090508060000160009054906101000a900473ffffffffffffffffffffffffffffffffffffffff16908060010154908060020154905083565b600260045414156117f2576040517f08c379a00000000000000000000000000000000000000000000000000000000081526004016117e990614915565b60405180910390fd5b600260048190555060011515600560159054906101000a900460ff1615151461181a57600080fd5b6000811161182757600080fd5b80611833336001610a19565b101561183e57600080fd5b61184a33600183612461565b60006008826118599190614ec4565b9050600f60009054906101000a900473ffffffffffffffffffffffffffffffffffffffff1673ffffffffffffffffffffffffffffffffffffffff1663ff799ebb84836040518363ffffffff1660e01b81526004016118b8929190614f1e565b600060405180830381600087803b1580156118d257600080fd5b505af11580156118e6573d6000803e3d6000fd5b505050505060016004819055505050565b6000600360009054906101000a900473ffffffffffffffffffffffffffffffffffffffff16905090565b600560149054906101000a900460ff1681565b600560159054906101000a900460ff1681565b8173ffffffffffffffffffffffffffffffffffffffff1661196661286f565b73ffffffffffffffffffffffffffffffffffffffff1614156119bd576040517f08c379a00000000000000000000000000000000000000000000000000000000081526004016119b490614fb9565b60405180910390fd5b80600160006119ca61286f565b73ffffffffffffffffffffffffffffffffffffffff1673ffffffffffffffffffffffffffffffffffffffff16815260200190815260200160002060008473ffffffffffffffffffffffffffffffffffffffff1673ffffffffffffffffffffffffffffffffffffffff16815260200190815260200160002060006101000a81548160ff0219169083151502179055508173ffffffffffffffffffffffffffffffffffffffff16611a7761286f565b73ffffffffffffffffffffffffffffffffffffffff167f17307eab39ab6107e8899845ad3d59bd9653f200f220920489ca2b5937696c3183604051611abc9190613eec565b60405180910390a35050565b600581565b603281565b60075481565b600081565b60026004541415611b23576040517f08c379a0000000000000000000000000000000000000000000000000000000008152600401611b1a90614915565b60405180910390fd5b60026004819055506000600c60003373ffffffffffffffffffffffffffffffffffffffff1673ffffffffffffffffffffffffffffffffffffffff1681526020019081526020016000206000015490506000600c60003373ffffffffffffffffffffffffffffffffffffffff1673ffffffffffffffffffffffffffffffffffffffff1681526020019081526020016000206001015490506000600c60003373ffffffffffffffffffffffffffffffffffffffff1673ffffffffffffffffffffffffffffffffffffffff1681526020019081526020016000206002015490506000831115611cc9576000600c60003373ffffffffffffffffffffffffffffffffffffffff1673ffffffffffffffffffffffffffffffffffffffff1681526020019081526020016000206000018190555060003373ffffffffffffffffffffffffffffffffffffffff1684604051611c779061500a565b60006040518083038185875af1925050503d8060008114611cb4576040519150601f19603f3d011682016040523d82523d6000602084013e611cb9565b606091505b5050905080611cc757600080fd5b505b6000821115611d5d576000600c60003373ffffffffffffffffffffffffffffffffffffffff1673ffffffffffffffffffffffffffffffffffffffff16815260200190815260200160002060010181905550611d5c336001846040518060400160405280600381526020017f30783000000000000000000000000000000000000000000000000000000000008152506126d9565b5b6000811115611e80576000600c60003373ffffffffffffffffffffffffffffffffffffffff1673ffffffffffffffffffffffffffffffffffffffff1681526020019081526020016000206002018190555060005b81811015611e7a57600f60009054906101000a900473ffffffffffffffffffffffffffffffffffffffff1673ffffffffffffffffffffffffffffffffffffffff166394a3b4d9336040518263ffffffff1660e01b8152600401611e14919061455f565b602060405180830381600087803b158015611e2e57600080fd5b505af1158015611e42573d6000803e3d6000fd5b505050506040513d601f19601f82011682018060405250810190611e669190615034565b508080611e7290614cd6565b915050611db1565b50611e85565b600080fd5b7fa81402d20429b2b3224cce54a32d277a0c31233c545221acf4e01cce7824d8e533604051611eb4919061455f565b60405180910390a15050506001600481905550565b6101bc81565b611ed7613ce1565b6040518060600160405280600c60008573ffffffffffffffffffffffffffffffffffffffff1673ffffffffffffffffffffffffffffffffffffffff168152602001908152602001600020600001548152602001600c60008573ffffffffffffffffffffffffffffffffffffffff1673ffffffffffffffffffffffffffffffffffffffff168152602001908152602001600020600101548152602001600c60008573ffffffffffffffffffffffffffffffffffffffff1673ffffffffffffffffffffffffffffffffffffffff168152602001908152602001600020600201548152509050919050565b60095481565b6000600160008473ffffffffffffffffffffffffffffffffffffffff1673ffffffffffffffffffffffffffffffffffffffff16815260200190815260200160002060008373ffffffffffffffffffffffffffffffffffffffff1673ffffffffffffffffffffffffffffffffffffffff16815260200190815260200160002060009054906101000a900460ff16905092915050565b61206161286f565b73ffffffffffffffffffffffffffffffffffffffff168573ffffffffffffffffffffffffffffffffffffffff1614806120a757506120a6856120a161286f565b611fc5565b5b6120e6576040517f08c379a00000000000000000000000000000000000000000000000000000000081526004016120dd906150d3565b60405180910390fd5b6120f38585858585613319565b5050505050565b60026004541415612140576040517f08c379a000000000000000000000000000000000000000000000000000000000815260040161213790614915565b60405180910390fd5b600260048190555060011515600560159054906101000a900460ff1615151461216857600080fd5b6000811161217557600080fd5b80612181336001610a19565b101561218c57600080fd5b61219833600183612461565b6121a0613d03565b33816000019073ffffffffffffffffffffffffffffffffffffffff16908173ffffffffffffffffffffffffffffffffffffffff16815250508181602001818152505043816040018181525050600e81908060018154018082558091505060019003906000526020600020906003020160009091909190915060008201518160000160006101000a81548173ffffffffffffffffffffffffffffffffffffffff021916908373ffffffffffffffffffffffffffffffffffffffff160217905550602082015181600101556040820151816002015550507fc5f3d34e6b29574a1f477d6bd229d495fd0b21431ffe2b6c3dcef29d724afb9333836040516122a69291906149f5565b60405180910390a150600160048190555050565b6122c261286f565b73ffffffffffffffffffffffffffffffffffffffff166122e06118f7565b73ffffffffffffffffffffffffffffffffffffffff1614612336576040517f08c379a000000000000000000000000000000000000000000000000000000000815260040161232d90614bf5565b60405180910390fd5b600073ffffffffffffffffffffffffffffffffffffffff168173ffffffffffffffffffffffffffffffffffffffff1614156123a6576040517f08c379a000000000000000000000000000000000000000000000000000000000815260040161239d90615165565b60405180910390fd5b6123af81613253565b50565b600c6020528060005260406000206000915090508060000154908060010154908060020154905083565b505050505050565b600080823b905060008111915050919050565b60007f01ffc9a7000000000000000000000000000000000000000000000000000000007bffffffffffffffffffffffffffffffffffffffffffffffffffffffff1916827bffffffffffffffffffffffffffffffffffffffffffffffffffffffff1916149050919050565b600073ffffffffffffffffffffffffffffffffffffffff168373ffffffffffffffffffffffffffffffffffffffff1614156124d1576040517f08c379a00000000000000000000000000000000000000000000000000000000081526004016124c8906151f7565b60405180910390fd5b60006124db61286f565b905061250b818560006124ed8761359b565b6124f68761359b565b60405180602001604052806000815250613615565b600080600085815260200190815260200160002060008673ffffffffffffffffffffffffffffffffffffffff1673ffffffffffffffffffffffffffffffffffffffff168152602001908152602001600020549050828110156125a2576040517f08c379a000000000000000000000000000000000000000000000000000000000815260040161259990615289565b60405180910390fd5b82810360008086815260200190815260200160002060008773ffffffffffffffffffffffffffffffffffffffff1673ffffffffffffffffffffffffffffffffffffffff16815260200190815260200160002081905550600073ffffffffffffffffffffffffffffffffffffffff168573ffffffffffffffffffffffffffffffffffffffff168373ffffffffffffffffffffffffffffffffffffffff167fc3d58168c5ae7397731d063d5bbf3d657854427343f4c083240f7aacaa2d0f62878760405161266f929190614f1e565b60405180910390a45050505050565b600080838360014361269091906152a9565b404144336040516020016126a9969594939291906153ac565b6040516020818303038152906040528051906020012060001c905083816126d09190614964565b91505092915050565b600073ffffffffffffffffffffffffffffffffffffffff168473ffffffffffffffffffffffffffffffffffffffff161415612749576040517f08c379a00000000000000000000000000000000000000000000000000000000081526004016127409061548e565b60405180910390fd5b600061275361286f565b9050612774816000876127658861359b565b61276e8861359b565b87613615565b8260008086815260200190815260200160002060008773ffffffffffffffffffffffffffffffffffffffff1673ffffffffffffffffffffffffffffffffffffffff16815260200190815260200160002060008282546127d39190614a60565b925050819055508473ffffffffffffffffffffffffffffffffffffffff16600073ffffffffffffffffffffffffffffffffffffffff168273ffffffffffffffffffffffffffffffffffffffff167fc3d58168c5ae7397731d063d5bbf3d657854427343f4c083240f7aacaa2d0f628787604051612851929190614f1e565b60405180910390a4612868816000878787876136d8565b5050505050565b600033905090565b81518351146128bb576040517f08c379a00000000000000000000000000000000000000000000000000000000081526004016128b290615520565b60405180910390fd5b600073ffffffffffffffffffffffffffffffffffffffff168473ffffffffffffffffffffffffffffffffffffffff16141561292b576040517f08c379a0000000000000000000000000000000000000000000000000000000008152600401612922906155b2565b60405180910390fd5b600061293561286f565b9050612945818787878787613615565b60005b8451811015612af657600085828151811061296657612965614ca7565b5b60200260200101519050600085838151811061298557612984614ca7565b5b60200260200101519050600080600084815260200190815260200160002060008b73ffffffffffffffffffffffffffffffffffffffff1673ffffffffffffffffffffffffffffffffffffffff16815260200190815260200160002054905081811015612a26576040517f08c379a0000000000000000000000000000000000000000000000000000000008152600401612a1d90615644565b60405180910390fd5b81810360008085815260200190815260200160002060008c73ffffffffffffffffffffffffffffffffffffffff1673ffffffffffffffffffffffffffffffffffffffff168152602001908152602001600020819055508160008085815260200190815260200160002060008b73ffffffffffffffffffffffffffffffffffffffff1673ffffffffffffffffffffffffffffffffffffffff1681526020019081526020016000206000828254612adb9190614a60565b9250508190555050505080612aef90614cd6565b9050612948565b508473ffffffffffffffffffffffffffffffffffffffff168673ffffffffffffffffffffffffffffffffffffffff168273ffffffffffffffffffffffffffffffffffffffff167f4a39dc06d4c0dbc64b70af90fd698a233a518aa5d07e595d983b8c0526c8f7fb8787604051612b6d929190615664565b60405180910390a4612b838187878787876138bf565b505050505050565b600081600001549050919050565b6001816000016000828254019250508190555050565b6001600560166101000a81548160ff021916908315150217905550612c0e8282600060016040518060400160405280600381526020017f3078300000000000000000000000000000000000000000000000000000000000815250613319565b6000600560166101000a81548160ff021916908315150217905550600560149054906101000a900460ff16612c7f5780600560006101000a81548173ffffffffffffffffffffffffffffffffffffffff021916908373ffffffffffffffffffffffffffffffffffffffff1602179055505b5050565b6001612c8f6006612b8b565b14612e3e576000612710603283612ca69190614ec4565b612cb091906149c4565b9050600061271061138883612cc59190614ec4565b612ccf91906149c4565b90508082612cdd91906152a9565b600a6000828254612cee9190614a60565b925050819055508060096000828254612d079190614a60565b9250508190555060008284612d1c91906152a9565b905080600c60008773ffffffffffffffffffffffffffffffffffffffff1673ffffffffffffffffffffffffffffffffffffffff1681526020019081526020016000206000016000828254612d709190614a60565b925050819055506000612d84600854613aa6565b905080600c60008873ffffffffffffffffffffffffffffffffffffffff1673ffffffffffffffffffffffffffffffffffffffff1681526020019081526020016000206001016000828254612dd89190614a60565b925050819055506001600c60008873ffffffffffffffffffffffffffffffffffffffff1673ffffffffffffffffffffffffffffffffffffffff1681526020019081526020016000206002016000828254612e329190614a60565b92505081905550505050505b600560149054906101000a900460ff16612e8b576007546008819055506127106050600754612e6d9190614ec4565b612e7791906149c4565b600754612e849190614a60565b6007819055505b5050565b6000612e9b6006612b8b565b905061014d811415612f2a57600f60009054906101000a900473ffffffffffffffffffffffffffffffffffffffff1673ffffffffffffffffffffffffffffffffffffffff166310b127096040518163ffffffff1660e01b8152600401600060405180830381600087803b158015612f1157600080fd5b505af1158015612f25573d6000803e3d6000fd5b505050505b61029a811415612fb757600f60009054906101000a900473ffffffffffffffffffffffffffffffffffffffff1673ffffffffffffffffffffffffffffffffffffffff1663dec3a74c6040518163ffffffff1660e01b8152600401600060405180830381600087803b158015612f9e57600080fd5b505af1158015612fb2573d6000803e3d6000fd5b505050505b61030981141561304457600f60009054906101000a900473ffffffffffffffffffffffffffffffffffffffff1673ffffffffffffffffffffffffffffffffffffffff16636e39a3456040518163ffffffff1660e01b8152600401600060405180830381600087803b15801561302b57600080fd5b505af115801561303f573d6000803e3d6000fd5b505050505b6103788114156130d157600f60009054906101000a900473ffffffffffffffffffffffffffffffffffffffff1673ffffffffffffffffffffffffffffffffffffffff1663fe0194626040518163ffffffff1660e01b8152600401600060405180830381600087803b1580156130b857600080fd5b505af11580156130cc573d6000803e3d6000fd5b505050505b61030981111561315e57600f60009054906101000a900473ffffffffffffffffffffffffffffffffffffffff1673ffffffffffffffffffffffffffffffffffffffff1663b085a3f76040518163ffffffff1660e01b8152600401600060405180830381600087803b15801561314557600080fd5b505af1158015613159573d6000803e3d6000fd5b505050505b6101bc8114156131eb57600f60009054906101000a900473ffffffffffffffffffffffffffffffffffffffff1673ffffffffffffffffffffffffffffffffffffffff16634f483b8e6040518163ffffffff1660e01b8152600401600060405180830381600087803b1580156131d257600080fd5b505af11580156131e6573d6000803e3d6000fd5b505050505b61022b81141561323d576001600560156101000a81548160ff0219169083151502179055507f4edc15228784eebfc5aeba6b9908179c0dfd601a62756f6d3e2d3bb1c52c3c0d60405160405180910390a15b6104578114156132505761324f613aef565b5b50565b6000600360009054906101000a900473ffffffffffffffffffffffffffffffffffffffff16905081600360006101000a81548173ffffffffffffffffffffffffffffffffffffffff021916908373ffffffffffffffffffffffffffffffffffffffff1602179055508173ffffffffffffffffffffffffffffffffffffffff168173ffffffffffffffffffffffffffffffffffffffff167f8be0079c531659141344cd1fd0a4f28419497f9722a3daafe3b4186f6b6457e060405160405180910390a35050565b600073ffffffffffffffffffffffffffffffffffffffff168473ffffffffffffffffffffffffffffffffffffffff161415613389576040517f08c379a0000000000000000000000000000000000000000000000000000000008152600401613380906155b2565b60405180910390fd5b600061339361286f565b90506133b38187876133a48861359b565b6133ad8861359b565b87613615565b600080600086815260200190815260200160002060008873ffffffffffffffffffffffffffffffffffffffff1673ffffffffffffffffffffffffffffffffffffffff1681526020019081526020016000205490508381101561344a576040517f08c379a000000000000000000000000000000000000000000000000000000000815260040161344190615644565b60405180910390fd5b83810360008087815260200190815260200160002060008973ffffffffffffffffffffffffffffffffffffffff1673ffffffffffffffffffffffffffffffffffffffff168152602001908152602001600020819055508360008087815260200190815260200160002060008873ffffffffffffffffffffffffffffffffffffffff1673ffffffffffffffffffffffffffffffffffffffff16815260200190815260200160002060008282546134ff9190614a60565b925050819055508573ffffffffffffffffffffffffffffffffffffffff168773ffffffffffffffffffffffffffffffffffffffff168373ffffffffffffffffffffffffffffffffffffffff167fc3d58168c5ae7397731d063d5bbf3d657854427343f4c083240f7aacaa2d0f62888860405161357c929190614f1e565b60405180910390a46135928288888888886136d8565b50505050505050565b60606000600167ffffffffffffffff8111156135ba576135b961406e565b5b6040519080825280602002602001820160405280156135e85781602001602082028036833780820191505090505b5090508281600081518110613600576135ff614ca7565b5b60200260200101818152505080915050919050565b600560149054906101000a900460ff166136c25760005b83518110156136c057600084828151811061364a57613649614ca7565b5b602002602001015114156136ad57600073ffffffffffffffffffffffffffffffffffffffff168673ffffffffffffffffffffffffffffffffffffffff16141580156136a25750600560169054906101000a900460ff16155b156136ac57600080fd5b5b80806136b890614cd6565b91505061362c565b505b6136d08686868686866123dc565b505050505050565b6136f78473ffffffffffffffffffffffffffffffffffffffff166123e4565b156138b7578373ffffffffffffffffffffffffffffffffffffffff1663f23a6e6187878686866040518663ffffffff1660e01b815260040161373d9594939291906156f0565b602060405180830381600087803b15801561375757600080fd5b505af192505050801561378857506040513d601f19601f82011682018060405250810190613785919061575f565b60015b61382e57613794615799565b806308c379a014156137f157506137a96157bb565b806137b457506137f3565b806040517f08c379a00000000000000000000000000000000000000000000000000000000081526004016137e89190613fcd565b60405180910390fd5b505b6040517f08c379a0000000000000000000000000000000000000000000000000000000008152600401613825906158c3565b60405180910390fd5b63f23a6e6160e01b7bffffffffffffffffffffffffffffffffffffffffffffffffffffffff1916817bffffffffffffffffffffffffffffffffffffffffffffffffffffffff1916146138b5576040517f08c379a00000000000000000000000000000000000000000000000000000000081526004016138ac90615955565b60405180910390fd5b505b505050505050565b6138de8473ffffffffffffffffffffffffffffffffffffffff166123e4565b15613a9e578373ffffffffffffffffffffffffffffffffffffffff1663bc197c8187878686866040518663ffffffff1660e01b8152600401613924959493929190615975565b602060405180830381600087803b15801561393e57600080fd5b505af192505050801561396f57506040513d601f19601f8201168201806040525081019061396c919061575f565b60015b613a155761397b615799565b806308c379a014156139d857506139906157bb565b8061399b57506139da565b806040517f08c379a00000000000000000000000000000000000000000000000000000000081526004016139cf9190613fcd565b60405180910390fd5b505b6040517f08c379a0000000000000000000000000000000000000000000000000000000008152600401613a0c906158c3565b60405180910390fd5b63bc197c8160e01b7bffffffffffffffffffffffffffffffffffffffffffffffffffffffff1916817bffffffffffffffffffffffffffffffffffffffffffffffffffffffff191614613a9c576040517f08c379a0000000000000000000000000000000000000000000000000000000008152600401613a9390615955565b60405180910390fd5b505b505050505050565b60008060019050601e600a670de0b6b3a764000085613ac591906149c4565b613acf9190614ec4565b613ad991906149c4565b81613ae49190614a60565b905080915050919050565b6001600560146101000a81548160ff0219169083151502179055507f20b865e8d27b91be16817d18895036215de0fd433d4f964b1c86257cc52587df33604051613b39919061455f565b60405180910390a1613b4b3334612c83565b601060009054906101000a900473ffffffffffffffffffffffffffffffffffffffff1673ffffffffffffffffffffffffffffffffffffffff166392f393f86009546040518263ffffffff1660e01b81526004016000604051808303818588803b158015613bb757600080fd5b505af1158015613bcb573d6000803e3d6000fd5b5050505050601060009054906101000a900473ffffffffffffffffffffffffffffffffffffffff1673ffffffffffffffffffffffffffffffffffffffff1663edd47abf6040518163ffffffff1660e01b8152600401600060405180830381600087803b158015613c3a57600080fd5b505af1158015613c4e573d6000803e3d6000fd5b50505050600f60009054906101000a900473ffffffffffffffffffffffffffffffffffffffff1673ffffffffffffffffffffffffffffffffffffffff1663ff25b2b2336040518263ffffffff1660e01b8152600401613cad919061455f565b600060405180830381600087803b158015613cc757600080fd5b505af1158015613cdb573d6000803e3d6000fd5b50505050565b6040518060600160405280600390602082028036833780820191505090505090565b6040518060600160405280600073ffffffffffffffffffffffffffffffffffffffff16815260200160008152602001600081525090565b6000604051905090565b600080fd5b600080fd5b600073ffffffffffffffffffffffffffffffffffffffff82169050919050565b6000613d7982613d4e565b9050919050565b613d8981613d6e565b8114613d9457600080fd5b50565b600081359050613da681613d80565b92915050565b6000819050919050565b613dbf81613dac565b8114613dca57600080fd5b50565b600081359050613ddc81613db6565b92915050565b60008060408385031215613df957613df8613d44565b5b6000613e0785828601613d97565b9250506020613e1885828601613dcd565b9150509250929050565b613e2b81613dac565b82525050565b6000602082019050613e466000830184613e22565b92915050565b60007fffffffff0000000000000000000000000000000000000000000000000000000082169050919050565b613e8181613e4c565b8114613e8c57600080fd5b50565b600081359050613e9e81613e78565b92915050565b600060208284031215613eba57613eb9613d44565b5b6000613ec884828501613e8f565b91505092915050565b60008115159050919050565b613ee681613ed1565b82525050565b6000602082019050613f016000830184613edd565b92915050565b600060208284031215613f1d57613f1c613d44565b5b6000613f2b84828501613dcd565b91505092915050565b600081519050919050565b600082825260208201905092915050565b60005b83811015613f6e578082015181840152602081019050613f53565b83811115613f7d576000848401525b50505050565b6000601f19601f8301169050919050565b6000613f9f82613f34565b613fa98185613f3f565b9350613fb9818560208601613f50565b613fc281613f83565b840191505092915050565b60006020820190508181036000830152613fe78184613f94565b905092915050565b6000819050919050565b600061401461400f61400a84613d4e565b613fef565b613d4e565b9050919050565b600061402682613ff9565b9050919050565b60006140388261401b565b9050919050565b6140488161402d565b82525050565b6000602082019050614063600083018461403f565b92915050565b600080fd5b7f4e487b7100000000000000000000000000000000000000000000000000000000600052604160045260246000fd5b6140a682613f83565b810181811067ffffffffffffffff821117156140c5576140c461406e565b5b80604052505050565b60006140d8613d3a565b90506140e4828261409d565b919050565b600067ffffffffffffffff8211156141045761410361406e565b5b602082029050602081019050919050565b600080fd5b600061412d614128846140e9565b6140ce565b905080838252602082019050602084028301858111156141505761414f614115565b5b835b8181101561417957806141658882613dcd565b845260208401935050602081019050614152565b5050509392505050565b600082601f83011261419857614197614069565b5b81356141a884826020860161411a565b91505092915050565b600080fd5b600067ffffffffffffffff8211156141d1576141d061406e565b5b6141da82613f83565b9050602081019050919050565b82818337600083830152505050565b6000614209614204846141b6565b6140ce565b905082815260208101848484011115614225576142246141b1565b5b6142308482856141e7565b509392505050565b600082601f83011261424d5761424c614069565b5b813561425d8482602086016141f6565b91505092915050565b600080600080600060a0868803121561428257614281613d44565b5b600061429088828901613d97565b95505060206142a188828901613d97565b945050604086013567ffffffffffffffff8111156142c2576142c1613d49565b5b6142ce88828901614183565b935050606086013567ffffffffffffffff8111156142ef576142ee613d49565b5b6142fb88828901614183565b925050608086013567ffffffffffffffff81111561431c5761431b613d49565b5b61432888828901614238565b9150509295509295909350565b600067ffffffffffffffff8211156143505761434f61406e565b5b602082029050602081019050919050565b600061437461436f84614335565b6140ce565b9050808382526020820190506020840283018581111561439757614396614115565b5b835b818110156143c057806143ac8882613d97565b845260208401935050602081019050614399565b5050509392505050565b600082601f8301126143df576143de614069565b5b81356143ef848260208601614361565b91505092915050565b6000806040838503121561440f5761440e613d44565b5b600083013567ffffffffffffffff81111561442d5761442c613d49565b5b614439858286016143ca565b925050602083013567ffffffffffffffff81111561445a57614459613d49565b5b61446685828601614183565b9150509250929050565b600081519050919050565b600082825260208201905092915050565b6000819050602082019050919050565b6144a581613dac565b82525050565b60006144b7838361449c565b60208301905092915050565b6000602082019050919050565b60006144db82614470565b6144e5818561447b565b93506144f08361448c565b8060005b8381101561452157815161450888826144ab565b9750614513836144c3565b9250506001810190506144f4565b5085935050505092915050565b6000602082019050818103600083015261454881846144d0565b905092915050565b61455981613d6e565b82525050565b60006020820190506145746000830184614550565b92915050565b600060608201905061458f6000830186614550565b61459c6020830185613e22565b6145a96040830184613e22565b949350505050565b600080604083850312156145c8576145c7613d44565b5b60006145d685828601613dcd565b92505060206145e785828601613dcd565b9150509250929050565b6145fa81613ed1565b811461460557600080fd5b50565b600081359050614617816145f1565b92915050565b6000806040838503121561463457614633613d44565b5b600061464285828601613d97565b925050602061465385828601614608565b9150509250929050565b60006020828403121561467357614672613d44565b5b600061468184828501613d97565b91505092915050565b600060039050919050565b600081905092915050565b6000819050919050565b6000602082019050919050565b6146c08161468a565b6146ca8184614695565b92506146d5826146a0565b8060005b838110156147065781516146ed87826144ab565b96506146f8836146aa565b9250506001810190506146d9565b505050505050565b600060608201905061472360008301846146b7565b92915050565b600080604083850312156147405761473f613d44565b5b600061474e85828601613d97565b925050602061475f85828601613d97565b9150509250929050565b600080600080600060a0868803121561478557614784613d44565b5b600061479388828901613d97565b95505060206147a488828901613d97565b94505060406147b588828901613dcd565b93505060606147c688828901613dcd565b925050608086013567ffffffffffffffff8111156147e7576147e6613d49565b5b6147f388828901614238565b9150509295509295909350565b60006060820190506148156000830186613e22565b6148226020830185613e22565b61482f6040830184613e22565b949350505050565b7f455243313135353a2062616c616e636520717565727920666f7220746865207a60008201527f65726f2061646472657373000000000000000000000000000000000000000000602082015250565b6000614893602b83613f3f565b915061489e82614837565b604082019050919050565b600060208201905081810360008301526148c281614886565b9050919050565b7f5265656e7472616e637947756172643a207265656e7472616e742063616c6c00600082015250565b60006148ff601f83613f3f565b915061490a826148c9565b602082019050919050565b6000602082019050818103600083015261492e816148f2565b9050919050565b7f4e487b7100000000000000000000000000000000000000000000000000000000600052601260045260246000fd5b600061496f82613dac565b915061497a83613dac565b92508261498a57614989614935565b5b828206905092915050565b7f4e487b7100000000000000000000000000000000000000000000000000000000600052601160045260246000fd5b60006149cf82613dac565b91506149da83613dac565b9250826149ea576149e9614935565b5b828204905092915050565b6000604082019050614a0a6000830185614550565b614a176020830184613e22565b9392505050565b600081519050614a2d81613d80565b92915050565b600060208284031215614a4957614a48613d44565b5b6000614a5784828501614a1e565b91505092915050565b6000614a6b82613dac565b9150614a7683613dac565b9250827fffffffffffffffffffffffffffffffffffffffffffffffffffffffffffffffff03821115614aab57614aaa614995565b5b828201905092915050565b7f4e487b7100000000000000000000000000000000000000000000000000000000600052602260045260246000fd5b60006002820490506001821680614afd57607f821691505b60208210811415614b1157614b10614ab6565b5b50919050565b7f455243313135353a207472616e736665722063616c6c6572206973206e6f742060008201527f6f776e6572206e6f7220617070726f7665640000000000000000000000000000602082015250565b6000614b73603283613f3f565b9150614b7e82614b17565b604082019050919050565b60006020820190508181036000830152614ba281614b66565b9050919050565b7f4f776e61626c653a2063616c6c6572206973206e6f7420746865206f776e6572600082015250565b6000614bdf602083613f3f565b9150614bea82614ba9565b602082019050919050565b60006020820190508181036000830152614c0e81614bd2565b9050919050565b7f455243313135353a206163636f756e747320616e6420696473206c656e67746860008201527f206d69736d617463680000000000000000000000000000000000000000000000602082015250565b6000614c71602983613f3f565b9150614c7c82614c15565b604082019050919050565b60006020820190508181036000830152614ca081614c64565b9050919050565b7f4e487b7100000000000000000000000000000000000000000000000000000000600052603260045260246000fd5b6000614ce182613dac565b91507fffffffffffffffffffffffffffffffffffffffffffffffffffffffffffffffff821415614d1457614d13614995565b5b600182019050919050565b7f43616e742062652072656c656173656400000000000000000000000000000000600082015250565b6000614d55601083613f3f565b9150614d6082614d1f565b602082019050919050565b60006020820190508181036000830152614d8481614d48565b9050919050565b7f4d7573742073656e64206578616374207365697a7572652076616c7565000000600082015250565b6000614dc1601d83613f3f565b9150614dcc82614d8b565b602082019050919050565b60006020820190508181036000830152614df081614db4565b9050919050565b7f43616e74207365697a652066726f6d20796f757273656c660000000000000000600082015250565b6000614e2d601883613f3f565b9150614e3882614df7565b602082019050919050565b60006020820190508181036000830152614e5c81614e20565b9050919050565b600060c082019050614e786000830189614550565b614e856020830188614550565b614e926040830187613e22565b614e9f6060830186613e22565b614eac6080830185613e22565b614eb960a0830184613e22565b979650505050505050565b6000614ecf82613dac565b9150614eda83613dac565b9250817fffffffffffffffffffffffffffffffffffffffffffffffffffffffffffffffff0483118215151615614f1357614f12614995565b5b828202905092915050565b6000604082019050614f336000830185613e22565b614f406020830184613e22565b9392505050565b7f455243313135353a2073657474696e6720617070726f76616c2073746174757360008201527f20666f722073656c660000000000000000000000000000000000000000000000602082015250565b6000614fa3602983613f3f565b9150614fae82614f47565b604082019050919050565b60006020820190508181036000830152614fd281614f96565b9050919050565b600081905092915050565b50565b6000614ff4600083614fd9565b9150614fff82614fe4565b600082019050919050565b600061501582614fe7565b9150819050919050565b60008151905061502e81613db6565b92915050565b60006020828403121561504a57615049613d44565b5b60006150588482850161501f565b91505092915050565b7f455243313135353a2063616c6c6572206973206e6f74206f776e6572206e6f7260008201527f20617070726f7665640000000000000000000000000000000000000000000000602082015250565b60006150bd602983613f3f565b91506150c882615061565b604082019050919050565b600060208201905081810360008301526150ec816150b0565b9050919050565b7f4f776e61626c653a206e6577206f776e657220697320746865207a65726f206160008201527f6464726573730000000000000000000000000000000000000000000000000000602082015250565b600061514f602683613f3f565b915061515a826150f3565b604082019050919050565b6000602082019050818103600083015261517e81615142565b9050919050565b7f455243313135353a206275726e2066726f6d20746865207a65726f206164647260008201527f6573730000000000000000000000000000000000000000000000000000000000602082015250565b60006151e1602383613f3f565b91506151ec82615185565b604082019050919050565b60006020820190508181036000830152615210816151d4565b9050919050565b7f455243313135353a206275726e20616d6f756e7420657863656564732062616c60008201527f616e636500000000000000000000000000000000000000000000000000000000602082015250565b6000615273602483613f3f565b915061527e82615217565b604082019050919050565b600060208201905081810360008301526152a281615266565b9050919050565b60006152b482613dac565b91506152bf83613dac565b9250828210156152d2576152d1614995565b5b828203905092915050565b6000819050919050565b6152f86152f382613dac565b6152dd565b82525050565b6000819050919050565b6000819050919050565b61532361531e826152fe565b615308565b82525050565b600061533482613d4e565b9050919050565b60008160601b9050919050565b60006153538261533b565b9050919050565b600061536582615348565b9050919050565b61537d61537882615329565b61535a565b82525050565b600061538e82615348565b9050919050565b6153a66153a182613d6e565b615383565b82525050565b60006153b882896152e7565b6020820191506153c882886152e7565b6020820191506153d88287615312565b6020820191506153e8828661536c565b6014820191506153f882856152e7565b6020820191506154088284615395565b601482019150819050979650505050505050565b7f455243313135353a206d696e7420746f20746865207a65726f2061646472657360008201527f7300000000000000000000000000000000000000000000000000000000000000602082015250565b6000615478602183613f3f565b91506154838261541c565b604082019050919050565b600060208201905081810360008301526154a78161546b565b9050919050565b7f455243313135353a2069647320616e6420616d6f756e7473206c656e6774682060008201527f6d69736d61746368000000000000000000000000000000000000000000000000602082015250565b600061550a602883613f3f565b9150615515826154ae565b604082019050919050565b60006020820190508181036000830152615539816154fd565b9050919050565b7f455243313135353a207472616e7366657220746f20746865207a65726f20616460008201527f6472657373000000000000000000000000000000000000000000000000000000602082015250565b600061559c602583613f3f565b91506155a782615540565b604082019050919050565b600060208201905081810360008301526155cb8161558f565b9050919050565b7f455243313135353a20696e73756666696369656e742062616c616e636520666f60008201527f72207472616e7366657200000000000000000000000000000000000000000000602082015250565b600061562e602a83613f3f565b9150615639826155d2565b604082019050919050565b6000602082019050818103600083015261565d81615621565b9050919050565b6000604082019050818103600083015261567e81856144d0565b9050818103602083015261569281846144d0565b90509392505050565b600081519050919050565b600082825260208201905092915050565b60006156c28261569b565b6156cc81856156a6565b93506156dc818560208601613f50565b6156e581613f83565b840191505092915050565b600060a0820190506157056000830188614550565b6157126020830187614550565b61571f6040830186613e22565b61572c6060830185613e22565b818103608083015261573e81846156b7565b90509695505050505050565b60008151905061575981613e78565b92915050565b60006020828403121561577557615774613d44565b5b60006157838482850161574a565b91505092915050565b60008160e01c9050919050565b600060033d11156157b85760046000803e6157b560005161578c565b90505b90565b600060443d10156157cb5761584e565b6157d3613d3a565b60043d036004823e80513d602482011167ffffffffffffffff821117156157fb57505061584e565b808201805167ffffffffffffffff811115615819575050505061584e565b80602083010160043d03850181111561583657505050505061584e565b6158458260200185018661409d565b82955050505050505b90565b7f455243313135353a207472616e7366657220746f206e6f6e204552433131353560008201527f526563656976657220696d706c656d656e746572000000000000000000000000602082015250565b60006158ad603483613f3f565b91506158b882615851565b604082019050919050565b600060208201905081810360008301526158dc816158a0565b9050919050565b7f455243313135353a204552433131353552656365697665722072656a6563746560008201527f6420746f6b656e73000000000000000000000000000000000000000000000000602082015250565b600061593f602883613f3f565b915061594a826158e3565b604082019050919050565b6000602082019050818103600083015261596e81615932565b9050919050565b600060a08201905061598a6000830188614550565b6159976020830187614550565b81810360408301526159a981866144d0565b905081810360608301526159bd81856144d0565b905081810360808301526159d181846156b7565b9050969550505050505056fea2646970667358221220d25458ac9cf2fe65dc25a1152086948638a5cf84531fde8f5ad1b0522338dae164736f6c6343000808003368747470733a2f2f6d6574612e636f696e6c616e6465722e6f6e652f736561736f6e6f6e652f7b69647d",
  "linkReferences": {},
  "deployedLinkReferences": {}
}