{
  "_format": "hh-sol-artifact-1",
  "contractName": "ERC1155Marketplace",
  "sourceName": "contracts/ERC1155Marketplace.sol",
  "abi": [
    {
      "inputs": [],
      "stateMutability": "nonpayable",
      "type": "constructor"
    },
    {
      "anonymous": false,
      "inputs": [
        {
          "indexed": false,
          "internalType": "address",
          "name": "nftContractAddress",
          "type": "address"
        },
        {
          "indexed": false,
          "internalType": "uint256",
          "name": "tokenId",
          "type": "uint256"
        },
        {
          "indexed": false,
          "internalType": "address",
          "name": "nftSeller",
          "type": "address"
        },
        {
          "indexed": false,
          "internalType": "uint64",
          "name": "auctionEndPeriod",
          "type": "uint64"
        }
      ],
      "name": "AuctionPeriodUpdated",
      "type": "event"
    },
    {
      "anonymous": false,
      "inputs": [
        {
          "indexed": false,
          "internalType": "address",
          "name": "nftContractAddress",
          "type": "address"
        },
        {
          "indexed": false,
          "internalType": "uint256",
          "name": "tokenId",
          "type": "uint256"
        },
        {
          "indexed": false,
          "internalType": "address",
          "name": "nftSeller",
          "type": "address"
        },
        {
          "indexed": false,
          "internalType": "address",
          "name": "auctionSettler",
          "type": "address"
        }
      ],
      "name": "AuctionSettled",
      "type": "event"
    },
    {
      "anonymous": false,
      "inputs": [
        {
          "indexed": false,
          "internalType": "address",
          "name": "nftContractAddress",
          "type": "address"
        },
        {
          "indexed": false,
          "internalType": "uint256",
          "name": "tokenId",
          "type": "uint256"
        },
        {
          "indexed": false,
          "internalType": "address",
          "name": "nftSeller",
          "type": "address"
        }
      ],
      "name": "AuctionWithdrawn",
      "type": "event"
    },
    {
      "anonymous": false,
      "inputs": [
        {
          "indexed": false,
          "internalType": "address",
          "name": "nftContractAddress",
          "type": "address"
        },
        {
          "indexed": false,
          "internalType": "uint256",
          "name": "tokenId",
          "type": "uint256"
        },
        {
          "indexed": false,
          "internalType": "address",
          "name": "nftSeller",
          "type": "address"
        },
        {
          "indexed": false,
          "internalType": "address",
          "name": "bidder",
          "type": "address"
        },
        {
          "indexed": false,
          "internalType": "uint256",
          "name": "ethAmount",
          "type": "uint256"
        }
      ],
      "name": "BidMade",
      "type": "event"
    },
    {
      "anonymous": false,
      "inputs": [
        {
          "indexed": false,
          "internalType": "address",
          "name": "nftContractAddress",
          "type": "address"
        },
        {
          "indexed": false,
          "internalType": "uint256",
          "name": "tokenId",
          "type": "uint256"
        },
        {
          "indexed": false,
          "internalType": "address",
          "name": "nftSeller",
          "type": "address"
        },
        {
          "indexed": false,
          "internalType": "address",
          "name": "highestBidder",
          "type": "address"
        }
      ],
      "name": "BidWithdrawn",
      "type": "event"
    },
    {
      "anonymous": false,
      "inputs": [
        {
          "indexed": false,
          "internalType": "address",
          "name": "nftContractAddress",
          "type": "address"
        },
        {
          "indexed": false,
          "internalType": "uint256",
          "name": "tokenId",
          "type": "uint256"
        },
        {
          "indexed": false,
          "internalType": "address",
          "name": "nftSeller",
          "type": "address"
        },
        {
          "indexed": false,
          "internalType": "uint128",
          "name": "newBuyNowPrice",
          "type": "uint128"
        }
      ],
      "name": "BuyNowPriceUpdated",
      "type": "event"
    },
    {
      "anonymous": false,
      "inputs": [
        {
          "indexed": false,
          "internalType": "address",
          "name": "nftContractAddress",
          "type": "address"
        },
        {
          "indexed": false,
          "internalType": "uint256",
          "name": "tokenId",
          "type": "uint256"
        },
        {
          "indexed": false,
          "internalType": "address",
          "name": "nftSeller",
          "type": "address"
        }
      ],
      "name": "HighestBidTaken",
      "type": "event"
    },
    {
      "anonymous": false,
      "inputs": [
        {
          "indexed": false,
          "internalType": "address",
          "name": "nftContractAddress",
          "type": "address"
        },
        {
          "indexed": false,
          "internalType": "uint256",
          "name": "tokenId",
          "type": "uint256"
        },
        {
          "indexed": false,
          "internalType": "address",
          "name": "nftSeller",
          "type": "address"
        },
        {
          "indexed": false,
          "internalType": "uint256",
          "name": "newMinPrice",
          "type": "uint256"
        }
      ],
      "name": "MinimumPriceUpdated",
      "type": "event"
    },
    {
      "anonymous": false,
      "inputs": [
        {
          "indexed": false,
          "internalType": "address",
          "name": "nftContractAddress",
          "type": "address"
        },
        {
          "indexed": false,
          "internalType": "uint256",
          "name": "tokenId",
          "type": "uint256"
        },
        {
          "indexed": false,
          "internalType": "address",
          "name": "nftSeller",
          "type": "address"
        },
        {
          "indexed": false,
          "internalType": "uint256",
          "name": "tokenQuantity",
          "type": "uint256"
        },
        {
          "indexed": false,
          "internalType": "uint128",
          "name": "nftHighestBid",
          "type": "uint128"
        },
        {
          "indexed": false,
          "internalType": "address",
          "name": "nftHighestBidder",
          "type": "address"
        },
        {
          "indexed": false,
          "internalType": "address",
          "name": "nftRecipient",
          "type": "address"
        }
      ],
      "name": "NFTTransferredAndSellerPaid",
      "type": "event"
    },
    {
      "anonymous": false,
      "inputs": [
        {
          "indexed": false,
          "internalType": "address",
          "name": "nftContractAddress",
          "type": "address"
        },
        {
          "indexed": false,
          "internalType": "uint256",
          "name": "tokenId",
          "type": "uint256"
        },
        {
          "indexed": false,
          "internalType": "address",
          "name": "nftSeller",
          "type": "address"
        },
        {
          "indexed": false,
          "internalType": "uint256",
          "name": "tokenQuantity",
          "type": "uint256"
        },
        {
          "indexed": false,
          "internalType": "uint128",
          "name": "minPrice",
          "type": "uint128"
        },
        {
          "indexed": false,
          "internalType": "uint128",
          "name": "buyNowPrice",
          "type": "uint128"
        }
      ],
      "name": "NftAuctionCreated",
      "type": "event"
    },
    {
      "anonymous": false,
      "inputs": [
        {
          "indexed": true,
          "internalType": "address",
          "name": "previousOwner",
          "type": "address"
        },
        {
          "indexed": true,
          "internalType": "address",
          "name": "newOwner",
          "type": "address"
        }
      ],
      "name": "OwnershipTransferred",
      "type": "event"
    },
    {
      "anonymous": false,
      "inputs": [
        {
          "indexed": false,
          "internalType": "address",
          "name": "nftContractAddress",
          "type": "address"
        },
        {
          "indexed": false,
          "internalType": "uint256",
          "name": "tokenId",
          "type": "uint256"
        },
        {
          "indexed": false,
          "internalType": "address",
          "name": "nftSeller",
          "type": "address"
        },
        {
          "indexed": false,
          "internalType": "uint256",
          "name": "tokenQuantity",
          "type": "uint256"
        },
        {
          "indexed": false,
          "internalType": "uint128",
          "name": "buyNowPrice",
          "type": "uint128"
        },
        {
          "indexed": false,
          "internalType": "address",
          "name": "whitelistedBuyer",
          "type": "address"
        }
      ],
      "name": "SaleCreated",
      "type": "event"
    },
    {
      "anonymous": false,
      "inputs": [
        {
          "indexed": false,
          "internalType": "address",
          "name": "nftContractAddress",
          "type": "address"
        },
        {
          "indexed": false,
          "internalType": "uint256",
          "name": "tokenId",
          "type": "uint256"
        },
        {
          "indexed": false,
          "internalType": "address",
          "name": "nftSeller",
          "type": "address"
        },
        {
          "indexed": false,
          "internalType": "address",
          "name": "newWhitelistedBuyer",
          "type": "address"
        }
      ],
      "name": "WhitelistedBuyerUpdated",
      "type": "event"
    },
    {
      "inputs": [
        {
          "internalType": "address",
          "name": "_nftContractAddress",
          "type": "address"
        },
        {
          "internalType": "uint256",
          "name": "_tokenId",
          "type": "uint256"
        },
        {
          "internalType": "uint256",
          "name": "_tokenQty",
          "type": "uint256"
        },
        {
          "internalType": "uint128",
          "name": "_minPrice",
          "type": "uint128"
        },
        {
          "internalType": "uint128",
          "name": "_buyNowPrice",
          "type": "uint128"
        }
      ],
      "name": "createNewNftAuction",
      "outputs": [],
      "stateMutability": "nonpayable",
      "type": "function"
    },
    {
      "inputs": [
        {
          "internalType": "address",
          "name": "_nftContractAddress",
          "type": "address"
        },
        {
          "internalType": "uint256",
          "name": "_tokenId",
          "type": "uint256"
        },
        {
          "internalType": "uint256",
          "name": "_tokenQty",
          "type": "uint256"
        },
        {
          "internalType": "uint128",
          "name": "_buyNowPrice",
          "type": "uint128"
        },
        {
          "internalType": "address",
          "name": "_whitelistedBuyer",
          "type": "address"
        },
        {
          "internalType": "address",
          "name": "_feeRecipient",
          "type": "address"
        },
        {
          "internalType": "uint32",
          "name": "_feePercentage",
          "type": "uint32"
        }
      ],
      "name": "createSale",
      "outputs": [],
      "stateMutability": "nonpayable",
      "type": "function"
    },
    {
      "inputs": [],
      "name": "defaultAuctionBidPeriod",
      "outputs": [
        {
          "internalType": "uint32",
          "name": "",
          "type": "uint32"
        }
      ],
      "stateMutability": "view",
      "type": "function"
    },
    {
      "inputs": [],
      "name": "defaultBidIncreasePercentage",
      "outputs": [
        {
          "internalType": "uint32",
          "name": "",
          "type": "uint32"
        }
      ],
      "stateMutability": "view",
      "type": "function"
    },
    {
      "inputs": [],
      "name": "defaultFeeCollector",
      "outputs": [
        {
          "internalType": "address",
          "name": "",
          "type": "address"
        }
      ],
      "stateMutability": "view",
      "type": "function"
    },
    {
      "inputs": [],
      "name": "defaultFeePercentage",
      "outputs": [
        {
          "internalType": "uint32",
          "name": "",
          "type": "uint32"
        }
      ],
      "stateMutability": "view",
      "type": "function"
    },
    {
      "inputs": [
        {
          "internalType": "address",
          "name": "_nftContractAddress",
          "type": "address"
        },
        {
          "internalType": "uint256",
          "name": "_tokenId",
          "type": "uint256"
        },
        {
          "internalType": "address",
          "name": "_nftSeller",
          "type": "address"
        }
      ],
      "name": "makeBid",
      "outputs": [],
      "stateMutability": "payable",
      "type": "function"
    },
    {
      "inputs": [
        {
          "internalType": "address",
          "name": "_nftContractAddress",
          "type": "address"
        },
        {
          "internalType": "uint256",
          "name": "_tokenId",
          "type": "uint256"
        },
        {
          "internalType": "address",
          "name": "_nftSeller",
          "type": "address"
        },
        {
          "internalType": "address",
          "name": "_nftRecipient",
          "type": "address"
        }
      ],
      "name": "makeCustomBid",
      "outputs": [],
      "stateMutability": "payable",
      "type": "function"
    },
    {
      "inputs": [],
      "name": "maximumMinPricePercentage",
      "outputs": [
        {
          "internalType": "uint32",
          "name": "",
          "type": "uint32"
        }
      ],
      "stateMutability": "view",
      "type": "function"
    },
    {
      "inputs": [],
      "name": "minimumSettableIncreasePercentage",
      "outputs": [
        {
          "internalType": "uint32",
          "name": "",
          "type": "uint32"
        }
      ],
      "stateMutability": "view",
      "type": "function"
    },
    {
      "inputs": [
        {
          "internalType": "address",
          "name": "",
          "type": "address"
        },
        {
          "internalType": "uint256",
          "name": "",
          "type": "uint256"
        },
        {
          "internalType": "address",
          "name": "",
          "type": "address"
        }
      ],
      "name": "nftContractAuctions",
      "outputs": [
        {
          "internalType": "uint256",
          "name": "tokenQty",
          "type": "uint256"
        },
        {
          "internalType": "uint32",
          "name": "bidIncreasePercentage",
          "type": "uint32"
        },
        {
          "internalType": "uint32",
          "name": "auctionBidPeriod",
          "type": "uint32"
        },
        {
          "internalType": "uint64",
          "name": "auctionEnd",
          "type": "uint64"
        },
        {
          "internalType": "uint128",
          "name": "minPrice",
          "type": "uint128"
        },
        {
          "internalType": "uint128",
          "name": "buyNowPrice",
          "type": "uint128"
        },
        {
          "internalType": "uint128",
          "name": "nftHighestBid",
          "type": "uint128"
        },
        {
          "internalType": "address",
          "name": "nftHighestBidder",
          "type": "address"
        },
        {
          "internalType": "address",
          "name": "whitelistedBuyer",
          "type": "address"
        },
        {
          "internalType": "address",
          "name": "nftRecipient",
          "type": "address"
        },
        {
          "internalType": "address",
          "name": "feeRecipient",
          "type": "address"
        },
        {
          "internalType": "uint32",
          "name": "feePercentage",
          "type": "uint32"
        }
      ],
      "stateMutability": "view",
      "type": "function"
    },
    {
      "inputs": [],
      "name": "owner",
      "outputs": [
        {
          "internalType": "address",
          "name": "",
          "type": "address"
        }
      ],
      "stateMutability": "view",
      "type": "function"
    },
    {
      "inputs": [],
      "name": "renounceOwnership",
      "outputs": [],
      "stateMutability": "nonpayable",
      "type": "function"
    },
    {
      "inputs": [
        {
          "internalType": "address",
          "name": "_feeCollector",
          "type": "address"
        }
      ],
      "name": "setDefaultFeeCollector",
      "outputs": [],
      "stateMutability": "nonpayable",
      "type": "function"
    },
    {
      "inputs": [
        {
          "internalType": "uint32",
          "name": "_feePercentage",
          "type": "uint32"
        }
      ],
      "name": "setDefaultFeePercentage",
      "outputs": [],
      "stateMutability": "nonpayable",
      "type": "function"
    },
    {
      "inputs": [
        {
          "internalType": "address",
          "name": "_nftContractAddress",
          "type": "address"
        },
        {
          "internalType": "uint256",
          "name": "_tokenId",
          "type": "uint256"
        },
        {
          "internalType": "address",
          "name": "_nftSeller",
          "type": "address"
        }
      ],
      "name": "settleAuction",
      "outputs": [],
      "stateMutability": "nonpayable",
      "type": "function"
    },
    {
      "inputs": [
        {
          "internalType": "address",
          "name": "_nftContractAddress",
          "type": "address"
        },
        {
          "internalType": "uint256",
          "name": "_tokenId",
          "type": "uint256"
        },
        {
          "internalType": "address",
          "name": "_nftSeller",
          "type": "address"
        }
      ],
      "name": "takeHighestBid",
      "outputs": [],
      "stateMutability": "nonpayable",
      "type": "function"
    },
    {
      "inputs": [
        {
          "internalType": "address",
          "name": "newOwner",
          "type": "address"
        }
      ],
      "name": "transferOwnership",
      "outputs": [],
      "stateMutability": "nonpayable",
      "type": "function"
    },
    {
      "inputs": [
        {
          "internalType": "address",
          "name": "_nftContractAddress",
          "type": "address"
        },
        {
          "internalType": "uint256",
          "name": "_tokenId",
          "type": "uint256"
        },
        {
          "internalType": "address",
          "name": "_nftSeller",
          "type": "address"
        },
        {
          "internalType": "uint128",
          "name": "_newBuyNowPrice",
          "type": "uint128"
        }
      ],
      "name": "updateBuyNowPrice",
      "outputs": [],
      "stateMutability": "nonpayable",
      "type": "function"
    },
    {
      "inputs": [
        {
          "internalType": "address",
          "name": "_nftContractAddress",
          "type": "address"
        },
        {
          "internalType": "uint256",
          "name": "_tokenId",
          "type": "uint256"
        },
        {
          "internalType": "address",
          "name": "_nftSeller",
          "type": "address"
        },
        {
          "internalType": "uint128",
          "name": "_newMinPrice",
          "type": "uint128"
        }
      ],
      "name": "updateMinimumPrice",
      "outputs": [],
      "stateMutability": "nonpayable",
      "type": "function"
    },
    {
      "inputs": [
        {
          "internalType": "address",
          "name": "_nftContractAddress",
          "type": "address"
        },
        {
          "internalType": "uint256",
          "name": "_tokenId",
          "type": "uint256"
        },
        {
          "internalType": "address",
          "name": "_nftSeller",
          "type": "address"
        },
        {
          "internalType": "uint256",
          "name": "_tokenQty",
          "type": "uint256"
        }
      ],
      "name": "updateTokenQty",
      "outputs": [],
      "stateMutability": "nonpayable",
      "type": "function"
    },
    {
      "inputs": [
        {
          "internalType": "address",
          "name": "_nftContractAddress",
          "type": "address"
        },
        {
          "internalType": "uint256",
          "name": "_tokenId",
          "type": "uint256"
        },
        {
          "internalType": "address",
          "name": "_nftSeller",
          "type": "address"
        },
        {
          "internalType": "address",
          "name": "_newWhitelistedBuyer",
          "type": "address"
        }
      ],
      "name": "updateWhitelistedBuyer",
      "outputs": [],
      "stateMutability": "nonpayable",
      "type": "function"
    },
    {
      "inputs": [],
      "name": "withdrawAllFailedCredits",
      "outputs": [],
      "stateMutability": "nonpayable",
      "type": "function"
    },
    {
      "inputs": [
        {
          "internalType": "address",
          "name": "_nftContractAddress",
          "type": "address"
        },
        {
          "internalType": "uint256",
          "name": "_tokenId",
          "type": "uint256"
        },
        {
          "internalType": "address",
          "name": "_nftSeller",
          "type": "address"
        }
      ],
      "name": "withdrawAuction",
      "outputs": [],
      "stateMutability": "nonpayable",
      "type": "function"
    },
    {
      "inputs": [
        {
          "internalType": "address",
          "name": "_nftContractAddress",
          "type": "address"
        },
        {
          "internalType": "uint256",
          "name": "_tokenId",
          "type": "uint256"
        },
        {
          "internalType": "address",
          "name": "_nftSeller",
          "type": "address"
        }
      ],
      "name": "withdrawBid",
      "outputs": [],
      "stateMutability": "nonpayable",
      "type": "function"
    }
  ],
  "bytecode": "0x60806040523480156200001157600080fd5b506200001d3362000054565b6003805470c80001518000001f4000000064000000646001600160a01b0319918216179091556004805490911633179055620000a4565b600080546001600160a01b038381166001600160a01b0319831681178455604051919092169283917f8be0079c531659141344cd1fd0a4f28419497f9722a3daafe3b4186f6b6457e09190a35050565b61364b80620000b46000396000f3fe6080604052600436106101955760003560e01c80638c85100b116100e1578063b6ad69141161008a578063cd4eda1c11610064578063cd4eda1c14610586578063ce740294146105aa578063e7002729146105ca578063f2fde38b146105dd57600080fd5b8063b6ad69141461053e578063cb668f4914610553578063ccceb7cd1461056657600080fd5b80639c0b9966116100bb5780639c0b9966146104dd578063adb4e962146104fa578063b48240341461051a57600080fd5b80638c85100b1461047f5780638da5cb5b1461049f57806397759efc146104bd57600080fd5b80634a8721cd11610143578063715018a61161011d578063715018a61461041257806375926137146104275780637894b5ab1461045f57600080fd5b80634a8721cd146103b25780635a7b1e5b146103d25780636db6a734146103f257600080fd5b80633d03b9f3116101745780633d03b9f31461034d5780633d87d5fb1461036d5780633eb1b4281461039257600080fd5b806214af721461019a57806304f48c51146101bc578063186779d51461030b575b600080fd5b3480156101a657600080fd5b506101ba6101b53660046132ba565b6105fd565b005b3480156101c857600080fd5b5061027e6101d7366004613332565b6001602081815260009485526040808620825293855283852090529083529120805491810154600282015460038301546004840154600585015460069095015463ffffffff80861696640100000000870482169667ffffffffffffffff600160401b820416966001600160801b03600160801b92839004811697828216979390920416946001600160a01b03918216949282169382169291811691600160a01b909104168c565b604080519c8d5263ffffffff9b8c1660208e0152998b16998c019990995267ffffffffffffffff90971660608b01526001600160801b0395861660808b015293851660a08a01529390911660c08801526001600160a01b0390811660e088015291821661010087015281166101208601521661014084015216610160820152610180015b60405180910390f35b34801561031757600080fd5b50600354610338906c01000000000000000000000000900463ffffffff1681565b60405163ffffffff9091168152602001610302565b34801561035957600080fd5b506101ba610368366004613332565b6108bc565b34801561037957600080fd5b5060035461033890640100000000900463ffffffff1681565b34801561039e57600080fd5b506101ba6103ad36600461336e565b6109c4565b3480156103be57600080fd5b506101ba6103cd3660046133c5565b610dca565b3480156103de57600080fd5b506101ba6103ed3660046133c5565b610ff0565b3480156103fe57600080fd5b506101ba61040d366004613412565b611215565b34801561041e57600080fd5b506101ba61140c565b34801561043357600080fd5b50600454610447906001600160a01b031681565b6040516001600160a01b039091168152602001610302565b34801561046b57600080fd5b506101ba61047a366004613456565b611472565b34801561048b57600080fd5b506101ba61049a366004613332565b61166f565b3480156104ab57600080fd5b506000546001600160a01b0316610447565b3480156104c957600080fd5b506101ba6104d8366004613498565b61172d565b3480156104e957600080fd5b506003546103389063ffffffff1681565b34801561050657600080fd5b506101ba610515366004613332565b6117c5565b34801561052657600080fd5b5060035461033890600160801b900463ffffffff1681565b34801561054a57600080fd5b506101ba611972565b6101ba610561366004613332565b611a7f565b34801561057257600080fd5b506101ba6105813660046134b3565b611bb1565b34801561059257600080fd5b5060035461033890600160401b900463ffffffff1681565b3480156105b657600080fd5b506101ba6105c5366004613332565b611c2d565b6101ba6105d8366004613456565b611d27565b3480156105e957600080fd5b506101ba6105f83660046134b3565b611eeb565b6001600160a01b03871660009081526001602090815260408083208984528252808320338085529252909120548891889161067f5760405162461bcd60e51b815260206004820181905260248201527f41756374696f6e20616c72656164792073746172746564206279206f776e657260448201526064015b60405180910390fd5b604051627eeac760e11b8152336004820152602481018390526000906001600160a01b0385169062fdd58e90604401602060405180830381865afa1580156106cb573d6000803e3d6000fd5b505050506040513d601f19601f820116820180604052508101906106ef91906134ce565b1161073c5760405162461bcd60e51b815260206004820152601660248201527f53656e64657220646f65736e2774206f776e204e4654000000000000000000006044820152606401610676565b6001600160a01b038084166000908152600160208181526040808420878552825280842094861684529390529181208181556002810180546001600160801b03191690559182015560040180546001600160a01b0319169055866001600160801b0316600081116107e35760405162461bcd60e51b8152602060048201526011602482015270050726963652063616e6e6f74206265203607c1b6044820152606401610676565b6107f38b8b338c8c8c8c8c611fcd565b604080516001600160a01b038d81168252602082018d90523382840152606082018c90526001600160801b038b166080830152891660a082015290517ff84c50740eb35fc0ac5d31e54aaf419d820f6e09745fa22168c9cbfc56aeb4b89181900360c00190a16108648b8b336120e3565b156108af576108748b8b3361212e565b156108a4576108848b8b336121b1565b1561089f576108948b8b33612248565b61089f8b8b336124ea565b6108af565b6108af8b8b336126f0565b5050505050505050505050565b80336001600160a01b038216146109075760405162461bcd60e51b815260206004820152600f60248201526e27b7363c9037333a1039b2b63632b960891b6044820152606401610676565b6109128484846120e3565b61095e5760405162461bcd60e51b815260206004820152601360248201527f63616e6e6f74207061796f7574203020626964000000000000000000000000006044820152606401610676565b610969848484612248565b6109748484846124ea565b604080516001600160a01b0386811682526020820186905284168183015290517f695236ba8734774291f65ac50f65b5fdce6e3ab26a2cf6d1dfe60c558c44e99b9181900360600190a150505050565b6001600160a01b038516600090815260016020908152604080832087845282528083203380855292529091205486918691610a415760405162461bcd60e51b815260206004820181905260248201527f41756374696f6e20616c72656164792073746172746564206279206f776e65726044820152606401610676565b604051627eeac760e11b8152336004820152602481018390526000906001600160a01b0385169062fdd58e90604401602060405180830381865afa158015610a8d573d6000803e3d6000fd5b505050506040513d601f19601f82011682018060405250810190610ab191906134ce565b11610afe5760405162461bcd60e51b815260206004820152601660248201527f53656e64657220646f65736e2774206f776e204e4654000000000000000000006044820152606401610676565b6001600160a01b038084166000908152600160208181526040808420878552825280842094861684529390529181208181556002810180546001600160801b03191690559182015560040180546001600160a01b0319169055846001600160801b031660008111610ba55760405162461bcd60e51b8152602060048201526011602482015270050726963652063616e6e6f74206265203607c1b6044820152606401610676565b604051627eeac760e11b81523360048201819052602482018a90528a918a91908a9081906001600160a01b0386169062fdd58e90604401602060405180830381865afa158015610bf9573d6000803e3d6000fd5b505050506040513d601f19601f82011682018060405250810190610c1d91906134ce565b11610c6a5760405162461bcd60e51b815260206004820181905260248201527f4c697374657220646f65736e74206861766520656e6f75676820746f6b656e736044820152606401610676565b6003600c9054906101000a900463ffffffff16600160008f6001600160a01b03166001600160a01b0316815260200190815260200160002060008e81526020019081526020016000206000336001600160a01b03166001600160a01b0316815260200190815260200160002060010160046101000a81548163ffffffff021916908363ffffffff160217905550600360009054906101000a900463ffffffff16600160008f6001600160a01b03166001600160a01b0316815260200190815260200160002060008e81526020019081526020016000206000336001600160a01b03166001600160a01b0316815260200190815260200160002060010160006101000a81548163ffffffff021916908363ffffffff160217905550610dbb8d8d338e8e8e600460009054906101000a90046001600160a01b0316600360109054906101000a900463ffffffff1661276b565b50505050505050505050505050565b81336001600160a01b03821614610e155760405162461bcd60e51b815260206004820152600f60248201526e27b7363c9037333a1039b2b63632b960891b6044820152606401610676565b816001600160801b031660008111610e635760405162461bcd60e51b8152602060048201526011602482015270050726963652063616e6e6f74206265203607c1b6044820152606401610676565b6001600160a01b0380871660009081526001602081815260408084208a855282528084209489168452939052919020015483906001600160801b03600160801b90910481169082161580610edd57506003546001600160801b0382811691610eda91851690600160401b900463ffffffff166127ee565b10155b610f295760405162461bcd60e51b815260206004820152601d60248201527f4d696e5072696365203e20383025206f66206275794e6f7750726963650000006044820152606401610676565b6001600160a01b0388811660008181526001602090815260408083208c84528252808320948b168084529482529182902060020180546001600160801b0319166001600160801b038b1690811790915582519384529083018b90529082019290925260608101919091527f3b670e6a6c0b9ef6d37457a36846248b7f074356da97bd5e51e803cdcf0218039060800160405180910390a1610fcb8888886121b1565b15610fe657610fdb888888612248565b610fe68888886124ea565b5050505050505050565b81336001600160a01b0382161461103b5760405162461bcd60e51b815260206004820152600f60248201526e27b7363c9037333a1039b2b63632b960891b6044820152606401610676565b848484611049838383612807565b156110965760405162461bcd60e51b815260206004820181905260248201527f5468652061756374696f6e2068617320612076616c696420626964206d6164656044820152606401610676565b8787876110a48383836128a4565b156110f15760405162461bcd60e51b815260206004820152601960248201527f4e6f74206170706c696361626c6520666f7220612073616c65000000000000006044820152606401610676565b876001600160801b03166000811161113f5760405162461bcd60e51b8152602060048201526011602482015270050726963652063616e6e6f74206265203607c1b6044820152606401610676565b6001600160a01b03808d1660009081526001602090815260408083208f84528252808320938e16835292905220600201546001600160801b0316898115806111ad57506003546001600160801b03828116916111aa91851690600160401b900463ffffffff166127ee565b10155b6111f95760405162461bcd60e51b815260206004820152601d60248201527f4d696e5072696365203e20383025206f66206275794e6f7750726963650000006044820152606401610676565b6112058e8e8e8e612931565b5050505050505050505050505050565b81336001600160a01b038216146112605760405162461bcd60e51b815260206004820152600f60248201526e27b7363c9037333a1039b2b63632b960891b6044820152606401610676565b84848461126e838383612807565b156112bb5760405162461bcd60e51b815260206004820181905260248201527f5468652061756374696f6e2068617320612076616c696420626964206d6164656044820152606401610676565b604051627eeac760e11b815233600482015260248101889052889088908890889081906001600160a01b0386169062fdd58e90604401602060405180830381865afa15801561130e573d6000803e3d6000fd5b505050506040513d601f19601f8201168201806040525081019061133291906134ce565b1161137f5760405162461bcd60e51b815260206004820181905260248201527f4c697374657220646f65736e74206861766520656e6f75676820746f6b656e736044820152606401610676565b600089116113cf5760405162461bcd60e51b815260206004820181905260248201527f4d757374206265207570646174656420746f2061206e6f6e7a65726f207174796044820152606401610676565b505050506001600160a01b039788166000908152600160209081526040808320998352988152888220979099168152959097525050509190205550565b6000546001600160a01b031633146114665760405162461bcd60e51b815260206004820181905260248201527f4f776e61626c653a2063616c6c6572206973206e6f7420746865206f776e65726044820152606401610676565b61147060006129f4565b565b81336001600160a01b038216146114bd5760405162461bcd60e51b815260206004820152600f60248201526e27b7363c9037333a1039b2b63632b960891b6044820152606401610676565b6114c88585856128a4565b6115145760405162461bcd60e51b815260206004820152600a60248201527f4e6f7420612073616c65000000000000000000000000000000000000000000006044820152606401610676565b6001600160a01b0385811660009081526001602090815260408083208884528252808320878516845290915290206004810180546001600160a01b0319168584161790556003810154600290910154911690600160801b90046001600160801b031680158015906115975750836001600160a01b0316826001600160a01b031614155b1561160e576001600160a01b0380881660009081526001602090815260408083208a845282528083209389168352929052206003810180546001600160a01b03199081169091556002820180546001600160801b0316905560059091018054909116905561160e82826001600160801b0316612a44565b604080516001600160a01b03808a168252602082018990528088169282019290925290851660608201527f33e559e1e675ff66338fce03bd54d27b83cf1e90178e8b9aeaad93ae4de4757c906080015b60405180910390a150505050505050565b82828261167d838383612ae7565b156116ca5760405162461bcd60e51b815260206004820152601760248201527f41756374696f6e206973206e6f7420796574206f7665720000000000000000006044820152606401610676565b6116d58686866124ea565b604080516001600160a01b0388811682526020820188905286168183015233606082015290517f49a7436ddcc5571701ae5f4fdb50d30a758ddfde7d1bbd297b2125699b65e83d9181900360800190a1505050505050565b6000546001600160a01b031633146117875760405162461bcd60e51b815260206004820181905260248201527f4f776e61626c653a2063616c6c6572206973206e6f7420746865206f776e65726044820152606401610676565b6003805463ffffffff909216600160801b027fffffffffffffffffffffffff00000000ffffffffffffffffffffffffffffffff909216919091179055565b8282826117d3838383612807565b156118205760405162461bcd60e51b815260206004820181905260248201527f5468652061756374696f6e2068617320612076616c696420626964206d6164656044820152606401610676565b6001600160a01b03808716600090815260016020908152604080832089845282528083208885168452909152902060030154163381146118a25760405162461bcd60e51b815260206004820152601960248201527f53656e646572206e6f74206869676865737420626964646572000000000000006044820152606401610676565b6001600160a01b0387811660009081526001602090815260408083208a845282528083209389168352929052206002810180546003830180546001600160a01b03199081169091556001600160801b0380831690935560059093018054909316909255600160801b909104166119188282612a44565b604080516001600160a01b038a81168252602082018a905288168183015233606082015290517f0530f4d79441adffc8354a7934d02165d99564ab143c2c94af43c9dce2e5dd319181900360800190a15050505050505050565b33600090815260026020526040902054806119cf5760405162461bcd60e51b815260206004820152601660248201527f6e6f206372656469747320746f207769746864726177000000000000000000006044820152606401610676565b3360008181526002602052604080822082905551909190614e2090849084818181858888f193505050503d8060008114611a25576040519150601f19603f3d011682016040523d82523d6000602084013e611a2a565b606091505b5050905080611a7b5760405162461bcd60e51b815260206004820152600f60248201527f7769746864726177206661696c656400000000000000000000000000000000006044820152606401610676565b5050565b828282611a8d838383612ae7565b611ad95760405162461bcd60e51b815260206004820152601160248201527f41756374696f6e2068617320656e6465640000000000000000000000000000006044820152606401610676565b6001600160a01b03868116600090815260016020908152604080832089845282528083208885168452909152902060040154879187918791161580611b4f57506001600160a01b038381166000908152600160209081526040808320868452825280832085851684529091529020600401541633145b611b9b5760405162461bcd60e51b815260206004820152601a60248201527f4f6e6c79207468652077686974656c69737465642062757965720000000000006044820152606401610676565b611ba6898989612b47565b505050505050505050565b6000546001600160a01b03163314611c0b5760405162461bcd60e51b815260206004820181905260248201527f4f776e61626c653a2063616c6c6572206973206e6f7420746865206f776e65726044820152606401610676565b600480546001600160a01b0319166001600160a01b0392909216919091179055565b6001600160a01b0381163314611c855760405162461bcd60e51b815260206004820152601160248201527f4e6f742041756374696f6e206f776e65720000000000000000000000000000006044820152606401610676565b6001600160a01b03838116600081815260016020818152604080842088855282528084209587168085529582528084208481556002810180546001600160801b031916905592830193909355600490910180546001600160a01b0319169055815192835282018590528101919091527fec19f84af4aad6523d37faa19e243c77717842cca9bf492dc5379830cac958d0906060015b60405180910390a1505050565b838383611d35838383612ae7565b611d815760405162461bcd60e51b815260206004820152601160248201527f41756374696f6e2068617320656e6465640000000000000000000000000000006044820152606401610676565b836001600160a01b038116611dd85760405162461bcd60e51b815260206004820152601860248201527f43616e6e6f7420737065636966792030206164647265737300000000000000006044820152606401610676565b6001600160a01b0388811660009081526001602090815260408083208b845282528083208a85168452909152902060040154899189918991161580611e4e57506001600160a01b038381166000908152600160209081526040808320868452825280832085851684529091529020600401541633145b611e9a5760405162461bcd60e51b815260206004820152601a60248201527f4f6e6c79207468652077686974656c69737465642062757965720000000000006044820152606401610676565b6001600160a01b038b811660009081526001602090815260408083208e845282528083208d85168452909152902060050180546001600160a01b031916918a169190911790556108af8b8b8b612b47565b6000546001600160a01b03163314611f455760405162461bcd60e51b815260206004820181905260248201527f4f776e61626c653a2063616c6c6572206973206e6f7420746865206f776e65726044820152606401610676565b6001600160a01b038116611fc15760405162461bcd60e51b815260206004820152602660248201527f4f776e61626c653a206e6577206f776e657220697320746865207a65726f206160448201527f64647265737300000000000000000000000000000000000000000000000000006064820152608401610676565b611fca816129f4565b50565b806127108163ffffffff1611156120265760405162461bcd60e51b815260206004820152601b60248201527f4665652070657263656e746167652065786365656473203130302500000000006044820152606401610676565b506001600160a01b039788166000908152600160209081526040808320998352988152888220978a16825296909652959094206006810180549588167fffffffffffffffff00000000000000000000000000000000000000000000000090961695909517600160a01b63ffffffff9790971696909602959095179093556002840180546001600160801b0319166001600160801b03929092169190911790556004830180546001600160a01b031916929094169190911790925555565b6001600160a01b038381166000908152600160209081526040808320868452825280832093851683529290522060020154600160801b90046001600160801b031615155b9392505050565b6001600160a01b0383811660009081526001602090815260408083208684528252808320858516845290915281206004015490911615806121a957506001600160a01b038085166000908152600160209081526040808320878452825280832084871684529091529020600481015460039091015482169116145b949350505050565b6001600160a01b03808416600090815260016020908152604080832086845282528083209385168352929052908120600201546001600160801b0316801580159061223f57506001600160a01b0380861660009081526001602090815260408083208884528252808320938716835292905220600201546001600160801b03808316600160801b9092041610155b95945050505050565b6001600160a01b03838116600081815260016020908152604080832087845282528083209486168352939052828120549251627eeac760e11b81523060048201526024810186905290919062fdd58e90604401602060405180830381865afa1580156122b8573d6000803e3d6000fd5b505050506040513d601f19601f820116820180604052508101906122dc91906134ce565b604051627eeac760e11b81526001600160a01b03858116600483015260248201879052919250839187169062fdd58e90604401602060405180830381865afa15801561232c573d6000803e3d6000fd5b505050506040513d601f19601f8201168201806040525081019061235091906134ce565b101561239e5760405162461bcd60e51b815260206004820181905260248201527f73656c6c657220646f65736e2774206f776e20656e6f75676820746f6b656e736044820152606401610676565b604051637921219560e11b81526001600160a01b038481166004830152306024830152604482018690526064820184905260a06084830152600360a48301526203078360ec1b60c483015286169063f242432a9060e401600060405180830381600087803b15801561240f57600080fd5b505af1158015612423573d6000803e3d6000fd5b5050604051627eeac760e11b8152306004820152602481018790528392506001600160a01b038816915062fdd58e90604401602060405180830381865afa158015612472573d6000803e3d6000fd5b505050506040513d601f19601f8201168201806040525081019061249691906134ce565b116124e35760405162461bcd60e51b815260206004820152601360248201527f6e6674207472616e73666572206661696c6564000000000000000000000000006044820152606401610676565b5050505050565b6001600160a01b038084166000908152600160209081526040808320868452825280832085851684529091528120600301549091169061252b858585612c7a565b6001600160a01b038681166000908152600160209081526040808320898452825280832093881683529290522060028101805482546003840180546001600160a01b03199081169091556001600160801b0380841690945560059094018054909416909355929350600160801b909204909116906125ab87878785612cf5565b604051637921219560e11b81523060048201526001600160a01b038481166024830152604482018890526064820183905260a06084830152600360a48301526203078360ec1b60c483015288169063f242432a9060e401600060405180830381600087803b15801561261c57600080fd5b505af1158015612630573d6000803e3d6000fd5b505050506001600160a01b0387811660008181526001602081815260408084208c855282528084208b87168086529083528185208581556002810180546001600160801b031916905593840194909455600490920180546001600160a01b0319169055815193845283018a9052820152606081018390526001600160801b038416608082015285821660a082015290841660c08201527fb896d0c1834bf70c526ecf608826e9b853de0565c90806ad84cb8ec1f03f68129060e00161165e565b6001600160a01b0383811660009081526001602090815260408083208684528252808320858516845290915290206003810180546002830180546001600160a01b03198084169094556001600160801b038082169092556005909401805490931690925590921691600160801b909104166124e38282612a44565b61277b8888888888888888612d93565b604080516001600160a01b038a81168252602082018a9052881681830152606081018790526001600160801b038681166080830152851660a082015290517f6380f0635a2ccf97acd583ab841c2d2048ef43cfcdc61537a9fe15697207e32f9181900360c00190a1610fe6888888612f2a565b60006127106127fd83856134fd565b6121279190613532565b6001600160a01b0383811660009081526001602081815260408084208785528252808420948616845293905291812090910154600160801b90046001600160801b0316801580159061223f57506001600160a01b039485166000908152600160209081526040808320968352958152858220949096168152929094525020600201546001600160801b03918216600160801b909104909116101590565b6001600160a01b03808416600090815260016020908152604080832086845282528083209385168352929052908120600201546001600160801b0316158015906121a95750506001600160a01b0392831660009081526001602081815260408084209584529481528483209390951682529190935291200154600160801b90046001600160801b03161590565b6001600160a01b03848116600081815260016020818152604080842089855282528084209588168085529582529283902090910180546001600160801b03908116600160801b9188169182021790915582519384529083018790529082019290925260608101919091527fb6ebaa8547860238dc11cb68c204694a945714f895fbfb9875e4a77a5d3a01d59060800160405180910390a16129d3848484612807565b156129ee576129e3848484612248565b6129ee848484612f72565b50505050565b600080546001600160a01b038381166001600160a01b0319831681178455604051919092169283917f8be0079c531659141344cd1fd0a4f28419497f9722a3daafe3b4186f6b6457e09190a35050565b6000826001600160a01b031682614e2090604051600060405180830381858888f193505050503d8060008114612a96576040519150601f19603f3d011682016040523d82523d6000602084013e612a9b565b606091505b5050905080612ae2576001600160a01b038316600090815260026020526040902054612ac8908390613546565b6001600160a01b0384166000908152600260205260409020555b505050565b6001600160a01b0383811660009081526001602081815260408084208785528252808420948616845293905291812090910154600160401b900467ffffffffffffffff1680158061223f575067ffffffffffffffff164210949350505050565b80336001600160a01b0382161415612ba15760405162461bcd60e51b815260206004820152601f60248201527f4f776e65722063616e6e6f7420626964206f6e206f776e2041756374696f6e006044820152606401610676565b34612bab57600080fd5b838383612bb9838383613049565b612c055760405162461bcd60e51b815260206004820152601e60248201527f4e6f7420656e6f7567682066756e647320746f20626964206f6e204e465400006044820152606401610676565b612c10878787613139565b604080516001600160a01b0389811682526020820189905287168183015233606082015234608082015290517f0bf0ea388d6a006fc2bef3b87108c802bd770392a796a1ce7f6bd75aa84a79b89181900360a00190a1612c71878787612f2a565b50505050505050565b6001600160a01b0380841660009081526001602090815260408083208684528252808320858516845290915281206005015490911680612cee5750506001600160a01b0380841660009081526001602090815260408083208684528252808320858516845290915290206003015416612127565b9050612127565b6001600160a01b0384811660009081526001602090815260408083208784528252808320938616835292905290812060060154612d40908390600160a01b900463ffffffff166127ee565b6001600160a01b03808716600090815260016020908152604080832089845282528083208885168452909152902060060154919250612d80911682612a44565b6124e383612d8e838561355e565b612a44565b82846001600160801b0382161580612dd157506003546001600160801b0382811691612dce91851690600160401b900463ffffffff166127ee565b10155b612e1d5760405162461bcd60e51b815260206004820152601d60248201527f4d696e5072696365203e20383025206f66206275794e6f7750726963650000006044820152606401610676565b826127108163ffffffff161115612e765760405162461bcd60e51b815260206004820152601b60248201527f4665652070657263656e746167652065786365656473203130302500000000006044820152606401610676565b5050506001600160a01b0397881660009081526001602081815260408084209a8452998152898320988b168352979097529690962093845560068401805463ffffffff909716600160a01b027fffffffffffffffff0000000000000000000000000000000000000000000000009097169190971617949094179094556002810180546001600160801b039485166001600160801b0319909116179055018054928216600160801b0292909116919091179055565b612f358383836121b1565b15612f5057612f45838383612248565b612ae28383836124ea565b612f5b838383612807565b15612ae257612f6b838383612248565b612ae28383835b42612f7e8484846131bf565b63ffffffff16612f8e9190613575565b6001600160a01b03848116600081815260016020818152604080842089855282528084209588168085529582529283902090910180547fffffffffffffffffffffffffffffffff0000000000000000ffffffffffffffff16600160401b67ffffffffffffffff978816810291909117918290558351948552918401889052918301939093529190910490911660608201527fd20a7e1f849d3333cff4325f028c7eade333bda89b318cecd2a73cb32e3b5baf90608001611d1a565b6001600160a01b03808416600090815260016020908152604080832086845282528083209385168352929052908120600201546001600160801b0316801580159061309d5750806001600160801b03163410155b156130ac576001915050612127565b60006127106130bc878787613225565b6130c8906127106135a1565b6001600160a01b0388811660009081526001602090815260408083208b84528252808320938a16835292905220600201546131199163ffffffff1690600160801b90046001600160801b03166135c0565b61312391906135ef565b6001600160801b03163410159695505050505050565b6001600160a01b03838116600090815260016020908152604080832086845282528083208585168452909152902060038101805460029092018054600160801b346001600160801b039081168202818416179093556001600160a01b03198516331790935592909316929104166001600160a01b038216156124e3576124e38282612a44565b6001600160a01b0383811660009081526001602081815260408084208785528252808420948616845293905291812090910154640100000000900463ffffffff1680612cee5750506003546c01000000000000000000000000900463ffffffff16612127565b6001600160a01b038084166000908152600160208181526040808420878552825280842094861684529390529181209091015463ffffffff1680612cee57505060035463ffffffff16612127565b80356001600160a01b038116811461328a57600080fd5b919050565b80356001600160801b038116811461328a57600080fd5b803563ffffffff8116811461328a57600080fd5b600080600080600080600060e0888a0312156132d557600080fd5b6132de88613273565b965060208801359550604088013594506132fa6060890161328f565b935061330860808901613273565b925061331660a08901613273565b915061332460c089016132a6565b905092959891949750929550565b60008060006060848603121561334757600080fd5b61335084613273565b92506020840135915061336560408501613273565b90509250925092565b600080600080600060a0868803121561338657600080fd5b61338f86613273565b945060208601359350604086013592506133ab6060870161328f565b91506133b96080870161328f565b90509295509295909350565b600080600080608085870312156133db57600080fd5b6133e485613273565b9350602085013592506133f960408601613273565b91506134076060860161328f565b905092959194509250565b6000806000806080858703121561342857600080fd5b61343185613273565b93506020850135925061344660408601613273565b9396929550929360600135925050565b6000806000806080858703121561346c57600080fd5b61347585613273565b93506020850135925061348a60408601613273565b915061340760608601613273565b6000602082840312156134aa57600080fd5b612127826132a6565b6000602082840312156134c557600080fd5b61212782613273565b6000602082840312156134e057600080fd5b5051919050565b634e487b7160e01b600052601160045260246000fd5b6000816000190483118215151615613517576135176134e7565b500290565b634e487b7160e01b600052601260045260246000fd5b6000826135415761354161351c565b500490565b60008219821115613559576135596134e7565b500190565b600082821015613570576135706134e7565b500390565b600067ffffffffffffffff808316818516808303821115613598576135986134e7565b01949350505050565b600063ffffffff808316818516808303821115613598576135986134e7565b60006001600160801b03808316818516818304811182151516156135e6576135e66134e7565b02949350505050565b60006001600160801b03808416806136095761360961351c565b9216919091049291505056fea26469706673582212200b248abe9566bf58e5eebd326147d8456f52d457e14bb88fb361f28ce03a722864736f6c634300080a0033",
  "linkReferences": {},
  "deployedLinkReferences": {}
}