{
  "_format": "hh-sol-artifact-1",
  "contractName": "Citizens",
  "sourceName": "contracts/Citizens.sol",
  "abi": [
    {
      "inputs": [
        {
          "internalType": "address",
          "name": "CloakLibAddr",
          "type": "address"
        }
      ],
      "stateMutability": "nonpayable",
      "type": "constructor"
    },
    {
      "anonymous": false,
      "inputs": [
        {
          "indexed": true,
          "internalType": "address",
          "name": "owner",
          "type": "address"
        },
        {
          "indexed": true,
          "internalType": "address",
          "name": "approved",
          "type": "address"
        },
        {
          "indexed": true,
          "internalType": "uint256",
          "name": "tokenId",
          "type": "uint256"
        }
      ],
      "name": "Approval",
      "type": "event"
    },
    {
      "anonymous": false,
      "inputs": [
        {
          "indexed": true,
          "internalType": "address",
          "name": "owner",
          "type": "address"
        },
        {
          "indexed": true,
          "internalType": "address",
          "name": "operator",
          "type": "address"
        },
        {
          "indexed": false,
          "internalType": "bool",
          "name": "approved",
          "type": "bool"
        }
      ],
      "name": "ApprovalForAll",
      "type": "event"
    },
    {
      "anonymous": false,
      "inputs": [
        {
          "indexed": false,
          "internalType": "uint256",
          "name": "id",
          "type": "uint256"
        },
        {
          "indexed": false,
          "internalType": "address",
          "name": "clanAddr",
          "type": "address"
        }
      ],
      "name": "CitizenDeclaredToClan",
      "type": "event"
    },
    {
      "anonymous": false,
      "inputs": [
        {
          "indexed": true,
          "internalType": "address",
          "name": "previousOwner",
          "type": "address"
        },
        {
          "indexed": true,
          "internalType": "address",
          "name": "newOwner",
          "type": "address"
        }
      ],
      "name": "OwnershipTransferred",
      "type": "event"
    },
    {
      "anonymous": false,
      "inputs": [
        {
          "indexed": true,
          "internalType": "address",
          "name": "from",
          "type": "address"
        },
        {
          "indexed": true,
          "internalType": "address",
          "name": "to",
          "type": "address"
        },
        {
          "indexed": true,
          "internalType": "uint256",
          "name": "tokenId",
          "type": "uint256"
        }
      ],
      "name": "Transfer",
      "type": "event"
    },
    {
      "anonymous": false,
      "inputs": [],
      "name": "adminChange",
      "type": "event"
    },
    {
      "anonymous": false,
      "inputs": [
        {
          "indexed": false,
          "internalType": "uint256",
          "name": "id",
          "type": "uint256"
        },
        {
          "indexed": false,
          "internalType": "bytes32",
          "name": "cod",
          "type": "bytes32"
        }
      ],
      "name": "causeOfDeathSet",
      "type": "event"
    },
    {
      "inputs": [],
      "name": "WLMerkleRoot",
      "outputs": [
        {
          "internalType": "bytes32",
          "name": "",
          "type": "bytes32"
        }
      ],
      "stateMutability": "view",
      "type": "function"
    },
    {
      "inputs": [
        {
          "internalType": "address",
          "name": "to",
          "type": "address"
        },
        {
          "internalType": "uint256",
          "name": "tokenId",
          "type": "uint256"
        }
      ],
      "name": "approve",
      "outputs": [],
      "stateMutability": "nonpayable",
      "type": "function"
    },
    {
      "inputs": [
        {
          "internalType": "address",
          "name": "owner",
          "type": "address"
        }
      ],
      "name": "balanceOf",
      "outputs": [
        {
          "internalType": "uint256",
          "name": "",
          "type": "uint256"
        }
      ],
      "stateMutability": "view",
      "type": "function"
    },
    {
      "inputs": [],
      "name": "contractURI",
      "outputs": [
        {
          "internalType": "string",
          "name": "",
          "type": "string"
        }
      ],
      "stateMutability": "view",
      "type": "function"
    },
    {
      "inputs": [
        {
          "internalType": "uint256",
          "name": "id",
          "type": "uint256"
        },
        {
          "internalType": "address",
          "name": "clanAddress",
          "type": "address"
        }
      ],
      "name": "declareForClan",
      "outputs": [],
      "stateMutability": "nonpayable",
      "type": "function"
    },
    {
      "inputs": [
        {
          "internalType": "uint256",
          "name": "id",
          "type": "uint256"
        }
      ],
      "name": "getAlignmentById",
      "outputs": [
        {
          "internalType": "string",
          "name": "",
          "type": "string"
        }
      ],
      "stateMutability": "view",
      "type": "function"
    },
    {
      "inputs": [
        {
          "internalType": "uint256",
          "name": "id",
          "type": "uint256"
        }
      ],
      "name": "getApById",
      "outputs": [
        {
          "internalType": "uint8[4]",
          "name": "",
          "type": "uint8[4]"
        }
      ],
      "stateMutability": "view",
      "type": "function"
    },
    {
      "inputs": [
        {
          "internalType": "uint256",
          "name": "tokenId",
          "type": "uint256"
        }
      ],
      "name": "getApproved",
      "outputs": [
        {
          "internalType": "address",
          "name": "",
          "type": "address"
        }
      ],
      "stateMutability": "view",
      "type": "function"
    },
    {
      "inputs": [
        {
          "internalType": "uint256",
          "name": "id",
          "type": "uint256"
        }
      ],
      "name": "getClanById",
      "outputs": [
        {
          "internalType": "address",
          "name": "",
          "type": "address"
        }
      ],
      "stateMutability": "view",
      "type": "function"
    },
    {
      "inputs": [
        {
          "internalType": "uint256",
          "name": "id",
          "type": "uint256"
        }
      ],
      "name": "getFullBytes",
      "outputs": [
        {
          "internalType": "uint32[32]",
          "name": "",
          "type": "uint32[32]"
        }
      ],
      "stateMutability": "view",
      "type": "function"
    },
    {
      "inputs": [
        {
          "internalType": "uint256",
          "name": "id",
          "type": "uint256"
        }
      ],
      "name": "getSeedById",
      "outputs": [
        {
          "internalType": "uint16",
          "name": "",
          "type": "uint16"
        }
      ],
      "stateMutability": "view",
      "type": "function"
    },
    {
      "inputs": [
        {
          "internalType": "address",
          "name": "owner",
          "type": "address"
        },
        {
          "internalType": "address",
          "name": "operator",
          "type": "address"
        }
      ],
      "name": "isApprovedForAll",
      "outputs": [
        {
          "internalType": "bool",
          "name": "",
          "type": "bool"
        }
      ],
      "stateMutability": "view",
      "type": "function"
    },
    {
      "inputs": [],
      "name": "isCauseOfDeathSetActive",
      "outputs": [
        {
          "internalType": "bool",
          "name": "",
          "type": "bool"
        }
      ],
      "stateMutability": "view",
      "type": "function"
    },
    {
      "inputs": [],
      "name": "isCommunityClaimActive",
      "outputs": [
        {
          "internalType": "bool",
          "name": "",
          "type": "bool"
        }
      ],
      "stateMutability": "view",
      "type": "function"
    },
    {
      "inputs": [],
      "name": "isPublicClaimActive",
      "outputs": [
        {
          "internalType": "bool",
          "name": "",
          "type": "bool"
        }
      ],
      "stateMutability": "view",
      "type": "function"
    },
    {
      "inputs": [],
      "name": "name",
      "outputs": [
        {
          "internalType": "string",
          "name": "",
          "type": "string"
        }
      ],
      "stateMutability": "view",
      "type": "function"
    },
    {
      "inputs": [],
      "name": "owner",
      "outputs": [
        {
          "internalType": "address",
          "name": "",
          "type": "address"
        }
      ],
      "stateMutability": "view",
      "type": "function"
    },
    {
      "inputs": [
        {
          "internalType": "uint256",
          "name": "tokenId",
          "type": "uint256"
        }
      ],
      "name": "ownerOf",
      "outputs": [
        {
          "internalType": "address",
          "name": "",
          "type": "address"
        }
      ],
      "stateMutability": "view",
      "type": "function"
    },
    {
      "inputs": [],
      "name": "ownerWithdraw",
      "outputs": [],
      "stateMutability": "payable",
      "type": "function"
    },
    {
      "inputs": [],
      "name": "publicClaim",
      "outputs": [],
      "stateMutability": "nonpayable",
      "type": "function"
    },
    {
      "inputs": [],
      "name": "renounceOwnership",
      "outputs": [],
      "stateMutability": "nonpayable",
      "type": "function"
    },
    {
      "inputs": [
        {
          "internalType": "address",
          "name": "from",
          "type": "address"
        },
        {
          "internalType": "address",
          "name": "to",
          "type": "address"
        },
        {
          "internalType": "uint256",
          "name": "tokenId",
          "type": "uint256"
        }
      ],
      "name": "safeTransferFrom",
      "outputs": [],
      "stateMutability": "nonpayable",
      "type": "function"
    },
    {
      "inputs": [
        {
          "internalType": "address",
          "name": "from",
          "type": "address"
        },
        {
          "internalType": "address",
          "name": "to",
          "type": "address"
        },
        {
          "internalType": "uint256",
          "name": "tokenId",
          "type": "uint256"
        },
        {
          "internalType": "bytes",
          "name": "_data",
          "type": "bytes"
        }
      ],
      "name": "safeTransferFrom",
      "outputs": [],
      "stateMutability": "nonpayable",
      "type": "function"
    },
    {
      "inputs": [
        {
          "internalType": "address",
          "name": "operator",
          "type": "address"
        },
        {
          "internalType": "bool",
          "name": "approved",
          "type": "bool"
        }
      ],
      "name": "setApprovalForAll",
      "outputs": [],
      "stateMutability": "nonpayable",
      "type": "function"
    },
    {
      "inputs": [
        {
          "internalType": "string",
          "name": "baseTokenURI",
          "type": "string"
        }
      ],
      "name": "setBaseURI",
      "outputs": [],
      "stateMutability": "nonpayable",
      "type": "function"
    },
    {
      "inputs": [
        {
          "internalType": "uint256",
          "name": "id",
          "type": "uint256"
        },
        {
          "internalType": "bytes32",
          "name": "_cod",
          "type": "bytes32"
        }
      ],
      "name": "setCauseOfDeath",
      "outputs": [],
      "stateMutability": "nonpayable",
      "type": "function"
    },
    {
      "inputs": [
        {
          "internalType": "bool",
          "name": "_isCauseOfDeathSetActive",
          "type": "bool"
        }
      ],
      "name": "setCauseOfDeathActive",
      "outputs": [],
      "stateMutability": "nonpayable",
      "type": "function"
    },
    {
      "inputs": [
        {
          "internalType": "string",
          "name": "newContractURI",
          "type": "string"
        }
      ],
      "name": "setContractURI",
      "outputs": [],
      "stateMutability": "nonpayable",
      "type": "function"
    },
    {
      "inputs": [
        {
          "internalType": "bool",
          "name": "_isCommunityClaimActive",
          "type": "bool"
        }
      ],
      "name": "setIsCommunityClaimActive",
      "outputs": [],
      "stateMutability": "nonpayable",
      "type": "function"
    },
    {
      "inputs": [
        {
          "internalType": "bool",
          "name": "_isPublicClaimActive",
          "type": "bool"
        }
      ],
      "name": "setIsPublicClaimActive",
      "outputs": [],
      "stateMutability": "nonpayable",
      "type": "function"
    },
    {
      "inputs": [
        {
          "internalType": "bytes32",
          "name": "merkleRoot",
          "type": "bytes32"
        }
      ],
      "name": "setListMerkleRoot",
      "outputs": [],
      "stateMutability": "nonpayable",
      "type": "function"
    },
    {
      "inputs": [
        {
          "internalType": "bytes4",
          "name": "interfaceId",
          "type": "bytes4"
        }
      ],
      "name": "supportsInterface",
      "outputs": [
        {
          "internalType": "bool",
          "name": "",
          "type": "bool"
        }
      ],
      "stateMutability": "view",
      "type": "function"
    },
    {
      "inputs": [],
      "name": "symbol",
      "outputs": [
        {
          "internalType": "string",
          "name": "",
          "type": "string"
        }
      ],
      "stateMutability": "view",
      "type": "function"
    },
    {
      "inputs": [
        {
          "internalType": "uint256",
          "name": "index",
          "type": "uint256"
        }
      ],
      "name": "tokenByIndex",
      "outputs": [
        {
          "internalType": "uint256",
          "name": "",
          "type": "uint256"
        }
      ],
      "stateMutability": "view",
      "type": "function"
    },
    {
      "inputs": [
        {
          "internalType": "address",
          "name": "owner",
          "type": "address"
        },
        {
          "internalType": "uint256",
          "name": "index",
          "type": "uint256"
        }
      ],
      "name": "tokenOfOwnerByIndex",
      "outputs": [
        {
          "internalType": "uint256",
          "name": "",
          "type": "uint256"
        }
      ],
      "stateMutability": "view",
      "type": "function"
    },
    {
      "inputs": [
        {
          "internalType": "uint256",
          "name": "tokenId",
          "type": "uint256"
        }
      ],
      "name": "tokenURI",
      "outputs": [
        {
          "internalType": "string",
          "name": "",
          "type": "string"
        }
      ],
      "stateMutability": "view",
      "type": "function"
    },
    {
      "inputs": [],
      "name": "totalSupply",
      "outputs": [
        {
          "internalType": "uint256",
          "name": "",
          "type": "uint256"
        }
      ],
      "stateMutability": "view",
      "type": "function"
    },
    {
      "inputs": [
        {
          "internalType": "address",
          "name": "from",
          "type": "address"
        },
        {
          "internalType": "address",
          "name": "to",
          "type": "address"
        },
        {
          "internalType": "uint256",
          "name": "tokenId",
          "type": "uint256"
        }
      ],
      "name": "transferFrom",
      "outputs": [],
      "stateMutability": "nonpayable",
      "type": "function"
    },
    {
      "inputs": [
        {
          "internalType": "address",
          "name": "newOwner",
          "type": "address"
        }
      ],
      "name": "transferOwnership",
      "outputs": [],
      "stateMutability": "nonpayable",
      "type": "function"
    },
    {
      "inputs": [
        {
          "internalType": "bytes32[]",
          "name": "merkleProof",
          "type": "bytes32[]"
        }
      ],
      "name": "wlClaim",
      "outputs": [],
      "stateMutability": "nonpayable",
      "type": "function"
    }
  ],
  "bytecode": "0x60e060405260286080818152906200404460a039805162000029916012916020909101906200030c565b506040518060600160405280602981526020016200406c6029913980516200005a916013916020909101906200030c565b506040805161016081018252600b61012082018181526a13185dd99d5b0811dbdbd960aa1b610140840152825282518084018452600c8082526b13995d5d1c985b0811dbdbd960a21b60208381019190915280850192909252845180860186528181526b10da185bdd1a58c811dbdbd960a21b818401528486015284518086018652600e81526d13185dd99d5b0813995d5d1c985b60921b818401526060850152845180860186528181526b151c9d594813995d5d1c985b60a21b81840152608085015284518086018652600f81526e10da185bdd1a58c813995d5d1c985b608a1b8184015260a0850152845180860186529283526a13185dd99d5b08115d9a5b60aa1b8383015260c0840192909252835180850185528281526b13995d5d1c985b08115d9a5b60a21b8183015260e084015283518085019094529083526b10da185bdd1a58c8115d9a5b60a21b90830152610100810191909152620001c59060149060096200039b565b50348015620001d357600080fd5b506040516200409538038062004095833981016040819052620001f69162000475565b604080518082018252601481527f436f696e6c616e6465723a20436974697a656e7300000000000000000000000060208083019182528351808501909452600584526421aa2d22a760d91b90840152815191929162000258916000916200030c565b5080516200026e9060019060208401906200030c565b5050506200028b62000285620002b660201b60201c565b620002ba565b6001600b55600c80546001600160a01b0319166001600160a01b0392909216919091179055620004e4565b3390565b600a80546001600160a01b038381166001600160a01b0319831681179093556040519116919082907f8be0079c531659141344cd1fd0a4f28419497f9722a3daafe3b4186f6b6457e090600090a35050565b8280546200031a90620004a7565b90600052602060002090601f0160209004810192826200033e576000855562000389565b82601f106200035957805160ff191683800117855562000389565b8280016001018555821562000389579182015b82811115620003895782518255916020019190600101906200036c565b5062000397929150620003fb565b5090565b828054828255906000526020600020908101928215620003ed579160200282015b82811115620003ed5782518051620003dc9184916020909101906200030c565b5091602001919060010190620003bc565b506200039792915062000412565b5b80821115620003975760008155600101620003fc565b808211156200039757600062000429828262000433565b5060010162000412565b5080546200044190620004a7565b6000825580601f1062000452575050565b601f016020900490600052602060002090810190620004729190620003fb565b50565b6000602082840312156200048857600080fd5b81516001600160a01b0381168114620004a057600080fd5b9392505050565b600181811c90821680620004bc57607f821691505b60208210811415620004de57634e487b7160e01b600052602260045260246000fd5b50919050565b613b5080620004f46000396000f3fe6080604052600436106102bb5760003560e01c8063638d1a581161016e578063aea48328116100cb578063d80a88ba1161007f578063e8a3d48511610064578063e8a3d485146107b0578063e985e9c5146107c5578063f2fde38b1461080e57600080fd5b8063d80a88ba1461074d578063e84f57981461076d57600080fd5b8063c5f5e3d1116100b0578063c5f5e3d1146106e0578063c87b56dd1461070d578063c8d1ca651461072d57600080fd5b8063aea48328146106aa578063b88d4fde146106c057600080fd5b80637b8d981f11610122578063938e3d7b11610107578063938e3d7b1461065557806395d89b4114610675578063a22cb4651461068a57600080fd5b80637b8d981f146106175780638da5cb5b1461063757600080fd5b806370a082311161015357806370a08231146105c8578063715018a6146105e857806379ff96ec146105fd57600080fd5b8063638d1a5814610559578063672286591461057957600080fd5b80631e444b8f1161021c5780634311de8f116101d057806355f804b3116101b557806355f804b3146104ec5780635d805e701461050c5780636352211e1461053957600080fd5b80634311de8f146104c45780634f6ccce7146104cc57600080fd5b80632f745c59116102015780632f745c591461046457806336842eae1461048457806342842e0e146104a457600080fd5b80631e444b8f1461042457806323b872dd1461044457600080fd5b80630b446c421161027357806318160ddd1161025857806318160ddd146103d05780631b415239146103ef5780631bfef1cb1461040457600080fd5b80630b446c421461039157806311b92445146103b157600080fd5b806306fdde03116102a457806306fdde0314610322578063081812fc14610337578063095ea7b31461036f57600080fd5b806301ffc9a7146102c05780630278c1ba146102f5575b600080fd5b3480156102cc57600080fd5b506102e06102db366004613449565b61082e565b60405190151581526020015b60405180910390f35b34801561030157600080fd5b50610315610310366004613466565b610872565b6040516102ec91906134d7565b34801561032e57600080fd5b50610315610916565b34801561034357600080fd5b50610357610352366004613466565b6109a8565b6040516001600160a01b0390911681526020016102ec565b34801561037b57600080fd5b5061038f61038a366004613506565b610a42565b005b34801561039d57600080fd5b5061038f6103ac366004613466565b610b74565b3480156103bd57600080fd5b506011546102e090610100900460ff1681565b3480156103dc57600080fd5b506008545b6040519081526020016102ec565b3480156103fb57600080fd5b5061038f610bff565b34801561041057600080fd5b5061038f61041f366004613530565b610dd9565b34801561043057600080fd5b5061038f61043f366004613562565b610f4e565b34801561045057600080fd5b5061038f61045f36600461357d565b610fe2565b34801561047057600080fd5b506103e161047f366004613506565b611069565b34801561049057600080fd5b5061038f61049f3660046135b9565b611111565b3480156104b057600080fd5b5061038f6104bf36600461357d565b611201565b61038f61121c565b3480156104d857600080fd5b506103e16104e7366004613466565b6112a9565b3480156104f857600080fd5b5061038f610507366004613671565b61134d565b34801561051857600080fd5b5061052c610527366004613466565b6113e7565b6040516102ec91906136ba565b34801561054557600080fd5b50610357610554366004613466565b6114ef565b34801561056557600080fd5b506011546102e09062010000900460ff1681565b34801561058557600080fd5b506105b5610594366004613466565b6000908152600e6020526040902060010154640100000000900461ffff1690565b60405161ffff90911681526020016102ec565b3480156105d457600080fd5b506103e16105e33660046136f6565b61157a565b3480156105f457600080fd5b5061038f611614565b34801561060957600080fd5b506011546102e09060ff1681565b34801561062357600080fd5b5061038f610632366004613562565b61167a565b34801561064357600080fd5b50600a546001600160a01b0316610357565b34801561066157600080fd5b5061038f610670366004613711565b611713565b34801561068157600080fd5b506103156117a7565b34801561069657600080fd5b5061038f6106a5366004613783565b6117b6565b3480156106b657600080fd5b506103e160105481565b3480156106cc57600080fd5b5061038f6106db3660046137ad565b61187b565b3480156106ec57600080fd5b506107006106fb366004613466565b611909565b6040516102ec9190613829565b34801561071957600080fd5b50610315610728366004613466565b611967565b34801561073957600080fd5b5061038f610748366004613562565b611a5d565b34801561075957600080fd5b5061038f610768366004613854565b611af8565b34801561077957600080fd5b50610357610788366004613466565b6000908152600e6020526040902060010154660100000000000090046001600160a01b031690565b3480156107bc57600080fd5b50610315611d9a565b3480156107d157600080fd5b506102e06107e03660046138b7565b6001600160a01b03918216600090815260056020908152604080832093909416825291909152205460ff1690565b34801561081a57600080fd5b5061038f6108293660046136f6565b611da9565b60006001600160e01b031982167f780e9d6300000000000000000000000000000000000000000000000000000000148061086c575061086c82611e8b565b92915050565b6000818152600e6020526040812080546060929190610890906138e1565b80601f01602080910402602001604051908101604052809291908181526020018280546108bc906138e1565b80156109095780601f106108de57610100808354040283529160200191610909565b820191906000526020600020905b8154815290600101906020018083116108ec57829003601f168201915b5093979650505050505050565b606060008054610925906138e1565b80601f0160208091040260200160405190810160405280929190818152602001828054610951906138e1565b801561099e5780601f106109735761010080835404028352916020019161099e565b820191906000526020600020905b81548152906001019060200180831161098157829003601f168201915b5050505050905090565b6000818152600260205260408120546001600160a01b0316610a265760405162461bcd60e51b815260206004820152602c60248201527f4552433732313a20617070726f76656420717565727920666f72206e6f6e657860448201526b34b9ba32b73a103a37b5b2b760a11b60648201526084015b60405180910390fd5b506000908152600460205260409020546001600160a01b031690565b6000610a4d826114ef565b9050806001600160a01b0316836001600160a01b03161415610ad75760405162461bcd60e51b815260206004820152602160248201527f4552433732313a20617070726f76616c20746f2063757272656e74206f776e6560448201527f72000000000000000000000000000000000000000000000000000000000000006064820152608401610a1d565b336001600160a01b0382161480610af35750610af381336107e0565b610b655760405162461bcd60e51b815260206004820152603860248201527f4552433732313a20617070726f76652063616c6c6572206973206e6f74206f7760448201527f6e6572206e6f7220617070726f76656420666f7220616c6c00000000000000006064820152608401610a1d565b610b6f8383611f26565b505050565b600a546001600160a01b03163314610bce5760405162461bcd60e51b815260206004820181905260248201527f4f776e61626c653a2063616c6c6572206973206e6f7420746865206f776e65726044820152606401610a1d565b60108190556040517f967dfe5be148516c1fac0713cd546ed343ea749976f802d2630d96fd2ee3477190600090a150565b6002600b541415610c525760405162461bcd60e51b815260206004820152601f60248201527f5265656e7472616e637947756172643a207265656e7472616e742063616c6c006044820152606401610a1d565b6002600b55323314610ca65760405162461bcd60e51b815260206004820152601060248201527f4f6e6c7920454f4120416c6c6f776564000000000000000000000000000000006044820152606401610a1d565b60115460ff16610cf85760405162461bcd60e51b815260206004820152601860248201527f5075626c696320636c61696d206973206e6f74206f70656e00000000000000006044820152606401610a1d565b336000908152600f602052604090205460ff1615610d585760405162461bcd60e51b815260206004820152600f60248201527f416c726561647920636c61696d656400000000000000000000000000000000006044820152606401610a1d565b612710610d64600d5490565b10610d9a5760405162461bcd60e51b81526020600482015260066024820152654e6f206d617360d01b6044820152606401610a1d565b610da8600d80546001019055565b336000908152600f60205260409020805460ff19166001179055610dd2610dcd611fa1565b611fb8565b6001600b55565b81610de3816114ef565b6001600160a01b0316336001600160a01b031614610e435760405162461bcd60e51b815260206004820152601460248201527f4d757374206265206f776e657220746f207365740000000000000000000000006044820152606401610a1d565b60115462010000900460ff16610e9b5760405162461bcd60e51b815260206004820152601560248201527f4e6f206c6f6e6765722061626c6520746f2073657400000000000000000000006044820152606401610a1d565b6000838152600e602052604090206002015415610efa5760405162461bcd60e51b815260206004820152601a60248201527f4361757365206f6620646561746820616c7265616479207365740000000000006044820152606401610a1d565b6000838152600e602090815260409182902060020184905581518581529081018490527fb116f7e723895755283edbed7ca452d1fac1add300843fde414bd2b73452ee0591015b60405180910390a1505050565b600a546001600160a01b03163314610fa85760405162461bcd60e51b815260206004820181905260248201527f4f776e61626c653a2063616c6c6572206973206e6f7420746865206f776e65726044820152606401610a1d565b6011805460ff19168215151790556040517f967dfe5be148516c1fac0713cd546ed343ea749976f802d2630d96fd2ee3477190600090a150565b610fec3382611fcb565b61105e5760405162461bcd60e51b815260206004820152603160248201527f4552433732313a207472616e736665722063616c6c6572206973206e6f74206f60448201527f776e6572206e6f7220617070726f7665640000000000000000000000000000006064820152608401610a1d565b610b6f8383836120c2565b60006110748361157a565b82106110e85760405162461bcd60e51b815260206004820152602b60248201527f455243373231456e756d657261626c653a206f776e657220696e646578206f7560448201527f74206f6620626f756e64730000000000000000000000000000000000000000006064820152608401610a1d565b506001600160a01b03919091166000908152600660209081526040808320938352929052205490565b8161111b816114ef565b6001600160a01b0316336001600160a01b03161461117b5760405162461bcd60e51b815260206004820152601460248201527f4d757374206265206f776e657220746f207365740000000000000000000000006044820152606401610a1d565b6000838152600e602090815260409182902060010180547fffffffffffff0000000000000000000000000000000000000000ffffffffffff1666010000000000006001600160a01b038716908102919091179091558251868152918201527f0940219710936351cab75abf7eb604594af8db91fe6fd098885248ceb33cd0da9101610f41565b610b6f8383836040518060200160405280600081525061187b565b600a546001600160a01b031633146112765760405162461bcd60e51b815260206004820181905260248201527f4f776e61626c653a2063616c6c6572206973206e6f7420746865206f776e65726044820152606401610a1d565b6040514790339082156108fc029083906000818181858888f193505050501580156112a5573d6000803e3d6000fd5b5050565b60006112b460085490565b82106113285760405162461bcd60e51b815260206004820152602c60248201527f455243373231456e756d657261626c653a20676c6f62616c20696e646578206f60448201527f7574206f6620626f756e647300000000000000000000000000000000000000006064820152608401610a1d565b6008828154811061133b5761133b61391c565b90600052602060002001549050919050565b600a546001600160a01b031633146113a75760405162461bcd60e51b815260206004820181905260248201527f4f776e61626c653a2063616c6c6572206973206e6f7420746865206f776e65726044820152606401610a1d565b80516113ba9060139060208401906132e9565b506040517f967dfe5be148516c1fac0713cd546ed343ea749976f802d2630d96fd2ee3477190600090a150565b6113ef61336d565b6000828152600e6020526040812060010154640100000000900461ffff1690611417846122a7565b915050600080826000141561142e57506000905060105b8260011415611443575060109050602061144b565b506020905060605b600c546040517f31f7bb7400000000000000000000000000000000000000000000000000000000815261ffff80851660048301528084166024830152861660448201526001600160a01b03909116906331f7bb749060640161040060405180830381865afa1580156114c1573d6000803e3d6000fd5b505050506040513d601f19601f820116820180604052508101906114e59190613932565b9695505050505050565b6000818152600260205260408120546001600160a01b03168061086c5760405162461bcd60e51b815260206004820152602960248201527f4552433732313a206f776e657220717565727920666f72206e6f6e657869737460448201527f656e7420746f6b656e00000000000000000000000000000000000000000000006064820152608401610a1d565b60006001600160a01b0382166115f85760405162461bcd60e51b815260206004820152602a60248201527f4552433732313a2062616c616e636520717565727920666f7220746865207a6560448201527f726f2061646472657373000000000000000000000000000000000000000000006064820152608401610a1d565b506001600160a01b031660009081526003602052604090205490565b600a546001600160a01b0316331461166e5760405162461bcd60e51b815260206004820181905260248201527f4f776e61626c653a2063616c6c6572206973206e6f7420746865206f776e65726044820152606401610a1d565b6116786000612453565b565b600a546001600160a01b031633146116d45760405162461bcd60e51b815260206004820181905260248201527f4f776e61626c653a2063616c6c6572206973206e6f7420746865206f776e65726044820152606401610a1d565b6011805461ff001916610100831515021790556040517f967dfe5be148516c1fac0713cd546ed343ea749976f802d2630d96fd2ee3477190600090a150565b600a546001600160a01b0316331461176d5760405162461bcd60e51b815260206004820181905260248201527f4f776e61626c653a2063616c6c6572206973206e6f7420746865206f776e65726044820152606401610a1d565b6117796012838361338c565b506040517f967dfe5be148516c1fac0713cd546ed343ea749976f802d2630d96fd2ee3477190600090a15050565b606060018054610925906138e1565b6001600160a01b03821633141561180f5760405162461bcd60e51b815260206004820152601960248201527f4552433732313a20617070726f766520746f2063616c6c6572000000000000006044820152606401610a1d565b3360008181526005602090815260408083206001600160a01b03871680855290835292819020805460ff191686151590811790915590519081529192917f17307eab39ab6107e8899845ad3d59bd9653f200f220920489ca2b5937696c31910160405180910390a35050565b6118853383611fcb565b6118f75760405162461bcd60e51b815260206004820152603160248201527f4552433732313a207472616e736665722063616c6c6572206973206e6f74206f60448201527f776e6572206e6f7220617070726f7665640000000000000000000000000000006064820152608401610a1d565b611903848484846124b2565b50505050565b611911613400565b50604080516080810182526000838152600e60208181528483206001015460ff80821686526101008204811683870152630100000082048116968601969096529590925290526201000090920416606082015290565b6000818152600260205260409020546060906001600160a01b03166119f45760405162461bcd60e51b815260206004820152602f60248201527f4552433732314d657461646174613a2055524920717565727920666f72206e6f60448201527f6e6578697374656e7420746f6b656e00000000000000000000000000000000006064820152608401610a1d565b6000611a0b60408051602081019091526000815290565b90506000815111611a2b5760405180602001604052806000815250611a56565b80611a3584612530565b604051602001611a469291906139c4565b6040516020818303038152906040525b9392505050565b600a546001600160a01b03163314611ab75760405162461bcd60e51b815260206004820181905260248201527f4f776e61626c653a2063616c6c6572206973206e6f7420746865206f776e65726044820152606401610a1d565b6011805462ff0000191662010000831515021790556040517f967dfe5be148516c1fac0713cd546ed343ea749976f802d2630d96fd2ee3477190600090a150565b6002600b541415611b4b5760405162461bcd60e51b815260206004820152601f60248201527f5265656e7472616e637947756172643a207265656e7472616e742063616c6c006044820152606401610a1d565b6002600b55323314611b9f5760405162461bcd60e51b815260206004820152601060248201527f4f6e6c7920454f4120416c6c6f776564000000000000000000000000000000006044820152606401610a1d565b601154610100900460ff16611bf65760405162461bcd60e51b815260206004820152601b60248201527f436f6d6d756e69747920636c61696d206973206e6f74206f70656e00000000006044820152606401610a1d565b336000908152600f602052604090205460ff1615611c565760405162461bcd60e51b815260206004820152600f60248201527f416c726561647920636c61696d656400000000000000000000000000000000006044820152606401610a1d565b8181601054611ccd838380806020026020016040519081016040528093929190818152602001838360200280828437600092019190915250506040516bffffffffffffffffffffffff193360601b166020820152859250603401905060405160208183030381529060405280519060200120612662565b611d195760405162461bcd60e51b815260206004820152601e60248201527f4164647265737320646f6573206e6f7420657869737420696e206c69737400006044820152606401610a1d565b612710611d25600d5490565b10611d5b5760405162461bcd60e51b81526020600482015260066024820152654e6f206d617360d01b6044820152606401610a1d565b611d69600d80546001019055565b336000908152600f60205260409020805460ff19166001179055611d8e610dcd611fa1565b50506001600b55505050565b606060128054610925906138e1565b600a546001600160a01b03163314611e035760405162461bcd60e51b815260206004820181905260248201527f4f776e61626c653a2063616c6c6572206973206e6f7420746865206f776e65726044820152606401610a1d565b6001600160a01b038116611e7f5760405162461bcd60e51b815260206004820152602660248201527f4f776e61626c653a206e6577206f776e657220697320746865207a65726f206160448201527f64647265737300000000000000000000000000000000000000000000000000006064820152608401610a1d565b611e8881612453565b50565b60006001600160e01b031982167f80ac58cd000000000000000000000000000000000000000000000000000000001480611eee57506001600160e01b031982167f5b5e139f00000000000000000000000000000000000000000000000000000000145b8061086c57507f01ffc9a7000000000000000000000000000000000000000000000000000000006001600160e01b031983161461086c565b6000818152600460205260409020805473ffffffffffffffffffffffffffffffffffffffff19166001600160a01b0384169081179091558190611f68826114ef565b6001600160a01b03167f8c5be1e5ebec7d5bd14f71427d1e84f3dd0314c0f7b2291e5b200ac8c7c3b92560405160405180910390a45050565b6000611fb1600d80546001019055565b50600d5490565b611fc23382612711565b611e888161272b565b6000818152600260205260408120546001600160a01b03166120445760405162461bcd60e51b815260206004820152602c60248201527f4552433732313a206f70657261746f7220717565727920666f72206e6f6e657860448201526b34b9ba32b73a103a37b5b2b760a11b6064820152608401610a1d565b600061204f836114ef565b9050806001600160a01b0316846001600160a01b0316148061208a5750836001600160a01b031661207f846109a8565b6001600160a01b0316145b806120ba57506001600160a01b0380821660009081526005602090815260408083209388168352929052205460ff165b949350505050565b826001600160a01b03166120d5826114ef565b6001600160a01b0316146121515760405162461bcd60e51b815260206004820152602960248201527f4552433732313a207472616e73666572206f6620746f6b656e2074686174206960448201527f73206e6f74206f776e00000000000000000000000000000000000000000000006064820152608401610a1d565b6001600160a01b0382166121cc5760405162461bcd60e51b8152602060048201526024808201527f4552433732313a207472616e7366657220746f20746865207a65726f2061646460448201527f72657373000000000000000000000000000000000000000000000000000000006064820152608401610a1d565b6121d7838383612a13565b6121e2600082611f26565b6001600160a01b038316600090815260036020526040812080546001929061220b908490613a09565b90915550506001600160a01b0382166000908152600360205260408120805460019290612239908490613a20565b9091555050600081815260026020526040808220805473ffffffffffffffffffffffffffffffffffffffff19166001600160a01b0386811691821790925591518493918716917fddf252ad1be2c89b69c2b068fc378daa952ba7f163c4a11628f55a4df523b3ef91a4505050565b6000818152600e602052604081208054829182916122c4906138e1565b80601f01602080910402602001604051908101604052809291908181526020018280546122f0906138e1565b801561233d5780601f106123125761010080835404028352916020019161233d565b820191906000526020600020905b81548152906001019060200180831161232057829003601f168201915b50505050509050606060005b60145481101561244557601481815481106123665761236661391c565b90600052602060002001805461237b906138e1565b80601f01602080910402602001604051908101604052809291908181526020018280546123a7906138e1565b80156123f45780601f106123c9576101008083540402835291602001916123f4565b820191906000526020600020905b8154815290600101906020018083116123d757829003601f168201915b505050505091508180519060200120838051906020012014156124335761241c600382613a4e565b612427600383613a62565b94509450505050915091565b8061243d81613a76565b915050612349565b506000958695509350505050565b600a80546001600160a01b0383811673ffffffffffffffffffffffffffffffffffffffff19831681179093556040519116919082907f8be0079c531659141344cd1fd0a4f28419497f9722a3daafe3b4186f6b6457e090600090a35050565b6124bd8484846120c2565b6124c984848484612acb565b6119035760405162461bcd60e51b815260206004820152603260248201527f4552433732313a207472616e7366657220746f206e6f6e20455243373231526560448201527131b2b4bb32b91034b6b83632b6b2b73a32b960711b6064820152608401610a1d565b60608161257057505060408051808201909152600181527f3000000000000000000000000000000000000000000000000000000000000000602082015290565b8160005b811561259a578061258481613a76565b91506125939050600a83613a4e565b9150612574565b60008167ffffffffffffffff8111156125b5576125b56135e5565b6040519080825280601f01601f1916602001820160405280156125df576020820181803683370190505b5090505b84156120ba576125f4600183613a09565b9150612601600a86613a62565b61260c906030613a20565b60f81b8183815181106126215761262161391c565b60200101907effffffffffffffffffffffffffffffffffffffffffffffffffffffffffffff1916908160001a90535061265b600a86613a4e565b94506125e3565b600081815b85518110156127065760008682815181106126845761268461391c565b602002602001015190508083116126c65760408051602081018590529081018290526060016040516020818303038152906040528051906020012092506126f3565b60408051602081018390529081018490526060016040516020818303038152906040528051906020012092505b50806126fe81613a76565b915050612667565b509092149392505050565b6112a5828260405180602001604052806000815250612c14565b601480546040805160208084028201810190925282815260009361280693928390869084015b828210156127fd578382906000526020600020018054612770906138e1565b80601f016020809104026020016040519081016040528092919081815260200182805461279c906138e1565b80156127e95780601f106127be576101008083540402835291602001916127e9565b820191906000526020600020905b8154815290600101906020018083116127cc57829003601f168201915b505050505081526020019060010190612751565b50505050612c92565b9050600061281383612cd8565b905060006040518061010001604052808481526020018360006004811061283c5761283c61391c565b602002015160ff1681526020018360016004811061285c5761285c61391c565b602002015160ff1681526020018360026004811061287c5761287c61391c565b602002015160ff1681526020018360036004811061289c5761289c61391c565b6020908102919091015160ff168252600082820181905260408084018290526060909301819052878152600e82529190912082518051939450849391926128e8928492909101906132e9565b50602082015160018201805460408501516060860151608087015160a088015160c08901516001600160a01b03166601000000000000027fffffffffffff0000000000000000000000000000000000000000ffffffffffff61ffff90921664010000000002919091167fffffffffffff00000000000000000000000000000000000000000000ffffffff60ff93841663010000000263ff0000001995851662010000029590951663ffff0000199685166101000261ffff19909816949099169390931795909517939093169590951717939093161791909117905560e09091015160029091015560006129da85612e89565b6000958652600e6020526040909520600101805461ffff9096166401000000000265ffff00000000199096169590951790945550505050565b6001600160a01b038316612a6e57612a6981600880546000838152600960205260408120829055600182018355919091527ff3f7a9fe364faab93b216da50a3214154f22a0a2b415b23a84c8169e8b636ee30155565b612a91565b816001600160a01b0316836001600160a01b031614612a9157612a918382612f92565b6001600160a01b038216612aa857610b6f8161302f565b826001600160a01b0316826001600160a01b031614610b6f57610b6f82826130de565b60006001600160a01b0384163b15612c0957604051630a85bd0160e11b81526001600160a01b0385169063150b7a0290612b0f903390899088908890600401613a91565b6020604051808303816000875af1925050508015612b4a575060408051601f3d908101601f19168201909252612b4791810190613ac3565b60015b612bef573d808015612b78576040519150601f19603f3d011682016040523d82523d6000602084013e612b7d565b606091505b508051612be75760405162461bcd60e51b815260206004820152603260248201527f4552433732313a207472616e7366657220746f206e6f6e20455243373231526560448201527131b2b4bb32b91034b6b83632b6b2b73a32b960711b6064820152608401610a1d565b805181602001fd5b6001600160e01b031916630a85bd0160e11b1490506120ba565b506001949350505050565b612c1e8383613122565b612c2b6000848484612acb565b610b6f5760405162461bcd60e51b815260206004820152603260248201527f4552433732313a207472616e7366657220746f206e6f6e20455243373231526560448201527131b2b4bb32b91034b6b83632b6b2b73a32b960711b6064820152608401610a1d565b60606000612ca184600061327d565b9050600083845183612cb39190613a62565b81518110612cc357612cc361391c565b60200260200101519050809250505092915050565b612ce0613400565b6005600c6000612cf08383613a09565b612cfb906001613a20565b90506000612d1382612d0e886001613a20565b61327d565b612d1d9085613a20565b90506000612d3083612d0e896002613a20565b612d3a9086613a20565b90506000612d4d84612d0e8a6003613a20565b612d579087613a20565b90506000612d6a85612d0e8b6004613a20565b612d749088613a20565b6040805160808101825260ff8088168252868116602083015285811692820192909252908216606082015290915060005b6004811015612e7b576000612dbb826004613a09565b60408051426020820152016040516020818303038152906040528051906020012060001c612de99190613a62565b612df39083613a20565b90506000838260048110612e0957612e0961391c565b60200201519050838360048110612e2257612e2261391c565b6020020151848360048110612e3957612e3961391c565b60ff909216602092909202015280848460048110612e5957612e5961391c565b60ff909216602092909202015250819050612e7381613a76565b915050612da5565b509998505050505050505050565b600080612e95836122a7565b5090506000808260011415612eb0575060079050600c612eb8565b506004905060085b6000612ec7620100008761327d565b600c546000888152600e60205260408082206001015490517f3966f40000000000000000000000000000000000000000000000000000000000815261ffff80891660048301528088166024830152640100000000909204821660448201529084166064820152929350916001600160a01b0390911690633966f40090608401602060405180830381865afa158015612f63573d6000803e3d6000fd5b505050506040513d601f19601f82011682018060405250810190612f879190613ae0565b979650505050505050565b60006001612f9f8461157a565b612fa99190613a09565b600083815260076020526040902054909150808214612ffc576001600160a01b03841660009081526006602090815260408083208584528252808320548484528184208190558352600790915290208190555b5060009182526007602090815260408084208490556001600160a01b039094168352600681528383209183525290812055565b60085460009061304190600190613a09565b600083815260096020526040812054600880549394509092849081106130695761306961391c565b90600052602060002001549050806008838154811061308a5761308a61391c565b60009182526020808320909101929092558281526009909152604080822084905585825281205560088054806130c2576130c2613b04565b6001900381819060005260206000200160009055905550505050565b60006130e98361157a565b6001600160a01b039093166000908152600660209081526040808320868452825280832085905593825260079052919091209190915550565b6001600160a01b0382166131785760405162461bcd60e51b815260206004820181905260248201527f4552433732313a206d696e7420746f20746865207a65726f20616464726573736044820152606401610a1d565b6000818152600260205260409020546001600160a01b0316156131dd5760405162461bcd60e51b815260206004820152601c60248201527f4552433732313a20746f6b656e20616c7265616479206d696e746564000000006044820152606401610a1d565b6131e960008383612a13565b6001600160a01b0382166000908152600360205260408120805460019290613212908490613a20565b9091555050600081815260026020526040808220805473ffffffffffffffffffffffffffffffffffffffff19166001600160a01b03861690811790915590518392907fddf252ad1be2c89b69c2b068fc378daa952ba7f163c4a11628f55a4df523b3ef908290a45050565b60008061328b600143613a09565b6040805191406020830152429082015233606090811b6bffffffffffffffffffffffff191690820152607481018590526094810184905260b40160408051601f19818403018152919052805160209091012090506120ba8482613a62565b8280546132f5906138e1565b90600052602060002090601f016020900481019282613317576000855561335d565b82601f1061333057805160ff191683800117855561335d565b8280016001018555821561335d579182015b8281111561335d578251825591602001919060010190613342565b5061336992915061341e565b5090565b6040518061040001604052806020906020820280368337509192915050565b828054613398906138e1565b90600052602060002090601f0160209004810192826133ba576000855561335d565b82601f106133d35782800160ff1982351617855561335d565b8280016001018555821561335d579182015b8281111561335d5782358255916020019190600101906133e5565b60405180608001604052806004906020820280368337509192915050565b5b80821115613369576000815560010161341f565b6001600160e01b031981168114611e8857600080fd5b60006020828403121561345b57600080fd5b8135611a5681613433565b60006020828403121561347857600080fd5b5035919050565b60005b8381101561349a578181015183820152602001613482565b838111156119035750506000910152565b600081518084526134c381602086016020860161347f565b601f01601f19169290920160200192915050565b602081526000611a5660208301846134ab565b80356001600160a01b038116811461350157600080fd5b919050565b6000806040838503121561351957600080fd5b613522836134ea565b946020939093013593505050565b6000806040838503121561354357600080fd5b50508035926020909101359150565b8035801515811461350157600080fd5b60006020828403121561357457600080fd5b611a5682613552565b60008060006060848603121561359257600080fd5b61359b846134ea565b92506135a9602085016134ea565b9150604084013590509250925092565b600080604083850312156135cc57600080fd5b823591506135dc602084016134ea565b90509250929050565b634e487b7160e01b600052604160045260246000fd5b600067ffffffffffffffff80841115613616576136166135e5565b604051601f8501601f19908116603f0116810190828211818310171561363e5761363e6135e5565b8160405280935085815286868601111561365757600080fd5b858560208301376000602087830101525050509392505050565b60006020828403121561368357600080fd5b813567ffffffffffffffff81111561369a57600080fd5b8201601f810184136136ab57600080fd5b6120ba848235602084016135fb565b6104008101818360005b60208082106136d357506136ed565b825163ffffffff16845292830192909101906001016136c4565b50505092915050565b60006020828403121561370857600080fd5b611a56826134ea565b6000806020838503121561372457600080fd5b823567ffffffffffffffff8082111561373c57600080fd5b818501915085601f83011261375057600080fd5b81358181111561375f57600080fd5b86602082850101111561377157600080fd5b60209290920196919550909350505050565b6000806040838503121561379657600080fd5b61379f836134ea565b91506135dc60208401613552565b600080600080608085870312156137c357600080fd5b6137cc856134ea565b93506137da602086016134ea565b925060408501359150606085013567ffffffffffffffff8111156137fd57600080fd5b8501601f8101871361380e57600080fd5b61381d878235602084016135fb565b91505092959194509250565b60808101818360005b60048110156136ed57815160ff16835260209283019290910190600101613832565b6000806020838503121561386757600080fd5b823567ffffffffffffffff8082111561387f57600080fd5b818501915085601f83011261389357600080fd5b8135818111156138a257600080fd5b8660208260051b850101111561377157600080fd5b600080604083850312156138ca57600080fd5b6138d3836134ea565b91506135dc602084016134ea565b600181811c908216806138f557607f821691505b6020821081141561391657634e487b7160e01b600052602260045260246000fd5b50919050565b634e487b7160e01b600052603260045260246000fd5b600061040080838503121561394657600080fd5b83601f84011261395557600080fd5b60405181810181811067ffffffffffffffff82111715613977576139776135e5565b60405290830190808583111561398c57600080fd5b845b838110156139b957805163ffffffff811681146139ab5760008081fd5b82526020918201910161398e565b509095945050505050565b600083516139d681846020880161347f565b8351908301906139ea81836020880161347f565b01949350505050565b634e487b7160e01b600052601160045260246000fd5b600082821015613a1b57613a1b6139f3565b500390565b60008219821115613a3357613a336139f3565b500190565b634e487b7160e01b600052601260045260246000fd5b600082613a5d57613a5d613a38565b500490565b600082613a7157613a71613a38565b500690565b6000600019821415613a8a57613a8a6139f3565b5060010190565b60006001600160a01b038087168352808616602084015250836040830152608060608301526114e560808301846134ab565b600060208284031215613ad557600080fd5b8151611a5681613433565b600060208284031215613af257600080fd5b815161ffff81168114611a5657600080fd5b634e487b7160e01b600052603160045260246000fdfea264697066735822122014f088c5a2ffab00e91718ef2f6fc30dcbef9fe2bcbcb0ca238807f0417f5cb964736f6c634300080a003368747470733a2f2f6170692e636f696e6c616e6465722e6f6e652f6d6574612f636974697a656e7368747470733a2f2f6170692e636f696e6c616e6465722e6f6e652f6d6574612f636974697a656e732f",
  "linkReferences": {},
  "deployedLinkReferences": {}
}