{
  "_format": "hh-sol-artifact-1",
  "contractName": "Citizens",
  "sourceName": "contracts/Citizens.sol",
  "abi": [
    {
      "inputs": [
        {
          "internalType": "address",
          "name": "CloakLibAddr",
          "type": "address"
        }
      ],
      "stateMutability": "nonpayable",
      "type": "constructor"
    },
    {
      "anonymous": false,
      "inputs": [
        {
          "indexed": true,
          "internalType": "address",
          "name": "owner",
          "type": "address"
        },
        {
          "indexed": true,
          "internalType": "address",
          "name": "approved",
          "type": "address"
        },
        {
          "indexed": true,
          "internalType": "uint256",
          "name": "tokenId",
          "type": "uint256"
        }
      ],
      "name": "Approval",
      "type": "event"
    },
    {
      "anonymous": false,
      "inputs": [
        {
          "indexed": true,
          "internalType": "address",
          "name": "owner",
          "type": "address"
        },
        {
          "indexed": true,
          "internalType": "address",
          "name": "operator",
          "type": "address"
        },
        {
          "indexed": false,
          "internalType": "bool",
          "name": "approved",
          "type": "bool"
        }
      ],
      "name": "ApprovalForAll",
      "type": "event"
    },
    {
      "anonymous": false,
      "inputs": [
        {
          "indexed": false,
          "internalType": "uint256",
          "name": "id",
          "type": "uint256"
        },
        {
          "indexed": false,
          "internalType": "address",
          "name": "clanAddr",
          "type": "address"
        }
      ],
      "name": "CitizenDeclaredToClan",
      "type": "event"
    },
    {
      "anonymous": false,
      "inputs": [
        {
          "indexed": true,
          "internalType": "address",
          "name": "previousOwner",
          "type": "address"
        },
        {
          "indexed": true,
          "internalType": "address",
          "name": "newOwner",
          "type": "address"
        }
      ],
      "name": "OwnershipTransferred",
      "type": "event"
    },
    {
      "anonymous": false,
      "inputs": [
        {
          "indexed": true,
          "internalType": "address",
          "name": "from",
          "type": "address"
        },
        {
          "indexed": true,
          "internalType": "address",
          "name": "to",
          "type": "address"
        },
        {
          "indexed": true,
          "internalType": "uint256",
          "name": "tokenId",
          "type": "uint256"
        }
      ],
      "name": "Transfer",
      "type": "event"
    },
    {
      "anonymous": false,
      "inputs": [],
      "name": "adminChange",
      "type": "event"
    },
    {
      "anonymous": false,
      "inputs": [
        {
          "indexed": false,
          "internalType": "uint256",
          "name": "id",
          "type": "uint256"
        },
        {
          "indexed": false,
          "internalType": "bytes32",
          "name": "cod",
          "type": "bytes32"
        }
      ],
      "name": "causeOfDeathSet",
      "type": "event"
    },
    {
      "inputs": [],
      "name": "WLMerkleRoot",
      "outputs": [
        {
          "internalType": "bytes32",
          "name": "",
          "type": "bytes32"
        }
      ],
      "stateMutability": "view",
      "type": "function"
    },
    {
      "inputs": [
        {
          "internalType": "address",
          "name": "to",
          "type": "address"
        },
        {
          "internalType": "uint256",
          "name": "tokenId",
          "type": "uint256"
        }
      ],
      "name": "approve",
      "outputs": [],
      "stateMutability": "nonpayable",
      "type": "function"
    },
    {
      "inputs": [
        {
          "internalType": "address",
          "name": "owner",
          "type": "address"
        }
      ],
      "name": "balanceOf",
      "outputs": [
        {
          "internalType": "uint256",
          "name": "",
          "type": "uint256"
        }
      ],
      "stateMutability": "view",
      "type": "function"
    },
    {
      "inputs": [],
      "name": "contractURI",
      "outputs": [
        {
          "internalType": "string",
          "name": "",
          "type": "string"
        }
      ],
      "stateMutability": "view",
      "type": "function"
    },
    {
      "inputs": [
        {
          "internalType": "uint256",
          "name": "id",
          "type": "uint256"
        },
        {
          "internalType": "address",
          "name": "clanAddress",
          "type": "address"
        }
      ],
      "name": "declareForClan",
      "outputs": [],
      "stateMutability": "nonpayable",
      "type": "function"
    },
    {
      "inputs": [
        {
          "internalType": "uint256",
          "name": "id",
          "type": "uint256"
        }
      ],
      "name": "getAlignmentById",
      "outputs": [
        {
          "internalType": "string",
          "name": "",
          "type": "string"
        }
      ],
      "stateMutability": "view",
      "type": "function"
    },
    {
      "inputs": [
        {
          "internalType": "uint256",
          "name": "id",
          "type": "uint256"
        }
      ],
      "name": "getApById",
      "outputs": [
        {
          "internalType": "uint8[4]",
          "name": "",
          "type": "uint8[4]"
        }
      ],
      "stateMutability": "view",
      "type": "function"
    },
    {
      "inputs": [
        {
          "internalType": "uint256",
          "name": "tokenId",
          "type": "uint256"
        }
      ],
      "name": "getApproved",
      "outputs": [
        {
          "internalType": "address",
          "name": "",
          "type": "address"
        }
      ],
      "stateMutability": "view",
      "type": "function"
    },
    {
      "inputs": [
        {
          "internalType": "uint256",
          "name": "id",
          "type": "uint256"
        }
      ],
      "name": "getClanById",
      "outputs": [
        {
          "internalType": "address",
          "name": "",
          "type": "address"
        }
      ],
      "stateMutability": "view",
      "type": "function"
    },
    {
      "inputs": [
        {
          "internalType": "uint256",
          "name": "id",
          "type": "uint256"
        }
      ],
      "name": "getFullBytes",
      "outputs": [
        {
          "internalType": "uint32[32]",
          "name": "",
          "type": "uint32[32]"
        }
      ],
      "stateMutability": "view",
      "type": "function"
    },
    {
      "inputs": [
        {
          "internalType": "uint256",
          "name": "id",
          "type": "uint256"
        }
      ],
      "name": "getSeedById",
      "outputs": [
        {
          "internalType": "uint16",
          "name": "",
          "type": "uint16"
        }
      ],
      "stateMutability": "view",
      "type": "function"
    },
    {
      "inputs": [
        {
          "internalType": "address",
          "name": "owner",
          "type": "address"
        },
        {
          "internalType": "address",
          "name": "operator",
          "type": "address"
        }
      ],
      "name": "isApprovedForAll",
      "outputs": [
        {
          "internalType": "bool",
          "name": "",
          "type": "bool"
        }
      ],
      "stateMutability": "view",
      "type": "function"
    },
    {
      "inputs": [],
      "name": "isCauseOfDeathSetActive",
      "outputs": [
        {
          "internalType": "bool",
          "name": "",
          "type": "bool"
        }
      ],
      "stateMutability": "view",
      "type": "function"
    },
    {
      "inputs": [],
      "name": "isCommunityClaimActive",
      "outputs": [
        {
          "internalType": "bool",
          "name": "",
          "type": "bool"
        }
      ],
      "stateMutability": "view",
      "type": "function"
    },
    {
      "inputs": [],
      "name": "isPublicClaimActive",
      "outputs": [
        {
          "internalType": "bool",
          "name": "",
          "type": "bool"
        }
      ],
      "stateMutability": "view",
      "type": "function"
    },
    {
      "inputs": [],
      "name": "name",
      "outputs": [
        {
          "internalType": "string",
          "name": "",
          "type": "string"
        }
      ],
      "stateMutability": "view",
      "type": "function"
    },
    {
      "inputs": [],
      "name": "owner",
      "outputs": [
        {
          "internalType": "address",
          "name": "",
          "type": "address"
        }
      ],
      "stateMutability": "view",
      "type": "function"
    },
    {
      "inputs": [
        {
          "internalType": "uint256",
          "name": "tokenId",
          "type": "uint256"
        }
      ],
      "name": "ownerOf",
      "outputs": [
        {
          "internalType": "address",
          "name": "",
          "type": "address"
        }
      ],
      "stateMutability": "view",
      "type": "function"
    },
    {
      "inputs": [],
      "name": "ownerWithdraw",
      "outputs": [],
      "stateMutability": "payable",
      "type": "function"
    },
    {
      "inputs": [],
      "name": "publicClaim",
      "outputs": [],
      "stateMutability": "nonpayable",
      "type": "function"
    },
    {
      "inputs": [],
      "name": "renounceOwnership",
      "outputs": [],
      "stateMutability": "nonpayable",
      "type": "function"
    },
    {
      "inputs": [
        {
          "internalType": "address",
          "name": "from",
          "type": "address"
        },
        {
          "internalType": "address",
          "name": "to",
          "type": "address"
        },
        {
          "internalType": "uint256",
          "name": "tokenId",
          "type": "uint256"
        }
      ],
      "name": "safeTransferFrom",
      "outputs": [],
      "stateMutability": "nonpayable",
      "type": "function"
    },
    {
      "inputs": [
        {
          "internalType": "address",
          "name": "from",
          "type": "address"
        },
        {
          "internalType": "address",
          "name": "to",
          "type": "address"
        },
        {
          "internalType": "uint256",
          "name": "tokenId",
          "type": "uint256"
        },
        {
          "internalType": "bytes",
          "name": "data",
          "type": "bytes"
        }
      ],
      "name": "safeTransferFrom",
      "outputs": [],
      "stateMutability": "nonpayable",
      "type": "function"
    },
    {
      "inputs": [
        {
          "internalType": "address",
          "name": "operator",
          "type": "address"
        },
        {
          "internalType": "bool",
          "name": "approved",
          "type": "bool"
        }
      ],
      "name": "setApprovalForAll",
      "outputs": [],
      "stateMutability": "nonpayable",
      "type": "function"
    },
    {
      "inputs": [
        {
          "internalType": "string",
          "name": "baseTokenURI",
          "type": "string"
        }
      ],
      "name": "setBaseURI",
      "outputs": [],
      "stateMutability": "nonpayable",
      "type": "function"
    },
    {
      "inputs": [
        {
          "internalType": "uint256",
          "name": "id",
          "type": "uint256"
        },
        {
          "internalType": "bytes32",
          "name": "_cod",
          "type": "bytes32"
        }
      ],
      "name": "setCauseOfDeath",
      "outputs": [],
      "stateMutability": "nonpayable",
      "type": "function"
    },
    {
      "inputs": [
        {
          "internalType": "bool",
          "name": "_isCauseOfDeathSetActive",
          "type": "bool"
        }
      ],
      "name": "setCauseOfDeathActive",
      "outputs": [],
      "stateMutability": "nonpayable",
      "type": "function"
    },
    {
      "inputs": [
        {
          "internalType": "string",
          "name": "newContractURI",
          "type": "string"
        }
      ],
      "name": "setContractURI",
      "outputs": [],
      "stateMutability": "nonpayable",
      "type": "function"
    },
    {
      "inputs": [
        {
          "internalType": "bool",
          "name": "_isCommunityClaimActive",
          "type": "bool"
        }
      ],
      "name": "setIsCommunityClaimActive",
      "outputs": [],
      "stateMutability": "nonpayable",
      "type": "function"
    },
    {
      "inputs": [
        {
          "internalType": "bool",
          "name": "_isPublicClaimActive",
          "type": "bool"
        }
      ],
      "name": "setIsPublicClaimActive",
      "outputs": [],
      "stateMutability": "nonpayable",
      "type": "function"
    },
    {
      "inputs": [
        {
          "internalType": "bytes32",
          "name": "merkleRoot",
          "type": "bytes32"
        }
      ],
      "name": "setListMerkleRoot",
      "outputs": [],
      "stateMutability": "nonpayable",
      "type": "function"
    },
    {
      "inputs": [
        {
          "internalType": "bytes4",
          "name": "interfaceId",
          "type": "bytes4"
        }
      ],
      "name": "supportsInterface",
      "outputs": [
        {
          "internalType": "bool",
          "name": "",
          "type": "bool"
        }
      ],
      "stateMutability": "view",
      "type": "function"
    },
    {
      "inputs": [],
      "name": "symbol",
      "outputs": [
        {
          "internalType": "string",
          "name": "",
          "type": "string"
        }
      ],
      "stateMutability": "view",
      "type": "function"
    },
    {
      "inputs": [
        {
          "internalType": "uint256",
          "name": "index",
          "type": "uint256"
        }
      ],
      "name": "tokenByIndex",
      "outputs": [
        {
          "internalType": "uint256",
          "name": "",
          "type": "uint256"
        }
      ],
      "stateMutability": "view",
      "type": "function"
    },
    {
      "inputs": [
        {
          "internalType": "address",
          "name": "owner",
          "type": "address"
        },
        {
          "internalType": "uint256",
          "name": "index",
          "type": "uint256"
        }
      ],
      "name": "tokenOfOwnerByIndex",
      "outputs": [
        {
          "internalType": "uint256",
          "name": "",
          "type": "uint256"
        }
      ],
      "stateMutability": "view",
      "type": "function"
    },
    {
      "inputs": [
        {
          "internalType": "uint256",
          "name": "tokenId",
          "type": "uint256"
        }
      ],
      "name": "tokenURI",
      "outputs": [
        {
          "internalType": "string",
          "name": "",
          "type": "string"
        }
      ],
      "stateMutability": "view",
      "type": "function"
    },
    {
      "inputs": [],
      "name": "totalSupply",
      "outputs": [
        {
          "internalType": "uint256",
          "name": "",
          "type": "uint256"
        }
      ],
      "stateMutability": "view",
      "type": "function"
    },
    {
      "inputs": [
        {
          "internalType": "address",
          "name": "from",
          "type": "address"
        },
        {
          "internalType": "address",
          "name": "to",
          "type": "address"
        },
        {
          "internalType": "uint256",
          "name": "tokenId",
          "type": "uint256"
        }
      ],
      "name": "transferFrom",
      "outputs": [],
      "stateMutability": "nonpayable",
      "type": "function"
    },
    {
      "inputs": [
        {
          "internalType": "address",
          "name": "newOwner",
          "type": "address"
        }
      ],
      "name": "transferOwnership",
      "outputs": [],
      "stateMutability": "nonpayable",
      "type": "function"
    },
    {
      "inputs": [
        {
          "internalType": "bytes32[]",
          "name": "merkleProof",
          "type": "bytes32[]"
        }
      ],
      "name": "wlClaim",
      "outputs": [],
      "stateMutability": "nonpayable",
      "type": "function"
    }
  ],
  "bytecode": "0x60e0604052602860808181529062003c8760a039805162000029916012916020909101906200030c565b5060405180606001604052806029815260200162003caf6029913980516200005a916013916020909101906200030c565b506040805161016081018252600b61012082018181526a13185dd99d5b0811dbdbd960aa1b610140840152825282518084018452600c8082526b13995d5d1c985b0811dbdbd960a21b60208381019190915280850192909252845180860186528181526b10da185bdd1a58c811dbdbd960a21b818401528486015284518086018652600e81526d13185dd99d5b0813995d5d1c985b60921b818401526060850152845180860186528181526b151c9d594813995d5d1c985b60a21b81840152608085015284518086018652600f81526e10da185bdd1a58c813995d5d1c985b608a1b8184015260a0850152845180860186529283526a13185dd99d5b08115d9a5b60aa1b8383015260c0840192909252835180850185528281526b13995d5d1c985b08115d9a5b60a21b8183015260e084015283518085019094529083526b10da185bdd1a58c8115d9a5b60a21b90830152610100810191909152620001c59060149060096200039b565b50348015620001d357600080fd5b5060405162003cd838038062003cd8833981016040819052620001f69162000475565b604080518082018252601481527f436f696e6c616e6465723a20436974697a656e7300000000000000000000000060208083019182528351808501909452600584526421aa2d22a760d91b90840152815191929162000258916000916200030c565b5080516200026e9060019060208401906200030c565b5050506200028b62000285620002b660201b60201c565b620002ba565b6001600b55600c80546001600160a01b0319166001600160a01b0392909216919091179055620004e4565b3390565b600a80546001600160a01b038381166001600160a01b0319831681179093556040519116919082907f8be0079c531659141344cd1fd0a4f28419497f9722a3daafe3b4186f6b6457e090600090a35050565b8280546200031a90620004a7565b90600052602060002090601f0160209004810192826200033e576000855562000389565b82601f106200035957805160ff191683800117855562000389565b8280016001018555821562000389579182015b82811115620003895782518255916020019190600101906200036c565b5062000397929150620003fb565b5090565b828054828255906000526020600020908101928215620003ed579160200282015b82811115620003ed5782518051620003dc9184916020909101906200030c565b5091602001919060010190620003bc565b506200039792915062000412565b5b80821115620003975760008155600101620003fc565b808211156200039757600062000429828262000433565b5060010162000412565b5080546200044190620004a7565b6000825580601f1062000452575050565b601f016020900490600052602060002090810190620004729190620003fb565b50565b6000602082840312156200048857600080fd5b81516001600160a01b0381168114620004a057600080fd5b9392505050565b600181811c90821680620004bc57607f821691505b60208210811415620004de57634e487b7160e01b600052602260045260246000fd5b50919050565b61379380620004f46000396000f3fe6080604052600436106102bb5760003560e01c8063638d1a581161016e578063aea48328116100cb578063d80a88ba1161007f578063e8a3d48511610064578063e8a3d485146107b0578063e985e9c5146107c5578063f2fde38b1461080e57600080fd5b8063d80a88ba1461074d578063e84f57981461076d57600080fd5b8063c5f5e3d1116100b0578063c5f5e3d1146106e0578063c87b56dd1461070d578063c8d1ca651461072d57600080fd5b8063aea48328146106aa578063b88d4fde146106c057600080fd5b80637b8d981f11610122578063938e3d7b11610107578063938e3d7b1461065557806395d89b4114610675578063a22cb4651461068a57600080fd5b80637b8d981f146106175780638da5cb5b1461063757600080fd5b806370a082311161015357806370a08231146105c8578063715018a6146105e857806379ff96ec146105fd57600080fd5b8063638d1a5814610559578063672286591461057957600080fd5b80631e444b8f1161021c5780634311de8f116101d057806355f804b3116101b557806355f804b3146104ec5780635d805e701461050c5780636352211e1461053957600080fd5b80634311de8f146104c45780634f6ccce7146104cc57600080fd5b80632f745c59116102015780632f745c591461046457806336842eae1461048457806342842e0e146104a457600080fd5b80631e444b8f1461042457806323b872dd1461044457600080fd5b80630b446c421161027357806318160ddd1161025857806318160ddd146103d05780631b415239146103ef5780631bfef1cb1461040457600080fd5b80630b446c421461039157806311b92445146103b157600080fd5b806306fdde03116102a457806306fdde0314610322578063081812fc14610337578063095ea7b31461036f57600080fd5b806301ffc9a7146102c05780630278c1ba146102f5575b600080fd5b3480156102cc57600080fd5b506102e06102db36600461308c565b61082e565b60405190151581526020015b60405180910390f35b34801561030157600080fd5b506103156103103660046130a9565b610872565b6040516102ec919061311a565b34801561032e57600080fd5b50610315610916565b34801561034357600080fd5b506103576103523660046130a9565b6109a8565b6040516001600160a01b0390911681526020016102ec565b34801561037b57600080fd5b5061038f61038a366004613149565b6109cf565b005b34801561039d57600080fd5b5061038f6103ac3660046130a9565b610b06565b3480156103bd57600080fd5b506011546102e090610100900460ff1681565b3480156103dc57600080fd5b506008545b6040519081526020016102ec565b3480156103fb57600080fd5b5061038f610b3f565b34801561041057600080fd5b5061038f61041f366004613173565b610d19565b34801561043057600080fd5b5061038f61043f3660046131a5565b610e8e565b34801561045057600080fd5b5061038f61045f3660046131c0565b610ed0565b34801561047057600080fd5b506103e161047f366004613149565b610f57565b34801561049057600080fd5b5061038f61049f3660046131fc565b610fff565b3480156104b057600080fd5b5061038f6104bf3660046131c0565b6110ef565b61038f61110a565b3480156104d857600080fd5b506103e16104e73660046130a9565b611145565b3480156104f857600080fd5b5061038f6105073660046132b4565b6111e9565b34801561051857600080fd5b5061052c6105273660046130a9565b611231565b6040516102ec91906132fd565b34801561054557600080fd5b506103576105543660046130a9565b611339565b34801561056557600080fd5b506011546102e09062010000900460ff1681565b34801561058557600080fd5b506105b56105943660046130a9565b6000908152600e6020526040902060010154640100000000900461ffff1690565b60405161ffff90911681526020016102ec565b3480156105d457600080fd5b506103e16105e3366004613339565b61139e565b3480156105f457600080fd5b5061038f611438565b34801561060957600080fd5b506011546102e09060ff1681565b34801561062357600080fd5b5061038f6106323660046131a5565b61144c565b34801561064357600080fd5b50600a546001600160a01b0316610357565b34801561066157600080fd5b5061038f610670366004613354565b611493565b34801561068157600080fd5b506103156114d5565b34801561069657600080fd5b5061038f6106a53660046133c6565b6114e4565b3480156106b657600080fd5b506103e160105481565b3480156106cc57600080fd5b5061038f6106db3660046133f0565b6114ef565b3480156106ec57600080fd5b506107006106fb3660046130a9565b61157d565b6040516102ec919061346c565b34801561071957600080fd5b506103156107283660046130a9565b6115db565b34801561073957600080fd5b5061038f6107483660046131a5565b61164f565b34801561075957600080fd5b5061038f610768366004613497565b611698565b34801561077957600080fd5b506103576107883660046130a9565b6000908152600e6020526040902060010154660100000000000090046001600160a01b031690565b3480156107bc57600080fd5b5061031561193a565b3480156107d157600080fd5b506102e06107e03660046134fa565b6001600160a01b03918216600090815260056020908152604080832093909416825291909152205460ff1690565b34801561081a57600080fd5b5061038f610829366004613339565b611949565b60006001600160e01b031982167f780e9d6300000000000000000000000000000000000000000000000000000000148061086c575061086c826119d9565b92915050565b6000818152600e602052604081208054606092919061089090613524565b80601f01602080910402602001604051908101604052809291908181526020018280546108bc90613524565b80156109095780601f106108de57610100808354040283529160200191610909565b820191906000526020600020905b8154815290600101906020018083116108ec57829003601f168201915b5093979650505050505050565b60606000805461092590613524565b80601f016020809104026020016040519081016040528092919081815260200182805461095190613524565b801561099e5780601f106109735761010080835404028352916020019161099e565b820191906000526020600020905b81548152906001019060200180831161098157829003601f168201915b5050505050905090565b60006109b382611a74565b506000908152600460205260409020546001600160a01b031690565b60006109da82611339565b9050806001600160a01b0316836001600160a01b03161415610a695760405162461bcd60e51b815260206004820152602160248201527f4552433732313a20617070726f76616c20746f2063757272656e74206f776e6560448201527f720000000000000000000000000000000000000000000000000000000000000060648201526084015b60405180910390fd5b336001600160a01b0382161480610a855750610a8581336107e0565b610af75760405162461bcd60e51b815260206004820152603e60248201527f4552433732313a20617070726f76652063616c6c6572206973206e6f7420746f60448201527f6b656e206f776e6572206e6f7220617070726f76656420666f7220616c6c00006064820152608401610a60565b610b018383611ad8565b505050565b610b0e611b53565b60108190556040517f967dfe5be148516c1fac0713cd546ed343ea749976f802d2630d96fd2ee3477190600090a150565b6002600b541415610b925760405162461bcd60e51b815260206004820152601f60248201527f5265656e7472616e637947756172643a207265656e7472616e742063616c6c006044820152606401610a60565b6002600b55323314610be65760405162461bcd60e51b815260206004820152601060248201527f4f6e6c7920454f4120416c6c6f776564000000000000000000000000000000006044820152606401610a60565b60115460ff16610c385760405162461bcd60e51b815260206004820152601860248201527f5075626c696320636c61696d206973206e6f74206f70656e00000000000000006044820152606401610a60565b336000908152600f602052604090205460ff1615610c985760405162461bcd60e51b815260206004820152600f60248201527f416c726561647920636c61696d656400000000000000000000000000000000006044820152606401610a60565b612710610ca4600d5490565b10610cda5760405162461bcd60e51b81526020600482015260066024820152654e6f206d617360d01b6044820152606401610a60565b610ce8600d80546001019055565b336000908152600f60205260409020805460ff19166001179055610d12610d0d611bad565b611bc4565b6001600b55565b81610d2381611339565b6001600160a01b0316336001600160a01b031614610d835760405162461bcd60e51b815260206004820152601460248201527f4d757374206265206f776e657220746f207365740000000000000000000000006044820152606401610a60565b60115462010000900460ff16610ddb5760405162461bcd60e51b815260206004820152601560248201527f4e6f206c6f6e6765722061626c6520746f2073657400000000000000000000006044820152606401610a60565b6000838152600e602052604090206002015415610e3a5760405162461bcd60e51b815260206004820152601a60248201527f4361757365206f6620646561746820616c7265616479207365740000000000006044820152606401610a60565b6000838152600e602090815260409182902060020184905581518581529081018490527fb116f7e723895755283edbed7ca452d1fac1add300843fde414bd2b73452ee0591015b60405180910390a1505050565b610e96611b53565b6011805460ff19168215151790556040517f967dfe5be148516c1fac0713cd546ed343ea749976f802d2630d96fd2ee3477190600090a150565b610eda3382611bd7565b610f4c5760405162461bcd60e51b815260206004820152602e60248201527f4552433732313a2063616c6c6572206973206e6f7420746f6b656e206f776e6560448201527f72206e6f7220617070726f7665640000000000000000000000000000000000006064820152608401610a60565b610b01838383611c56565b6000610f628361139e565b8210610fd65760405162461bcd60e51b815260206004820152602b60248201527f455243373231456e756d657261626c653a206f776e657220696e646578206f7560448201527f74206f6620626f756e64730000000000000000000000000000000000000000006064820152608401610a60565b506001600160a01b03919091166000908152600660209081526040808320938352929052205490565b8161100981611339565b6001600160a01b0316336001600160a01b0316146110695760405162461bcd60e51b815260206004820152601460248201527f4d757374206265206f776e657220746f207365740000000000000000000000006044820152606401610a60565b6000838152600e602090815260409182902060010180547fffffffffffff0000000000000000000000000000000000000000ffffffffffff1666010000000000006001600160a01b038716908102919091179091558251868152918201527f0940219710936351cab75abf7eb604594af8db91fe6fd098885248ceb33cd0da9101610e81565b610b01838383604051806020016040528060008152506114ef565b611112611b53565b6040514790339082156108fc029083906000818181858888f19350505050158015611141573d6000803e3d6000fd5b5050565b600061115060085490565b82106111c45760405162461bcd60e51b815260206004820152602c60248201527f455243373231456e756d657261626c653a20676c6f62616c20696e646578206f60448201527f7574206f6620626f756e647300000000000000000000000000000000000000006064820152608401610a60565b600882815481106111d7576111d761355f565b90600052602060002001549050919050565b6111f1611b53565b8051611204906013906020840190612f2c565b506040517f967dfe5be148516c1fac0713cd546ed343ea749976f802d2630d96fd2ee3477190600090a150565b611239612fb0565b6000828152600e6020526040812060010154640100000000900461ffff169061126184611e3b565b915050600080826000141561127857506000905060105b826001141561128d5750601090506020611295565b506020905060605b600c546040517f31f7bb7400000000000000000000000000000000000000000000000000000000815261ffff80851660048301528084166024830152861660448201526001600160a01b03909116906331f7bb749060640161040060405180830381865afa15801561130b573d6000803e3d6000fd5b505050506040513d601f19601f8201168201806040525081019061132f9190613575565b9695505050505050565b6000818152600260205260408120546001600160a01b03168061086c5760405162461bcd60e51b815260206004820152601860248201527f4552433732313a20696e76616c696420746f6b656e20494400000000000000006044820152606401610a60565b60006001600160a01b03821661141c5760405162461bcd60e51b815260206004820152602960248201527f4552433732313a2061646472657373207a65726f206973206e6f74206120766160448201527f6c6964206f776e657200000000000000000000000000000000000000000000006064820152608401610a60565b506001600160a01b031660009081526003602052604090205490565b611440611b53565b61144a6000611fe7565b565b611454611b53565b6011805461ff001916610100831515021790556040517f967dfe5be148516c1fac0713cd546ed343ea749976f802d2630d96fd2ee3477190600090a150565b61149b611b53565b6114a760128383612fcf565b506040517f967dfe5be148516c1fac0713cd546ed343ea749976f802d2630d96fd2ee3477190600090a15050565b60606001805461092590613524565b611141338383612046565b6114f93383611bd7565b61156b5760405162461bcd60e51b815260206004820152602e60248201527f4552433732313a2063616c6c6572206973206e6f7420746f6b656e206f776e6560448201527f72206e6f7220617070726f7665640000000000000000000000000000000000006064820152608401610a60565b61157784848484612115565b50505050565b611585613043565b50604080516080810182526000838152600e60208181528483206001015460ff80821686526101008204811683870152630100000082048116968601969096529590925290526201000090920416606082015290565b60606115e682611a74565b60006115fd60408051602081019091526000815290565b9050600081511161161d5760405180602001604052806000815250611648565b8061162784612193565b604051602001611638929190613607565b6040516020818303038152906040525b9392505050565b611657611b53565b6011805462ff0000191662010000831515021790556040517f967dfe5be148516c1fac0713cd546ed343ea749976f802d2630d96fd2ee3477190600090a150565b6002600b5414156116eb5760405162461bcd60e51b815260206004820152601f60248201527f5265656e7472616e637947756172643a207265656e7472616e742063616c6c006044820152606401610a60565b6002600b5532331461173f5760405162461bcd60e51b815260206004820152601060248201527f4f6e6c7920454f4120416c6c6f776564000000000000000000000000000000006044820152606401610a60565b601154610100900460ff166117965760405162461bcd60e51b815260206004820152601b60248201527f436f6d6d756e69747920636c61696d206973206e6f74206f70656e00000000006044820152606401610a60565b336000908152600f602052604090205460ff16156117f65760405162461bcd60e51b815260206004820152600f60248201527f416c726561647920636c61696d656400000000000000000000000000000000006044820152606401610a60565b818160105461186d838380806020026020016040519081016040528093929190818152602001838360200280828437600092019190915250506040516bffffffffffffffffffffffff193360601b1660208201528592506034019050604051602081830303815290604052805190602001206122c5565b6118b95760405162461bcd60e51b815260206004820152601e60248201527f4164647265737320646f6573206e6f7420657869737420696e206c69737400006044820152606401610a60565b6127106118c5600d5490565b106118fb5760405162461bcd60e51b81526020600482015260066024820152654e6f206d617360d01b6044820152606401610a60565b611909600d80546001019055565b336000908152600f60205260409020805460ff1916600117905561192e610d0d611bad565b50506001600b55505050565b60606012805461092590613524565b611951611b53565b6001600160a01b0381166119cd5760405162461bcd60e51b815260206004820152602660248201527f4f776e61626c653a206e6577206f776e657220697320746865207a65726f206160448201527f64647265737300000000000000000000000000000000000000000000000000006064820152608401610a60565b6119d681611fe7565b50565b60006001600160e01b031982167f80ac58cd000000000000000000000000000000000000000000000000000000001480611a3c57506001600160e01b031982167f5b5e139f00000000000000000000000000000000000000000000000000000000145b8061086c57507f01ffc9a7000000000000000000000000000000000000000000000000000000006001600160e01b031983161461086c565b6000818152600260205260409020546001600160a01b03166119d65760405162461bcd60e51b815260206004820152601860248201527f4552433732313a20696e76616c696420746f6b656e20494400000000000000006044820152606401610a60565b6000818152600460205260409020805473ffffffffffffffffffffffffffffffffffffffff19166001600160a01b0384169081179091558190611b1a82611339565b6001600160a01b03167f8c5be1e5ebec7d5bd14f71427d1e84f3dd0314c0f7b2291e5b200ac8c7c3b92560405160405180910390a45050565b600a546001600160a01b0316331461144a5760405162461bcd60e51b815260206004820181905260248201527f4f776e61626c653a2063616c6c6572206973206e6f7420746865206f776e65726044820152606401610a60565b6000611bbd600d80546001019055565b50600d5490565b611bce33826122db565b6119d6816122f5565b600080611be383611339565b9050806001600160a01b0316846001600160a01b03161480611c2a57506001600160a01b0380821660009081526005602090815260408083209388168352929052205460ff165b80611c4e5750836001600160a01b0316611c43846109a8565b6001600160a01b0316145b949350505050565b826001600160a01b0316611c6982611339565b6001600160a01b031614611ce55760405162461bcd60e51b815260206004820152602560248201527f4552433732313a207472616e736665722066726f6d20696e636f72726563742060448201527f6f776e65720000000000000000000000000000000000000000000000000000006064820152608401610a60565b6001600160a01b038216611d605760405162461bcd60e51b8152602060048201526024808201527f4552433732313a207472616e7366657220746f20746865207a65726f2061646460448201527f72657373000000000000000000000000000000000000000000000000000000006064820152608401610a60565b611d6b8383836125dd565b611d76600082611ad8565b6001600160a01b0383166000908152600360205260408120805460019290611d9f90849061364c565b90915550506001600160a01b0382166000908152600360205260408120805460019290611dcd908490613663565b9091555050600081815260026020526040808220805473ffffffffffffffffffffffffffffffffffffffff19166001600160a01b0386811691821790925591518493918716917fddf252ad1be2c89b69c2b068fc378daa952ba7f163c4a11628f55a4df523b3ef91a4505050565b6000818152600e60205260408120805482918291611e5890613524565b80601f0160208091040260200160405190810160405280929190818152602001828054611e8490613524565b8015611ed15780601f10611ea657610100808354040283529160200191611ed1565b820191906000526020600020905b815481529060010190602001808311611eb457829003601f168201915b50505050509050606060005b601454811015611fd95760148181548110611efa57611efa61355f565b906000526020600020018054611f0f90613524565b80601f0160208091040260200160405190810160405280929190818152602001828054611f3b90613524565b8015611f885780601f10611f5d57610100808354040283529160200191611f88565b820191906000526020600020905b815481529060010190602001808311611f6b57829003601f168201915b50505050509150818051906020012083805190602001201415611fc757611fb0600382613691565b611fbb6003836136a5565b94509450505050915091565b80611fd1816136b9565b915050611edd565b506000958695509350505050565b600a80546001600160a01b0383811673ffffffffffffffffffffffffffffffffffffffff19831681179093556040519116919082907f8be0079c531659141344cd1fd0a4f28419497f9722a3daafe3b4186f6b6457e090600090a35050565b816001600160a01b0316836001600160a01b031614156120a85760405162461bcd60e51b815260206004820152601960248201527f4552433732313a20617070726f766520746f2063616c6c6572000000000000006044820152606401610a60565b6001600160a01b03838116600081815260056020908152604080832094871680845294825291829020805460ff191686151590811790915591519182527f17307eab39ab6107e8899845ad3d59bd9653f200f220920489ca2b5937696c31910160405180910390a3505050565b612120848484611c56565b61212c84848484612695565b6115775760405162461bcd60e51b815260206004820152603260248201527f4552433732313a207472616e7366657220746f206e6f6e20455243373231526560448201527131b2b4bb32b91034b6b83632b6b2b73a32b960711b6064820152608401610a60565b6060816121d357505060408051808201909152600181527f3000000000000000000000000000000000000000000000000000000000000000602082015290565b8160005b81156121fd57806121e7816136b9565b91506121f69050600a83613691565b91506121d7565b60008167ffffffffffffffff81111561221857612218613228565b6040519080825280601f01601f191660200182016040528015612242576020820181803683370190505b5090505b8415611c4e5761225760018361364c565b9150612264600a866136a5565b61226f906030613663565b60f81b8183815181106122845761228461355f565b60200101907effffffffffffffffffffffffffffffffffffffffffffffffffffffffffffff1916908160001a9053506122be600a86613691565b9450612246565b6000826122d285846127de565b14949350505050565b61114182826040518060200160405280600081525061282b565b60148054604080516020808402820181019092528281526000936123d093928390869084015b828210156123c757838290600052602060002001805461233a90613524565b80601f016020809104026020016040519081016040528092919081815260200182805461236690613524565b80156123b35780601f10612388576101008083540402835291602001916123b3565b820191906000526020600020905b81548152906001019060200180831161239657829003601f168201915b50505050508152602001906001019061231b565b505050506128a9565b905060006123dd836128ef565b90506000604051806101000160405280848152602001836000600481106124065761240661355f565b602002015160ff168152602001836001600481106124265761242661355f565b602002015160ff168152602001836002600481106124465761244661355f565b602002015160ff168152602001836003600481106124665761246661355f565b6020908102919091015160ff168252600082820181905260408084018290526060909301819052878152600e82529190912082518051939450849391926124b292849290910190612f2c565b50602082015160018201805460408501516060860151608087015160a088015160c08901516001600160a01b03166601000000000000027fffffffffffff0000000000000000000000000000000000000000ffffffffffff61ffff90921664010000000002919091167fffffffffffff00000000000000000000000000000000000000000000ffffffff60ff93841663010000000263ff0000001995851662010000029590951663ffff0000199685166101000261ffff19909816949099169390931795909517939093169590951717939093161791909117905560e09091015160029091015560006125a485612aa0565b6000958652600e6020526040909520600101805461ffff9096166401000000000265ffff00000000199096169590951790945550505050565b6001600160a01b0383166126385761263381600880546000838152600960205260408120829055600182018355919091527ff3f7a9fe364faab93b216da50a3214154f22a0a2b415b23a84c8169e8b636ee30155565b61265b565b816001600160a01b0316836001600160a01b03161461265b5761265b8382612ba9565b6001600160a01b03821661267257610b0181612c46565b826001600160a01b0316826001600160a01b031614610b0157610b018282612cf5565b60006001600160a01b0384163b156127d357604051630a85bd0160e11b81526001600160a01b0385169063150b7a02906126d99033908990889088906004016136d4565b6020604051808303816000875af1925050508015612714575060408051601f3d908101601f1916820190925261271191810190613706565b60015b6127b9573d808015612742576040519150601f19603f3d011682016040523d82523d6000602084013e612747565b606091505b5080516127b15760405162461bcd60e51b815260206004820152603260248201527f4552433732313a207472616e7366657220746f206e6f6e20455243373231526560448201527131b2b4bb32b91034b6b83632b6b2b73a32b960711b6064820152608401610a60565b805181602001fd5b6001600160e01b031916630a85bd0160e11b149050611c4e565b506001949350505050565b600081815b84518110156128235761280f828683815181106128025761280261355f565b6020026020010151612d39565b91508061281b816136b9565b9150506127e3565b509392505050565b6128358383612d65565b6128426000848484612695565b610b015760405162461bcd60e51b815260206004820152603260248201527f4552433732313a207472616e7366657220746f206e6f6e20455243373231526560448201527131b2b4bb32b91034b6b83632b6b2b73a32b960711b6064820152608401610a60565b606060006128b8846000612ec0565b90506000838451836128ca91906136a5565b815181106128da576128da61355f565b60200260200101519050809250505092915050565b6128f7613043565b6005600c6000612907838361364c565b612912906001613663565b9050600061292a82612925886001613663565b612ec0565b6129349085613663565b9050600061294783612925896002613663565b6129519086613663565b90506000612964846129258a6003613663565b61296e9087613663565b90506000612981856129258b6004613663565b61298b9088613663565b6040805160808101825260ff8088168252868116602083015285811692820192909252908216606082015290915060005b6004811015612a925760006129d282600461364c565b60408051426020820152016040516020818303038152906040528051906020012060001c612a0091906136a5565b612a0a9083613663565b90506000838260048110612a2057612a2061355f565b60200201519050838360048110612a3957612a3961355f565b6020020151848360048110612a5057612a5061355f565b60ff909216602092909202015280848460048110612a7057612a7061355f565b60ff909216602092909202015250819050612a8a816136b9565b9150506129bc565b509998505050505050505050565b600080612aac83611e3b565b5090506000808260011415612ac7575060079050600c612acf565b506004905060085b6000612ade6201000087612ec0565b600c546000888152600e60205260408082206001015490517f3966f40000000000000000000000000000000000000000000000000000000000815261ffff80891660048301528088166024830152640100000000909204821660448201529084166064820152929350916001600160a01b0390911690633966f40090608401602060405180830381865afa158015612b7a573d6000803e3d6000fd5b505050506040513d601f19601f82011682018060405250810190612b9e9190613723565b979650505050505050565b60006001612bb68461139e565b612bc0919061364c565b600083815260076020526040902054909150808214612c13576001600160a01b03841660009081526006602090815260408083208584528252808320548484528184208190558352600790915290208190555b5060009182526007602090815260408084208490556001600160a01b039094168352600681528383209183525290812055565b600854600090612c589060019061364c565b60008381526009602052604081205460088054939450909284908110612c8057612c8061355f565b906000526020600020015490508060088381548110612ca157612ca161355f565b6000918252602080832090910192909255828152600990915260408082208490558582528120556008805480612cd957612cd9613747565b6001900381819060005260206000200160009055905550505050565b6000612d008361139e565b6001600160a01b039093166000908152600660209081526040808320868452825280832085905593825260079052919091209190915550565b6000818310612d55576000828152602084905260409020611648565b5060009182526020526040902090565b6001600160a01b038216612dbb5760405162461bcd60e51b815260206004820181905260248201527f4552433732313a206d696e7420746f20746865207a65726f20616464726573736044820152606401610a60565b6000818152600260205260409020546001600160a01b031615612e205760405162461bcd60e51b815260206004820152601c60248201527f4552433732313a20746f6b656e20616c7265616479206d696e746564000000006044820152606401610a60565b612e2c600083836125dd565b6001600160a01b0382166000908152600360205260408120805460019290612e55908490613663565b9091555050600081815260026020526040808220805473ffffffffffffffffffffffffffffffffffffffff19166001600160a01b03861690811790915590518392907fddf252ad1be2c89b69c2b068fc378daa952ba7f163c4a11628f55a4df523b3ef908290a45050565b600080612ece60014361364c565b6040805191406020830152429082015233606090811b6bffffffffffffffffffffffff191690820152607481018590526094810184905260b40160408051601f1981840301815291905280516020909101209050611c4e84826136a5565b828054612f3890613524565b90600052602060002090601f016020900481019282612f5a5760008555612fa0565b82601f10612f7357805160ff1916838001178555612fa0565b82800160010185558215612fa0579182015b82811115612fa0578251825591602001919060010190612f85565b50612fac929150613061565b5090565b6040518061040001604052806020906020820280368337509192915050565b828054612fdb90613524565b90600052602060002090601f016020900481019282612ffd5760008555612fa0565b82601f106130165782800160ff19823516178555612fa0565b82800160010185558215612fa0579182015b82811115612fa0578235825591602001919060010190613028565b60405180608001604052806004906020820280368337509192915050565b5b80821115612fac5760008155600101613062565b6001600160e01b0319811681146119d657600080fd5b60006020828403121561309e57600080fd5b813561164881613076565b6000602082840312156130bb57600080fd5b5035919050565b60005b838110156130dd5781810151838201526020016130c5565b838111156115775750506000910152565b600081518084526131068160208601602086016130c2565b601f01601f19169290920160200192915050565b60208152600061164860208301846130ee565b80356001600160a01b038116811461314457600080fd5b919050565b6000806040838503121561315c57600080fd5b6131658361312d565b946020939093013593505050565b6000806040838503121561318657600080fd5b50508035926020909101359150565b8035801515811461314457600080fd5b6000602082840312156131b757600080fd5b61164882613195565b6000806000606084860312156131d557600080fd5b6131de8461312d565b92506131ec6020850161312d565b9150604084013590509250925092565b6000806040838503121561320f57600080fd5b8235915061321f6020840161312d565b90509250929050565b634e487b7160e01b600052604160045260246000fd5b600067ffffffffffffffff8084111561325957613259613228565b604051601f8501601f19908116603f0116810190828211818310171561328157613281613228565b8160405280935085815286868601111561329a57600080fd5b858560208301376000602087830101525050509392505050565b6000602082840312156132c657600080fd5b813567ffffffffffffffff8111156132dd57600080fd5b8201601f810184136132ee57600080fd5b611c4e8482356020840161323e565b6104008101818360005b60208082106133165750613330565b825163ffffffff1684529283019290910190600101613307565b50505092915050565b60006020828403121561334b57600080fd5b6116488261312d565b6000806020838503121561336757600080fd5b823567ffffffffffffffff8082111561337f57600080fd5b818501915085601f83011261339357600080fd5b8135818111156133a257600080fd5b8660208285010111156133b457600080fd5b60209290920196919550909350505050565b600080604083850312156133d957600080fd5b6133e28361312d565b915061321f60208401613195565b6000806000806080858703121561340657600080fd5b61340f8561312d565b935061341d6020860161312d565b925060408501359150606085013567ffffffffffffffff81111561344057600080fd5b8501601f8101871361345157600080fd5b6134608782356020840161323e565b91505092959194509250565b60808101818360005b600481101561333057815160ff16835260209283019290910190600101613475565b600080602083850312156134aa57600080fd5b823567ffffffffffffffff808211156134c257600080fd5b818501915085601f8301126134d657600080fd5b8135818111156134e557600080fd5b8660208260051b85010111156133b457600080fd5b6000806040838503121561350d57600080fd5b6135168361312d565b915061321f6020840161312d565b600181811c9082168061353857607f821691505b6020821081141561355957634e487b7160e01b600052602260045260246000fd5b50919050565b634e487b7160e01b600052603260045260246000fd5b600061040080838503121561358957600080fd5b83601f84011261359857600080fd5b60405181810181811067ffffffffffffffff821117156135ba576135ba613228565b6040529083019080858311156135cf57600080fd5b845b838110156135fc57805163ffffffff811681146135ee5760008081fd5b8252602091820191016135d1565b509095945050505050565b600083516136198184602088016130c2565b83519083019061362d8183602088016130c2565b01949350505050565b634e487b7160e01b600052601160045260246000fd5b60008282101561365e5761365e613636565b500390565b6000821982111561367657613676613636565b500190565b634e487b7160e01b600052601260045260246000fd5b6000826136a0576136a061367b565b500490565b6000826136b4576136b461367b565b500690565b60006000198214156136cd576136cd613636565b5060010190565b60006001600160a01b0380871683528086166020840152508360408301526080606083015261132f60808301846130ee565b60006020828403121561371857600080fd5b815161164881613076565b60006020828403121561373557600080fd5b815161ffff8116811461164857600080fd5b634e487b7160e01b600052603160045260246000fdfea26469706673582212202dc562e5a9f313e8dc0cc5ba97c64b3fc8e3da403e3439ba30b203d076517fa964736f6c634300080a003368747470733a2f2f6170692e636f696e6c616e6465722e6f6e652f6d6574612f636974697a656e7368747470733a2f2f6170692e636f696e6c616e6465722e6f6e652f6d6574612f636974697a656e732f",
  "linkReferences": {},
  "deployedLinkReferences": {}
}